:1000000024C1000053C1000051C100004FC10000D5
:100010004DC100004BC1000049C1000047C10000B4
:1000200045C1000043C1000041C100003FC10000C4
:100030003DC100003BC1000039C1000037C10000D4
:1000400035C1000033C1000031C100002FC10000E4
:100050002DC100002BC1000029C100000C94DE411D
:1000600025C100000C94B2450C94E8451FC1000066
:100070001DC100001BC1000019C1000017C1000014
:1000800015C1000013C1000011C100000FC1000024
:100090000C943E460C94744609C100000C94BD407B
:1000A00005C1000003C1000001C10000FFC0000045
:1000B000FDC00000FBC00000F9C00000F7C0000058
:1000C000F5C00000F3C000000C9448370C94CA46F9
:1000D0000C940047EBC000000C9456470C948C47DE
:1000E000E5C0000005A84CCDB2D44EB93836A902FF
:1000F0000C50B9918688083CA6AAAA2ABE00000026
:10010000803F028988083EABAAAAAABE00000080F0
:100110003F07634236B79BD8A71A39685618AEBA5C
:10012000AB558C1D3CB7CC5763BD6DEDFD753EF6F0
:10013000177231BF000000803F0000000A0B020967
:100140000C0D0E0807030401000000000000000071
:10015000000000000000000000000000000000009F
:10016000000000000000121110000000000000005C
:10017000000000000000000000000000000000007F
:1001800001021020200808102040102040800201A9
:10019000020108040201010204081020408080408E
:1001A000201008040201800402018040201008048D
:1001B000020108040201010204081020408001022B
:1001C00004081020408005050505070508080808F3
:1001D000020202020A0A08080404040401010101DF
:1001E00001010101030303030303030304070707DA
:1001F0000C0C0C0C0C0C0C0C02020202060606067F
:10020000060606060B0B0B0B0B0B0B0B000022005C
:10021000250028002B002E003100340002010000D0
:10022000050108010B0100002100240027002A001D
:100230002D003000330001010000040107010A0114
:10024000283E11469D462947B54711241FBECFEFD2
:10025000D1E2DEBFCDBF00E00CBF15E0A0E0B2E010
:10026000EAECF0E900E00BBF02C007900D92A03766
:10027000B107D9F72EE0A0E7B5E001C01D92A1318A
:10028000B207E1F711E0C5E2D1E000E006C0219736
:100290000109802FFE010E943248C032D10780E060
:1002A0000807A9F70E943B380C946348A9CECF9267
:1002B000DF92EF92FF926B017C01C114D104E10443
:1002C000F10469F480910002811109C08091020259
:1002D000909103020E94993D81E080930002C60143
:1002E000880F991F880F991F80509E4FFF90EF90A5
:1002F000DF90CF900895009781F0FC0121812111BA
:1003000004C040EA56E861E070E0FC01828193811C
:100310000E94A83D90E080E0089588E090E0089574
:100320004F925F926F927F928F929F92AF92BF9205
:10033000CF92DF92EF92FF920F931F93CF93DF93B1
:100340000097C9F1280139017A01EC01402F8A8117
:100350009B810E94263E8A819B81DC01ED91FC916C
:100360000084F185E02D1995892B01F16701812C1D
:10037000912C54018A819B81DC01ED91FC910084D8
:10038000F185E02D1995892B91F184149504A6042B
:10039000B70469F18A819B81DC01ED91FC910284B3
:1003A000F385E02D19958F3F9807C1F484E0F7019C
:1003B00011928A95E9F788E090E0DF91CF911F9143
:1003C0000F91FF90EF90DF90CF90BF90AF909F90F4
:1003D0008F907F906F905F904F900895FFEF8F1AEE
:1003E0009F0AAF0ABF0AD6018D936D01C3CF90E07B
:1003F00080E0E3CF8F929F92AF92BF92CF92DF9235
:10040000EF920F931F93CF93DF930097F1F06A0160
:10041000EC018A819B810E94AB3D8A819B81DC013A
:10042000ED91FC910280F381E02DA801B6011995B0
:100430008A819B8160E0E11001C061E00E94B53DCE
:10044000882389F08250823088F088E090E0DF9144
:10045000CF911F910F91EF90DF90CF90BF90AF9011
:100460009F908F90089590E080E0F1CF84E090E03D
:10047000EECF0895611102C00C941F446130E1F386
:1004800062E0FACF662319F061E00C945B4460E00F
:10049000FCCFCF92DF92EF92FF92CF93882351F15E
:1004A0006A017B01CFEFC80F20E030E0A901CB014A
:1004B000B6010E94443987FF11C0C701B6019058A8
:1004C0000E94B8399B01AC016C2F70E090E080E095
:1004D000CF91FF90EF90DF90CF90B2C0C701B601EF
:1004E0000E94B3398C2FCF91FF90EF90DF90CF9087
:1004F0000C94E542CF91FF90EF90DF90CF9008955C
:100500000F931F938B019C0183E0369527951795D8
:1005100007958A95D1F700591A4F462F477021E069
:1005200030E0F90102C0EE0FFF1F4A95E2F7AF017C
:10053000F80120812423CB010196211102C090E013
:1005400080E01F910F9108950F931F938B019C01E1
:1005500083E036952795179507958A95D1F76770AB
:1005600081E090E001C0880F6A95EAF7F801E05950
:10057000FA4F2081452B31F48095822380831F918F
:100580000F910895822BFACF2F923F924F925F9254
:100590006F927F928F929F92AF92BF92CF92DF9293
:1005A000EF92FF920F931F93CF93DF93D62EC72E18
:1005B000782E692E49015A01280161E08D2D0E9493
:1005C0001F44CD2DDC2D8E010F5F1F4FA8016D2D17
:1005D0007C2D872D962DB8DF20E030E0A901C201E7
:1005E000B7010E94703B181664F4C201B7010E9463
:1005F000B8392B01C501B4010E94B839A201CE015E
:1006000023D0C801DF91CF911F910F91FF90EF9000
:10061000DF90CF90BF90AF909F908F907F906F9022
:100620005F904F903F902F900895882341F0815024
:10063000682F70E090E080E050E040E085CF0895C2
:10064000862FB9010C94E5429C01FC01E65CFE4F4B
:10065000E491E150E231E0F4F0E08827ED5CFC4FFA
:100660008F4F0C94324845034C034F0366037B03C2
:10067000480390039C03A003B703CC03E103F803F2
:100680000D044803220439044E0484B5806884BDF7
:1006900060E0822F0C945B4484B58062F8CF809137
:1006A00080008C7F82608093800080918100807EBA
:1006B0008061682B6093810050938700409386008F
:1006C00080918000806880938000E2CF80918000DC
:1006D0008C7F82608093800080918100807E806129
:1006E000682B60938100509387004093860080912F
:1006F00080008062E8CF809180008C7F8260809350
:10070000800080918100807E8061682B60938100F1
:100710005093870040938600809180008860D3CFFB
:100720008091B00080688093B0008091B100887F94
:10073000682B6093B100ACCF8091B0008062F3CFA2
:10074000809190008C7F82608093900080919100D6
:10075000807E8061682B6093910050939700409356
:1007600096008091900080688093900091CF809156
:1007700090008C7F82608093900080919100807EB9
:100780008061682B6093910050939700409396008E
:10079000809190008062E8CF809190008C7F826091
:1007A0008093900080919100807E8061682B60939F
:1007B000910050939700409396008091900088603C
:1007C000D3CF8091A0008C7F82608093A000809125
:1007D000A100807E8061682B6093A1005093A700E8
:1007E0004093A6008091A00080688093A00050CF25
:1007F0008091A0008C7F82608093A0008091A100F6
:10080000807E8061682B6093A1005093A700409385
:10081000A6008091A0008062E8CF8091A0008C7F2C
:1008200082608093A0008091A100807E8061682B0F
:100830006093A1005093A7004093A6008091A00070
:100840008860D3CF809120018C7F826080932001CB
:1008500080912101807E8061682B609321015093FB
:100860002701409326018091200180688093200118
:100870000FCF809120018C7F826080932001809136
:100880002101807E8061682B6093210150932701B4
:1008900040932601809120018062E8CF8091200161
:1008A0008C7F82608093200180912101807E806115
:1008B000682B60932101509327014093260180917A
:1008C00020018860D3CF90E080E008950F931F93BC
:1008D000009709F489C06115710509F485C000917C
:1008E00053041091540420915504309156040E3F46
:1008F0001F4F2F4F3F4F09F068C04FEF5FEFBA0116
:1009000040935304509354046093550470935604D9
:1009100040915304509154046091550470915604D1
:10092000DC011296ED91FC9180819181A281B381CD
:100930008093930690939406A0939506B0939606A1
:1009400084819581A681B78180938F0690939006CC
:10095000A0939106B093920680859185A285B38578
:1009600080938B0690938C06A0938D06B0938E0691
:1009700084859585A685B78580938706909388069C
:10098000A0938906B0938A0610928306109284067B
:1009900010928506109286060E94331B88E59BE123
:1009A00090937A058093790590937C0580937B05DD
:1009B0000E94221A009731F421E030E0309398062B
:1009C000209397061F910F91089500915304109161
:1009D00054042091550430915604DB010D931D936E
:1009E0002D933C93139794CF8FEF9FEFEBCF8F9284
:1009F0009F92AF92BF92CF92DF92EF92FF921F939E
:100A0000CF93DF934B015C0110919A0682E090E056
:100A1000909398068093970681149104A104B104E1
:100A200041F480919A06811104C080919906C1E039
:100A30008111C0E0C12CD12C760180919A068111E0
:100A400006C080919906811102C0CC23D9F083E0C1
:100A500090E09093980680939706CC2381F1CCE99F
:100A6000DFEF111102C00E94BD1ECE01DF91CF91B8
:100A70001F91FF90EF90DF90CF90BF90AF909F902D
:100A80008F9008956AE070E080E090E00E944D420F
:100A900080E1C80E87E2D81EE11CF11C8FEF88169A
:100AA0009806A806B80631F0C1E08C149D04AE0487
:100AB000BF0408F0C0E080E00E94561ABECFD0E02C
:100AC000C0E0CFCFCF92DF92EF92FF920F931F93B0
:100AD000CF93DF938F3F910511F008F051C0209123
:100AE0009706309198062330310539F0209197060A
:100AF000309198062130310531F424E030E0309314
:100B00009806209397066A017B01EC0182309105DB
:100B1000A8F011E0AE01C701B6010E94211AAB0195
:100B2000BC01CE011123F9F0DF91CF911F910F91FC
:100B3000FF90EF90DF90CF900C94E6208C01000F97
:100B4000111F07581A4FD8018D919C91892B09F3D9
:100B50000E94F0200297E9F6D801ED91FC91CE01B8
:100B60001995182FD7CF0E94082190E080E0DF91DF
:100B7000CF911F910F91FF90EF90DF90CF9008954C
:100B80008FEF9FEFF4CF80E00C94561ACF93DF9352
:100B900086E090E090939806809397060E94AF1AA3
:100BA000EC01E9E7F5E084E0DF011D928A95E9F7C1
:100BB0000E94551E1092980610929706CE01DF9162
:100BC000CF910895809199060895809182060895A5
:100BD0006093530470935404809355049093560487
:100BE00090E080E00895CF92DF92EF92FF926B0148
:100BF0007C019F7720E030E040E859E50E944439CD
:100C000087FF2BC020E030E040E05FE3C701B60182
:100C10000E94703B87FD0EC020E030E040E05FE3C3
:100C2000C701B6010E94CD38FF90EF90DF90CF90C2
:100C30000C94213A20E030E040E05FEBC701B601C0
:100C40000E94703B181684F420E030E0A901C7012F
:100C5000B6010E94743B6B017C01C701B601FF9095
:100C6000EF90DF90CF90089520E030E040E05FE328
:100C7000C701B6010E94CC38FF90EF90DF90CF9073
:100C80000C9431392F923F924F925F926F927F92E4
:100C90008F929F92AF92BF92CF92DF92EF92FF928C
:100CA0000F931F93CF93DF93CDB7DEB7A5970FB602
:100CB000F894DEBF0FBECDBF8091F10D8150823020
:100CC00008F4BCC580E08093F10D8091F00D815057
:100CD000823008F4B5C580E08093F00D8091EF0D6F
:100CE0008150823008F4AEC580E08093EF0D809192
:100CF000EE0D8150823008F4A7C580E08093EE0DA0
:100D00008091ED0D8150823008F4A0C580E0809381
:100D1000ED0D8091EC0D8150823008F499C580E092
:100D20008093EC0DC0903802D0903902E0903A02E6
:100D3000F0903B02A70196016091730D7091740DC4
:100D40008091750D9091760D0E944439882341F071
:100D5000C092730DD092740DE092750DF092760DE5
:100D60008CE08987C12CEE24E39401E010E020E0C0
:100D700030E0AE01475F5F4F66E370E08091690D40
:100D800090916A0D37DB8987811164C5CC24C394A7
:100D9000E12C04E010E020E030E0AE014F5F5F4F57
:100DA00066E370E08091690D90916A0DB9DA84E094
:100DB000FE013196DE01159601900D928A95E1F7BC
:100DC0008D819E819D838E838F8198859F83888767
:100DD0002091970D3091980D4091990D50919A0D59
:100DE0006091B8037091B9038091BA039091BB03ED
:100DF0000E94743B6A8F7B8F8C8F9D8F20914C0457
:100E000030914D04AF81B8850E943A486B017C0156
:100E1000C0925F0DD092600DE092610DF092620D74
:100E200081E090E0409134025091350260913602A9
:100E300070913702C416D506E606F70610F090E06A
:100E400080E020915204289FB001299F700D112449
:100E5000072E000C880B990B0E94E6399B01AC0110
:100E60000E94CD384B015C01C701B6010E94E439F4
:100E700020E030E040E056E30E94743B9B01AC016F
:100E8000C501B4010E94CD382091BC033091BD034F
:100E90004091BE035091BF030E94CC382091C00303
:100EA0003091C1034091C2035091C3030E94743B2F
:100EB0006A877B878C879D876093270D7093280DA9
:100EC0008093290D90932A0D2091C4033091C5037E
:100ED0004091C6035091C7030E94743B6B017C0193
:100EE000C0922B0DD0922C0DE0922D0DF0922E0D74
:100EF00020919B0D30919C0D40919D0D50919E0D28
:100F00002E873F87488B598B40909F0D5090A00DA6
:100F10006090A10D7090A20D2091E8033091E9033B
:100F20004091EA035091EB036E857F85888999890A
:100F30000E94743B4B015C012091EC033091ED0366
:100F40004091EE035091EF03C301B2010E94743B44
:100F50009B01AC01C501B4010E94CD384B015C017D
:100F60002091F8033091F9034091FA035091FB036B
:100F70006A8D7B8D8C8D9D8D0E94743B6A8B7B8BE3
:100F80008C8B9D8B2091FC033091FD034091FE03DF
:100F90005091FF03C701B6010E94743B9B01AC0155
:100FA0006A897B898C899D890E94CD389B01AC011F
:100FB000C501B4010E94CD3860931F0D7093200DC0
:100FC0008093210D9093220D2091F0033091F10335
:100FD0004091F2035091F3036E857F85888999894A
:100FE0000E94743B4B015C012091F4033091F503A6
:100FF0004091F6035091F703C301B2010E94743B84
:101000009B01AC01C501B4010E94CD384B015C01CC
:101010002091000430910104409102045091030496
:101020006A8D7B8D8C8D9D8D0E94743B2B013C01C4
:101030002091040430910504409106045091070466
:10104000C701B6010E94743B9B01AC01C301B20110
:101050000E94CD389B01AC01C501B4010E94CD387E
:101060006093230D7093240D8093250D9093260D8E
:1010700060932F0D7093300D8093310D9093320D4E
:10108000E0915C06F0915D06C080D180E280F38043
:1010900020911004309111044091120450911304D6
:1010A000C701B6010E94443987FFD7C38091140459
:1010B00090911504A0911604B09117048093570DD8
:1010C0009093580DA093590DB0935A0D20911C0484
:1010D00030911D0440911E0450911F04C701B601B8
:1010E0000E94443987FFC2C380912004909121045B
:1010F000A0912204B091230480935B0D90935C0D2A
:10110000A0935D0DB0935E0D2091280430912904C9
:1011100040912A0450912B04C701B6010E94443922
:1011200087FFADC380912C0490912D04A0912E04D3
:10113000B0912F048093530D9093540DA093550DAF
:10114000B093560D20915B0D30915C0D40915D0D7B
:1011500050915E0D6091570D7091580D8091590D11
:1011600090915A0D0E94CD382091530D3091540D1D
:101170004091550D5091560D0E94CD386B017C0168
:10118000C092330DD092340DE092350DF092360DB1
:1011900020E030E0A9016091340470913504809121
:1011A0003604909137040E944439882309F470C3AF
:1011B000C092370DD092380DE092390DF0923A0D71
:1011C0002A853B854C855D856091370D7091380D82
:1011D0008091390D90913A0D0E94CC3860933B0D6F
:1011E00070933C0D80933D0D90933E0D8FEF809357
:1011F000EB0DC0900C04D0900D04E0900E04F09024
:101200000F0420E030E0A901C701B6010E94443973
:1012100087FF4FC3C701B6010E9431396093530D58
:101220007093540D8093550D9093560D6091530D0E
:101230007091540D8091550D9091560D0E941E197C
:10124000882309F43BC31092530D1092540D109251
:10125000550D1092560DC090530DD090540DE09046
:10126000550DF090560D20E030E0A901C701B60100
:101270000E94443987FF45C3C701B60190580E94B8
:10128000B83990958095709561957F4F8F4F9F4F9E
:10129000633071058105910509F44DC30CF036C327
:1012A000613071058105910509F43EC36230710515
:1012B0008105910509F43BC38091EB0D823011F457
:1012C0000C9486110CF03DC3882309F431C581309C
:1012D00009F42DC767E070E080E090E011D98C013F
:1012E0009093960D8093950D20913F0D3091400D78
:1012F0004091410D5091420D609140047091410424
:1013000080914204909143040E94743B6B017C01E4
:1013100020E030E04FE753E40E944439181614F4FB
:101320000C94BE15C092530DD092540DE092550D01
:10133000F092560D20E030E0A9016091530D7091BC
:10134000540D8091550D9091560D0E94703B87FF72
:1013500008C01092530D1092540D1092550D10921A
:10136000560D4091530D5091540D6091550D709153
:10137000560DC8018ED86091440470914504809147
:101380004604909147042FDC6B017C01C092530D01
:10139000D092540DE092550DF092560D20E030E0C1
:1013A00040E853E40E94443987FD02C00C94CF15F5
:1013B00020E030E0A901C701B6010E94703B87FF21
:1013C00002C00C94CC15C701B6010E94B8396987D8
:1013D00069858BE057D8C090530DD090540DE090A4
:1013E000550DF090560D20E030E040E853E4C70181
:1013F000B6010E94443987FD02C00C94D61520E046
:1014000030E0A901C701B6010E94703B87FF02C00E
:101410000C94D315C701B6010E94B8396987698554
:101420008CE030D8609148047091490480914A045E
:1014300090914B04D8DB6B017C01C092530DD0928C
:10144000540DE092550DF092560D20E030E040E84A
:1014500053E40E94443987FD02C00C94DD1520E05E
:1014600030E0A901C701B6010E94703B87FF02C0AE
:101470000C94DA15C701B6010E94B83969876985ED
:1014800086E000D880913F0D9091400DA091410DD4
:10149000B091420D8093970D9093980DA093990D64
:1014A000B0939A0DC0909B0DD0909C0DE0909D0D37
:1014B000F0909E0D40909F0D5090A00D6090A10D5A
:1014C0007090A20D80912B0D90912C0DA0912D0D5F
:1014D000B0912E0D8A879B87AC87BD872091D00362
:1014E0003091D1034091D2035091D303C701B6018B
:1014F0000E94743B4B015C012091D4033091D503D1
:101500004091D6035091D703C301B2010E94743BAE
:101510009B01AC01C501B4010E94CD384B015C01B7
:101520002091E0033091E1034091E2035091E30305
:101530006A8D7B8D8C8D9D8D0E94743B6E877F871D
:10154000888B998B2091E4033091E5034091E60369
:101550005091E7036A857B858C859D850E94743B4D
:101560009B01AC016E857F85888999890E94CD3861
:101570009B01AC01C501B4010E94CD384B015C0157
:101580002091C8033091C9034091CA035091CB0305
:10159000C701B6010E94743B6B017C012091CC0312
:1015A0003091CD034091CE035091CF03C301B201DE
:1015B0000E94743B9B01AC01C701B6010E94CD386B
:1015C0006B017C012091D8033091D9034091DA035B
:1015D0005091DB036A8D7B8D8C8D9D8D0E94743BB9
:1015E0002B013C012091DC033091DD034091DE03AF
:1015F0005091DF036A857B858C859D850E94743BB5
:101600009B01AC01C301B2010E94CD389B01AC012A
:10161000C701B6010E94CD3860939B0D70939C0D5D
:1016200080939D0D90939E0D80929F0D9092A00DA2
:10163000A092A10DB092A20D609145067091460650
:1016400080914706909148060E94E43920E030E0FE
:1016500040E85FE40E94743B6B017C0160914106AD
:101660007091420680914306909144060E94E439AD
:101670009B01AC01C701B6010E94CD3820E030E0EB
:10168000A9010E94CD380E94B839AB01BC0190E09D
:1016900080E018DA609151067091520680915306ED
:1016A000909154060E94E43920E030E040E85FE485
:1016B0000E94743B6B017C0160914D0670914E0657
:1016C00080914F06909150060E94E4399B01AC0135
:1016D000C701B6010E94CD3820E030E0A9010E9488
:1016E000CD380E94B839AB01BC0181E090E0EAD965
:1016F000C0904106D0904206E0904306F090440628
:101700009FEFC91AD90AE90AF90AC0924106D09294
:101710004206E0924306F0924406C114D104E1046B
:10172000F10499F48091450690914606A0914706F0
:10173000B09148060196A11DB11D80934506909376
:101740004606A0934706B0934806809049069090BD
:101750004A06A0904B06B0904C0600915C06109192
:101760005D0660914506709146068091470690910E
:1017700048060E94E439A50194010E94743B20E0D0
:1017800030E040E85FE40E94743B2B013C01C7015C
:10179000B6010E94E439A50194010E94743B9B01AB
:1017A000AC01C301B2010E94CD38D8016D937D9385
:1017B0008D939C93139780914D0690914E06A09126
:1017C0004F06B09150060196A11DB11D80934D06A4
:1017D00090934E06A0934F06B0935006892B8A2B08
:1017E0008B2B99F48091510690915206A09153064B
:1017F000B09154060196A11DB11D8093510690939E
:101800005206A0935306B0935406A5960FB6F894CB
:10181000DEBF0FBECDBFDF91CF911F910F91FF9023
:10182000EF90DF90CF90BF90AF909F908F907F9080
:101830006F905F904F903F902F90089583E043CA40
:1018400083E04ACA83E051CA83E058CA83E05FCA92
:1018500083E066CA18861F82BBCA809118049091E3
:101860001904A0911A04B0911B0428CC809124047F
:1018700090912504A0912604B09127043DCC80913D
:10188000300490913104A0913204B091330452CCD1
:101890008091380490913904A0913A04B0913B04AE
:1018A0008093370D9093380DA093390DB0933A0D76
:1018B00087CCC701B6010E94213AB0CC6091530D8C
:1018C0007091540D8091550D9091560D0E94D9182C
:1018D0008111B9CC6091530D7091540D8091550DCB
:1018E0009091560D20E030E040E85FE40E943B3AE2
:1018F0006093530D7093540D8093550D9093560D36
:10190000AACCC701B6010E94B839C2CC65307105B6
:1019100081059105A1F08CF0663071058105910576
:1019200009F0CACC85E004C01092EB0DC5CC81E073
:101930008093EB0DC1CC82E0FBCF83E0F9CF84E054
:10194000F7CF843009F4DAC70CF43DC7853009F0CD
:10195000C1CC2091270D3091280D4091290D509137
:101960002A0D609168037091690380916A039091D8
:101970006B030E94743B4B015C0180925B0D909263
:101980005C0DA0925D0DB0925E0D20913B0D3091EB
:101990003C0D40913D0D50913E0D60916C03709156
:1019A0006D0380916E0390916F030E94743BA501BB
:1019B00094010E94CD386B017C018091A30D909120
:1019C000A40DA091A50DB091A60D8A879B87AC8729
:1019D000BD872091A70D3091A80D4091A90D509180
:1019E000AA0D2E873F87488B598B20918803309111
:1019F000890340918A0350918B03BC01CD010E9461
:101A0000743B2B013C0120918C0330918D0340915C
:101A10008E0350918F036E857F85888999890E94F6
:101A2000743B9B01AC01C301B2010E94CD382B0174
:101A30003C01209190033091910340919203509189
:101A40009303C701B6010E94743BA30192010E9457
:101A5000CD38A50194010E94CC382B013C01209186
:101A60003002309131024091320250913302C5016F
:101A7000B4010E94743BA30192010E94743B6E8FDB
:101A80007F8F88A399A36093530D7093540D809317
:101A9000550D9093560D20919803309199034091E4
:101AA0009A0350919B03C701B6010E94743B209199
:101AB0002C0230912D0240912E0250912F020E9453
:101AC000743BA30192010E94743B6AA37BA38CA385
:101AD0009DA36093570D7093580D8093590D90936B
:101AE0005A0D8091AB0D9091AC0DA091AD0DB091C0
:101AF000AE0D8A8B9B8BAC8BBD8B8093430D9093EB
:101B0000440DA093450DB093460D2091AF0D30913B
:101B1000B00D4091B10D5091B20D2E8B3F8B488F7F
:101B2000598F2093470D3093480D4093490D5093A2
:101B30004A0DC501B4010E94743B4B015C01A70131
:101B400096016A897B898C899D890E94743B9B01DF
:101B5000AC01C501B4010E94CD382091280230911A
:101B6000290240912A0250912B020E94CD384B014C
:101B70005C014090AC035090AD036090AE03709058
:101B8000AF03AC019B01C301B2010E94443987FF3E
:101B9000D4C740923F0D5092400D6092410D70921B
:101BA000420D209178033091790340917A0350914E
:101BB0007B036A857B858C859D850E94743B4B01E8
:101BC0005C0120917C0330917D0340917E03509114
:101BD0007F036E857F85888999890E94743B9B016C
:101BE000AC01C501B4010E94CD384B015C012091CC
:101BF0008403309185034091860350918703C70188
:101C0000B6010E94743B9B01AC01C501B4010E9466
:101C1000CD384B015C0120917003309171034091EC
:101C20007203509173036A857B858C859D850E9424
:101C3000743B2B013C01209174033091750340915A
:101C40007603509177036E857F85888999890E94F4
:101C5000743B9B01AC01C301B2010E94CD382B0142
:101C60003C01209180033091810340918203509187
:101C70008303C701B6010E94743B9B01AC01C30101
:101C8000B2010E94CD386093A30D7093A40D809390
:101C9000A50D9093A60D8092A70D9092A80DA092ED
:101CA000A90DB092AA0D20919C0330919D03409103
:101CB0009E0350919F036AA17BA18CA19DA10E94CC
:101CC000743B2A893B894C895D890E94CD38609399
:101CD000AB0D7093AC0D8093AD0D9093AE0D209134
:101CE000A4033091A5034091A6035091A7036E8DE4
:101CF0007F8D88A199A10E94743B2E893F89488DD0
:101D0000598D0E94CD386093AF0D7093B00D8093C4
:101D1000B10D9093B20D8091EC0D882309F42BC77F
:101D2000833009F024C781E090E08093EC0DD2CAA3
:101D300020913B0D30913C0D40913D0D50913E0D59
:101D40006091440270914502809146029091470251
:101D50000E94743B6B017C0120910C0230910D02BA
:101D600040910E0250910F020E94743B6E877F8754
:101D7000888B998B6093530D7093540D8093550D00
:101D80009093560D20910402309105024091060275
:101D900050910702C701B6010E94743B20914C028A
:101DA00030914D0240914E0250914F020E94743B7F
:101DB0006A877B878C879D876093570D7093580D3A
:101DC0008093590D90935A0D8091D30D9091D40D1D
:101DD000A091D50DB091D60D8A8B9B8BAC8BBD8B12
:101DE00020911C0230911D0240911E0250911F0251
:101DF000C701B6010E94743B2A893B894C895D89E1
:101E00000E94CD386B017C012091D70D3091D80D07
:101E10004091D90D5091DA0D6A857B858C859D8521
:101E20000E94CC389B01AC01C701B6010E94CD389D
:101E30006B017C01C0924F0DD092500DE092510D7C
:101E4000F092520D8090240290902502A0902602DC
:101E5000B0902702A50194010E94703B1816BCF4B3
:101E6000A5019401C701B6010E94CC3860935B0DB7
:101E700070935C0D80935D0D90935E0D80924F0D7D
:101E80009092500DA092510DB092520D20C08090B2
:101E9000180290901902A0901A02B0901B02A5019E
:101EA0009401C701B6010E94703B87FDFBC01092F0
:101EB0005B0D10925C0D10925D0D10925E0DA501F0
:101EC0009401C701B6010E94443987FDD7CF8090A5
:101ED000DB0D9090DC0DA090DD0DB090DE0D20911B
:101EE0005C0230915D0240915E0250915F02C5013B
:101EF000B4010E94743B9B01AC0160914F0D709145
:101F0000500D8091510D9091520D0E94CC3820912E
:101F100058023091590240915A0250915B020E943E
:101F20004B396B017C01C0924F0DD092500DE09265
:101F3000510DF092520D209150023091510240917A
:101F40005202509153020E94743B2B013C0120919C
:101F50005402309155024091560250915702C501EA
:101F6000B4010E94743B9B01AC01C301B2010E9409
:101F7000CD38209164023091650240916602509103
:101F800067020E94743B20912802309129024091FF
:101F90002A0250912B020E94CD3860933F0D70931E
:101FA000400D8093410D9093420D40905B0D5090F9
:101FB0005C0D60905D0D70905E0D80904002909081
:101FC0004102A0904202B0904302A5019401C301D6
:101FD000B2010E94703B00914E04181614F000915B
:101FE0004F04A50194016E857F85888999890E9497
:101FF000703B10915004181614F010915104A50173
:102000009401C301B2010E944439882391F0011365
:1020100010C080913C0290913D02A0913E02B0918F
:102020003F028093530D9093540DA093550DB093A0
:10203000560D2091530D3091540D4091550D5091F6
:10204000560D609148027091490280914A02909128
:102050004B020E94743B2A893B894C895D890E940E
:10206000CD384B015C018092D30D9092D40DA0929B
:10207000D50DB092D60D4090200250902102609074
:10208000220270902302A30192010E94703B87FDFF
:1020900018C04092D30D5092D40D6092D50D70921D
:1020A000D60D1FC0A5019401C701B6010E94CC380E
:1020B00060935B0D70935C0D80935D0D90935E0D4E
:1020C000FECE40901402509015026090160270905F
:1020D0001702A3019201C501B4010E9444391816E8
:1020E000C4F62A853B854C855D852093D70D3093BA
:1020F000D80D4093D90D5093DA0DC092DB0DD092DC
:10210000DC0DE092DD0DF092DE0D8091F10D882363
:1021100059F0833029F481E090E08093F10DDAC822
:10212000082E000C990BF9CF82E090E0F6CFC0901A
:10213000CF0DD090D00DE090D10DF090D20D8090C9
:102140006C0290906D02A0906E02B0906F02A5019B
:102150009401C701B6010E94703B18160CF08EC0A6
:1021600080923F0D9092400DA092410DB092420D91
:1021700020913B0D30913C0D40913D0D50913E0D15
:10218000609174027091750280917602909177024D
:102190000E94743B60934B0D70934C0D80934D0DDA
:1021A00090934E0D209178023091790240917A02FD
:1021B00050917B020E94743B20912F0D3091300D85
:1021C0004091310D5091320D0E94CD3820917C020A
:1021D00030917D0240917E0250917F020E94743BBB
:1021E0006093530D7093540D8093550D9093560D3D
:1021F0000E941E19882309F45AC08091030E909101
:10220000040EA091050EB091060E8093530D90938D
:10221000540DA093550DB093560D2091530D309150
:10222000540D4091550D5091560D60918002709162
:10223000810280918202909183020E94743B2091DE
:1022400084023091850240918602509187020E945B
:10225000CD386093CF0D7093D00D8093D10D9093B6
:10226000D20D8091F00D882309F44DC0833009F020
:1022700046C081E090E08093F00D2CC88090700201
:1022800090907102A0907202B0907302A501940127
:10229000C701B6010E94443987FD62CFC0923F0D4D
:1022A000D092400DE092410DF092420D61CFC0906E
:1022B000530DD090540DE090550DF090560D20E048
:1022C00030E0A901C701B6010E94443987FF05C06B
:1022D00080E090E0A0E8BFEB98CF20E030E0A901DB
:1022E000C701B6010E94703B18162CF480E090E004
:1022F000A0E8BFE38ACF80E090E0DC0186CF082E23
:10230000000C990BB8CF82E090E0B5CF20913B0D47
:1023100030913C0D40913D0D50913E0D60918802F1
:102320007091890280918A0290918B020E94743B85
:102330006A877B878C879D87C090BB0DD090BC0D32
:10234000E090BD0DF090BE0D209104033091050387
:102350004091060350910703C701B6010E94743BE8
:102360002B013C01B8E0AB2EB3E0BB2E03EC14E034
:102370008BEC882E84E0982E8016910609F05EC1C1
:10238000209118033091190340911A0350911B03B7
:102390006A857B858C859D850E94743BA301920193
:1023A0000E94CD38209120033091210340912203D7
:1023B000509123030E94743B2091280230912902FE
:1023C00040912A0250912B020E94CD3860933F0D1C
:1023D0007093400D8093410D9093420D20918C029B
:1023E00030918D0240918E0250918F02C701B6014B
:1023F0000E94743B2B013C0160E9A62E62E0B62EE0
:1024000009EB14E071EC872E74E0972E801691068C
:1024100009F033C12091F0023091F1024091F202B3
:102420005091F3026A857B858C859D850E94743B63
:10243000A30192010E94CD386A8B7B8B8C8B9D8B84
:102440002091A0023091A1024091A2025091A302DA
:10245000C701B6010E94743B4B015C0134EA632E54
:1024600032E0732E0FEA14E047EB442E44E0542E82
:102470004016510609F020C12091F4023091F50276
:102480004091F6025091F7026A857B858C859D8587
:102490000E94743BA50194010E94CD386E8B7F8B06
:1024A000888F998F2091B4023091B5024091B60285
:1024B0005091B702C701B6010E94743B4B015C0109
:1024C000B8EB6B2EB2E07B2E05EA14E08DEA482EC5
:1024D00084E0582E4016510609F00DC12091F802F3
:1024E0003091F9024091FA025091FB026A857B8596
:1024F0008C859D850E94743BA50194010E94CD3876
:102500002B013C012091C8023091C9024091CA02BE
:102510005091CB02C701B6010E94743B4B015C0194
:10252000ECECF2E0FF87EE875BE9252E54E0352ED8
:1025300003EA14E00215130509F0FCC02091FC0227
:102540003091FD024091FE025091FF026A857B8529
:102550008C859D850E94743BA50194010E94CD3815
:102560004B015C012091DC023091DD024091DE02E2
:102570005091DF02C701B6010E94743B6B017C01E0
:10258000E0EEF2E0FF87EE8731E9232E34E0332ED0
:1025900009E914E00215130509F0EDC020910003CC
:1025A0003091010340910203509103036A857B85BA
:1025B0008C859D850E94743BA70196010E94CD38B1
:1025C0002A893B894C895D892093BB0D3093BC0DD2
:1025D0004093BD0D5093BE0D2E893F89488D598D76
:1025E0002093BF0D3093C00D4093C10D5093C20D89
:1025F0004092C30D5092C40D6092C50D7092C60DED
:102600008092C70D9092C80DA092C90DB092CA0DCC
:102610006093CB0D7093CC0D8093CD0D9093CE0D28
:102620008091EF0D882309F4CBC0833009F0C4C03A
:1026300081E090E08093EF0D0C946A09D5016D91D3
:102640007D918D919D915D01D801ED91FD918D015F
:10265000EE0FFF1FEE0FFF1FE554F24F2081318177
:10266000428153810E94743B9B01AC01C301B201C2
:102670000E94CD382B013C017FCEF5016191719113
:10268000819191915F01D801ED91FD918D01EE0F46
:10269000FF1FEE0FFF1FE554F24F20813181428171
:1026A00053810E94743B9B01AC01C301B2010E94A3
:1026B000CD382B013C01AACEF3016191719181913A
:1026C00091913F01D801ED91FD918D01EE0FFF1F1A
:1026D000EE0FFF1FE554F24F20813181428153817B
:1026E0000E94743B9B01AC01C501B4010E94CD382E
:1026F0004B015C01BDCEF30161917191819191918A
:102700003F01D801ED91FD918D01EE0FFF1FEE0FFE
:10271000FF1FE554F24F20813181428153810E9495
:10272000743B9B01AC01C501B4010E94CD384B0143
:102730005C01D0CEAE85BF856D917D918D919D91CF
:10274000BF87AE87D101ED91FD911D01EE0FFF1FF7
:10275000EE0FFF1FE554F24F2081318142815381FA
:102760000E94743B9B01AC01C501B4010E94CD38AD
:102770004B015C01DFCEAE85BF856D917D918D9162
:102780009D91BF87AE87D101ED91FD911D01EE0FA7
:10279000FF1FEE0FFF1FE554F24F20813181428170
:1027A00053810E94743B9B01AC01C701B6010E949A
:1027B000CD386B017C01EECE082E000C990B3ACF80
:1027C00082E090E037CFC090B70DD090B80DE09088
:1027D000B90DF090BA0D8090280390902903A09035
:1027E0002A03B0902B03A5019401C701B6010E94F2
:1027F000703B18160CF062C080923F0D9092400D15
:10280000A092410DB092420D20913B0D30913C0DB4
:1028100040913D0D50913E0D609130037091310318
:1028200080913203909133030E94743B20913403D2
:102830003091350340913603509137030E94743B29
:1028400020912F0D3091300D4091310D5091320D6E
:102850000E94CD38209138033091390340913A03DA
:1028600050913B030E94743B0E94D73B20913C0354
:1028700030913D0340913E0350913F030E94743BD1
:102880002091400330914103409142035091430312
:102890000E94CD386093B70D7093B80D8093B90D39
:1028A0009093BA0D8091EE0D882329F18330F9F4CD
:1028B00081E090E08093EE0D0C946A0980902C03E7
:1028C00090902D03A0902E03B0902F03A5019401AA
:1028D000C701B6010E94443987FD8ECFC0923F0DDB
:1028E000D092400DE092410DF092420D8DCF082E16
:1028F000000C990BDFCF82E090E0DCCFC090B30DED
:10290000D090B40DE090B50DF090B60D80904803D6
:1029100090904903A0904A03B0904B03A501940105
:10292000C701B6010E94703B18160CF0BEC0809221
:102930003F0D9092400DA092410DB092420D20911A
:102940003B0D30913C0D40913D0D50913E0D6091FD
:1029500050037091510380915203909153030E9450
:10296000743B6093570D7093580D8093590D90935D
:102970005A0D209158033091590340915A035091B8
:102980005B030E94743B20912F0D3091300D4091DC
:10299000310D5091320D0E94CD3820915C03309161
:1029A0005D0340915E0350915F030E94743B60930E
:1029B000530D7093540D8093550D9093560D3ED446
:1029C000882309F48BC08091030E9091040EA0918E
:1029D000050EB091060E8093530D9093540DA09365
:1029E000550DB093560D6091570D7091580D809113
:1029F000590D90915A0D0E9448394B015C0120916C
:102A0000530D3091540D4091550D5091560D6091DC
:102A100060037091610380916203909163030E944F
:102A2000743B6B017C0120912F0D3091300D409152
:102A3000310D5091320D6091640370916503809166
:102A40006603909167030E94743B9B01AC01C70130
:102A5000B6010E94CD386B017C0120915403309166
:102A600055034091560350915703C501B4010E948C
:102A7000743B9B01AC01C701B6010E94CD38609345
:102A8000B30D7093B40D8093B50D9093B60D8091F6
:102A9000ED0D882309F44EC0833009F047C081E072
:102AA00090E08093ED0D0C946A0980904C03909017
:102AB0004D03A0904E03B0904F03A5019401C701B0
:102AC000B6010E94443987FD32CFC0923F0DD092AB
:102AD000400DE092410DF092420D31CFC090530D68
:102AE000D090540DE090550DF090560D20E030E060
:102AF000A901C701B6010E94443987FF05C080E0E3
:102B000090E0A0E8BFEB67CF20E030E0A901C7016B
:102B1000B6010E94703B18162CF480E090E0A0E80B
:102B2000BFE359CF80E090E0DC0155CF082E000CC8
:102B3000990BB7CF82E090E0B4CF4090B0035090B3
:102B4000B1036090B2037090B303A5019401C30177
:102B5000B2010E94703B18160CF41BC880923F0D06
:102B60009092400DA092410DB092420D1AC8082ECD
:102B7000000C990BDAC882E090E0D7C880E090E0C2
:102B8000AFE7B3E48093530D9093540DA093550D8C
:102B9000B093560D0C949A0919860C94E8098FEF9E
:102BA00089870C94E80919860C940F0A8FEF89879E
:102BB0000C940F0A19860C943F0A8FEF89870C94A6
:102BC0003F0A4F925F926F927F928F929F92AF9245
:102BD000BF92DF92EF92FF920F931F93CF93DF93F9
:102BE00084E090E0AFD2E9EAF5E08DEBDF011D92E1
:102BF0008A95E9F789E596E097838683CCE5D6E068
:102C0000D093EA05C093E90509E416E0158B048B1F
:102C1000F0931406E0931306F583E48321E030E09B
:102C2000DC012D933C938CE794E0938782872EE51B
:102C300036E03983288340E050E060E87FEB409342
:102C400055065093560660935706709358064AE00F
:102C500057ED63E27BE3D8014D935D936D937C93D5
:102C60001397CFE2D6E08AE390E1A1EABAEA88833B
:102C70009983AA83BB838AE291EBA1E8BFE38093A7
:102C8000330690933406A0933506B09336068DE450
:102C90009AEAA0E8BEE58093370690933806A093A1
:102CA0003906B0933A068FE79CE9AAEDB4EF80931A
:102CB0003B0690933C06A0933D06B0933E06ADE9DB
:102CC000B5E0B383A283EDE7F5E01196FC93EE93B4
:102CD0008EE894E0918380839383828395838483B9
:102CE0009783868391878087938782878CEE9DE088
:102CF0009587848781EF9DE097878687918B808B6E
:102D0000938B828B958B848B978B868B8FEE9DE03C
:102D1000918F808F8EEE9DE0938F828F8DEE9DE060
:102D2000958F848F80EF9DE0978F868F8FE396E05D
:102D300015969C938E9314971396DC93CE931297CB
:102D400017963C932E9316978FE1A82E8DE0B82E00
:102D500084E4F50111928A95E9F7C3E6DDE084E9A0
:102D6000DE011D928A95E9F780E090E5A3ECB8E4D6
:102D70008C879D87AE87BF87DD24D394D092F60DD4
:102D800094E0892E92E0992EF40184A995A9A6A930
:102D9000B7A9888B998BAA8BBB8B412C512C320104
:102DA000439449825A826B827C8250E040E060E02A
:102DB00070E0CB010E9457019F838E8340EA56E862
:102DC00061E070E0488759876A877B870E947B01B2
:102DD000DD828FEF8093EB0D1CA6D092F20D4DA6F5
:102DE0005EA66FA678AAE12CF12C8701A8019701B5
:102DF00067E070E080E090E00E94C4029BAB8AAB89
:102E0000D9AA1CA2D092F50D4DA25EA26FA278A6FF
:102E100061E08BE00E943A02D9A61C8ED092F40D9C
:102E20004D8E5E8E6F8E78A261E08CE00E943A0239
:102E3000D9A21C8AD092F30D4D8A5E8A6F8A788E51
:102E400061E086E00E943A02D98E8091B4039091AD
:102E5000B503A091B603B091B7038CAB9DABAEABFD
:102E6000BFAB8091080490910904A0910A04B0912D
:102E70000B0488AF99AFAAAFBBAF8CAF9DAFAEAF1D
:102E8000BFAFF40184859585A685B7858093D30D62
:102E90009093D40DA093D50DB093D60D84819581D8
:102EA000A681B7818093D70D9093D80DA093D90DAB
:102EB000B093DA0D8091600290916102A09162025C
:102EC000B09163028093DB0D9093DC0DA093DD0D38
:102ED000B093DE0D8091680290916902A0916A0220
:102EE000B0916B028093CF0D9093D00DA093D10D34
:102EF000B093D20D80911C0390911D03A0911E03ED
:102F0000B0911F038093BB0D9093BC0DA093BD0D9A
:102F1000B093BE0D8093BF0D9093C00DA093C10DD3
:102F2000B093C20D8093C30D9093C40DA093C50DB3
:102F3000B093C60D8093C70D9093C80DA093C90D93
:102F4000B093CA0D8093CB0D9093CC0DA093CD0D73
:102F5000B093CE0D8091240390912503A091260378
:102F6000B09127038093B70D9093B80DA093B90D3E
:102F7000B093BA0D8091440390914503A09146030C
:102F8000B09147038093B30D9093B40DA093B50D0A
:102F9000B093B60D8091940390919503A091960300
:102FA000B09197038093A30D9093A40DA093A50DCA
:102FB000B093A60D8093A70D9093A80DA093A90D93
:102FC000B093AA0D8091A0039091A103A091A203B8
:102FD000B091A3038093AB0D9093AC0DA093AD0D76
:102FE000B093AE0D8091A8039091A903A091AA037C
:102FF000B091AB038093AF0D9093B00DA093B10D42
:10300000B093B20D80913C0490913D04A0913E0498
:10301000B0913F04F50180A391A3A2A3B3A3DF91D4
:10302000CF911F910F91FF90EF90DF90BF90AF90E5
:103030009F908F907F906F905F904F9008958091B8
:10304000630D811119C081E08093630D8091640D3F
:103050009091650DA091660DB091670D0197A10546
:10306000B10551F48091680D882331F08091690D8C
:1030700090916A0D0E94390280918F0D81112EC0AE
:1030800081E080938F0D8091900D9091910DA09192
:10309000920DB091930D0197A105B105F9F48091BE
:1030A000940D8823D9F067E070E080E090E00E9402
:1030B00080029093960D8093950D40E050E0BA0108
:1030C0000E94490267E070E080E090E00E94800288
:1030D0009093960D8093950D0E9415038091870D16
:1030E000811103C081E08093870D80917F0D811154
:1030F00003C081E080937F0D8091770D811103C023
:1031000081E08093770D089560E070E080E89FE7AC
:10311000089560E070E080E89FE7089560E070E067
:1031200080E89FEF089560E070E080E89FEF0895E9
:1031300060E070E080EC9FEF089560E070E080EC6C
:103140009FEF0895F5DF6093030E7093040E809354
:10315000050E9093060EF1DF6093F70D7093F80D56
:103160008093F90D9093FA0DCFDF6093FF0D70936C
:10317000000E8093010E9093020ECBDF6093FB0D47
:103180007093FC0D8093FD0D9093FE0DC7DF60934F
:10319000070E7093080E8093090E90930A0EC3DFFA
:1031A00060930B0E70930C0E80930D0E90930E0E89
:1031B0000895CF92DF92EF92FF92CF936B017C0143
:1031C000AC019B016091FF0D7091000E8091010E8A
:1031D0009091020E0E944439C1E0882371F0A7014A
:1031E00096016091070E7091080E8091090E9091E2
:1031F0000A0E0E9444398111C0E08C2FCF91FF90BC
:10320000EF90DF90CF9008950F931F938B019C0157
:103210000027112720783F770115110520483F47E7
:1032200049F4AB01BC016F77772781E0452B462B32
:10323000472B09F480E01F910F910895E5CF4F923D
:103240005F926F927F928F929F92AF92BF92CF9236
:10325000DF92EF92FF920F931F93F89440907206C3
:10326000509073066090740670907506C090660664
:10327000D0906706E0906806F090690641305105ED
:1032800009F0A4C09B01AC0124193509460957096E
:1032900029013A0100916E0610916F062091700687
:1032A0003091710648015901840C951CA61CB71C6D
:1032B00080169106A206B306A0F400916A0610914A
:1032C0006B0620916C0630916D060F5F1F4F2F4FDC
:1032D0003F4F00936A0610936B0620936C06309361
:1032E0006D0680926E0690926F06A0927006B09264
:1032F000710600916A0610916B0620916C06309160
:103300006D068092760690927706A0927806B0922B
:10331000790600937A0610937B0620937C063093FF
:103320007D06609372067093730680937406909383
:103330007506A4ECB9E0A30192010E9449486C0D06
:103340007D1D8E1D9F1D609366067093670680939A
:1033500068069093690600915304109154042091DB
:103360005504309156040F3F1F4F2F4F3F4FF1F040
:103370000091530410915404209155043091560447
:103380000E3F1F4F2F4F3F4F89F0C0905304D090F6
:103390005404E0905504F090560421E08C149D04F0
:1033A000AE04BF0408F420E02093820678941F91B5
:1033B0000F91FF90EF90DF90CF90BF90AF909F90D4
:1033C0008F907F906F905F904F9008954B015C01BC
:1033D00084189508A608B708A3019201261B370B8D
:1033E000480B590B6415750586059705D0F08216B4
:1033F0009306A406B50640F420E030E0A90181144C
:103400009104A104B10491F4A4ECB9E00E944948EC
:10341000A7019601261B370B480B590BCA01B901AE
:10342000C5CF82169306A406B50670F7A4ECB9E0E2
:10343000A50194010E9449486C0D7D1D8E1D9F1DA4
:10344000B5CFFDCECF93DF9300D01F92CDB7DEB7BF
:103450001C821B821A82198210927E0610927F06AD
:103460001092800610928106BE016F5F7F4FCE01E1
:1034700003960E94183769817A818B819C810E9412
:103480000630009761F4BE016F5F7F4FCE01039657
:103490000E94243769817A818B819C812FD50F907E
:1034A0000F900F900F90DF91CF910895FF920F939F
:1034B0001F93CF93DF93082F60E070E0CB010E9451
:1034C0004D42FF24F3940E94EF2EEC01892B89F0EA
:1034D00010E0CE3F8FEFD80769F0002361F160E084
:1034E00070E0CB010E944D4281E090E0892B59F3BE
:1034F00022C011E026D5EC01892B21F0CE3F8FEFC1
:10350000D80759F711111EC011E0229609F410E0F6
:103510000E949F2EEC01892B21F0CE3F8FEFD80720
:10352000E1F6111111C011E0CE3F8FEFD80709F479
:1035300010E001110BC0CE01DF91CF911F910F91CF
:10354000FF90089511E0E4CF11E0F3CF60E070E068
:10355000CB010E944D421F25812F90E0C7CFCF9312
:10356000DF9380918206882321F060E070E0CB0138
:103570004DD636D6D0E0C0E0892B71F06AE070E01D
:1035800080E090E00E944D4281E090DF29D62196B4
:10359000C03D27E0D20781F728D60E945A3010920A
:1035A0009A06109299061092930610929406109221
:1035B00095061092960610928F0610929006109221
:1035C00091061092920610928B0610928C06109221
:1035D0008D0610928E061092870610928806109221
:1035E000890610928A061092830610928406109221
:1035F0008506109286064EEF5FEF6FEF7FEF4093E8
:1036000053045093540460935504709356041092DD
:103610008206E6E7F6E028E0DF011D922A95E9F749
:10362000109272061092730610927406109275062C
:1036300010926E0610926F0610927006109271062C
:1036400010926A0610926B0610926C0610926D062C
:10365000109266061092670610926806109269062C
:10366000DF91CF9108951092A6061092A7061092AE
:10367000A8061092A9061092A5068091AE06909118
:10368000AF069093A4068093A3061092A206109210
:10369000A10610929D0610929E0610929F0610920F
:1036A000A0061092AB061092AA0690E080E0089562
:1036B000CF92DF92EF92FF920F931F93CF938C01E3
:1036C000019709F055C02091AE063091AF06809168
:1036D000A3069091A4064091AE065091AF06509378
:1036E000A4064093A3062817390781F01092A2067A
:1036F0001092A10610929D0610929E0610929F06AF
:103700001092A0061092AB061092AA068091AE0607
:103710009091AF06019761F58091AA069091AB0652
:10372000892B21F480915704811112C08091AA063F
:103730009091AB060197E1F480919D0690919E06D1
:10374000A0919F06B091A0060197A105B10581F453
:1037500010929D0610929E0610929F061092A0064F
:103760001092570482E090E09093AB068093AA06F3
:103770008091AE069091AF06019709F01CC180912F
:10378000C4069091C5068017910709F014C1809175
:10379000C0069091C106A091C206B091C3060097E1
:1037A00009F409C12091BF0621110DC04091C00646
:1037B0005091C1066091C2067091C306452B462BFD
:1037C000472B09F4F8C02091AA063091AB062230AD
:1037D000310509F0F0C02091A1062111ECC0FC01D7
:1037E000C080D180E280F3808091A506882309F40F
:1037F000D3C08091B1069091B206892B09F4FEC026
:103800002091B1063091B20681E02230310509F0F5
:1038100080E02091B1063091B206C1E0213031053F
:1038200049F02091B1063091B206C1E02230310555
:1038300009F0C0E0882309F456C02091BB063091FE
:10384000BC064091BD065091BE06C701B6010E945C
:10385000703B87FD14C02091BB063091BC0640919F
:10386000BD065091BE066091A6067091A706809194
:10387000A8069091A9060E94443987FD22C0209194
:10388000BB063091BC064091BD065091BE06C701F3
:10389000B6010E94703B181634F52091BB0630919A
:1038A000BC064091BD065091BE066091A60670917F
:1038B000A7068091A8069091A9060E94443981111B
:1038C00012C08091B3069091B406A091B506B09154
:1038D000B606892B8A2B8B2B19F481E08093A206E4
:1038E00081E08093A106CC2309F456C02091BB0649
:1038F0003091BC064091BD065091BE06C701B6018D
:103900000E94443987FF14C02091BB063091BC0649
:103910004091BD065091BE066091A6067091A70623
:103920008091A8069091A9060E94703B87FF22C053
:103930002091BB063091BC064091BD065091BE0659
:10394000C701B6010E944439811126C02091BB06EF
:103950003091BC064091BD065091BE066091A6060E
:103960007091A7068091A8069091A9060E94703BCD
:10397000181694F48091B3069091B406A091B50600
:10398000B091B606892B8A2B8B2B19F481E080939A
:10399000A20681E08093A10681E09091A106911199
:1039A00080E08093A506C092A606D092A706E0927A
:1039B000A806F092A9060130110509F067C18091AF
:1039C000AA069091AB06892BD9F41092B0061092FA
:1039D000A10680915704882379F082E090E09093CB
:1039E000AB068093AA06109257042091AE06309140
:1039F000AF0681E0232BE9F080E01BC081E009CF16
:103A0000109257048091B006882349F01092A206C4
:103A10001092AB061092AA061092B006EDCF8091DC
:103A2000AE069091AF06892BE1F08091A10610922D
:103A3000A1062091AA063091AB062230310509F487
:103A40005EC088F42115310509F448C021303105E4
:103A500009F4F3C01092A2061092A1061092B006CB
:103A600038C081E0E6CF2330310509F4B1C02430FD
:103A7000310581F740919D0650919E0660919F0609
:103A80007091A006411551056105710561F0415025
:103A900051096109710940939D0650939E066093F8
:103AA0009F067093A00640919D0650919E066091DE
:103AB0009F067091A006452B462B472BD9F42091E9
:103AC000AC063091AD062130310509F046C01092A8
:103AD000A2061092AB061092AA060CC08091570461
:103AE000882341F082E090E09093AB068093AA0691
:103AF0001092570410929B068091A206CEC0882394
:103B0000C9F38091B3069091B406A091B506B09127
:103B1000B606181619061A061B060CF07DC0809111
:103B2000AE069091AF06019709F076C08091B3067A
:103B30009091B406A091B506B091B60680939D060B
:103B400090939E06A0939F06B093A00683E090E01A
:103B50009093AB068093AA06CDCF4091B7065091C3
:103B6000B8066091B9067091BA06452B462B472BD3
:103B7000A9F01092A2068091B7069091B806A09184
:103B8000B906B091BA0680939D0690939E06A093C5
:103B90009F06B093A00681E090E0DACF882399F0E9
:103BA0008091580490915904A0915A04B0915B04FB
:103BB00080939D0690939E06A0939F06B093A006C7
:103BC00084E090E0C5CF1092A20682E090E0C0CFE2
:103BD00080919D0690919E06A0919F06B091A006AF
:103BE0000097A105B10559F00197A109B10980938A
:103BF0009D0690939E06A0939F06B093A006809189
:103C00009D0690919E06A0919F06B091A006892BDB
:103C10008A2B8B2B09F06ECF809158049091590418
:103C2000A0915A04B0915B04892B8A2B8B2B09F449
:103C30004ECF81E08093A206B3CF40919D06509174
:103C40009E0660919F067091A00641155105610581
:103C5000710561F0415051096109710940939D0658
:103C600050939E0660939F067093A00640919D0618
:103C700050919E0660919F067091A006452B462BA1
:103C8000472B09F037CF8111C7CF9FCF80919B067B
:103C9000882309F431CF80919C06CF911F910F9119
:103CA000FF90EF90DF90CF9008951092A6061092AB
:103CB000A7061092A8061092A9061092A5061092C7
:103CC000AB061092AA061092A4061092A3061092B8
:103CD000C5061092C4061092A2061092A106109278
:103CE0009D0610929E0610929F061092A0061092BA
:103CF0009C0610929B061092C0061092C10610926C
:103D0000C2061092C3061092BF061092BB06109214
:103D1000BC061092BD061092BE0688EE93E0A0E0AD
:103D2000B0E08093580490935904A0935A04B09340
:103D30005B041092B7061092B8061092B906109262
:103D4000BA061092B3061092B4061092B5061092FD
:103D5000B6061092B2061092B10681E08093570425
:103D60001092B0061092AF061092AE061092AD06F9
:103D70001092AC0690E080E008958091AE0690919C
:103D8000AF06892B19F580915704882351F0809153
:103D9000B006811106C081E080939C0680939B064B
:103DA00008952091B0063091570481E090E03323CC
:103DB00011F090E080E030E082239323892B21F002
:103DC00010929C0681E0EACF10929B06089582E053
:103DD00090E0FA01918380838FEF9FEF0895CF9356
:103DE000DF93EA01009711F00E947A31198218825C
:103DF00090E080E0DF91CF910895DB01009719F406
:103E00008FEF8C9308952EEF2C93FC013F96EF30AB
:103E1000F10508F034C08827EF5EF04E8F4F0C9408
:103E200032483D1F3B1F391F371F351F311F331FBE
:103E30002F1F2D1F2B1F281F241F201F261F3F1F32
:103E400080E311968C93089589E2FBCF82E2F9CF4B
:103E500011961C92089583E2F4CF81E2F2CF81E1C2
:103E6000F0CF87E2EECF8AE2ECCF80E1EACF84E2C6
:103E7000E8CF88E2E6CF86E2E4CF81E3E2CF80E2DA
:103E8000E0CF8091D2069091D30608959093D30607
:103E90008093D20608958091D10608959091D1061D
:103EA000892B8093D1060895982F90958091D10603
:103EB00089238093D10608958091D006089580913A
:103EC000CE069091CF0608956115710559F0FB015A
:103ED00030E020E070E060E02417350719F061154C
:103EE000710511F0CB010895A081B181A817B90720
:103EF00009F4BF012F5F3F4F3696EECF8091D40675
:103F000081111CC060D266D29093C7068093C6060A
:103F10000E9486290E9498299093CB068093CA0616
:103F20000E94072E0E940E2E9093C9068093C80609
:103F300081E08093D40690E080E0089584EF9FEFC5
:103F400008958F929F92AF92BF92CF92DF92EF929D
:103F5000FF920F931F93CF93DF9300D000D000D038
:103F60001F92CDB7DEB71A86198618861F821E8269
:103F70001D821C821B821A8219828091D40607EF4F
:103F80001FEF882309F49CC08E010D5F1F4F9E0117
:103F90002B5F3F4FAE01495F5F4FBE01675F7F4FB1
:103FA00090E080E00E948B2F8C01009721F0059615
:103FB000029708F0DBC029853A852115310509F4FF
:103FC00002C1ED80FE804B815C81B701640F751FDB
:103FD0008F8198858617970708F4F5C0E20EF31EC7
:103FE000D7019C91903C09F07FC04230510508F404
:103FF0007BC011968C914091D2065091D306452BEF
:1040000009F49CC0913F08F071C02CE1290F2D30BC
:1040100008F48BC02DE2290F203108F489C0903CB0
:1040200021F48150823008F483C088E3890F8B30FB
:1040300008F481C09DEFC92E9EE1D92EE7EEFEE186
:104040006D817E81AE014F5F5F4F89859A8519959D
:104050005C01C114D104A1F189809A80811491047A
:1040600079F18B819C818815990508F487C010E04F
:1040700000E04B815C8170E060E0C7010E945C4819
:1040800001151105E9F449815A8169857A858D8187
:104090009E81680F791FC501F6011995E980FA80A4
:1040A0000D811E812F81388549855A856FEF7FEFFD
:1040B00081E090E00E94262F8C01892B09F056C0E8
:1040C000C8012A960FB6F894DEBF0FBECDBFDF91B0
:1040D000CF911F910F91FF90EF90DF90CF90BF9005
:1040E000AF909F908F90089580E085CF30E020E0E2
:1040F000220F331FF901EA53F94F0190F081E02DAF
:10410000309709F497CF892F90E01995009709F41B
:1041100091CFDC011296ED91FC9113971496CD90FE
:10412000DC90309709F08CCF1FC021E030E0E0CF69
:1041300022E030E0DDCF23E030E0DACFD12CC12C1B
:10414000EFEEFEE19F3F09F07BCFE091C606F091D4
:10415000C706309721F4C90104EF1FEF0CC08FEFA1
:1041600090E019950097A9F604EF1FEF89859A85CD
:10417000009709F4A5CF0E947A31A2CF0E94553052
:104180008C0189859A850E947A3170E060E0C401D3
:104190000E94EE2F98878F830E94232F9E838D830A
:1041A0006F8178856115710559F0C8010E94063349
:1041B0009A87898706EF1FEF892B09F058CF59CFCF
:1041C00008EF1FEF56CF08EF1FEFD0CF2091D40696
:1041D000222319F020E00C949D2987EF9FEF08958A
:1041E0008091D2069091D30608950E94132E0E94CA
:1041F0006D2DF5D0E6ECF6E088E0DF011D928A95A2
:10420000E9F71092D40690E080E008950C94CB2B4F
:1042100021E040E050E0BA010C949D2986E090E056
:10422000FA019183808390E080E0089547E050E0B8
:104230006DEC74E049CEDF92EF92FF920F931F93E3
:10424000CF93DF938A01EC01C60FD71FE090D80609
:10425000F090D906D9800E943D30D816190678F022
:1042600082E090E0F801918380838EEF9FEFDF91F1
:10427000CF911F910F91FF90EF90DF900895EF285D
:1042800041F482E090E0F8019183808384EF9FEF16
:10429000EECF89818093D70690E00196F801918353
:1042A000808390E080E0E3CFCF93DF93EA010E9428
:1042B0007C2C882321F00E944A300E947D2C82E0D1
:1042C00090E0998388838BEF9FEFDF91CF910895E2
:1042D000CF93DF93EB0186E0FB0111928A95E9F71A
:1042E0008FEF8883D8DD8983E7DD8A83E8DD9D83CE
:1042F0008C83DF91CF910895CF93DF93EA010E94E1
:104300007F2C811109C082E090E09983888385EF3A
:104310009FEFDF91CF91089590E080E0B7DD81E0DD
:1043200090E09983888390E080E0F3CF0F931F9310
:10433000CF93DF93EA018C01060F171F0E947F2C99
:1043400081110BC082E090E09983888385EF9FEF15
:10435000DF91CF911F910F910895F80181818230F3
:1043600038F082E090E0998388838EEF9FEFF0CF62
:1043700081E090E08BDD88E090E09983888390E095
:1043800080E0E6CFCF93DF930097D1F4EB01FB0100
:10439000329686E0DF011D928A95E9F78FEF8883D8
:1043A00085E089831A820E943D308B830E943C30D5
:1043B0009D838C8381E08E838F83DF91CF910895DD
:1043C000DF91CF911ACD86E191E29093D60680934A
:1043D000D50608958091D5069091D606089510923D
:1043E000D6061092D50608958091D8069091D906E8
:1043F0000895411105C0611571058105910561F0B0
:104400006093D8067093D9068093DA069093DB0602
:104410004093DC0681E0089580E00895FF920F93B9
:104420001F93CF93DF938A01EC01C60FD71FF9804A
:104430000E943D30F816190668F082E090E0F8011D
:10444000918380838EEF9FEFDF91CF911F910F912A
:10445000FF9008956C817D818E819F814B81C9DFA2
:10446000811108C082E090E0F8019183808384EF9D
:104470009FEFEACF89818093D70690E00196F801FB
:104480009183808390E080E0DFCFCF93DF93EA01D8
:10449000FC01E60FF71F6481758186819781438156
:1044A000A8DF811109C082E090E09983888384EFBE
:1044B0009FEFDF91CF91089581E090E09983888309
:1044C00090E080E0F6CFE8EDF6E040815181628136
:1044D0007381480F511D611D711D4083518362839B
:1044E00073830895CF93C091D7064C2F50E060910D
:1044F000D8067091D90601960E9453488C2FE3DFAD
:104500001092D706CF910895009799F48091D8061C
:104510009091D9062FEFFB012083892B59F0209130
:10452000D70630E02F5F3F4F2417350719F4CB0132
:10453000D9CF63CC0895009799F48091D8069091D3
:10454000D9062FEFFB012083892B59F02091D70644
:1045500030E02F5F3F4F2417350719F4CB01C2CF4E
:104560004CCC089523E1AC01249FC001259F900D00
:104570001124E091E106F091E206E80FF91F238192
:1045800034812250310981E02230310508F080E089
:1045900008950F931F93CF93DF930091E30610913B
:1045A000E406D0E0C0E080E00C171D0749F491E07C
:1045B000811190E0892FDF91CF911F910F91089584
:1045C0008111F5CFCE01CEDF2196EECFA091E1068D
:1045D000B091E206109729F12091E3063091E406AC
:1045E00082179307F0F453E1589F9001599F300DC3
:1045F0001124A20FB31FED91FC911197309789F010
:1046000012968C91681768F48BE0689FE00DF11D9D
:10461000112480819181892B21F081E092814917B9
:1046200008F080E008959C0143E1429FC001439F50
:10463000900D1124E091E106F091E206E80FF91FD8
:104640008385823091F481E090E0658176814091AC
:104650005C0450915D046417750711F490E080E0EC
:10466000892B19F081E0232B09F080E00895EF9267
:10467000FF920F931F93CF93DF93EA01FC01E60FA4
:10468000F71F02811381E480F5804F2D6E2DC80144
:104690009DDF81110DC082E090E0998388838EEFC9
:1046A0009FEFDF91CF911F910F91FF90EF900895B1
:1046B000C80158DF882339F082E090E0998388832D
:1046C00088EF9FEFEECF1093630400936204E092B3
:1046D0006404F092650481E090E09983888390E01F
:1046E00080E0DFCFCF92DF92EF92FF920F931F9384
:1046F000CF93DF937A01EC01C60FD71FC0906204FD
:10470000D09063040091640410916504412F602FE0
:10471000C6015CDF811110C082E090E0F701918357
:1047200080838AEF9FEFDF91CF911F910F91FF90D0
:10473000EF90DF90CF900895C60114DF882341F0F9
:1047400082E090E0F7019183808388EF9FEFEBCFC9
:104750004C815D816E817F819A8189818F3F41F09B
:1047600082E090E0F701918380838EEF9FEFDBCFB3
:10477000E3E1EC9D9001ED9D300D1124E091E10607
:10478000F091E206E20FF31F0190F081E02D2BE0A3
:10479000029FE00DF11D11240190F081E02D27E032
:1047A000129FE00DF11D1124808391838B81828300
:1047B00043835483658376831F5F1093650481E090
:1047C00090E0F7019183808390E080E0ACCFEF929E
:1047D000FF920F931F93CF93DF937A018C01060F03
:1047E000171FC091E106D091E206209781F021E0E9
:1047F00030E0F801828193814091E3065091E40614
:104800008417950710F030E020E0232B71F482E04C
:1048100090E0F701918380838EEF9FEFDF91CF913E
:104820001F910F91FF90EF90089543E1489F9001F1
:10483000499F300D1124C20FD31F94DE882341F00D
:1048400082E090E0F7019183808388EF9FEFE6CFCD
:10485000F8012481358120383105C8F6878181111E
:10486000D6CF4181842F90E08F7E009741F082E087
:1048700090E0F7019183808386EF9FEFCFCF4F8346
:104880003E832D83268128871986223010F421E06B
:10489000288721E030E0F70131832083BFCF88E013
:1048A00090E0FA019183808390E080E00895FB011D
:1048B0008FEF808381E181838FEF9FEF93838283EA
:1048C00080E890E095838483168217820895FB0127
:1048D0008FEF808391E0918382839383848384E349
:1048E000858381E090E0978386830895DF92EF923D
:1048F000FF920F931F93CF93DF93EA01FC01E60F22
:10490000F71F8181813071F082E090E09983888384
:104910008FEF9FEFDF91CF911F910F91FF90EF905D
:10492000DF90089582819381D4802581E680F7808D
:104930000091E1061091E2060115110539F482E0BB
:1049400090E0998388838CEF9FEFE4CF4091E3065A
:104950005091E4068417950738F082E090E099833F
:1049600088838EEF9FEFD6CF892B39F082E090E0DD
:104970009983888386EF9FEFCDCF8D2D8D7FB1F703
:104980002130A1F781E0D11006C091E0E916F104D1
:1049900031F080E004C0E2E0EE16F104D0F38823A9
:1049A00029F390E080E0DEDD882339F082E090E0BA
:1049B0009983888388EF9FEFADCFF801D38681E09C
:1049C0008487F686E586108A178681E090E09983D1
:1049D000888390E080E09ECF4CE050E067EF74E089
:1049E00073CA8F929F92BF92CF92DF92EF92FF9203
:1049F0000F931F93CF93DF93EA01FC01E60FF71F9C
:104A0000828193810481B580E091E106F091E20614
:104A1000309791F482E090E0998388838CEF9FEF48
:104A2000DF91CF911F910F91FF90EF90DF90CF908A
:104A3000BF909F908F9008952091E3063091E406F7
:104A40008217930738F082E090E0998388838EEF95
:104A50009FEFE6CF23E1289F6001299FD00C11240E
:104A6000EC0DFD1DE080F180E114F10499F28281EA
:104A7000081748F78BE0089F80011124E00EF11E13
:104A8000F70180819181892B29F6BB20E1F2F7E0C3
:104A9000BF9E40011124C4010E944131F70191835E
:104AA0008083E091E106F091E206EC0DFD1D01909E
:104AB000F081E02DE00FF11F80819181009739F4A2
:104AC00082E090E0998388838DEF9FEFA9CFA401C6
:104AD00070E060E00E945C488091E1069091E206FF
:104AE000C80ED91EF60180819181080F191FF801A7
:104AF000B28281E090E09983888390E080E090CF5B
:104B0000AF92BF92CF92DF92FF920F931F93CF93FA
:104B1000DF93EA01FC01E60FF71F82819381F480A5
:104B20000091E1061091E2060115110581F482E081
:104B300090E0998388838CEF9FEFDF91CF911F9155
:104B40000F91FF90DF90CF90BF90AF90089520918C
:104B5000E3063091E4068217930738F082E090E094
:104B6000998388838EEF9FEFE8CF2FEF2F0D2C3F97
:104B7000A8F723E1289F6001299FD00C11240C0D78
:104B80001D1DF80180819181892B89F6FBE0FF9E34
:104B900050011124C5010E944131F80191838083A5
:104BA000E091E106F091E206EC0DFD1D808191811E
:104BB000009739F482E090E0998388838DEF9FEF2E
:104BC000BCCFA50170E060E00E945C48E091E10686
:104BD000F091E206EC0DFD1DF28281E090E09983F8
:104BE000888390E080E0A9CFCF92DF92EF92FF928E
:104BF0000F931F93CF93DF93860F971FFC010281C2
:104C000013818091E1069091E206892B81F082E088
:104C100090E0FA01918380838CEF9FEFDF91CF9139
:104C20001F910F91FF90EF90DF90CF900895C801F2
:104C3000B0E0A0E00197A109B1098F3F9F4FA10506
:104C4000B10540F082E090E0FA01918380838EEF1D
:104C50009FEFE4CF7A0183E1809F6001819FD00CB8
:104C60001124C6010E944131EC01009741F482E019
:104C700090E0F701918380838DEF9FEFCFCFA60166
:104C800070E060E00E945C48D093E206C093E106C9
:104C90001093E4060093E30690E080E02FEF3FEFEF
:104CA00041E061E070E08017910741F481E090E01D
:104CB000F7019183808390E080E0B0CF3A8B298B1D
:104CC0001B864C877E876D87188A1F8601966396A0
:104CD000EACFCF92DF92EF92FF920F931F93CF9381
:104CE000DF93EC01D12CC12C10E000E0F12CE12C81
:104CF0006A816017110609F0CCF483E0689FB00167
:104D00001124AE014F5E5F4FC7010E94A63100978C
:104D100021F02FEF3FEF3A8B298BDF91CF911F913D
:104D20000F91FF90EF90DF90CF900895E881F98187
:104D3000EC0DFD1D438154818D859E85489F90011A
:104D4000499F300D589F300D1124C901019601155E
:104D5000110519F44F8144FD049661E070E00E9452
:104D6000EE2FE816F90608F47C010F5F1F4F8BE069
:104D7000C80ED11CBDCFF8942091DF063091E0061B
:104D800081E02115310509F080E0232B09F07894AA
:104D900008952F923F924F925F926F927F928F92DF
:104DA0009F92AF92BF92CF92DF92EF92FF920F93BA
:104DB0001F93CF93DF933C01660E771EF301828130
:104DC00093814C01B12CA12CC091E106D091E20657
:104DD000209769F021E030E06091E3067091E406ED
:104DE0008617970710F030E020E0232BD1F482E003
:104DF00090E0FA01918380838EEF9FEFDF91CF9156
:104E00001F910F91FF90EF90DF90CF90BF90AF90E8
:104E10009F908F907F906F905F904F903F902F90DA
:104E200008958092660490926704A0926804B092FC
:104E3000690463E1689F9001699F300D1124C20FDE
:104E4000D31FF3018181833040F082E090E0FA01CA
:104E50009183808386EF9FEFD1CF2A012B813C8104
:104E6000232BF1F4288139819F8191FF2EC0232BC0
:104E700009F46FC02091E6069A81422F490F552709
:104E8000551FBA0141E050E06138710514F050E05F
:104E900040E0452B09F45DC02A87920F9093E60607
:104EA0008150823008F481C066DF882309F4D8C0BD
:104EB000F3018181813009F48DC008F47BC0823018
:104EC00009F4C6C090E080E0ADC0232B09F441C0D6
:104ED0002091E5069A81E22FE90FFF27FF1F41E0AD
:104EE00050E0ED3FF10514F050E040E0452B89F132
:104EF0002A87920F9093E506D3CFA081B181A20FAC
:104F0000B31F11966C91060F111D0196295F3F4F3B
:104F10008417950794F38D859E85089F1001099F3E
:104F2000300C189F300C1124C114D104D1F48F819E
:104F300084FF17C00E943C30F5E02F0E311C21E0A9
:104F40008215930508F420E0A701455F5F4F21110A
:104F50000EC082E090E0F2019183808387EF9FEFA3
:104F60004DCF0E943C302FEF221A320AE8CF8881C1
:104F70009981E80EF91EF70114830383FFEFCF1A1E
:104F8000DF0A7A018A818C151D0409F00CF48CCF9C
:104F9000E881F981EE0DFF1D428150E030E020E014
:104FA00010E000E090E080E0B3CFF12CE12CD12CB8
:104FB000C12CE8CF81E090E09C838B83EADA8823E0
:104FC00009F480CF81E090E00E94461F80E40E94B7
:104FD000541F78CF89899A89019661F083E090E027
:104FE0009C838B8382E090E00E94461F80E40E94B5
:104FF0004E1F68CF8D819E8120915C0430915D04AD
:1050000082179307D1F46091600470916104AE013E
:105010004F5E5F4F80915E0490915F040E94C532A5
:105020000097E1F2789422E030E0F20131832083AE
:10503000892B99F08DEF9FEFE1CE89288A288B2864
:1050400069F6029758F6CE0144DE188A1F86E8CF2B
:1050500082E090E09C838B8335CF90E080E0CECEE1
:1050600082E090E0F2019183808385EF9FEFC6CECE
:105070008F929F92AF92BF92CF92DF92EF92FF9268
:105080000F931F93CF93DF93EA018C01060F171F35
:10509000F8018181833098F082E090E099838883E1
:1050A00086EF9FEFDF91CF911F910F91FF90EF90CF
:1050B000DF90CF90BF90AF909F908F900895809198
:1050C000E1069091E206892B61F081E090E0209169
:1050D000E3063091E406232B11F490E080E0892B65
:1050E00039F482E090E0998388838EEF9FEFDACFE6
:1050F00042DE882309F4E0C0F8018181813009F49F
:1051000096C0E8F0823099F42091E3063091E406ED
:10511000E091E106F091E20690E080E041E050E0AD
:105120002817390709F0BEC034DA811117C0789406
:1051300081E090E09983888390E080E0B3CF209174
:10514000E3063091E406E091E106F091E20690E09A
:1051500080E041E050E02817390741F481E090E019
:105160000E94461F80E40E94541FE1CF6381748136
:10517000672B11F05483438301967396ECCFE09133
:10518000E106F091E206E00FF11F23813481223025
:105190003105D9F4218932892F3F3F4FB1F4258160
:1051A000368140915C0450915D042417350761F508
:1051B000AF014F5E5F4F6091600470916104809118
:1051C0005E0490915F040E94C532EFEFCE1ADE0AB2
:1051D000EE0AFE0A0D5E1F4F4091E3065091E40671
:1051E00070E060E0C416D506E606F70644F50097C1
:1051F00031F27894892B09F49BCF82E090E0998377
:1052000088838DEF9FEF4ECFC114D104E104F104E8
:10521000E1F622303105C8F6CF015BDDE091E10611
:10522000F091E206E00FF11F108A1786CECF10E052
:1052300000E090E080E0C12CD12C7601CDCF00972A
:10524000C1F610E000E0812C912C540183E0E82E9F
:10525000F12C1AC0E091E106F091E206E00FF11F97
:1052600083819481029749F4F482E38282E090E0A2
:105270000E94461F80E40E944E1FFFEF8F1A9F0A74
:10528000AF0ABF0A0D5E1F4F8091E3069091E406BE
:10529000B0E0A0E088169906AA06BB06DCF290E012
:1052A00080E0A7CF638174816230710511F454836B
:1052B00043830196739634CF82E090E0998388838C
:1052C00085EF9FEFEFCE0097B9F48FEFFB0180835E
:1052D000209166043091670443E1429FC001439FDF
:1052E000900D1124E091E106F091E206E80FF91F1C
:1052F0008285FB01818308950C94FD1E88E090E077
:10530000FA019183808390E080E008951092E00696
:105310001092DF06E1EEF6E086E0DF011D928A954D
:10532000E9F78CEE94E29093DE068093DD06089513
:105330008091DD069091DE0608952F923F924F9264
:105340005F926F927F928F929F92AF92BF92CF9215
:10535000DF92EF92FF920F931F93CF93DF93CDB71E
:10536000DEB760970FB6F894DEBF0FBECDBFF894DE
:10537000E091DF06F091E0063196F093E006E093CD
:10538000DF067894A091E106B091E206BA83A98382
:10539000109709F4FAC1E091E306F091E406EF2BCF
:1053A00009F4F3C128874B875C876D877E879A87CE
:1053B0008987B88BAF87312C212CF12C512C412CB3
:1053C0008091E3069091E4062816390610F4FF2038
:1053D00029F1F8948091DF069091E006019790936F
:1053E000E0068093DF067894C20160960FB6F894C9
:1053F000DEBF0FBECDBFDF91CF911F910F91FF9008
:10540000EF90DF90CF90BF90AF909F908F907F9064
:105410006F905F904F903F902F900895B10190E072
:1054200080E088D4682EEF85F889878181FD3DC0B2
:10543000838194810397C9F5258136813C832B8331
:1054400089859A852817390781F5C101ECD8782E0E
:105450008823A9F1AF85B8891F968D919C915097AB
:10546000019621E01D964D915C918417950709F0F6
:1054700020E02F83B12CA12CEF85F88982818A1539
:105480001B0419F014F0FF20E9F0F885FF2309F45C
:105490006CC1AF85B88950961C921E921F976620EA
:1054A00021F0B10190E080E047D4FFEF2F1A3F0ACE
:1054B0002F8538892D5E3F4F388B2F8781CFB1E004
:1054C000BF83D8CFC0D49E838D83E885EE23E9F0D7
:1054D000772009F43CC1AF85B8891F968D919C91C6
:1054E000892B79F0BBE0BA9DC001BB9D900D1124C2
:1054F000AF85B889ED91FC91E80FF91F8581968100
:10550000F9D6BFEFAB1ABB0AB7CF81E0772039F0ED
:10551000EF85F88927853089232B09F080E0F82E64
:10552000E12CA114B10439F4AF85B8891796EC9039
:10553000E4FAEE24E0F8BBE0BA9D6001BB9DD00C1C
:105540001124882309F424C1AF85B889ED91FC9119
:105550001197EC0DFD1D438154811D962D913C91B9
:10556000429FC001439F900D529F900D1124E11066
:105570005DC001969087878361E070E087819085A8
:105580002DD5EF85F88921893289008111810C0D93
:105590001D1D2F3F320709F44BC0BC01C9010E94F9
:1055A0000633D80116969C938E931597AF85B889CC
:1055B000ED91FC911197EC0DFD1D058116810115F2
:1055C000110509F4CDC0ED81FE810E0F1F1F1A9643
:1055D0008C918A0DD8018C93E1102FC00F5F1F4F63
:1055E000AF85B889ED91FC91EC0DFD1D1287018707
:1055F000AF85B889ED91FC91EC0DFD1D85819681FB
:10560000892B09F4A4C080915C0490915D042B81E6
:105610003C812817390709F465C0772011F001850E
:105620001285912C812C1A8219824AC00596A2CF2C
:1056300028D6F80196838583B9CF8B859C85AD8567
:10564000BE85F80181839283A383B4830B5F1F4FD0
:10565000C7CFE080F180E80CF91CD70113966D915B
:105660007C9114978C918F3F09F473C0E1E0F0E0D6
:1056700002C0EE0FFF1F8A95E2F7CF01092E000C42
:10568000AA0BBB0BFB014081518162817381842392
:105690009523A623B72321E0892B8A2B8B2B09F492
:1056A00020E0D8012C93D70111968C91080F111D81
:1056B000E981FA813196FA83E983F7E08F0E911C34
:1056C000AF85B889ED91FC91EC0DFD1D828129819A
:1056D0003A818217130611F00CF0BBCF772011F03E
:1056E000128701873F81332391F1AF85B889ED910E
:1056F000FC91EC0DFD1D61E070E0878190856ED41A
:10570000AF85B889ED91FC91EC0DFD1DE780F0842B
:1057100045815681E1E0F0E0662011F0F0E0E0E044
:105720000D811E819C01B101882799278E1B9F0B3B
:105730008DD32C01892B59F0EF85F88980819181D7
:10574000C80ED91ED60115968D919C91D3D5F12CFA
:10575000D8CEF701418150E0C8010E945348A3CF41
:1057600086EF482E55245A94CCCEEF85F88987854C
:1057700090890196908B87872585368582179307B8
:1057800009F08DCE108A17868ACE512C412C21CE5D
:1057900010E000E02DCF2F923F924F925F926F92D8
:1057A0007F928F929F92AF92BF92CF92DF92EF92B1
:1057B000FF920F931F93CF93DF938091E106909117
:1057C000E20610E000E0892BA9F0D5DA0AEF1FEF1E
:1057D000882381F02090E3063090E406C091E10632
:1057E000D091E206D12CC12C10E000E02C143D0435
:1057F000A9F47894C801DF91CF911F910F91FF9088
:10580000EF90DF90CF90BF90AF909F908F907F9060
:105810006F905F904F903F902F900895C6010E9427
:105820001323882309F18B819C810397E9F48F85E9
:105830009889892BC9F0B60190E080E07BD221E005
:1058400030E0882311F030E020E044245524421A4F
:10585000530AB12CA12C912C812C8A818815190412
:1058600009F038F4188A1F864FEFC41AD40A6396D9
:10587000BDCFE881F981EA0DFB1D85819681892BD9
:10588000A1F161E070E087819085A8D33C01DBD273
:105890008C01E881F981EA0DFB1D818592852581C6
:1058A0003681200F311FAC01421B530B9A014781F7
:1058B0005085421B530B70E060E00E945C48E88119
:1058C000F981EA0DFB1DE780F08445815681930143
:1058D000B601C201BBD28C01892B39F0E881F98174
:1058E000EA0DFB1D8581968105D55FEF851A950A26
:1058F0008BE0A80EB11CB1CF3ECA789408952F92C8
:105900003F924F925F926F927F929F92AF92BF921F
:10591000CF92DF92EF92FF920F931F93CF93DF937B
:1059200000D000D0CDB7DEB70091E1061091E206BD
:10593000992493940115110509F43EC0A090E30643
:10594000B090E40618DA982E8823B1F11092E2069E
:105950001092E1061092E4061092E3061092E5061A
:105960001092E6068FEF9FEFDC0180936604909320
:105970006704A0936804B093690478947FD31E836E
:105980000D83C12CD12C7601C501B0E0A0E0898344
:105990009A83AB83BC8322242A94322C89819A81F6
:1059A000AB81BC81C816D906EA06FB06F4F0C80133
:1059B000A1D480E40E94541F892D26960FB6F89436
:1059C000DEBF0FBECDBFDF91CF911F910F91FF9032
:1059D000EF90DF90CF90BF90AF909F907F906F90AF
:1059E0005F904F903F902F900895AD81BE811596A6
:1059F0008D919C91169720915C0430915D048217E3
:105A00009307D1F451968D919C91EED5ED81FE8155
:105A100080819181B12CA12C412C512C3201892BF8
:105A200089F5BFEFCB1ADB0AEB0AFB0AED81FE8199
:105A30007396FE83ED83B2CFC114D104E104F10467
:105A400029F7029718F7ED81FE81818992898F3FAE
:105A5000980709F029D5AD81BE8152963C922E92CD
:105A60005197D4CF8A0D9B1DDC018D919C9100979D
:105A700009F040D4BFEF4B1A5B0A6B0A7B0AEBE0DC
:105A8000AE0EB11CAD81BE818D919C911197129685
:105A90004C9150E070E060E04416550666067706CB
:105AA0000CF328D4BECFCF93DF93EA0128DF811116
:105AB00009C082E090E09983888385EF9FEFDF91B2
:105AC000CF91089581E090E00E94461F81E090E030
:105AD0009983888390E080E0F2CF11DF1092DE0698
