:100000006CC0000092C0000090C000008EC00000D4
:100010008CC000008AC0000088C0000086C00000BC
:1000200084C0000082C0000080C000007EC00000CC
:100030007CC000007AC0000078C0000076C00000DC
:100040000C94083872C000000C94FF3A0C94313BB9
:100050006CC000006AC0000068C0000066C00000FC
:100060000C94EB3662C0000005A84CCDB2D44EB95A
:100070003836A9020C50B9918688083CA6AAAA2A4B
:10008000BE000000803F00000008000201000003E5
:100090000407000000000000000001020408102016
:1000A000408001020408102001020408102004040A
:1000B0000404040404040202020202020303030310
:1000C000030300000000250028002B0000000000B2
:1000D000240027002A005734563B11241FBECFEFBF
:1000E000D8E0DEBFCDBF13E0A0E0B1E0E8E0F8E784
:1000F00002C005900D92A835B107D9F728E0A8E510
:10010000B3E001C01D92A134B207E1F710E0CDE6E3
:10011000D0E004C02197FE010E94D33BCB36D1072B
:10012000C9F70E94422F0C94023C6ACFCF92DF9213
:10013000EF92FF926B017C01C114D104E104F10440
:1001400069F480910001811109C0809102019091B0
:1001500003010E94C83381E080930001C601880F2B
:10016000991F880F991F80509F4FFF90EF90DF904D
:10017000CF900895009781F0FC012181211104C0E6
:1001800040EA56E861E070E0FC01828193810E94C0
:10019000D73390E080E0089588E090E008954F9292
:1001A0005F926F927F928F929F92AF92BF92CF9207
:1001B000DF92EF92FF920F931F93CF93DF930097FD
:1001C000C9F1280139017A01EC01402F8A819B8114
:1001D0000E9455348A819B81DC01ED91FC91008461
:1001E000F185E02D0995892B01F16701812C912C76
:1001F00054018A819B81DC01ED91FC910084F185A1
:10020000E02D0995892B91F184149504A604B70477
:1002100069F18A819B81DC01ED91FC910284F38577
:10022000E02D09958F3F9807C1F484E0F701119202
:100230008A95E9F788E090E0DF91CF911F910F91C7
:10024000FF90EF90DF90CF90BF90AF909F908F90F6
:100250007F906F905F904F900895FFEF8F1A9F0AE5
:10026000AF0ABF0AD6018D936D01C3CF90E080E045
:10027000E3CF8F929F92AF92BF92CF92DF92EF9295
:100280000F931F93CF93DF930097F1F06A01EC0176
:100290008A819B810E94DA338A819B81DC01ED9106
:1002A000FC910280F381E02DA801B60109958A81B5
:1002B0009B8160E0E11001C061E00E94E43388238B
:1002C00089F08250823088F088E090E0DF91CF9111
:1002D0001F910F91EF90DF90CF90BF90AF909F90C4
:1002E0008F90089590E080E0F1CF84E090E0EECF31
:1002F0000895611102C00C946C396130E1F362E041
:10030000FACF662319F061E00C94A83960E0FCCFC5
:10031000CF92DF92EF92FF92CF93882351F16A013F
:100320007B01CFEFC80F20E030E0A901CB01B6017F
:100330000E94423087FF11C0C701B60190580E9449
:10034000B6309B01AC016C2F70E090E080E0CF9163
:10035000FF90EF90DF90CF90B2C0C701B6010E942E
:10036000B1308C2FCF91FF90EF90DF90CF900C9415
:10037000E838CF91FF90EF90DF90CF9008950F93E2
:100380001F938B019C0183E0369527951795079560
:100390008A95D1F7085A1C4F462F477021E030E06C
:1003A000F90102C0EE0FFF1F4A95E2F7AF01F80115
:1003B00020812423CB010196211102C090E080E02E
:1003C0001F910F9108950F931F938B019C0183E060
:1003D00036952795179507958A95D1F7677081E02F
:1003E00090E001C0880F6A95EAF7F801E85AFC4FDF
:1003F0002081452B31F48095822380831F910F91BA
:100400000895822BFACF2F923F924F925F926F9274
:100410007F928F929F92AF92BF92CF92DF92EF9294
:10042000FF920F931F93CF93DF93D62EC72E782E74
:10043000692E49015A01280161E08D2D0E946C3915
:10044000CD2DDC2D8E010F5F1F4FA8016D2D7C2D52
:10045000872D962DB8DF20E030E0A901C201B70159
:100460000E946E32181664F4C201B7010E94B630C1
:100470002B01C501B4010E94B630A201CE0123D0E8
:10048000C801DF91CF911F910F91FF90EF90DF9006
:10049000CF90BF90AF909F908F907F906F905F9024
:1004A0004F903F902F900895882341F08150682FFE
:1004B00070E090E080E050E040E085CF0895862F26
:1004C000B9010C94E8389C01FC01EA57FF4FE49114
:1004D000E33061F140F4E13011F1E23021F160E00C
:1004E000822F0C94A839E730C1F1E83009F441C0FB
:1004F000E430A9F7809180008C7F82608093800037
:1005000090918100907E9061692B6093810050935F
:100510008700409386008091800080621BC084B574
:10052000806884BDDCCF84B58062FBCF8091800081
:100530008C7F82608093800090918100907E90619A
:10054000692B6093810050938700409386008091CF
:100550008000806880938000C2CF8091B000806866
:100560008093B0008091B100887F682B6093B100C8
:10057000B6CF8091B0008062F3CF90E080E0089524
:100580000F931F93009709F489C06115710509F451
:1005900085C0009157021091580220915902309164
:1005A0005A020E3F1F4F2F4F3F4F09F068C04FEFC9
:1005B0005FEFBA014093570250935802609359027B
:1005C00070935A024091570250915802609159021B
:1005D00070915A02DC011296ED91FC91808191811B
:1005E000A281B3818093DB039093DC03A093DD03AE
:1005F000B093DE0384819581A681B7818093D70370
:100600009093D803A093D903B093DA0380859185A2
:10061000A285B3858093D3039093D403A093D5038D
:10062000B093D60384859585A685B7858093CF033F
:100630009093D003A093D103B093D2031092CB0335
:100640001092CC031092CD031092CE030E94291277
:100650008EE492E19093620380936103909364032C
:10066000809363030E941811009731F421E030E079
:100670003093E0032093DF031F910F9108950091C1
:100680005702109158022091590230915A02DB0111
:100690000D931D932D933C93139794CF8FEF9FEF62
:1006A000EBCF8F929F92AF92BF92CF92DF92EF9259
:1006B000FF921F93CF93DF934B015C011091E203F4
:1006C00082E090E09093E0038093DF038114910433
:1006D000A104B10441F48091E203811104C080912E
:1006E000E103C1E08111C0E0C12CD12C76018091E1
:1006F000E203811106C08091E103811102C0CC2385
:10070000D9F083E090E09093E0038093DF03CC2363
:1007100081F1CCE9DFEF111102C00E94B215CE01C8
:10072000DF91CF911F91FF90EF90DF90CF90BF901E
:10073000AF909F908F9008956AE070E080E090E025
:100740000E94773880E1C80E87E2D81EE11CF11CB8
:100750008FEF88169806A806B80631F0C1E08C1411
:100760009D04AE04BF0408F0C0E080E00E944C117C
:10077000BECFD0E0C0E0CFCFCF92DF92EF92FF921A
:100780000F931F93CF93DF938F3F910511F008F0E4
:1007900051C02091DF033091E0032330310539F05F
:1007A0002091DF033091E0032130310531F424E062
:1007B00030E03093E0032093DF036A017B01EC011A
:1007C00082309105A8F011E0AE01C701B6010E9488
:1007D0001711AB01BC01CE011123F9F0DF91CF91CC
:1007E0001F910F91FF90EF90DF90CF900C94DB174B
:1007F0008C01000F111F0F591C4FD8018D919C9136
:10080000892B09F30E94E5170297E9F6D801ED91CB
:10081000FC91CE010995182FD7CF0E94FD1790E0CB
:1008200080E0DF91CF911F910F91FF90EF90DF90CB
:10083000CF9008958FEF9FEFF4CF80E00C944C1190
:10084000CF93DF9386E090E09093E0038093DF0303
:100850000E94A511EC01E1E6F3E084E0DF011D92C6
:100860008A95E9F70E944A151092E0031092DF037F
:10087000CE01DF91CF9108958091E1030895809199
:10088000CA030895609357027093580280935902E7
:1008900090935A0290E080E00895CF92DF92EF9219
:1008A000FF926B017C019F7720E030E040E859E542
:1008B0000E94423087FF2BC020E030E040E05FE341
:1008C000C701B6010E946E3287FD0EC020E030E005
:1008D00040E05FE3C701B6010E94CB2FFF90EF908D
:1008E000DF90CF900C941F3120E030E040E05FEBD0
:1008F000C701B6010E946E32181684F420E030E081
:10090000A901C701B6010E9472326B017C01C701C7
:10091000B601FF90EF90DF90CF90089520E030E097
:1009200040E05FE3C701B6010E94CA2FFF90EF903D
:10093000DF90CF900C942F302F923F924F925F9286
:100940006F927F928F929F92AF92BF92CF92DF92DF
:10095000EF92FF920F931F93CF93DF93CDB7DEB744
:10096000A1970FB6F894DEBF0FBECDBF80912108CE
:100970008150823008F035C383E080932108809154
:1009800020088150823008F02EC383E08093200835
:1009900080911F088150823008F027C383E0809344
:1009A0001F08C0902001D0902101E0902201F0901A
:1009B0002301A70196016091C3077091C40780913C
:1009C000C5079091C6070E944230882341F0C0922B
:1009D000C307D092C407E092C507F092C6078CE027
:1009E0008987C12CEE24E39401E010E020E030E0A0
:1009F000AE01475F5F4F66E370E08091B907909169
:100A0000BA0737DC89878111F2C2CC24C394E12C68
:100A100004E010E020E030E0AE014F5F5F4F66E39E
:100A200070E08091B9079091BA07B9DB84E0FE01CC
:100A30003196DE01159601900D928A95E1F78D8130
:100A40009E819D838E838F8198859F838887209147
:100A5000E7073091E8074091E9075091EA07609174
:100A6000EC017091ED018091EE019091EF010E94F7
:100A700072326E877F87888B998B209154023091D8
:100A80005502AF81B8850E94D93B6B017C01C092B1
:100A9000AF07D092B007E092B107F092B20781E0C1
:100AA00090E040911C0150911D0160911E017091D8
:100AB0001F01C416D506E606F70610F090E080E0A8
:100AC00020915602289FB001299F700D1124072EF6
:100AD000000C880B990B0E94E4309B01AC010E9432
:100AE000CB2F4B015C01C701B6010E94E23020E030
:100AF00030E040E056E30E9472329B01AC01C50138
:100B0000B4010E94CB2F2091F0013091F10140916E
:100B1000F2015091F3010E94CA2F609397077093DE
:100B200098078093990790939A072091F401309148
:100B3000F5014091F6015091F7010E9472326A8BE3
:100B40007B8B8C8B9D8BC090EB07D090EC07E0905B
:100B5000ED07F090EE074090EF075090F00760909F
:100B6000F1077090F207209118023091190240911C
:100B70001A0250911B02C701B6010E9472324B014A
:100B80005C0120911C0230911D0240911E02509187
:100B90001F02C301B2010E9472329B01AC01C50168
:100BA000B4010E94CB2F4B015C01209128023091AF
:100BB000290240912A0250912B026E857F858889F7
:100BC00099890E9472326A877B878C879D872091E2
:100BD0002C0230912D0240912E0250912F026A89F1
:100BE0007B898C899D890E9472329B01AC016A8548
:100BF0007B858C859D850E94CB2F9B01AC01C50117
:100C0000B4010E94CB2F60938F077093900780935D
:100C100091079093920720912002309121024091F8
:100C2000220250912302C701B6010E9472326B0169
:100C30007C0120912402309125024091260250919E
:100C40002702C301B2010E9472329B01AC01C701AD
:100C5000B6010E94CB2F6B017C01209130023091B4
:100C6000310240913202509133026E857F8588892E
:100C700099890E9472324B015C01209134023091BB
:100C8000350240913602509137026A897B898C89FE
:100C90009D890E9472329B01AC01C501B4010E9482
:100CA000CB2F9B01AC01C701B6010E94CB2F6093F3
:100CB000930770939407809395079093960760939A
:100CC0009B0770939C0780939D0790939E0780914C
:100CD000400290914102A0914202B0914302809360
:100CE0009F079093A007A093A107B093A207C0907D
:100CF0003C02D0903D02E0903E02F0903F0220E0A6
:100D000030E0A901C701B6010E94423087FF72C1DD
:100D1000C701B6010E942F306093A7077093A80700
:100D20008093A9079093AA076091A7077091A807DD
:100D30008091A9079091AA070E941510882309F4B1
:100D40005EC11092A7071092A8071092A9071092EF
:100D5000AA07C090A707D090A807E090A907F09035
:100D6000AA0720E030E0A901C701B6010E94423085
:100D700087FF67C1C701B60190580E94B6309095B1
:100D80008095709561957F4F8F4F9F4F62307105B1
:100D90008105910509F474C36330710581059105DE
:100DA00009F467C4613071058105910509F052C1EC
:100DB00020919707309198074091990750919A0791
:100DC00060919F077091A0078091A1079091A20761
:100DD0000E94CA2F209124013091250140912601C3
:100DE000509127010E9472326B017C01C092A707CB
:100DF000D092A807E092A907F092AA0720910801D3
:100E00003091090140910A0150910B010E94723208
:100E1000209128013091290140912A0150912B0104
:100E20000E9472322B013C014092AB075092AC07FA
:100E30006092AD077092AE0720910F0830911008B4
:100E400040911108509112082A873B874C875D8793
:100E50008091130890911408A0911508B09116087C
:100E60008E8B9F8BA88FB98F20911801309119011B
:100E700040911A0150911B01C701B6010E947232C4
:100E80002A853B854C855D850E94CB2F4B015C01FB
:100E900020910B0830910C0840910D0850910E08DC
:100EA000C301B2010E94CA2F9B01AC01C501B4016C
:100EB0000E94CB2F4B015C0120913C0130913D0100
:100EC00040913E0150913F016E897F89888D998DB7
:100ED0000E9472329B01AC01C501B4010E94CA2F6D
:100EE000209138013091390140913A0150913B01F4
:100EF0000E9449304B015C01209130013091310159
:100F000040913201509133010E9472326A8F7B8F7F
:100F10008C8F9D8F209134013091350140913601A5
:100F2000509137016E897F89888D998D0E94723228
:100F30009B01AC016A8D7B8D8C8D9D8D0E94CB2F8A
:100F40002091440130914501409146015091470163
:100F50000E9472326093A3077093A4078093A50741
:100F60009093A60740920B0850920C0860920D08CF
:100F700070920E08209110013091110140911201E0
:100F800050911301C701B6010E94723220912C01C9
:100F900030912D0140912E0150912F010E9472320B
:100FA0002A853B854C855D850E94CB2F60930F0879
:100FB0007093100880931108909312088092130880
:100FC00090921408A0921508B092160880912108FA
:100FD0008823E1F1833009F450C2082E000C990BEC
:100FE00037C080E0CACC80E0D1CC80E0D8CC188675
:100FF0001F822DCDC701B6010E941F318DCE609199
:10100000A7077091A8078091A9079091AA07C8D750
:10101000811197CE6091A7077091A8078091A907C9
:101020009091AA0720E030E040E85FE40E94393167
:101030006093A7077093A8078093A9079093AA07C6
:1010400088CEC701B6010E94B630A0CE82E090E003
:101050008093210869E070E080E090E090D98C01F5
:101060009093E6078093E5072091A3073091A407AA
:101070004091A5075091A6076091480270914902DE
:1010800080914A0290914B020E9472326B017C0166
:1010900020E030E04FE753E40E94423018160CF491
:1010A0000FC5C092A707D092A807E092A907F092B7
:1010B000AA0720E030E0A9016091A7077091A80776
:1010C0008091A9079091AA070E946E3287FF08C0FD
:1010D0001092A7071092A8071092A9071092AA07CA
:1010E0004091A7075091A8076091A9077091AA079E
:1010F000C8010ED960914C0270914D0280914E0250
:1011000090914F02CADB6B017C01C092A707D0927D
:10111000A807E092A907F092AA0720E030E040E893
:1011200053E40E94423087FFDAC420E030E0A90196
:10113000C701B6010E946E3287FDCFC4C701B60158
:101140000E94B630698769858BE0DBD8C090A7071D
:10115000D090A807E090A907F090AA0720E030E01F
:1011600040E853E4C701B6010E94423087FFBCC487
:1011700020E030E0A901C701B6010E946E3287FD70
:10118000B1C4C701B6010E94B630698769858CE099
:10119000B8D86091500270915102809152029091A2
:1011A00053027BDB6B017C01C092A707D092A8079A
:1011B000E092A907F092AA0720E030E040E853E46B
:1011C0000E94423087FF95C420E030E0A901C701AA
:1011D000B6010E946E3287FD8AC4C701B6010E9423
:1011E000B6306987698588E08CD88091A307909193
:1011F000A407A091A507B091A6078093E707909355
:10120000E807A093E907B093EA07C090EB07D090F6
:10121000EC07E090ED07F090EE074090EF0750905C
:10122000F0076090F1077090F20720910002309172
:1012300001024091020250910302C701B6010E94CF
:1012400072324B015C012091040230910502409101
:10125000060250910702C301B2010E9472329B0143
:10126000AC01C501B4010E94CB2F4B015C01209160
:1012700010023091110240911202509113026E85BA
:101280007F85888999890E9472326A877B878C87DB
:101290009D872091140230911502409116025091C1
:1012A00017026A897B898C899D890E9472329B0111
:1012B000AC016A857B858C859D850E94CB2F9B0127
:1012C000AC01C501B4010E94CB2F4B015C01209100
:1012D000F8013091F9014091FA015091FB01C701E9
:1012E000B6010E9472326B017C012091FC013091A9
:1012F000FD014091FE015091FF01C301B2010E9426
:1013000072329B01AC01C701B6010E94CB2F6B0169
:101310007C01209108023091090240910A0250910B
:101320000B026E857F85888999890E9472322B0114
:101330003C0120910C0230910D0240910E0250911F
:101340000F026A897B898C899D890E9472329B0178
:10135000AC01C301B2010E94CB2F9B01AC01C701BC
:10136000B6010E94CB2F6093EB077093EC0780933C
:10137000ED079093EE078092EF079092F007A0920E
:10138000F107B092F207C0909D03D0909E03E090C9
:101390009F03F090A0033FEFC31AD30AE30AF30AB6
:1013A000C0929D03D0929E03E0929F03F092A0030F
:1013B000C114D104E104F10499F48091A103909146
:1013C000A203A091A303B091A4030196A11DB11D96
:1013D0008093A1039093A203A093A303B093A403CB
:1013E0008090A5039090A603A090A703B090A803B7
:1013F0006091A1037091A2038091A3039091A40333
:101400000E94E230A50194010E94723220E030E097
:1014100040E85FE40E9472322B013C01C701B60133
:101420000E94E230A50194010E9472329B01AC013E
:10143000C301B2010E94CB2F6093990370939A036A
:1014400080939B0390939C03A1960FB6F894DEBF04
:101450000FBECDBFDF91CF911F910F91FF90EF9005
:10146000DF90CF90BF90AF909F908F907F906F90C4
:101470005F904F903F902F90089581E090E0E8CDED
:101480008091070890910808A0910908B0910A0876
:101490008093A3079093A407A093A507B093A607F2
:1014A00020919707309198074091990750919A079A
:1014B00060919F077091A0078091A1079091A2076A
:1014C0000E94CA2F20914C0130914D0140914E0154
:1014D00050914F010E9472326093AB077093AC073A
:1014E0008093AD079093AE07209154013091550140
:1014F00040915601509157010E94723220919B07F2
:1015000030919C0740919D0750919E070E94CB2FE0
:101510006093A7077093A8078093A9079093AA07E1
:1015200084D5882309F475C08091330890913408DC
:10153000A0913508B09136088093A7079093A8072B
:10154000A093A907B093AA07C0900401D090050109
:10155000E0900601F09007016091AB077091AC0735
:101560008091AD079091AE070E9446304B015C011F
:10157000C701B60190582091A7073091A807409164
:10158000A9075091AA070E947232A70196010E94F2
:10159000CB2F6B017C012091500130915101409182
:1015A000520150915301C501B4010E9472329B0156
:1015B000AC01C701B6010E94CB2F6B017C012091C9
:1015C0009B0730919C0740919D0750919E07609129
:1015D00058017091590180915A0190915B010E94CC
:1015E00072329B01AC01C701B6010E94CB2F609300
:1015F0000708709308088093090890930A0880915F
:101600002008882371F1833089F1082E000C990B92
:101610002AC0C090A707D090A807E090A907F09033
:10162000AA0720E030E0A901C701B6010E944230BC
:1016300087FF05C080E090E0A0E8BFEB7DCF20E011
:1016400030E0A901C701B6010E946E32181624F0DD
:1016500080E090E0DC0170CF80E090E0A0E8BFE3A4
:101660006BCF82E090E080932008F4CC81E090E0A2
:10167000FACF2091970730919807409199075091A0
:101680009A0760919F077091A0078091A1079091A0
:10169000A2070E94CA2F20915C0130915D01409108
:1016A0005E0150915F010E9472326B017C0180905B
:1016B000F3079090F407A090F507B090F6072091FB
:1016C000C8013091C9014091CA015091CB01C501B7
:1016D000B4010E9472322B013C015CEC252E51E0DA
:1016E000352E0BEA12E0E3EBF2E0E017F10709F028
:1016F0003EC12091DC013091DD014091DE0150912D
:10170000DF01C701B6010E947232A30192010E945B
:10171000CB2F2091E4013091E5014091E6015091F9
:10172000E7010E9472326093A3077093A40780932D
:10173000A5079093A6072091600130916101409127
:10174000620150916301C501B4010E9472322B0104
:101750003C012091B4013091B5014091B601509106
:10176000B701C701B6010E9472329B01AC01C301EF
:10177000B2010E94CB2F6E8B7F8B888F998F209127
:101780006401309165014091660150916701C50186
:10179000B4010E9472322B013C0138E6232E31E065
:1017A000332E01EA12E0E9EAF2E0E017F10709F06E
:1017B000FDC02091B8013091B9014091BA0150911A
:1017C000BB01C701B6010E947232A30192010E94BF
:1017D000CB2F6A8F7B8F8C8F9D8F209178013091DA
:1017E000790140917A0150917B01C501B4010E94B9
:1017F00072322B013C012CE731E03B872A87B7E9A5
:101800002B2EB2E03B2E0FE912E00215130509F072
:10181000ECC02091BC013091BD014091BE015091BE
:10182000BF01C701B6010E947232A30192010E945A
:10183000CB2F6E8F7F8F88A399A320918C0130913D
:101840008D0140918E0150918F01C501B4010E941C
:1018500072322B013C01E0E9F1E0FB87EA875DE8A9
:10186000252E52E0352E05E912E00215130509F088
:10187000DDC02091C0013091C1014091C201509161
:10188000C301C701B6010E947232A30192010E94F6
:10189000CB2F2B013C012091A0013091A10140915F
:1018A000A2015091A301C501B4010E9472324B0103
:1018B0005C01E4EAF1E0FB87EA8733E8232E32E0BB
:1018C000332E0BE812E00215130509F0D0C0209169
:1018D000C4013091C5014091C6015091C701C701B3
:1018E000B6010E947232A50194010E94CB2F2E896D
:1018F0003F89488D598D2093F3073093F407409327
:10190000F5075093F6072A8D3B8D4C8D5D8D209306
:10191000F7073093F8074093F9075093FA072E8D95
:101920003F8D48A159A12093FB073093FC074093BA
:10193000FD075093FE074092FF0750920008609207
:101940000108709202086093030870930408809362
:1019500005089093060880911F08882309F4A8C001
:10196000833009F4AAC0082E000C990BA3C0D10142
:101970006D917D918D919D911D01D801ED91FD910C
:101980008D01EE0FFF1FEE0FFF1FED50F84F20816E
:101990003181428153810E9472329B01AC01C301AB
:1019A000B2010E94CB2F2B013C019DCED1016D9144
:1019B0007D918D919D911D01D801ED91FD918D013C
:1019C000EE0FFF1FEE0FFF1FED50F84F208131810A
:1019D000428153810E9472329B01AC01C301B2016A
:1019E0000E94CB2F2B013C01DECEAA85BB856D91D9
:1019F0007D918D919D91BB87AA87D101ED91FD913C
:101A00001D01EE0FFF1FEE0FFF1FED50F84F20815D
:101A10003181428153810E9472329B01AC01C3012A
:101A2000B2010E94CB2F2B013C01EFCEAA85BB85D2
:101A30006D917D918D919D91BB87AA87D101ED918B
:101A4000FD911D01EE0FFF1FEE0FFF1FED50F84F30
:101A500020813181428153810E9472329B01AC010D
:101A6000C301B2010E94CB2F2B013C01FECEAA85FF
:101A7000BB856D917D918D919D91BB87AA87D10189
:101A8000ED91FD911D01EE0FFF1FEE0FFF1FED50B9
:101A9000F84F20813181428153810E9472329B0133
:101AA000AC01C501B4010E94CB2F4B015C010BCFEF
:101AB00082E090E080931F08CDCA81E090E0FACFE9
:101AC00080E090E0AFE7B3E48093A7079093A80786
:101AD000A093A907B093AA07ECCA198634CB8FEF5D
:101AE000898731CB198652CB8FEF89874FCB1986E7
:101AF00079CB8FEF898776CB4F925F926F927F92EF
:101B00008F929F92AF92BF92DF92EF92FF920F93CC
:101B10001F93CF93DF9384E090E00BD2E3E8F3E0F0
:101B20008BE2DF011D928A95E9F780E090E0A0E862
:101B3000BFEB86A397A3A0A7B1A78AE097EDA3E286
:101B4000BBE382A393A3A4A3B5A388E695ECA3E289
:101B5000BCE584839583A683B78385E89BEEAEE5D9
:101B6000BAE880879187A287B38786EA9BE5ACE3D2
:101B7000B7EC84879587A687B78786E39CE5A4EBB7
:101B8000B1E1808B918BA28BB38BA7E7B3E0B383DA
:101B9000A283E5E6F3E01196FC93EE9380E892E0F1
:101BA00091838083938382839583848397838683C1
:101BB000918780879387828781E298E095878487E1
:101BC0008FE198E09787868780E298E0918B808B01
:101BD00087E993E015969C938E93149787E893E09A
:101BE00013969C938E93129789E993E017969C9392
:101BF0008E9316978FE8A82E87E0B82E84E2F50121
:101C000011928A95E9F7C3EBD7E084E7DE011D92D4
:101C10008A95E9F780E090E5A3ECB8E48C879D878E
:101C2000AE87BF87DD24D394D092260894E0892E16
:101C300091E0992EF401848D958DA68DB78D888BBA
:101C4000998BAA8BBB8B412C512C32014394498236
:101C50005A826B827C8250E040E060E070E0CB0111
:101C60000E9496009F838E8340EA56E861E070E010
:101C7000488759876A877B870E94BA00DD821CA645
:101C8000D09222084DA65EA66FA678AAE12CF12C70
:101C90008701A801970169E070E080E090E00E9470
:101CA00003029BAB8AABD9AA1CA2D09225084DA2F5
:101CB0005EA26FA278A661E08BE00E947901D9A6AE
:101CC0001C8ED09224084D8E5E8E6F8E78A261E0BD
:101CD0008CE00E947901D9A21C8AD09223084D8AF7
:101CE0005E8A6F8A788E61E088E00E947901D98EE1
:101CF0008091E8019091E901A091EA01B091EB0196
:101D00008CAB9DABAEABBFAB8091380290913902EA
:101D1000A0913A02B0913B0288AF99AFAAAFBBAF96
:101D20008CAF9DAFAEAFBFAFF40180859185A2852A
:101D3000B38580930B0890930C08A0930D08B09383
:101D40000E0880899189A289B38980930F089093A6
:101D50001008A0931108B093120884AD95ADA6ADFC
:101D6000B7AD8093130890931408A0931508B0930F
:101D700016088091480190914901A0914A01B091C3
:101D80004B018093070890930808A0930908B0932B
:101D90000A088091E0019091E101A091E201B091E7
:101DA000E3018093F3079093F407A093F507B093B2
:101DB000F6078093F7079093F807A093F907B0937D
:101DC000FA078093FB079093FC07A093FD07B0935D
:101DD000FE078093FF0790930008A0930108B0933B
:101DE00002088093030890930408A0930508B09319
:101DF00006088091440290914502A0914602B0915C
:101E00004702F501848B958BA68BB78BDF91CF9121
:101E10001F910F91FF90EF90DF90BF90AF909F9038
:101E20008F907F906F905F904F9008958091B3074F
:101E3000811119C081E08093B3078091B40790911C
:101E4000B507A091B607B091B7070197A105B105F5
:101E500051F48091B807882331F08091B9079091AF
:101E6000BA070E9478018091DF0781112EC081E0BE
:101E70008093DF078091E0079091E107A091E2074E
:101E8000B091E3070197A105B105F9F48091E4074A
:101E90008823D9F069E070E080E090E00E94BF0103
:101EA0009093E6078093E50740E050E0BA010E9476
:101EB000880169E070E080E090E00E94BF019093AB
:101EC000E6078093E5070E9454028091D7078111AD
:101ED00003C081E08093D7078091CF07811103C0B1
:101EE00081E08093CF078091C707811103C081E013
:101EF0008093C707089560E070E080E89FE7089549
:101F000060E070E080E89FE7089560E070E080E8BE
:101F10009FEF089560E070E080E89FEF089560E033
:101F200070E080EC9FEF089560E070E080EC9FEF40
:101F30000895F5DF60933308709334088093350873
:101F400090933608F1DF60932708709328088093F8
:101F5000290890932A08CFDF60932F0870933008E8
:101F60008093310890933208CBDF60932B087093F5
:101F70002C0880932D0890932E08C7DF60933708B4
:101F8000709338088093390890933A08C3DF6093C0
:101F90003B0870933C0880933D0890933E08089559
:101FA000CF92DF92EF92FF92CF936B017C01AC0155
:101FB0009B0160912F0870913008809131089091B9
:101FC00032080E944230C1E0882371F0A7019601D7
:101FD00060913708709138088091390890913A08DB
:101FE0000E9442308111C0E08C2FCF91FF90EF9082
:101FF000DF90CF9008950F931F938B019C010027D2
:10200000112720783F770115110520483F4749F4F3
:10201000AB01BC016F77772781E0452B462B472B1F
:1020200009F480E01F910F910895E5CF4F925F92E0
:102030006F927F928F929F92AF92BF92CF92DF92D8
:10204000EF92FF920F931F93F8944090BA03509031
:10205000BB036090BC037090BD03C090AE03D090F2
:10206000AF03E090B003F090B103452B09F0A4C09A
:102070009B01AC01241935094609570929013A0188
:102080000091B6031091B7032091B8033091B903C2
:1020900048015901840C951CA61CB71C801691069A
:1020A000A206B306A0F40091B2031091B3032091ED
:1020B000B4033091B5030F5F1F4F2F4F3F4F009375
:1020C000B2031093B3032093B4033093B50380920B
:1020D000B6039092B703A092B803B092B9030091EF
:1020E000B2031091B3032091B4033091B5038092F1
:1020F000BE039092BF03A092C003B092C1030093AD
:10210000C2031093C3032093C4033093C5036093A9
:10211000BA037093BB038093BC039093BD03A4ECFC
:10212000B9E0A30192010E94E83B6C0D7D1D8E1D5C
:102130009F1D6093AE037093AF038093B0039093A1
:10214000B103009157021091580220915902309129
:102150005A020F3F1F4F2F4F3F4FF1F00091570290
:10216000109158022091590230915A020E3F1F4F90
:102170002F4F3F4F89F0C0905702D0905802E09007
:102180005902F0905A0221E08C149D04AE04BF0461
:1021900008F420E02093CA0378941F910F91FF90D8
:1021A000EF90DF90CF90BF90AF909F908F907F90F7
:1021B0006F905F904F9008954B015C0184189508D3
:1021C000A608B708A3019201261B370B480B590B31
:1021D0006415750586059705D0F082169306A4064A
:1021E000B50640F420E030E0A90181149104A10477
:1021F000B10491F4A4ECB9E00E94E83BA701960178
:10220000261B370B480B590BCA01B901C5CF8216E3
:102210009306A406B50670F7A4ECB9E0A5019401F5
:102220000E94E83B6C0D7D1D8E1D9F1DB5CFFECE1F
:10223000CF93DF9300D000D0CDB7DEB71C821B82D6
:102240001A8219821092C6031092C7031092C80313
:102250001092C903BE016F5F7F4FCE0103960E94AB
:10226000042E69817A818B819C810E94F4260097DB
:1022700061F4BE016F5F7F4FCE0103960E94102E66
:1022800069817A818B819C812CD50F900F900F9062
:102290000F90DF91CF910895FF920F931F93CF93EB
:1022A000DF93082F60E070E0CB010E947738FF24B5
:1022B000F3940E94DF25EC01892B89F010E0CE3FDA
:1022C0008FEFD80769F0002361F160E070E0CB0187
:1022D0000E94773881E090E0892B59F322C011E009
:1022E00023D5EC01892B21F0CE3F8FEFD80759F78A
:1022F00011111EC011E0229609F410E00E949025F1
:10230000EC01892B21F0CE3F8FEFD807E1F61111B8
:1023100011C011E0CE3F8FEFD80709F410E0011192
:102320000BC0CE01DF91CF911F910F91FF900895C7
:1023300011E0E4CF11E0F3CF60E070E0CB010E9448
:1023400077381F25812F90E0C7CFCF93DF938091FF
:10235000CA03882321F060E070E0CB014CD635D66B
:10236000D0E0C0E0892B71F06AE070E080E090E09E
:102370000E94773881E090DF28D62196C03D27E083
:10238000D20781F727D60E9448271092E2031092C5
:10239000E1031092DB031092DC031092DD03109234
:1023A000DE031092D7031092D8031092D903109233
:1023B000DA031092D3031092D4031092D503109233
:1023C000D6031092CF031092D0031092D103109233
:1023D000D2031092CB031092CC031092CD03109233
:1023E000CE034EEF5FEF6FEF7FEF409357025093B6
:1023F00058026093590270935A021092CA03EEEB8E
:10240000F3E028E0DF011D922A95E9F71092BA0364
:102410001092BB031092BC031092BD031092B6033E
:102420001092B7031092B8031092B9031092B2033E
:102430001092B3031092B4031092B5031092AE033E
:102440001092AF031092B0031092B103DF91CF91BD
:1024500008951092EE031092EF031092F003109281
:10246000F1031092ED038091F6039091F70390939E
:10247000EC038093EB031092EA031092E9031092AD
:10248000E5031092E6031092E7031092E80310921E
:10249000F3031092F20390E080E00895CF92DF9270
:1024A000EF92FF920F931F93CF938C01892B09F02A
:1024B00055C02091F6033091F7038091EB03909182
:1024C000EC034091F6035091F7035093EC034093D3
:1024D000EB032817390781F01092EA031092E90301
:1024E0001092E5031092E6031092E7031092E803BE
:1024F0001092F3031092F2038091F6039091F70388
:10250000019761F58091F2039091F303892B21F4F7
:1025100080915B02811112C08091F2039091F303CC
:102520000197E1F48091E5039091E603A091E70320
:10253000B091E8030197A105B10581F41092E5037C
:102540001092E6031092E7031092E80310925B02E8
:1025500082E090E09093F3038093F2038091F6037E
:102560009091F703019709F01CC180910C049091A0
:102570000D048017910709F014C18091080490910F
:102580000904A0910A04B0910B04009709F409C151
:102590002091070421110DC04091080450910904B5
:1025A00060910A0470910B04452B462B472B09F4CC
:1025B000F8C02091F2033091F3032230310509F085
:1025C000F0C02091E9032111ECC0FC01C080D18052
:1025D000E280F3808091ED03882309F4D3C08091D9
:1025E000F9039091FA03892B09F4FDC02091F903B6
:1025F0003091FA0381E02230310509F080E020912A
:10260000F9033091FA03C1E02130310549F02091FE
:10261000F9033091FA03C1E02230310509F0C0E03E
:10262000882309F456C0209103043091040440919A
:10263000050450910604C701B6010E946E3287FD61
:1026400014C020910304309104044091050450917A
:1026500006046091EE037091EF038091F003909176
:10266000F1030E94423087FD22C020910304309183
:1026700004044091050450910604C701B6010E946C
:102680006E32181634F52091030430910404409101
:102690000504509106046091EE037091EF03809160
:1026A000F0039091F1030E944230811112C0809199
:1026B000FB039091FC03A091FD03B091FE03892BD5
:1026C0008A2B8B2B19F481E08093EA0381E08093BD
:1026D000E903CC2309F456C020910304309104048B
:1026E0004091050450910604C701B6010E94423092
:1026F00087FF14C020910304309104044091050425
:10270000509106046091EE037091EF038091F00305
:102710009091F1030E946E3287FF22C02091030442
:10272000309104044091050450910604C701B6019C
:102730000E944230811126C020910304309104048C
:1027400040910504509106046091EE037091EF03EF
:102750008091F0039091F1030E946E32181694F468
:102760008091FB039091FC03A091FD03B091FE03C7
:10277000892B8A2B8B2B19F481E08093EA0381E06B
:102780008093E90381E09091E903911180E08093C7
:10279000ED03C092EE03D092EF03E092F003F092CB
:1027A000F103012B09F067C18091F2039091F303CB
:1027B000892BD9F41092F8031092E90380915B02FF
:1027C000882379F082E090E09093F3038093F20302
:1027D00010925B022091F6033091F70381E0232BE6
:1027E000E9F080E01BC081E00ACF10925B0280918B
:1027F000F803882349F01092EA031092F303109231
:10280000F2031092F803EDCF8091F6039091F70355
:10281000892BE1F08091E9031092E9032091F20302
:102820003091F3032230310509F45EC088F421159C
:10283000310509F448C02130310509F4F3C0109284
:10284000EA031092E9031092F80338C081E0E6CF62
:102850002330310509F4B1C02430310581F74091AE
:10286000E5035091E6036091E7037091E803411599
:1028700051056105710561F0415051096109710906
:102880004093E5035093E6036093E7037093E803F6
:102890004091E5035091E6036091E7037091E803EE
:1028A000452B462B472BD9F42091F4033091F503A7
:1028B0002130310509F046C01092EA031092F3036B
:1028C0001092F2030CC080915B02882341F082E0F9
:1028D00090E09093F3038093F20310925B021092C6
:1028E000E3038091EA03CEC08823C9F38091FB0300
:1028F0009091FC03A091FD03B091FE0318161906F8
:102900001A061B060CF07DC08091F6039091F70328
:10291000019709F076C08091FB039091FC03A09190
:10292000FD03B091FE038093E5039093E603A0932B
:10293000E703B093E80383E090E09093F303809380
:10294000F203CDCF4091FF03509100046091010448
:1029500070910204452B462B472BA9F01092EA03F5
:102960008091FF0390910004A0910104B0910204B2
:102970008093E5039093E603A093E703B093E80305
:1029800081E090E0DACF882399F080915C02909109
:102990005D02A0915E02B0915F028093E503909387
:1029A000E603A093E703B093E80384E090E0C5CF8B
:1029B0001092EA0382E090E0C0CF8091E50390910D
:1029C000E603A091E703B091E8030097A105B105E4
:1029D00059F00197A109B1098093E5039093E603AB
:1029E000A093E703B093E8038091E5039091E60399
:1029F000A091E703B091E803892B8A2B8B2B09F078
:102A00006ECF80915C0290915D02A0915E02B091C8
:102A10005F02892B8A2B8B2B09F44ECF81E08093A8
:102A2000EA03B3CF4091E5035091E6036091E703D9
:102A30007091E803411551056105710561F0415040
:102A40005109610971094093E5035093E6036093CE
:102A5000E7037093E8034091E5035091E60360912A
:102A6000E7037091E803452B462B472B09F037CF3E
:102A70008111C7CF9FCF8091E303882309F431CF21
:102A80008091E403CF911F910F91FF90EF90DF9021
:102A9000CF9008951092EE031092EF031092F0037E
:102AA0001092F1031092ED031092F3031092F203CF
:102AB0001092EC031092EB0310920D0410920C0490
:102AC0001092EA031092E9031092E5031092E603D4
:102AD0001092E7031092E8031092E4031092E303CC
:102AE000109208041092090410920A0410920B0428
:102AF000109207041092030410920404109205042B
:102B00001092060488EE93E0A0E0B0E080935C02AF
:102B100090935D02A0935E02B0935F021092FF0358
:102B20001092000410920104109202041092FB0310
:102B30001092FC031092FD031092FE031092FA0310
:102B40001092F90381E080935B021092F8031092D7
:102B5000F7031092F6031092F5031092F40390E03D
:102B600080E008958091F6039091F703892B19F581
:102B700080915B02882351F08091F803811106C097
:102B800081E08093E4038093E30308952091F803A8
:102B900030915B0281E090E0332311F090E080E01F
:102BA00030E082239323892B21F01092E40381E00B
:102BB000EACF1092E303089582E090E0FA01918356
:102BC00080838FEF9FEF0895CF93DF93EA01009703
:102BD00011F00E9468281982188290E080E0DF914D
:102BE000CF910895DB01009719F48FEF8C9308952E
:102BF0002EEF2C930F968F30910508F033C0FC0117
:102C0000EC5FF94E0C94D33B30162E162C162A1678
:102C1000281624162616221620161E161B16171600
:102C200013161916321680E311968C93089589E2D3
:102C3000FBCF82E2F9CF11961C92089583E2F4CF84
:102C400081E2F2CF81E1F0CF87E2EECF8AE2ECCFF2
:102C500080E1EACF84E2E8CF88E2E6CF86E2E4CF03
:102C600081E3E2CF80E2E0CF80911A0490911B04CF
:102C7000089590931B0480931A0408958091190479
:102C8000089590911904892B809319040895982F21
:102C90009095809119048923809319040895809157
:102CA00018040895809116049091170408956115F1
:102CB000710559F0FB0130E020E070E060E024177E
:102CC000350719F06115710511F0CB010895A08148
:102CD000B181A817B90709F4BF012F5F3F4F36969E
:102CE000EECF80911C0481111CC062D268D29093F7
:102CF0000F0480930E040E9478200E948A209093F3
:102D00001304809312040E94FA240E9401259093D8
:102D100011048093100481E080931C0490E080E013
:102D2000089584EF9FEF08958F929F92AF92BF9284
:102D3000CF92DF92EF92FF920F931F93CF93DF9387
:102D4000CDB7DEB72A970FB6F894DEBF0FBECDBF62
:102D50001A86198618861F821E821D821C821B827B
:102D60001A82198280911C0407EF1FEF882309F44F
:102D70009CC08E010D5F1F4F9E012B5F3F4FAE0128
:102D8000495F5F4FBE01675F7F4F90E080E00E9428
:102D90007A268C01009721F00596029708F0DBC097
:102DA00029853A852115310509F402C1ED80FE809F
:102DB0004B815C81B701640F751F8F8198858617E1
:102DC000970708F4F5C0E20EF31ED7019C91903CE2
:102DD00009F07FC04230510508F47BC011968C91F8
:102DE00040911A0450911B04452B09F49CC0913F5B
:102DF00008F071C02CE1290F2D3008F48BC02DE2B2
:102E0000290F203108F489C0903C21F48150823090
:102E100008F483C088E3890F8B3008F481C092EFF7
:102E2000C92E95E1D92EECEDF5E16D817E81AE01E3
:102E30004F5F5F4F89859A8509955C01C114D10464
:102E4000A1F189809A808114910479F18B819C8110
:102E50008815990508F487C010E000E04B815C817B
:102E600070E060E0C7010E94FB3B01151105E9F429
:102E700049815A8169857A858D819E81680F791F84
:102E8000C501F6010995E980FA800D811E812F8127
:102E9000388549855A856FEF7FEF81E090E00E9489
:102EA00016268C01892B09F056C0C8012A960FB648
:102EB000F894DEBF0FBECDBFDF91CF911F910F9170
:102EC000FF90EF90DF90CF90BF90AF909F908F904A
:102ED000089580E085CF30E020E0220F331FF90114
:102EE000E25FFB4F0190F081E02D309709F497CF1E
:102EF000892F90E00995009709F491CFDC01129693
:102F0000ED91FC9113971496CD90DC90309709F0D9
:102F10008CCF1FC021E030E0E0CF22E030E0DDCFF9
:102F200023E030E0DACFD12CC12CE4EEF5E19F3F75
:102F300009F07BCFE0910E04F0910F04309721F45B
:102F4000C90104EF1FEF0CC08FEF90E009950097C7
:102F5000A9F604EF1FEF89859A85009709F4A5CF9C
:102F60000E946828A2CF0E9443278C0189859A85F8
:102F70000E94682870E060E0C4010E94DC26988707
:102F80008F830E9413269E838D836F8178856115C0
:102F9000710559F0C8010E94F4299A87898706EFC4
:102FA0001FEF892B09F058CF59CF08EF1FEF56CFED
:102FB00008EF1FEFD0CF20911C04222319F020E04E
:102FC0000C948F2087EF9FEF089580911A049091C1
:102FD0001B0408950E9406250E946024F5D0EEE0AF
:102FE000F4E088E0DF011D928A95E9F710921C0455
:102FF00090E080E008950C94BD2221E040E050E094
:10300000BA010C948F2086E090E0FA0191838083CE
:1030100090E080E0089547E050E065EB72E047CE35
:10302000DF92EF92FF920F931F93CF93DF938A016A
:10303000EC01C60FD71FE0902004F0902104D98046
:103040000E942B27D816190678F082E090E0F8014C
:10305000918380838EEF9FEFDF91CF911F910F912E
:10306000FF90EF90DF900895EF2841F482E090E028
:10307000F8019183808384EF9FEFEECF8981809365
:103080001F0490E00196F8019183808390E080E036
:10309000E3CFCF93DF93EA010E946E23882321F0D0
:1030A0000E9438270E946F2382E090E099838883F2
:1030B0008BEF9FEFDF91CF910895CF93DF93EB01DB
:1030C00086E0FB0111928A95E9F78FEF8883D6DDC0
:1030D0008983E5DD8A83E6DD9D838C83DF91CF9153
:1030E0000895CF93DF93EA010E947123811109C0F3
:1030F00082E090E09983888385EF9FEFDF91CF9105
:10310000089590E080E0B5DD81E090E099838883C8
:1031100090E080E0F3CF0F931F93CF93DF93EA010A
:103120008C01060F171F0E94712381110BC082E0D2
:1031300090E09983888385EF9FEFDF91CF911F9176
:103140000F910895F8018181823038F082E090E09B
:10315000998388838EEF9FEFF0CF81E090E089DD47
:1031600088E090E09983888390E080E0E6CFCF9379
:10317000DF930097D1F4EB01FB01329686E0DF018B
:103180001D928A95E9F78FEF888385E089831A82FB
:103190000E942B278B830E942A279D838C8381E0AA
:1031A0008E838F83DF91CF910895DF91CF911ACDD8
:1031B0008BE098E190931E0480931D040895809104
:1031C0001D0490911E04089510921E0410921D0477
:1031D000089580912004909121040895411105C023
:1031E000611571058105910561F06093200470936C
:1031F000210480932204909323044093240481E0CB
:10320000089580E00895FF920F931F93CF93DF936B
:103210008A01EC01C60FD71FF9800E942B27F816F0
:10322000190668F082E090E0F801918380838EEFC8
:103230009FEFDF91CF911F910F91FF9008956C81C7
:103240007D818E819F814B81C9DF811108C082E021
:1032500090E0F8019183808384EF9FEFEACF89812A
:1032600080931F0490E00196F8019183808390E0A1
:1032700080E0DFCFCF93DF93EA01FC01E60FF71F79
:1032800064817581868197814381A8DF811109C09E
:1032900082E090E09983888384EF9FEFDF91CF9164
:1032A000089581E090E09983888390E080E0F6CFF4
:1032B000E0E2F4E04081518162817381480F511D49
:1032C000611D711D40835183628373830895CF9381
:1032D000C0911F044C2F50E0609120047091210494
:1032E00001960E94F23B8C2FE3DF10921F04CF91D6
:1032F0000895009799F480912004909121042FEF74
:10330000FB012083892B59F020911F0430E02F5FAF
:103310003F4F2417350719F4CB01D9CF63CC08955B
:10332000009799F480912004909121042FEFFB01E4
:103330002083892B59F020911F0430E02F5F3F4FED
:103340002417350719F4CB01C2CF4CCC089523E1E3
:10335000AC01249FC001259F900D1124E091290408
:10336000F0912A04E80FF91F23813481225031099A
:1033700081E02230310508F080E008950F931F931B
:10338000CF93DF9300912B0410912C04D0E0C0E088
:1033900080E00C171D0749F491E0811190E0892F1E
:1033A000DF91CF911F910F9108958111F5CFCE013B
:1033B000CEDF2196EECFA0912904B0912A04109778
:1033C00029F120912B0430912C0482179307F0F4FB
:1033D00053E1589F9001599F300D1124A20FB31F44
:1033E000ED91FC911197309789F012968C916817A6
:1033F00068F48BE0689FE00DF11D112480819181BC
:10340000892B21F081E09281491708F080E008952E
:103410009C0143E1429FC001439F900D1124E09124
:103420002904F0912A04E80FF91F8385823091F472
:1034300081E090E065817681409160025091610267
:103440006417750711F490E080E0892B19F081E092
:10345000232B09F080E00895EF92FF920F931F93C2
:10346000CF93DF93EA01FC01E60FF71F028113817E
:10347000E480F5804F2D6E2DC8019DDF81110DC0B8
:1034800082E090E0998388838EEF9FEFDF91CF9168
:103490001F910F91FF90EF900895C80158DF882386
:1034A00039F082E090E09983888388EF9FEFEECF38
:1034B0001093670200936602E0926802F09269023C
:1034C00081E090E09983888390E080E0DFCFCF9225
:1034D000DF92EF92FF920F931F93CF93DF937A01C6
:1034E000EC01C60FD71FC0906602D0906702009112
:1034F000680210916902412F602FC6015CDF8111C3
:1035000010C082E090E0F701918380838AEF9FEF03
:10351000DF91CF911F910F91FF90EF90DF90CF90AF
:103520000895C60114DF882341F082E090E0F7019E
:103530009183808388EF9FEFEBCF4C815D816E811B
:103540007F819A8189818F3F41F082E090E0F7018D
:10355000918380838EEF9FEFDBCFE3E1EC9D9001C1
:10356000ED9D300D1124E0912904F0912A04E20F21
:10357000F31F0190F081E02D2BE0029FE00DF11D83
:1035800011240190F081E02D27E0129FE00DF11D44
:103590001124808391838B81828343835483658349
:1035A00076831F5F1093690281E090E0F7019183B9
:1035B000808390E080E0ACCFEF92FF920F931F9357
:1035C000CF93DF937A018C01060F171FC091290456
:1035D000D0912A04209781F021E030E0F801828127
:1035E000938140912B0450912C048417950710F07F
:1035F00030E020E0232B71F482E090E0F70191832A
:1036000080838EEF9FEFDF91CF911F910F91FF90FD
:10361000EF90089543E1489F9001499F300D112498
:10362000C20FD31F94DE882341F082E090E0F701BF
:103630009183808388EF9FEFE6CFF8012481358165
:1036400020383105C8F687818111D6CF4181842F7A
:1036500090E08F7E009741F082E090E0F701918347
:10366000808386EF9FEFCFCF4F833E832D832681CC
:1036700028871986223010F421E0288721E030E0E5
:10368000F70131832083BFCF88E090E0FA01918376
:10369000808390E080E00895FB018FEF808381E1DB
:1036A00081838FEF9FEF9383828380E890E09583FF
:1036B0008483168217820895FB018FEF808391E047
:1036C000918382839383848384E3858381E090E084
:1036D000978386830895DF92EF92FF920F931F9353
:1036E000CF93DF93EA01FC01E60FF71F8181813060
:1036F00071F082E090E0998388838FEF9FEFDF91F4
:10370000CF911F910F91FF90EF90DF9008958281EC
:103710009381D4802581E680F7800091290410915F
:103720002A040115110539F482E090E09983888319
:103730008CEF9FEFE4CF40912B0450912C04841721
:10374000950738F082E090E0998388838EEF9FEFB1
:10375000D6CF892B39F082E090E09983888386EF79
:103760009FEFCDCF8D2D8D7FB1F72130A1F781E077
:10377000D11006C091E0E916F10431F080E004C0F8
:10378000E2E0EE16F104D0F3882329F390E080E024
:10379000DEDD882339F082E090E09983888388EF2A
:1037A0009FEFADCFF801D38681E08487F686E5866A
:1037B000108A178681E090E09983888390E080E00A
:1037C0009ECF4CE050E06FED72E071CA8F929F92F5
:1037D000BF92CF92DF92EF92FF920F931F93CF93FE
:1037E000DF93EA01FC01E60FF71F828193810481D8
:1037F000B580E0912904F0912A04309791F482E099
:1038000090E0998388838CEF9FEFDF91CF911F9198
:103810000F91FF90EF90DF90CF90BF909F908F908F
:10382000089520912B0430912C048217930738F0CF
:1038300082E090E0998388838EEF9FEFE6CF23E1CB
:10384000289F6001299FD00C1124EC0DFD1DE08004
:10385000F180E114F10499F28281081748F78BE0B6
:10386000089F80011124E00EF11EF70180819181F3
:10387000892B29F6BB20E1F2F7E0BF9E400111241D
:10388000C4010E942F28F70191838083E0912904CD
:10389000F0912A04EC0DFD1D0190F081E02DE00F68
:1038A000F11F80819181009739F482E090E0998343
:1038B00088838DEF9FEFA9CFA40170E060E00E94A4
:1038C000FB3B8091290490912A04C80ED91EF60171
:1038D00080819181080F191FF801B28281E090E088
:1038E0009983888390E080E090CFAF92BF92CF928F
:1038F000DF92FF920F931F93CF93DF93EA01FC01B6
:10390000E60FF71F82819381F480009129041091C2
:103910002A040115110581F482E090E099838883DF
:103920008CEF9FEFDF91CF911F910F91FF90DF9070
:10393000CF90BF90AF90089520912B0430912C042C
:103940008217930738F082E090E0998388838EEFA6
:103950009FEFE8CF2FEF2F0D2C3FA8F723E1289FF3
:103960006001299FD00C11240C0D1D1DF8018081D0
:103970009181892B89F6FBE0FF9E50011124C5013E
:103980000E942F28F80191838083E0912904F0910F
:103990002A04EC0DFD1D80819181009739F482E0AD
:1039A00090E0998388838DEF9FEFBCCFA50170E0F5
:1039B00060E00E94FB3BE0912904F0912A04EC0DA9
:1039C000FD1DF28281E090E09983888390E080E0A1
:1039D000A9CFCF92DF92EF92FF920F931F93CF93D5
:1039E000DF93860F971FFC010281138180912904C8
:1039F00090912A04892B81F082E090E0FA01918372
:103A000080838CEF9FEFDF91CF911F910F91FF90FB
:103A1000EF90DF90CF900895C801B0E0A0E001974B
:103A2000A109B1098F3F9F4FA105B10540F082E088
:103A300090E0FA01918380838EEF9FEFE4CF7A01CB
:103A400083E1809F6001819FD00C1124C6010E94F8
:103A50002F28EC01009741F482E090E0F701918378
:103A600080838DEF9FEFCFCFA60170E060E00E94D2
:103A7000FB3BD0932A04C093290410932C04009399
:103A80002B0490E080E02FEF3FEF41E061E070E039
:103A90008017910741F481E090E0F70191838083E2
:103AA00090E080E0B0CF3A8B298B1B864C877E87D5
:103AB0006D87188A1F8601966396EACFCF92DF92B0
:103AC000EF92FF920F931F93CF93DF93EC01D12CD2
:103AD000C12C10E000E0F12CE12C6A8170E00617A7
:103AE0001707BCF0660F771FAE014F5E5F4FC7012F
:103AF0000E949428009721F02FEF3FEF3A8B298BFB
:103B0000DF91CF911F910F91FF90EF90DF90CF90B9
:103B10000895E881F981EC0DFD1D438154818D8567
:103B20009E85489F9001499F300D589F300D11246C
:103B3000C90101960115110519F44F8144FD049640
:103B400061E070E00E94DC26E816F90608F47C01CA
:103B50000F5F1F4F8BE0C80ED11CBFCFF894209190
:103B600027043091280481E02115310509F080E017
:103B7000232B09F0789408952F923F924F925F92F1
:103B80006F927F928F929F92AF92BF92CF92DF926D
:103B9000EF92FF920F931F93CF93DF933C01660E3A
:103BA000771EF301828193814C01B12CA12CC0912D
:103BB0002904D0912A04209769F021E030E0609137
:103BC0002B0470912C048617970710F030E020E04A
:103BD000232BD1F482E090E0FA01918380838EEF71
:103BE0009FEFDF91CF911F910F91FF90EF90DF90AA
:103BF000CF90BF90AF909F908F907F906F905F908D
:103C00004F903F902F90089580926A0290926B029D
:103C1000A0926C02B0926D0263E1689F9001699F6F
:103C2000300D1124C20FD31FF3018181833040F086
:103C300082E090E0FA019183808386EF9FEFD1CFFD
:103C40002A012B813C81232BF1F4288139819F812A
:103C500091FF2EC0232B09F46FC020912E049A816E
:103C6000422F490F5527551FBA0141E050E06138F6
:103C7000710514F050E040E0452B09F45DC02A873F
:103C8000920F90932E048150823008F481C066DF39
:103C9000882309F4D8C0F3018181813009F48DC0F3
:103CA00008F47BC0823009F4C6C090E080E0ADC06B
:103CB000232B09F441C020912D049A81E22FE90FB2
:103CC000FF27FF1F41E050E0ED3FF10514F050E009
:103CD00040E0452B89F12A87920F90932D04D3CF92
:103CE000A081B181A20FB31F11966C91060F111D17
:103CF0000196295F3F4F8417950794F38D859E8524
:103D0000089F1001099F300C189F300C1124C1141A
:103D1000D104D1F48F8184FF17C00E942A27F5E0D7
:103D20002F0E311C21E08215930508F420E0A70135
:103D3000455F5F4F21110EC082E090E0F201918358
:103D4000808387EF9FEF4DCF0E942A272FEF221A03
:103D5000320AE8CF88819981E80EF91EF7011483B1
:103D60000383FFEFCF1ADF0A7A018A818C151D04C5
:103D700009F00CF48CCFE881F981EE0DFF1D428132
:103D800050E030E020E010E000E090E080E0B3CFD1
:103D9000F12CE12CD12CC12CE8CF81E090E09C8368
:103DA0008B83ECDA882309F480CF81E090E00E94D5
:103DB000391680E40E94471678CF89899A8901963E
:103DC00061F083E090E09C838B8382E090E00E942E
:103DD000391680E40E94411668CF8D819E81209122
:103DE00060023091610282179307D1F460916402FE
:103DF00070916502AE014F5E5F4F809162029091BB
:103E000063020E94B3290097E1F2789422E030E047
:103E1000F20131832083892B99F08DEF9FEFE1CE62
:103E200089288A288B2869F6892B59F6CE0146DE27
:103E3000188A1F86E8CF82E090E09C838B8335CF81
:103E400090E080E0CECE82E090E0F201918380832A
:103E500085EF9FEFC6CE8F929F92AF92BF92CF9287
:103E6000DF92EF92FF920F931F93CF93DF93EA01BC
:103E70008C01060F171FF8018181833098F082E0D2
:103E800090E09983888386EF9FEFDF91CF911F9118
:103E90000F91FF90EF90DF90CF90BF90AF909F90E9
:103EA0008F9008958091290490912A04892B61F0C4
:103EB00081E090E020912B0430912C04232B11F40D
:103EC00090E080E0892B39F482E090E09983888348
:103ED0008EEF9FEFDACF42DE882309F4DFC0F801CE
:103EE0008181813009F495C0E8F0823099F4209105
:103EF0002B0430912C04E0912904F0912A0490E0E5
:103F000080E041E050E02817390709F0BDC036DAFB
:103F1000811117C0789481E090E09983888390E0C4
:103F200080E0B3CF20912B0430912C04E091290440
:103F3000F0912A0490E080E041E050E02817390732
:103F400041F481E090E00E94391680E40E94471617
:103F5000E1CF63817481672B11F054834383019611
:103F60007396ECCFE0912904F0912A04E00FF11F41
:103F70002381348122303105D9F4218932892F3FC0
:103F80003F4FB1F42581368140916002509161022A
:103F90002417350761F5AF014F5E5F4F60916402F2
:103FA0007091650280916202909163020E94B32930
:103FB000EFEFCE1ADE0AEE0AFE0A0D5E1F4F4091A9
:103FC0002B0450912C0470E060E0C416D506E60680
:103FD000F7063CF5009731F27894892B09F49BCFD2
:103FE00082E090E0998388838DEF9FEF4ECFC114DC
:103FF000D104E104F104E1F6232BD1F6CF015EDD1B
:10400000E0912904F0912A04E00FF11F108A17862D
:10401000CFCF10E000E090E080E0C12CD12C760101
:10402000CECF0097C9F610E000E0812C912C54010E
:1040300083E0E82EF12C1AC0E0912904F0912A04C3
:10404000E00FF11F83819481029749F4F482E382A7
:1040500082E090E00E94391680E40E944116FFEF52
:104060008F1A9F0AAF0ABF0A0D5E1F4F80912B0463
:1040700090912C04B0E0A0E088169906AA06BB0631
:10408000DCF290E080E0A8CF63817481623071053A
:1040900011F4548343830196739635CF82E090E008
:1040A0009983888385EF9FEFF0CE0097B9F48FEF67
:1040B000FB01808320916A0230916B0243E1429FB1
:1040C000C001439F900D1124E0912904F0912A042E
:1040D000E80FF91F8285FB01818308950C94F21586
:1040E00088E090E0FA019183808390E080E0089579
:1040F0001092280410922704E9E2F4E086E0DF0140
:104100001D928A95E9F781EE9BE1909326048093B6
:1041100025040895809125049091260408952F92F6
:104120003F924F925F926F927F928F929F92AF9247
:10413000BF92CF92DF92EF92FF920F931F93CF9394
:10414000DF93CDB7DEB760970FB6F894DEBF0FBE32
:10415000CDBFF894E0912704F09128043196F093B4
:104160002804E09327047894A0912904B0912A04AC
:10417000BA83A983109709F4FAC1E0912B04F09156
:104180002C04EF2B09F4F3C128874B875C876D87DC
:104190007E879A878987B88BAF87312C212CF12CA9
:1041A000512C412C80912B0490912C042816390617
:1041B00010F4FF2029F1F8948091270490912804AD
:1041C000019790932804809327047894C201609605
:1041D0000FB6F894DEBF0FBECDBFDF91CF911F9118
:1041E0000F91FF90EF90DF90CF90BF90AF909F9096
:1041F0008F907F906F905F904F903F902F90089599
:10420000B10190E080E087D4682EEF85F88987813E
:1042100081FD3DC0838194810397C9F52581368155
:104220003C832B8389859A852817390781F5C1013D
:10423000EFD8782E8823A9F1AF85B8891F968D9184
:104240009C915097019621E01D964D915C918417A9
:10425000950709F020E02F83B12CA12CEF85F88978
:1042600082818A151B0419F014F0FF20E9F0F8850B
:10427000FF2309F46CC1AF85B88950961C921E9239
:104280001F97662021F0B10190E080E046D4FFEF57
:104290002F1A3F0A2F8538892D5E3F4F388B2F8785
:1042A00081CFB1E0BF83D8CFBED49E838D83E88514
:1042B000EE23E9F0772009F43CC1AF85B8891F9659
:1042C0008D919C91892B79F0BBE0BA9DC001BB9D7B
:1042D000900D1124AF85B889ED91FC91E80FF91F7D
:1042E00085819681F5D6BFEFAB1ABB0AB7CF81E0C7
:1042F000772039F0EF85F88927853089232B09F05D
:1043000080E0F82EE12CA114B10439F4AF85B8890E
:104310001796EC90E4FAEE24E0F8BBE0BA9D600159
:10432000BB9DD00C1124882309F424C1AF85B88922
:10433000ED91FC911197EC0DFD1D438154811D966B
:104340002D913C91429FC001439F900D529F900D33
:104350001124E1105DC001969087878361E070E0D1
:104360008781908529D5EF85F88921893289008157
:1043700011810C0D1D1D2F3F320709F44BC0BC01EC
:10438000C9010E94F429D80116969C938E93159723
:10439000AF85B889ED91FC911197EC0DFD1D05815C
:1043A00016810115110509F4CDC0ED81FE810E0FB6
:1043B0001F1F1A968C918A0DD8018C93E1102FC083
:1043C0000F5F1F4FAF85B889ED91FC91EC0DFD1D7E
:1043D00012870187AF85B889ED91FC91EC0DFD1D29
:1043E00085819681892B09F4A4C080916002909107
:1043F00061022B813C812817390709F465C07720B9
:1044000011F001851285912C812C1A8219824AC0E3
:104410000596A2CF24D6F80196838583B9CF8B85E4
:104420009C85AD85BE85F80181839283A383B48387
:104430000B5F1F4FC7CFE080F180E80CF91CD7015C
:1044400013966D917C9114978C918F3F09F473C0F2
:10445000E1E0F0E002C0EE0FFF1F8A95E2F7CF0126
:10446000092E000CAA0BBB0BFB014081518162811C
:10447000738184239523A623B72321E0892B8A2BDC
:104480008B2B09F420E0D8012C93D70111968C9145
:10449000080F111DE981FA813196FA83E983F7E06B
:1044A0008F0E911CAF85B889ED91FC91EC0DFD1D2F
:1044B000828129813A818217130611F00CF0BBCF5B
:1044C000772011F0128701873F81332391F1AF8567
:1044D000B889ED91FC91EC0DFD1D61E070E08781E4
:1044E00090856AD4AF85B889ED91FC91EC0DFD1DE6
:1044F000E780F08445815681E1E0F0E0662011F02C
:10450000F0E0E0E00D811E819C01B1018827992730
:104510008E1B9F0B8BD32C01892B59F0EF85F889CB
:1045200080819181C80ED91ED60115968D919C91DE
:10453000CFD5F12CD8CEF701418150E0C8010E94BF
:10454000F23BA3CF86EF482E55245A94CCCEEF856C
:10455000F889878590890196908B87872585368590
:104560008217930709F08DCE108A17868ACE512CB8
:10457000412C21CE10E000E02DCF2F923F924F92A0
:104580005F926F927F928F929F92AF92BF92CF92E3
:10459000DF92EF92FF920F931F93CF93DF9380915F
:1045A000290490912A0410E000E0892BA9F0D6DAC2
:1045B0000AEF1FEF882381F020902B0430902C0409
:1045C000C0912904D0912A04D12CC12C10E000E024
:1045D0002C143D04A9F47894C801DF91CF911F9168
:1045E0000F91FF90EF90DF90CF90BF90AF909F9092
:1045F0008F907F906F905F904F903F902F90089595
:10460000C6010E94081A882309F18B819C810397B7
:10461000E9F48F859889892BC9F0B60190E080E094
:104620007AD221E030E0882311F030E020E0442409
:104630005524421A530AB12CA12C912C812C8A8129
:104640008815190409F038F4188A1F864FEFC41A28
:10465000D40A6396BDCFE881F981EA0DFB1D8581FF
:104660009681892BA1F161E070E087819085A4D3C8
:104670003C01D9D28C01E881F981EA0DFB1D8185CD
:10468000928525813681200F311FAC01421B530BCF
:104690009A0147815085421B530B70E060E00E94F5
:1046A000FB3BE881F981EA0DFB1DE780F084458141
:1046B00056819301B601C201B9D28C01892B39F020
:1046C000E881F981EA0DFB1D8581968101D55FEFB7
:1046D000851A950A8BE0A80EB11CB1CF3FCA789419
:1046E00008952F923F924F925F926F927F929F9286
:1046F000AF92BF92CF92DF92EF92FF920F931F93F0
:10470000CF93DF9300D000D000D0CDB7DEB70091BB
:10471000290410912A04992493940115110509F490
:104720003EC0A0902B04B0902C0418DA982E882359
:10473000B1F110922A041092290410922C041092C4
:104740002B0410922D0410922E048FEF9FEFDC01AA
:1047500080936A0290936B02A0936C02B0936D02F7
:1047600078947AD31E830D83C12CD12C7601C50198
:10477000B0E0A0E089839A83AB83BC8322242A948F
:10478000322C89819A81AB81BC81C816D906EA0690
:10479000FB06F4F0C8019CD480E40E944716892DE2
:1047A00026960FB6F894DEBF0FBECDBFDF91CF9136
:1047B0001F910F91FF90EF90DF90CF90BF90AF903F
:1047C0009F907F906F905F904F903F902F900895B3
:1047D000AD81BE8115968D919C91169720916002B6
:1047E0003091610282179307D1F451968D919C917B
:1047F000E9D5ED81FE8180819181B12CA12C412CE4
:10480000512C3201892B89F5BFEFCB1ADB0AEB0A59
:10481000FB0AED81FE817396FE83ED83B2CFC11456
:10482000D104E104F10429F7892B19F7ED81FE8108
:10483000818992898F3F980709F024D5AD81BE8187
:1048400052963C922E925197D4CF8A0D9B1DDC013B
:104850008D919C91009709F03BD4BFEF4B1A5B0AF6
:104860006B0A7B0AEBE0AE0EB11CAD81BE818D916F
:104870009C91119712964C9150E070E060E04416C4
:104880005506660677060CF323D4BECFCF93DF938D
:10489000EA0127DF811109C082E090E099838883D3
:1048A00085EF9FEFDF91CF91089581E090E00E9426
:1048B000391681E090E09983888390E080E0F2CF20
:1048C00010DF1092260410922504089542E050E073
:1048D00067E273E00C945716FF920F931F93CF93E8
:1048E000DF938A01EC01C60FD71FF980B4D2089775
:1048F000F816190671F068F082E090E0F8019183F3
:1049000080838EEF9FEFDF91CF911F910F91FF90EA
:1049100008956C817D818E819F814B810E94EE186C
:10492000811108C082E090E0F8019183808384EFD8
:104930009FEFE9CFF9800E94E9184F2D50E0BE01AA
:10494000685F7F4F0E94F23B89810E94581981E085
:1049500090E0F8019183808390E080E0D4CFDF92F3
:10496000EF92FF920F931F93CF93DF938A01EC0195
:10497000C60FD71F0E94E9187C01D9806CD2DD20B8
:1049800059F0029721E030E0D816190619F010F01E
:1049900030E020E0232B79F482E090E0F80191836D
:1049A00080838EEF9FEFDF91CF911F910F91FF904A
:1049B000EF90DF900895EF2841F482E090E0F80155
:1049C0009183808384EF9FEFEECFF9800E94E918F6
:1049D0004F2D50E0BE016E5F7F4F0E94F23B8981F8
:1049E0000E94581981E090E0F8019183808390E063
:1049F00080E0D9CF86E694E29093300480932F0430
:104A0000089580912F049091300408950895FC0139
:104A100011821082938382830895DB011D921C9280
:104A2000DC011296ED91FC911397718360831396CC
:104A30007C936E9312970895FC0180819181DB0134
:104A40008D939C93A081B181109741F08D919C91A1
:104A500091838083892B11F4F383E2830895FC0111
:104A600080819181DB018D939C93892B11F4738359
:104A70006283718360830895FC01118210829383A5
:104A800082830895CF93DF9300D0CDB7DEB71A822B
:104A90001982F894BE016F5F7F4F86E394E0CCDF0C
:104AA00089819A81009709F013D389819A81892B92
:104AB00089F7BE016F5F7F4F8AE394E0BDDF898194
:104AC0009A81009709F004D389819A81892B89F70B
:104AD00078940F900F90DF91CF910895CF93DF934B
:104AE00000D0CDB7DEB71A821982F894BE016F5F8D
:104AF0007F4F82E394E0A0DF89819A81009709F0DB
:104B0000E7D289819A81892B89F778940F900F9049
:104B1000DF91CF91089581E0089590E080E00895BD
:104B2000EF92FF920F931F93CF93DF9300D0CDB7F7
:104B3000DEB71A8219828091310407EF1FEF8823B4
:104B4000A1F1F894BE016F5F7F4F8AE394E074DFB8
:104B5000789489819A81EE24E394F12C892B51F485
:104B6000F894BE016F5F7F4F86E394E065DF789431
:104B7000F12CE12C89819A810EEF1FEF0097A9F0AB
:104B8000FC014281538164E070E072D68C01892B74
:104B900061F0F89469817A81C701880F991F880FA5
:104BA000991F8A5C9B4F5BDF7894C8010F900F9030
:104BB000DF91CF911F910F91FF90EF9008950F9388
:104BC0001F93CF93DF9300D000D0CDB7DEB71C8208
:104BD0001B821A8219828091310407EF1FEF88230C
:104BE000C1F0AE014D5F5F4F64E070E0CE01019611
:104BF000B2D68C01892B69F4E981FA818B819C8181
:104C000093838283F89469817A8182E394E005DF5B
:104C10007894C8010F900F900F900F90DF91CF9173
:104C20001F910F910895B7D7049608958F929F9280
:104C3000AF92BF92CF92DF92EF92FF920F931F93AA
:104C4000CF93DF9300D0CDB7DEB71A821982BC01B3
:104C50006F5F7F4F6330710598F0AA24AA94BA2C35
:104C6000C5010F900F90DF91CF911F910F91FF9091
:104C7000EF90DF90CF90BF90AF909F908F9008956E
:104C80004115510551F3480159018A016C01CBDFEF
:104C90008815990511F7E114F104F9F28E0D9F1DA5
:104CA000A816B906D0F2809131048823F1F0F89467
:104CB000B501645071099701AE014F5F5F4FC801A4
:104CC0000496DED65C01892B71F489819A81F80102
:104CD00093838283C601880F991F880F991FB8019B
:104CE0008A5C9B4F9ADE7894BBCF87EFA82EBB24BB
:104CF000BA94B6CFAF92BF92CF92DF92EF92FF926B
:104D00000F931F93CF93DF9300D0CDB7DEB71A82F6
:104D10001982892B09F047C06115710509F443C058
:104D20004115510509F43FC02115310509F43BC077
:104D300001151105C1F1809131048823B9F1790180
:104D40006A015B01F894BE016F5F7F4F82E394E0DC
:104D500073DE789489819A81009759F1DC0112966B
:104D60006D917C91A8010496A4D68C01E981FA8109
:104D7000D501ED93FC93828193810496F601918392
:104D8000808351DFD7018D939C93C8010F900F90C2
:104D9000DF91CF911F910F91FF90EF90DF90CF9017
:104DA000BF90AF9008950FEF1FEFEFCF07EF1FEF0A
:104DB000ECCF0EEF1FEFE9CFCF93DF93EC01672B22
:104DC00071F4F2D68C179D0760F0E5D62496C80FD3
:104DD000D91FE4D68C0F9D1FDF91CF910895E1D6A6
:104DE000F1CF90E080E0F8CF0F931F93CF93DF9344
:104DF0002091310421112BC08B01EC0186E394E05A
:104E000006DE8AE394E003DE82E394E000DE97D0DE
:104E10000097C1F4C9D670E060E0CEDF4EE652E004
:104E200062E070E081D1009769F480916E02909108
:104E30006F02CCD6B801CE0101D5009719F421E05C
:104E400020933104DF91CF911F910F91089584EF4A
:104E50009FEFF8CFA6C6A8C6CF93DF93A8D6EC01E4
:104E6000892B11F40FDE3ADECE01DF91CF91089548
:104E7000CF93DF939CD6EC01892B09F403DECE019E
:104E8000DF91CF91089580916E0290916F02089505
:104E9000CF93DF9380913104D0E0C0E08823D1F03C
:104EA0009AD6EC01892BB1F4EDDD18DE80916E020B
:104EB00090916F02E7D1E8D2EC01892B59F486E397
:104EC00094E0DADD8AE394E0D7DD82E394E0D4DD98
:104ED00010923104CE01DF91CF910895EF92FF92AD
:104EE0000F931F93CF93DF93EC017A018B010F5F38
:104EF0001F4F0E9DA0010F9D500D1E9D500D1124A2
:104F000070E060E00E94FB3B90E080E0F0E0E0E0D9
:104F10002FEFE816F90639F4DF91CF911F910F9129
:104F2000FF90EF9008951A8219822883309711F02C
:104F3000D283C1830196FE01C00FD11FEACFCF9269
:104F4000DF92EF92FF920F931F93CF93DF930AE5C7
:104F500015E00C7F43E050E060E772E086E792E006
:104F60001AD480E7E82E82E0F82E96E7C92E92E068
:104F7000D92EC9EDD5E0D7014D915D917D01F601A6
:104F8000619171916F01198308835D834C835B8309
:104F90004A837F836E839B012F5F3F4F249FC00115
:104FA000259F900D349F900D1124998788870115B6
:104FB000110511F0C80192DF88859985080F191F26
:104FC0002A96F6E7EF16F2E0FF06A9F6E0E4F4E031
:104FD00087E191E0DF019C011D9221503040E1F713
:104FE00010923F0410923E041092F8051092F705BB
:104FF0001092FC051092FB051092FA051092F9052B
:105000001092FE051092FD05109200061092FF0509
:1050100010920206109201061092060610920506E2
:1050200010920406109203061092080610920706CA
:1050300010920A06109209061092D6051092D50514
:105040001092D8051092D70590E080E0DF91CF91C3
:105050001F910F91FF90EF90DF90CF9008950097F0
:10506000F1F0F894A6E7B2E0E9EDF5E030E020E0F9
:105070004D915D9148175907A8F042815381411520
:10508000510581F08AE0829FF001839FF00D112489
:10509000E752FA4F80819181009759F4789490E01B
:1050A00080E008952F5F3F4F3A962330310501F796
:1050B000F5CFDC0111966D917C9171836083415035
:1050C000510953834283FC012193CF0178940895C1
:1050D000009749F1DC018E91853041F4E091D705CC
:1050E000F091D8053097F9F0CD0109948530D8F4C6
:1050F000282F30E0F8948FEF8C938AE0829FF001A4
:10510000839FF00D1124E752FA4F8081918112960E
:105110009C938E931197B183A08382819381019692
:105120009383828378940895CF92DF92EF92FF92D7
:105130000F931F93CF93DF939C0183E494E08C7FC4
:105140004115510509F49BC02115310509F497C09B
:105150006115710509F493C07A01AB01B9016D5F66
:105160007F4F6C7F9B012F5F3F4F249F8001259FC6
:10517000100D349F100D1124F8942091F7053091F3
:10518000F805232B59F42091FF05309100062115D5
:10519000310569F12017310708F058C02091010648
:1051A00030910206232B91F42091FF0530910006E7
:1051B000820F931F2091090630910A0621153105AF
:1051C00009F441C02017310708F056C07894CFEF9A
:1051D000DFEF86EF9FEFF701D183C083DF91CF919F
:1051E0001F910F91FF90EF90DF90CF900895C3E053
:1051F000D0E0C0903E04D0903F0424E131E02C196F
:105200003D092017310710F32AE02C9FF0012D9F54
:10521000F00D1124E752FA4F918380835583448324
:10522000538342837783668311870087009709F051
:1052300055DE0C0D1D1D10933F0400933E04789421
:1052400090E080E0C8CFC4E0D0E0D3CFC3E0D0E0AE
:105250002AE02C9FF0012D9FF00D1124E752FA4F08
:10526000918380835583448353834283778366830A
:10527000009729F333DEE3CFC4E0D0E0E9CF8FEF2E
:105280009FEFACCF9C010397029708F069C0F89498
:1052900084E09AE0482F50E0241735070CF44DC005
:1052A00091E08AE0829FF001839FF00D1124E75284
:1052B000FA4F118210821582148213821282178291
:1052C00016829923B1F18091F7059091F805892B09
:1052D000A9F42091FF05309100062115310571F0E8
:1052E00080913E0490913F04821B930B90933F0466
:1052F00080933E04109200061092FF0580910106F3
:1053000090910206892BA9F42091090630910A0692
:105310002115310571F080913E0490913F04821B6C
:10532000930B90933F0480933E0410920A061092D0
:105330000906789490E080E00895949FF001959F8D
:10534000F00D1124E752FA4F40815181452B31F481
:1053500040855185452B11F481509CCF90E0A1CF21
:105360008FEF9FEF08954115510549F1009739F1ED
:105370006115710521F1F8942091D5053091D6057C
:10538000232BB9F42091D7053091D805232B89F42C
:105390009093D6058093D5057093D8056093D70573
:1053A000789425E030E090E080E0FA0131832083BA
:1053B000089578942FEF3FEF86EF9FEFF6CF8FEFB2
:1053C0009FEF0895059769F4F8941092D60510920E
:1053D000D5051092D8051092D705789490E080E01A
:1053E00008958FEF9FEF08956115710519F4F0E0AE
:1053F000E0E011C08530910581F4E091D505F09190
:10540000D6053097A1F3CB0101960995009779F362
:10541000FC0185E08193CF0108959C01235031095F
:105420002230310520F72AE0289FD001299FB00DB6
:105430001124A752BA4F2D913C911197232BB9F209
:1054400016962D913C9117972617370780F2F894FE
:1054500012962D913C9113972115310529F0ED916C
:10546000FC911197309711F47894C1CF418152810A
:1054700011965C934E932150310913963C932E93D1
:10548000129781937894C7CFE7E5F5E08EE7DF01C7
:105490001D928A95E9F7E0E4F4E087E191E0DF010D
:1054A0009C011D9221503040E1F710923F04109270
:1054B0003E04E9EDF5E082E3DF011D928A95E9F70C
:1054C000E5EDF5E084E0DF011D928A95E9F790E0D3
:1054D00080E00895CF93DF93C0917C02D0917D024C
:1054E000CF3FDC0759F410D490937D0280937C0267
:1054F00097FF09C0D0937D02C0937C0284EF9FEF99
:10550000DF91CF91089590E080E0FACF823091054D
:1055100028F480930B0690E080E008958FEF9FEFD2
:1055200008954F925F926F927F92AF92BF92CF9207
:10553000DF92EF92FF920F931F93CF93DF9300D0F0
:10554000CDB7DEB71A821982009709F479C06115C8
:10555000710509F475C020917C0230917D0207EF3E
:105560001FEF2F3F3F4F09F445C06B015C01412CF9
:10557000512C3201F12CE12C10E000E09E012F5F54
:105580003F4FA6014E195F09B5016E0D7F1D809139
:105590007C0290917D021CD4892B09F04BC089813B
:1055A0009A81009741F4E114F10429F420910B064B
:1055B000222309F442C0E80EF91EEC14FD04D0F4D5
:1055C00080E8481684E858068EE16806710420F5E4
:1055D00060E070E0CB010E9477382AE0420E511C57
:1055E000611C711C0A3F4FEF140721F0043F8FEF3D
:1055F0001807A1F4C8010F900F90DF91CF911F9170
:105600000F91FF90EF90DF90CF90BF90AF907F9081
:105610006F905F904F90089501EF1FEF81E090E051
:10562000013F2FEF120711F090E080E0892B09F481
:10563000A5CFE0CF04EF1FEFDDCF0AEF1FEFDACFEA
:105640000FEF1FEFD7CF4F925F926F927F92AF9283
:10565000BF92CF92DF92EF92FF920F931F93CF935F
:10566000DF9300D0CDB7DEB71A821982009709F414
:1056700079C06115710509F475C020917C023091E3
:105680007D0207EF1FEF2F3F3F4F09F445C06B012D
:105690005C01412C512C3201F12CE12C10E000E096
:1056A0009E012F5F3F4FA6014E195F09B5016E0D98
:1056B0007F1D80917C0290917D023DD3892B09F062
:1056C0004BC089819A81009741F4E114F10429F4D7
:1056D00020910B06222309F442C0E80EF91EEC14B7
:1056E000FD04D0F480E8481686E9580688E9680683
:1056F000710420F560E070E0CB010E9477382AE069
:10570000420E511C611C711C0E3F4FEF140721F01B
:10571000043F8FEF1807A1F4C8010F900F90DF919D
:10572000CF911F910F91FF90EF90DF90CF90BF909E
:10573000AF907F906F905F904F90089502EF1FEFB2
:1057400081E090E0023F2FEF120711F090E080E03F
:10575000892B09F4A5CFE0CF04EF1FEFDDCF0EEFCB
:105760001FEFDACF0FEF1FEFD7CF80917C02909120
:105770007D028F3F980749F0BED2892B49F48FEF05
:105780009FEF90937D0280937C0290E080E00895EB
:1057900084EF9FEF0895CF92DF92EF92FF920F93E5
:1057A0001F93CF93DF9321E04115510509F020E0CD
:1057B0004150510921112CC0DC01FB01D12CC12C1D
:1057C00021E022C03FEFC31AD30A7D010D911D9144
:1057D000E701EA80FB80E016F106A8F42081318120
:1057E000E280F380F182E08233832283ED90FC90AB
:1057F00011979D0122503109E901F982E882119641
:105800001C930E9320E03296C416D506D8F2D2CF60
:10581000DF91CF911F910F91FF90EF90DF90CF908C
:105820000895FC01680F791F90E080E0E617F70704
:1058300009F408952191820F911DF8CF20910C0653
:10584000211113C047DE009791F4109212061092B6
:1058500011061092100610920F0610920E0610926A
:105860000D0621E020930C06089584EF9FEF089524
:10587000AF92BF92CF92DF92EF92FF920F931F935E
:10588000CF93DF93009709F460C04630510508F4C8
:105890005CC020910C06C7EFDFEF222309F449C05A
:1058A0008C01060F171FF801C080D180C114D104EC
:1058B00009F44EC096012A5F3F4F4217530708F480
:1058C00047C07C01809111069091120693838283D8
:1058D000B6016C5F7F4F5801A60EB71EC801A1DF4D
:1058E000F5019183808364E070E0C8011ADEEC0169
:1058F000892BF9F481E090E009DEB601C801049635
:1059000010DEEC01892B91F462E070E0C50109DE44
:10591000EC01892B59F4C701DBDB809111069091D2
:1059200012060196909312068093110690E080E093
:10593000EDDDCE01DF91CF911F910F91FF90EF90A0
:10594000DF90CF90BF90AF900895CFEFDFEFF1CF12
:10595000C9EFDFEFEECF6F927F928F929F92AF925F
:10596000BF92CF92DF92EF92FF920F931F93CF934C
:10597000DF9300D000D0CDB7DEB7009709F47AC02E
:105980004115510509F476C020910C0607EF1FEF71
:10599000222309F44DC03A017B015C0164E070E010
:1059A000CE01019650DE8C01892B09F041C009819E
:1059B0001A810115110509F45AC0480186E0880EC4
:1059C000911CB701680D791D80917E0290917F0234
:1059D0000BDD6C01009709F450C0A70170E060E096
:1059E0000E94FB3B89819A81AB81BC81EC0CFD1C40
:1059F000F70181939193A193B1937F0181E090E0AE
:105A000085DDB801C7011FDE892B31F562E070E04A
:105A1000C701800F911F17DE8C01892BE9F490E0FC
:105A200080E074DDF501D182C082F3019182808231
:105A3000C8010F900F900F900F90DF91CF911F91A1
:105A40000F91FF90EF90DF90CF90BF90AF909F901D
:105A50008F907F906F90089590E080E057DDF50182
:105A600011821082F30111821082C60131DB09EF2D
:105A70001FEFDECF0FEF1FEFDBCF06EF1FEFD8CF0B
:105A80000097A1F04115510589F02115310571F0FC
:105A9000F90136966E177F0748F0DC012D933C9391
:105AA000DA01ED93FC9390E080E008958FEF9FEF93
:105AB0000895AF92BF92CF92DF92EF92FF920F9331
:105AC0001F93CF93DF93009709F45FC041155105F1
:105AD00009F45BC06530710508F457C020910C06CD
