:1000000024C1000053C1000051C100004FC10000D5
:100010004DC100004BC1000049C1000047C10000B4
:1000200045C1000043C1000041C100003FC10000C4
:100030003DC100003BC1000039C1000037C10000D4
:1000400035C1000033C1000031C100002FC10000E4
:100050002DC100002BC1000029C100000C94B74540
:1000600025C100000C948B490C94C1491FC10000AC
:100070001DC100001BC1000019C1000017C1000014
:1000800015C1000013C1000011C100000FC1000024
:100090000C94174A0C944D4A09C100000C949644E4
:1000A00005C1000003C1000001C10000FFC0000045
:1000B000FDC00000FBC00000F9C00000F7C0000058
:1000C000F5C00000F3C000000C94213B0C94A34A3F
:1000D0000C94D94AEBC000000C942F4B0C94654B48
:1000E000E5C0000005A84CCDB2D44EB93836A902FF
:1000F0000C50B9918688083CA6AAAA2ABE00000026
:10010000803F028988083EABAAAAAABE00000080F0
:100110003F07634236B79BD8A71A39685618AEBA5C
:10012000AB558C1D3CB7CC5763BD6DEDFD753EF6F0
:10013000177231BF000000803F0000000A0B020967
:100140000C0D0E0807030401000000000000000071
:10015000000000000000000000000000000000009F
:10016000000000000000121110000000000000005C
:10017000000000000000000000000000000000007F
:1001800001021020200808102040102040800201A9
:10019000020108040201010204081020408080408E
:1001A000201008040201800402018040201008048D
:1001B000020108040201010204081020408001022B
:1001C00004081020408005050505070508080808F3
:1001D000020202020A0A08080404040401010101DF
:1001E00001010101030303030303030304070707DA
:1001F0000C0C0C0C0C0C0C0C02020202060606067F
:10020000060606060B0B0B0B0B0B0B0B000022005C
:10021000250028002B002E003100340002010000D0
:10022000050108010B0100002100240027002A001D
:100230002D003000330001010000040107010A0114
:100240000142EA49764A024B8E4B11241FBECFEF82
:10025000D1E2DEBFCDBF00E00CBF15E0A0E0B2E010
:10026000ECE7F8E900E00BBF02C007900D92A4395B
:10027000B107D9F72FE0A4E9B5E001C01D92A8317C
:10028000B207E1F711E0C5E2D1E000E006C0219736
:100290000109802FFE010E940B4CC032D10780E083
:1002A0000807A9F70E94143C0C943C4CA9CECF92AD
:1002B000DF92EF92FF926B017C01C114D104E10443
:1002C000F10469F480910002811109C08091020259
:1002D000909103020E94724181E080930002C60166
:1002E000880F991F880F991F80509E4FFF90EF90A5
:1002F000DF90CF900895009781F0FC0121812111BA
:1003000004C040EA56E861E070E0FC01828193811C
:100310000E94814190E080E0089588E090E0089597
:100320004F925F926F927F928F929F92AF92BF9205
:10033000CF92DF92EF92FF920F931F93CF93DF93B1
:100340000097C9F1280139017A01EC01402F8A8117
:100350009B810E94FF418A819B81DC01ED91FC9190
:100360000084F185E02D1995892B01F16701812C1D
:10037000912C54018A819B81DC01ED91FC910084D8
:10038000F185E02D1995892B91F184149504A6042B
:10039000B70469F18A819B81DC01ED91FC910284B3
:1003A000F385E02D19958F3F9807C1F484E0F7019C
:1003B00011928A95E9F788E090E0DF91CF911F9143
:1003C0000F91FF90EF90DF90CF90BF90AF909F90F4
:1003D0008F907F906F905F904F900895FFEF8F1AEE
:1003E0009F0AAF0ABF0AD6018D936D01C3CF90E07B
:1003F00080E0E3CF8F929F92AF92BF92CF92DF9235
:10040000EF920F931F93CF93DF930097F1F06A0160
:10041000EC018A819B810E9484418A819B81DC015D
:10042000ED91FC910280F381E02DA801B6011995B0
:100430008A819B8160E0E11001C061E00E948E41F1
:10044000882389F08250823088F088E090E0DF9144
:10045000CF911F910F91EF90DF90CF90BF90AF9011
:100460009F908F90089590E080E0F1CF84E090E03D
:10047000EECF0895611102C00C94F8476130E1F3AA
:1004800062E0FACF662319F061E00C94344860E032
:10049000FCCFCF92DF92EF92FF92CF93882351F15E
:1004A0006A017B01CFEFC80F20E030E0A901CB014A
:1004B000B6010E941D3D87FF11C0C701B6019058CB
:1004C0000E94913D9B01AC016C2F70E090E080E0B8
:1004D000CF91FF90EF90DF90CF90B2C0C701B601EF
:1004E0000E948C3D8C2FCF91FF90EF90DF90CF90AA
:1004F0000C94BE46CF91FF90EF90DF90CF9008957F
:100500000F931F938B019C0183E0369527951795D8
:1005100007958A95D1F70C561A4F462F477021E060
:1005200030E0F90102C0EE0FFF1F4A95E2F7AF017C
:10053000F80120812423CB010196211102C090E013
:1005400080E01F910F9108950F931F938B019C01E1
:1005500083E036952795179507958A95D1F76770AB
:1005600081E090E001C0880F6A95EAF7F801EC5647
:10057000FA4F2081452B31F48095822380831F918F
:100580000F910895822BFACF2F923F924F925F9254
:100590006F927F928F929F92AF92BF92CF92DF9293
:1005A000EF92FF920F931F93CF93DF93D62EC72E18
:1005B000782E692E49015A01280161E08D2D0E9493
:1005C000F847CD2DDC2D8E010F5F1F4FA8016D2D3B
:1005D0007C2D872D962DB8DF20E030E0A901C201E7
:1005E000B7010E94493F181664F4C201B7010E9486
:1005F000913D2B01C501B4010E94913DA201CE01A4
:1006000023D0C801DF91CF911F910F91FF90EF9000
:10061000DF90CF90BF90AF909F908F907F906F9022
:100620005F904F903F902F900895882341F0815024
:10063000682F70E090E080E050E040E085CF0895C2
:10064000862FB9010C94BE469C01FC01E65CFE4F6E
:10065000E491E150E231E0F4F0E08827ED5CFC4FFA
:100660008F4F0C940B4C45034C034F0366037B03E5
:10067000480390039C03A003B703CC03E103F803F2
:100680000D044803220439044E0484B5806884BDF7
:1006900060E0822F0C94344884B58062F8CF80915A
:1006A00080008C7F82608093800080918100807EBA
:1006B0008061682B6093810050938700409386008F
:1006C00080918000806880938000E2CF80918000DC
:1006D0008C7F82608093800080918100807E806129
:1006E000682B60938100509387004093860080912F
:1006F00080008062E8CF809180008C7F8260809350
:10070000800080918100807E8061682B60938100F1
:100710005093870040938600809180008860D3CFFB
:100720008091B00080688093B0008091B100887F94
:10073000682B6093B100ACCF8091B0008062F3CFA2
:10074000809190008C7F82608093900080919100D6
:10075000807E8061682B6093910050939700409356
:1007600096008091900080688093900091CF809156
:1007700090008C7F82608093900080919100807EB9
:100780008061682B6093910050939700409396008E
:10079000809190008062E8CF809190008C7F826091
:1007A0008093900080919100807E8061682B60939F
:1007B000910050939700409396008091900088603C
:1007C000D3CF8091A0008C7F82608093A000809125
:1007D000A100807E8061682B6093A1005093A700E8
:1007E0004093A6008091A00080688093A00050CF25
:1007F0008091A0008C7F82608093A0008091A100F6
:10080000807E8061682B6093A1005093A700409385
:10081000A6008091A0008062E8CF8091A0008C7F2C
:1008200082608093A0008091A100807E8061682B0F
:100830006093A1005093A7004093A6008091A00070
:100840008860D3CF809120018C7F826080932001CB
:1008500080912101807E8061682B609321015093FB
:100860002701409326018091200180688093200118
:100870000FCF809120018C7F826080932001809136
:100880002101807E8061682B6093210150932701B4
:1008900040932601809120018062E8CF8091200161
:1008A0008C7F82608093200180912101807E806115
:1008B000682B60932101509327014093260180917A
:1008C00020018860D3CF90E080E008950F931F93BC
:1008D000009709F489C06115710509F485C000917C
:1008E000B3041091B4042091B5043091B6040E3FC6
:1008F0001F4F2F4F3F4F09F068C04FEF5FEFBA0116
:100900004093B3045093B4046093B5047093B60459
:100910004091B3045091B4046091B5047091B60451
:10092000DC011296ED91FC9180819181A281B381CD
:100930008093B9069093BA06A093BB06B093BC0609
:1009400084819581A681B7818093B5069093B60680
:10095000A093B706B093B80680859185A285B3852C
:100960008093B1069093B206A093B306B093B406F9
:1009700084859585A685B7858093AD069093AE0650
:10098000A093AF06B093B0061092A9061092AA06E3
:100990001092AB061092AC060E940C1F81E39FE1FF
:1009A00090939E0580939D059093A00580939F054D
:1009B0000E94FB1D009731F421E030E03093BE0629
:1009C0002093BD061F910F9108950091B3041091DB
:1009D000B4042091B5043091B604DB010D931D934E
:1009E0002D933C93139794CF8FEF9FEFEBCF8F9284
:1009F0009F92AF92BF92CF92DF92EF92FF921F939E
:100A0000CF93DF934B015C011091C00682E090E030
:100A10009093BE068093BD0681149104A104B10495
:100A200041F48091C006811104C08091BF06C1E0ED
:100A30008111C0E0C12CD12C76018091C0068111BA
:100A400006C08091BF06811102C0CC23D9F083E09B
:100A500090E09093BE068093BD06CC2381F1CCE953
:100A6000DFEF111102C00E949622CE01DF91CF91DB
:100A70001F91FF90EF90DF90CF90BF90AF909F902D
:100A80008F9008956AE070E080E090E00E94264632
:100A900080E1C80E87E2D81EE11CF11C8FEF88169A
:100AA0009806A806B80631F0C1E08C149D04AE0487
:100AB000BF0408F0C0E080E00E942F1EBECFD0E04F
:100AC000C0E0CFCFCF92DF92EF92FF920F931F93B0
:100AD000CF93DF938F3F910511F008F051C0209123
:100AE000BD063091BE062330310539F02091BD0698
:100AF0003091BE062130310531F424E030E03093EE
:100B0000BE062093BD066A017B01EC01823091058F
:100B1000A8F011E0AE01C701B6010E94FA1DAB01B9
:100B2000BC01CE011123F9F0DF91CF911F910F91FC
:100B3000FF90EF90DF90CF900C94BF248C01000FBA
:100B4000111F03561A4FD8018D919C91892B09F3DF
:100B50000E94C9240297E9F6D801ED91FC91CE01DB
:100B60001995182FD7CF0E94E12490E080E0DF9103
:100B7000CF911F910F91FF90EF90DF90CF9008954C
:100B80008FEF9FEFF4CF80E00C942F1ECF93DF9375
:100B900086E090E09093BE068093BD060E94881E7A
:100BA000EC01EDE9F5E084E0DF011D928A95E9F7BB
:100BB0000E942E221092BE061092BD06CE01DF9139
:100BC000CF9108958091BF0608958091A806089559
:100BD0006093B3047093B4048093B5049093B60407
:100BE00090E080E00895CF92DF92EF92FF926B0148
:100BF0007C019F7720E030E040E859E50E941D3DF0
:100C000087FF2BC020E030E040E05FE3C701B60182
:100C10000E94493F87FD0EC020E030E040E05FE3E6
:100C2000C701B6010E94A63CFF90EF90DF90CF90E5
:100C30000C94FA3D20E030E040E05FEBC701B601E4
:100C40000E94493F181684F420E030E0A901C70152
:100C5000B6010E944D3F6B017C01C701B601FF90B8
:100C6000EF90DF90CF90089520E030E040E05FE328
:100C7000C701B6010E94A53CFF90EF90DF90CF9096
:100C80000C940A3D4F925F926F927F928F929F9247
:100C9000AF92BF92CF92DF92EF92FF920F931F938A
:100CA000CF93DF93CDB7DEB7A5970FB6F894DEBF2D
:100CB0000FBECDBF8091F80E8150823008F42EC354
:100CC00080E08093F80E8091F70E8150823008F416
:100CD00027C380E08093F70E8091F60E815082301A
:100CE00008F420C380E08093F60E8091F50E8150C9
:100CF000823008F419C380E08093F50E8091F40EE1
:100D00008150823008F412C380E08093F40E809109
:100D1000F30E8150823008F40BC380E08093F30E11
:100D20008091F20E8150823008F404C380E08093F9
:100D3000F20EC0904002D0904102E0904202F0904A
:100D40004302A70196016091690E70916A0E80912D
:100D50006B0E90916C0E0E941D3D882341F0C09255
:100D6000690ED0926A0EE0926B0EF0926C0E8CE0DF
:100D70008987C12CEE24E39401E010E020E030E00C
:100D8000AE01475F5F4F66E370E080915F0E909128
:100D9000600E30DB89878111CFC2CC24C394E12C53
:100DA00004E010E020E030E0AE014F5F5F4F66E30B
:100DB00070E080915F0E9091600EB2DA84E0FE01E7
:100DC0003196DE01159601900D928A95E1F78D819D
:100DD0009E819D838E838F8198859F8388872091B4
:100DE0008D0E30918E0E40918F0E5091900E60912D
:100DF0000C0470910D0480910E0490910F040E94D8
:100E00004D3F6AA37BA38CA39DA32091AC0430919A
:100E1000AD04AF81B8850E94134C6B017C01C09278
:100E2000550ED092560EE092570EF092580E81E079
:100E300090E040913C0250913D0260913E027091E1
:100E40003F02C416D506E606F70610F090E080E0F3
:100E50002091B204289FB001299F700D1124072E04
:100E6000000C880B990B0E94BF3D9B01AC010E94B6
:100E7000A63C4B015C01C701B6010E94BD3D20E0CC
:100E800030E040E056E30E944D3F9B01AC01C501BC
:100E9000B4010E94A63C20911004309111044091AD
:100EA0001204509113040E94A53C20911404309127
:100EB000150440911604509117040E944D3F6A8713
:100EC0007B878C879D8760930D0E70930E0E8093A9
:100ED0000F0E9093100E2091180430911904409138
:100EE0001A0450911B040E944D3F6B017C01C0927B
:100EF000110ED092120EE092130EF092140E809109
:100F0000910E9091920EA091930EB091940E8E87B7
:100F10009F87A88BB98B4090950E5090960E60904D
:100F2000970E7090980E20913C0430913D044091B2
:100F30003E0450913F04BC01CD010E944D3F4B0146
:100F40005C01209140043091410440914204509151
:100F50004304C301B2010E944D3F9B01AC01C50196
:100F6000B4010E94A63C4B015C0120914C043091DD
:100F70004D0440914E0450914F046AA17BA18CA175
:100F80009DA10E944D3F6A8B7B8B8C8B9D8B20910A
:100F90005004309151044091520450915304C701C0
:100FA000B6010E944D3F9B01AC016A897B898C8907
:100FB0009D890E94A63C9B01AC01C501B4010E9421
:100FC000A63C6093050E7093060E8093070E9093D7
:100FD000080E2091440430914504409146045091FC
:100FE00047046E857F85888999890E944D3F4B0112
:100FF0005C01209148043091490440914A04509189
:101000004B04C301B2010E944D3F9B01AC01C501DD
:10101000B4010E94A63C4B015C0120915404309124
:10102000550440915604509157046AA17BA18CA1AC
:101030009DA10E944D3F2B013C012091580430910D
:10104000590440915A0450915B04C701B6010E94B3
:101050004D3F9B01AC01C301B2010E94A63C9B0124
:10106000AC01C501B4010E94A63C6093090E7093C7
:101070000A0E80930B0E90930C0E6093150E7093D6
:10108000160E8093170E9093180EE0918206F09141
:101090008306C080D180E280F38020916404309187
:1010A00065044091660450916704C701B6010E942F
:1010B0001D3D87FF44C18091680490916904A0910F
:1010C0006A04B0916B048093450E9093460EA093F2
:1010D000470EB093480E20917004309171044091F6
:1010E000720450917304C701B6010E941D3D87FF31
:1010F0002FC18091740490917504A0917604B091F1
:1011000077048093490E90934A0EA0934B0EB093B0
:101110004C0E20917C0430917D0440917E045091CE
:101120007F04C701B6010E941D3D87FF1AC180914F
:10113000800490918104A0918204B09183048093F3
:101140003D0E90933E0EA0933F0EB093400E209123
:1011500088043091890440918A0450918B04C7011E
:10116000B6010E941D3D87FF05C180918C049091BE
:101170008D04A0918E04B0918F048093410E9093C2
:10118000420EA093430EB093440E20913D0E309139
:101190003E0E40913F0E5091400E6091490E70916D
:1011A0004A0E80914B0E90914C0E0E94A63C2091CD
:1011B000410E3091420E4091430E5091440E0E94D8
:1011C000A63C2091450E3091460E4091470E50911D
:1011D000480E0E944D3F6B017C01C092190ED092C7
:1011E0001A0EE0921B0EF0921C0E20E030E0A901D6
:1011F0006091940470919504809196049091970465
:101200000E941D3D882309F4BEC0C0921D0ED092DD
:101210001E0EE0921F0EF092200E2A853B854C8513
:101220005D8560911D0E70911E0E80911F0E909134
:10123000200E0E94A53C6093210E7093220E809395
:10124000230E9093240E8FEF8093F10EC0906004D4
:10125000D0906104E0906204F090630420E030E0FC
:10126000A901C701B6010E941D3D87FF9DC0C701AE
:10127000B6010E940A3D6093410E7093420E809326
:10128000430E9093440E6091410E7091420E8091F6
:10129000430E9091440E0E94F71C882309F489C0E4
:1012A0001092410E1092420E1092430E1092440E74
:1012B000C090410ED090420EE090430EF090440E4C
:1012C00020E030E0A901C701B6010E941D3D87FF63
:1012D00093C0C701B60190580E94913D90958095AA
:1012E000709561957F4F8F4F9F4FDC01CB01019728
:1012F000A109B10987309105A105B10508F083C0A6
:10130000FC018827E957F64F8F4F0C940B4C010ACC
:10131000180A1C0A1E0A200A220A240A83E0D1CCD9
:1013200083E0D8CC83E0DFCC83E0E6CC83E0EDCC77
:1013300083E0F4CC83E0FBCC18861F8250CD8091F3
:101340006C0490916D04A0916E04B0916F04BBCEBB
:101350008091780490917904A0917A04B0917B04F3
:10136000D0CE8091840490918504A0918604B091A0
:101370008704E5CE8091900490919104A09192040D
:10138000B0919304FACE8091980490919904A09121
:101390009A04B0919B0480931D0E90931E0EA0930F
:1013A0001F0EB093200E39CFC701B6010E94FA3D3F
:1013B00062CF6091410E7091420E8091430E9091E8
:1013C000440E0E94B21C81116BCF6091410E70914E
:1013D000420E8091430E9091440E20E030E040E8B0
:1013E0005FE40E94143E6093410E7093420E80931E
:1013F000430E9093440E5CCFC701B6010E94913D0D
:1014000074CF1092F10EE091F10EE73008F06EC249
:101410000E2E000CFF0B8827EF5EF54F8F4F0C94BC
:101420000B4C260A360F2510B2124C136B14C9163A
:1014300081E08093F10EE7CF82E0FBCF83E0F9CF2C
:1014400084E0F7CF85E0F5CF86E0F3CF60917706B3
:10145000709178068091790690917A060E94BD3D40
:1014600020E030E040E85FE40E944D3F6B017C01EA
:10147000609173067091740680917506909176065E
:101480000E94BD3D9B01AC01C701B6010E94A63C74
:101490002AE037ED43E25BE30E944D3F20914C028E
:1014A00030914D0240914E0250914F020E941D3DDD
:1014B00087FFC9C08091500290915102A0915202C1
:1014C000B09153028093410E9093420EA093430E2D
:1014D000B093440E2091210E3091220E4091230EA4
:1014E0005091240E6091410E7091420E8091430EF6
:1014F0009091440E0E944D3F209158023091590224
:1015000040915A0250915B020E944D3F6B017C0159
:1015100020910C0230910D0240910E0250910F0269
:101520000E944D3F6E877F87888B998B6093410E19
:101530007093420E8093430E9093440E20910402C8
:10154000309105024091060250910702C701B60191
:101550000E944D3F209160023091610240916202F1
:10156000509163020E944D3F6A877B878C879D87DD
:101570006093450E7093460E8093470E9093480EED
:101580008091D50E9091D60EA091D70EB091D80E25
:101590008A8B9B8BAC8BBD8B20911C0230911D02E2
:1015A00040911E0250911F02C701B6010E944D3F9B
:1015B0002A893B894C895D890E94A63C6B017C018C
:1015C0002091D90E3091DA0E4091DB0E5091DC0E55
:1015D0006A857B858C859D850E94A53C9B01AC011D
:1015E000C701B6010E94A63C6B017C01C0923D0E72
:1015F000D0923E0EE0923F0EF092400E8090240278
:1016000090902502A0902602B0902702A501940197
:101610000E94493F181604F5A5019401C701B601BF
:101620000E94A53C6093490E70934A0E80934B0E26
:1016300090934C0E80923D0E90923E0EA0923F0EE3
:10164000B092400E29C08091540290915502A09111
:101650005602B091570236CF80901802909019022E
:10166000A0901A02B0901B02A5019401C701B60117
:101670000E94493F87FDFBC01092490E10924A0E0E
:1016800010924B0E10924C0EA5019401C701B601A9
:101690000E941D3D87FDCECF8090DD0E9090DE0E26
:1016A000A090DF0EB090E00E209170023091710298
:1016B0004091720250917302C501B4010E944D3FE6
:1016C0009B01AC0160913D0E70913E0E80913F0EEA
:1016D0009091400E0E94A53C20916C0230916D02C9
:1016E00040916E0250916F020E94243D6B017C017B
:1016F000C0923D0ED0923E0EE0923F0EF092400E10
:101700002091640230916502409166025091670217
:101710000E944D3F2B013C012091680230916902EB
:1017200040916A0250916B02C501B4010E944D3F85
:101730009B01AC01C301B2010E94A63C209178023A
:101740003091790240917A0250917B020E944D3F84
:10175000209128023091290240912A0250912B02B7
:101760000E94A63C6093250E7093260E8093270E50
:101770009093280E4090490E50904A0E60904B0E68
:1017800070904C0E8090480290904902A0904A02BE
:10179000B0904B02A5019401C301B2010E94493FE0
:1017A0000091AE04181614F00091AF04A501940145
:1017B0006E857F85888999890E94493F1091B00480
:1017C000181614F01091B104A5019401C301B201DF
:1017D0000E941D3D882391F0011310C080914402A6
:1017E00090914502A0914602B09147028093410E2C
:1017F0009093420EA093430EB093440E2091410E5D
:101800003091420E4091430E5091440E60915C0223
:1018100070915D0280915E0290915F020E944D3F47
:101820002A893B894C895D890E94A63C4B015C0159
:101830008092D50E9092D60EA092D70EB092D80E6E
:10184000409020025090210260902202709023026A
:10185000A30192010E94493F87FD18C04092D50E16
:101860005092D60E6092D70E7092D80E1FC0A5016E
:101870009401C701B6010E94A53C6093490E709384
:101880004A0E80934B0E90934C0EFECE4090140265
:10189000509015026090160270901702A3019201F9
:1018A000C501B4010E941D3D1816C4F68A859B85AA
:1018B000AC85BD858093D90E9093DA0EA093DB0E94
:1018C000B093DC0EC092DD0ED092DE0EE092DF0E01
:1018D000F092E00E8091F80E882309F4C4C28330A0
:1018E00009F0BDC281E090E08093F80E67E070E0FF
:1018F00080E090E00E9480028C0190938C0E809397
:101900008B0E2091250E3091260E4091270E50917E
:10191000280E6091A0047091A1048091A20490917E
:10192000A3040E944D3F6B017C0120E030E04FE7B3
:1019300053E40E941D3D181614F40C946319C092D0
:10194000410ED092420EE092430EF092440E20E0FF
:1019500030E0A9016091410E7091420E8091430EDA
:101960009091440E0E94493F87FF08C01092410E9B
:101970001092420E1092430E1092440E4091410E6E
:101980005091420E6091430E7091440EC8010E9426
:1019900049026091A4047091A5048091A6049091DD
:1019A000A70421D96B017C01C092410ED092420E56
:1019B000E092430EF092440E20E030E040E853E421
:1019C0000E941D3D87FD02C00C94741920E030E098
:1019D000A901C701B6010E94493F87FF02C00C94CC
:1019E0007119C701B6010E94913D698769858BE035
:1019F0000E944202C090410ED090420EE090430EF1
:101A0000F090440E20E030E040E853E4C701B60116
:101A10000E941D3D87FD02C00C947B1920E030E040
:101A2000A901C701B6010E94493F87FF02C00C947B
:101A30007819C701B6010E94913D698769858CE0DC
:101A40000E9442026091A8047091A9048091AA04A6
:101A50009091AB04C8D86B017C01C092410ED0922A
:101A6000420EE092430EF092440E20E030E040E857
:101A700053E40E941D3D87FD02C00C94821920E0B2
:101A800030E0A901C701B6010E94493F87FF02C0AB
:101A90000C947F19C701B6010E94913D6987698541
:101AA00086E00E9442028091250E9091260EA09120
:101AB000270EB091280E80938D0E90938E0EA093DA
:101AC0008F0EB093900EC090910ED090920EE09039
:101AD000930EF090940E4090950E5090960E60905C
:101AE000970E7090980E8091110E9091120EA09109
:101AF000130EB091140E8A879B87AC87BD87209107
:101B00002404309125044091260450912704C701F4
:101B1000B6010E944D3F4B015C0120912804309199
:101B2000290440912A0450912B04C301B2010E9460
:101B30004D3F9B01AC01C501B4010E94A63C4B0185
:101B40005C01209134043091350440913604509169
:101B500037046AA17BA18CA19DA10E944D3F6E8795
:101B60007F87888B998B209138043091390440917C
:101B70003A0450913B046A857B858C859D850E9443
:101B80004D3F9B01AC016E857F85888999890E94B4
:101B9000A63C9B01AC01C501B4010E94A63C4B01CF
:101BA0005C0120911C0430911D0440911E04509151
:101BB0001F04C701B6010E944D3F6B017C012091BB
:101BC0002004309121044091220450912304C30148
:101BD000B2010E944D3F9B01AC01C701B6010E94BA
:101BE000A63C6B017C0120912C0430912D04409186
:101BF0002E0450912F046AA17BA18CA19DA10E946B
:101C00004D3F2B013C012091300430913104409133
:101C10003204509133046A857B858C859D850E94B2
:101C20004D3F9B01AC01C301B2010E94A63C9B0148
:101C3000AC01C701B6010E94A63C6093910E70935F
:101C4000920E8093930E9093940E8092950E9092A4
:101C5000960EA092970EB092980E60916B067091BE
:101C60006C0680916D0690916E060E94BD3D20E04D
:101C700030E040E85FE40E944D3F6B017C016091E1
:101C80006706709168068091690690916A060E94C5
:101C9000BD3D9B01AC01C701B6010E94A63C20E0FE
:101CA00030E0A9010E94A63C0E94913DAB01BC011D
:101CB00090E080E00E94620560917706709178065E
:101CC0008091790690917A060E94BD3D20E030E037
:101CD00040E85FE40E944D3F6B017C016091730618
:101CE0007091740680917506909176060E94BD3DB4
:101CF0009B01AC01C701B6010E94A63C20E030E088
:101D0000A9010E94A63C0E94913DAB01BC0181E06B
:101D100090E00E946205C0906706D0906806E0904F
:101D20006906F0906A069FEFC91AD90AE90AF90A0A
:101D3000C0926706D0926806E0926906F0926A0641
:101D4000C114D104E104F10499F480916B069091DF
:101D50006C06A0916D06B0916E060196A11DB11D95
:101D600080936B0690936C06A0936D06B0936E06FD
:101D700080906F0690907006A0907106B0907206E9
:101D8000009182061091830660916B0670916C063B
:101D900080916D0690916E060E94BD3DA501940153
:101DA0000E944D3F20E030E040E85FE40E944D3F5C
:101DB0002B013C01C701B6010E94BD3DA501940164
:101DC0000E944D3F9B01AC01C301B2010E94A63CA1
:101DD000D8016D937D938D939C9313978091730697
:101DE00090917406A0917506B09176060196A11D9A
:101DF000B11D8093730690937406A0937506B093FB
:101E00007606892B8A2B8B2B99F4809177069091FB
:101E10007806A0917906B0917A060196A11DB11DB0
:101E20008093770690937806A0937906B0937A060C
:101E3000A5960FB6F894DEBF0FBECDBFDF91CF9150
:101E40001F910F91FF90EF90DF90CF90BF90AF90D8
:101E50009F908F907F906F905F904F900895082E85
:101E6000000C990B41CD82E090E03ECDC090D10EA8
:101E7000D090D20EE090D30EF090D40E80908002DD
:101E800090908102A0908202B0908302A5019401FB
:101E9000C701B6010E94493F18160CF08EC080920F
:101EA000250E9092260EA092270EB092280E209119
:101EB000210E3091220E4091230E5091240E6091FC
:101EC00088027091890280918A0290918B020E940F
:101ED0004D3F6093390E70933A0E80933B0E909372
:101EE0003C0E20918C0230918D0240918E025091D7
:101EF0008F020E944D3F2091150E3091160E409199
:101F0000170E5091180E0E94A63C2091900230911D
:101F1000910240919202509193020E944D3F609332
:101F2000410E7093420E8093430E9093440E0E9494
:101F3000F71C882309F45AC080910A0F90910B0F67
:101F4000A0910C0FB0910D0F8093410E9093420E13
:101F5000A093430EB093440E2091410E3091420E57
:101F60004091430E5091440E6091940270919502FD
:101F700080919602909197020E944D3F2091980285
:101F80003091990240919A0250919B020E94A63C86
:101F90006093D10E7093D20E8093D30E9093D40E93
:101FA0008091F70E882309F44DC0833009F046C0B4
:101FB00081E090E08093F70E99CC8090840290901D
:101FC0008502A0908602B0908702A5019401C70106
:101FD000B6010E941D3D87FD62CFC092250ED092B2
:101FE000260EE092270EF092280E61CFC090410E8F
:101FF000D090420EE090430EF090440E20E030E08E
:10200000A901C701B6010E941D3D87FF05C080E000
:1020100090E0A0E8BFEB98CF20E030E0A901C70135
:10202000B6010E94493F18162CF480E090E0A0E829
:10203000BFE38ACF80E090E0DC0186CF082E000C61
:10204000990BB8CF82E090E0B5CF609177067091A0
:1020500078068091790690917A060E94BD3D20E035
:1020600030E040E85FE40E944D3F6B017C016091ED
:1020700073067091740680917506909176060E94A1
:10208000BD3D9B01AC01C701B6010E94A63C2AE000
:1020900037ED43E25BE30E944D3F20919C0230917B
:1020A0009D0240919E0250919F020E941D3D87FF1C
:1020B00049C26091A0027091A1028091A202909108
:1020C000A3022091210E3091220E4091230E5091B7
:1020D000240E0E944D3F2091A8023091A902409108
:1020E000AA025091AB020E944D3F4B015C0140900F
:1020F000C10E5090C20E6090C30E7090C40E8091BD
:10210000C50E9091C60EA091C70EB091C80E8A87D9
:102110009B87AC87BD878091C90E9091CA0EA09114
:10212000CB0EB091CC0E8E879F87A88BB98B8091F8
:10213000CD0E9091CE0EA091CF0EB091D00E8A8B85
:102140009B8BAC8BBD8B2091F0023091F1024091C2
:10215000F2025091F302C301B2010E944D3F6B01A4
:102160007C012091F4023091F5024091F6025091E9
:10217000F7026A857B858C859D850E944D3F9B017A
:10218000AC01C701B6010E94A63C6B017C01209105
:10219000F8023091F9024091FA025091FB026E85EB
:1021A0007F85888999890E944D3F9B01AC01C701B9
:1021B000B6010E94A63C6B017C012091FC0230918B
:1021C000FD024091FE025091FF026A897B898C8951
:1021D0009D890E944D3F9B01AC01C701B6010E9441
:1021E000A63C6B017C0120910003309101034091DA
:1021F000020350910303C501B4010E944D3FA701A2
:1022000096010E94A63C2091080330910903409159
:102210000A0350910B030E944D3F209128023091F8
:10222000290240912A0250912B020E94A63C609301
:10223000250E7093260E8093270E9093280E2091E2
:10224000B0023091B1024091B2025091B302C30189
:10225000B2010E944D3F6B017C012091B40230918C
:10226000B5024091B6025091B7026A857B858C8594
:102270009D850E944D3F9B01AC01C701B6010E94A4
:10228000A63C6B017C012091B8023091B9024091CB
:10229000BA025091BB026E857F85888999890E9418
:1022A0004D3F9B01AC01C701B6010E94A63C6B01EA
:1022B0007C012091BC023091BD024091BE02509140
:1022C000BF026A897B898C899D890E944D3F9B0151
:1022D000AC01C701B6010E94A63C6B017C012091B4
:1022E000E4023091E5024091E6025091E702C50117
:1022F000B4010E944D3F9B01AC01C701B6010E9491
:10230000A63C6E8B7F8B888F998F2091C002309175
:10231000C1024091C2025091C302C301B2010E94A6
:102320004D3F6B017C012091C4023091C502409168
:10233000C6025091C7026A857B858C859D850E9467
:102340004D3F9B01AC01C701B6010E94A63C6B0149
:102350007C012091C8023091C9024091CA0250917B
:10236000CB026E857F85888999890E944D3F9B01AC
:10237000AC01C701B6010E94A63C6B017C01209113
:10238000CC023091CD024091CE025091CF026A89A9
:102390007B898C899D890E944D3F9B01AC01C701BF
:1023A000B6010E94A63C6B017C012091E8023091AD
:1023B000E9024091EA025091EB02C501B4010E948A
:1023C0004D3F9B01AC01C701B6010E94A63C6A8F3C
:1023D0007B8F8C8F9D8F2091D0023091D1024091C4
:1023E000D2025091D302C301B2010E944D3F6B0152
:1023F0007C012091D4023091D5024091D6025091B7
:10240000D7026A857B858C859D850E944D3F9B0107
:10241000AC01C701B6010E94A63C6B017C01209172
:10242000D8023091D9024091DA025091DB026E85D8
:102430007F85888999890E944D3F9B01AC01C70126
:10244000B6010E94A63C6B017C012091DC02309118
:10245000DD024091DE025091DF026A897B898C891E
:102460009D890E944D3F9B01AC01C701B6010E94AE
:10247000A63C6B017C012091EC023091ED02409171
:10248000EE025091EF02C501B4010E944D3F9B0145
:10249000AC01C701B6010E94A63C6B017C012091F2
:1024A000AC023091AD024091AE025091AF02C30137
:1024B000B2010E944D3F2B013C012091E00230917E
:1024C000E1024091E2025091E302C501B4010E9491
:1024D0004D3F9B01AC01C301B2010E94A63C609339
:1024E000C10E7093C20E8093C30E9093C40E8E895A
:1024F0009F89A88DB98D8093C50E9093C60EA09329
:10250000C70EB093C80E8A8D9B8DAC8DBD8D809308
:10251000C90E9093CA0EA093CB0EB093CC0EC0926E
:10252000CD0ED092CE0EE092CF0EF092D00E8091D2
:10253000F60E8823A1F0833071F481E090E080935F
:10254000F60ED4C96091A4027091A5028091A602F2
:102550009091A702B6CD082E000C990BF0CF82E027
:1025600090E0EDCFC090BD0ED090BE0EE090BF0EBB
:10257000F090C00E8090100390901103A090120371
:10258000B0901303A5019401C701B6010E94493F11
:1025900018160CF061C08092250E9092260EA09223
:1025A000270EB092280E2091210E3091220E4091DC
:1025B000230E5091240E609118037091190380919D
:1025C0001A0390911B030E944D3F20911C033091F0
:1025D0001D0340911E0350911F030E944D3F209107
:1025E000150E3091160E4091170E5091180E0E9444
:1025F000A63C209120033091210340912203509169
:1026000023030E944D3F0E94B03F2091240330914C
:10261000250340912603509127030E944D3F2091AE
:1026200028033091290340912A0350912B030E94E3
:10263000A63C6093BD0E7093BE0E8093BF0E909328
:10264000C00E8091F50E882321F18330F1F481E0F2
:1026500090E08093F50E4AC9809014039090150382
:10266000A0901603B0901703A5019401C701B6010D
:102670000E941D3D87FD8FCFC092250ED092260E61
:10268000E092270EF092280E8ECF082E000C990BA8
:10269000E0CF82E090E0DDCFC090B90ED090BA0ECE
:1026A000E090BB0EF090BC0E809030039090310310
:1026B000A0903203B0903303A5019401C701B60185
:1026C0000E94493F18160CF0BEC08092250E9092D1
:1026D000260EA092270EB092280E2091210E309146
:1026E000220E4091230E5091240E60913803709178
:1026F000390380913A0390913B030E944D3F6093D0
:10270000450E7093460E8093470E9093480E20918D
:1027100040033091410340914203509143030E9492
:102720004D3F2091150E3091160E4091170E50918D
:10273000180E0E94A63C209144033091450340911D
:102740004603509147030E944D3F6093410E7093A2
:10275000420E8093430E9093440E0E94F71C8823F0
:1027600009F48AC080910A0F90910B0FA0910C0F71
:10277000B0910D0F8093410E9093420EA093430EA3
:10278000B093440E6091450E7091460E8091470EB5
:102790009091480E0E94213D4B015C012091410E19
:1027A0003091420E4091430E5091440E6091480387
:1027B0007091490380914A0390914B030E944D3FD1
:1027C0006B017C012091150E3091160E4091170E71
:1027D0005091180E60914C0370914D0380914E03FF
:1027E00090914F030E944D3F9B01AC01C701B60180
:1027F0000E94A63C6B017C0120913C0330913D037B
:1028000040913E0350913F03C501B4010E944D3FEA
:102810009B01AC01C701B6010E94A63C6093B90EB2
:102820007093BA0E8093BB0E9093BC0E8091F40E01
:10283000882309F44DC0833009F046C081E090E060
:102840008093F40E53C88090340390903503A09089
:102850003603B0903703A5019401C701B6010E9469
:102860001D3D87FD32CFC092250ED092260EE092FC
:10287000270EF092280E31CFC090410ED090420E1C
:10288000E090430EF090440E20E030E0A901C70133
:10289000B6010E941D3D87FF05C080E090E0A0E8E2
:1028A000BFEB68CF20E030E0A901C701B6010E946C
:1028B000493F18162CF480E090E0A0E8BFE35ACF1F
:1028C00080E090E0DC0156CF082E000C990BB8CFC9
:1028D00082E090E0B5CF20910D0E30910E0E409128
:1028E0000F0E5091100E6091500370915103809122
:1028F0005203909153030E944D3F4B015C01809223
:10290000490E90924A0EA0924B0EB0924C0E20911E
:10291000210E3091220E4091230E5091240E609191
:1029200054037091550380915603909157030E9470
:102930004D3FA50194010E94A63C6B017C01809152
:10294000A90E9091AA0EA091AB0EB091AC0E8A8701
:102950009B87AC87BD878091AD0E9091AE0EA09104
:10296000AF0EB091B00E8E879F87A88BB98B209148
:1029700070033091710340917203509173036A8523
:102980007B858C859D850E944D3F2B013C012091CC
:1029900074033091750340917603509177036E85EF
:1029A0007F85888999890E944D3F9B01AC01C301B5
:1029B000B2010E94A63C2B013C012091780330918A
:1029C000790340917A0350917B03C701B6010E94BD
:1029D0004D3FA30192010E94A63CA50194010E94D3
:1029E000A53C2B013C0120913402309135024091ED
:1029F000360250913702C501B4010E944D3FA30138
:102A000092010E944D3F6A8F7B8F8C8F9D8F6093C8
:102A1000410E7093420E8093430E9093440E20918A
:102A20008003309181034091820350918303C70159
:102A3000B6010E944D3F20912C0230912D02409111
:102A40002E0250912F020E944D3FA30192010E943D
:102A50004D3F6E8F7F8F88A399A36093450E70932F
:102A6000460E8093470E9093480E8091B10E909140
:102A7000B20EA091B30EB091B40E8A8B9B8BAC8B2F
:102A8000BD8B8093310E9093320EA093330EB09392
:102A9000340E8091B50E9091B60EA091B70EB09104
:102AA000B80E8E8B9F8BA88FB98F8093350E909325
:102AB000360EA093370EB093380E60917706709162
:102AC00078068091790690917A060E94BD3D20E0BB
:102AD00030E040E85FE40E944D3F2B013C016091F3
:102AE00073067091740680917506909176060E9427
:102AF000BD3D9B01AC01C301B2010E94A63C2AE08E
:102B000037ED43E25BE30E944D3F20919403309107
:102B1000950340919603509197030E941D3D87FFB6
:102B20000EC1409098035090990360909A03709062
:102B30009B032E893F89488D598DC501B4010E94A0
:102B40004D3F4B015C01A70196016A897B898C8905
:102B50009D890E944D3F9B01AC01C501B4010E94BB
:102B6000A63CA30192010E944D3F20912802309182
:102B7000290240912A0250912B020E94A63C4B014F
:102B80005C014090A0035090A1036090A20370905C
:102B9000A303AC019B01C301B2010E941D3D87FF4D
:102BA000D7C04092250E5092260E6092270E70924A
:102BB000280E20916003309161034091620350918F
:102BC00063036A857B858C859D850E944D3F4B0103
:102BD0005C0120916403309165034091660350913C
:102BE00067036E857F85888999890E944D3F9B0187
:102BF000AC01C501B4010E94A63C4B015C012091CF
:102C00006C0330916D0340916E0350916F03C701C7
:102C1000B6010E944D3F9B01AC01C501B4010E9469
:102C2000A63C4B015C01209158033091590340911F
:102C30005A0350915B036A857B858C859D850E9434
:102C40004D3F2B013C0120915C0330915D0340918D
:102C50005E0350915F036E857F85888999890E9404
:102C60004D3F9B01AC01C301B2010E94A63C2B0168
:102C70003C01209168033091690340916A035091AF
:102C80006B03C701B6010E944D3F9B01AC01C3011C
:102C9000B2010E94A63C6093A90E7093AA0E809385
:102CA000AB0E9093AC0E8092AD0E9092AE0EA092B1
:102CB000AF0EB092B00E2091840330918503409105
:102CC0008603509187036E8D7F8D88A199A10E9404
:102CD0004D3F2A893B894C895D890E94A63C6093BF
:102CE000B10E7093B20E8093B30E9093B40E2091F8
:102CF0008C0330918D0340918E0350918F036A8D28
:102D00007B8D8C8D9D8D0E944D3F2E893F89488DF6
:102D1000598D0E94A63C6093B50E7093B60E8093B9
:102D2000B70E9093B80E8091F30E882379F183301B
:102D300049F581E090E08093F30E0C94760C40907E
:102D40009C0350909D0360909E0370909F03F1CE72
:102D50004090A4035090A5036090A6037090A70331
:102D6000A5019401C301B2010E94493F18160CF459
:102D700018CF8092250E9092260EA092270EB09228
:102D8000280E17CF082E000C990BD5CF82E090E0CB
:102D9000D2CF20910D0E30910E0E40910F0E50911A
:102DA000100E6091A8037091A9038091AA039091DD
:102DB000AB030E944D3F4B015C018092490E909203
:102DC0004A0EA0924B0EB0924C0E2091210E3091E3
:102DD000220E4091230E5091240E6091AC0370910D
:102DE000AD038091AE039091AF030E944D3FA501CA
:102DF00094010E94A63C6B017C01C092510ED092BE
:102E0000520EE092530EF092540E8091990E9091D2
:102E10009A0EA0919B0EB0919C0E8A879B87AC87DF
:102E2000BD8780919D0E90919E0EA0919F0EB091B6
:102E3000A00E8E879F87A88BB98B2091C8033091F5
:102E4000C9034091CA035091CB036A857B858C8569
:102E50009D850E944D3F2B013C012091CC03309178
:102E6000CD034091CE035091CF036E857F85888935
:102E700099890E944D3F9B01AC01C301B2010E94A0
:102E8000A63C2B013C012091D0033091D10340910D
:102E9000D2035091D303C701B6010E944D3F9B015D
:102EA000AC01C301B2010E94A63CA50194010E949D
:102EB000A53C2091D8033091D9034091DA03509179
:102EC000DB030E944D3F2B013C012091DC0330913C
:102ED000DD034091DE035091DF03C701B6010E947C
:102EE0004D3F9B01AC01C301B2010E94A63C2B01E6
:102EF0003C01209138023091390240913A025091C0
:102F00003B02C501B4010E944D3FA30192010E9402
:102F10004D3F6A8F7B8F8C8F9D8F6093410E709396
:102F2000420E8093430E9093440E2091E003309123
:102F3000E1034091E2035091E303C701B6010E940F
:102F40004D3F209130023091310240913202509138
:102F500033020E944D3FA30192010E944D3F6E8FAC
:102F60007F8F88A399A36093450E7093460E80933C
:102F7000470E9093480E8091A10E9091A20EA091C1
:102F8000A30EB091A40E8A8B9B8BAC8BBD8B8093D0
:102F9000290E90932A0EA0932B0EB0932C0E8091A5
:102FA000A50E9091A60EA091A70EB091A80E8E8BA3
:102FB0009F8BA88FB98F80932D0E90932E0EA09388
:102FC0002F0EB093300E6091770670917806809145
:102FD000790690917A060E94BD3D20E030E040E8FD
:102FE0005FE40E944D3F2B013C016091730670919C
:102FF000740680917506909176060E94BD3D9B01F6
:10300000AC01C301B2010E94A63C2AE037ED43E2C5
:103010005BE30E944D3F2091F4033091F503409112
:10302000F6035091F7030E941D3D87FF23C1809155
:10303000F8039091F903A091FA03B091FB038093F8
:103040004D0E90934E0EA0934F0EB093500E2E89BE
:103050003F89488D598DC501B4010E944D3F4B01F8
:103060005C012A893B894C895D89C701B6010E94B0
:103070004D3F9B01AC01C501B4010E94A63C2091CB
:103080004D0E30914E0E40914F0E5091500E0E94B9
:103090004D3F209128023091290240912A025091FF
:1030A0002B020E94A63C4B015C0180924D0E909237
:1030B0004E0EA0924F0EB092500E409000045090D1
:1030C00001046090020470900304A30192010E9425
:1030D000493F18160CF0D7C04092250E5092260E8C
:1030E0006092270E7092280E2091B8033091B90398
:1030F0004091BA035091BB036A857B858C859D8581
:103100000E944D3F4B015C012091BC033091BD03F7
:103110004091BE035091BF036E857F858889998950
:103120000E944D3F9B01AC01C501B4010E94A63C29
:103130004B015C012091C4033091C5034091C6034B
:103140005091C703C701B6010E944D3F9B01AC01DE
:10315000C501B4010E94A63C4B015C012091B00363
:103160003091B1034091B2035091B3036A857B85DE
:103170008C859D850E944D3F2B013C012091B4031D
:103180003091B5034091B6035091B7036E857F85AA
:10319000888999890E944D3F9B01AC01C301B2010E
:1031A0000E94A63C2B013C012091C0033091C10339
:1031B0004091C2035091C303C701B6010E944D3F25
:1031C0009B01AC01C301B2010E94A63C6093990E21
:1031D00070939A0E80939B0E90939C0E80929D0EFE
:1031E00090929E0EA0929F0EB092A00E2091E403AA
:1031F0003091E5034091E6035091E7036E8D7F8D9A
:1032000088A199A10E944D3F2A893B894C895D89FB
:103210000E94A63C6093A10E7093A20E8093A30E11
:103220009093A40E2091EC033091ED034091EE03B6
:103230005091EF036A8D7B8D8C8D9D8D0E944D3F4B
:103240002E893F89488D598D0E94A63C6093A50E1A
:103250007093A60E8093A70E9093A80E8091F20E05
:10326000882371F1833041F581E090E08093F20E84
:103270000C94760C8091FC039091FD03A091FE03C9
:10328000B091FF03DCCE40900404509005046090A0
:10329000060470900704A3019201C501B4010E94C5
:1032A0001D3D87FD19CF8092250E9092260EA0928B
:1032B000270EB092280E18CF082E000C990BD6CFEF
:1032C00082E090E0D3CF80E090E0AFE7B3E480937A
:1032D000410E9093420EA093430EB093440E0C9473
:1032E000A70C19860C94F60C8FEF89870C94F60CBA
:1032F00019860C941E0D8FEF89870C941E0D19866C
:103300000C944F0D8FEF89870C944F0D4F925F9265
:103310006F927F928F929F92AF92BF92DF92EF92C5
:10332000FF920F931F93CF93DF9384E090E0E3D25B
:10333000EFECF5E08DEBDF011D928A95E9F78FE761
:1033400096E097838683C2E8D6E0D0931006C093B8
:103350000F060FE616E0158B048BF0933A06E09308
:103360003906F583E48321E030E0DC012D933C93C2
:103370008CED94E09387828724E836E039832883B4
:1033800040E050E060E87FEB40937B0650937C0682
:1033900060937D0670937E064AE057ED63E27BE31F
:1033A000D8014D935D936D937C931397C5E5D6E05B
:1033B0008CE299E7AEE6B8E088839983AA83BB8361
:1033C00089EA91E5A8E6B7EF8093590690935A06EB
:1033D000A0935B06B0935C0682EF92EBADE9B2EE90
:1033E00080935D0690935E06A0935F06B09360069F
:1033F0008BE590EAA6E7BAEB8093610690936206AC
:10340000A0936306B0936406A3ECB5E0B383A283F4
:10341000E1EAF5E01196FC93EE938EEE94E0918351
:103420008083938382839583848397838683918724
:1034300080879387828783EF9EE09587848782EFDA
:103440009EE09787868788EF9EE0918B808B938B99
:10345000828B958B848B978B868B918F808F86EF59
:103460009EE0938F828F85EF9EE0958F848F84EF0F
:103470009EE0978F868F87EF9EE091A380A385E6DD
:1034800096E015969C938E9314971396DC93CE93A7
:10349000129717963C932E93169785E0882E8EE010
:1034A000982E84E5F40111928A95E9F7C9E5DEE0EA
:1034B00085EADE011D928A95E9F780E090E5A3ECAC
:1034C000B8E48C879D87AE87BF87DD24D394D092E4
:1034D000FD0E94E0A92E92E0B92EF50184AD95ADD4
:1034E000A6ADB7AD888B998BAA8BBB8B412C512C89
:1034F0003201439449825A826B827C8250E040E0E0
:1035000060E070E0CB010E9457019F838E8340EA08
:1035100056E861E070E0488759876A877B870E9498
:103520007B01DD828FEF8093F10E1CA6D092F90E05
:103530004DA65EA66FA678AAE12CF12C8701A80102
:10354000970167E070E080E090E00E94C4029BABCE
:103550008AABD9AA1CA2D092FC0E4DA25EA26FA289
:1035600078A661E08BE00E943A02D9A61C8ED09228
:10357000FB0E4D8E5E8E6F8E78A261E08CE00E9415
:103580003A02D9A21C8AD092FA0E4D8A5E8A6F8ABC
:10359000788E61E086E00E943A02D98E809108041C
:1035A00090910904A0910A04B0910B048CAB9DABDF
:1035B000AEABBFAB80915C0490915D04A0915E04C2
:1035C000B0915F0488AF99AFAAAFBBAF8CAF9DAF8E
:1035D000AEAFBFAFF50184859585A685B78580938D
:1035E000D50E9093D60EA093D70EB093D80E8481AB
:1035F0009581A681B7818093D90E9093DA0EA0931E
:10360000DB0EB093DC0E8091740290917502A09154
:103610007602B09177028093DD0E9093DE0EA09338
:10362000DF0EB093E00E80917C0290917D02A0911C
:103630007E02B0917F028093D10E9093D20EA09320
:10364000D30EB093D40E8091040390910503A09102
:103650000603B09107038093C10E9093C20EA0930E
:10366000C30EB093C40E8093C50E9093C60EA09364
:10367000C70EB093C80E8093C90E9093CA0EA09344
:10368000CB0EB093CC0E8093CD0E9093CE0EA09324
:10369000CF0EB093D00E80910C0390910D03A091AA
:1036A0000E03B0910F038093BD0E9093BE0EA093B6
:1036B000BF0EB093C00E80912C0390912D03A0916A
:1036C0002E03B0912F038093B90E9093BA0EA0935E
:1036D000BB0EB093BC0E80917C0390917D03A091B2
:1036E0007E03B0917F038093A90E9093AA0EA093BE
:1036F000AB0EB093AC0E8093AD0E9093AE0EA09334
:10370000AF0EB093B00E8091880390918903A09181
:103710008A03B0918B038093B10E9093B20EA09365
:10372000B30EB093B40E8091900390919103A09149
:103730009203B09193038093B50E9093B60EA0932D
:10374000B70EB093B80E8091D4039091D503A09199
:10375000D603B091D7038093990E90939A0EA093BD
:103760009B0EB0939C0E80939D0E90939E0EA09303
:103770009F0EB093A00E8091E8039091E903A09171
:10378000EA03B091EB038093A10E9093A20EA09355
:10379000A30EB093A40E8091F0039091F103A09139
:1037A000F203B091F3038093A50E9093A60EA0931D
:1037B000A70EB093A80E80919C0490919D04A091B7
:1037C0009E04B0919F04F40180A391A3A2A3B3A38C
:1037D000DF91CF911F910F91FF90EF90DF90BF90FD
:1037E000AF909F908F907F906F905F904F900895D3
:1037F0008091590E811119C081E08093590E8091FA
:103800005A0E90915B0EA0915C0EB0915D0E0197E7
:10381000A105B10551F480915E0E882331F08091AD
:103820005F0E9091600E0E9439028091850E811189
:103830002EC081E08093850E8091860E9091870E38
:10384000A091880EB091890E0197A105B105F9F4F8
:1038500080918A0E8823D9F067E070E080E090E0E4
:103860000E94800290938C0E80938B0E40E050E07B
:10387000BA010E94490267E070E080E090E00E9497
:10388000800290938C0E80938B0E0E941503809182
:103890007D0E811103C081E080937D0E8091750EB5
:1038A000811103C081E08093750E80916D0E8111AE
:1038B00003C081E080936D0E089560E070E080E8C1
:1038C0009FE7089560E070E080E89FE7089560E07A
:1038D00070E080E89FEF089560E070E080E89FEF7F
:1038E000089560E070E080EC9FEF089560E070E084
:1038F00080EC9FEF0895F5DF60930A0F70930B0F34
:1039000080930C0F90930D0FF1DF6093FE0E709378
:10391000FF0E8093000F9093010FCFDF6093060F8F
:103920007093070F8093080F9093090FCBDF60937C
:10393000020F7093030F8093040F9093050FC7DF5E
:1039400060930E0F70930F0F8093100F9093110FD1
:10395000C3DF6093120F7093130F8093140F909333
:10396000150F0895CF92DF92EF92FF92CF936B01E4
:103970007C01AC019B016091060F7091070F809153
:10398000080F9091090F0E941D3DC1E0882371F03E
:10399000A701960160910E0F70910F0F8091100F8B
:1039A0009091110F0E941D3D8111C0E08C2FCF918D
:1039B000FF90EF90DF90CF9008950F931F938B01AE
:1039C0009C010027112720783F7701151105204819
:1039D0003F4749F4AB01BC016F77772781E0452B66
:1039E000462B472B09F480E01F910F910895E5CFF6
:1039F0004F925F926F927F928F929F92AF92BF92FF
:103A0000CF92DF92EF92FF920F931F93F894409022
:103A100098065090990660909A0670909B06C09008
:103A20008C06D0908D06E0908E06F0908F06413087
:103A3000510509F0A4C09B01AC01241935094609C0
:103A4000570929013A010091940610919506209199
:103A500096063091970648015901840C951CA61CC6
:103A6000B71C80169106A206B306A0F4009190063A
:103A70001091910620919206309193060F5F1F4F8F
:103A80002F4F3F4F0093900610939106209392067C
:103A9000309393068092940690929506A092960693
:103AA000B09297060091900610919106209192068F
:103AB0003091930680929C0690929D06A0929E065D
:103AC000B0929F060093A0061093A1062093A20631
:103AD0003093A306609398067093990680939A0694
:103AE00090939B06A4ECB9E0A30192010E94224CA2
:103AF0006C0D7D1D8E1D9F1D60938C0670938D0631
:103B000080938E0690938F060091B3041091B404B5
:103B10002091B5043091B6040F3F1F4F2F4F3F4FF8
:103B2000F1F00091B3041091B4042091B5043091E8
:103B3000B6040E3F1F4F2F4F3F4F89F0C090B30484
:103B4000D090B404E090B504F090B60421E08C1459
:103B50009D04AE04BF0408F420E02093A8067894E6
:103B60001F910F91FF90EF90DF90CF90BF90AF909B
:103B70009F908F907F906F905F904F9008954B0132
:103B80005C0184189508A608B708A3019201261BBA
:103B9000370B480B590B6415750586059705D0F052
:103BA00082169306A406B50640F420E030E0A90191
:103BB00081149104A104B10491F4A4ECB9E00E9431
:103BC000224CA7019601261B370B480B590BCA0143
:103BD000B901C5CF82169306A406B50670F7A4EC0A
:103BE000B9E0A50194010E94224C6C0D7D1D8E1D33
:103BF0009F1DB5CFFDCECF93DF9300D01F92CDB7E1
:103C0000DEB71C821B821A8219821092A4061092BF
:103C1000A5061092A6061092A706BE016F5F7F4F01
:103C2000CE0103960E94F13A69817A818B819C8151
:103C30000E94DF33009761F4BE016F5F7F4FCE01BA
:103C400003960E94FD3A69817A818B819C812FD5F0
:103C50000F900F900F900F90DF91CF910895FF92EA
:103C60000F931F93CF93DF93082F60E070E0CB0199
:103C70000E942646FF24F3940E94C832EC01892B4F
:103C800089F010E0CE3F8FEFD80769F0002361F193
:103C900060E070E0CB010E94264681E090E0892B35
:103CA00059F322C011E026D5EC01892B21F0CE3F3B
:103CB0008FEFD80759F711111EC011E0229609F4B1
:103CC00010E00E947832EC01892B21F0CE3F8FEF7B
:103CD000D807E1F6111111C011E0CE3F8FEFD807E0
:103CE00009F410E001110BC0CE01DF91CF911F91BB
:103CF0000F91FF90089511E0E4CF11E0F3CF60E061
:103D000070E0CB010E9426461F25812F90E0C7CF8F
:103D1000CF93DF938091A806882321F060E070E0C4
:103D2000CB014DD636D6D0E0C0E0892B71F06AE0E9
:103D300070E080E090E00E94264681E090DF29D686
:103D40002196C03D27E0D20781F728D60E94333460
:103D50001092C0061092BF061092B9061092BA06D1
:103D60001092BB061092BC061092B5061092B606D1
:103D70001092B7061092B8061092B1061092B206D1
:103D80001092B3061092B4061092AD061092AE06D1
:103D90001092AF061092B0061092A9061092AA06D1
:103DA0001092AB061092AC064EEF5FEF6FEF7FEF15
:103DB0004093B3045093B4046093B5047093B60475
:103DC0001092A806ECE9F6E028E0DF011D922A95A2
:103DD000E9F7109298061092990610929A0610929E
:103DE0009B061092940610929506109296061092D9
:103DF00097061092900610929106109292061092D9
:103E0000930610928C0610928D0610928E061092D8
:103E10008F06DF91CF9108951092CC061092CD06B7
:103E20001092CE061092CF061092CB068091D40647
:103E30009091D5069093CA068093C9061092C80641
:103E40001092C7061092C3061092C4061092C506BF
:103E50001092C6061092D1061092D00690E080E033
:103E60000895CF92DF92EF92FF920F931F93CF931B
:103E70008C01019709F055C02091D4063091D506E8
:103E80008091C9069091CA064091D4065091D506FA
:103E90005093CA064093C9062817390781F010923B
:103EA000C8061092C7061092C3061092C40610925C
:103EB000C5061092C6061092D1061092D0068091C7
:103EC000D4069091D506019761F58091D006909126
:103ED000D106892B21F48091B704811112C0809101
:103EE000D0069091D1060197E1F48091C30690919C
:103EF000C406A091C506B091C6060197A105B105FB
:103F000081F41092C3061092C4061092C506109256
:103F1000C6061092B70482E090E09093D106809399
:103F2000D0068091D4069091D506019709F01CC166
:103F30008091EA069091EB068017910709F014C171
:103F40008091E6069091E706A091E806B091E90617
:103F5000009709F409C12091E50621110DC0409197
:103F6000E6065091E7066091E8067091E906452B58
:103F7000462B472B09F4F8C02091D0063091D1068A
:103F80002230310509F0F0C02091C7062111ECC0A4
:103F9000FC01C080D180E280F3808091CB06882331
:103FA00009F4D3C08091D7069091D806892B09F4E3
:103FB000FEC02091D7063091D80681E0223031052D
:103FC00009F080E02091D7063091D806C1E0213079
:103FD000310549F02091D7063091D806C1E0223052
:103FE000310509F0C0E0882309F456C02091E106AC
:103FF0003091E2064091E3065091E406C701B60114
:104000000E94493F87FD14C02091E1063091E206ED
:104010004091E3065091E4066091CC067091CD0684
:104020008091CE069091CF060E941D3D87FD22C053
:104030002091E1063091E2064091E3065091E406BA
:10404000C701B6010E94493F181634F52091E106D8
:104050003091E2064091E3065091E4066091CC066F
:104060007091CD068091CE069091CF060E941D3DA5
:10407000811112C08091D9069091DA06A091DB06D9
:10408000B091DC06892B8A2B8B2B19F481E080936D
:10409000C80681E08093C706CC2309F456C020915E
:1040A000E1063091E2064091E3065091E406C70133
:1040B000B6010E941D3D87FF14C02091E10630919A
:1040C000E2064091E3065091E4066091CC067091BF
:1040D000CD068091CE069091CF060E94493F87FF82
:1040E00022C02091E1063091E2064091E306509112
:1040F000E406C701B6010E941D3D811126C0209132
:10410000E1063091E2064091E3065091E4066091A9
:10411000CC067091CD068091CE069091CF060E947C
:10412000493F181694F48091D9069091DA06A0912F
:10413000DB06B091DC06892B8A2B8B2B19F481E0EE
:104140008093C80681E08093C70681E09091C706FE
:10415000911180E08093CB06C092CC06D092CD0620
:10416000E092CE06F092CF060130110509F067C14A
:104170008091D0069091D106892BD9F41092D60661
:104180001092C7068091B704882379F082E090E00E
:104190009093D1068093D0061092B7042091D40654
:1041A0003091D50681E0232BE9F080E01BC081E04F
:1041B00009CF1092B7048091D606882349F0109257
:1041C000C8061092D1061092D0061092D606EDCFF6
:1041D0008091D4069091D506892BE1F08091C70695
:1041E0001092C7062091D0063091D10622303105B9
:1041F00009F45EC088F42115310509F448C0213066
:10420000310509F4F3C01092C8061092C706109247
:10421000D60638C081E0E6CF2330310509F4B1C0BD
:104220002430310581F74091C3065091C406609156
:10423000C5067091C606411551056105710561F00D
:1042400041505109610971094093C3065093C40656
:104250006093C5067093C6064091C3065091C4068C
:104260006091C5067091C606452B462B472BD9F4A5
:104270002091D2063091D3062130310509F046C095
:104280001092C8061092D1061092D0060CC08091F0
:10429000B704882341F082E090E09093D1068093A8
:1042A000D0061092B7041092C1068091C806CEC005
:1042B0008823C9F38091D9069091DA06A091DB0694
:1042C000B091DC06181619061A061B060CF07DC004
:1042D0008091D4069091D506019709F076C080911F
:1042E000D9069091DA06A091DB06B091DC068093A6
:1042F000C3069093C406A093C506B093C60683E098
:1043000090E09093D1068093D006CDCF4091DD060A
:104310005091DE066091DF067091E006452B462B3A
:10432000472BA9F01092C8068091DD069091DE0619
:10433000A091DF06B091E0068093C3069093C40677
:10434000A093C506B093C60681E090E0DACF88233B
:1043500099F08091B8049091B904A091BA04B091F9
:10436000BB048093C3069093C406A093C506B09384
:10437000C60684E090E0C5CF1092C80682E090E0C7
:10438000C0CF8091C3069091C406A091C506B0919C
:10439000C6060097A105B10559F00197A109B10919
:1043A0008093C3069093C406A093C506B093C60637
:1043B0008091C3069091C406A091C506B091C6062F
:1043C000892B8A2B8B2B09F06ECF8091B8049091AA
:1043D000B904A091BA04B091BB04892B8A2B8B2B12
:1043E00009F44ECF81E08093C806B3CF4091C30655
:1043F0005091C4066091C5067091C60641155105DD
:104400006105710561F041505109610971094093DD
:10441000C3065093C4066093C5067093C6064091C8
:10442000C3065091C4066091C5067091C606452B1F
:10443000462B472B09F037CF8111C7CF9FCF8091F3
:10444000C106882309F431CF8091C206CF911F9114
:104450000F91FF90EF90DF90CF9008951092CC06CF
:104460001092CD061092CE061092CF061092CB0677
:104470001092D1061092D0061092CA061092C90668
:104480001092EB061092EA061092C8061092C70628
:104490001092C3061092C4061092C5061092C6066A
:1044A0001092C2061092C1061092E6061092E7061C
:1044B0001092E8061092E9061092E5061092E106C5
:1044C0001092E2061092E3061092E40688EE93E062
:1044D000A0E0B0E08093B8049093B904A093BA042C
:1044E000B093BB041092DD061092DE061092DF0638
:1044F0001092E0061092D9061092DA061092DB06AE
:104500001092DC061092D8061092D70681E08093B4
:10451000B7041092D6061092D5061092D4061092C7
:10452000D3061092D20690E080E008958091D406E0
:104530009091D506892B19F58091B704882351F005
:104540008091D606811106C081E08093C2068093D7
:10455000C10608952091D6063091B70481E090E01D
:10456000332311F090E080E030E082239323892B05
:1045700021F01092C20681E0EACF1092C1060895A0
:1045800082E090E0FA01918380838FEF9FEF08959E
:10459000CF93DF93EA01009711F00E9453351982FF
:1045A000188290E080E0DF91CF910895DB010097C1
:1045B00019F48FEF8C9308952EEF2C93FC013F9606
:1045C000EF30F10508F034C08827E651FD4D8F4FDC
:1045D0000C940B4C16231423122310230E230A23AE
:1045E0000C230823062304230123FD22F922FF22A2
:1045F000182380E311968C93089589E2FBCF82E221
:10460000F9CF11961C92089583E2F4CF81E2F2CFA4
:1046100081E1F0CF87E2EECF8AE2ECCF80E1EACF12
:1046200084E2E8CF88E2E6CF86E2E4CF81E3E2CF1E
:1046300080E2E0CF8091F8069091F906089590937A
:10464000F9068093F80608958091F70608959091F1
:10465000F706892B8093F7060895982F90958091FF
:10466000F70689238093F70608958091F60608954A
:104670008091F4069091F50608956115710559F041
:10468000FB0130E020E070E060E02417350719F00E
:104690006115710511F0CB010895A081B181A817B2
:1046A000B90709F4BF012F5F3F4F3696EECF8091D7
:1046B000FA0681111CC060D266D29093ED068093F9
:1046C000EC060E945F2D0E94712D9093F10680935D
:1046D000F0060E94E0310E94E7319093EF0680934C
:1046E000EE0681E08093FA0690E080E0089584EF82
:1046F0009FEF08958F929F92AF92BF92CF92DF92D9
:10470000EF92FF920F931F93CF93DF9300D000D0CF
:1047100000D01F92CDB7DEB71A86198618861F8281
:104720001E821D821C821B821A8219828091FA06C7
:1047300007EF1FEF882309F49CC08E010D5F1F4F08
:104740009E012B5F3F4FAE01495F5F4FBE01675F28
:104750007F4F90E080E00E9464338C01009721F04D
:104760000596029708F0DBC029853A8521153105A9
:1047700009F402C1ED80FE804B815C81B701640FBA
:10478000751F8F8198858617970708F4F5C0E20E8C
:10479000F31ED7019C91903C09F07FC04230510537
:1047A00008F47BC011968C914091F8065091F9065F
:1047B000452B09F49CC0913F08F071C02CE1290FF2
:1047C0002D3008F48BC02DE2290F203108F489C068
:1047D000903C21F48150823008F483C088E3890F33
:1047E0008B3008F481C096EDC92E92E2D92EE0EC10
:1047F000F2E26D817E81AE014F5F5F4F89859A85C0
:1048000019955C01C114D104A1F189809A808114A9
:10481000910479F18B819C818815990508F487C0F2
:1048200010E000E04B815C8170E060E0C7010E9415
:10483000354C01151105E9F449815A8169857A855C
:104840008D819E81680F791FC501F6011995E98058
:10485000FA800D811E812F81388549855A856FEF39
:104860007FEF81E090E00E94FF328C01892B09F0FC
:1048700056C0C8012A960FB6F894DEBF0FBECDBF52
:10488000DF91CF911F910F91FF90EF90DF90CF902C
:10489000BF90AF909F908F90089580E085CF30E0DB
:1048A00020E0220F331FF901E451F94F0190F0810C
:1048B000E02D309709F497CF892F90E01995009754
:1048C00009F491CFDC011296ED91FC9113971496A7
:1048D000CD90DC90309709F08CCF1FC021E030E004
:1048E000E0CF22E030E0DDCF23E030E0DACFD12CA2
:1048F000C12CE8ECF2E29F3F09F07BCFE091EC069F
:10490000F091ED06309721F4C90104EF1FEF0CC0C0
:104910008FEF90E019950097A9F604EF1FEF8985B6
:104920009A85009709F4A5CF0E945335A2CF0E9423
:104930002E348C0189859A850E94533570E060E0A1
:10494000C4010E94C73398878F830E94FC329E83E4
:104950008D836F8178856115710559F0C8010E94BA
:10496000DF369A87898706EF1FEF892B09F058CF2A
:1049700059CF08EF1FEF56CF08EF1FEFD0CF209190
:10498000FA06222319F020E00C94762D87EF9FEF92
:1049900008958091F8069091F90608950E94EC31EF
:1049A0000E944631F5D0ECEEF6E088E0DF011D9282
:1049B0008A95E9F71092FA0690E080E008950C9449
:1049C000A42F21E040E050E0BA010C94762D86E05F
:1049D00090E0FA019183808390E080E0089547E0C1
:1049E00050E061EF74E049CEDF92EF92FF920F93B7
:1049F0001F93CF93DF938A01EC01C60FD71FE0907E
:104A0000FE06F090FF06D9800E941634D8161906CB
:104A100078F082E090E0F801918380838EEF9FEF41
:104A2000DF91CF911F910F91FF90EF90DF9008954C
:104A3000EF2841F482E090E0F8019183808384EFD5
:104A40009FEFEECF89818093FD0690E00196F801FB
:104A50009183808390E080E0E3CFCF93DF93EA01FE
:104A60000E945530882321F00E9423340E94563042
:104A700082E090E0998388838BEF9FEFDF91CF9165
:104A80000895CF93DF93EB0186E0FB0111928A95A5
:104A9000E9F78FEF8883D8DD8983E7DD8A83E8DD56
:104AA0009D838C83DF91CF910895CF93DF93EA01AB
:104AB0000E945830811109C082E090E09983888378
:104AC00085EF9FEFDF91CF91089590E080E0B7DD13
:104AD00081E090E09983888390E080E0F3CF0F93AA
:104AE0001F93CF93DF93EA018C01060F171F0E94DB
:104AF000583081110BC082E090E09983888385EF64
:104B00009FEFDF91CF911F910F910895F80181815F
:104B1000823038F082E090E0998388838EEF9FEFB7
:104B2000F0CF81E090E08BDD88E090E0998388838E
:104B300090E080E0E6CFCF93DF930097D1F4EB01D4
:104B4000FB01329686E0DF011D928A95E9F78FEF2F
:104B5000888385E089831A820E9416348B830E94A1
:104B600015349D838C8381E08E838F83DF91CF9179
:104B70000895DF91CF911ACD8FEE94E29093FC06C9
:104B80008093FB0608958091FB069091FC060895A2
:104B90001092FC061092FB0608958091FE069091FB
:104BA000FF060895411105C0611571058105910544
:104BB00061F06093FE067093FF0680930007909368
:104BC00001074093020781E0089580E00895FF9275
:104BD0000F931F93CF93DF938A01EC01C60FD71F6A
:104BE000F9800E941634F816190668F082E090E009
:104BF000F801918380838EEF9FEFDF91CF911F911A
:104C00000F91FF9008956C817D818E819F814B81F2
:104C1000C9DF811108C082E090E0F80191838083B0
:104C200084EF9FEFEACF89818093FD0690E00196A3
:104C3000F8019183808390E080E0DFCFCF93DF9312
:104C4000EA01FC01E60FF71F648175818681978177
:104C50004381A8DF811109C082E090E099838883B5
:104C600084EF9FEFDF91CF91089581E090E09983E9
:104C7000888390E080E0F6CFEEEFF6E0408151814E
:104C800062817381480F511D611D711D40835183E5
:104C9000628373830895CF93C091FD064C2F50E03B
:104CA0006091FE067091FF0601960E942C4C8C2F9D
:104CB000E3DF1092FD06CF910895009799F480915B
:104CC000FE069091FF062FEFFB012083892B59F000
:104CD0002091FD0630E02F5F3F4F2417350719F470
:104CE000CB01D9CF63CC0895009799F48091FE064B
:104CF0009091FF062FEFFB012083892B59F0209123
:104D0000FD0630E02F5F3F4F2417350719F4CB0124
:104D1000C2CF4CCC089523E1AC01249FC001259F54
:104D2000900D1124E0910707F0910807E80FF91F93
:104D3000238134812250310981E02230310508F08D
:104D400080E008950F931F93CF93DF93009109079D
:104D500010910A07D0E0C0E080E00C171D0749F46D
:104D600091E0811190E0892FDF91CF911F910F91F8
:104D700008958111F5CFCE01CEDF2196EECFA0911F
:104D80000707B0910807109729F120910907309182
:104D90000A0782179307F0F453E1589F9001599F37
:104DA000300D1124A20FB31FED91FC911197309794
:104DB00089F012968C91681768F48BE0689FE00D7B
:104DC000F11D112480819181892B21F081E0928154
:104DD000491708F080E008959C0143E1429FC0011B
:104DE000439F900D1124E0910707F0910807E80F09
:104DF000F91F8385823091F481E090E065817681AE
:104E00004091BC045091BD046417750711F490E003
:104E100080E0892B19F081E0232B09F080E00895D0
:104E2000EF92FF920F931F93CF93DF93EA01FC0160
:104E3000E60FF71F02811381E480F5804F2D6E2D60
:104E4000C8019DDF81110DC082E090E099838883C5
:104E50008EEF9FEFDF91CF911F910F91FF90EF9019
:104E60000895C80158DF882339F082E090E09983E3
:104E7000888388EF9FEFEECF1093C3040093C204A2
:104E8000E092C404F092C50481E090E099838883A5
:104E900090E080E0DFCFCF92DF92EF92FF920F930E
:104EA0001F93CF93DF937A01EC01C60FD71FC090F9
:104EB000C204D090C3040091C4041091C504412FD2
:104EC000602FC6015CDF811110C082E090E0F70125
:104ED000918380838AEF9FEFDF91CF911F910F9194
:104EE000FF90EF90DF90CF900895C60114DF8823E4
:104EF00041F082E090E0F7019183808388EF9FEF9B
:104F0000EBCF4C815D816E817F819A8189818F3F5A
:104F100041F082E090E0F701918380838EEF9FEF74
:104F2000DBCFE3E1EC9D9001ED9D300D1124E0918C
:104F30000707F0910807E20FF31F0190F081E02DC1
:104F40002BE0029FE00DF11D11240190F081E02D76
:104F500027E0129FE00DF11D1124808391838B8146
:104F6000828343835483658376831F5F1093C504D4
:104F700081E090E0F7019183808390E080E0ACCF06
:104F8000EF92FF920F931F93CF93DF937A018C01DF
:104F9000060F171FC0910707D0910807209781F0CF
:104FA00021E030E0F801828193814091090750911E
:104FB0000A078417950710F030E020E0232B71F4E6
:104FC00082E090E0F701918380838EEF9FEFDF9185
:104FD000CF911F910F91FF90EF90089543E1489F6B
:104FE0009001499F300D1124C20FD31F94DE8823F6
:104FF00041F082E090E0F7019183808388EF9FEF9A
:10500000E6CFF8012481358120383105C8F6878143
:105010008111D6CF4181842F90E08F7E009741F09F
:1050200082E090E0F7019183808386EF9FEFCFCFFE
:105030004F833E832D83268128871986223010F4E2
:1050400021E0288721E030E0F70131832083BFCFC2
:1050500088E090E0FA019183808390E080E00895F9
:10506000FB018FEF808381E181838FEF9FEF93833B
:10507000828380E890E09583848316821782089566
:10508000FB018FEF808391E09183828393838483FC
:1050900084E3858381E090E0978386830895DF929F
:1050A000EF92FF920F931F93CF93DF93EA01FC01DE
:1050B000E60FF71F8181813071F082E090E09983E3
:1050C00088838FEF9FEFDF91CF911F910F91FF901A
:1050D000EF90DF90089582819381D4802581E680CE
:1050E000F78000910707109108070115110539F4A1
:1050F00082E090E0998388838CEF9FEFE4CF40912A
:10510000090750910A078417950738F082E090E06C
:10511000998388838EEF9FEFD6CF892B39F082E079
:1051200090E09983888386EF9FEFCDCF8D2D8D7F83
:10513000B1F72130A1F781E0D11006C091E0E91666
:10514000F10431F080E004C0E2E0EE16F104D0F3A7
:10515000882329F390E080E0DEDD882339F082E0C7
:1051600090E09983888388EF9FEFADCFF801D386D5
:1051700081E08487F686E586108A178681E090E0D4
:105180009983888390E080E09ECF4CE050E06BE113
:1051900075E073CA8F929F92BF92CF92DF92EF9287
:1051A000FF920F931F93CF93DF93EA01FC01E60F69
:1051B000F71F828193810481B580E0910707F09108
:1051C0000807309791F482E090E0998388838CEF10
:1051D0009FEFDF91CF911F910F91FF90EF90DF90A4
:1051E000CF90BF909F908F900895209109073091A4
:1051F0000A078217930738F082E090E0998388834A
:105200008EEF9FEFE6CF23E1289F6001299FD00C0E
:105210001124EC0DFD1DE080F180E114F10499F200
:105220008281081748F78BE0089F80011124E00E67
:10523000F11EF70180819181892B29F6BB20E1F2D3
:10524000F7E0BF9E40011124C4010E941A35F70106
:1052500091838083E0910707F0910807EC0DFD1D15
:105260000190F081E02DE00FF11F80819181009786
:1052700039F482E090E0998388838DEF9FEFA9CF86
:10528000A40170E060E00E94354C80910707909186
:105290000807C80ED91EF60180819181080F191FD9
:1052A000F801B28281E090E09983888390E080E009
:1052B00090CFAF92BF92CF92DF92FF920F931F9346
:1052C000CF93DF93EA01FC01E60FF71F8281938100
:1052D000F48000910707109108070115110581F46A
:1052E00082E090E0998388838CEF9FEFDF91CF91EC
:1052F0001F910F91FF90DF90CF90BF90AF900895D6
:105300002091090730910A078217930738F082E04D
:1053100090E0998388838EEF9FEFE8CF2FEF2F0DDA
:105320002C3FA8F723E1289F6001299FD00C11246E
:105330000C0D1D1DF80180819181892B89F6FBE000
:10534000FF9E50011124C5010E941A35F801918376
:105350008083E0910707F0910807EC0DFD1D808127
:105360009181009739F482E090E0998388838DEFF2
:105370009FEFBCCFA50170E060E00E94354CE0914A
:105380000707F0910807EC0DFD1DF28281E090E027
:105390009983888390E080E0A9CFCF92DF92EF924B
:1053A000FF920F931F93CF93DF93860F971FFC01FC
:1053B000028113818091070790910807892B81F062
:1053C00082E090E0FA01918380838CEF9FEFDF9180
:1053D000CF911F910F91FF90EF90DF90CF900895A4
:1053E000C801B0E0A0E00197A109B1098F3F9F4F2C
:1053F000A105B10540F082E090E0FA01918380833D
:105400008EEF9FEFE4CF7A0183E1809F6001819F5F
:10541000D00C1124C6010E941A35EC01009741F40A
:1054200082E090E0F701918380838DEF9FEFCFCFF3
:10543000A60170E060E00E94354CD0930807C0934D
:10544000070710930A070093090790E080E02FEF09
:105450003FEF41E061E070E08017910741F481E0A7
:1054600090E0F7019183808390E080E0B0CF3A8BA9
:10547000298B1B864C877E876D87188A1F8601962D
:105480006396EACFCF92DF92EF92FF920F931F9332
:10549000CF93DF93EC01D12CC12C10E000E0F12C74
:1054A000E12C6A816017110609F0CCF483E0689F53
:1054B000B0011124AE014F5E5F4FC7010E947F35DE
:1054C000009721F02FEF3FEF3A8B298BDF91CF919F
:1054D0001F910F91FF90EF90DF90CF900895E8819A
:1054E000F981EC0DFD1D438154818D859E85489F7A
:1054F0009001499F300D589F300D1124C90101962C
:105500000115110519F44F8144FD049661E070E026
:105510000E94C733E816F90608F47C010F5F1F4F9D
:105520008BE0C80ED11CBDCFF894209105073091B7
:10553000060781E02115310509F080E0232B09F0F1
:10554000789408952F923F924F925F926F927F923C
:105550008F929F92AF92BF92CF92DF92EF92FF9283
:105560000F931F93CF93DF933C01660E771EF301D9
:10557000828193814C01B12CA12CC0910707D0915D
:105580000807209769F021E030E0609109077091E9
:105590000A078617970710F030E020E0232BD1F49C
:1055A00082E090E0FA01918380838EEF9FEFDF919C
:1055B000CF911F910F91FF90EF90DF90CF90BF9010
:1055C000AF909F908F907F906F905F904F903F90A3
:1055D0002F9008958092C6049092C704A092C804A8
:1055E000B092C90463E1689F9001699F300D112456
:1055F000C20FD31FF3018181833040F082E090E03D
:10560000FA019183808386EF9FEFD1CF2A012B810E
:105610003C81232BF1F4288139819F8191FF2EC099
:10562000232B09F46FC020910C079A81422F490F58
:105630005527551FBA0141E050E06138710514F05B
:1056400050E040E0452B09F45DC02A87920F90930B
:105650000C078150823008F481C066DF882309F48A
:10566000D8C0F3018181813009F48DC008F47BC07A
:10567000823009F4C6C090E080E0ADC0232B09F46D
:1056800041C020910B079A81E22FE90FFF27FF1FEE
:1056900041E050E0ED3FF10514F050E040E0452BD3
:1056A00089F12A87920F90930B07D3CFA081B18104
:1056B000A20FB31F11966C91060F111D0196295F61
:1056C0003F4F8417950794F38D859E85089F1001A1
:1056D000099F300C189F300C1124C114D104D1F44F
:1056E0008F8184FF17C00E941534F5E02F0E311C06
:1056F00021E08215930508F420E0A701455F5F4F84
:1057000021110EC082E090E0F2019183808387EF47
:105710009FEF4DCF0E9415342FEF221A320AE8CFA7
:1057200088819981E80EF91EF70114830383FFEF46
:10573000CF1ADF0A7A018A818C151D0409F00CF456
:105740008CCFE881F981EE0DFF1D428150E030E001
:1057500020E010E000E090E080E0B3CFF12CE12CFD
:10576000D12CC12CE8CF81E090E09C838B83EADAD6
:10577000882309F480CF81E090E00E941F2380E419
:105780000E942D2378CF89899A89019661F083E060
:1057900090E09C838B8382E090E00E941F2380E452
:1057A0000E94272368CF8D819E812091BC04309177
:1057B000BD0482179307D1F46091C0047091C104B5
:1057C000AE014F5E5F4F8091BE049091BF040E9476
:1057D0009E360097E1F2789422E030E0F2013183C6
:1057E0002083892B99F08DEF9FEFE1CE89288A28BD
:1057F0008B2869F6029758F6CE0144DE188A1F8678
:10580000E8CF82E090E09C838B8335CF90E080E00E
:10581000CECE82E090E0F2019183808385EF9FEF0E
:10582000C6CE8F929F92AF92BF92CF92DF92EF92AD
:10583000FF920F931F93CF93DF93EA018C01060F22
:10584000171FF8018181833098F082E090E09983FE
:10585000888386EF9FEFDF91CF911F910F91FF908B
:10586000EF90DF90CF90BF90AF909F908F90089572
:105870008091070790910807892B61F081E090E003
:105880002091090730910A07232B11F490E080E062
:10589000892B39F482E090E0998388838EEF9FEF23
:1058A000DACF42DE882309F4E0C0F801818181303B
:1058B00009F496C0E8F0823099F4209109073091FC
:1058C0000A07E0910707F091080790E080E041E0C7
:1058D00050E02817390709F0BEC034DA811117C02B
:1058E000789481E090E09983888390E080E0B3CF62
:1058F0002091090730910A07E0910707F091080706
:1059000090E080E041E050E02817390741F481E061
:1059100090E00E941F2380E40E942D23E1CF638149
:105920007481672B11F05483438301967396ECCFF7
:10593000E0910707F0910807E00FF11F2381348100
:1059400022303105D9F4218932892F3F3F4FB1F4FC
:10595000258136814091BC045091BD042417350740
:1059600061F5AF014F5E5F4F6091C0047091C1045B
:105970008091BE049091BF040E949E36EFEFCE1A34
:10598000DE0AEE0AFE0A0D5E1F4F40910907509194
:105990000A0770E060E0C416D506E606F70644F58F
:1059A000009731F27894892B09F49BCF82E090E044
:1059B000998388838DEF9FEF4ECFC114D104E1040A
:1059C000F104E1F622303105C8F6CF015BDDE0914C
:1059D0000707F0910807E00FF11F108A1786CECF56
:1059E00010E000E090E080E0C12CD12C7601CDCF1A
:1059F0000097C1F610E000E0812C912C540183E067
:105A0000E82EF12C1AC0E0910707F0910807E00F8B
:105A1000F11F83819481029749F4F482E38282E04A
:105A200090E00E941F2380E40E942723FFEF8F1A3B
:105A30009F0AAF0ABF0A0D5E1F4F80910907909120
:105A40000A07B0E0A0E088169906AA06BB06DCF2B9
:105A500090E080E0A7CF638174816230710511F41A
:105A6000548343830196739634CF82E090E0998308
:105A7000888385EF9FEFEFCE0097B9F48FEFFB019E
:105A800080832091C6043091C70443E1429FC00146
:105A9000439F900D1124E0910707F0910807E80F4C
:105AA000F91F8285FB01818308950C94D62288E03A
:105AB00090E0FA019183808390E080E00895109255
:105AC000060710920507E7E0F7E086E0DF011D9288
:105AD0008A95E9F785EC98E2909304078093030791
