:1000000079C000009FC000009DC000009BC00000A0
:1000100099C0000097C0000095C0000093C0000088
:1000200091C000008FC000008DC000008BC0000098
:1000300089C0000087C0000085C0000083C00000A8
:100040000C94E0387FC000000C94D73B0C94093C22
:1000500079C0000077C0000075C0000073C00000C8
:100060000C94C3376FC00000028988083EABAAAA6F
:10007000AABE000000803F07634236B79BD8A71A8C
:1000800039685618AEBAAB558C1D3CB7CC5763BD1A
:100090006DEDFD753EF6177231BF000000803F0028
:1000A0000000000800020100000304070000000037
:1000B0000000000001020408102040800102040832
:1000C00010200102040810200404040404040404A1
:1000D0000202020202020303030303030000000002
:1000E000250028002B0000000000240027002A0023
:1000F0002F352E3C11241FBECFEFD8E0DEBFCDBF81
:1001000013E0A0E0B1E0E8EBF9E702C005900D9242
:10011000A631B107D9F728E0A6E1B3E001C01D92EE
:10012000AF32B207E1F710E0CAE7D0E004C0219790
:10013000FE010E94AB3CC837D107C9F70E94872F48
:100140000C94DA3C5DCFCF92DF92EF92FF926B017D
:100150007C01C114D104E104F10469F4809100012F
:10016000811109C080910201909103010E94A03485
:1001700081E080930001C601880F991F880F991FA5
:1001800080509F4FFF90EF90DF90CF9008950097A1
:1001900081F0FC012181211104C040EA56E861E0B0
:1001A00070E0FC01828193810E94AF3490E080E096
:1001B000089588E090E008954F925F926F927F9249
:1001C0008F929F92AF92BF92CF92DF92EF92FF9267
:1001D0000F931F93CF93DF930097C9F12801390143
:1001E0007A01EC01402F8A819B810E942D358A8102
:1001F0009B81DC01ED91FC910084F185E02D099556
:10020000892B01F16701812C912C54018A819B81FA
:10021000DC01ED91FC910084F185E02D0995892B9D
:1002200091F184149504A604B70469F18A819B8135
:10023000DC01ED91FC910284F385E02D09958F3F5F
:100240009807C1F484E0F70111928A95E9F788E0F4
:1002500090E0DF91CF911F910F91FF90EF90DF9091
:10026000CF90BF90AF909F908F907F906F905F9056
:100270004F900895FFEF8F1A9F0AAF0ABF0AD60169
:100280008D936D01C3CF90E080E0E3CF8F929F927A
:10029000AF92BF92CF92DF92EF920F931F93CF93C3
:1002A000DF930097F1F06A01EC018A819B810E9443
:1002B000B2348A819B81DC01ED91FC910280F38153
:1002C000E02DA801B60109958A819B8160E0E110CB
:1002D00001C061E00E94BC34882389F082508230E2
:1002E00088F088E090E0DF91CF911F910F91EF901F
:1002F000DF90CF90BF90AF909F908F90089590E047
:1003000080E0F1CF84E090E0EECF0895611102C06B
:100310000C94443A6130E1F362E0FACF662319F0BD
:1003200061E00C94803A60E0FCCFCF92DF92EF92D4
:10033000FF92CF93882351F16A017B01CFEFC80F61
:1003400020E030E0A901CB01B6010E94873087FF91
:1003500011C0C701B60190580E94F8309B01AC0152
:100360006C2F70E090E080E0CF91FF90EF90DF90F5
:10037000CF90B2C0C701B6010E94F3308C2FCF914D
:10038000FF90EF90DF90CF900C94C039CF91FF9009
:10039000EF90DF90CF9008950F931F938B019C01F6
:1003A00083E036952795179507958A95D1F70A5ECC
:1003B0001C4F462F477021E030E0F90102C0EE0FDC
:1003C000FF1F4A95E2F7AF01F80120812423CB01FA
:1003D0000196211102C090E080E01F910F910895D5
:1003E0000F931F938B019C0183E0369527951795FA
:1003F00007958A95D1F7677081E090E001C0880F7A
:100400006A95EAF7F801EA5EFC4F2081452B31F44A
:100410008095822380831F910F910895822BFACFBC
:100420002F923F924F925F926F927F928F929F9204
:10043000AF92BF92CF92DF92EF92FF920F931F93F2
:10044000CF93DF93D62EC72E782E692E49015A01FD
:10045000280161E08D2D0E94443ACD2DDC2D8E01C6
:100460000F5F1F4FA8016D2D7C2D872D962DB8DFB6
:1004700020E030E0A901C201B7010E9477321816CE
:1004800064F4C201B7010E94F8302B01C501B40128
:100490000E94F830A201CE0123D0C801DF91CF9194
:1004A0001F910F91FF90EF90DF90CF90BF90AF9092
:1004B0009F908F907F906F905F904F903F902F9084
:1004C0000895882341F08150682F70E090E080E02B
:1004D00050E040E085CF0895862FB9010C94C039D3
:1004E0009C01FC01E056FF4FE491E33061F140F4E0
:1004F000E13011F1E23021F160E0822F0C94803A7A
:10050000E730C1F1E83009F441C0E430A9F7809147
:1005100080008C7F82608093800090918100907E2B
:100520009061692B6093810050938700409386000F
:100530008091800080621BC084B5806884BDDCCF60
:1005400084B58062FBCF809180008C7F8260809335
:10055000800090918100907E9061692B6093810072
:10056000509387004093860080918000806880933C
:100570008000C2CF8091B00080688093B0008091ED
:10058000B100887F682B6093B100B6CF8091B00036
:100590008062F3CF90E080E008950F931F9300975F
:1005A00009F489C06115710509F485C000914702FD
:1005B000109148022091490230914A020E3F1F4F8C
:1005C0002F4F3F4F09F068C04FEF5FEFBA014093E4
:1005D0004702509348026093490270934A02409147
:1005E0004702509148026091490270914A02DC0131
:1005F0001296ED91FC9180819181A281B3818093CB
:10060000990390939A03A0939B03B0939C038481D6
:100610009581A681B7818093950390939603A093CB
:100620009703B093980380859185A285B3858093C5
:10063000910390939203A0939303B09394038485C2
:100640009585A685B78580938D0390938E03A0939F
:100650008F03B09390031092890310928A03109233
:100660008B0310928C030E946E1283E992E19093A7
:10067000200380931F0390932203809321030E9401
:100680005D11009731F421E030E030939E03209318
:100690009D031F910F910895009147021091480208
:1006A0002091490230914A02DB010D931D932D9355
:1006B0003C93139794CF8FEF9FEFEBCF8F929F9246
:1006C000AF92BF92CF92DF92EF92FF921F93CF93A0
:1006D000DF934B015C011091A00382E090E09093C6
:1006E0009E0380939D0381149104A104B10441F4FD
:1006F0008091A003811104C080919F03C1E081110A
:10070000C0E0C12CD12C76018091A003811106C0DC
:1007100080919F03811102C0CC23D9F083E090E047
:1007200090939E0380939D03CC2381F1CCE9DFEF6E
:10073000111102C00E94F715CE01DF91CF911F91D8
:10074000FF90EF90DF90CF90BF90AF909F908F90F1
:1007500008956AE070E080E090E00E944F3980E107
:10076000C80E87E2D81EE11CF11C8FEF8816980690
:10077000A806B80631F0C1E08C149D04AE04BF0495
:1007800008F0C0E080E00E949111BECFD0E0C0E050
:10079000CFCFCF92DF92EF92FF920F931F93CF9321
:1007A000DF938F3F910511F008F051C020919D0318
:1007B00030919E032330310539F020919D03309113
:1007C0009E032130310531F424E030E030939E0364
:1007D00020939D036A017B01EC0182309105A8F012
:1007E00011E0AE01C701B6010E945C11AB01BC0172
:1007F000CE011123F9F0DF91CF911F910F91FF905E
:10080000EF90DF90CF900C9420188C01000F111FF7
:10081000015E1C4FD8018D919C91892B09F30E9498
:100820002A180297E9F6D801ED91FC91CE010995BD
:10083000182FD7CF0E94421890E080E0DF91CF912F
:100840001F910F91FF90EF90DF90CF9008958FEF61
:100850009FEFF4CF80E00C949111CF93DF9386E06B
:1008600090E090939E0380939D030E94EA11EC0117
:10087000EFE1F3E084E0DF011D928A95E9F70E9441
:100880008F1510929E0310929D03CE01DF91CF91A0
:10089000089580919F03089580918803089560933F
:1008A0004702709348028093490290934A0290E075
:1008B00080E00895CF92DF92EF92FF926B017C016E
:1008C0009F7720E030E040E859E50E94873087FFBD
:1008D0002BC020E030E040E05FE3C701B6010E949A
:1008E000773287FD0EC020E030E040E05FE3C701D3
:1008F000B6010E941030FF90EF90DF90CF900C94E3
:10090000613120E030E040E05FEBC701B6010E94BA
:100910007732181684F420E030E0A901C701B6014F
:100920000E947B326B017C01C701B601FF90EF9002
:10093000DF90CF90089520E030E040E05FE3C70112
:10094000B6010E940F30FF90EF90DF90CF900C9493
:1009500074304F925F926F927F928F929F92AF927C
:10096000BF92CF92DF92EF92FF920F931F93CF939C
:10097000DF93CDB7DEB7A5970FB6F894DEBF0FBEF5
:10098000CDBF80910F088150823008F053C383E0BF
:1009900080930F0880910E088150823008F04CC37C
:1009A00083E080930E0880910D088150823008F01A
:1009B00045C383E080930D08C0902001D0902101B1
:1009C000E0902201F0902301A70196016091B50704
:1009D0007091B6078091B7079091B8070E94873051
:1009E000882341F0C092B507D092B607E092B707CE
:1009F000F092B8078CE08987C12CEE24E39401E0E3
:100A000010E020E030E0AE01475F5F4F66E370E04A
:100A10008091AB079091AC0739DC8987811110C3B5
:100A2000CC24C394E12C04E010E020E030E0AE01DF
:100A30004F5F5F4F66E370E08091AB079091AC072A
:100A4000BBDB84E0FE013196DE01159601900D922C
:100A50008A95E1F78D819E819D838E838F81988514
:100A60009F8388872091440230914502AF81B885E9
:100A70000E94B13C6B017C01C092A107D092A207F9
:100A8000E092A307F092A40781E090E040911C015E
:100A900050911D0160911E0170911F01C416D50671
:100AA000E606F70610F090E080E020914602289FCD
:100AB000B001299F700D1124072E000C880B990B93
:100AC0000E9426319B01AC010E9410304B015C0159
:100AD000C701B6010E94243120E030E040E056E337
:100AE0000E947B329B01AC01C501B4010E94103011
:100AF0002091D0013091D1014091D2015091D30188
:100B00000E940F306B017C01C0927D07D0927E075E
:100B1000E0927F07F09280078091D4019091D501F7
:100B2000A091D601B091D70180938107909382075D
:100B3000A0938307B0938407C0928507D09286075D
:100B4000E0928707F09288078093890790938A073D
:100B5000A0938B07B0938C072091D9073091DA07C7
:100B60004091DB075091DC076091DC017091DD0161
:100B70008091DE019091DF010E947B326E8B7F8B32
:100B8000888F998F2091E0013091E1014091E2013D
:100B90005091E301C701B6010E947B326A8F7B8FBF
:100BA0008C8F9D8FC090DD07D090DE07E090DF072F
:100BB000F090E0074090E1075090E2076090E30773
:100BC0007090E407209104023091050240910602E2
:100BD00050910702C701B6010E947B324B015C01B4
:100BE000209108023091090240910A0250910B02B3
:100BF000C301B2010E947B329B01AC01C501B4016B
:100C00000E9410304B015C012091140230911502BA
:100C100040911602509117026E897F89888D998DB7
:100C20000E947B326A877B878C879D872091180280
:100C30003091190240911A0250911B026A8D7B8DEE
:100C40008C8D9D8D0E947B329B01AC016A857B85DA
:100C50008C859D850E9410309B01AC01C501B401BB
:100C60000E94103060937507709376078093770722
:100C70009093780720910C0230910D0240910E0262
:100C800050910F02C701B6010E947B326B017C01BB
:100C900020911002309111024091120250911302E2
:100CA000C301B2010E947B329B01AC01C701B601B6
:100CB0000E9410306B017C0120911C0230911D02BA
:100CC00040911E0250911F026E897F89888D998DF7
:100CD0000E947B324B015C01209120023091210265
:100CE00040912202509123026A8D7B8D8C8D9D8DC7
:100CF0000E947B329B01AC01C501B4010E941030FF
:100D00009B01AC01C701B6010E94103060937907C6
:100D100070937A0780937B0790937C0760938D078D
:100D200070938E0780938F0790939007C09028024E
:100D3000D0902902E0902A02F0902B0220E030E0CF
:100D4000A901C701B6010E94873087FF7CC1C70196
:100D5000B6010E9474306093990770939A0780934C
:100D60009B0790939C076091990770919A078091D7
:100D70009B0790919C070E945A10882309F468C130
:100D80001092990710929A0710929B0710929C0755
:100D9000C0909907D0909A07E0909B07F0909C072D
:100DA00020E030E0A901C701B6010E94873087FF2B
:100DB00071C1C701B60190580E94F8309095809596
:100DC000709561957F4F8F4F9F4F62307105810500
:100DD000910509F49DC3633071058105910509F4FE
:100DE00011C4613071058105910509F05CC1209144
:100DF0007D0730917E0740917F0750918007609179
:100E000081077091820780918307909184070E94E7
:100E10000F302091240130912501409126015091FD
:100E200027010E947B326B017C01C0929907D0920E
:100E30009A07E0929B07F0929C0720910401309161
:100E4000050140910601509107010E947B322091DB
:100E500028013091290140912A0150912B010E94D3
:100E60007B322B013C0140929D0750929E0760927D
:100E70009F077092A0078091FD079091FE07A091B7
:100E8000FF07B09100088A879B87AC87BD87809158
:100E9000010890910208A0910308B09104088E8780
:100EA0009F87A88BB98B2091140130911501409137
:100EB000160150911701C701B6010E947B322A85A5
:100EC0003B854C855D850E9410304B015C01209173
:100ED000F9073091FA074091FB075091FC07C301D5
:100EE000B2010E940F309B01AC01C501B4010E9408
:100EF00010304B015C0120913C0130913D0140914B
:100F00003E0150913F016E857F85888999890E94B5
:100F10007B329B01AC01C501B4010E940F302091CE
:100F200038013091390140913A0150913B010E94C2
:100F30008B304B015C0120913001309131014091A7
:100F40003201509133010E947B326A8B7B8B8C8BF8
:100F50009D8B2091340130913501409136015091A3
:100F600037016E857F85888999890E947B329B0134
:100F7000AC016A897B898C899D890E9410302091FF
:100F800044013091450140914601509147010E9432
:100F90007B32209118013091190140911A01509132
:100FA0001B010E9410306093910770939207809309
:100FB0009307909394074092F9075092FA07609232
:100FC000FB077092FC0720910C0130910D014091BC
:100FD0000E0150910F01C701B6010E947B32209192
:100FE0002C0130912D0140912E0150912F010E9432
:100FF0007B322A853B854C855D850E94103060934D
:10100000FD077093FE078093FF079093000880927E
:10101000010890920208A0920308B09204088091FF
:101020000F088823E1F1833009F46FC2082E000C09
:10103000990B37C080E0ACCC80E0B3CC80E0BACC78
:1010400018861F820FCDC701B6010E94613183CE81
:101050006091990770919A0780919B0790919C07E6
:10106000E4D781118DCE6091990770919A07809194
:101070009B0790919C0720E030E040E85FE40E94ED
:101080007B316093990770939A0780939B079093A5
:101090009C077ECEC701B6010E94F83096CE82E052
:1010A00090E080930F08C0909107D0909207E09055
:1010B0009307F09094078090300290903102A090B6
:1010C0003202B0903302A5019401C701B6010E941B
:1010D000773218160CF028C58092950790929607E3
:1010E000A0929707B092980769E070E080E090E0E6
:1010F00053D97C019093D8078093D7072091950707
:101100003091960740919707509198076091380267
:101110007091390280913A0290913B020E947B3299
:101120004B015C0120E030E04FE753E40E94873040
:1011300018160CF412C58092990790929A07A09203
:101140009B07B0929C0720E030E0A90160919907CD
:1011500070919A0780919B0790919C070E9477322B
:1011600087FF08C01092990710929A0710929B0768
:1011700010929C074091990750919A0760919B07A4
:1011800070919C07C701D1D860913C0270913D02DB
:1011900080913E0290913F028DDB6B017C01C092F9
:1011A0009907D0929A07E0929B07F0929C0720E063
:1011B00030E040E853E40E94873087FFDDC420E040
:1011C00030E0A901C701B6010E94773287FDD2C481
:1011D000C701B6010E94F830698769858BE09ED807
:1011E000C0909907D0909A07E0909B07F0909C07D9
:1011F00020E030E040E853E4C701B6010E948730A8
:1012000087FFBFC420E030E0A901C701B6010E94FA
:10121000773287FDB4C4C701B6010E94F8306987F0
:1012200069858CE07BD86091400270914102809189
:101230004202909143023EDB6B017C01C092990710
:10124000D0929A07E0929B07F0929C0720E030E052
:1012500040E853E40E94873087FF98C420E030E0E4
:10126000A901C701B6010E94773287FD8DC4C7016D
:10127000B6010E94F8306987698588E04FD880916F
:10128000950790919607A0919707B0919807809342
:10129000D9079093DA07A093DB07B093DC07C090DF
:1012A000DD07D090DE07E090DF07F090E007409088
:1012B000E1075090E2076090E3077090E407209107
:1012C000EC013091ED014091EE015091EF01C70129
:1012D000B6010E947B324B015C012091F0013091FC
:1012E000F1014091F2015091F301C301B2010E945A
:1012F0007B329B01AC01C501B4010E9410304B014F
:101300005C012091FC013091FD014091FE01509162
:10131000FF016E897F89888D998D0E947B326A8753
:101320007B878C879D87209100023091010240913C
:101330000202509103026A8D7B8D8C8D9D8D0E94DF
:101340007B329B01AC016A857B858C859D850E94E3
:1013500010309B01AC01C501B4010E9410304B015B
:101360005C012091E4013091E5014091E60150914A
:10137000E701C701B6010E947B326B017C0120911D
:10138000E8013091E9014091EA015091EB01C3017C
:10139000B2010E947B329B01AC01C701B6010E94E1
:1013A00010306B017C012091F4013091F5014091E6
:1013B000F6015091F7016E897F89888D998D0E9481
:1013C0007B322B013C012091F8013091F9014091D1
:1013D000FA015091FB016A8D7B8D8C8D9D8D0E9451
:1013E0007B329B01AC01C301B2010E9410309B0112
:1013F000AC01C701B6010E9410306093DD07709305
:10140000DE078093DF079093E0078092E1079092D8
:10141000E207A092E307B092E407C0905B03D0908C
:101420005C03E0905D03F0905E039FEFC91AD90A58
:10143000E90AF90AC0925B03D0925C03E0925D0373
:10144000F0925E03C114D104E104F10499F4809197
:101450005F0390916003A0916103B09162030196D4
:10146000A11DB11D80935F0390936003A09361035E
:10147000B09362038090630390906403A09065032F
:10148000B090660360915F03709160038091610387
:10149000909162030E942431A50194010E947B3245
:1014A00020E030E040E85FE40E947B322B013C0109
:1014B000C701B6010E942431A50194010E947B322C
:1014C0009B01AC01C301B2010E941030609357032D
:1014D000709358038093590390935A03A5960FB6BF
:1014E000F894DEBF0FBECDBFDF91CF911F910F915A
:1014F000FF90EF90DF90CF90BF90AF909F908F9034
:101500007F906F905F904F90089581E090E0C9CDFB
:101510008091F5079091F607A091F707B091F80731
:101520008093910790939207A0939307B0939407A9
:1015300020917D0730917E0740917F075091800771
:101540006091810770918207809183079091840751
:101550000E940F3020914C0130914D0140914E017D
:1015600050914F010E947B322091500130915101E6
:1015700040915201509153010E947B3220918D077E
:1015800030918E0740918F07509190070E94103044
:1015900020915401309155014091560150915701CD
:1015A0000E947B320E94DE32209158013091590115
:1015B00040915A0150915B010E947B3220915C0165
:1015C00030915D0140915E0150915F010E941030A9
:1015D0006093F5077093F6078093F7079093F807E9
:1015E00080910E08882331F0833049F0082E000CDA
:1015F000990B02C082E090E080930E0854CD81E008
:1016000090E0FACF20917D0730917E0740917F07CF
:1016100050918007609181077091820780918307C4
:10162000909184070E940F302091600130916101F8
:1016300040916201509163010E947B326B017C01F9
:101640008090E5079090E607A090E707B090E80744
:101650008091E9079091EA07A091EB07B091EC0720
:101660008A879B87AC87BD878091ED079091EE07B5
:10167000A091EF07B091F0078E879F87A88BB98B59
:101680008091F1079091F207A091F307B091F407D0
:101690008A8B9B8BAC8BBD8B2091B4013091B501B3
:1016A0004091B6015091B701C501B4010E947B324F
:1016B0002B013C012091B8013091B9014091BA0150
:1016C0005091BB016A857B858C859D850E947B320C
:1016D0009B01AC01C301B2010E9410302B013C01FF
:1016E0002091BC013091BD014091BE015091BF01DC
:1016F0006E857F85888999890E947B329B01AC0128
:10170000C301B2010E9410302B013C012091C001A5
:101710003091C1014091C2015091C3016A897B8916
:101720008C899D890E947B329B01AC01C301B2016F
:101730000E9410302B013C012091C4013091C50161
:101740004091C6015091C701C701B6010E947B328A
:10175000A30192010E9410302091CC013091CD0163
:101760004091CE015091CF010E947B32209118010F
:101770003091190140911A0150911B010E941030C3
:1017800060939107709392078093930790939407C7
:10179000209174013091750140917601509177014B
:1017A000C501B4010E947B322B013C0120917801DC
:1017B0003091790140917A0150917B016A857B8556
:1017C0008C859D850E947B329B01AC01C301B201D7
:1017D0000E9410302B013C0120917C0130917D0151
:1017E00040917E0150917F016E857F85888999891E
:1017F0000E947B329B01AC01C301B2010E941030F8
:101800002B013C01209180013091810140918201A6
:10181000509183016A897B898C899D890E947B32E2
:101820009B01AC01C301B2010E9410302B013C01AD
:101830002091A8013091A9014091AA015091AB01DA
:10184000C701B6010E947B329B01AC01C301B2010A
:101850000E9410306E8F7F8F88A399A320918401FE
:10186000309185014091860150918701C501B401F5
:101870000E947B322B013C0120918801309189012B
:1018800040918A0150918B016A857B858C859D856D
:101890000E947B329B01AC01C301B2010E94103057
:1018A0002B013C0120918C0130918D0140918E01E2
:1018B00050918F016E857F85888999890E947B323E
:1018C0009B01AC01C301B2010E9410302B013C010D
:1018D000209190013091910140919201509193019A
:1018E0006A897B898C899D890E947B329B01AC012E
:1018F000C301B2010E9410302B013C012091AC01C8
:101900003091AD014091AE015091AF01C701B601D8
:101910000E947B329B01AC01C301B2010E941030D6
:101920006AA37BA38CA39DA3209194013091950180
:101930004091960150919701C501B4010E947B32FC
:101940002B013C01209198013091990140919A011D
:1019500050919B016A857B858C859D850E947B3299
:101960009B01AC01C301B2010E9410302B013C016C
:1019700020919C0130919D0140919E0150919F01C9
:101980006E857F85888999890E947B329B01AC0195
:10199000C301B2010E9410302B013C012091A00133
:1019A0003091A1014091A2015091A3016A897B89E4
:1019B0008C899D890E947B329B01AC01C301B201DD
:1019C0000E9410302B013C012091B0013091B101F7
:1019D0004091B2015091B301C701B6010E947B3220
:1019E0009B01AC01C301B2010E9410302B013C01EC
:1019F0002091640130916501409166015091670129
:101A0000C501B4010E947B324B015C012091680149
:101A10003091690140916A0150916B016A857B8523
:101A20008C859D850E947B329B01AC01C501B40170
:101A30000E9410304B015C0120916C0130916D01CE
:101A400040916E0150916F016E857F8588899989DB
:101A50000E947B329B01AC01C501B4010E94103091
:101A60004B015C0120917001309171014091720134
:101A7000509173016A897B898C899D890E947B3290
:101A80009B01AC01C501B4010E9410304B015C0107
:101A90002091A4013091A5014091A6015091A70188
:101AA000C701B6010E947B329B01AC01C501B401A4
:101AB0000E9410306093E5077093E6078093E70774
:101AC0009093E8078E8D9F8DA8A1B9A18093E90717
:101AD0009093EA07A093EB07B093EC078AA19BA130
:101AE000ACA1BDA18093ED079093EE07A093EF0703
:101AF000B093F0074092F1075092F2076092F3071B
:101B00007092F40780910D08882331F0833049F0FA
:101B1000082E000C990B02C082E090E080930D0823
:101B2000C2CA81E090E0FACF8090340290903502F2
:101B3000A0903602B0903702A5019401C701B6010A
:101B40000E94873087FDC8CAC0929507D092960739
:101B5000E0929707F0929807C7CA80E090E0AFE75D
:101B6000B3E48093990790939A07A0939B07B0934F
:101B70009C07E9CA198631CB8FEF89872ECB19864E
:101B80004FCB8FEF89874CCB198676CB8FEF898728
:101B900073CB4F925F926F927F928F929F92AF9290
:101BA000BF92DF92EF92FF920F931F93CF93DF9339
:101BB00084E090E003D2E1E4F3E08BE2DF011D92E8
:101BC0008A95E9F780E090E0A0E8BFEB86A397A3B1
:101BD000A0A7B1A78AE097EDA3E2BBE382A393A3FA
:101BE000A4A3B5A388E59BEFAEE7B3E58483958313
:101BF000A683B78383E69EE0A2E4BDED808791874C
:101C0000A287B38788E399EAAEE0BCE5848795872D
:101C1000A687B78784EC9CE5A3E2B7E4808B918B21
:101C2000A28BB38BA5E3B3E0B383A283E3E2F3E03B
:101C30001196FC93EE9380E792E0918380839383E7
:101C40008283958384839783868391878087938714
:101C500082878FE098E0958784878DE098E097876A
:101C600086878EE098E0918B808B85E593E01596D2
:101C70009C938E93149785E493E013969C938E9394
:101C8000129787E593E017969C938E93169785E7B6
:101C9000882E87E0982E80E3F40111928A95E9F767
:101CA000C5EAD7E080E7DE011D928A95E9F780E07A
:101CB00090E5A3ECB8E48C879D87AE87BF87DD24D1
:101CC000D394D092140894E0A92E91E0B92EF50196
:101CD000848D958DA68DB78D888B998BAA8BBB8BA8
:101CE000412C512C3201439449825A826B827C826E
:101CF00050E040E060E070E0CB010E94A3009F83D1
:101D00008E8340EA56E861E070E0488759876A8729
:101D10007B870E94C700DD821CA6D09210084DA6CA
:101D20005EA66FA678AAE12CF12C8701A801970185
:101D300069E070E080E090E00E9410029BAB8AAB0B
:101D4000D9AA1CA2D09213084DA25EA26FA278A6B7
:101D500061E08BE00E948601D9A61C8ED092120809
:101D60004D8E5E8E6F8E78A261E08CE00E948601BF
:101D7000D9A21C8AD09211084D8A5E8A6F8A788E09
:101D800061E088E00E948601D98E8091D80190910F
:101D9000D901A091DA01B091DB018CAB9DABAEAB68
:101DA000BFAB8091240290912502A0912602B091B0
:101DB000270288AF99AFAAAFBBAF8CAF9DAFAEAFD4
:101DC000BFAFF50184819581A681B7818093F90722
:101DD0009093FA07A093FB07B093FC078485958541
:101DE000A685B7858093FD079093FE07A093FF0714
:101DF000B093000884AD95ADA6ADB7AD8093010852
:101E000090930208A0930308B093040880914801BE
:101E100090914901A0914A01B0914B018093F5073F
:101E20009093F607A093F707B093F8078091C80145
:101E30009091C901A091CA01B091CB018093E507AF
:101E40009093E607A093E707B093E8078093E9072C
:101E50009093EA07A093EB07B093EC078093ED070C
:101E60009093EE07A093EF07B093F0078093F107EC
:101E70009093F207A093F307B093F40780912C029C
:101E800090912D02A0912E02B0912F02F401848F27
:101E9000958FA68FB78FDF91CF911F910F91FF90F4
:101EA000EF90DF90BF90AF909F908F907F906F905A
:101EB0005F904F9008958091A507811119C081E02E
:101EC0008093A5078091A6079091A707A091A807E6
:101ED000B091A9070197A105B10551F48091AA0716
:101EE000882331F08091AB079091AC070E94850167
:101EF0008091D10781112EC081E08093D10780911C
:101F0000D2079091D307A091D407B091D50701973C
:101F1000A105B105F9F48091D6078823D9F069E0CD
:101F200070E080E090E00E94CC019093D80780930D
:101F3000D70740E050E0BA010E94950169E070E0E7
:101F400080E090E00E94CC019093D8078093D7075F
:101F50000E9461028091C907811103C081E08093D2
:101F6000C9078091C107811103C081E08093C10737
:101F70008091B907811103C081E08093B90708956A
:101F800060E070E080E89FE7089560E070E080E83E
:101F90009FE7089560E070E080E89FEF089560E0BB
:101FA00070E080E89FEF089560E070E080EC9FEFC4
:101FB000089560E070E080EC9FEF0895F5DF609396
:101FC0002108709322088093230890932408F1DF5E
:101FD000609315087093160880931708909318085B
:101FE000CFDF60931D0870931E0880931F089093A5
:101FF0002008CBDF6093190870931A0880931B08A0
:1020000090931C08C7DF609325087093260880937F
:10201000270890932808C3DF6093290870932A0843
:1020200080932B0890932C080895CF92DF92EF9223
:10203000FF92CF936B017C01AC019B0160911D0865
:1020400070911E0880911F08909120080E9487308F
:10205000C1E0882371F0A701960160912508709175
:10206000260880912708909128080E9487308111C6
:10207000C0E08C2FCF91FF90EF90DF90CF9008952C
:102080000F931F938B019C010027112720783F7726
:102090000115110520483F4749F4AB01BC016F779A
:1020A000772781E0452B462B472B09F480E01F91D1
:1020B0000F910895E5CF4F925F926F927F928F922A
:1020C0009F92AF92BF92CF92DF92EF92FF920F93C7
:1020D0001F93F894409078035090790360907A03AE
:1020E00070907B03C0906C03D0906D03E0906E0302
:1020F000F0906F03452B09F0A4C09B01AC0124199B
:1021000035094609570929013A01009174031091D4
:102110007503209176033091770348015901840CAF
:10212000951CA61CB71C80169106A206B306A0F447
:102130000091700310917103209172033091730329
:102140000F5F1F4F2F4F3F4F00937003109371038A
:1021500020937203309373038092740390927503FB
:10216000A0927603B09277030091700310917103EF
:10217000209172033091730380927C0390927D03CF
:10218000A0927E03B0927F0300938003109381039B
:1021900020938203309383036093780370937903D1
:1021A00080937A0390937B03A4ECB9E0A30192019E
:1021B0000E94C03C6C0D7D1D8E1D9F1D60936C03A5
:1021C00070936D0380936E0390936F0300914702A9
:1021D000109148022091490230914A020F3F1F4F4F
:1021E0002F4F3F4FF1F0009147021091480220918C
:1021F000490230914A020E3F1F4F2F4F3F4F89F047
:10220000C0904702D0904802E0904902F0904A0204
:1022100021E08C149D04AE04BF0408F420E0209358
:10222000880378941F910F91FF90EF90DF90CF90EB
:10223000BF90AF909F908F907F906F905F904F90E6
:1022400008954B015C0184189508A608B708A301FE
:102250009201261B370B480B590B64157505860533
:102260009705D0F082169306A406B50640F420E048
:1022700030E0A90181149104A104B10491F4A4EC0B
:10228000B9E00E94C03CA7019601261B370B480B02
:10229000590BCA01B901C5CF82169306A406B5062B
:1022A00070F7A4ECB9E0A50194010E94C03C6C0D4C
:1022B0007D1D8E1D9F1DB5CFFECECF93DF9300D029
:1022C00000D0CDB7DEB71C821B821A821982109211
:1022D0008403109285031092860310928703BE0137
:1022E0006F5F7F4FCE0103960E94492E69817A81EC
:1022F0008B819C810E943927009761F4BE016F5F3A
:102300007F4FCE0103960E94552E69817A818B8181
:102310009C812CD50F900F900F900F90DF91CF9153
:102320000895FF920F931F93CF93DF93082F60E0E0
:1023300070E0CB010E944F39FF24F3940E942426C1
:10234000EC01892B89F010E0CE3F8FEFD80769F0C0
:10235000002361F160E070E0CB010E944F3981E021
:1023600090E0892B59F322C011E023D5EC01892B91
:1023700021F0CE3F8FEFD80759F711111EC011E0A1
:10238000229609F410E00E94D525EC01892B21F05A
:10239000CE3F8FEFD807E1F6111111C011E0CE3F0B
:1023A0008FEFD80709F410E001110BC0CE01DF91C7
:1023B000CF911F910F91FF90089511E0E4CF11E0AC
:1023C000F3CF60E070E0CB010E944F391F25812FD1
:1023D00090E0C7CFCF93DF9380918803882321F0CB
:1023E00060E070E0CB014CD635D6D0E0C0E0892B60
:1023F00071F06AE070E080E090E00E944F3981E087
:1024000090DF28D62196C03D27E0D20781F727D656
:102410000E948D271092A00310929F03109299039F
:1024200010929A0310929B0310929C0310929503B2
:1024300010929603109297031092980310929103B2
:1024400010929203109293031092940310928D03B2
:1024500010928E0310928F031092900310928903B2
:1024600010928A0310928B0310928C034EEF5FEF51
:102470006FEF7FEF40934702509348026093490209
:1024800070934A0210928803ECE7F3E028E0DF0142
:102490001D922A95E9F71092780310927903109211
:1024A0007A0310927B0310927403109275031092BA
:1024B00076031092770310927003109271031092BA
:1024C00072031092730310926C0310926D031092BA
:1024D0006E0310926F03DF91CF9108951092AC03B9
:1024E0001092AD031092AE031092AF031092AB03A3
:1024F0008091B4039091B5039093AA038093A903AC
:102500001092A8031092A7031092A3031092A403A1
:102510001092A5031092A6031092B1031092B0037B
:1025200090E080E00895CF92DF92EF92FF920F93B8
:102530001F93CF938C01892B09F055C02091B403D0
:102540003091B5038091A9039091AA034091B403FF
:102550005091B5035093AA034093A9032817390754
:1025600081F01092A8031092A7031092A303109277
:10257000A4031092A5031092A6031092B103109227
:10258000B0038091B4039091B503019761F58091F8
:10259000B0039091B103892B21F480914B028111FA
:1025A00012C08091B0039091B1030197E1F4809142
:1025B000A3039091A403A091A503B091A603019752
:1025C000A105B10581F41092A3031092A403109207
:1025D000A5031092A60310924B0282E090E0909324
:1025E000B1038093B0038091B4039091B503019738
:1025F00009F01CC18091CA039091CB038017910709
:1026000009F014C18091C6039091C703A091C8033B
:10261000B091C903009709F409C12091C5032111A4
:102620000DC04091C6035091C7036091C8037091DB
:10263000C903452B462B472B09F4F8C02091B00362
:102640003091B1032230310509F0F0C02091A70389
:102650002111ECC0FC01C080D180E280F380809128
:10266000AB03882309F4D3C08091B7039091B803DA
:10267000892B09F4FDC02091B7033091B80381E0A4
:102680002230310509F080E02091B7033091B80382
:10269000C1E02130310549F02091B7033091B803F2
:1026A000C1E02230310509F0C0E0882309F456C0AA
:1026B0002091C1033091C2034091C3035091C403E0
:1026C000C701B6010E94773287FD14C02091C10373
:1026D0003091C2034091C3035091C4036091AC0395
:1026E0007091AD038091AE039091AF030E9487304B
:1026F00087FD22C02091C1033091C2034091C303E2
:102700005091C403C701B6010E947732181634F500
:102710002091C1033091C2034091C3035091C4037F
:102720006091AC037091AD038091AE039091AF03C3
:102730000E948730811112C08091B9039091BA0331
:10274000A091BB03B091BC03892B8A2B8B2B19F46E
:1027500081E08093A80381E08093A703CC2309F450
:1027600056C02091C1033091C2034091C3035091E0
:10277000C403C701B6010E94873087FF14C02091AF
:10278000C1033091C2034091C3035091C4036091CF
:10279000AC037091AD038091AE039091AF030E94A2
:1027A000773287FF22C02091C1033091C20340914C
:1027B000C3035091C403C701B6010E948730811141
:1027C00026C02091C1033091C2034091C3035091B0
:1027D000C4036091AC037091AD038091AE039091FE
:1027E000AF030E947732181694F48091B903909148
:1027F000BA03A091BB03B091BC03892B8A2B8B2B0E
:1028000019F481E08093A80381E08093A70381E01D
:102810009091A703911180E08093AB03C092AC0329
:10282000D092AD03E092AE03F092AF03012B09F01A
:1028300067C18091B0039091B103892BD9F41092B4
:10284000B6031092A70380914B02882379F082E0AF
:1028500090E09093B1038093B00310924B022091CB
:10286000B4033091B50381E0232BE9F080E01BC075
:1028700081E00ACF10924B028091B603882349F081
:102880001092A8031092B1031092B0031092B603F5
:10289000EDCF8091B4039091B503892BE1F0809145
:1028A000A7031092A7032091B0033091B103223007
:1028B000310509F45EC088F42115310509F448C0DA
:1028C0002130310509F4F3C01092A8031092A70338
:1028D0001092B60338C081E0E6CF2330310509F409
:1028E000B1C02430310581F74091A3035091A40376
:1028F0006091A5037091A60341155105610571050D
:1029000061F041505109610971094093A30350934B
:10291000A4036093A5037093A6034091A303509171
:10292000A4036091A5037091A603452B462B472B6A
:10293000D9F42091B2033091B3032130310509F06D
:1029400046C01092A8031092B1031092B0030CC0BD
:1029500080914B02882341F082E090E09093B10394
:102960008093B00310924B021092A1038091A803B0
:10297000CEC08823C9F38091B9039091BA03A09186
:10298000BB03B091BC03181619061A061B060CF0FF
:102990007DC08091B4039091B503019709F076C092
:1029A0008091B9039091BA03A091BB03B091BC038D
:1029B0008093A3039093A403A093A503B093A603CD
:1029C00083E090E09093B1038093B003CDCF40912A
:1029D000BD035091BE036091BF037091C003452BAE
:1029E000462B472BA9F01092A8038091BD0390912C
:1029F000BE03A091BF03B091C0038093A303909343
:102A0000A403A093A503B093A60381E090E0DACFDE
:102A1000882399F080914C0290914D02A0914E0232
:102A2000B0914F028093A3039093A403A093A503B6
:102A3000B093A60384E090E0C5CF1092A80382E093
:102A400090E0C0CF8091A3039091A403A091A5032F
:102A5000B091A6030097A105B10559F00197A1090E
:102A6000B1098093A3039093A403A093A503B0930B
:102A7000A6038091A3039091A403A091A503B09114
:102A8000A603892B8A2B8B2B09F06ECF80914C02E9
:102A900090914D02A0914E02B0914F02892B8A2B4A
:102AA0008B2B09F44ECF81E08093A803B3CF4091E4
:102AB000A3035091A4036091A5037091A60341154F
:102AC00051056105710561F04150510961097109B4
:102AD0004093A3035093A4036093A5037093A603AC
:102AE0004091A3035091A4036091A5037091A603A4
:102AF000452B462B472B09F037CF8111C7CF9FCFEE
:102B00008091A103882309F431CF8091A203CF9152
:102B10001F910F91FF90EF90DF90CF90089510924A
:102B2000AC031092AD031092AE031092AF0310925B
:102B3000AB031092B1031092B0031092AA0310924B
:102B4000A9031092CB031092CA031092A80310920B
:102B5000A7031092A3031092A4031092A50310924E
:102B6000A6031092A2031092A1031092C603109222
:102B7000C7031092C8031092C9031092C5031092A4
:102B8000C1031092C2031092C3031092C40388EED3
:102B900093E0A0E0B0E080934C0290934D02A093AC
:102BA0004E02B0934F021092BD031092BE031092DA
:102BB000BF031092C0031092B9031092BA0310928F
:102BC000BB031092BC031092B8031092B70381E0CC
:102BD00080934B021092B6031092B5031092B40387
:102BE0001092B3031092B20390E080E008958091B8
:102BF000B4039091B503892B19F580914B0288237A
:102C000051F08091B603811106C081E08093A20348
:102C10008093A10308952091B60330914B0281E087
:102C200090E0332311F090E080E030E082239323A2
:102C3000892B21F01092A20381E0EACF1092A10328
:102C4000089582E090E0FA01918380838FEF9FEFF7
:102C50000895CF93DF93EA01009711F00E94AD2809
:102C60001982188290E080E0DF91CF910895DB0116
:102C7000009719F48FEF8C9308952EEF2C930F96F5
:102C80008F30910508F033C0FC01E75BF94E0C94DE
:102C9000AB3C7516731671166F166D1669166B16AA
:102CA00067166516631660165C1658165E1677165C
:102CB00080E311968C93089589E2FBCF82E2F9CFED
:102CC00011961C92089583E2F4CF81E2F2CF81E164
:102CD000F0CF87E2EECF8AE2ECCF80E1EACF84E268
:102CE000E8CF88E2E6CF86E2E4CF81E3E2CF80E27C
:102CF000E0CF8091D8039091D90308959093D903A0
:102D00008093D80308958091D70308959091D703B5
:102D1000892B8093D7030895982F90958091D7039E
:102D200089238093D70308958091D60308958091D5
:102D3000D4039091D50308956115710559F0FB01F5
:102D400030E020E070E060E02417350719F06115ED
:102D5000710511F0CB010895A081B181A817B907C1
:102D600009F4BF012F5F3F4F3696EECF8091DA0313
:102D700081111CC062D268D29093CD038093CC03A2
:102D80000E94BD200E94CF209093D1038093D00356
:102D90000E943F250E9446259093CF038093CE0347
:102DA00081E08093DA0390E080E0089584EF9FEF64
:102DB00008958F929F92AF92BF92CF92DF92EF923F
:102DC000FF920F931F93CF93DF93CDB7DEB72A9770
:102DD0000FB6F894DEBF0FBECDBF1A8619861886CF
:102DE0001F821E821D821C821B821A821982809180
:102DF000DA0307EF1FEF882309F49CC08E010D5FF3
:102E00001F4F9E012B5F3F4FAE01495F5F4FBE01D9
:102E1000675F7F4F90E080E00E94BF268C010097A3
:102E200021F00596029708F0DBC029853A85211527
:102E3000310509F402C1ED80FE804B815C81B70150
:102E4000640F751F8F8198858617970708F4F5C062
:102E5000E20EF31ED7019C91903C09F07FC04230F6
:102E6000510508F47BC011968C914091D803509184
:102E7000D903452B09F49CC0913F08F071C02CE1A7
:102E8000290F2D3008F48BC02DE2290F203108F4D2
:102E900089C0903C21F48150823008F483C088E3DB
:102EA000890F8B3008F481C097E3C92E96E1D92EA3
:102EB000E1E2F6E16D817E81AE014F5F5F4F898572
:102EC0009A8509955C01C114D104A1F189809A8089
:102ED0008114910479F18B819C818815990508F4FE
:102EE00087C010E000E04B815C8170E060E0C701CA
:102EF0000E94D33C01151105E9F449815A81698585
:102F00007A858D819E81680F791FC501F60109952B
:102F1000E980FA800D811E812F81388549855A8587
:102F20006FEF7FEF81E090E00E945B268C01892BA0
:102F300009F056C0C8012A960FB6F894DEBF0FBE3E
:102F4000CDBFDF91CF911F910F91FF90EF90DF9058
:102F5000CF90BF90AF909F908F90089580E085CFE5
:102F600030E020E0220F331FF901E453FC4F0190C1
:102F7000F081E02D309709F497CF892F90E00995E3
:102F8000009709F491CFDC011296ED91FC91139713
:102F90001496CD90DC90309709F08CCF1FC021E0C3
:102FA00030E0E0CF22E030E0DDCF23E030E0DACFE8
:102FB000D12CC12CE9E2F6E19F3F09F07BCFE091F3
:102FC000CC03F091CD03309721F4C90104EF1FEF3A
:102FD0000CC08FEF90E009950097A9F604EF1FEF62
:102FE00089859A85009709F4A5CF0E94AD28A2CFC4
:102FF0000E9488278C0189859A850E94AD2870E0FF
:1030000060E0C4010E94212798878F830E94582680
:103010009E838D836F8178856115710559F0C80194
:103020000E94392A9A87898706EF1FEF892B09F0BA
:1030300058CF59CF08EF1FEF56CF08EF1FEFD0CF73
:103040002091DA03222319F020E00C94D42087EF9A
:103050009FEF08958091D8039091D90308950E941D
:103060004B250E94A524F5D0ECECF3E088E0DF01CD
:103070001D928A95E9F71092DA0390E080E00895B6
:103080000C94022321E040E050E0BA010C94D420DB
:1030900086E090E0FA019183808390E080E00895DB
:1030A00047E050E063E772E047CEDF92EF92FF9295
:1030B0000F931F93CF93DF938A01EC01C60FD71FA5
:1030C000E090DE03F090DF03D9800E947027D816CD
:1030D000190678F082E090E0F801918380838EEF0A
:1030E0009FEFDF91CF911F910F91FF90EF90DF90B5
:1030F0000895EF2841F482E090E0F8019183808305
:1031000084EF9FEFEECF89818093DD0390E00196FD
:10311000F8019183808390E080E0E3CFCF93DF9349
:10312000EA010E94B323882321F00E947D270E9498
:10313000B42382E090E0998388838BEF9FEFDF9147
:10314000CF910895CF93DF93EB0186E0FB011192BD
:103150008A95E9F78FEF8883D6DD8983E5DD8A8359
:10316000E6DD9D838C83DF91CF910895CF93DF932C
:10317000EA010E94B623811109C082E090E09983A0
:10318000888385EF9FEFDF91CF91089590E080E0F5
:10319000B5DD81E090E09983888390E080E0F3CF13
:1031A0000F931F93CF93DF93EA018C01060F171F34
:1031B0000E94B62381110BC082E090E0998388833E
:1031C00085EF9FEFDF91CF911F910F910895F80147
:1031D0008181823038F082E090E0998388838EEF9D
:1031E0009FEFF0CF81E090E089DD88E090E0998367
:1031F000888390E080E0E6CFCF93DF930097D1F40F
:10320000EB01FB01329686E0DF011D928A95E9F71A
:103210008FEF888385E089831A820E9470278B83D1
:103220000E946F279D838C8381E08E838F83DF9143
:10323000CF910895DF91CF911ACD80E598E19093D9
:10324000DC038093DB0308958091DB039091DC0322
:1032500008951092DC031092DB0308958091DE0341
:103260009091DF030895411105C061157105810535
:10327000910561F06093DE037093DF038093E003B8
:103280009093E1034093E20381E0089580E0089584
:10329000FF920F931F93CF93DF938A01EC01C60F28
:1032A000D71FF9800E947027F816190668F082E08F
:1032B00090E0F801918380838EEF9FEFDF91CF91B3
:1032C0001F910F91FF9008956C817D818E819F8168
:1032D0004B81C9DF811108C082E090E0F801918341
:1032E000808384EF9FEFEACF89818093DD0390E0B4
:1032F0000196F8019183808390E080E0DFCFCF9347
:10330000DF93EA01FC01E60FF71F64817581868176
:1033100097814381A8DF811109C082E090E0998301
:10332000888384EF9FEFDF91CF91089581E090E053
:103330009983888390E080E0F6CFEEEDF3E0408162
:10334000518162817381480F511D611D711D408340
:103350005183628373830895CF93C091DD034C2F13
:1033600050E06091DE037091DF0301960E94CA3C39
:103370008C2FE3DF1092DD03CF910895009799F42D
:103380008091DE039091DF032FEFFB012083892BD7
:1033900059F02091DD0330E02F5F3F4F24173507B0
:1033A00019F4CB01D9CF63CC0895009799F480919B
:1033B000DE039091DF032FEFFB012083892B59F06F
:1033C0002091DD0330E02F5F3F4F2417350719F4BC
:1033D000CB01C2CF4CCC089523E1AC01249FC001A6
:1033E000259F900D1124E091E703F091E803E80F89
:1033F000F91F238134812250310981E022303105C7
:1034000008F080E008950F931F93CF93DF9300910E
:10341000E9031091EA03D0E0C0E080E00C171D073B
:1034200049F491E0811190E0892FDF91CF911F91B4
:103430000F9108958111F5CFCE01CEDF2196EECF09
:10344000A091E703B091E803109729F12091E903D7
:103450003091EA0382179307F0F453E1589F9001EB
:10346000599F300D1124A20FB31FED91FC911197BC
:10347000309789F012968C91681768F48BE0689FFA
:10348000E00DF11D112480819181892B21F081E0D3
:103490009281491708F080E008959C0143E1429F22
:1034A000C001439F900D1124E091E703F091E803E0
:1034B000E80FF91F8385823091F481E090E0658107
:1034C000768140915002509151026417750711F4B2
:1034D00090E080E0892B19F081E0232B09F080E057
:1034E0000895EF92FF920F931F93CF93DF93EA011A
:1034F000FC01E60FF71F02811381E480F5804F2D58
:103500006E2DC8019DDF81110DC082E090E099838E
:1035100088838EEF9FEFDF91CF911F910F91FF90E6
:10352000EF900895C80158DF882339F082E090E0D9
:103530009983888388EF9FEFEECF10935702009313
:103540005602E0925802F092590281E090E099838D
:10355000888390E080E0DFCFCF92DF92EF92FF92FE
:103560000F931F93CF93DF937A01EC01C60FD71F00
:10357000C0905602D0905702009158021091590203
:10358000412F602FC6015CDF811110C082E090E006
:10359000F701918380838AEF9FEFDF91CF911F9195
:1035A0000F91FF90EF90DF90CF900895C60114DF48
:1035B000882341F082E090E0F7019183808388EFD7
:1035C0009FEFEBCF4C815D816E817F819A818981F4
:1035D0008F3F41F082E090E0F701918380838EEF8E
:1035E0009FEFDBCFE3E1EC9D9001ED9D300D1124C9
:1035F000E091E703F091E803E20FF31F0190F081FF
:10360000E02D2BE0029FE00DF11D11240190F081CF
:10361000E02D27E0129FE00DF11D1124808391839E
:103620008B81828343835483658376831F5F1093EA
:10363000590281E090E0F7019183808390E080E07F
:10364000ACCFEF92FF920F931F93CF93DF937A014A
:103650008C01060F171FC091E703D091E803209754
:1036600081F021E030E0F801828193814091E9030B
:103670005091EA038417950710F030E020E0232BE7
:1036800071F482E090E0F701918380838EEF9FEFE9
:10369000DF91CF911F910F91FF90EF90089543E13B
:1036A000489F9001499F300D1124C20FD31F94DE13
:1036B000882341F082E090E0F7019183808388EFD6
:1036C0009FEFE6CFF8012481358120383105C8F617
:1036D00087818111D6CF4181842F90E08F7E009722
:1036E00041F082E090E0F7019183808386EF9FEFC5
:1036F000CFCF4F833E832D832681288719862230A2
:1037000010F421E0288721E030E0F70131832083A5
:10371000BFCF88E090E0FA019183808390E080E061
:103720000895FB018FEF808381E181838FEF9FEF0D
:103730009383828380E890E0958384831682178246
:103740000895FB018FEF808391E0918382839383BF
:10375000848384E3858381E090E097838683089562
:10376000DF92EF92FF920F931F93CF93DF93EA01C3
:10377000FC01E60FF71F8181813071F082E090E05B
:10378000998388838FEF9FEFDF91CF911F910F91E6
:10379000FF90EF90DF90089582819381D4802581FE
:1037A000E680F7800091E7031091E8030115110509
:1037B00039F482E090E0998388838CEF9FEFE4CF27
:1037C0004091E9035091EA038417950738F082E0AD
:1037D00090E0998388838EEF9FEFD6CF892B39F0C5
:1037E00082E090E09983888386EF9FEFCDCF8D2D87
:1037F0008D7FB1F72130A1F781E0D11006C091E0B3
:10380000E916F10431F080E004C0E2E0EE16F104C4
:10381000D0F3882329F390E080E0DEDD882339F0BF
:1038200082E090E09983888388EF9FEFADCFF80125
:10383000D38681E08487F686E586108A178681E044
:1038400090E09983888390E080E09ECF4CE050E048
:103850006DE972E071CA8F929F92BF92CF92DF9210
:10386000EF92FF920F931F93CF93DF93EA01FC0136
:10387000E60FF71F828193810481B580E091E70311
:10388000F091E803309791F482E090E09983888387
:103890008CEF9FEFDF91CF911F910F91FF90EF90F1
:1038A000DF90CF90BF909F908F9008952091E90373
:1038B0003091EA038217930738F082E090E0998311
:1038C00088838EEF9FEFE6CF23E1289F6001299F39
:1038D000D00C1124EC0DFD1DE080F180E114F10409
:1038E00099F28281081748F78BE0089F8001112424
:1038F000E00EF11EF70180819181892B29F6BB2012
:10390000E1F2F7E0BF9E40011124C4010E94742837
:10391000F70191838083E091E703F091E803EC0DD8
:10392000FD1D0190F081E02DE00FF11F808191815C
:10393000009739F482E090E0998388838DEF9FEFC0
:10394000A9CFA40170E060E00E94D33C8091E7031E
:103950009091E803C80ED91EF60180819181080F6D
:10396000191FF801B28281E090E09983888390E08A
:1039700080E090CFAF92BF92CF92DF92FF920F93F1
:103980001F93CF93DF93EA01FC01E60FF71F8281BB
:103990009381F4800091E7031091E803011511056C
:1039A00081F482E090E0998388838CEF9FEFDF9130
:1039B000CF911F910F91FF90DF90CF90BF90AF906C
:1039C00008952091E9033091EA038217930738F0B4
:1039D00082E090E0998388838EEF9FEFE8CF2FEF0E
:1039E0002F0D2C3FA8F723E1289F6001299FD00CC1
:1039F00011240C0D1D1DF80180819181892B89F600
:103A0000FBE0FF9E50011124C5010E947428F801BB
:103A100091838083E091E703F091E803EC0DFD1DB5
:103A200080819181009739F482E090E099838883C6
:103A30008DEF9FEFBCCFA50170E060E00E94D33C0A
:103A4000E091E703F091E803EC0DFD1DF28281E0C7
:103A500090E09983888390E080E0A9CFCF92DF92B5
:103A6000EF92FF920F931F93CF93DF93860F971FD1
:103A7000FC01028113818091E7039091E803892B77
:103A800081F082E090E0FA01918380838CEF9FEFD8
:103A9000DF91CF911F910F91FF90EF90DF90CF902A
:103AA0000895C801B0E0A0E00197A109B1098F3FD6
:103AB0009F4FA105B10540F082E090E0FA019183AB
:103AC00080838EEF9FEFE4CF7A0183E1809F6001D6
:103AD000819FD00C1124C6010E947428EC0100972C
:103AE00041F482E090E0F701918380838DEF9FEFB6
:103AF000CFCFA60170E060E00E94D33CD093E803F2
:103B0000C093E7031093EA030093E90390E080E099
:103B10002FEF3FEF41E061E070E08017910741F443
:103B200081E090E0F7019183808390E080E0B0CF66
:103B30003A8B298B1B864C877E876D87188A1F8658
:103B400001966396EACFCF92DF92EF92FF920F93A6
:103B50001F93CF93DF93EC01D12CC12C10E000E038
:103B6000F12CE12C6A8170E006171707BCF0660F94
:103B7000771FAE014F5E5F4FC7010E94D9280097A3
:103B800021F02FEF3FEF3A8B298BDF91CF911F91DF
:103B90000F91FF90EF90DF90CF900895E881F98129
:103BA000EC0DFD1D438154818D859E85489F9001BC
:103BB000499F300D589F300D1124C9010196011500
:103BC000110519F44F8144FD049661E070E00E94F4
:103BD0002127E816F90608F47C010F5F1F4F8BE0E0
:103BE000C80ED11CBFCFF8942091E5033091E603B5
:103BF00081E02115310509F080E0232B09F078944C
:103C000008952F923F924F925F926F927F928F9280
:103C10009F92AF92BF92CF92DF92EF92FF920F935B
:103C20001F93CF93DF933C01660E771EF3018281D1
:103C300093814C01B12CA12CC091E703D091E803F2
:103C4000209769F021E030E06091E9037091EA0388
:103C50008617970710F030E020E0232BD1F482E0A4
:103C600090E0FA01918380838EEF9FEFDF91CF91F7
:103C70001F910F91FF90EF90DF90CF90BF90AF908A
:103C80009F908F907F906F905F904F903F902F907C
:103C9000089580925A0290925B02A0925C02B092C8
:103CA0005D0263E1689F9001699F300D1124C20F8E
:103CB000D31FF3018181833040F082E090E0FA016C
:103CC0009183808386EF9FEFD1CF2A012B813C81A6
:103CD000232BF1F4288139819F8191FF2EC0232B62
:103CE00009F46FC02091EC039A81422F490F5527A8
:103CF000551FBA0141E050E06138710514F050E001
:103D000040E0452B09F45DC02A87920F9093EC03A5
:103D10008150823008F481C066DF882309F4D8C05E
:103D2000F3018181813009F48DC008F47BC08230B9
:103D300009F4C6C090E080E0ADC0232B09F441C077
:103D40002091EB039A81E22FE90FFF27FF1F41E04B
:103D500050E0ED3FF10514F050E040E0452B89F1D3
:103D60002A87920F9093EB03D3CFA081B181A20F4A
:103D7000B31F11966C91060F111D0196295F3F4FDD
:103D80008417950794F38D859E85089F1001099FE0
:103D9000300C189F300C1124C114D104D1F48F8140
:103DA00084FF17C00E946F27F5E02F0E311C21E021
:103DB0008215930508F420E0A701455F5F4F2111AC
:103DC0000EC082E090E0F2019183808387EF9FEF45
:103DD0004DCF0E946F272FEF221A320AE8CF888139
:103DE0009981E80EF91EF70114830383FFEFCF1AC0
:103DF000DF0A7A018A818C151D0409F00CF48CCF3E
:103E0000E881F981EE0DFF1D428150E030E020E0B5
:103E100010E000E090E080E0B3CFF12CE12CD12C59
:103E2000C12CE8CF81E090E09C838B83ECDA88237F
:103E300009F480CF81E090E00E947E1680E40E9429
:103E40008C1678CF89899A89019661F083E090E099
:103E50009C838B8382E090E00E947E1680E40E9427
:103E6000861668CF8D819E8120915002309151023B
:103E700082179307D1F46091540270915502AE01FC
:103E80004F5E5F4F80915202909153020E94F82939
:103E90000097E1F2789422E030E0F2013183208350
:103EA000892B99F08DEF9FEFE1CE89288A288B2806
:103EB00069F6892B59F6CE0146DE188A1F86E8CFAF
:103EC00082E090E09C838B8335CF90E080E0CECE83
:103ED00082E090E0F2019183808385EF9FEFC6CE70
:103EE0008F929F92AF92BF92CF92DF92EF92FF920A
:103EF0000F931F93CF93DF93EA018C01060F171FD7
:103F0000F8018181833098F082E090E09983888382
:103F100086EF9FEFDF91CF911F910F91FF90EF9070
:103F2000DF90CF90BF90AF909F908F900895809139
:103F3000E7039091E803892B61F081E090E0209104
:103F4000E9033091EA03232B11F490E080E0892B00
:103F500039F482E090E0998388838EEF9FEFDACF87
:103F600042DE882309F4DFC0F8018181813009F441
:103F700095C0E8F0823099F42091E9033091EA038A
:103F8000E091E703F091E80390E080E041E050E049
:103F90002817390709F0BDC036DA811117C07894A7
:103FA00081E090E09983888390E080E0B3CF209116
:103FB000E9033091EA03E091E703F091E80390E030
:103FC00080E041E050E02817390741F481E090E0BB
:103FD0000E947E1680E40E948C16E1CF638174817A
:103FE000672B11F05483438301967396ECCFE091D5
:103FF000E703F091E803E00FF11F238134812230C1
:104000003105D9F4218932892F3F3F4FB1F4258101
:10401000368140915002509151022417350761F5C5
:10402000AF014F5E5F4F60915402709155028091D5
:104030005202909153020E94F829EFEFCE1ADE0A45
:10404000EE0AFE0A0D5E1F4F4091E9035091EA030C
:1040500070E060E0C416D506E606F7063CF500976A
:1040600031F27894892B09F49BCF82E090E0998318
:1040700088838DEF9FEF4ECFC114D104E104F1048A
:10408000E1F6232BD1F6CF015EDDE091E703F0915D
:10409000E803E00FF11F108A1786CFCF10E000E091
:1040A00090E080E0C12CD12C7601CECF0097C9F6EC
:1040B00010E000E0812C912C540183E0E82EF12CDB
:1040C0001AC0E091E703F091E803E00FF11F83814C
:1040D0009481029749F4F482E38282E090E00E94A6
:1040E0007E1680E40E948616FFEF8F1A9F0AAF0AA1
:1040F000BF0A0D5E1F4F8091E9039091EA03B0E083
:10410000A0E088169906AA06BB06DCF290E080E0E3
:10411000A8CF638174816230710511F454834383A5
:104120000196739635CF82E090E09983888385EF7E
:104130009FEFF0CE0097B9F48FEFFB0180832091C1
:104140005A0230915B0243E1429FC001439F900DB0
:104150001124E091E703F091E803E80FF91F82854D
:10416000FB01818308950C94371688E090E0FA01F2
:104170009183808390E080E008951092E60310928E
:10418000E503E7EEF3E086E0DF011D928A95E9F7AB
:1041900086E29CE19093E4038093E3030895809189
:1041A000E3039091E40308952F923F924F925F9220
:1041B0006F927F928F929F92AF92BF92CF92DF9237
:1041C000EF92FF920F931F93CF93DF93CDB7DEB79C
:1041D00060970FB6F894DEBF0FBECDBFF894E091A4
:1041E000E503F091E6033196F093E603E093E503EF
:1041F0007894A091E703B091E803BA83A98310975C
:1042000009F4FAC1E091E903F091EA03EF2B09F414
:10421000F3C128874B875C876D877E879A8789875C
:10422000B88BAF87312C212CF12C512C412C809153
:10423000E9039091EA032816390610F4FF2029F1CA
:10424000F8948091E5039091E60301979093E6033B
:104250008093E5037894C20160960FB6F894DEBFB0
:104260000FBECDBFDF91CF911F910F91FF90EF90C7
:10427000DF90CF90BF90AF909F908F907F906F9086
:104280005F904F903F902F900895B10190E080E0B3
:1042900087D4682EEF85F889878181FD3DC08381B1
:1042A00094810397C9F5258136813C832B838985C9
:1042B0009A852817390781F5C101EFD8782E882310
:1042C000A9F1AF85B8891F968D919C915097019661
:1042D00021E01D964D915C918417950709F020E02F
:1042E0002F83B12CA12CEF85F88982818A151B04BC
:1042F00019F014F0FF20E9F0F885FF2309F46CC1F0
:10430000AF85B88950961C921E921F97662021F0A7
:10431000B10190E080E046D4FFEF2F1A3F0A2F85CD
:1043200038892D5E3F4F388B2F8781CFB1E0BF8317
:10433000D8CFBED49E838D83E885EE23E9F0772025
:1043400009F43CC1AF85B8891F968D919C91892B4A
:1043500079F0BBE0BA9DC001BB9D900D1124AF85E3
:10436000B889ED91FC91E80FF91F85819681F5D60A
:10437000BFEFAB1ABB0AB7CF81E0772039F0EF85EA
:10438000F88927853089232B09F080E0F82EE12C6D
:10439000A114B10439F4AF85B8891796EC90E4FA0A
:1043A000EE24E0F8BBE0BA9D6001BB9DD00C112467
:1043B000882309F424C1AF85B889ED91FC91119748
:1043C000EC0DFD1D438154811D962D913C91429F22
:1043D000C001439F900D529F900D1124E1105DC0CC
:1043E00001969087878361E070E08781908529D569
:1043F000EF85F88921893289008111810C0D1D1DFD
:104400002F3F320709F44BC0BC01C9010E94392A71
:10441000D80116969C938E931597AF85B889ED9128
:10442000FC911197EC0DFD1D0581168101151105FB
:1044300009F4CDC0ED81FE810E0F1F1F1A968C91DD
:104440008A0DD8018C93E1102FC00F5F1F4FAF85ED
:10445000B889ED91FC91EC0DFD1D12870187AF85A8
:10446000B889ED91FC91EC0DFD1D85819681892B1C
:1044700009F4A4C080915002909151022B813C819B
:104480002817390709F465C0772011F001851285D6
:10449000912C812C1A8219824AC00596A2CF24D66B
:1044A000F80196838583B9CF8B859C85AD85BE85C4
:1044B000F80181839283A383B4830B5F1F4FC7CF1F
:1044C000E080F180E80CF91CD70113966D917C9186
:1044D00014978C918F3F09F473C0E1E0F0E002C0C3
:1044E000EE0FFF1F8A95E2F7CF01092E000CAA0BF1
:1044F000BB0BFB0140815181628173818423952331
:10450000A623B72321E0892B8A2B8B2B09F420E0EB
:10451000D8012C93D70111968C91080F111DE981B8
:10452000FA813196FA83E983F7E08F0E911CAF850B
:10453000B889ED91FC91EC0DFD1D828129813A81B4
:104540008217130611F00CF0BBCF772011F0128701
:1045500001873F81332391F1AF85B889ED91FC91BB
:10456000EC0DFD1D61E070E0878190856AD4AF8518
:10457000B889ED91FC91EC0DFD1DE780F08445813B
:104580005681E1E0F0E0662011F0F0E0E0E00D811E
:104590001E819C01B101882799278E1B9F0B8BD30D
:1045A0002C01892B59F0EF85F88980819181C80E03
:1045B000D91ED60115968D919C91CFD5F12CD8CED0
:1045C000F701418150E0C8010E94CA3CA3CF86EFA9
:1045D000482E55245A94CCCEEF85F889878590894A
:1045E0000196908B8787258536858217930709F07A
:1045F0008DCE108A17868ACE512C412C21CE10E008
:1046000000E02DCF2F923F924F925F926F927F9258
:104610008F929F92AF92BF92CF92DF92EF92FF92D2
:104620000F931F93CF93DF938091E7039091E8035B
:1046300010E000E0892BA9F0D6DA0AEF1FEF8823FB
:1046400081F02090E9033090EA03C091E703D09114
:10465000E803D12CC12C10E000E02C143D04A9F497
:104660007894C801DF91CF911F910F91FF90EF9047
:10467000DF90CF90BF90AF909F908F907F906F9082
:104680005F904F903F902F900895C6010E944D1A61
:10469000882309F18B819C810397E9F48F859889A0
:1046A000892BC9F0B60190E080E07AD221E030E0B9
:1046B000882311F030E020E044245524421A530AA4
:1046C000B12CA12C912C812C8A818815190409F018
:1046D00038F4188A1F864FEFC41AD40A6396BDCFE8
:1046E000E881F981EA0DFB1D85819681892BA1F175
:1046F00061E070E087819085A4D33C01D9D28C0120
:10470000E881F981EA0DFB1D81859285258136813D
:10471000200F311FAC01421B530B9A01478150857A
:10472000421B530B70E060E00E94D33CE881F981AA
:10473000EA0DFB1DE780F084458156819301B601A7
:10474000C201B9D28C01892B39F0E881F981EA0DD7
:10475000FB1D8581968101D55FEF851A950A8BE057
:10476000A80EB11CB1CF3FCA789408952F923F9202
:104770004F925F926F927F929F92AF92BF92CF9231
:10478000DF92EF92FF920F931F93CF93DF9300D0AE
:1047900000D000D0CDB7DEB70091E7031091E80359
:1047A000992493940115110509F43EC0A090E903E2
:1047B000B090EA0318DA982E8823B1F11092E8033A
:1047C0001092E7031092EA031092E9031092EB03B0
:1047D0001092EC038FEF9FEFDC0180935A029093CD
:1047E0005B02A0935C02B0935D0278947AD31E833F
:1047F0000D83C12CD12C7601C501B0E0A0E08983E6
:104800009A83AB83BC8322242A94322C89819A8197
:10481000AB81BC81C816D906EA06FB06F4F0C801D4
:104820009CD480E40E948C16892D26960FB6F894AD
:10483000DEBF0FBECDBFDF91CF911F910F91FF90D3
:10484000EF90DF90CF90BF90AF909F907F906F9050
:104850005F904F903F902F900895AD81BE81159647
:104860008D919C91169720915002309151028217A0
:104870009307D1F451968D919C91E9D5ED81FE81FC
:1048800080819181B12CA12C412C512C3201892B9A
:1048900089F5BFEFCB1ADB0AEB0AFB0AED81FE813B
:1048A0007396FE83ED83B2CFC114D104E104F10409
:1048B00029F7892B19F7ED81FE81818992898F3F34
:1048C000980709F024D5AD81BE8152963C922E9274
:1048D0005197D4CF8A0D9B1DDC018D919C9100973F
:1048E00009F03BD4BFEF4B1A5B0A6B0A7B0AEBE083
:1048F000AE0EB11CAD81BE818D919C911197129627
:104900004C9150E070E060E044165506660677066C
:104910000CF323D4BECFCF93DF93EA0127DF8111BD
:1049200009C082E090E09983888385EF9FEFDF9153
:10493000CF91089581E090E00E947E1681E090E0A2
:104940009983888390E080E0F2CF10DF1092E40337
:104950001092E303089542E050E065EE72E00C949B
:104960009C16FF920F931F93CF93DF938A01EC0164
:10497000C60FD71FF980B4D20897F816190671F040
:1049800068F082E090E0F801918380838EEF9FEFE2
:10499000DF91CF911F910F91FF9008956C817D81E0
:1049A0008E819F814B810E943319811108C082E062
:1049B00090E0F8019183808384EF9FEFE9CFF98045
:1049C0000E942E194F2D50E0BE01685F7F4F0E945C
:1049D000CA3C89810E949D1981E090E0F801918391
:1049E000808390E080E0D4CFDF92EF92FF920F932C
:1049F0001F93CF93DF938A01EC01C60FD71F0E944C
:104A00002E197C01D9806CD2DD2059F0029721E06B
:104A100030E0D816190619F010F030E020E0232B12
:104A200079F482E090E0F801918380838EEF9FEF2C
:104A3000DF91CF911F910F91FF90EF90DF9008953C
:104A4000EF2841F482E090E0F8019183808384EFC5
:104A50009FEFEECFF9800E942E194F2D50E0BE013E
:104A60006E5F7F4F0E94CA3C89810E949D1981E040
:104A700090E0F8019183808390E080E0D9CF8BEAC9
:104A800094E29093EE038093ED0308958091ED03FB
:104A90009091EE0308950895FC0111821082938392
:104AA00082830895DB011D921C92DC011296ED9128
:104AB000FC9113977183608313967C936E93129786
:104AC0000895FC0180819181DB018D939C93A081ED
:104AD000B181109741F08D919C9191838083892BB6
:104AE00011F4F383E2830895FC0180819181DB015D
:104AF0008D939C93892B11F47383628371836083FC
:104B00000895FC0111821082938382830895CF93CC
:104B1000DF9300D0CDB7DEB71A821982F894BE01B8
:104B20006F5F7F4F84EF93E0CCDF89819A8100979C
:104B300009F013D389819A81892B89F7BE016F5FB0
:104B40007F4F88EF93E0BDDF89819A81009709F05C
:104B500004D389819A81892B89F778940F900F90DB
:104B6000DF91CF910895CF93DF9300D0CDB7DEB71B
:104B70001A821982F894BE016F5F7F4F80EF93E035
:104B8000A0DF89819A81009709F0E7D289819A8113
:104B9000892B89F778940F900F90DF91CF9108952A
:104BA00081E0089590E080E00895EF92FF920F93E6
:104BB0001F93CF93DF9300D0CDB7DEB71A8219824F
:104BC0008091EF0307EF1FEF8823A1F1F894BE0156
:104BD0006F5F7F4F88EF93E074DF789489819A81CB
:104BE000EE24E394F12C892B51F4F894BE016F5F0D
:104BF0007F4F84EF93E065DF7894F12CE12C89817D
:104C00009A810EEF1FEF0097A9F0FC0142815381BA
:104C100064E070E072D68C01892B61F0F8946981B0
:104C20007A81C701880F991F880F991F8C509C4F5C
:104C30005BDF7894C8010F900F90DF91CF911F91A7
:104C40000F91FF90EF9008950F931F93CF93DF93F1
:104C500000D000D0CDB7DEB71C821B821A82198229
:104C60008091EF0307EF1FEF8823C1F0AE014D5F86
:104C70005F4F64E070E0CE010196B2D68C01892BC3
:104C800069F4E981FA818B819C8193838283F89412
:104C900069817A8180EF93E005DF7894C8010F90F5
:104CA0000F900F900F90DF91CF911F910F9108956A
:104CB000B7D7049608958F929F92AF92BF92CF92EA
:104CC000DF92EF92FF920F931F93CF93DF9300D069
:104CD000CDB7DEB71A821982BC016F5F7F4F633098
:104CE000710598F0AA24AA94BA2CC5010F900F90D0
:104CF000DF91CF911F910F91FF90EF90DF90CF90B8
:104D0000BF90AF909F908F9008954115510551F33A
:104D1000480159018A016C01CBDF8815990511F70B
:104D2000E114F104F9F28E0D9F1DA816B906D0F218
:104D30008091EF038823F1F0F894B5016450710974
:104D40009701AE014F5F5F4FC8010496DED65C014C
:104D5000892B71F489819A81F80193838283C6013A
:104D6000880F991F880F991FB8018C509C4F9ADEAD
:104D70007894BBCF87EFA82EBB24BA94B6CFAF925E
:104D8000BF92CF92DF92EF92FF920F931F93CF9338
:104D9000DF9300D0CDB7DEB71A821982892B09F0D4
:104DA00047C06115710509F443C04115510509F467
:104DB0003FC02115310509F43BC001151105C1F1B2
:104DC0008091EF038823B9F179016A015B01F894BE
:104DD000BE016F5F7F4F80EF93E073DE789489812F
:104DE0009A81009759F1DC0112966D917C91A8018E
:104DF0000496A4D68C01E981FA81D501ED93FC9348
:104E0000828193810496F6019183808351DFD701DB
:104E10008D939C93C8010F900F90DF91CF911F91BC
:104E20000F91FF90EF90DF90CF90BF90AF900895DB
:104E30000FEF1FEFEFCF07EF1FEFECCF0EEF1FEFDE
:104E4000E9CFCF93DF93EC01672B71F4F2D68C1787
:104E50009D0760F0E5D62496C80FD91FE4D68C0FC5
:104E60009D1FDF91CF910895E1D6F1CF90E080E0D2
:104E7000F8CF0F931F93CF93DF932091EF0321116E
:104E80002BC08B01EC0184EF93E006DE88EF93E00A
:104E900003DE80EF93E000DE97D00097C1F4C9D61F
:104EA00070E060E0CEDF4EE552E062E070E081D17C
:104EB000009769F480915E0290915F02CCD6B801B0
:104EC000CE0101D5009719F421E02093EF03DF9183
:104ED000CF911F910F91089584EF9FEFF8CFA6C651
:104EE000A8C6CF93DF93A8D6EC01892B11F40FDE6F
:104EF0003ADECE01DF91CF910895CF93DF939CD618
:104F0000EC01892B09F403DECE01DF91CF910895E6
:104F100080915E0290915F020895CF93DF9380911C
:104F2000EF03D0E0C0E08823D1F09AD6EC01892BC2
:104F3000B1F4EDDD18DE80915E0290915F02E7D161
:104F4000E8D2EC01892B59F484EF93E0DADD88EFA5
:104F500093E0D7DD80EF93E0D4DD1092EF03CE0134
:104F6000DF91CF910895EF92FF920F931F93CF930C
:104F7000DF93EC017A018B010F5F1F4F0E9DA001A3
:104F80000F9D500D1E9D500D112470E060E00E9499
:104F9000D33C90E080E0F0E0E0E02FEFE816F90687
:104FA00039F4DF91CF911F910F91FF90EF90089509
:104FB0001A8219822883309711F0D283C183019617
:104FC000FE01C00FD11FEACFCF92DF92EF92FF9286
:104FD0000F931F93CF93DF9308E315E00C7F43E01B
:104FE00050E060E672E086E692E01AD480E6E82EB1
:104FF00082E0F82E96E6C92E92E0D92ECFEBD5E0CE
:10500000D7014D915D917D01F601619171916F0123
:10501000198308835D834C835B834A837F836E831C
:105020009B012F5F3F4F249FC001259F900D349F10
:10503000900D1124998788870115110511F0C80179
:1050400092DF88859985080F191F2A96F6E6EF16D4
:10505000F2E0FF06A9F6EEEFF3E087E391E0DF016F
:105060009C011D9221503040E1F71092FD031092F7
:10507000FC031092DE051092DD051092E2051092FD
:10508000E1051092E0051092DF051092E405109200
:10509000E3051092E6051092E5051092E8051092DE
:1050A000E7051092EC051092EB051092EA051092BC
:1050B000E9051092EE051092ED051092F0051092A0
:1050C000EF051092BC051092BB051092BE05109220
:1050D000BD0590E080E0DF91CF911F910F91FF908F
:1050E000EF90DF90CF9008950097F1F0F894A6E646
:1050F000B2E0EFEBF5E030E020E04D915D91481734
:105100005907A8F0428153814115510581F08AE089
:10511000829FF001839FF00D1124E154FA4F8081AA
:105120009181009759F4789490E080E008952F5F82
:105130003F4F3A962330310501F7F5CFDC01119648
:105140006D917C91718360834150510953834283F7
:10515000FC012193CF0178940895009749F1DC0177
:105160008E91853041F4E091BD05F091BE053097F8
:10517000F9F0CD0109948530D8F4282F30E0F89467
:105180008FEF8C938AE0829FF001839FF00D1124B2
:10519000E154FA4F8081918112969C938E931197DE
:1051A000B183A083828193810196938382837894D3
:1051B0000895CF92DF92EF92FF920F931F93CF93B8
:1051C000DF939C0181E094E08C7F4115510509F447
:1051D0009BC02115310509F497C06115710509F4CB
:1051E00093C07A01AB01B9016D5F7F4F6C7F9B016A
:1051F0002F5F3F4F249F8001259F100D349F100D7E
:105200001124F8942091DD053091DE05232B59F40B
:105210002091E5053091E6052115310569F120174A
:10522000310708F058C02091E7053091E805232B9D
:1052300091F42091E5053091E605820F931F2091AE
:10524000EF053091F0052115310509F441C0201713
:10525000310708F056C07894CFEFDFEF86EF9FEF6D
:10526000F701D183C083DF91CF911F910F91FF9000
:10527000EF90DF90CF900895C3E0D0E0C090FC03A2
:10528000D090FD0324E331E02C193D0920173107AC
:1052900010F32AE02C9FF0012D9FF00D1124E15412
:1052A000FA4F91838083558344835383428377836A
:1052B000668311870087009709F055DE0C0D1D1DD0
:1052C0001093FD030093FC03789490E080E0C8CF36
:1052D000C4E0D0E0D3CFC3E0D0E02AE02C9FF001BF
:1052E0002D9FF00D1124E154FA4F91838083558353
:1052F00044835383428377836683009729F333DEA5
:10530000E3CFC4E0D0E0E9CF8FEF9FEFACCF9C01BB
:105310000397029708F069C0F89484E09AE0482F58
:1053200050E0241735070CF44DC091E08AE0829FCD
:10533000F001839FF00D1124E154FA4F1182108285
:105340001582148213821282178216829923B1F178
:105350008091DD059091DE05892BA9F42091E5056A
:105360003091E6052115310571F08091FC03909193
:10537000FD03821B930B9093FD038093FC0310921B
:10538000E6051092E5058091E7059091E805892BE7
:10539000A9F42091EF053091F0052115310571F048
:1053A0008091FC039091FD03821B930B9093FD036E
:1053B0008093FC031092F0051092EF05789490E032
:1053C00080E00895949FF001959FF00D1124E15421
:1053D000FA4F40815181452B31F440855185452B51
:1053E00011F481509CCF90E0A1CF8FEF9FEF0895F3
:1053F0004115510549F1009739F16115710521F108
:10540000F8942091BB053091BC05232BB9F4209171
:10541000BD053091BE05232B89F49093BC05809384
:10542000BB057093BE056093BD05789425E030E020
:1054300090E080E0FA0131832083089578942FEF83
:105440003FEF86EF9FEFF6CF8FEF9FEF0895059721
:1054500069F4F8941092BC051092BB051092BE0539
:105460001092BD05789490E080E008958FEF9FEF53
:1054700008956115710519F4F0E0E0E011C0853080
:10548000910581F4E091BB05F091BC053097A1F343
:10549000CB0101960995009779F3FC0185E0819392
:1054A000CF0108959C01235031092230310520F7A6
:1054B0002AE0289FD001299FB00D1124A154BA4F92
:1054C0002D913C911197232BB9F216962D913C9179
:1054D00017972617370780F2F89412962D913C9172
:1054E00013972115310529F0ED91FC911197309713
:1054F00011F47894C1CF4181528111965C934E93FF
:105500002150310913963C932E93129781937894EE
:10551000C7CFE5E3F5E086E8DF011D928A95E9F75C
:10552000EEEFF3E087E391E0DF019C011D92215053
:105530003040E1F71092FD031092FC03EFEBF5E031
:1055400082E3DF011D928A95E9F7EBEBF5E084E059
:10555000DF011D928A95E9F790E080E00895CF93EE
:10556000DF93C0916C02D0916D02CF3FDC0759F4FC
:1055700010D490936D0280936C0297FF09C0D09372
:105580006D02C0936C0284EF9FEFDF91CF9108957D
:1055900090E080E0FACF8230910528F48093F10505
:1055A00090E080E008958FEF9FEF08954F925F9213
:1055B0006F927F92AF92BF92CF92DF92EF92FF9263
:1055C0000F931F93CF93DF9300D0CDB7DEB71A822E
:1055D0001982009709F479C06115710509F475C045
:1055E00020916C0230916D0207EF1FEF2F3F3F4F6C
:1055F00009F445C06B015C01412C512C3201F12CA6
:10560000E12C10E000E09E012F5F3F4FA6014E19F4
:105610005F09B5016E0D7F1D80916C0290916D0246
:105620001CD4892B09F04BC089819A81009741F4E1
:10563000E114F10429F42091F105222309F442C078
:10564000E80EF91EEC14FD04D0F480E8481684E856
:1056500058068EE16806710420F560E070E0CB0129
:105660000E944F392AE0420E511C611C711C0A3FF6
:105670004FEF140721F0043F8FEF1807A1F4C80182
:105680000F900F90DF91CF911F910F91FF90EF90AE
:10569000DF90CF90BF90AF907F906F905F904F90D2
:1056A000089501EF1FEF81E090E0013F2FEF120717
:1056B00011F090E080E0892B09F4A5CFE0CF04EF52
:1056C0001FEFDDCF0AEF1FEFDACF0FEF1FEFD7CFBE
:1056D0004F925F926F927F92AF92BF92CF92DF9282
:1056E000EF92FF920F931F93CF93DF9300D0CDB72C
:1056F000DEB71A821982009709F479C06115710525
:1057000009F475C020916C0230916D0207EF1FEF14
:105710002F3F3F4F09F445C06B015C01412C512CD8
:105720003201F12CE12C10E000E09E012F5F3F4F91
:10573000A6014E195F09B5016E0D7F1D80916C02A7
:1057400090916D023DD3892B09F04BC089819A81DC
:10575000009741F4E114F10429F42091F10522238A
:1057600009F442C0E80EF91EEC14FD04D0F480E800
:10577000481686E9580688E96806710420F560E055
:1057800070E0CB010E944F392AE0420E511C611C8F
:10579000711C0E3F4FEF140721F0043F8FEF1807E5
:1057A000A1F4C8010F900F90DF91CF911F910F913D
:1057B000FF90EF90DF90CF90BF90AF907F906F9071
:1057C0005F904F90089502EF1FEF81E090E0023F5D
:1057D0002FEF120711F090E080E0892B09F4A5CF9C
:1057E000E0CF04EF1FEFDDCF0EEF1FEFDACF0FEFAB
:1057F0001FEFD7CF80916C0290916D028F3F980779
:1058000049F0BED2892B49F48FEF9FEF90936D0240
:1058100080936C0290E080E0089584EF9FEF0895FC
:10582000CF92DF92EF92FF920F931F93CF93DF936C
:1058300021E04115510509F020E0415051092111A5
:105840002CC0DC01FB01D12CC12C21E022C03FEF98
:10585000C31AD30A7D010D911D91E701EA80FB80F7
:10586000E016F106A8F420813181E280F380F18214
:10587000E08233832283ED90FC9011979D012250AA
:105880003109E901F982E88211961C930E9320E018
:105890003296C416D506D8F2D2CFDF91CF911F91A0
:1058A0000F91FF90EF90DF90CF900895FC01680F6B
:1058B000791F90E080E0E617F70709F40895219139
:1058C000820F911DF8CF2091F205211113C047DE00
:1058D000009791F41092F8051092F7051092F605D2
:1058E0001092F5051092F4051092F30521E0209333
:1058F000F205089584EF9FEF0895AF92BF92CF9283
:10590000DF92EF92FF920F931F93CF93DF93009755
:1059100009F460C04630510508F45CC02091F205DE
:10592000C7EFDFEF222309F449C08C01060F171FD0
:10593000F801C080D180C114D10409F44EC0960191
:105940002A5F3F4F4217530708F447C07C018091FC
:10595000F7059091F80593838283B6016C5F7F4FC2
:105960005801A60EB71EC801A1DFF50191838083FF
:1059700064E070E0C8011ADEEC01892BF9F481E0E3
:1059800090E009DEB601C801049610DEEC01892B17
:1059900091F462E070E0C50109DEEC01892B59F455
:1059A000C701DBDB8091F7059091F8050196909394
:1059B000F8058093F70590E080E0EDDDCE01DF9102
:1059C000CF911F910F91FF90EF90DF90CF90BF90FC
:1059D000AF900895CFEFDFEFF1CFC9EFDFEFEECF5C
:1059E0006F927F928F929F92AF92BF92CF92DF92EF
:1059F000EF92FF920F931F93CF93DF9300D000D0CD
:105A0000CDB7DEB7009709F47AC04115510509F406
:105A100076C02091F20507EF1FEF222309F44DC055
:105A20003A017B015C0164E070E0CE01019650DE3A
:105A30008C01892B09F041C009811A8101151105DA
:105A400009F45AC0480186E0880E911CB701680D20
:105A5000791D80916E0290916F020BDD6C010097B1
:105A600009F450C0A70170E060E00E94D33C898136
:105A70009A81AB81BC81EC0CFD1CF7018193919361
:105A8000A193B1937F0181E090E085DDB801C7016A
:105A90001FDE892B31F562E070E0C701800F911F96
:105AA00017DE8C01892BE9F490E080E074DDF501CC
:105AB000D182C082F30191828082C8010F900F9041
:105AC0000F900F90DF91CF911F910F91FF90EF906A
:105AD000DF90CF90BF90AF909F908F907F906F900E
