:1000000015C1000044C1000042C1000040C1000011
:100010003EC100003CC100003AC1000038C10000F0
:1000200036C1000034C1000032C1000030C1000000
:100030002EC100002CC100002AC1000028C1000010
:1000400026C1000024C1000022C1000020C1000020
:100050001EC100001CC100001AC100000C94D63E55
:1000600016C100000C94AA420C94E04210C100009A
:100070000EC100000CC100000AC1000008C1000050
:1000800006C1000004C1000002C1000000C1000060
:100090000C9436430C946C43FAC000000C94B53DAC
:1000A000F6C00000F4C00000F2C00000F0C0000084
:1000B000EEC00000ECC00000EAC00000E8C0000094
:1000C000E6C00000E4C000000C9455340C94C24318
:1000D0000C94F843DCC000000C944E440C9484440F
:1000E000D6C00000028988083EABAAAAAABE0000BA
:1000F00000803F07634236B79BD8A71A3968561865
:10010000AEBAAB558C1D3CB7CC5763BD6DEDFD75DC
:100110003EF6177231BF000000803F0000000A0B5E
:1001200002090C0D0E080703040100000000000086
:1001300000000000000000000000000000000000BF
:10014000000000000000000012111000000000007C
:10015000000000000000000000000000000000009F
:1001600000000102102020080810204010204080CC
:10017000020102010804020101020408102040806B
:1001800080402010080402018004020180402010F9
:100190000804020108040201010204081020408042
:1001A0000102040810204080050505050705080820
:1001B0000808020202020A0A0808040404040101F1
:1001C0000101010101010303030303030303040706
:1001D00007070C0C0C0C0C0C0C0C0202020206069D
:1001E0000606060606060B0B0B0B0B0B0B0B000093
:1001F0002200250028002B002E00310034000201CF
:100200000000050108010B01000021002400270067
:100210002A002D0030003300010100000401070115
:100220000A01203B094395432144AD4411241FBEDC
:10023000CFEFD1E2DEBFCDBF00E00CBF15E0A0E004
:10024000B2E0EAEBFAE800E00BBF02C007900D92C3
:10025000A233B107D9F72CE0A2E3B5E001C01D92AB
:10026000AC36B207E1F711E0C6E1D1E000E006C02C
:1002700021970109802FFE010E942A45C131D10733
:1002800080E00807A9F70E9477350C945B45B8CE4B
:10029000CF92DF92EF92FF926B017C01C114D104E7
:1002A000E104F10469F480910002811109C0809198
:1002B0000202909103020E94913A81E08093000231
:1002C000C601880F991F880F991F80509E4FFF907D
:1002D000EF90DF90CF900895009781F0FC0121818D
:1002E000211104C040EA56E861E070E0FC0182811F
:1002F00093810E94A03A90E080E0089588E090E029
:1003000008954F925F926F927F928F929F92AF92D9
:10031000BF92CF92DF92EF92FF920F931F93CF93F2
:10032000DF930097C9F1280139017A01EC01402FD0
:100330008A819B810E941E3B8A819B81DC01ED9119
:10034000FC910084F185E02D1995892B01F167015D
:10035000812C912C54018A819B81DC01ED91FC91CF
:100360000084F185E02D1995892B91F18414950471
:10037000A604B70469F18A819B81DC01ED91FC91AF
:100380000284F385E02D19958F3F9807C1F484E02E
:10039000F70111928A95E9F788E090E0DF91CF911B
:1003A0001F910F91FF90EF90DF90CF90BF90AF9093
:1003B0009F908F907F906F905F904F900895FFEF88
:1003C0008F1A9F0AAF0ABF0AD6018D936D01C3CF62
:1003D00090E080E0E3CF8F929F92AF92BF92CF9256
:1003E000DF92EF920F931F93CF93DF930097F1F07B
:1003F0006A01EC018A819B810E94A33A8A819B81D8
:10040000DC01ED91FC910280F381E02DA801B601A1
:1004100019958A819B8160E0E11001C061E00E9432
:10042000AD3A882389F08250823088F088E090E0ED
:10043000DF91CF911F910F91EF90DF90CF90BF9000
:10044000AF909F908F90089590E080E0F1CF84E08E
:1004500090E0EECF0895611102C00C941741613015
:10046000E1F362E0FACF662319F061E00C945341A6
:1004700060E0FCCFCF92DF92EF92FF92CF93882380
:1004800051F16A017B01CFEFC80F20E030E0A901F4
:10049000CB01B6010E94783687FF11C0C701B601B3
:1004A00090580E94E9369B01AC016C2F70E090E0FF
:1004B00080E0CF91FF90EF90DF90CF90B2C0C70166
:1004C000B6010E94E4368C2FCF91FF90EF90DF9021
:1004D000CF900C94DD3FCF91FF90EF90DF90CF90C5
:1004E00008950F931F938B019C0183E03695279508
:1004F000179507958A95D1F70E5C1A4F462F4770CE
:1005000021E030E0F90102C0EE0FFF1F4A95E2F74B
:10051000AF01F80120812423CB010196211102C0F3
:1005200090E080E01F910F9108950F931F938B012E
:100530009C0183E036952795179507958A95D1F705
:10054000677081E090E001C0880F6A95EAF7F801D2
:10055000EE5CFA4F2081452B31F480958223808315
:100560001F910F910895822BFACF2F923F924F92B5
:100570005F926F927F928F929F92AF92BF92CF9233
:10058000DF92EF92FF920F931F93CF93DF93D62EBC
:10059000C72E782E692E49015A01280161E08D2D60
:1005A0000E941741CD2DDC2D8E010F5F1F4FA8013A
:1005B0006D2D7C2D872D962DB8DF20E030E0A90130
:1005C000C201B7010E946838181664F4C201B7016D
:1005D0000E94E9362B01C501B4010E94E936A2014F
:1005E000CE0123D0C801DF91CF911F910F91FF90D1
:1005F000EF90DF90CF90BF90AF909F908F907F90C3
:100600006F905F904F903F902F900895882341F016
:100610008150682F70E090E080E050E040E085CFAE
:100620000895862FB9010C94DD3F9C01FC01E45E26
:10063000FE4FE491E150E231E0F4F0E08827EC5D18
:10064000FC4F8F4F0C942A4536033D03400357035C
:100650006C03390381038D039103A803BD03D20307
:10066000E903FE03390313042A043F0484B58068B8
:1006700084BD60E0822F0C94534184B58062F8CF32
:10068000809180008C7F82608093800080918100C7
:10069000807E8061682B6093810050938700409337
:1006A000860080918000806880938000E2CF8091F6
:1006B00080008C7F82608093800080918100807EAA
:1006C0008061682B6093810050938700409386007F
:1006D000809180008062E8CF809180008C7F826072
:1006E0008093800080918100807E8061682B609380
:1006F000810050938700409386008091800088603D
:10070000D3CF8091B00080688093B0008091B10019
:10071000887F682B6093B100ACCF8091B00080627D
:10072000F3CF809190008C7F8260809390008091C5
:100730009100807E8061682B6093910050939700B8
:10074000409396008091900080688093900091CFB4
:10075000809190008C7F82608093900080919100C6
:10076000807E8061682B6093910050939700409346
:100770009600809190008062E8CF809190008C7FFD
:1007800082608093900080919100807E8061682BD0
:100790006093910050939700409396008091900051
:1007A0008860D3CF8091A0008C7F82608093A0006E
:1007B0008091A100807E8061682B6093A10050939E
:1007C000A7004093A6008091A00080688093A000BD
:1007D00050CF8091A0008C7F82608093A000809198
:1007E000A100807E8061682B6093A1005093A700D8
:1007F0004093A6008091A0008062E8CF8091A00085
:100800008C7F82608093A0008091A100807E8061B7
:10081000682B6093A1005093A7004093A60080919D
:10082000A0008860D3CF809120018C7F826080936C
:10083000200180912101807E8061682B60932101DD
:100840005093270140932601809120018068809376
:1008500020010FCF809120018C7F82608093200146
:1008600080912101807E8061682B609321015093EB
:10087000270140932601809120018062E8CF80917A
:1008800020018C7F82608093200180912101807EF5
:100890008061682B609321015093270140932601CA
:1008A000809120018860D3CF90E080E008950F937D
:1008B0001F93009709F489C06115710509F485C07B
:1008C00000912704109128042091290430912A04D2
:1008D0000E3F1F4F2F4F3F4F09F068C04FEF5FEFA4
:1008E000BA0140932704509328046093290470931D
:1008F0002A044091270450912804609129047091A2
:100900002A04DC011296ED91FC9180819181A281F3
:10091000B3818093C3059093C405A093C505B0939C
:10092000C60584819581A681B7818093BF05909388
:10093000C005A093C105B093C20580859185A285AD
:10094000B3858093BB059093BC05A093BD05B09380
:10095000BE0584859585A685B7858093B705909358
:10096000B805A093B905B093BA051092B3051092DB
:10097000B4051092B5051092B6050E94421887E69C
:1009800098E190933C0580933B0590933E058093BE
:100990003D050E943117009731F421E030E030939B
:1009A000C8052093C7051F910F9108950091270452
:1009B000109128042091290430912A04DB010D9321
:1009C0001D932D933C93139794CF8FEF9FEFEBCF15
:1009D0008F929F92AF92BF92CF92DF92EF92FF924F
:1009E0001F93CF93DF934B015C011091CA0582E006
:1009F00090E09093C8058093C70581149104A104E9
:100A0000B10441F48091CA05811104C08091C905E7
:100A1000C1E08111C0E0C12CD12C76018091CA05C2
:100A2000811106C08091C905811102C0CC23D9F083
:100A300083E090E09093C8058093C705CC2381F1B3
:100A4000CCE9DFEF111102C00E94CB1BCE01DF9178
:100A5000CF911F91FF90EF90DF90CF90BF90AF901C
:100A60009F908F9008956AE070E080E090E00E948F
:100A7000453F80E1C80E87E2D81EE11CF11C8FEFD4
:100A800088169806A806B80631F0C1E08C149D04BB
:100A9000AE04BF0408F0C0E080E00E946517BECF3E
:100AA000D0E0C0E0CFCFCF92DF92EF92FF920F93D2
:100AB0001F93CF93DF938F3F910511F008F051C042
:100AC0002091C7053091C8052330310539F02091B8
:100AD000C7053091C8052130310531F424E030E0FC
:100AE0003093C8052093C7056A017B01EC01823071
:100AF0009105A8F011E0AE01C701B6010E943017C0
:100B0000AB01BC01CE011123F9F0DF91CF911F9110
:100B10000F91FF90EF90DF90CF900C94F41D8C011B
:100B2000000F111F055C1A4FD8018D919C91892BE4
:100B300009F30E94FE1D0297E9F6D801ED91FC91A0
:100B4000CE011995182FD7CF0E94161E90E080E095
:100B5000DF91CF911F910F91FF90EF90DF90CF9099
:100B600008958FEF9FEFF4CF80E00C946517CF933B
:100B7000DF9386E090E09093C8058093C7050E94BC
:100B8000BE17EC01EBE3F5E084E0DF011D928A95EE
:100B9000E9F70E94631B1092C8051092C705CE01A9
:100BA000DF91CF9108958091C90508958091B20594
:100BB00008956093270470932804809329049093E8
:100BC0002A0490E080E008952F923F924F925F9226
:100BD0006F927F928F929F92AF92BF92CF92DF924D
:100BE000EF92FF920F931F93CF93DF9300D000D02B
:100BF000CDB7DEB72B013C0129833A834B835C835D
:100C00001701DE82CD82F701C080D180E280F380BF
:100C1000ED81FE8184809580A680B780A501940136
:100C2000C701B6010E946838F80118167CF0ED8102
:100C3000FE8180849184A284B384A5019401C701BC
:100C4000B6010E947836F80187FF60C080829182E9
:100C5000A282B382ED81FE81248535854685578544
:100C6000C301B2010E946C38ED81FE812089318977
:100C7000428953890E946C3829813A814B815C8179
:100C80000E940136ED81FE81248935894689578984
:100C90000E946C386B017C010E942E168823D9F1CA
:100CA00060915E0C70915F0C8091600C9091610C72
:100CB000ED81FE81208D318D428D538D0E946C38E7
:100CC000ED81FE81248D358D468D578D0E94013634
:100CD000F101608371838283938326960FB6F89423
:100CE000DEBF0FBECDBFDF91CF911F910F91FF905F
:100CF000EF90DF90CF90BF90AF909F908F907F90BC
:100D00006F905F904F903F902F900895C082D18256
:100D1000E282F3829FCF20E030E0A901C701B60153
:100D20000E94783687FD0DC020E030E0A901C701A0
:100D3000B6010E94683818164CF060E070E0CB01F4
:100D4000B7CF60E070E080E89FEBB2CF60E070E08A
:100D500080E89FE3ADCFCF92DF92EF92FF926B01DD
:100D60007C019F7720E030E040E859E50E9478362A
:100D700087FF2BC020E030E040E05FE3C701B60111
:100D80000E94683887FD0EC020E030E040E05FE35D
:100D9000C701B6010E940136FF90EF90DF90CF901F
:100DA0000C94523720E030E040E05FEBC701B60121
:100DB0000E946838181684F420E030E0A901C701C9
:100DC000B6010E946C386B017C01C701B601FF902F
:100DD000EF90DF90CF90089520E030E040E05FE3B7
:100DE000C701B6010E940036FF90EF90DF90CF90D0
:100DF0000C9465362F923F924F925F926F927F9242
:100E00008F929F92AF92BF92CF92DF92EF92FF921A
:100E10000F931F93CF93DF93CDB7DEB7A9970FB68C
:100E2000F894DEBF0FBECDBF8091420C815082305E
:100E300008F471C480E08093420C8091510C815081
:100E4000823008F46AC480E08093510C8091410C98
:100E50008150823008F463C480E08093410C80911B
:100E6000400C8150823008F45CC480E08093400CD8
:100E700080913F0C8150823008F455C480E080930B
:100E80003F0CC0903802D0903902E0903A02F090C6
:100E90003B02A70196016091D30B7091D40B809116
:100EA000D50B9091D60B0E947836882341F0C092E2
:100EB000D30BD092D40BE092D50BF092D60B8CE0F2
:100EC0008987C12CEE24E39401E010E020E030E0BB
:100ED000AE01475F5F4F66E370E08091C90B909170
:100EE000CA0B79DA8987811120C4CC24C394E12C00
:100EF00004E010E020E030E0AE014F5F5F4F66E3BA
:100F000070E08091C90B9091CA0BFBD984E0FE017F
:100F10003196DE01159601900D928A95E1F78D814B
:100F20009E819D838E838F8198859F838887209162
:100F3000F70B3091F80B4091F90B5091FA0B60913F
:100F400074037091750380917603909177030E94EA
:100F50006C386E8B7F8B888F998F2091E003309156
:100F6000E103AF81B8850E9432456B017C01C092DC
:100F7000BF0BD092C00BE092C10BF092C20B81E08C
:100F800090E04091340250913502609136027091A8
:100F90003702C416D506E606F70610F090E080E0AA
:100FA0002091E603289FB001299F700D1124072E80
:100FB000000C880B990B0E9417379B01AC010E9413
:100FC00001364B015C01C701B6010E94153720E0D4
:100FD00030E040E056E30E946C389B01AC01C50153
:100FE000B4010E9401362091780330917903409139
:100FF0007A0350917B030E94003620917C0330914C
:101000007D0340917E0350917F030E946C386B01F9
:101010007C01C092970BD092980BE092990BF092C2
:101020009A0B20918003309181034091820350916B
:1010300083030E946C386A8F7B8F8C8F9D8F2091E9
:10104000FB0B3091FC0B4091FD0B5091FE0B2A875E
:101050003B874C875D874090FF0B5090000C609061
:10106000010C7090020C2091A4033091A5034091D3
:10107000A6035091A7036A857B858C859D850E9478
:101080006C384B015C012091A8033091A903409179
:10109000AA035091AB03C301B2010E946C389B01BB
:1010A000AC01C501B4010E9401364B015C012091E5
:1010B000B4033091B5034091B6035091B7036E89E4
:1010C0007F89888D998D0E946C386E877F87888B89
:1010D000998B2091B8033091B9034091BA03509194
:1010E000BB036A8D7B8D8C8D9D8D0E946C389B011E
:1010F000AC016E857F85888999890E9401369B01A4
:10110000AC01C501B4010E94013660938F0B70934E
:10111000900B8093910B9093920B2091AC033091A4
:10112000AD034091AE035091AF036A857B858C85FA
:101130009D850E946C384B015C012091B003309179
:10114000B1034091B2035091B303C301B2010E94B5
:101150006C389B01AC01C501B4010E9401364B0102
:101160005C012091BC033091BD034091BE035091BE
:10117000BF036E897F89888D998D0E946C382B0101
:101180003C012091C0033091C1034091C2035091B2
:10119000C3036A8D7B8D8C8D9D8D0E946C389B0165
:1011A000AC01C301B2010E9401369B01AC01C50133
:1011B000B4010E9401366093930B7093940B80935B
:1011C000950B9093960B60939B0B70939C0B809365
:1011D0009D0B90939E0B6091CC037091CD038091F9
:1011E000CE039091CF0360939F0B7093A00B8093DD
:1011F000A10B9093A20BA70196010E940036609369
:10120000A70B7093A80B8093A90B9093AA0BC09087
:10121000C803D090C903E090CA03F090CB0320E04C
:1012200030E0A901C701B6010E94783687FF80C26D
:10123000C701B6010E9465366093AF0B7093B00B87
:101240008093B10B9093B20B6091AF0B7091B00B88
:101250008091B10B9091B20B0E942E16882309F455
:101260006CC21092AF0B1092B00B1092B10B109297
:10127000B20BC090AF0BD090B00BE090B10BF090E0
:10128000B20B20E030E0A901C701B6010E94783618
:1012900087FF76C2C701B60190580E94E936909543
:1012A0008095709561957F4F8F4F9F4F633071058B
:1012B0008105910509F4C5C50CF067C2613071055F
:1012C0008105910509F4A1C362307105810591057D
:1012D00009F49AC567E070E080E090E002D98C01E3
:1012E0009093F60B8093F50B2091A30B3091A40BF8
:1012F0004091A50B5091A60B6091D4037091D5033A
:101300008091D6039091D7030E946C386B017C01C9
:1013100020E030E04FE753E40E947836181614F4CA
:101320000C940213C092A70BD092A80BE092A90BC9
:10133000F092AA0B20E030E0A9016091A70B709118
:10134000A80B8091A90B9091AA0B0E94683887FF87
:1013500008C01092A70B1092A80B1092A90B109224
:10136000AA0B4091A70B5091A80B6091A90B70910B
:10137000AA0BC8017FD86091D8037091D9038091DE
:10138000DA039091DB03E7DC6B017C01C092AF0BC9
:10139000D092B00BE092B10BF092B20B20E030E0B3
:1013A00040E853E40E94783687FD02C00C94131382
:1013B00020E030E0A901C701B6010E94683887FF2C
:1013C00002C00C941013C701B6010E94E936698768
:1013D00069858BE048D8C090AF0BD090B00BE090FF
:1013E000B10BF090B20B20E030E040E853E4C701CD
:1013F000B6010E94783687FD02C00C941A1320E0D3
:1014000030E0A901C701B6010E94683887FF02C019
:101410000C941713C701B6010E94E93669876985E4
:101420008CE021D86091DC037091DD038091DE03B4
:101430009091DF0390DC6B017C01C092AF0BD092E6
:10144000B00BE092B10BF092B20B20E030E040E83C
:1014500053E40E94783687FD02C00C94211320E0EB
:1014600030E0A901C701B6010E94683887FF02C0B9
:101470000C941E13C701B6010E94E936698769857D
:1014800086E00E9433028091A30B9091A40BA0915F
:10149000A50BB091A60B8093F70B9093F80BA0933C
:1014A000F90BB093FA0BC090FB0BD090FC0BE090C3
:1014B000FD0BF090FE0B4090FF0B5090000C6090E5
:1014C000010C7090020C20918C0330918D0340919F
:1014D0008E0350918F03C701B6010E946C384B01F7
:1014E0005C012091900330919103409192035091BF
:1014F0009303C301B2010E946C389B01AC01C5018A
:10150000B4010E9401364B015C0120919C03309193
:101510009D0340919E0350919F036E897F89888D22
:10152000998D0E946C386A877B878C879D87209174
:10153000A0033091A1034091A2035091A3036A8DAF
:101540007B8D8C8D9D8D0E946C389B01AC016A85D2
:101550007B858C859D850E9401369B01AC01C50170
:10156000B4010E9401364B015C012091840330914B
:1015700085034091860350918703C701B6010E94FD
:101580006C386B017C012091880330918903409174
:101590008A0350918B03C301B2010E946C389B01F6
:1015A000AC01C701B6010E9401366B017C0120919C
:1015B00094033091950340919603509197036E895F
:1015C0007F89888D998D0E946C382B013C01209178
:1015D00098033091990340919A0350919B036A8D2F
:1015E0007B8D8C8D9D8D0E946C389B01AC01C3015D
:1015F000B2010E9401369B01AC01C701B6010E94F5
:1016000001366093FB0B7093FC0B8093FD0B909362
:10161000FE0B8092FF0B9092000CA092010CB092F6
:10162000020CC0908505D0908605E0908705F0906B
:1016300088053FEFC31AD30AE30AF30AC09285056F
:10164000D0928605E0928705F0928805C114D104F6
:10165000E104F10499F48091890590918A05A091A3
:101660008B05B0918C050196A11DB11D8093890554
:1016700090938A05A0938B05B0938C0580908D057F
:1016800090908E05A0908F05B0909005609189058F
:1016900070918A0580918B0590918C050E94153779
:1016A000A50194010E946C3820E030E040E85FE43E
:1016B0000E946C382B013C01C701B6010E9415370E
:1016C000A50194010E946C389B01AC01C301B201D9
:1016D0000E94013660938105709382058093830593
:1016E00090938405A9960FB6F894DEBF0FBECDBFC8
:1016F000DF91CF911F910F91FF90EF90DF90CF90EE
:10170000BF90AF909F908F907F906F905F904F9021
:101710003F902F90089583E08ECB83E095CB83E0BC
:101720009CCB83E0A3CB83E0AACB18861F82FFCBA0
:10173000C701B6010E9452377FCD6091AF0B709107
:10174000B00B8091B10B9091B20B0E94E915811101
:1017500088CD6091AF0B7091B00B8091B10B9091DF
:10176000B20B20E030E040E85FE40E946C37609309
:10177000AF0B7093B00B8093B10B9093B20B79CDFC
:10178000C701B6010E94E93691CD6530710581052A
:10179000910509F441C60CF4A4C5663071058105B4
:1017A000910509F097CD2091970B3091980B4091BE
:1017B000990B50919A0B60912403709125038091AD
:1017C0002603909127030E946C384B015C018092A4
:1017D000AF0B9092B00BA092B10BB092B20B2091D4
:1017E000A70B3091A80B4091A90B5091AA0B6091C7
:1017F00028037091290380912A0390912B030E9462
:101800006C38A50194010E9401366B017C01C092E5
:10181000BB0BD092BC0BE092BD0BF092BE0B809143
:10182000030C9091040CA091050CB091060C8A87D2
:101830009B87AC87BD872091070C3091080C4091A5
:10184000090C50910A0C2E873F87488B598B2091A9
:101850004403309145034091460350914703BC0136
:10186000CD010E946C382B013C012091480330913E
:10187000490340914A0350914B036E857F858889C7
:1018800099890E946C389B01AC01C301B2010E948E
:1018900001362B013C0120914C0330914D034091C6
:1018A0004E0350914F03C701B6010E946C389B0153
:1018B000AC01C301B2010E940136A50194010E944E
:1018C00000362B013C0120913002309131024091D1
:1018D000320250913302C501B4010E946C38A30159
:1018E00092010E946C386E8F7F8F88A399A36093BA
:1018F000A70B7093A80B8093A90B9093AA0B209130
:101900005403309155034091560350915703C7013A
:10191000B6010E946C3820912C0230912D0240912A
:101920002E0250912F020E946C38A30192010E9456
:101930006C386AA37BA38CA39DA36093B30B7093B5
:10194000B40B8093B50B9093B60B80910B0C9091D8
:101950000C0CA0910D0CB0910E0C8A8B9B8BAC8B58
:10196000BD8B8093B70B9093B80BA093B90BB0933A
:10197000BA0B20910F0C3091100C4091110C50912A
:10198000120C2EA33FA348A759A7C501B4010E947A
:101990006C384B015C012A893B894C895D89C70100
:1019A000B6010E946C389B01AC01C501B4010E94D4
:1019B0000136209128023091290240912A0250914B
:1019C0002B020E9401364B015C018092A30B909286
:1019D000A40BA092A50BB092A60B40906803509068
:1019E000690360906A0370906B03A30192010E94E7
:1019F000683818160CF029C54092A30B5092A40B1E
:101A00006092A50B7092A60B30C52091A70B309168
:101A1000A80B4091A90B5091AA0B609144027091C0
:101A2000450280914602909147020E946C386B01FA
:101A30007C0120910C0230910D0240910E025091D8
:101A40000F020E946C386E877F87888B998B60931A
:101A5000A70B7093A80B8093A90B9093AA0B2091CE
:101A60000402309105024091060250910702C7011D
:101A7000B6010E946C3820914C0230914D02409189
:101A80004E0250914F020E946C386A877B878C8788
:101A90009D876093AF0B7093B00B8093B10B9093C5
:101AA000B20B80912B0C90912C0CA0912D0CB0912D
:101AB0002E0C8A8B9B8BAC8BBD8B20911C023091A2
:101AC0001D0240911E0250911F02C701B6010E94E3
:101AD0006C382A893B894C895D890E9401366B01EB
:101AE0007C0120912F0C3091300C4091310C5091A1
:101AF000320C6A857B858C859D850E9400369B0112
:101B0000AC01C701B6010E9401366B017C01C09295
:101B1000AB0BD092AC0BE092AD0BF092AE0B809081
:101B2000240290902502A0902602B0902702A501E1
:101B300094010E9468381816BCF4A5019401C701ED
:101B4000B6010E9400366093B30B7093B40B809380
:101B5000B50B9093B60B8092AB0B9092AC0BA0920E
:101B6000AD0BB092AE0B20C080901802909019027D
:101B7000A0901A02B0901B02A5019401C701B60102
:101B80000E94683887FDFBC01092B30B1092B40B13
:101B90001092B50B1092B60BA5019401C701B601C6
:101BA0000E94783687FDD7CF8090330C9090340C0C
:101BB000A090350CB090360C20915C0230915D0203
:101BC00040915E0250915F02C501B4010E946C38E1
:101BD0009B01AC016091AB0B7091AC0B8091AD0B94
:101BE0009091AE0B0E94003620915802309159021C
:101BF00040915A0250915B020E947C366B017C013D
:101C0000C092AB0BD092AC0BE092AD0BF092AE0B4E
:101C10002091500230915102409152025091530252
:101C20000E946C382B013C012091540230915502E6
:101C30004091560250915702C501B4010E946C3880
:101C40009B01AC01C301B2010E94013620916402E4
:101C50003091650240916602509167020E946C3893
:101C6000209128023091290240912A0250912B02A2
:101C70000E9401366093A30B7093A40B8093A50B75
:101C80009093A60B4090B30B5090B40B6090B50BA3
:101C90007090B60B8090400290904102A09042025A
:101CA000B0904302A5019401C301B2010E946838BB
:101CB0001091E203181614F01091E303A5019401AA
:101CC0006E857F85888999890E9468380091E40330
:101CD000181614F00091E503A5019401C301B201A7
:101CE0000E947836882391F0101310C080913C0236
:101CF00090913D02A0913E02B0913F028093A70BCC
:101D00009093A80BA093A90BB093AA0B2091A70BBB
:101D10003091A80B4091A90B5091AA0B60914802F9
:101D20007091490280914A0290914B020E946C3856
:101D30002A893B894C895D890E9401364B015C01EF
:101D400080922B0C90922C0CA0922D0CB0922E0C09
:101D50004090200250902102609022027090230255
:101D6000A30192010E94683887FD18C040922B0C95
:101D700050922C0C60922D0C70922E0C1FC0A5015D
:101D80009401C701B6010E9400366093B30B7093B3
:101D9000B40B8093B50B9093B60BFECE409014021B
:101DA000509015026090160270901702A3019201E4
:101DB000C501B4010E9478361816C4F62A853B8501
:101DC0004C855D8520932F0C3093300C4093310C63
:101DD0005093320CC092330CD092340CE092350CFC
:101DE000F092360C8091420C882359F0833029F40C
:101DF00081E090E08093420C6DCA082E000C990B94
:101E0000F9CF82E090E0F6CF20919B0B30919C0BB4
:101E100040919D0B50919E0B6091A70B7091A80B68
:101E20008091A90B9091AA0BE7E0CE2EE4E0DE2E84
:101E3000FDE4EF2EFCE0FF2E03EA1BE00E94E40528
:101E400049CA2091A70B3091A80B4091A90B509142
:101E5000AA0B609168027091690280916A02909168
:101E60006B020E946C386B017C018090170C909083
:101E7000180CA090190CB0901A0C2091E40230912B
:101E8000E5024091E6025091E702C501B4010E94CB
:101E90006C382B013C0158EE252E52E0352E05E81A
:101EA00014E0EDE8F4E0E017F10709F053C12091E8
:101EB000F8023091F9024091FA025091FB02C701F9
:101EC000B6010E946C38A30192010E940136209154
:101ED00000033091010340910203509103030E94DB
:101EE0006C38209128023091290240912A025091A9
:101EF0002B020E9401366093A30B7093A40B809376
:101F0000A50B9093A60B20916C0230916D0240912D
:101F10006E0250916F02C501B4010E946C382B0112
:101F20003C0130E7232E32E0332E0BE714E0E3E8E8
:101F3000F4E0E017F10709F02CC12091D0023091B4
:101F4000D1024091D2025091D302C701B6010E9442
:101F50006C38A30192010E9401366E877F87888BBF
:101F6000998B2091800230918102409182025091A0
:101F70008302C501B4010E946C382B013C01B4E816
:101F80002B2EB2E03B2E01E714E0E9E7F4E0E01786
:101F9000F10709F01DC12091D4023091D502409182
:101FA000D6025091D702C701B6010E946C38A30136
:101FB00092010E9401366A8B7B8B8C8B9D8B2091CA
:101FC0009402309195024091960250919702C5017A
:101FD000B4010E946C382B013C0128E932E03B87B8
:101FE0002A8757E6252E54E0352E0FE614E0021519
:101FF000130509F00CC12091D8023091D90240910B
:10200000DA025091DB02C701B6010E946C38A301CD
:1020100092010E9401366E8F7F8F88A399A3209131
:10202000A8023091A9024091AA025091AB02C501C9
:10203000B4010E946C382B013C01ECEAF2E0FB8712
:10204000EA873DE5232E34E0332E05E614E0021541
:10205000130509F0FDC02091DC023091DD024091B2
:10206000DE025091DF02C701B6010E946C38A30165
:1020700092010E9401362B013C012091BC0230915B
:10208000BD024091BE025091BF02C501B4010E9441
:102090006C384B015C01E0ECF2E0FB87EA87B3E5CA
:1020A0002B2EB4E03B2E0BE514E00215130509F0CE
:1020B000F0C02091E0023091E1024091E2025091A3
:1020C000E302C701B6010E946C38A50194010E9489
:1020D00001362E853F85488959892093170C309306
:1020E000180C4093190C50931A0C2A893B894C897F
:1020F0005D8920931B0C30931C0C40931D0C509356
:102100001E0C2E8D3F8D48A159A120931F0C30939A
:10211000200C4093210C5093220C4092230C50929F
:10212000240C6092250C7092260C6093270C7093FF
:10213000280C8093290C90932A0C8091410C8823C1
:1021400009F4CCC0833009F0C5C081E090E08093F1
:10215000410CC0C8D1016D917D918D919D911D0162
:10216000D801ED91FD918D01EE0FFF1FEE0FFF1FC6
:10217000E95EF34F20813181428153810E946C38A6
:102180009B01AC01C301B2010E9401362B013C014D
:1021900088CED1016D917D918D919D911D01D801C8
:1021A000ED91FD918D01EE0FFF1FEE0FFF1FE95E18
:1021B000F34F20813181428153810E946C389B0111
:1021C000AC01C301B2010E9401362B013C01AFCE2C
:1021D000D1016D917D918D919D911D01D801ED9160
:1021E000FD918D01EE0FFF1FEE0FFF1FE95EF34F14
:1021F00020813181428153810E946C389B01AC0166
:10220000C301B2010E9401362B013C01BECEAA855A
:10221000BB856D917D918D919D91BB87AA87D101E1
:10222000ED91FD911D01EE0FFF1FEE0FFF1FE95E07
:10223000F34F20813181428153810E946C389B0190
:10224000AC01C301B2010E9401362B013C01CFCE8B
:10225000AA85BB856D917D918D919D91BB87AA8744
:10226000D101ED91FD911D01EE0FFF1FEE0FFF1F3C
:10227000E95EF34F20813181428153810E946C38A5
:102280009B01AC01C301B2010E9401362B013C014C
:10229000DECEAA85BB856D917D918D919D91BB8789
:1022A000AA87D101ED91FD911D01EE0FFF1FEE0FE9
:1022B000FF1FE95EF34F20813181428153810E94EB
:1022C0006C389B01AC01C501B4010E9401364B0181
:1022D0005C01EBCE082E000C990B39CF82E090E028
:1022E00036CFC090130CD090140CE090150CF090E9
:1022F000160C8090080390900903A0900A03B090F8
:102300000B03A5019401C701B6010E946838181695
:102310000CF062C08092A30B9092A40BA092A50B2C
:10232000B092A60B2091A70B3091A80B4091A90B5E
:102330005091AA0B609110037091110380911203C8
:10234000909113030E946C3820911403309115036F
:1023500040911603509117030E946C3820919B0BFB
:1023600030919C0B40919D0B50919E0B0E94013629
:10237000209118033091190340911A0350911B03C7
:102380000E946C380E94CF3820911C0330911D03AD
:1023900040911E0350911F030E946C38209120032E
:1023A0003091210340912203509123030E94013672
:1023B0006093130C7093140C8093150C9093160C6F
:1023C0008091400C882329F18330F9F481E090E07A
:1023D0008093400C0C946A0980900C0390900D033C
:1023E000A0900E03B0900F03A5019401C701B601A0
:1023F0000E94783687FD8ECFC092A30BD092A40B9B
:10240000E092A50BF092A60B8DCF082E000C990B35
:10241000DFCF82E090E0DCCF20919B0B30919C0BD2
:1024200040919D0B50919E0B6091A70B7091A80B52
:102430008091A90B9091AA0BE7EECE2EE3E0DE2E61
:10244000F8E4EF2EFCE0FF2EF7CC40906C035090A8
:102450006D0360906E0370906F03A3019201C5013C
:10246000B4010E94783687FDC7CA209134033091A9
:10247000350340913603509137036A857B858C85FF
:102480009D850E946C384B015C012091380330918E
:10249000390340913A0350913B036E857F858889CB
:1024A00099890E946C389B01AC01C501B4010E945E
:1024B00001364B015C012091400330914103409172
:1024C000420350914303C701B6010E946C389B013F
:1024D000AC01C501B4010E9401364B015C012091A1
:1024E0002C0330912D0340912E0350912F036A85C8
:1024F0007B858C859D850E946C382B013C01209149
:1025000030033091310340913203509133036E8593
:102510007F85888999890E946C389B01AC01C30131
:10252000B2010E9401362B013C0120913C03309105
:102530003D0340913E0350913F03C701B6010E9405
:102540006C389B01AC01C301B2010E94013660935B
:10255000030C7093040C8093050C9093060C8092EE
:10256000070C9092080CA092090CB0920A0C2091D2
:1025700058033091590340915A0350915B036AA16B
:102580007BA18CA19DA10E946C382A893B894C8932
:102590005D890E94013660930B0C70930C0C809344
:1025A0000D0C90930E0C20916003309161034091CB
:1025B0006203509163036E8D7F8D88A199A10E9463
:1025C0006C382EA13FA148A559A50E940136609301
:1025D0000F0C7093100C8093110C9093120C80913F
:1025E0003F0C882361F0833031F481E090E08093E8
:1025F0003F0C0C946A09082E000C990BF8CF82E06E
:1026000090E0F5CF80E090E0AFE7B3E48093A70BD4
:102610009093A80BA093A90BB093AA0B0C949A09C2
:1026200019860C94E8098FEF89870C94E8091986BC
:102630000C940F0A8FEF89870C940F0A19860C945B
:102640003F0A8FEF89870C943F0A4F925F926F92F7
:102650007F928F929F92AF92BF92DF92EF92FF9202
:102660000F931F93CF93DF9384E090E07BD2EBE650
:10267000F5E08BE2DF011D928A95E9F780E090E0BA
:10268000A0E8BFEB86A397A3A0A7B1A78AE097ED28
:10269000A3E2BBE382A393A3A4A3B5A38BE594EE2B
:1026A000A9E8BEE884839583A683B78387E19CE38A
:1026B000AFE8BEEA80879187A287B38784E29FEC68
:1026C000AAEAB2E784879587A687B78784E695E765
:1026D000AAE3B3EA808B918BA28BB38BAFE5B5E015
:1026E000B383A283EFE3F5E01196FC93EE9380E5CC
:1026F00094E09183808393838283958384839783FB
:10270000868391878087938782878FE39CE0958774
:10271000848782E49CE097878687918B808B938B5C
:10272000828B958B848B978B868B81E49CE0918F39
:10273000808F80E49CE0938F828F8CE49CE0958F67
:10274000848F81E59CE0978F868F8FE795E01596C3
:102750009C938E9314978FE695E013969C938E939B
:10276000129781E895E017969C938E9316978FE8C1
:10277000A82E8BE0B82E84E3F50111928A95E9F733
:10278000C3ECDBE08FE8DE011D928A95E9F780E07B
:1027900090E5A3ECB8E48C879D87AE87BF87DD24E6
:1027A000D394D092470C94E0892E92E0992EF401B4
:1027B00084A995A9A6A9B7A9888B998BAA8BBB8B4D
:1027C000412C512C3201439449825A826B827C8283
:1027D00050E040E060E070E0CB010E9448019F8340
:1027E0008E8340EA56E861E070E0488759876A873F
:1027F0007B870E946C01DD821CA6D092430C4DA603
:102800005EA66FA678AAE12CF12C8701A80197019A
:1028100067E070E080E090E00E94B5029BAB8AAB7D
:10282000D9AA1CA2D092460C4DA25EA26FA278A695
:1028300061E08BE00E942B02D9A61C8ED092450C41
:102840004D8E5E8E6F8E78A261E08CE00E942B022E
:10285000D9A21C8AD092440C4D8A5E8A6F8A788EE7
:1028600061E086E00E942B02D98E809170039091E6
:102870007103A0917203B09173038CAB9DABAEABAF
:10288000BFAB8091C4039091C503A091C603B091E2
:10289000C70388AF99AFAAAFBBAF8CAF9DAFAEAF48
:1028A000BFAFF40184859585A685B78580932B0CF1
:1028B00090932C0CA0932D0CB0932E0C84819581B9
:1028C000A681B78180932F0C9093300CA093310C8C
:1028D000B093320C8091600290916102A0916202EB
:1028E000B09163028093330C9093340CA093350C19
:1028F000B093360C8091070490910804A0910904CC
:10290000B0910A0480934D0C90934E0CA0934F0C01
:10291000B093500C8091FC029091FD02A091FE02B8
:10292000B091FF028093170C9093180CA093190C90
:10293000B0931A0C80931B0C90931C0CA0931D0C4D
:10294000B0931E0C80931F0C9093200CA093210C2D
:10295000B093220C8093230C9093240CA093250C0D
:10296000B093260C8093270C9093280CA093290CED
:10297000B0932A0C8091040390910503A091060363
:10298000B09107038093130C9093140CA093150C33
:10299000B093160C8091E7039091E803A091E903AE
:1029A000B091EA038093480C9093490CA0934A0C91
:1029B000B0934B0C8091500390915103A09152031E
:1029C000B09153038093030C9093040CA093050CD7
:1029D000B093060C8093070C9093080CA093090CFD
:1029E000B0930A0C80915C0390915D03A0915E030B
:1029F000B0915F0380930B0C90930C0CA0930D0C83
:102A0000B0930E0C8091640390916503A0916603CE
:102A1000B091670380930F0C9093100CA093110C4E
:102A2000B093120C8091D0039091D103A091D20366
:102A3000B091D303F501848B958BA68BB78BDF9177
:102A4000CF911F910F91FF90EF90DF90BF90AF90CB
:102A50009F908F907F906F905F904F90089580919E
:102A6000C30B811119C081E08093C30B8091C40B0B
:102A70009091C50BA091C60BB091C70B0197A10512
:102A8000B10551F48091C80B882331F08091C90BB6
:102A90009091CA0B0E942A028091EF0B81112EC0E7
:102AA00081E08093EF0B8091F00B9091F10BA0915E
:102AB000F20BB091F30B0197A105B105F9F48091E8
:102AC000F40B8823D9F067E070E080E090E00E948A
:102AD00071029093F60B8093F50B40E050E0BA0141
:102AE0000E943A0267E070E080E090E00E9471028C
:102AF0009093F60B8093F50B0E9406038091E70BF1
:102B0000811103C081E08093E70B8091DF0B81117D
:102B100003C081E08093DF0B8091D70B811103C04C
:102B200081E08093D70B089560E070E080E89FE734
:102B3000089560E070E080E89FE7089560E070E04D
:102B400080E89FEF089560E070E080E89FEF0895CF
:102B500060E070E080EC9FEF089560E070E080EC52
:102B60009FEF0895F5DF60935E0C70935F0C809388
:102B7000600C9093610CF1DF6093520C7093530CD6
:102B80008093540C9093550CCFDF60935A0C709344
:102B90005B0C80935C0C90935D0CCBDF6093560CC8
:102BA0007093570C8093580C9093590CC7DF609327
:102BB000620C7093630C8093640C9093650CC3DF7C
:102BC0006093660C7093670C8093680C9093690C0B
:102BD0000895CF92DF92EF92FF92CF936B017C0129
:102BE000AC019B0160915A0C70915B0C80915C0C64
:102BF00090915D0C0E947836C1E0882371F0A701A6
:102C000096016091620C7091630C8091640C9091BC
:102C1000650C0E9478368111C0E08C2FCF91FF9017
:102C2000EF90DF90CF9008950F931F938B019C013D
:102C30000027112720783F770115110520483F47CD
:102C400049F4AB01BC016F77772781E0452B462B18
:102C5000472B09F480E01F910F910895E5CF4F9223
:102C60005F926F927F928F929F92AF92BF92CF921C
:102C7000DF92EF92FF920F931F93F8944090A2057A
:102C80005090A3056090A4057090A505C09096058E
:102C9000D0909705E0909805F0909905452B09F0A4
:102CA000A4C09B01AC012419350946095709290123
:102CB0003A0100919E0510919F052091A005309149
:102CC000A10548015901840C951CA61CB71C80164F
:102CD0009106A206B306A0F400919A0510919B05F7
:102CE00020919C0530919D050F5F1F4F2F4F3F4F47
:102CF00000939A0510939B0520939C0530939D05A6
:102D000080929E0590929F05A092A005B092A10589
:102D100000919A0510919B0520919C0530919D058D
:102D20008092A6059092A705A092A805B092A90549
:102D30000093AA051093AB052093AC053093AD0525
:102D40006093A2057093A3058093A4059093A505B5
:102D5000A4ECB9E0A30192010E9441456C0D7D1DD8
:102D60008E1D9F1D6093960570939705809398051F
:102D7000909399050091270410912804209129042B
:102D800030912A040F3F1F4F2F4F3F4FF1F000911A
:102D90002704109128042091290430912A040E3F21
:102DA0001F4F2F4F3F4F89F0C0902704D090280429
:102DB000E0902904F0902A0421E08C149D04AE04D4
:102DC000BF0408F420E02093B20578941F910F917E
:102DD000FF90EF90DF90CF90BF90AF909F908F903B
:102DE0007F906F905F904F9008954B015C01841825
:102DF0009508A608B708A3019201261B370B480BBC
:102E0000590B6415750586059705D0F08216930653
:102E1000A406B50640F420E030E0A9018114910435
:102E2000A104B10491F4A4ECB9E00E944145A701CA
:102E30009601261B370B480B590BCA01B901C5CFA8
:102E400082169306A406B50670F7A4ECB9E0A501B6
:102E500094010E9441456C0D7D1D8E1D9F1DB5CFB7
:102E6000FECECF93DF9300D01F92CDB7DEB71C828A
:102E70001B821A8219821092AE051092AF05109231
:102E8000B0051092B105BE016F5F7F4FCE01039672
:102E90000E94253469817A818B819C810E94132D47
:102EA000009761F4BE016F5F7F4FCE0103960E94D1
:102EB000313469817A818B819C812ED50F900F905E
:102EC0000F900F90DF91CF910895FF920F931F9372
:102ED000CF93DF93082F60E070E0CB010E94453F65
:102EE000FF24F3940E94FC2BEC01892B89F010E065
:102EF000CE3F8FEFD80769F0002361F160E070E00A
:102F0000CB010E94453F81E090E0892B59F322C01C
:102F100011E025D5EC01892B21F0CE3F8FEFD807AA
:102F200059F711111EC011E0229609F410E00E9419
:102F3000AC2BEC01892B21F0CE3F8FEFD807E1F6C7
:102F4000111111C011E0CE3F8FEFD80709F410E046
:102F500001110BC0CE01DF91CF911F910F91FF9016
:102F6000089511E0E4CF11E0F3CF60E070E0CB0111
:102F70000E94453F1F25812F90E0C7CFCF93DF935D
:102F80008091B205882321F060E070E0CB014CD63F
:102F900035D6D0E0C0E0892B71F06AE070E080E0C7
:102FA00090E00E94453F81E090DF28D62196C03D09
:102FB00027E0D20781F727D60E94672D1092CA0515
:102FC0001092C9051092C3051092C4051092C50550
:102FD0001092C6051092BF051092C0051092C1054F
:102FE0001092C2051092BB051092BC051092BD054F
:102FF0001092BE051092B7051092B8051092B9054F
:103000001092BA051092B3051092B4051092B5054E
:103010001092B6054EEF5FEF6FEF7FEF40932704FE
:10302000509328046093290470932A041092B205E7
:10303000E6EAF5E028E0DF011D922A95E9F7109213
:10304000A2051092A3051092A4051092A505109256
:103050009E0510929F051092A0051092A105109256
:103060009A0510929B0510929C0510929D05109256
:103070009605109297051092980510929905DF9188
:10308000CF9108951092D6051092D7051092D805C9
:103090001092D9051092D5058091DE059091DF053B
:1030A0009093D4058093D3051092D2051092D10548
:1030B0001092CD051092CE051092CF051092D0053A
:1030C0001092DB051092DA0590E080E00895CF922F
:1030D000DF92EF92FF920F931F93CF938C01892B76
:1030E00009F055C02091DE053091DF058091D305B0
:1030F0009091D4054091DE055091DF055093D405A1
:103100004093D3052817390781F01092D205109209
:10311000D1051092CD051092CE051092CF051092D8
:10312000D0051092DB051092DA058091DE059091B2
:10313000DF05019761F58091DA059091DB05892B18
:1031400021F480912B04811112C08091DA059091B5
:10315000DB050197E1F48091CD059091CE05A0911A
:10316000CF05B091D0050197A105B10581F410926A
:10317000CD051092CE051092CF051092D005109279
:103180002B0482E090E09093DB058093DA05809138
:10319000DE059091DF05019709F01CC18091F405CF
:1031A0009091F5058017910709F014C18091F00501
:1031B0009091F105A091F205B091F305009709F403
:1031C00009C12091EF0521110DC04091F0055091EA
:1031D000F1056091F2057091F305452B462B472BC5
:1031E00009F4F8C02091DA053091DB052230310571
:1031F00009F0F0C02091D1052111ECC0FC01C08084
:10320000D180E280F3808091D505882309F4D3C072
:103210008091E1059091E205892B09F4FDC0209190
:10322000E1053091E20581E02230310509F080E0CE
:103230002091E1053091E205C1E02130310549F0EE
:103240002091E1053091E205C1E02230310509F01D
:10325000C0E0882309F456C02091EB053091EC05BD
:103260004091ED055091EE05C701B6010E94683806
:1032700087FD14C02091EB053091EC054091ED05E0
:103280005091EE056091D6057091D7058091D805D3
:103290009091D9050E94783687FD22C02091EB05D8
:1032A0003091EC054091ED055091EE05C701B60156
:1032B0000E946838181634F52091EB053091EC0522
:1032C0004091ED055091EE056091D6057091D705BE
:1032D0008091D8059091D9050E947836811112C04D
:1032E0008091E3059091E405A091E505B091E60594
:1032F000892B8A2B8B2B19F481E08093D20581E0F6
:103300008093D105CC2309F456C02091EB05309170
:10331000EC054091ED055091EE05C701B6010E9404
:10332000783687FF14C02091EB053091EC05409171
:10333000ED055091EE056091D6057091D70580910D
:10334000D8059091D9050E94683887FF22C0209146
:10335000EB053091EC054091ED055091EE05C7016C
:10336000B6010E947836811126C02091EB0530917C
:10337000EC054091ED055091EE056091D6057091F8
:10338000D7058091D8059091D9050E946838181604
:1033900094F48091E3059091E405A091E505B09146
:1033A000E605892B8A2B8B2B19F481E08093D205BB
:1033B00081E08093D10581E09091D105911180E069
:1033C0008093D505C092D605D092D705E092D80556
:1033D000F092D905012B09F067C18091DA0590912F
:1033E000DB05892BD9F41092E0051092D10580916C
:1033F0002B04882379F082E090E09093DB058093A2
:10340000DA0510922B042091DE053091DF0581E072
:10341000232BE9F080E01BC081E00ACF10922B043F
:103420008091E005882349F01092D2051092DB05C7
:103430001092DA051092E005EDCF8091DE059091B3
:10344000DF05892BE1F08091D1051092D105209103
:10345000DA053091DB052230310509F45EC088F4CD
:103460002115310509F448C02130310509F4F3C0B4
:103470001092D2051092D1051092E00538C081E07B
:10348000E6CF2330310509F4B1C02430310581F78E
:103490004091CD055091CE056091CF057091D0053A
:1034A000411551056105710561F0415051096109EE
:1034B00071094093CD055093CE056093CF0570936D
:1034C000D0054091CD055091CE056091CF0570910A
:1034D000D005452B462B472BD9F42091DC053091A4
:1034E000DD052130310509F046C01092D205109259
:1034F000DB051092DA050CC080912B04882341F083
:1035000082E090E09093DB058093DA0510922B0423
:103510001092CB058091D205CEC08823C9F380914B
:10352000E3059091E405A091E505B091E605181634
:1035300019061A061B060CF07DC08091DE059091DD
:10354000DF05019709F076C08091E3059091E405CD
:10355000A091E505B091E6058093CD059093CE0549
:10356000A093CF05B093D00583E090E09093DB0566
:103570008093DA05CDCF4091E7055091E805609141
:10358000E9057091EA05452B462B472BA9F01092CF
:10359000D2058091E7059091E805A091E905B091E9
:1035A000EA058093CD059093CE05A093CF05B09307
:1035B000D00581E090E0DACF882399F080912C0447
:1035C00090912D04A0912E04B0912F048093CD05ED
:1035D0009093CE05A093CF05B093D00584E090E002
:1035E000C5CF1092D20582E090E0C0CF8091CD058A
:1035F0009091CE05A091CF05B091D0050097A1057F
:10360000B10559F00197A109B1098093CD059093B7
:10361000CE05A093CF05B093D0058091CD059091B4
:10362000CE05A091CF05B091D005892B8A2B8B2B8D
:1036300009F06ECF80912C0490912D04A0912E045E
:10364000B0912F04892B8A2B8B2B09F44ECF81E06C
:103650008093D205B3CF4091CD055091CE056091B6
:10366000CF057091D005411551056105710561F0D7
:1036700041505109610971094093CD055093CE0520
:103680006093CF057093D0054091CD055091CE0544
:103690006091CF057091D005452B462B472B09F043
:1036A00037CF8111C7CF9FCF8091CB05882309F4F5
:1036B00031CF8091CC05CF911F910F91FF90EF906A
:1036C000DF90CF9008951092D6051092D7051092F2
:1036D000D8051092D9051092D5051092DB051092ED
:1036E000DA051092D4051092D3051092F5051092C8
:1036F000F4051092D2051092D1051092CD051092CA
:10370000CE051092CF051092D0051092CC051092E4
:10371000CB051092F0051092F1051092F20510926F
:10372000F3051092EF051092EB051092EC05109244
:10373000ED051092EE0588EE93E0A0E0B0E08093F6
:103740002C0490932D04A0932E04B0932F04109278
:10375000E7051092E8051092E9051092EA0510922B
:10376000E3051092E4051092E5051092E60510922B
:10377000E2051092E10581E080932B041092E005B0
:103780001092DF051092DE051092DD051092DC0527
:1037900090E080E008958091DE059091DF05892B0F
:1037A00019F580912B04882351F08091E005811157
:1037B00006C081E08093CC058093CB0508952091CD
:1037C000E00530912B0481E090E0332311F090E08C
:1037D00080E030E082239323892B21F01092CC05E6
:1037E00081E0EACF1092CB05089582E090E0FA01E3
:1037F000918380838FEF9FEF0895CF93DF93EA014A
:10380000009711F00E94872E1982188290E080E0C4
:10381000DF91CF910895DB01009719F48FEF8C931E
:1038200008952EEF2C93FC013F96EF30F10508F040
:1038300034C08827E15EF34E8F4F0C942A454B1C11
:10384000491C471C451C431C3F1C411C3D1C3B1C88
:10385000391C361C321C2E1C341C4D1C80E3119666
:103860008C93089589E2FBCF82E2F9CF11961C92E6
:10387000089583E2F4CF81E2F2CF81E1F0CF87E2D5
:10388000EECF8AE2ECCF80E1EACF84E2E8CF88E2B3
:10389000E6CF86E2E4CF81E3E2CF80E2E0CF809121
:1038A0000206909103060895909303068093020602
:1038B000089580910106089590910106892B8093C7
:1038C00001060895982F9095809101068923809391
:1038D000010608958091000608958091FE0590915B
:1038E000FF0508956115710559F0FB0130E020E0F6
:1038F00070E060E02417350719F06115710511F0CB
:10390000CB010895A081B181A817B90709F4BF01BF
:103910002F5F3F4F3696EECF8091040681111CC079
:1039200060D266D29093F7058093F6050E949326A5
:103930000E94A5269093FB058093FA050E94142B04
:103940000E941B2B9093F9058093F80581E08093EA
:10395000040690E080E0089584EF9FEF08958F9231
:103960009F92AF92BF92CF92DF92EF92FF920F930E
:103970001F93CF93DF9300D000D000D01F92CDB71C
:10398000DEB71A86198618861F821E821D821C8247
:103990001B821A8219828091040607EF1FEF882389
:1039A00009F49CC08E010D5F1F4F9E012B5F3F4F9E
:1039B000AE01495F5F4FBE01675F7F4F90E080E0DF
:1039C0000E94982C8C01009721F00596029708F030
:1039D000DBC029853A852115310509F402C1ED8046
:1039E000FE804B815C81B701640F751F8F819885C4
:1039F0008617970708F4F5C0E20EF31ED7019C91D5
:103A0000903C09F07FC04230510508F47BC011960C
:103A10008C914091020650910306452B09F49CC0FD
:103A2000913F08F071C02CE1290F2D3008F48BC0B4
:103A30002DE2290F203108F489C0903C21F48150F7
:103A4000823008F483C088E3890F8B3008F481C08A
:103A50009BE0C92E9CE1D92EE5EFFBE16D817E81D3
:103A6000AE014F5F5F4F89859A8519955C01C1143E
:103A7000D104A1F189809A808114910479F18B811C
:103A80009C818815990508F487C010E000E04B81FF
:103A90005C8170E060E0C7010E945445011511058A
:103AA000E9F449815A8169857A858D819E81680F03
:103AB000791FC501F6011995E980FA800D811E81F3
:103AC0002F81388549855A856FEF7FEF81E090E03F
:103AD0000E94332C8C01892B09F056C0C8012A960C
:103AE0000FB6F894DEBF0FBECDBFDF91CF911F910F
:103AF0000F91FF90EF90DF90CF90BF90AF909F908D
:103B00008F90089580E085CF30E020E0220F331FB2
:103B1000F901EA50FA4F0190F081E02D309709F455
:103B200097CF892F90E01995009709F491CFDC0188
:103B30001296ED91FC9113971496CD90DC903097EE
:103B400009F08CCF1FC021E030E0E0CF22E030E070
:103B5000DDCF23E030E0DACFD12CC12CEDEFFBE15B
:103B60009F3F09F07BCFE091F605F091F705309784
:103B700021F4C90104EF1FEF0CC08FEF90E01995FD
:103B80000097A9F604EF1FEF89859A85009709F43D
:103B9000A5CF0E94872EA2CF0E94622D8C0189851D
:103BA0009A850E94872E70E060E0C4010E94FB2C81
:103BB00098878F830E94302C9E838D836F817885B8
:103BC0006115710559F0C8010E9413309A878987E1
:103BD00006EF1FEF892B09F058CF59CF08EF1FEFE1
:103BE00056CF08EF1FEFD0CF20910406222319F003
:103BF00020E00C94AA2687EF9FEF0895809102069B
:103C00009091030608950E94202B0E947A2AF5D0F5
:103C1000E6EFF5E088E0DF011D928A95E9F7109262
:103C2000040690E080E008950C94D82821E040E05C
:103C300050E0BA010C94AA2686E090E0FA01918344
:103C4000808390E080E0089547E050E06FE874E002
:103C500049CEDF92EF92FF920F931F93CF93DF93A2
:103C60008A01EC01C60FD71FE0900806F090090604
:103C7000D9800E944A2DD816190678F082E090E08B
:103C8000F801918380838EEF9FEFDF91CF911F9199
:103C90000F91FF90EF90DF900895EF2841F482E0BC
:103CA00090E0F8019183808384EF9FEFEECF8981CC
:103CB0008093070690E00196F8019183808390E05D
:103CC00080E0E3CFCF93DF93EA010E948929882324
:103CD00021F00E94572D0E948A2982E090E099836A
:103CE00088838BEF9FEFDF91CF910895CF93DF9380
:103CF000EB0186E0FB0111928A95E9F78FEF88834B
:103D0000D8DD8983E7DD8A83E8DD9D838C83DF91BD
:103D1000CF910895CF93DF93EA010E948C298111FE
:103D200009C082E090E09983888385EF9FEFDF915F
:103D3000CF91089590E080E0B7DD81E090E0998335
:103D4000888390E080E0F3CF0F931F93CF93DF93AE
:103D5000EA018C01060F171F0E948C2981110BC0EC
:103D600082E090E09983888385EF9FEFDF91CF9188
:103D70001F910F910895F8018181823038F082E01F
:103D800090E0998388838EEF9FEFF0CF81E090E001
:103D90008BDD88E090E09983888390E080E0E6CF37
:103DA000CF93DF930097D1F4EB01FB01329686E0CD
:103DB000DF011D928A95E9F78FEF888385E089837B
:103DC0001A820E944A2D8B830E94492D9D838C83E9
:103DD00081E08E838F83DF91CF910895DF91CF9122
:103DE0001ACD84E29EE1909306068093050608951D
:103DF000809105069091060608951092060610928D
:103E000005060895809108069091090608954111CC
:103E100005C0611571058105910561F06093080683
:103E20007093090680930A0690930B0640930C0644
:103E300081E0089580E00895FF920F931F93CF9340
:103E4000DF938A01EC01C60FD71FF9800E944A2D2B
:103E5000F816190668F082E090E0F80191838083FB
:103E60008EEF9FEFDF91CF911F910F91FF900895FB
:103E70006C817D818E819F814B81C9DF811108C05A
:103E800082E090E0F8019183808384EF9FEFEACF96
:103E900089818093070690E00196F80191838083E1
:103EA00090E080E0DFCFCF93DF93EA01FC01E60FE3
:103EB000F71F64817581868197814381A8DF811115
:103EC00009C082E090E09983888384EF9FEFDF91BF
:103ED000CF91089581E090E09983888390E080E01D
:103EE000F6CFE8E0F6E04081518162817381480FAE
:103EF000511D611D711D4083518362837383089539
:103F0000CF93C09107064C2F50E060910806709146
:103F1000090601960E944B458C2FE3DF109207069D
:103F2000CF910895009799F4809108069091090621
:103F30002FEFFB012083892B59F02091070630E0F9
:103F40002F5F3F4F2417350719F4CB01D9CF63CC2E
:103F50000895009799F480910806909109062FEF33
:103F6000FB012083892B59F02091070630E02F5F59
:103F70003F4F2417350719F4CB01C2CF4CCC08951D
:103F800023E1AC01249FC001259F900D1124E091F5
:103F90001106F0911206E80FF91F23813481225097
:103FA000310981E02230310508F080E008950F9357
:103FB0001F93CF93DF930091130610911406D0E066
:103FC000C0E080E00C171D0749F491E0811190E0FA
:103FD000892FDF91CF911F910F9108958111F5CF16
:103FE000CE01CEDF2196EECFA0911106B091120640
:103FF000109729F120911306309114068217930728
:10400000F0F453E1589F9001599F300D1124A20FF5
:10401000B31FED91FC911197309789F012968C9116
:10402000681768F48BE0689FE00DF11D1124808112
:104030009181892B21F081E09281491708F080E07D
:1040400008959C0143E1429FC001439F900D1124BC
:10405000E0911106F0911206E80FF91F8385823076
:1040600091F481E090E06581768140913004509137
:1040700031046417750711F490E080E0892B19F082
:1040800081E0232B09F080E00895EF92FF920F93D7
:104090001F93CF93DF93EA01FC01E60FF71F028124
:1040A0001381E480F5804F2D6E2DC8019DDF8111B5
:1040B0000DC082E090E0998388838EEF9FEFDF91BF
:1040C000CF911F910F91FF90EF900895C80158DF95
:1040D000882339F082E090E09983888388EF9FEF0E
:1040E000EECF1093370400933604E0923804F09238
:1040F000390481E090E09983888390E080E0DFCF0D
:10410000CF92DF92EF92FF920F931F93CF93DF93A3
:104110007A01EC01C60FD71FC0903604D090370447
:104120000091380410913904412F602FC6015CDFE3
:10413000811110C082E090E0F701918380838AEFC3
:104140009FEFDF91CF911F910F91FF90EF90DF9044
:10415000CF900895C60114DF882341F082E090E0FB
:10416000F7019183808388EF9FEFEBCF4C815D81D6
:104170006E817F819A8189818F3F41F082E090E05A
:10418000F701918380838EEF9FEFDBCFE3E1EC9D1E
:104190009001ED9D300D1124E0911106F091120671
:1041A000E20FF31F0190F081E02D2BE0029FE00D64
:1041B000F11D11240190F081E02D27E0129FE00D08
:1041C000F11D1124808391838B81828343835483E7
:1041D000658376831F5F1093390481E090E0F701D7
:1041E0009183808390E080E0ACCFEF92FF920F93B9
:1041F0001F93CF93DF937A018C01060F171FC09195
:104200001106D0911206209781F021E030E0F801EC
:10421000828193814091130650911406841795076B
:1042200010F030E020E0232B71F482E090E0F70101
:10423000918380838EEF9FEFDF91CF911F910F913C
:10424000FF90EF90089543E1489F9001499F300D02
:104250001124C20FD31F94DE882341F082E090E046
:10426000F7019183808388EF9FEFE6CFF8012481E7
:10427000358120383105C8F687818111D6CF41813B
:10428000842F90E08F7E009741F082E090E0F7016C
:104290009183808386EF9FEFCFCF4F833E832D8323
:1042A000268128871986223010F421E0288721E012
:1042B00030E0F70131832083BFCF88E090E0FA013E
:1042C0009183808390E080E00895FB018FEF8083ED
:1042D00081E181838FEF9FEF9383828380E890E079
:1042E00095838483168217820895FB018FEF808364
:1042F00091E0918382839383848384E3858381E047
:1043000090E0978386830895DF92EF92FF920F9358
:104310001F93CF93DF93EA01FC01E60FF71F818122
:10432000813071F082E090E0998388838FEF9FEF76
:10433000DF91CF911F910F91FF90EF90DF90089543
:1043400082819381D4802581E680F78000911106D7
:10435000109112060115110539F482E090E099835D
:1043600088838CEF9FEFE4CF4091130650911406A1
:104370008417950738F082E090E0998388838EEF68
:104380009FEFD6CF892B39F082E090E09983888324
:1043900086EF9FEFCDCF8D2D8D7FB1F72130A1F727
:1043A00081E0D11006C091E0E916F10431F080E01F
:1043B00004C0E2E0EE16F104D0F3882329F390E084
:1043C00080E0DEDD882339F082E090E09983888305
:1043D00088EF9FEFADCFF801D38681E08487F68622
:1043E000E586108A178681E090E09983888390E0C3
:1043F00080E09ECF4CE050E069EB74E073CA8F928E
:104400009F92BF92CF92DF92EF92FF920F931F93F2
:10441000CF93DF93EA01FC01E60FF71F82819381BE
:104420000481B580E0911106F0911206309791F465
:1044300082E090E0998388838CEF9FEFDF91CF91AA
:104440001F910F91FF90EF90DF90CF90BF909F90C2
:104450008F900895209113063091140682179307C8
:1044600038F082E090E0998388838EEF9FEFE6CF6B
:1044700023E1289F6001299FD00C1124EC0DFD1D24
:10448000E080F180E114F10499F28281081748F785
:104490008BE0089F80011124E00EF11EF70180815E
:1044A0009181892B29F6BB20E1F2F7E0BF9E400104
:1044B0001124C4010E944E2EF70191838083E09164
:1044C0001106F0911206EC0DFD1D0190F081E02D1A
:1044D000E00FF11F80819181009739F482E090E034
:1044E000998388838DEF9FEFA9CFA40170E060E0EE
:1044F0000E9454458091110690911206C80ED91E53
:10450000F60180819181080F191FF801B28281E0C4
:1045100090E09983888390E080E090CFAF92BF9243
:10452000CF92DF92FF920F931F93CF93DF93EA0115
:10453000FC01E60FF71F82819381F4800091110640
:10454000109112060115110581F482E090E0998323
:1045500088838CEF9FEFDF91CF911F910F91FF9098
:10456000DF90CF90BF90AF900895209113063091C7
:1045700014068217930738F082E090E099838883CD
:104580008EEF9FEFE8CF2FEF2F0D2C3FA8F723E101
:10459000289F6001299FD00C11240C0D1D1DF801CE
:1045A00080819181892B89F6FBE0FF9E50011124C7
:1045B000C5010E944E2EF80191838083E09111067F
:1045C000F0911206EC0DFD1D80819181009739F468
:1045D00082E090E0998388838DEF9FEFBCCFA501A7
:1045E00070E060E00E945445E0911106F0911206DF
:1045F000EC0DFD1DF28281E090E09983888390E0CC
:1046000080E0A9CFCF92DF92EF92FF920F931F939A
:10461000CF93DF93860F971FFC0102811381809156
:10462000110690911206892B81F082E090E0FA0148
:10463000918380838CEF9FEFDF91CF911F910F913A
:10464000FF90EF90DF90CF900895C801B0E0A0E018
:104650000197A109B1098F3F9F4FA105B10540F016
:1046600082E090E0FA01918380838EEF9FEFE4CFA8
:104670007A0183E1809F6001819FD00C1124C601E3
:104680000E944E2EEC01009741F482E090E0F70189
:10469000918380838DEF9FEFCFCFA60170E060E024
:1046A0000E945445D0931206C0931106109314062D
:1046B0000093130690E080E02FEF3FEF41E061E0D0
:1046C00070E08017910741F481E090E0F701918359
:1046D000808390E080E0B0CF3A8B298B1B864C879B
:1046E0007E876D87188A1F8601966396EACFCF92E0
:1046F000DF92EF92FF920F931F93CF93DF93EC0122
:10470000D12CC12C10E000E0F12CE12C6A81601763
:10471000110609F0CCF483E0689FB0011124AE01CA
:104720004F5E5F4FC7010E94B32E009721F02FEF1D
:104730003FEF3A8B298BDF91CF911F910F91FF9023
:10474000EF90DF90CF900895E881F981EC0DFD1D89
:10475000438154818D859E85489F9001499F300DEE
:10476000589F300D1124C90101960115110519F446
:104770004F8144FD049661E070E00E94FB2CE81636
:10478000F90608F47C010F5F1F4F8BE0C80ED11CA7
:10479000BDCFF89420910F063091100681E02115CD
:1047A000310509F080E0232B09F0789408952F92C9
:1047B0003F924F925F926F927F928F929F92AF92B1
:1047C000BF92CF92DF92EF92FF920F931F93CF93FE
:1047D000DF933C01660E771EF301828193814C01C9
:1047E000B12CA12CC0911106D0911206209769F02E
:1047F00021E030E060911306709114068617970748
:1048000010F030E020E0232BD1F482E090E0FA01B8
:10481000918380838EEF9FEFDF91CF911F910F9156
:10482000FF90EF90DF90CF90BF90AF909F908F90D0
:104830007F906F905F904F903F902F90089580925F
:104840003A0490923B04A0923C04B0923D0463E190
:10485000689F9001699F300D1124C20FD31FF3018F
:104860008181833040F082E090E0FA01918380837F
:1048700086EF9FEFD1CF2A012B813C81232BF1F4CE
:10488000288139819F8191FF2EC0232B09F46FC0AD
:10489000209116069A81422F490F5527551FBA01BC
:1048A00041E050E06138710514F050E040E0452BE4
:1048B00009F45DC02A87920F9093160681508230CA
:1048C00008F481C066DF882309F4D8C0F301818130
:1048D000813009F48DC008F47BC0823009F4C6C071
:1048E00090E080E0ADC0232B09F441C02091150673
:1048F0009A81E22FE90FFF27FF1F41E050E0ED3FD3
:10490000F10514F050E040E0452B89F12A87920F21
:1049100090931506D3CFA081B181A20FB31F11963A
:104920006C91060F111D0196295F3F4F8417950763
:1049300094F38D859E85089F1001099F300C189F68
:10494000300C1124C114D104D1F48F8184FF17C01D
:104950000E94492DF5E02F0E311C21E082159305B0
:1049600008F420E0A701455F5F4F21110EC082E0EF
:1049700090E0F2019183808387EF9FEF4DCF0E94FB
:10498000492D2FEF221A320AE8CF88819981E80E4B
:10499000F91EF70114830383FFEFCF1ADF0A7A01B0
:1049A0008A818C151D0409F00CF48CCFE881F98103
:1049B000EE0DFF1D428150E030E020E010E000E00D
:1049C00090E080E0B3CFF12CE12CD12CC12CE8CFCA
:1049D00081E090E09C838B83EADA882309F480CF1E
:1049E00081E090E00E94541C80E40E94621C78CF19
:1049F00089899A89019661F083E090E09C838B839A
:104A000082E090E00E94541C80E40E945C1C68CF0D
:104A10008D819E812091300430913104821793075B
:104A2000D1F46091340470913504AE014F5E5F4F54
:104A300080913204909133040E94D22F0097E1F2CA
:104A4000789422E030E0F20131832083892B99F0C1
:104A50008DEF9FEFE1CE89288A288B2869F6892B74
:104A600059F6CE0144DE188A1F86E8CF82E090E036
:104A70009C838B8335CF90E080E0CECE82E090E0C7
:104A8000F2019183808385EF9FEFC6CE8F929F9234
:104A9000AF92BF92CF92DF92EF92FF920F931F934C
:104AA000CF93DF93EA018C01060F171FF801818174
:104AB000833098F082E090E09983888386EF9FEFBF
:104AC000DF91CF911F910F91FF90EF90DF90CF90EA
:104AD000BF90AF909F908F90089580911106909114
:104AE0001206892B61F081E090E02091130630914D
:104AF0001406232B11F490E080E0892B39F482E036
:104B000090E0998388838EEF9FEFDACF42DE88238F
:104B100009F4DFC0F8018181813009F495C0E8F023
:104B2000823099F42091130630911406E091110619
:104B3000F091120690E080E041E050E0281739073C
:104B400009F0BDC034DA811117C0789481E090E09B
:104B50009983888390E080E0B3CF20911306309151
:104B60001406E0911106F091120690E080E041E019
:104B700050E02817390741F481E090E00E94541C6E
:104B800080E40E94621CE1CF63817481672B11F085
:104B90005483438301967396ECCFE0911106F09114
:104BA0001206E00FF11F2381348122303105D9F440
:104BB000218932892F3F3F4FB1F4258136814091C1
:104BC0003004509131042417350761F5AF014F5E71
:104BD0005F4F60913404709135048091320490915C
:104BE00033040E94D22FEFEFCE1ADE0AEE0AFE0A3D
:104BF0000D5E1F4F409113065091140670E060E067
:104C0000C416D506E606F7063CF5009731F278940F
:104C1000892B09F49BCF82E090E0998388838DEF04
:104C20009FEF4ECFC114D104E104F104E1F6232B30
:104C3000D1F6CF015CDDE0911106F0911206E00F94
:104C4000F11F108A1786CFCF10E000E090E080E0DF
:104C5000C12CD12C7601CECF0097C9F610E000E030
:104C6000812C912C540183E0E82EF12C1AC0E091A4
:104C70001106F0911206E00FF11F838194810297D3
:104C800049F4F482E38282E090E00E94541C80E4C4
:104C90000E945C1CFFEF8F1A9F0AAF0ABF0A0D5ECD
:104CA0001F4F8091130690911406B0E0A0E0881683
:104CB0009906AA06BB06DCF290E080E0A8CF6381EB
:104CC00074816230710511F45483438301967396A5
:104CD00035CF82E090E09983888385EF9FEFF0CE17
:104CE0000097B9F48FEFFB01808320913A04309153
:104CF0003B0443E1429FC001439F900D1124E0918A
:104D00001106F0911206E80FF91F8285FB018183DD
:104D100008950C940B1C88E090E0FA019183808345
:104D200090E080E008951092100610920F06E1E1E5
:104D3000F6E086E0DF011D928A95E9F78AEF91E2BD
:104D400090930E0680930D06089580910D06909124
:104D50000E0608952F923F924F925F926F927F922C
:104D60008F929F92AF92BF92CF92DF92EF92FF927B
:104D70000F931F93CF93DF93CDB7DEB760970FB636
:104D8000F894DEBF0FBECDBFF894E0910F06F0910E
:104D900010063196F0931006E0930F067894A091D8
:104DA0001106B0911206BA83A983109709F4FAC1CB
:104DB000E0911306F0911406EF2B09F4F3C1288754
:104DC0004B875C876D877E879A878987B88BAF878B
:104DD000312C212CF12C512C412C809113069091D7
:104DE00014062816390610F4FF2029F1F894809152
:104DF0000F069091100601979093100680930F066E
:104E00007894C20160960FB6F894DEBF0FBECDBF96
:104E1000DF91CF911F910F91FF90EF90DF90CF9096
:104E2000BF90AF909F908F907F906F905F904F90CA
:104E30003F902F900895B10190E080E088D4682ED3
:104E4000EF85F889878181FD3DC083819481039737
:104E5000C9F5258136813C832B8389859A8528175E
:104E6000390781F5C101EDD8782E8823A9F1AF85E6
:104E7000B8891F968D919C915097019621E01D96BF
:104E80004D915C918417950709F020E02F83B12C98
:104E9000A12CEF85F88982818A151B0419F014F082
:104EA000FF20E9F0F885FF2309F46CC1AF85B889CC
:104EB00050961C921E921F97662021F0B10190E03F
:104EC00080E047D4FFEF2F1A3F0A2F8538892D5EE7
:104ED0003F4F388B2F8781CFB1E0BF83D8CFC0D46D
:104EE0009E838D83E885EE23E9F0772009F43CC1A9
:104EF000AF85B8891F968D919C91892B79F0BBE085
:104F0000BA9DC001BB9D900D1124AF85B889ED916C
:104F1000FC91E80FF91F85819681F9D6BFEFAB1A96
:104F2000BB0AB7CF81E0772039F0EF85F889278574
:104F30003089232B09F080E0F82EE12CA114B10474
:104F400039F4AF85B8891796EC90E4FAEE24E0F8CE
:104F5000BBE0BA9D6001BB9DD00C1124882309F4ED
:104F600024C1AF85B889ED91FC911197EC0DFD1D21
:104F7000438154811D962D913C91429FC001439FD6
:104F8000900D529F900D1124E1105DC00196908705
:104F9000878361E070E0878190852DD5EF85F88962
:104FA00021893289008111810C0D1D1D2F3F32078F
:104FB00009F44BC0BC01C9010E941330D8011696F8
:104FC0009C938E931597AF85B889ED91FC911197BD
:104FD000EC0DFD1D058116810115110509F4CDC0EB
:104FE000ED81FE810E0F1F1F1A968C918A0DD8013C
:104FF0008C93E1102FC00F5F1F4FAF85B889ED91E3
:10500000FC91EC0DFD1D12870187AF85B889ED91EC
:10501000FC91EC0DFD1D85819681892B09F4A4C0BE
:1050200080913004909131042B813C8128173907FD
:1050300009F465C0772011F001851285912C812C2F
:105040001A8219824AC00596A2CF28D6F801968303
:105050008583B9CF8B859C85AD85BE85F80181831D
:105060009283A383B4830B5F1F4FC7CFE080F1808F
:10507000E80CF91CD70113966D917C9114978C91D3
:105080008F3F09F473C0E1E0F0E002C0EE0FFF1FB4
:105090008A95E2F7CF01092E000CAA0BBB0BFB018E
:1050A000408151816281738184239523A623B72394
:1050B00021E0892B8A2B8B2B09F420E0D8012C933B
:1050C000D70111968C91080F111DE981FA81319653
:1050D000FA83E983F7E08F0E911CAF85B889ED91D3
:1050E000FC91EC0DFD1D828129813A818217130606
:1050F00011F00CF0BBCF772011F0128701873F81B0
:10510000332391F1AF85B889ED91FC91EC0DFD1D34
:1051100061E070E0878190856ED4AF85B889ED91AC
:10512000FC91EC0DFD1DE780F08445815681E1E0A6
:10513000F0E0662011F0F0E0E0E00D811E819C01BE
:10514000B101882799278E1B9F0B8DD32C01892BAA
:1051500059F0EF85F88980819181C80ED91ED6015A
:1051600015968D919C91D3D5F12CD8CEF701418124
:1051700050E0C8010E944B45A3CF86EF482E55242E
:105180005A94CCCEEF85F889878590890196908BCB
:105190008787258536858217930709F08DCE108A7B
:1051A00017868ACE512C412C21CE10E000E02DCF65
:1051B0002F923F924F925F926F927F928F929F9227
:1051C000AF92BF92CF92DF92EF92FF920F931F9315
:1051D000CF93DF93809111069091120610E000E0CA
:1051E000892BA9F0D6DA0AEF1FEF882381F02090EF
:1051F000130630901406C0911106D0911206D12CDE
:10520000C12C10E000E02C143D04A9F47894C801EE
:10521000DF91CF911F910F91FF90EF90DF90CF9092
:10522000BF90AF909F908F907F906F905F904F90C6
:105230003F902F900895C6010E942120882309F1F4
:105240008B819C810397E9F48F859889892BC9F01C
:10525000B60190E080E07BD221E030E0882311F0BD
:1052600030E020E044245524421A530AB12CA12CEA
:10527000912C812C8A818815190409F038F4188A38
:105280001F864FEFC41AD40A6396BDCFE881F98117
:10529000EA0DFB1D85819681892BA1F161E070E00B
:1052A00087819085A8D33C01DBD28C01E881F9810C
:1052B000EA0DFB1D8185928525813681200F311FE6
:1052C000AC01421B530B9A0147815085421B530B83
:1052D00070E060E00E945445E881F981EA0DFB1D11
:1052E000E780F084458156819301B601C201BBD2AB
:1052F0008C01892B39F0E881F981EA0DFB1D85814C
:10530000968105D55FEF851A950A8BE0A80EB11C32
:10531000B1CF3FCA789408952F923F924F925F92F7
:105320006F927F929F92AF92BF92CF92DF92EF9255
:10533000FF920F931F93CF93DF9300D000D0CDB790
:10534000DEB700911106109112069924939401156D
:10535000110509F43EC0A0901306B090140619DAA6
:10536000982E8823B1F11092120610921106109215
:1053700014061092130610921506109216068FEF5F
:105380009FEFDC0180933A0490933B04A0933C048C
:10539000B0933D0478947FD31E830D83C12CD12C10
:1053A0007601C501B0E0A0E089839A83AB83BC831A
:1053B00022242A94322C89819A81AB81BC81C8161F
:1053C000D906EA06FB06F4F0C801A1D480E40E94E5
:1053D000621C892D26960FB6F894DEBF0FBECDBF96
:1053E000DF91CF911F910F91FF90EF90DF90CF90C1
:1053F000BF90AF909F907F906F905F904F903F9045
:105400002F900895AD81BE8115968D919C91169730
:10541000209130043091310482179307D1F45196D2
:105420008D919C91EED5ED81FE8180819181B12C91
:10543000A12C412C512C3201892B89F5BFEFCB1ABD
:10544000DB0AEB0AFB0AED81FE817396FE83ED8396
:10545000B2CFC114D104E104F10429F7892B19F763
:10546000ED81FE81818992898F3F980709F029D5C6
:10547000AD81BE8152963C922E925197D4CF8A0D27
:105480009B1DDC018D919C91009709F040D4BFEFEA
:105490004B1A5B0A6B0A7B0AEBE0AE0EB11CAD81C6
:1054A000BE818D919C91119712964C9150E070E0C5
:1054B00060E044165506660677060CF328D4BECF86
:1054C000CF93DF93EA0128DF811109C082E090E0E9
:1054D0009983888385EF9FEFDF91CF91089581E0D5
:1054E00090E00E94541C81E090E09983888390E0D2
:1054F00080E0F2CF11DF10920E0610920D06089593
:1055000042E050E061E075E00C94721CFF920F9352
:105510001F93CF93DF938A01EC01C60FD71FF98049
:10552000B9D20897F816190671F068F082E090E099
:10553000F801918380838EEF9FEFDF91CF911F91D0
:105540000F91FF9008956C817D818E819F814B81A9
:105550000E94071F811108C082E090E0F80191834A
:10556000808384EF9FEFE9CFF9800E94021F4F2DC7
:1055700050E0BE01685F7F4F0E944B4589810E94C9
:10558000711F81E090E0F8019183808390E080E0DA
:10559000D4CFDF92EF92FF920F931F93CF93DF93BD
:1055A0008A01EC01C60FD71F0E94021F7C01D9801F
:1055B00071D2DD2059F0029721E030E0D8161906AB
:1055C00019F010F030E020E0232B79F482E090E035
:1055D000F801918380838EEF9FEFDF91CF911F9130
:1055E0000F91FF90EF90DF900895EF2841F482E053
:1055F00090E0F8019183808384EF9FEFEECFF980F4
:105600000E94021F4F2D50E0BE016E5F7F4F0E942F
:105610004B4589810E94711F81E090E0F8019183E0
:10562000808390E080E0D9CF80E89AE290931806DA
:105630008093170608958091170690911806089593
:105640000895FC0111821082938382830895DB0107
:105650001D921C92DC011296ED91FC9113977183BF
:10566000608313967C936E9312970895FC0180815A
:105670009181DB018D939C93A081B181109741F0C2
:105680008D919C9191838083892B11F4F383E28324
:105690000895FC0180819181DB018D939C93892B7E
:1056A00011F473836283718360830895FC01118216
:1056B0001082938382830895CF93DF931F921F926A
:1056C000CDB7DEB71A821982F894BE016F5F7F4FA3
:1056D0008EE196E0CBDF89819A81009709F017D39C
:1056E00089819A81892B89F7BE016F5F7F4F82E2A2
:1056F00096E0BCDF89819A81009709F008D38981FF
:105700009A81892B89F778940F900F90DF91CF9130
:105710000895CF93DF931F921F92CDB7DEB71A8201
:105720001982F894BE016F5F7F4F8AE196E09EDF99
:1057300089819A81009709F0EAD289819A81892B1F
:1057400089F778940F900F90DF91CF91089581E0C1
:10575000089590E080E00895EF92FF920F931F93D9
:10576000CF93DF931F921F92CDB7DEB71A821982B3
:105770008091190607EF1FEF8823A1F1F894BE016D
:105780006F5F7F4F82E296E071DF789489819A8122
:10579000EE24E394F12C892B51F4F894BE016F5F51
:1057A0007F4F8EE196E062DF7894F12CE12C8981C5
:1057B0009A810EEF1FEF0097A9F0FC0142815381FF
:1057C00064E070E076D68C01892B61F0F8946981F1
:1057D0007A81C701880F991F880F991F825E994FA0
:1057E00058DF7894C8010F900F90DF91CF911F91EF
:1057F0000F91FF90EF9008950F931F93CF93DF9336
:1058000000D01F92CDB7DEB71C821B821A8219828C
:105810008091190607EF1FEF8823C1F0AE014D5F9D
:105820005F4F64E070E0CE010196B6D68C01892B03
:1058300069F4E981FA818B819C8193838283F89456
:1058400069817A818AE196E002DF7894C8010F903D
:105850000F900F900F90DF91CF911F910F910895AE
:10586000BBD7049608958F929F92AF92BF92CF922A
:10587000DF92EF92FF920F931F93CF93DF931F92CC
:105880001F92CDB7DEB71A821982BC016F5F7F4FBE
:105890006330710598F0AA24AA94BA2CC5010F9020
:1058A0000F90DF91CF911F910F91FF90EF90DF90BC
:1058B000CF90BF90AF909F908F9008954115510564
:1058C00051F3480159018A016C01CADF8815990515
:1058D00011F7E114F104F9F28E0D9F1DA816B90617
:1058E000D0F2809119068823F1F0F894B501645044
:1058F00071099701AE014F5F5F4FC8010496E1D671
:105900005C01892B71F489819A81F80193838283E8
:10591000C601880F991F880F991FB801825E994FA1
:1059200096DE7894BBCF87EFA82EBB24BA94B6CF6F
:10593000AF92BF92CF92DF92EF92FF920F931F939D
:10594000CF93DF931F921F92CDB7DEB71A821982D1
:10595000892B09F047C06115710509F443C0411551
:10596000510509F43FC02115310509F43BC001156B
:105970001105C1F1809119068823B9F179016A01F5
:105980005B01F894BE016F5F7F4F8AE196E06EDEA7
:10599000789489819A81009759F1DC0112966D9172
:1059A0007C91A8010496A6D68C01E981FA81D501E3
:1059B000ED93FC93828193810496F6019183808319
:1059C0004FDFD7018D939C93C8010F900F90DF910B
:1059D000CF911F910F91FF90EF90DF90CF90BF90EC
:1059E000AF9008950FEF1FEFEFCF07EF1FEFECCF52
:1059F0000EEF1FEFE9CFCF93DF93EC01672B71F42C
:105A0000F4D68C179D0760F0E7D62496C80FD91FEF
:105A1000E6D68C0F9D1FDF91CF910895E3D6F1CF8D
:105A200090E080E0F8CF0F931F93CF93DF93209106
:105A3000190621112BC08B01EC018EE196E001DEED
:105A400082E296E0FEDD8AE196E0FBDD97D00097EA
:105A5000C1F4CBD670E060E0CEDF4EE354E062E00C
:105A600070E081D1009769F480913E0490913F04E9
:105A7000CED6B801CE0103D5009719F421E02093CA
:105A80001906DF91CF911F910F91089584EF9FEF39
:105A9000F8CFA8C6AAC6CF93DF93AAD6EC01892B6C
:105AA00011F40ADE36DECE01DF91CF910895CF9357
:105AB000DF939ED6EC01892B09F4FEDDCE01DF9148
:105AC000CF91089580913E0490913F040895CF9323
:105AD000DF9380911906D0E0C0E08823D1F09CD6F6
