:1000000079C000009FC000009DC000009BC00000A0
:1000100099C0000097C0000095C0000093C0000088
:1000200091C000008FC000008DC000008BC0000098
:1000300089C0000087C0000085C0000083C00000A8
:100040000C94F6397FC000000C94ED3C0C941F3DDD
:1000500079C0000077C0000075C0000073C00000C8
:100060000C94D9386FC00000028988083EABAAAA58
:10007000AABE000000803F07634236B79BD8A71A8C
:1000800039685618AEBAAB558C1D3CB7CC5763BD1A
:100090006DEDFD753EF6177231BF000000803F0028
:1000A0000000000800020100000304070000000037
:1000B0000000000001020408102040800102040832
:1000C00010200102040810200404040404040404A1
:1000D0000202020202020303030303030000000002
:1000E000250028002B0000000000240027002A0023
:1000F0004536443D11241FBECFEFD8E0DEBFCDBF53
:1001000013E0A0E0B1E0E4EEFBE702C005900D9241
:10011000A23CB107D9F728E0A2ECB3E001C01D92E0
:10012000AD3BB207E1F710E0CAE7D0E004C0219789
:10013000FE010E94C13DC837D107C9F70E949D301A
:100140000C94F03D5DCFCF92DF92EF92FF926B0166
:100150007C01C114D104E104F10469F4809100012F
:10016000811109C080910201909103010E94B6356E
:1001700081E080930001C601880F991F880F991FA5
:1001800080509F4FFF90EF90DF90CF9008950097A1
:1001900081F0FC012181211104C040EA56E861E0B0
:1001A00070E0FC01828193810E94C53590E080E07F
:1001B000089588E090E008954F925F926F927F9249
:1001C0008F929F92AF92BF92CF92DF92EF92FF9267
:1001D0000F931F93CF93DF930097C9F12801390143
:1001E0007A01EC01402F8A819B810E9443368A81EB
:1001F0009B81DC01ED91FC910084F185E02D099556
:10020000892B01F16701812C912C54018A819B81FA
:10021000DC01ED91FC910084F185E02D0995892B9D
:1002200091F184149504A604B70469F18A819B8135
:10023000DC01ED91FC910284F385E02D09958F3F5F
:100240009807C1F484E0F70111928A95E9F788E0F4
:1002500090E0DF91CF911F910F91FF90EF90DF9091
:10026000CF90BF90AF909F908F907F906F905F9056
:100270004F900895FFEF8F1A9F0AAF0ABF0AD60169
:100280008D936D01C3CF90E080E0E3CF8F929F927A
:10029000AF92BF92CF92DF92EF920F931F93CF93C3
:1002A000DF930097F1F06A01EC018A819B810E9443
:1002B000C8358A819B81DC01ED91FC910280F3813C
:1002C000E02DA801B60109958A819B8160E0E110CB
:1002D00001C061E00E94D235882389F082508230CB
:1002E00088F088E090E0DF91CF911F910F91EF901F
:1002F000DF90CF90BF90AF909F908F90089590E047
:1003000080E0F1CF84E090E0EECF0895611102C06B
:100310000C945A3B6130E1F362E0FACF662319F0A6
:1003200061E00C94963B60E0FCCFCF92DF92EF92BD
:10033000FF92CF93882351F16A017B01CFEFC80F61
:1003400020E030E0A901CB01B6010E949D3187FF7A
:1003500011C0C701B60190580E940E329B01AC013A
:100360006C2F70E090E080E0CF91FF90EF90DF90F5
:10037000CF90B2C0C701B6010E9409328C2FCF9135
:10038000FF90EF90DF90CF900C94D63ACF91FF90F2
:10039000EF90DF90CF9008950F931F938B019C01F6
:1003A00083E036952795179507958A95D1F70E53D3
:1003B0001C4F462F477021E030E0F90102C0EE0FDC
:1003C000FF1F4A95E2F7AF01F80120812423CB01FA
:1003D0000196211102C090E080E01F910F910895D5
:1003E0000F931F938B019C0183E0369527951795FA
:1003F00007958A95D1F7677081E090E001C0880F7A
:100400006A95EAF7F801EE53FC4F2081452B31F451
:100410008095822380831F910F910895822BFACFBC
:100420002F923F924F925F926F927F928F929F9204
:10043000AF92BF92CF92DF92EF92FF920F931F93F2
:10044000CF93DF93D62EC72E782E692E49015A01FD
:10045000280161E08D2D0E945A3BCD2DDC2D8E01AF
:100460000F5F1F4FA8016D2D7C2D872D962DB8DFB6
:1004700020E030E0A901C201B7010E948D331816B7
:1004800064F4C201B7010E940E322B01C501B40110
:100490000E940E32A201CE0123D0C801DF91CF917C
:1004A0001F910F91FF90EF90DF90CF90BF90AF9092
:1004B0009F908F907F906F905F904F903F902F9084
:1004C0000895882341F08150682F70E090E080E02B
:1004D00050E040E085CF0895862FB9010C94D63ABC
:1004E0009C01FC01E056FF4FE491E33061F140F4E0
:1004F000E13011F1E23021F160E0822F0C94963B63
:10050000E730C1F1E83009F441C0E430A9F7809147
:1005100080008C7F82608093800090918100907E2B
:100520009061692B6093810050938700409386000F
:100530008091800080621BC084B5806884BDDCCF60
:1005400084B58062FBCF809180008C7F8260809335
:10055000800090918100907E9061692B6093810072
:10056000509387004093860080918000806880933C
:100570008000C2CF8091B00080688093B0008091ED
:10058000B100887F682B6093B100B6CF8091B00036
:100590008062F3CF90E080E008950F931F9300975F
:1005A00009F489C06115710509F485C00091B7028D
:1005B0001091B8022091B9023091BA020E3F1F4F3C
:1005C0002F4F3F4F09F068C04FEF5FEFBA014093E4
:1005D000B7025093B8026093B9027093BA02409187
:1005E000B7025091B8026091B9027091BA02DC0171
:1005F0001296ED91FC9180819181A281B3818093CB
:10060000490490934A04A0934B04B0934C04848112
:100610009581A681B7818093450490934604A09369
:100620004704B093480480859185A285B385809363
:10063000410490934204A0934304B09344048485FE
:100640009585A685B78580933D0490933E04A0933D
:100650003F04B09340041092390410923A0410926F
:100660003B0410923C040E94841389EA93E1909326
:10067000CC038093CB039093CE038093CD030E9451
:100680007312009731F421E030E030934E04209350
:100690004D041F910F9108950091B7021091B80277
:1006A0002091B9023091BA02DB010D931D932D9375
:1006B0003C93139794CF8FEF9FEFEBCF8F929F9246
:1006C000AF92BF92CF92DF92EF92FF921F93CF93A0
:1006D000DF934B015C011091500482E090E0909315
:1006E0004E0480934D0481149104A104B10441F49B
:1006F00080915004811104C080914F04C1E08111A8
:10070000C0E0C12CD12C760180915004811106C02B
:1007100080914F04811102C0CC23D9F083E090E096
:1007200090934E0480934D04CC2381F1CCE9DFEF0C
:10073000111102C00E940D17CE01DF91CF911F91C0
:10074000FF90EF90DF90CF90BF90AF909F908F90F1
:1007500008956AE070E080E090E00E94653A80E1F0
:10076000C80E87E2D81EE11CF11C8FEF8816980690
:10077000A806B80631F0C1E08C149D04AE04BF0495
:1007800008F0C0E080E00E94A712BECFD0E0C0E039
:10079000CFCFCF92DF92EF92FF920F931F93CF9321
:1007A000DF938F3F910511F008F051C020914D0467
:1007B00030914E042330310539F020914D043091B1
:1007C0004E042130310531F424E030E030934E0402
:1007D00020934D046A017B01EC0182309105A8F061
:1007E00011E0AE01C701B6010E947212AB01BC015B
:1007F000CE011123F9F0DF91CF911F910F91FF905E
:10080000EF90DF90CF900C9436198C01000F111FE0
:1008100005531C4FD8018D919C91892B09F30E949F
:1008200040190297E9F6D801ED91FC91CE010995A6
:10083000182FD7CF0E94581990E080E0DF91CF9118
:100840001F910F91FF90EF90DF90CF9008958FEF61
:100850009FEFF4CF80E00C94A712CF93DF9386E054
:1008600090E090934E0480934D040E940013EC019D
:10087000EBECF3E084E0DF011D928A95E9F70E943A
:10088000A51610924E0410924D04CE01DF91CF9127
:10089000089580914F0408958091380408956093DD
:1008A000B7027093B8028093B9029093BA0290E0B5
:1008B00080E008952F923F924F925F926F927F92C5
:1008C0008F929F92AF92BF92CF92DF92EF92FF9260
:1008D0000F931F93CF93DF9300D000D000D0CDB7FC
:1008E000DEB72B013C0129833A834B835C831701DC
:1008F000DE82CD82F701C080D180E280F380ED817D
:10090000FE8184809580A680B780A5019401C701EF
:10091000B6010E948D33F80118167CF0ED81FE813E
:1009200080849184A284B384A5019401C701B60197
:100930000E949D31F80187FF60C080829182A2826F
:10094000B382ED81FE812485358546855785C301B7
:10095000B2010E949133ED81FE8120893189428963
:1009600053890E94913329813A814B815C810E9495
:100970002631ED81FE8124893589468957890E9477
:1009800091336B017C010E9470118823D9F1609131
:10099000AF087091B0088091B1089091B208ED81D4
:1009A000FE81208D318D428D538D0E949133ED81DA
:1009B000FE81248D358D468D578D0E942631F101A3
:1009C000608371838283938326960FB6F894DEBF8B
:1009D0000FBECDBFDF91CF911F910F91FF90EF9090
:1009E000DF90CF90BF90AF909F908F907F906F904F
:1009F0005F904F903F902F900895C082D182E28205
:100A0000F3829FCF20E030E0A901C701B6010E9428
:100A10009D3187FD0DC020E030E0A901C701B6017E
:100A20000E948D3318164CF060E070E0CB01B7CF18
:100A300060E070E080E89FEBB2CF60E070E080E8BB
:100A40009FE3ADCFCF92DF92EF92FF926B017C01DB
:100A50009F7720E030E040E859E50E949D3187FF14
:100A60002BC020E030E040E05FE3C701B6010E9408
:100A70008D3387FD0EC020E030E040E05FE3C7012A
:100A8000B6010E942631FF90EF90DF90CF900C943A
:100A9000773220E030E040E05FEBC701B6010E9412
:100AA0008D33181684F420E030E0A901C701B601A7
:100AB0000E9491336B017C01C701B601FF90EF905A
:100AC000DF90CF90089520E030E040E05FE3C70181
:100AD000B6010E942531FF90EF90DF90CF900C94EB
:100AE0008A312F923F924F925F926F927F928F92B4
:100AF0009F92AF92BF92CF92DF92EF92FF920F93AD
:100B00001F93CF93DF93CDB7DEB7A1970FB6F894BD
:100B1000DEBF0FBECDBF809193088150823008F0B8
:100B200044C483E0809393088091A208815082306E
:100B300008F03DC483E08093A20880919208815020
:100B4000823008F036C483E0809392088091910847
:100B50008150823008F02FC483E080939108C090C8
:100B60002001D0902101E0902201F0902301A70103
:100B70009601609135087091360880913708909100
:100B800038080E949D31882341F0C0923508D092E8
:100B90003608E0923708F09238088CE08987C12C3B
:100BA000EE24E39401E010E020E030E0AE01475F86
:100BB0005F4F66E370E080912B0890912C0866DB14
:100BC00089878111FAC3CC24C394E12C04E010E09E
:100BD00020E030E0AE014F5F5F4F66E370E0809150
:100BE0002B0890912C08E8DA84E0FE013196DE01B2
:100BF000159601900D928A95E1F78D819E819D83D6
:100C00008E838F8198859F838887209159083091A2
:100C10005A0840915B0850915C08609108027091FD
:100C2000090280910A0290910B020E9491336E8713
:100C30007F87888B998B2091740230917502AF81E8
:100C4000B8850E94C73D6B017C01C0922108D092FB
:100C50002208E0922308F092240881E090E040917D
:100C60001C0150911D0160911E0170911F01C4165D
:100C7000D506E606F70610F090E080E020917602B7
:100C8000289FB001299F700D1124072E000C880B9E
:100C9000990B0E943C329B01AC010E9426314B0112
:100CA0005C01C701B6010E943A3220E030E040E02A
:100CB00056E30E9491339B01AC01C501B4010E942F
:100CC000263120910C0230910D0240910E0250917C
:100CD0000F020E94253120911002309111024091A3
:100CE0001202509113020E94913360930508709391
:100CF0000608809307089093080820911402309109
:100D0000150240911602509117020E9491336A8B8E
:100D10007B8B8C8B9D8BC0905D08D0905E08E090A3
:100D20005F08F09060084090610850906208609001
:100D30006308709064082091380230913902409124
:100D40003A0250913B02C701B6010E9491334B0118
:100D50005C0120913C0230913D0240913E02509155
:100D60003F02C301B2010E9491339B01AC01C50156
:100D7000B4010E9426314B015C0120914802309160
:100D8000490240914A0250914B026E857F858889C5
:100D900099890E9491336A877B878C879D872091F0
:100DA0004C0230914D0240914E0250914F026A899F
:100DB0007B898C899D890E9491339B01AC016A8556
:100DC0007B858C859D850E9426319B01AC01C501E8
:100DD000B4010E9426316093FD077093FE07809353
:100DE000FF0790930008209140023091410240910A
:100DF000420250914302C701B6010E9491336B0138
:100E00007C0120914402309145024091460250916C
:100E10004702C301B2010E9491339B01AC01C7019B
:100E2000B6010E9426316B017C0120915002309165
:100E3000510240915202509153026E857F858889FC
:100E400099890E9491334B015C01209154023091A9
:100E5000550240915602509157026A897B898C89CC
:100E60009D890E9491339B01AC01C501B4010E9490
:100E700026319B01AC01C701B6010E942631609367
:100E8000010870930208809303089093040860930C
:100E9000090870930A0880930B0890930C088091BE
:100EA000600290916102A0916202B091630280930E
:100EB0000D0890930E08A0930F08B0931008C090EF
:100EC0005C02D0905D02E0905E02F0905F0220E054
:100ED00030E0A901C701B6010E949D3187FF70C2B1
:100EE000C701B6010E948A316093150870931608F5
:100EF0008093170890931808609115087091160850
:100F000080911708909118080E947011882309F4A5
:100F10005CC21092150810921608109217081092D1
:100F20001808C0901508D0901608E0901708F090A7
:100F3000180820E030E0A901C701B6010E949D31E8
:100F400087FF65C2C701B60190580E940E32909586
:100F50008095709561957F4F8F4F9F4F63307105DE
:100F60008105910509F4E1C30CF056C261307105A9
:100F70008105910509F47FC26230710581059105F3
:100F800009F4ABC369E070E080E090E005DA8C0121
:100F900090935808809357082091110830911208B7
:100FA0004091130850911408609168027091690291
:100FB00080916A0290916B020E9491336B017C01D7
:100FC00020E030E04FE753E40E949D3118160CF406
:100FD000AAC6C0921508D0921608E0921708F0929F
:100FE000180820E030E0A9016091150870911608FA
:100FF00080911708909118080E948D3387FF08C0D0
:1010000010921508109216081092170810921808DE
:1010100040911508509116086091170870911808B2
:10102000C80183D960916C0270916D0280916E024B
:1010300090916F0207DD6B017C01C0921508D09280
:101040001608E0921708F092180820E030E040E817
:1010500053E40E949D3187FF75C620E030E0A9016E
:10106000C701B6010E948D3387FD6AC6C701B6016C
:101070000E940E32698769858BE050D9C0901508AF
:10108000D0901608E0901708F090180820E030E0A3
:1010900040E853E4C701B6010E949D3187FF57C65F
:1010A00020E030E0A901C701B6010E948D3387FD21
:1010B0004CC6C701B6010E940E32698769858CE073
:1010C0002DD960917002709171028091720290919D
:1010D0007302B8DC6B017C01C0921508D09216082F
:1010E000E0921708F092180820E030E040E853E45E
:1010F0000E949D3187FF30C620E030E0A901C70182
:10110000B6010E948D3387FD25C6C701B6010E9436
:101110000E326987698588E001D980911108909124
:101120001208A0911308B091140880935908909365
:101130005A08A0935B08B0935C08C0905D08D090FB
:101140005E08E0905F08F090600840906108509061
:1011500062086090630870906408209120023091CA
:1011600021024091220250912302C701B6010E9440
:1011700091334B015C012091240230912502409172
:10118000260250912702C301B2010E9491339B01B4
:10119000AC01C501B4010E9426314B015C012091D4
:1011A00030023091310240913202509133026E850B
:1011B0007F85888999890E9491336A877B878C878C
:1011C0009D87209134023091350240913602509132
:1011D00037026A897B898C899D890E9491339B01A2
:1011E000AC016A857B858C859D850E9426319B019B
:1011F000AC01C501B4010E9426314B015C01209174
:1012000018023091190240911A0250911B02C70135
:10121000B6010E9491336B017C0120911C02309138
:101220001D0240911E0250911F02C301B2010E9493
:1012300091339B01AC01C701B6010E9426316B01BD
:101240007C01209128023091290240912A0250917C
:101250002B026E857F85888999890E9491332B01A5
:101260003C0120912C0230912D0240912E02509190
:101270002F026A897B898C899D890E9491339B0109
:10128000AC01C301B2010E9426319B01AC01C70130
:10129000B6010E94263160935D0870935E088093CA
:1012A0005F08909360088092610890926208A09213
:1012B0006308B0926408C0900B04D0900C04E090D6
:1012C0000D04F0900E043FEFC31AD30AE30AF30AA9
:1012D000C0920B04D0920C04E0920D04F0920E0424
:1012E000C114D104E104F10499F480910F049091A8
:1012F0001004A0911104B09112040196A11DB11D1A
:1013000080930F0490931004A0931104B0931204DF
:101310008090130490901404A0901504B0901604CB
:1013200060910F0470911004809111049091120447
:101330000E943A32A50194010E94913320E030E0EE
:1013400040E85FE40E9491332B013C01C701B601E4
:101350000E943A32A50194010E9491339B01AC0195
:10136000C301B2010E942631609307047093080400
:101370008093090490930A04A1960FB6F894DEBFF7
:101380000FBECDBFDF91CF911F910F91FF90EF90D6
:10139000DF90CF90BF90AF909F908F907F906F9095
:1013A0005F904F903F902F90089580E0BBCB80E0FE
:1013B000C2CB80E0C9CB80E0D0CB18861F8225CC81
:1013C000C701B6010E9477328FCD609115087091E8
:1013D000160880911708909118083DD7811199CD72
:1013E000609115087091160880911708909118085F
:1013F00020E030E040E85FE40E94913260931508FD
:101400007093160880931708909318088ACDC70127
:10141000B6010E940E32A2CD64307105810591059E
:1014200009F4DDC3653071058105910509F0AACD88
:101430008090090890900A08A0900B08B0900C08C2
:10144000209105083091060840910708509108083E
:1014500060910D0870910E0880910F08909110080E
:101460000E94253127E7C22E22E0D22E39E9E32E51
:1014700038E0F32E54C120910508309106084091C0
:1014800007085091080860910D0870910E0880912E
:101490000F08909110080E9425312091240130916D
:1014A000250140912601509127010E9491336B0143
:1014B0007C01C0921508D0921608E0921708F092AD
:1014C00018082091040130910501409106015091C6
:1014D00007010E9491332091280130912901409108
:1014E0002A0150912B010E9491332B013C01409223
:1014F000190850921A0860921B0870921C082091DB
:1015000081083091820840918308509184082A878D
:101510003B874C875D878091850890918608A091D4
:101520008708B09188088E8B9F8BA88FB98F2091E8
:101530001401309115014091160150911701C70116
:10154000B6010E9491332A853B854C855D850E94BA
:1015500026314B015C0120917D0830917E0840913D
:101560007F0850918008C301B2010E9425319B0180
:10157000AC01C501B4010E9426314B015C012091F0
:101580003C0130913D0140913E0150913F016E89F7
:101590007F89888D998D0E9491339B01AC01C50193
:1015A000B4010E94253120913801309139014091D8
:1015B0003A0150913B010E94A1314B015C018092A4
:1015C0001D0890921E08A0921F08B092200820913A
:1015D00030013091310140913201509133010E942C
:1015E00091336A8F7B8F8C8F9D8F20913401309146
:1015F000350140913601509137016E897F89888D80
:10160000998D0E9491339B01AC016A8D7B8D8C8DED
:101610009D8D0E94263120914401309145014091D9
:101620004601509147010E94913320911801309159
:10163000190140911A0150911B010E9426316093BB
:101640001108709312088093130890931408409225
:101650007D0850927E0860927F08709280082091E9
:101660000C0130910D0140910E0150910F01C70105
:10167000B6010E94913320912C0130912D014091AF
:101680002E0150912F010E9491332A853B854C8574
:101690005D850E9426316093810870938208809353
:1016A0008308909384088092850890928608A0927F
:1016B0008708B092880880919308882331F083309E
:1016C00049F0082E000C990B02C082E090E0809354
:1016D000930858CC81E090E0FACF80900908909070
:1016E0000A08A0900B08B0900C08209105083091D2
:1016F0000608409107085091080860910D08709104
:101700000E0880910F08909110080E94253147E93A
:10171000C42E42E0D42E5EE9E52E58E0F52E01E11C
:1017200018E0A5019401C6D82DCC20910508309170
:101730000608409107085091080860910D087091C3
:101740000E0880910F08909110080E942531209179
:1017500048013091490140914A0150914B010E944A
:1017600091336B017C018090690890906A08A09089
:101770006B08B0906C082091C4013091C501409174
:10178000C6015091C701C501B4010E9491332B01DC
:101790003C0138EC232E31E0332E05E113E0EDE17E
:1017A000F3E0E017F10709F052C12091D801309120
:1017B000D9014091DA015091DB01C701B6010E94C5
:1017C0009133A30192010E9426312091E0013091D2
:1017D000E1014091E2015091E3010E949133209197
:1017E00018013091190140911A0150911B010E947A
:1017F0002631609311087093120880931308909318
:10180000140820914C0130914D0140914E015091AE
:101810004F01C501B4010E9491332B013C01B0E599
:101820002B2EB1E03B2E0BE013E0E3E1F3E0E017F9
:10183000F10709F02BC12091B0013091B101409125
:10184000B2015091B301C701B6010E949133A301C7
:1018500092010E9426316E8B7F8B888F998F209109
:101860006001309161014091620150916301C501B5
:10187000B4010E9491332B013C0154E6252E51E026
:10188000352E01E013E0E9E0F3E0E017F10709F09D
:101890001CC12091B4013091B5014091B601509125
:1018A000B701C701B6010E949133A30192010E94C2
:1018B00026316A8F7B8F8C8F9D8F209174013091A0
:1018C00075014091760150917701C501B4010E94E4
:1018D00091332B013C0128E731E03B872A8737EF22
:1018E000232E32E0332E0FEF12E00215130509F01C
:1018F0000BC12091B8013091B9014091BA015091CA
:10190000BB01C701B6010E949133A30192010E945D
:1019100026316E8F7F8F88A399A320918801309103
:10192000890140918A0150918B01C501B4010E9447
:1019300091332B013C01ECE8F1E0FB87EA87BDEE37
:101940002B2EB2E03B2E05EF12E00215130509F035
:10195000FCC02091BC013091BD014091BE0150916D
:10196000BF01C701B6010E949133A30192010E94F9
:1019700026312B013C0120919C0130919D01409129
:101980009E0150919F01C501B4010E9491334B010A
:101990005C01E0EAF1E0FB87EA8753EE252E52E096
:1019A000352E0BEE12E00215130509F0EFC0209161
:1019B000C0013091C1014091C2015091C301C701E2
:1019C000B6010E949133A50194010E9426312E890F
:1019D0003F89488D598D2093690830936A08409358
:1019E0006B0850936C082A8D3B8D4C8D5D8D209338
:1019F0006D0830936E0840936F08509370082E8DD9
:101A00003F8D48A159A120937108309372084093EB
:101A1000730850937408409275085092760860924B
:101A20007708709278086093790870937A088093A9
:101A30007B0890937C0880919208882309F4C7C0A2
:101A4000833009F4C9C0082E000C990BC2C0D10123
:101A50006D917D918D919D911D01D801ED91FD912B
:101A60008D01EE0FFF1FEE0FFF1FE759F74F20818B
:101A70003181428153810E9491339B01AC01C301AA
:101A8000B2010E9426312B013C0189CED1016D911A
:101A90007D918D919D911D01D801ED91FD918D015B
:101AA000EE0FFF1FEE0FFF1FE759F74F2081318127
:101AB000428153810E9491339B01AC01C301B20169
:101AC0000E9426312B013C01B0CED1016D917D9158
:101AD0008D919D911D01D801ED91FD918D01EE0F2C
:101AE000FF1FEE0FFF1FE759F74F20813181428121
:101AF00053810E9491339B01AC01C301B2010E944A
:101B000026312B013C01BFCEAA85BB856D917D910D
:101B10008D919D91BB87AA87D101ED91FD911D010A
:101B2000EE0FFF1FEE0FFF1FE759F74F20813181A6
:101B3000428153810E9491339B01AC01C301B201E8
:101B40000E9426312B013C01D0CEAA85BB856D9128
:101B50007D918D919D91BB87AA87D101ED91FD91DA
:101B60001D01EE0FFF1FEE0FFF1FE759F74F2081FA
:101B70003181428153810E9491339B01AC01C301A9
:101B8000B2010E9426312B013C01DFCEAA85BB8524
:101B90006D917D918D919D91BB87AA87D101ED912A
:101BA000FD911D01EE0FFF1FEE0FFF1FE759F74FCD
:101BB00020813181428153810E9491339B01AC018C
:101BC000C501B4010E9426314B015C01ECCE82E0DC
:101BD00090E080939208D6C981E090E0FACFC0905F
:101BE0006508D0906608E0906708F09068088090DB
:101BF000E8019090E901A090EA01B090EB01A50105
:101C00009401C701B6010E948D3318160CF06AC00A
:101C10008092110890921208A0921308B0921408B2
:101C20002091050830910608409107085091080856
:101C300060910D0870910E0880910F089091100826
:101C40000E9425312091F0013091F1014091F20183
:101C50005091F3010E9491332091F4013091F501EC
:101C60004091F6015091F7010E94913320910908AB
:101C700030910A0840910B0850910C080E942631BF
:101C80002091F8013091F9014091FA015091FB0146
:101C90000E9491330E94F4332091FC013091FD01A8
:101CA0004091FE015091FF010E949133209100026A
:101CB0003091010240910202509103020E942631AC
:101CC000609365087093660880936708909368082E
:101CD000809191088823F9F0833011F1082E000CCF
:101CE000990B1BC08090EC019090ED01A090EE014B
:101CF000B090EF01A5019401C701B6010E949D318A
:101D000087FD86CFC0921108D0921208E092130886
:101D1000F092140885CF82E090E08093910832C958
:101D200081E090E0FACF80E090E0AFE7B3E4809309
:101D3000150890931608A0931708B093180851C976
:101D4000198699C98FEF898796C91986B7C98FEF08
:101D50008987B4C91986DEC98FEF8987DBC94F929D
:101D60005F926F927F928F929F92AF92BF92DF921B
:101D7000EF92FF920F931F93CF93DF9384E090E055
:101D800033D2E1EFF3E08BE2DF011D928A95E9F7B0
:101D900080E090E0A0E8BFEB86A397A3A0A7B1A73F
:101DA0008AE097EDA3E2BBE382A393A3A4A3B5A328
:101DB00084EF9AE8AAE6BEEE84839583A683B78370
:101DC00083E097EFACECB4EE80879187A287B3876E
:101DD00081E695EBA5E3B0E684879587A687B7876C
:101DE00085E19EE6AFE2BAEB808B918BA28BB38B41
:101DF000A5EEB3E0B383A283EFECF3E01196FC937E
:101E0000EE9380EE92E09183808393838283958327
:101E1000848397838683918780879387828783E9EA
:101E200098E09587848782E998E09787868781E99B
:101E300098E0918B808B8DE998E0938B828B82EA7E
:101E400098E0958B848B85E094E015969C938E9317
:101E5000149785EF93E013969C938E93129787E0E7
:101E600094E017969C938E9316978DEFA82E87E09B
:101E7000B82E88E2F50111928A95E9F7C5E2D8E01B
:101E80008EE7DE011D928A95E9F780E090E5A3ECEC
:101E9000B8E48C879D87AE87BF87DD24D394D0922A
:101EA000980894E0892E91E0992EF401848D958D07
:101EB000A68DB78D888B998BAA8BBB8B412C512C0F
:101EC0003201439449825A826B827C8250E040E026
:101ED00060E070E0CB010E94A3009F838E8340EA04
:101EE00056E861E070E0488759876A877B870E94DF
:101EF000C700DD821CA6D09294084DA65EA66FA6F0
:101F000078AAE12CF12C8701A801970169E070E023
:101F100080E090E00E9410029BAB8AABD9AA1CA281
:101F2000D09297084DA25EA26FA278A661E08BE0E6
:101F30000E948601D9A61C8ED09296084D8E5E8E88
:101F40006F8E78A261E08CE00E948601D9A21C8A83
:101F5000D09295084D8A5E8A6F8A788E61E088E01B
:101F60000E948601D98E8091040290910502A09171
:101F70000602B09107028CAB9DABAEABBFAB8091BC
:101F8000580290915902A0915A02B0915B0288AF19
:101F900099AFAAAFBBAF8CAF9DAFAEAFBFAFF401EF
:101FA00084819581A681B78180937D0890937E0876
:101FB000A0937F08B093800884859585A685B78512
:101FC0008093810890938208A0938308B09384083B
:101FD00084AD95ADA6ADB7AD809385089093860886
:101FE000A0938708B09388088091970290919802F7
:101FF000A0919902B0919A0280939E0890939F08B5
:10200000A093A008B093A1088091DC019091DD011C
:10201000A091DE01B091DF018093690890936A0876
:10202000A0936B08B0936C0880936D0890936E0832
:10203000A0936F08B0937008809371089093720812
:10204000A0937308B09374088093750890937608F2
:10205000A0937708B09378088093790890937A08D2
:10206000A0937B08B0937C088091E4019091E501F6
:10207000A091E601B091E70180936508909366080E
:10208000A0936708B09368088091770290917802D6
:10209000A0917902B0917A028093990890939A085E
:1020A000A0939B08B0939C08809164029091650274
:1020B000A0916602B0916702F501848B958BA68B87
:1020C000B78BDF91CF911F910F91FF90EF90DF9031
:1020D000BF90AF909F908F907F906F905F904F9048
:1020E000089580912508811119C081E08093250809
:1020F0008091260890912708A0912808B09129087E
:102100000197A105B10551F480912A08882331F087
:1021100080912B0890912C080E9485018091510894
:1021200081112EC081E080935108809152089091D6
:102130005308A0915408B09155080197A105B10525
:10214000F9F4809156088823D9F069E070E080E0C6
:1021500090E00E94CC01909358088093570840E08B
:1021600050E0BA010E94950169E070E080E090E0E3
:102170000E94CC0190935808809357080E946102F6
:1021800080914908811103C081E0809349088091C2
:102190004108811103C081E0809341088091390892
:1021A000811103C081E080933908089560E070E0F8
:1021B00080E89FE7089560E070E080E89FE7089579
:1021C00060E070E080E89FEF089560E070E080E8F4
:1021D0009FEF089560E070E080EC9FEF089560E06D
:1021E00070E080EC9FEF0895F5DF6093AF08709387
:1021F000B0088093B1089093B208F1DF6093A30810
:102200007093A4088093A5089093A608CFDF6093ED
:10221000AB087093AC088093AD089093AE08CBDF09
:102220006093A7087093A8088093A9089093AA08C0
:10223000C7DF6093B3087093B4088093B508909398
:10224000B608C3DF6093B7087093B8088093B908E5
:102250009093BA080895CF92DF92EF92FF92CF93B6
:102260006B017C01AC019B016091AB087091AC08E3
:102270008091AD089091AE080E949D31C1E0882305
:1022800071F0A70196016091B3087091B408809134
:10229000B5089091B6080E949D318111C0E08C2F45
:1022A000CF91FF90EF90DF90CF9008950F931F9301
:1022B0008B019C010027112720783F77011511051C
:1022C00020483F4749F4AB01BC016F77772781E095
:1022D000452B462B472B09F480E01F910F91089561
:1022E000E5CF4F925F926F927F928F929F92AF92C3
:1022F000BF92CF92DF92EF92FF920F931F93F894C9
:10230000409028045090290460902A0470902B0477
:10231000C0901C04D0901D04E0901E04F0901F0497
:10232000452B09F0A4C09B01AC01241935094609CD
:10233000570929013A0100912404109125042091A4
:1023400026043091270448015901840C951CA61CD1
:10235000B71C80169106A206B306A0F400912004D3
:102360001091210420912204309123040F5F1F4F0C
:102370002F4F3F4F009320041093210420932204F9
:10238000309323048092240490922504A092260482
:10239000B09227040091200410912104209122047E
:1023A0003091230480922C0490922D04A0922E044C
:1023B000B0922F0400933004109331042093320420
:1023C00030933304609328047093290480932A0483
:1023D00090932B04A4ECB9E0A30192010E94D63D96
:1023E0006C0D7D1D8E1D9F1D60931C0470931D043C
:1023F00080931E0490931F040091B7021091B802BD
:102400002091B9023091BA020F3F1F4F2F4F3F4F1B
:10241000F1F00091B7021091B8022091B902309109
:10242000BA020E3F1F4F2F4F3F4F89F0C090B702A7
:10243000D090B802E090B902F090BA0221E08C147A
:102440009D04AE04BF0408F420E02093380478947F
:102450001F910F91FF90EF90DF90CF90BF90AF90C2
:102460009F908F907F906F905F904F9008954B0159
:102470005C0184189508A608B708A3019201261BE1
:10248000370B480B590B6415750586059705D0F079
:1024900082169306A406B50640F420E030E0A901B8
:1024A00081149104A104B10491F4A4ECB9E00E9458
:1024B000D63DA7019601261B370B480B590BCA01C5
:1024C000B901C5CF82169306A406B50670F7A4EC31
:1024D000B9E0A50194010E94D63D6C0D7D1D8E1DB5
:1024E0009F1DB5CFFECECF93DF9300D000D0CDB7E8
:1024F000DEB71C821B821A82198210923404109259
:1025000035041092360410923704BE016F5F7F4F7E
:10251000CE0103960E945F2F69817A818B819C8115
:102520000E944F28009761F4BE016F5F7F4FCE017C
:1025300003960E946B2F69817A818B819C812CD5B7
:102540000F900F900F900F90DF91CF910895FF9211
:102550000F931F93CF93DF93082F60E070E0CB01C0
:102560000E94653AFF24F3940E943A27EC01892BDC
:1025700089F010E0CE3F8FEFD80769F0002361F1BA
:1025800060E070E0CB010E94653A81E090E0892B29
:1025900059F322C011E023D5EC01892B21F0CE3F65
:1025A0008FEFD80759F711111EC011E0229609F4D8
:1025B00010E00E94EB26EC01892B21F0CE3F8FEF3B
:1025C000D807E1F6111111C011E0CE3F8FEFD80707
:1025D00009F410E001110BC0CE01DF91CF911F91E2
:1025E0000F91FF90089511E0E4CF11E0F3CF60E088
:1025F00070E0CB010E94653A1F25812F90E0C7CF84
:10260000CF93DF9380913804882321F060E070E05D
:10261000CB014CD635D6D0E0C0E0892B71F06AE012
:1026200070E080E090E00E94653A81E090DF28D67B
:102630002196C03D27E0D20781F727D60E94A32824
:102640001092500410924F041092490410924A04C0
:1026500010924B0410924C041092450410924604C0
:1026600010924704109248041092410410924204C0
:10267000109243041092440410923D0410923E04C0
:1026800010923F04109240041092390410923A04C0
:1026900010923B0410923C044EEF5FEF6FEF7FEF20
:1026A0004093B7025093B8026093B9027093BA0294
:1026B00010923804ECE2F4E028E0DF011D922A9544
:1026C000E9F7109228041092290410922A0410921B
:1026D0002B041092240410922504109226041092C8
:1026E00027041092200410922104109222041092C8
:1026F000230410921C0410921D0410921E041092C8
:102700001F04DF91CF91089510925C0410925D0434
:1027100010925E0410925F0410925B048091640436
:102720009091650490935A04809359041092580430
:1027300010925704109253041092540410925504AE
:1027400010925604109261041092600490E080E0B0
:102750000895CF92DF92EF92FF920F931F93CF9342
:102760008C01892B09F055C02091640430916504D7
:102770008091590490915A044091640450916504E9
:1027800050935A04409359042817390781F0109246
:10279000580410925704109253041092540410924B
:1027A00055041092560410926104109260048091B6
:1027B000640490916504019761F5809160049091A3
:1027C0006104892B21F48091BB02811112C0809198
:1027D0006004909161040197E1F480915304909119
:1027E0005404A0915504B09156040197A105B10578
:1027F00081F41092530410925404109255041092D4
:1028000056041092BB0282E090E0909361048093A2
:1028100060048091640490916504019709F01CC1E3
:1028200080917A0490917B048017910709F014C17C
:102830008091760490917704A0917804B091790406
:10284000009709F409C12091750421110DC0409130
:102850007604509177046091780470917904452B47
:10286000462B472B09F4F8C0209160043091610495
:102870002230310509F0F0C0209157042111ECC03D
:10288000FC01C080D180E280F38080915B048823CA
:1028900009F4D3C08091670490916804892B09F4EE
:1028A000FDC0209167043091680481E02230310539
:1028B00009F080E02091670430916804C1E0213084
:1028C000310549F02091670430916804C1E022305D
:1028D000310509F0C0E0882309F456C02091710445
:1028E000309172044091730450917404C701B60191
:1028F0000E948D3387FD14C02091710430917204C1
:10290000409173045091740460915C0470915D0473
:1029100080915E0490915F040E949D3187FD22C0EA
:1029200020917104309172044091730450917404A9
:10293000C701B6010E948D33181634F52091710439
:1029400030917204409173045091740460915C045E
:1029500070915D0480915E0490915F040E949D31AE
:10296000811112C08091690490916A04A0916B0456
:10297000B0916C04892B8A2B8B2B19F481E0809306
:10298000580481E080935704CC2309F456C0209169
:102990007104309172044091730450917404C70122
:1029A000B6010E949D3187FF14C0209171043091BF
:1029B0007204409173045091740460915C047091AE
:1029C0005D0480915E0490915F040E948D3387FFC7
:1029D00022C020917104309172044091730450918F
:1029E0007404C701B6010E949D31811126C0209157
:1029F0007104309172044091730450917404609199
:102A00005C0470915D0480915E0490915F040E946B
:102A10008D33181694F48091690490916A04A09102
:102A20006B04B0916C04892B8A2B8B2B19F481E0F9
:102A30008093580481E08093570481E0909157047B
:102A4000911180E080935B04C0925C04D0925D049D
:102A5000E0925E04F0925F04012B09F067C180915F
:102A6000600490916104892BD9F41092660410924D
:102A700057048091BB02882379F082E090E0909324
:102A80006104809360041092BB0220916404309131
:102A9000650481E0232BE9F080E01BC081E00ACFD0
:102AA0001092BB0280916604882349F0109258046A
:102AB000109261041092600410926604EDCF809130
:102AC000640490916504892BE1F080915704109281
:102AD000570420916004309161042230310509F4DB
:102AE0005EC088F42115310509F448C02130310554
:102AF00009F4F3C01092580410925704109266041F
:102B000038C081E0E6CF2330310509F4B1C024306C
:102B1000310581F74091530450915404609155045C
:102B200070915604411551056105710561F04150E0
:102B300051096109710940935304509354046093FF
:102B4000550470935604409153045091540460917D
:102B5000550470915604452B462B472BD9F42091F0
:102B60006204309163042130310509F046C01092AF
:102B7000580410926104109260040CC08091BB0252
:102B8000882341F082E090E0909361048093600498
:102B90001092BB021092510480915804CEC0882339
:102BA000C9F38091690490916A04A0916B04B0917B
:102BB0006C04181619061A061B060CF07DC08091CD
:102BC000640490916504019709F076C080916904CE
:102BD00090916A04A0916B04B0916C0480935304AB
:102BE00090935404A0935504B093560483E090E06E
:102BF0009093610480936004CDCF40916D04509117
:102C00006E0460916F0470917004452B462B472B26
:102C1000A9F01092580480916D0490916E04A091D7
:102C20006F04B09170048093530490935404A09364
:102C30005504B093560481E090E0DACF882399F0F0
:102C40008091BC029091BD02A091BE02B091BF02E2
:102C50008093530490935404A0935504B093560466
:102C600084E090E0C5CF1092580482E090E0C0CF9D
:102C70008091530490915404A0915504B09156044E
:102C80000097A105B10559F00197A109B1098093F9
:102C9000530490935404A0935504B0935604809128
:102CA000530490915404A0915504B0915604892B7B
:102CB0008A2B8B2B09F06ECF8091BC029091BD02C4
:102CC000A091BE02B091BF02892B8A2B8B2B09F4F5
:102CD0004ECF81E080935804B3CF4091530450917C
:102CE00054046091550470915604411551056105D5
:102CF000710561F041505109610971094093530414
:102D000050935404609355047093560440915304B7
:102D1000509154046091550470915604452B462BF4
:102D2000472B09F037CF8111C7CF9FCF8091510436
:102D3000882309F431CF80915204CF911F910F91D4
:102D4000FF90EF90DF90CF90089510925C04109266
:102D50005D0410925E0410925F0410925B04109266
:102D600061041092600410925A0410925904109257
:102D70007B0410927A041092580410925704109217
:102D80005304109254041092550410925604109259
:102D9000520410925104109276041092770410920B
:102DA00078041092790410927504109271041092B4
:102DB0007204109273041092740488EE93E0A0E001
:102DC000B0E08093BC029093BD02A093BE02B0938A
:102DD000BF0210926D0410926E0410926F04109254
:102DE00070041092690410926A0410926B0410929D
:102DF0006C04109268041092670481E08093BB0217
:102E00001092660410926504109264041092630498
:102E10001092620490E080E00895809164049091A3
:102E20006504892B19F58091BB02882351F08091AC
:102E30006604811106C081E080935204809351049E
:102E40000895209166043091BB0281E090E0332325
:102E500011F090E080E030E082239323892B21F071
:102E60001092520481E0EACF10925104089582E05A
:102E700090E0FA01918380838FEF9FEF0895CF93C5
:102E8000DF93EA01009711F00E94C329198218828A
:102E900090E080E0DF91CF910895DB01009719F475
:102EA0008FEF8C9308952EEF2C930F968F30910512
:102EB00008F033C0FC01E15AF84E0C94C13D8B1769
:102EC00089178717851783177F1781177D177B173A
:102ED0007917761772176E1774178D1780E311968E
:102EE0008C93089589E2FBCF82E2F9CF11961C9270
:102EF000089583E2F4CF81E2F2CF81E1F0CF87E25F
:102F0000EECF8AE2ECCF80E1EACF84E2E8CF88E23C
:102F1000E6CF86E2E4CF81E3E2CF80E2E0CF8091AA
:102F2000880490918904089590938904809388047B
:102F3000089580918704089590918704892B809348
:102F400087040895982F9095809187048923809312
:102F50008704089580918604089580918404909157
:102F6000850408956115710559F0FB0130E020E0FA
:102F700070E060E02417350719F06115710511F054
:102F8000CB010895A081B181A817B90709F4BF0149
:102F90002F5F3F4F3696EECF80918A0481111CC07F
:102FA00062D268D290937D0480937C040E94D321E6
:102FB0000E94E52190938104809380040E9455260D
:102FC0000E945C2690937F0480937E0481E080932E
:102FD0008A0490E080E0089584EF9FEF08958F9237
:102FE0009F92AF92BF92CF92DF92EF92FF920F9398
:102FF0001F93CF93DF93CDB7DEB72A970FB6F89420
:10300000DEBF0FBECDBF1A86198618861F821E82AC
:103010001D821C821B821A82198280918A0407EF0A
:103020001FEF882309F49CC08E010D5F1F4F9E0186
:103030002B5F3F4FAE01495F5F4FBE01675F7F4F20
:1030400090E080E00E94D5278C01009721F0059642
:10305000029708F0DBC029853A852115310509F46E
:1030600002C1ED80FE804B815C81B701640F751F4A
:103070008F8198858617970708F4F5C0E20EF31E36
:10308000D7019C91903C09F07FC04230510508F473
:103090007BC011968C914091880450918904452BF6
:1030A00009F49CC0913F08F071C02CE1290F2D302C
:1030B00008F48BC02DE2290F203108F489C0903C20
:1030C00021F48150823008F483C088E3890F8B306B
:1030D00008F481C09DE4C92E97E1D92EE7E3F7E11A
:1030E0006D817E81AE014F5F5F4F89859A8509951D
:1030F0005C01C114D104A1F189809A8081149104EA
:1031000079F18B819C818815990508F487C010E0BE
:1031100000E04B815C8170E060E0C7010E94E93D06
:1031200001151105E9F449815A8169857A858D81F6
:103130009E81680F791FC501F6010995E980FA8023
:103140000D811E812F81388549855A856FEF7FEF6C
:1031500081E090E00E9471278C01892B09F056C014
:10316000C8012A960FB6F894DEBF0FBECDBFDF911F
:10317000CF911F910F91FF90EF90DF90CF90BF9074
:10318000AF909F908F90089580E085CF30E020E051
:10319000220F331FF901E458FB4F0190F081E02D1D
:1031A000309709F497CF892F90E00995009709F49B
:1031B00091CFDC011296ED91FC9113971496CD906E
:1031C000DC90309709F08CCF1FC021E030E0E0CFD9
:1031D00022E030E0DDCF23E030E0DACFD12CC12C8B
:1031E000EFE3F7E19F3F09F07BCFE0917C04F091A2
:1031F0007D04309721F4C90104EF1FEF0CC08FEF5D
:1032000090E009950097A9F604EF1FEF89859A854C
:10321000009709F4A5CF0E94C329A2CF0E949E283F
:103220008C0189859A850E94C32970E060E0C40101
:103230000E94372898878F830E946E279E838D83F4
:103240006F8178856115710559F0C8010E944F2B77
:103250009A87898706EF1FEF892B09F058CF59CF3E
:1032600008EF1FEF56CF08EF1FEFD0CF20918A0451
:10327000222319F020E00C94EA2187EF9FEF0895B4
:10328000809188049091890408950E9461260E948B
:10329000BB25F5D0ECE7F4E088E0DF011D928A95CC
:1032A000E9F710928A0490E080E008950C941824C5
:1032B00021E040E050E0BA010C94EA2186E090E081
:1032C000FA019183808390E080E0089547E050E028
:1032D0006FE173E047CEDF92EF92FF920F931F935F
:1032E000CF93DF938A01EC01C60FD71FE0908E04C5
:1032F000F0908F04D9800E948628D816190678F09D
:1033000082E090E0F801918380838EEF9FEFDF9160
:10331000CF911F910F91FF90EF90DF900895EF28CC
:1033200041F482E090E0F8019183808384EF9FEF85
:10333000EECF898180938D0490E00196F80191830E
:10334000808390E080E0E3CFCF93DF93EA010E9497
:10335000C924882321F00E9493280E94CA2482E075
:1033600090E0998388838BEF9FEFDF91CF91089551
:10337000CF93DF93EB0186E0FB0111928A95E9F789
:103380008FEF8883D6DD8983E5DD8A83E6DD9D8343
:103390008C83DF91CF910895CF93DF93EA010E9450
:1033A000CC24811109C082E090E09983888385EF65
:1033B0009FEFDF91CF91089590E080E0B5DD81E04F
:1033C00090E09983888390E080E0F3CF0F931F9380
:1033D000CF93DF93EA018C01060F171F0E94CC24C4
:1033E00081110BC082E090E09983888385EF9FEF85
:1033F000DF91CF911F910F910895F8018181823063
:1034000038F082E090E0998388838EEF9FEFF0CFD1
:1034100081E090E089DD88E090E09983888390E006
:1034200080E0E6CFCF93DF930097D1F4EB01FB016F
:10343000329686E0DF011D928A95E9F78FEF888347
:1034400085E089831A820E9486288B830E948528C2
:103450009D838C8381E08E838F83DF91CF9108954C
:10346000DF91CF911ACD86E699E190938C048093F9
:103470008B04089580918B0490918C040895109290
:103480008C0410928B04089580918E0490918F0487
:103490000895411105C0611571058105910561F01F
:1034A00060938E0470938F048093900490939104A2
:1034B0004093920481E0089580E00895FF920F9375
:1034C0001F93CF93DF938A01EC01C60FD71FF980BA
:1034D0000E948628F816190668F082E090E0F8014C
:1034E000918380838EEF9FEFDF91CF911F910F919A
:1034F000FF9008956C817D818E819F814B81C9DF12
:10350000811108C082E090E0F8019183808384EF0C
:103510009FEFEACF898180938D0490E00196F801B6
:103520009183808390E080E0DFCFCF93DF93EA0147
:10353000FC01E60FF71F64817581868197814381C5
:10354000A8DF811109C082E090E09983888384EF2D
:103550009FEFDF91CF91089581E090E09983888378
:1035600090E080E0F6CFEEE8F4E0408151816281A6
:103570007381480F511D611D711D4083518362830A
:1035800073830895CF93C0918D044C2F50E06091C8
:103590008E0470918F0401960E94E03D8C2FE3DF32
:1035A00010928D04CF910895009799F480918E0424
:1035B00090918F042FEFFB012083892B59F02091EC
:1035C0008D0430E02F5F3F4F2417350719F4CB01EE
:1035D000D9CF63CC0895009799F480918E0490918F
:1035E0008F042FEFFB012083892B59F020918D044C
:1035F00030E02F5F3F4F2417350719F4CB01C2CFBE
:103600004CCC089523E1AC01249FC001259F900D6F
:103610001124E0919704F0919804E80FF91F238199
:1036200034812250310981E02230310508F080E0F8
:1036300008950F931F93CF93DF93009199041091F6
:103640009A04D0E0C0E080E00C171D0749F491E037
:10365000811190E0892FDF91CF911F910F910895F3
:103660008111F5CFCE01CEDF2196EECFA091970448
:10367000B0919804109729F12091990430919A04FF
:1036800082179307F0F453E1589F9001599F300D32
:103690001124A20FB31FED91FC911197309789F07F
:1036A00012968C91681768F48BE0689FE00DF11D0D
:1036B000112480819181892B21F081E09281491729
:1036C00008F080E008959C0143E1429FC001439FC0
:1036D000900D1124E0919704F0919804E80FF91FE0
:1036E0008385823091F481E090E06581768140911C
:1036F000C0025091C1026417750711F490E080E098
:10370000892B19F081E0232B09F080E00895EF92D6
:10371000FF920F931F93CF93DF93EA01FC01E60F13
:10372000F71F02811381E480F5804F2D6E2DC801B3
:103730009DDF81110DC082E090E0998388838EEF38
:103740009FEFDF91CF911F910F91FF90EF90089520
:10375000C80158DF882339F082E090E0998388839C
:1037600088EF9FEFEECF1093C7020093C602E0925E
:10377000C802F092C90281E090E09983888390E0CA
:1037800080E0DFCFCF92DF92EF92FF920F931F93F3
:10379000CF93DF937A01EC01C60FD71FC090C6020A
:1037A000D090C7020091C8021091C902412F602F2A
:1037B000C6015CDF811110C082E090E0F7019183C7
:1037C00080838AEF9FEFDF91CF911F910F91FF9040
:1037D000EF90DF90CF900895C60114DF882341F069
:1037E00082E090E0F7019183808388EF9FEFEBCF39
:1037F0004C815D816E817F819A8189818F3F41F00B
:1038000082E090E0F701918380838EEF9FEFDBCF22
:10381000E3E1EC9D9001ED9D300D1124E0919704C2
:10382000F0919804E20FF31F0190F081E02D2BE05E
:10383000029FE00DF11D11240190F081E02D27E0A1
:10384000129FE00DF11D1124808391838B8182836F
:1038500043835483658376831F5F1093C90281E09D
:1038600090E0F7019183808390E080E0ACCFEF920D
:10387000FF920F931F93CF93DF937A018C01060F72
:10388000171FC0919704D0919804209781F021E0F0
:1038900030E0F801828193814091990450919A041B
:1038A0008417950710F030E020E0232B71F482E0BC
:1038B00090E0F701918380838EEF9FEFDF91CF91AE
:1038C0001F910F91FF90EF90089543E1489F900161
:1038D000499F300D1124C20FD31F94DE882341F07D
:1038E00082E090E0F7019183808388EF9FEFE6CF3D
:1038F000F8012481358120383105C8F6878181118E
:10390000D6CF4181842F90E08F7E009741F082E0F6
:1039100090E0F7019183808386EF9FEFCFCF4F83B5
:103920003E832D83268128871986223010F421E0DA
:10393000288721E030E0F70131832083BFCF88E082
:1039400090E0FA019183808390E080E00895FB018C
:103950008FEF808381E181838FEF9FEF9383828359
:1039600080E890E095838483168217820895FB0196
:103970008FEF808391E0918382839383848384E3B8
:10398000858381E090E0978386830895DF92EF92AC
:10399000FF920F931F93CF93DF93EA01FC01E60F91
:1039A000F71F8181813071F082E090E099838883F4
:1039B0008FEF9FEFDF91CF911F910F91FF90EF90CD
:1039C000DF90089582819381D4802581E680F780FD
:1039D00000919704109198040115110539F482E0C3
:1039E00090E0998388838CEF9FEFE4CF4091990416
:1039F00050919A048417950738F082E090E09983FB
:103A000088838EEF9FEFD6CF892B39F082E090E04C
:103A10009983888386EF9FEFCDCF8D2D8D7FB1F772
:103A20002130A1F781E0D11006C091E0E916F10440
:103A300031F080E004C0E2E0EE16F104D0F3882318
:103A400029F390E080E0DEDD882339F082E090E029
:103A50009983888388EF9FEFADCFF801D38681E00B
:103A60008487F686E586108A178681E090E0998340
:103A7000888390E080E09ECF4CE050E069E473E002
:103A800071CA8F929F92BF92CF92DF92EF92FF9274
:103A90000F931F93CF93DF93EA01FC01E60FF71F0B
:103AA000828193810481B580E0919704F09198041C
:103AB000309791F482E090E0998388838CEF9FEFB8
:103AC000DF91CF911F910F91FF90EF90DF90CF90FA
:103AD000BF909F908F9008952091990430919A04FF
:103AE0008217930738F082E090E0998388838EEF05
:103AF0009FEFE6CF23E1289F6001299FD00C11247E
:103B0000EC0DFD1DE080F180E114F10499F2828159
:103B1000081748F78BE0089F80011124E00EF11E82
:103B2000F70180819181892B29F6BB20E1F2F7E032
:103B3000BF9E40011124C4010E948A29F70191838C
:103B40008083E0919704F0919804EC0DFD1D0190A5
:103B5000F081E02DE00FF11F80819181009739F411
:103B600082E090E0998388838DEF9FEFA9CFA40135
:103B700070E060E00E94E93D809197049091980484
:103B8000C80ED91EF60180819181080F191FF80116
:103B9000B28281E090E09983888390E080E090CFCA
:103BA000AF92BF92CF92DF92FF920F931F93CF936A
:103BB000DF93EA01FC01E60FF71F82819381F48015
:103BC00000919704109198040115110581F482E089
:103BD00090E0998388838CEF9FEFDF91CF911F91C5
:103BE0000F91FF90DF90CF90BF90AF9008952091FC
:103BF000990430919A048217930738F082E090E09C
:103C0000998388838EEF9FEFE8CF2FEF2F0D2C3F06
:103C1000A8F723E1289F6001299FD00C11240C0DE7
:103C20001D1DF80180819181892B89F6FBE0FF9EA3
:103C300050011124C5010E948A29F80191838083D3
:103C4000E0919704F0919804EC0DFD1D8081918125
:103C5000009739F482E090E0998388838DEF9FEF9D
:103C6000BCCFA50170E060E00E94E93DE0919704BF
:103C7000F0919804EC0DFD1DF28281E090E09983B3
:103C8000888390E080E0A9CFCF92DF92EF92FF92FD
:103C90000F931F93CF93DF93860F971FFC01028131
:103CA00013818091970490919804892B81F082E090
:103CB00090E0FA01918380838CEF9FEFDF91CF91A9
:103CC0001F910F91FF90EF90DF90CF900895C80162
:103CD000B0E0A0E00197A109B1098F3F9F4FA10576
:103CE000B10540F082E090E0FA01918380838EEF8D
:103CF0009FEFE4CF7A0183E1809F6001819FD00C28
:103D00001124C6010E948A29EC01009741F482E047
:103D100090E0F701918380838DEF9FEFCFCFA601D5
:103D200070E060E00E94E93DD0939804C09397044E
:103D300010939A040093990490E080E02FEF3FEFF6
:103D400041E061E070E08017910741F481E090E08C
:103D5000F7019183808390E080E0B0CF3A8B298B8C
:103D60001B864C877E876D87188A1F86019663960F
:103D7000EACFCF92DF92EF92FF920F931F93CF93F0
:103D8000DF93EC01D12CC12C10E000E0F12CE12CF0
:103D90006A8170E006171707BCF0660F771FAE0147
:103DA0004F5E5F4FC7010E94EF29009721F02FEF70
:103DB0003FEF3A8B298BDF91CF911F910F91FF90AD
:103DC000EF90DF90CF900895E881F981EC0DFD1D13
:103DD000438154818D859E85489F9001499F300D78
:103DE000589F300D1124C90101960115110519F4D0
:103DF0004F8144FD049661E070E00E943728E81688
:103E0000F90608F47C010F5F1F4F8BE0C80ED11C30
:103E1000BFCFF894209195043091960481E021154C
:103E2000310509F080E0232B09F0789408952F9252
:103E30003F924F925F926F927F928F929F92AF923A
:103E4000BF92CF92DF92EF92FF920F931F93CF9387
:103E5000DF933C01660E771EF301828193814C0152
:103E6000B12CA12CC0919704D0919804209769F0AF
:103E700021E030E06091990470919A0486179707C9
:103E800010F030E020E0232BD1F482E090E0FA0142
:103E9000918380838EEF9FEFDF91CF911F910F91E0
:103EA000FF90EF90DF90CF90BF90AF909F908F905A
:103EB0007F906F905F904F903F902F9008958092E9
:103EC000CA029092CB02A092CC02B092CD0263E1E2
:103ED000689F9001699F300D1124C20FD31FF30119
:103EE0008181833040F082E090E0FA019183808309
:103EF00086EF9FEFD1CF2A012B813C81232BF1F458
:103F0000288139819F8191FF2EC0232B09F46FC036
:103F100020919C049A81422F490F5527551FBA01C1
:103F200041E050E06138710514F050E040E0452B6D
:103F300009F45DC02A87920F90939C0481508230CF
:103F400008F481C066DF882309F4D8C0F3018181B9
:103F5000813009F48DC008F47BC0823009F4C6C0FA
:103F600090E080E0ADC0232B09F441C020919B0478
:103F70009A81E22FE90FFF27FF1F41E050E0ED3F5C
:103F8000F10514F050E040E0452B89F12A87920FAB
:103F900090939B04D3CFA081B181A20FB31F119640
:103FA0006C91060F111D0196295F3F4F84179507ED
:103FB00094F38D859E85089F1001099F300C189FF2
:103FC000300C1124C114D104D1F48F8184FF17C0A7
:103FD0000E948528F5E02F0E311C21E08215930503
:103FE00008F420E0A701455F5F4F21110EC082E079
:103FF00090E0F2019183808387EF9FEF4DCF0E9485
:1040000085282FEF221A320AE8CF88819981E80E9D
:10401000F91EF70114830383FFEFCF1ADF0A7A0139
:104020008A818C151D0409F00CF48CCFE881F9818C
:10403000EE0DFF1D428150E030E020E010E000E096
:1040400090E080E0B3CFF12CE12CD12CC12CE8CF53
:1040500081E090E09C838B83ECDA882309F480CFA5
:1040600081E090E00E94941780E40E94A21778CF2C
:1040700089899A89019661F083E090E09C838B8323
:1040800082E090E00E94941780E40E949C1768CF21
:104090008D819E812091C0023091C10282179307C9
:1040A000D1F46091C4027091C502AE014F5E5F4FC2
:1040B0008091C2029091C3020E940E2B0097E1F200
:1040C000789422E030E0F20131832083892B99F04B
:1040D0008DEF9FEFE1CE89288A288B2869F6892BFE
:1040E00059F6CE0146DE188A1F86E8CF82E090E0BE
:1040F0009C838B8335CF90E080E0CECE82E090E051
:10410000F2019183808385EF9FEFC6CE8F929F92BD
:10411000AF92BF92CF92DF92EF92FF920F931F93D5
:10412000CF93DF93EA018C01060F171FF8018181FD
:10413000833098F082E090E09983888386EF9FEF48
:10414000DF91CF911F910F91FF90EF90DF90CF9073
:10415000BF90AF909F908F90089580919704909119
:104160009804892B61F081E090E0209199043091CE
:104170009A04232B11F490E080E0892B39F482E03B
:1041800090E0998388838EEF9FEFDACF42DE882319
:1041900009F4DFC0F8018181813009F495C0E8F0AD
:1041A000823099F42091990430919A04E091970417
:1041B000F091980490E080E041E050E02817390742
:1041C00009F0BDC036DA811117C0789481E090E023
:1041D0009983888390E080E0B3CF20919904309157
:1041E0009A04E0919704F091980490E080E041E017
:1041F00050E02817390741F481E090E00E949417BD
:1042000080E40E94A217E1CF63817481672B11F0D3
:104210005483438301967396ECCFE0919704F09119
:104220009804E00FF11F2381348122303105D9F445
:10423000218932892F3F3F4FB1F42581368140914A
:10424000C0025091C1022417350761F5AF014F5EDE
:104250005F4F6091C4027091C5028091C20290913B
:10426000C3020E940E2BEFEFCE1ADE0AEE0AFE0A00
:104270000D5E1F4F4091990450919A0470E060E0E8
:10428000C416D506E606F7063CF5009731F2789499
:10429000892B09F49BCF82E090E0998388838DEF8E
:1042A0009FEF4ECFC114D104E104F104E1F6232BBA
:1042B000D1F6CF015EDDE0919704F0919804E00F14
:1042C000F11F108A1786CFCF10E000E090E080E069
:1042D000C12CD12C7601CECF0097C9F610E000E0BA
:1042E000812C912C540183E0E82EF12C1AC0E0912E
:1042F0009704F0919804E00FF11F83819481029755
:1043000049F4F482E38282E090E00E94941780E412
:104310000E949C17FFEF8F1A9F0AAF0ABF0A0D5E1B
:104320001F4F8091990490919A04B0E0A0E0881604
:104330009906AA06BB06DCF290E080E0A8CF638174
:1043400074816230710511F454834383019673962E
:1043500035CF82E090E09983888385EF9FEFF0CEA0
:104360000097B9F48FEFFB0180832091CA0230914E
:10437000CB0243E1429FC001439F900D1124E09185
:104380009704F0919804E80FF91F8285FB0181835F
:1043900008950C944D1788E090E0FA019183808392
:1043A00090E080E008951092960410929504E7E959
:1043B000F4E086E0DF011D928A95E9F78CE39DE148
:1043C0009093940480939304089580919304909122
:1043D000940408952F923F924F925F926F927F9232
:1043E0008F929F92AF92BF92CF92DF92EF92FF9205
:1043F0000F931F93CF93DF93CDB7DEB760970FB6C0
:10440000F894DEBF0FBECDBFF894E0919504F09113
:1044100096043196F0939604E09395047894A091D5
:104420009704B0919804BA83A983109709F4FAC14C
:10443000E0919904F0919A04EF2B09F4F3C12887D5
:104440004B875C876D877E879A878987B88BAF8714
:10445000312C212CF12C512C412C809199049091DC
:104460009A042816390610F4FF2029F1F894809157
:1044700095049091960401979093960480939504E7
:104480007894C20160960FB6F894DEBF0FBECDBF20
:10449000DF91CF911F910F91FF90EF90DF90CF9020
:1044A000BF90AF909F908F907F906F905F904F9054
:1044B0003F902F900895B10190E080E087D4682E5E
:1044C000EF85F889878181FD3DC0838194810397C1
:1044D000C9F5258136813C832B8389859A852817E8
:1044E000390781F5C101EFD8782E8823A9F1AF856E
:1044F000B8891F968D919C915097019621E01D9649
:104500004D915C918417950709F020E02F83B12C21
:10451000A12CEF85F88982818A151B0419F014F00B
:10452000FF20E9F0F885FF2309F46CC1AF85B88955
:1045300050961C921E921F97662021F0B10190E0C8
:1045400080E046D4FFEF2F1A3F0A2F8538892D5E71
:104550003F4F388B2F8781CFB1E0BF83D8CFBED4F8
:104560009E838D83E885EE23E9F0772009F43CC132
:10457000AF85B8891F968D919C91892B79F0BBE00E
:10458000BA9DC001BB9D900D1124AF85B889ED91F6
:10459000FC91E80FF91F85819681F5D6BFEFAB1A24
:1045A000BB0AB7CF81E0772039F0EF85F8892785FE
:1045B0003089232B09F080E0F82EE12CA114B104FE
:1045C00039F4AF85B8891796EC90E4FAEE24E0F858
:1045D000BBE0BA9D6001BB9DD00C1124882309F477
:1045E00024C1AF85B889ED91FC911197EC0DFD1DAB
:1045F000438154811D962D913C91429FC001439F60
:10460000900D529F900D1124E1105DC0019690878E
:10461000878361E070E08781908529D5EF85F889EF
:1046200021893289008111810C0D1D1D2F3F320718
:1046300009F44BC0BC01C9010E944F2BD80116964A
:104640009C938E931597AF85B889ED91FC91119746
:10465000EC0DFD1D058116810115110509F4CDC074
:10466000ED81FE810E0F1F1F1A968C918A0DD801C5
:104670008C93E1102FC00F5F1F4FAF85B889ED916C
:10468000FC91EC0DFD1D12870187AF85B889ED9176
:10469000FC91EC0DFD1D85819681892B09F4A4C048
:1046A0008091C0029091C1022B813C81281739076B
:1046B00009F465C0772011F001851285912C812CB9
:1046C0001A8219824AC00596A2CF24D6F801968391
:1046D0008583B9CF8B859C85AD85BE85F8018183A7
:1046E0009283A383B4830B5F1F4FC7CFE080F18019
:1046F000E80CF91CD70113966D917C9114978C915D
:104700008F3F09F473C0E1E0F0E002C0EE0FFF1F3D
:104710008A95E2F7CF01092E000CAA0BBB0BFB0117
:10472000408151816281738184239523A623B7231D
:1047300021E0892B8A2B8B2B09F420E0D8012C93C4
:10474000D70111968C91080F111DE981FA813196DC
:10475000FA83E983F7E08F0E911CAF85B889ED915C
:10476000FC91EC0DFD1D828129813A81821713068F
:1047700011F00CF0BBCF772011F0128701873F8139
:10478000332391F1AF85B889ED91FC91EC0DFD1DBE
:1047900061E070E0878190856AD4AF85B889ED913A
:1047A000FC91EC0DFD1DE780F08445815681E1E030
:1047B000F0E0662011F0F0E0E0E00D811E819C0148
:1047C000B101882799278E1B9F0B8BD32C01892B36
:1047D00059F0EF85F88980819181C80ED91ED601E4
:1047E00015968D919C91CFD5F12CD8CEF7014181B2
:1047F00050E0C8010E94E03DA3CF86EF482E55242B
:104800005A94CCCEEF85F889878590890196908B54
:104810008787258536858217930709F08DCE108A04
:1048200017868ACE512C412C21CE10E000E02DCFEE
:104830002F923F924F925F926F927F928F929F92B0
:10484000AF92BF92CF92DF92EF92FF920F931F939E
:10485000CF93DF93809197049091980410E000E04B
:10486000892BA9F0D6DA0AEF1FEF882381F0209078
:10487000990430909A04C0919704D0919804D12C57
:10488000C12C10E000E02C143D04A9F47894C80178
:10489000DF91CF911F910F91FF90EF90DF90CF901C
:1048A000BF90AF909F908F907F906F905F904F9050
:1048B0003F902F900895C6010E94631B882309F141
:1048C0008B819C810397E9F48F859889892BC9F0A6
:1048D000B60190E080E07AD221E030E0882311F048
:1048E00030E020E044245524421A530AB12CA12C74
:1048F000912C812C8A818815190409F038F4188AC2
:104900001F864FEFC41AD40A6396BDCFE881F981A0
:10491000EA0DFB1D85819681892BA1F161E070E094
:1049200087819085A4D33C01D9D28C01E881F9819B
:10493000EA0DFB1D8185928525813681200F311F6F
:10494000AC01421B530B9A0147815085421B530B0C
:1049500070E060E00E94E93DE881F981EA0DFB1D0D
:10496000E780F084458156819301B601C201B9D236
:104970008C01892B39F0E881F981EA0DFB1D8581D5
:10498000968101D55FEF851A950A8BE0A80EB11CC0
:10499000B1CF3FCA789408952F923F924F925F9281
:1049A0006F927F929F92AF92BF92CF92DF92EF92DF
:1049B000FF920F931F93CF93DF9300D000D000D0CE
:1049C000CDB7DEB700919704109198049924939481
:1049D0000115110509F43EC0A0909904B0909A0405
:1049E00018DA982E8823B1F1109298041092970447
:1049F00010929A041092990410929B0410929C04B5
:104A00008FEF9FEFDC018093CA029093CB02A093BB
:104A1000CC02B093CD0278947AD31E830D83C12C3F
:104A2000D12C7601C501B0E0A0E089839A83AB83E5
:104A3000BC8322242A94322C89819A81AB81BC8147
:104A4000C816D906EA06FB06F4F0C8019CD480E437
:104A50000E94A217892D26960FB6F894DEBF0FBECE
:104A6000CDBFDF91CF911F910F91FF90EF90DF901D
:104A7000CF90BF90AF909F907F906F905F904F903E
:104A80003F902F900895AD81BE8115968D919C9198
:104A900016972091C0023091C10282179307D1F47A
:104AA00051968D919C91E9D5ED81FE818081918116
:104AB000B12CA12C412C512C3201892B89F5BFEF4F
:104AC000CB1ADB0AEB0AFB0AED81FE817396FE83AB
:104AD000ED83B2CFC114D104E104F10429F7892B8D
:104AE00019F7ED81FE81818992898F3F980709F03E
:104AF00024D5AD81BE8152963C922E925197D4CF4F
:104B00008A0D9B1DDC018D919C91009709F03BD48F
:104B1000BFEF4B1A5B0A6B0A7B0AEBE0AE0EB11CCF
:104B2000AD81BE818D919C91119712964C9150E070
:104B300070E060E044165506660677060CF323D451
:104B4000BECFCF93DF93EA0127DF811109C082E056
:104B500090E09983888385EF9FEFDF91CF9108954F
:104B600081E090E00E94941781E090E0998388832F
:104B700090E080E0F2CF10DF109294041092930442
:104B8000089542E050E061E973E00C94B217FF929F
:104B90000F931F93CF93DF938A01EC01C60FD71FAA
:104BA000F980B4D20897F816190671F068F082E01F
:104BB00090E0F801918380838EEF9FEFDF91CF919A
:104BC0001F910F91FF9008956C817D818E819F814F
:104BD0004B810E94491A811108C082E090E0F801DF
:104BE0009183808384EF9FEFE9CFF9800E94441A7C
:104BF0004F2D50E0BE01685F7F4F0E94E03D8981EC
:104C00000E94B31A81E090E0F8019183808390E0E4
:104C100080E0D4CFDF92EF92FF920F931F93CF9358
:104C2000DF938A01EC01C60FD71F0E94441A7C0152
:104C3000D9806CD2DD2059F0029721E030E0D816FF
:104C4000190619F010F030E020E0232B79F482E00F
:104C500090E0F801918380838EEF9FEFDF91CF91F9
:104C60001F910F91FF90EF90DF900895EF2841F48E
:104C700082E090E0F8019183808384EF9FEFEECF94
:104C8000F9800E94441A4F2D50E0BE016E5F7F4FA5
:104C90000E94E03D89810E94B31A81E090E0F80112
:104CA0009183808390E080E0D9CF81EC95E290936E
:104CB0009E0480939D04089580919D0490919E048C
:104CC00008950895FC0111821082938382830895D0
:104CD000DB011D921C92DC011296ED91FC91139761
:104CE0007183608313967C936E9312970895FC01F1
:104CF00080819181DB018D939C93A081B18110977C
:104D000041F08D919C9191838083892B11F4F383E1
:104D1000E2830895FC0180819181DB018D939C9356
:104D2000892B11F473836283718360830895FC017E
:104D300011821082938382830895CF93DF9300D0F2
:104D4000CDB7DEB71A821982F894BE016F5F7F4F2C
:104D500084EA94E0CCDF89819A81009709F013D32B
:104D600089819A81892B89F7BE016F5F7F4F88EA1D
:104D700094E0BDDF89819A81009709F004D389818D
:104D80009A81892B89F778940F900F90DF91CF91BA
:104D90000895CF93DF9300D0CDB7DEB71A82198282
:104DA000F894BE016F5F7F4F80EA94E0A0DF8981B5
:104DB0009A81009709F0E7D289819A81892B89F736
:104DC00078940F900F90DF91CF91089581E008952E
:104DD00090E080E00895EF92FF920F931F93CF939E
:104DE000DF9300D0CDB7DEB71A82198280919F047D
:104DF00007EF1FEF8823A1F1F894BE016F5F7F4F8B
:104E000088EA94E074DF789489819A81EE24E394AF
:104E1000F12C892B51F4F894BE016F5F7F4F84EA27
:104E200094E065DF7894F12CE12C89819A810EEF72
:104E30001FEF0097A9F0FC014281538164E070E00C
:104E400072D68C01892B61F0F89469817A81C7014F
:104E5000880F991F880F991F8C559B4F5BDF7894A3
:104E6000C8010F900F90DF91CF911F910F91FF908C
:104E7000EF9008950F931F93CF93DF9300D000D04E
:104E8000CDB7DEB71C821B821A82198280919F04E3
:104E900007EF1FEF8823C1F0AE014D5F5F4F64E065
:104EA00070E0CE010196B2D68C01892B69F4E981BC
:104EB000FA818B819C8193838283F89469817A81C2
:104EC00080EA94E005DF7894C8010F900F900F906E
:104ED0000F90DF91CF911F910F910895B7D704964E
:104EE00008958F929F92AF92BF92CF92DF92EF92EE
:104EF000FF920F931F93CF93DF9300D0CDB7DEB710
:104F00001A821982BC016F5F7F4F6330710598F080
:104F1000AA24AA94BA2CC5010F900F90DF91CF91CB
:104F20001F910F91FF90EF90DF90CF90BF90AF90C7
:104F30009F908F9008954115510551F348015901F3
:104F40008A016C01CBDF8815990511F7E114F10492
:104F5000F9F28E0D9F1DA816B906D0F280919F041C
:104F60008823F1F0F894B501645071099701AE01FE
:104F70004F5F5F4FC8010496DED65C01892B71F448
:104F800089819A81F80193838283C601880F991FD2
:104F9000880F991FB8018C559B4F9ADE7894BBCF30
:104FA00087EFA82EBB24BA94B6CFAF92BF92CF9210
:104FB000DF92EF92FF920F931F93CF93DF9300D076
:104FC000CDB7DEB71A821982892B09F047C0611567
:104FD000710509F443C04115510509F43FC021157D
:104FE000310509F43BC001151105C1F180919F0401
:104FF0008823B9F179016A015B01F894BE016F5F02
:105000007F4F80EA94E073DE789489819A810097DB
:1050100059F1DC0112966D917C91A8010496A4D6F9
:105020008C01E981FA81D501ED93FC938281938112
:105030000496F6019183808351DFD7018D939C9371
:10504000C8010F900F90DF91CF911F910F91FF90AA
:10505000EF90DF90CF90BF90AF9008950FEF1FEFCC
:10506000EFCF07EF1FEFECCF0EEF1FEFE9CFCF939E
:10507000DF93EC01672B71F4F2D68C179D0760F07B
:10508000E5D62496C80FD91FE4D68C0F9D1FDF915B
:10509000CF910895E1D6F1CF90E080E0F8CF0F9363
:1050A0001F93CF93DF9320919F0421112BC08B017D
:1050B000EC0184EA94E006DE88EA94E003DE80EA0C
:1050C00094E000DE97D00097C1F4C9D670E060E0AC
:1050D000CEDF4EEC52E062E070E081D1009769F4DF
:1050E0008091CE029091CF02CCD6B801CE0101D5ED
:1050F000009719F421E020939F04DF91CF911F9135
:105100000F91089584EF9FEFF8CFA6C6A8C6CF935E
:10511000DF93A8D6EC01892B11F40FDE3ADECE0125
:10512000DF91CF910895CF93DF939CD6EC01892B2B
:1051300009F403DECE01DF91CF9108958091CE0274
:105140009091CF020895CF93DF9380919F04D0E098
:10515000C0E08823D1F09AD6EC01892BB1F4EDDDC3
:1051600018DE8091CE029091CF02E7D1E8D2EC0117
:10517000892B59F484EA94E0DADD88EA94E0D7DDFB
:1051800080EA94E0D4DD10929F04CE01DF91CF91AC
:105190000895EF92FF920F931F93CF93DF93EC014B
:1051A0007A018B010F5F1F4F0E9DA0010F9D500DC7
:1051B0001E9D500D112470E060E00E94E93D90E0DA
:1051C00080E0F0E0E0E02FEFE816F90639F4DF9137
:1051D000CF911F910F91FF90EF9008951A8219823D
:1051E0002883309711F0D283C1830196FE01C00F4E
:1051F000D11FEACFCF92DF92EF92FF920F931F93CE
:10520000CF93DF9308EC15E00C7F43E050E060EDB6
:1052100072E086ED92E01AD480EDE82E82E0F82E5E
:1052200096EDC92E92E0D92EC7E4D6E0D7014D9174
:105230005D917D01F601619171916F011983088380
:105240005D834C835B834A837F836E839B012F5FE7
:105250003F4F249FC001259F900D349F900D112436
:10526000998788870115110511F0C80192DF88859B
:105270009985080F191F2A96F6EDEF16F2E0FF0642
:10528000A9F6EEEAF4E087E191E0DF019C011D92CE
:1052900021503040E1F71092AD041092AC0410920E
:1052A00066061092650610926A06109269061092C0
:1052B00068061092670610926C0610926B061092A8
:1052C0006E0610926D061092700610926F06109284
:1052D0007406109273061092720610927106109264
:1052E0007606109275061092780610927706109244
:1052F000440610924306109246061092450690E02E
:1053000080E0DF91CF911F910F91FF90EF90DF90A0
:10531000CF9008950097F1F0F894A6EDB2E0E7E49D
:10532000F6E030E020E04D915D9148175907A8F074
:10533000428153814115510581F08AE0829FF0013D
:10534000839FF00D1124E95BF94F808191810097D3
:1053500059F4789490E080E008952F5F3F4F3A969B
:105360002330310501F7F5CFDC0111966D917C9169
:10537000718360834150510953834283FC0121931F
:10538000CF0178940895009749F1DC018E91853022
:1053900041F4E0914506F09146063097F9F0CD01D1
:1053A00009948530D8F4282F30E0F8948FEF8C934F
:1053B0008AE0829FF001839FF00D1124E95BF94F91
:1053C0008081918112969C938E931197B183A083D3
:1053D0008281938101969383828378940895CF92FA
:1053E000DF92EF92FF920F931F93CF93DF939C0175
:1053F00081EB94E08C7F4115510509F49BC0211588
:10540000310509F497C06115710509F493C07A015B
:10541000AB01B9016D5F7F4F6C7F9B012F5F3F4FE9
:10542000249F8001259F100D349F100D1124F894A6
:105430002091650630916606232B59F420916D0664
:1054400030916E062115310569F12017310708F0FA
:1054500058C020916F0630917006232B91F4209153
:105460006D0630916E06820F931F20917706309162
:1054700078062115310509F441C02017310708F0DD
:1054800056C07894CFEFDFEF86EF9FEFF701D1831F
:10549000C083DF91CF911F910F91FF90EF90DF902C
:1054A000CF900895C3E0D0E0C090AC04D090AD049C
:1054B00024E131E02C193D092017310710F32AE0CF
:1054C0002C9FF0012D9FF00D1124E95BF94F918382
:1054D0008083558344835383428377836683118714
:1054E0000087009709F055DE0C0D1D1D1093AD04CB
:1054F0000093AC04789490E080E0C8CFC4E0D0E0A2
:10550000D3CFC3E0D0E02AE02C9FF0012D9FF00D17
:105510001124E95BF94F918380835583448353833E
:10552000428377836683009729F333DEE3CFC4E0B9
:10553000D0E0E9CF8FEF9FEFACCF9C0103970297AC
:1055400008F069C0F89484E09AE0482F50E02417EE
:1055500035070CF44DC091E08AE0829FF001839FF3
:10556000F00D1124E95BF94F11821082158214822B
:1055700013821282178216829923B1F180916506F7
:1055800090916606892BA9F420916D0630916E06E4
:105590002115310571F08091AC049091AD04821B0E
:1055A000930B9093AD048093AC0410926E0610920E
:1055B0006D0680916F0690917006892BA9F4209159
:1055C0007706309178062115310571F08091AC0491
:1055D0009091AD04821B930B9093AD048093AC0427
:1055E0001092780610927706789490E080E0089503
:1055F000949FF001959FF00D1124E95BF94F4081D4
:105600005181452B31F440855185452B11F4815052
:105610009CCF90E0A1CF8FEF9FEF089541155105EA
:1056200049F1009739F16115710521F1F894209144
:10563000430630914406232BB9F42091450630915E
:105640004606232B89F49093440680934306709377
:10565000460660934506789425E030E090E080E0CF
:10566000FA0131832083089578942FEF3FEF86EF7E
:105670009FEFF6CF8FEF9FEF0895059769F4F894A9
:105680001092440610924306109246061092450668
:10569000789490E080E008958FEF9FEF0895611572
:1056A000710519F4F0E0E0E011C08530910581F456
:1056B000E0914306F09144063097A1F3CB010196A7
:1056C0000995009779F3FC0185E08193CF01089556
:1056D0009C01235031092230310520F72AE0289F10
:1056E000D001299FB00D1124A95BB94F2D913C9198
:1056F0001197232BB9F216962D913C9117972617E7
:10570000370780F2F89412962D913C91139721154A
:10571000310529F0ED91FC911197309711F47894AF
:10572000C1CF4181528111965C934E932150310932
:1057300013963C932E93129781937894C7CFE5EC00
:10574000F5E08EE7DF011D928A95E9F7EEEAF4E0D5
:1057500087E191E0DF019C011D9221503040E1F78B
:105760001092AD041092AC04E7E4F6E082E3DF01AE
:105770001D928A95E9F7E3E4F6E084E0DF011D92EB
:105780008A95E9F790E080E00895CF93DF93C09188
:10579000DC02D091DD02CF3FDC0759F410D49093A6
:1057A000DD028093DC0297FF09C0D093DD02C09335
:1057B000DC0284EF9FEFDF91CF91089590E080E0CD
:1057C000FACF8230910528F48093790690E080E04A
:1057D00008958FEF9FEF08954F925F926F927F929F
:1057E000AF92BF92CF92DF92EF92FF920F931F93EF
:1057F000CF93DF9300D0CDB7DEB71A82198200971E
:1058000009F479C06115710509F475C02091DC02B5
:105810003091DD0207EF1FEF2F3F3F4F09F445C0E6
:105820006B015C01412C512C3201F12CE12C10E078
:1058300000E09E012F5F3F4FA6014E195F09B501A1
:105840006E0D7F1D8091DC029091DD021CD4892BAE
:1058500009F04BC089819A81009741F4E114F10469
:1058600029F420917906222309F442C0E80EF91E9A
:10587000EC14FD04D0F480E8481684E858068EE164
:105880006806710420F560E070E0CB010E94653A83
:105890002AE0420E511C611C711C0A3F4FEF140795
:1058A00021F0043F8FEF1807A1F4C8010F900F906B
:1058B000DF91CF911F910F91FF90EF90DF90CF90EC
:1058C000BF90AF907F906F905F904F90089501EFE1
:1058D0001FEF81E090E0013F2FEF120711F090E001
:1058E00080E0892B09F4A5CFE0CF04EF1FEFDDCFD7
:1058F0000AEF1FEFDACF0FEF1FEFD7CF4F925F9274
:105900006F927F92AF92BF92CF92DF92EF92FF920F
:105910000F931F93CF93DF9300D0CDB7DEB71A82DA
:105920001982009709F479C06115710509F475C0F1
:105930002091DC023091DD0207EF1FEF2F3F3F4F38
:1059400009F445C06B015C01412C512C3201F12C52
:10595000E12C10E000E09E012F5F3F4FA6014E19A1
:105960005F09B5016E0D7F1D8091DC029091DD0213
:105970003DD3892B09F04BC089819A81009741F46E
:10598000E114F10429F420917906222309F442C09C
:10599000E80EF91EEC14FD04D0F480E8481686E900
:1059A000580688E96806710420F560E070E0CB01D4
:1059B0000E94653A2AE0420E511C611C711C0E3F88
:1059C0004FEF140721F0043F8FEF1807A1F4C8012F
:1059D0000F900F90DF91CF911F910F91FF90EF905B
:1059E000DF90CF90BF90AF907F906F905F904F907F
:1059F000089502EF1FEF81E090E0023F2FEF1207C2
:105A000011F090E080E0892B09F4A5CFE0CF04EFFE
:105A10001FEFDDCF0EEF1FEFDACF0FEF1FEFD7CF66
:105A20008091DC029091DD028F3F980749F0BED251
:105A3000892B49F48FEF9FEF9093DD028093DC0276
:105A400090E080E0089584EF9FEF0895CF92DF9279
:105A5000EF92FF920F931F93CF93DF9321E04115B5
:105A6000510509F020E04150510921112CC0DC0101
:105A7000FB01D12CC12C21E022C03FEFC31AD30A75
:105A80007D010D911D91E701EA80FB80E016F10692
:105A9000A8F420813181E280F380F182E0823383B7
:105AA0002283ED90FC9011979D0122503109E9016C
:105AB000F982E88211961C930E9320E03296C41668
:105AC000D506D8F2D2CFDF91CF911F910F91FF90E1
:105AD000EF90DF90CF900895FC01680F791F90E060
