:100000005DC0000083C0000081C000007FC0000010
:100010007DC000007BC0000079C0000077C00000F8
:1000200075C0000073C0000071C000006FC0000008
:100030006DC000006BC0000069C0000067C0000018
:100040000C94B63763C000000C94AD3A0C94DF3AC0
:100050005DC000005BC0000059C0000057C0000038
:100060000C94993653C00000000000080002010003
:100070000003040700000000000000000102040863
:100080001020408001020408102001020408102002
:10009000040404040404040402020202020203032E
:1000A0000303030300000000250028002B000000CC
:1000B0000000240027002A000534043B11241FBE41
:1000C000CFEFD8E0DEBFCDBF13E0A0E0B1E0E4E6C3
:1000D000F7E702C005900D92A037B107D9F728E0E5
:1000E000A0E7B3E001C01D92AF35B207E1F710E021
:1000F000CEE5D0E004C02197FE010E94813BCC35C3
:10010000D107C9F70E94622F0C94B03B79CFCF92F0
:10011000DF92EF92FF926B017C01C114D104E104E4
:10012000F10469F480910001811109C080910201FC
:10013000909103010E94763381E080930001C60113
:10014000880F991F880F991F80509F4FFF90EF9045
:10015000DF90CF900895009781F0FC01218121115B
:1001600004C040EA56E861E070E0FC0182819381BE
:100170000E94853390E080E0089588E090E0089543
:100180004F925F926F927F928F929F92AF92BF92A7
:10019000CF92DF92EF92FF920F931F93CF93DF9353
:1001A0000097C9F1280139017A01EC01402F8A81B9
:1001B0009B810E9403348A819B81DC01ED91FC913B
:1001C0000084F185E02D0995892B01F16701812CCF
:1001D000912C54018A819B81DC01ED91FC9100847A
:1001E000F185E02D0995892B91F184149504A604DD
:1001F000B70469F18A819B81DC01ED91FC91028455
:10020000F385E02D09958F3F9807C1F484E0F7014D
:1002100011928A95E9F788E090E0DF91CF911F91E4
:100220000F91FF90EF90DF90CF90BF90AF909F9095
:100230008F907F906F905F904F900895FFEF8F1A8F
:100240009F0AAF0ABF0AD6018D936D01C3CF90E01C
:1002500080E0E3CF8F929F92AF92BF92CF92DF92D6
:10026000EF920F931F93CF93DF930097F1F06A0102
:10027000EC018A819B810E9488338A819B81DC0109
:10028000ED91FC910280F381E02DA801B601099562
:100290008A819B8160E0E11001C061E00E9492339D
:1002A000882389F08250823088F088E090E0DF91E6
:1002B000CF911F910F91EF90DF90CF90BF90AF90B3
:1002C0009F908F90089590E080E0F1CF84E090E0DF
:1002D000EECF0895611102C00C941A396130E1F338
:1002E00062E0FACF662319F061E00C94563960E0C1
:1002F000FCCFCF92DF92EF92FF92CF93882351F100
:100300006A017B01CFEFC80F20E030E0A901CB01EB
:10031000B6010E94623087FF11C0C701B601905834
:100320000E94D3309B01AC016C2F70E090E080E024
:10033000CF91FF90EF90DF90CF90B2C0C701B60190
:100340000E94CE308C2FCF91FF90EF90DF90CF9016
:100350000C949638CF91FF90EF90DF90CF90089556
:100360000F931F938B019C0183E03695279517957A
:1003700007958A95D1F700591C4F462F477021E009
:1003800030E0F90102C0EE0FFF1F4A95E2F7AF011E
:10039000F80120812423CB010196211102C090E0B5
:1003A00080E01F910F9108950F931F938B019C0183
:1003B00083E036952795179507958A95D1F767704D
:1003C00081E090E001C0880F6A95EAF7F801E059F2
:1003D000FC4F2081452B31F48095822380831F912F
:1003E0000F910895822BFACF2F923F924F925F92F6
:1003F0006F927F928F929F92AF92BF92CF92DF9235
:10040000EF92FF920F931F93CF93DF93D62EC72EB9
:10041000782E692E49015A01280161E08D2D0E9434
:100420001A39CD2DDC2D8E010F5F1F4FA8016D2DC8
:100430007C2D872D962DB8DF20E030E0A901C20188
:10044000B7010E945232181664F4C201B7010E942B
:10045000D3302B01C501B4010E94D330A201CE01DB
:1004600023D0C801DF91CF911F910F91FF90EF90A2
:10047000DF90CF90BF90AF909F908F907F906F90C4
:100480005F904F903F902F900895882341F08150C6
:10049000682F70E090E080E050E040E085CF089564
:1004A000862FB9010C9496389C01FC01E859FF4F46
:1004B000E491E33061F140F4E13011F1E23021F1F7
:1004C00060E0822F0C945639E730C1F1E83009F42E
:1004D00041C0E430A9F7809180008C7F82608093D6
:1004E000800090918100907E9061692B60938100E3
:1004F00050938700409386008091800080621BC0EB
:1005000084B5806884BDDCCF84B58062FBCF8091E8
:1005100080008C7F82608093800090918100907E2B
:100520009061692B6093810050938700409386000F
:1005300080918000806880938000C2CF8091B0005D
:1005400080688093B0008091B100887F682B6093B1
:10055000B100B6CF8091B0008062F3CF90E080E030
:1005600008950F931F93009709F489C061157105D1
:1005700009F485C000916F02109170022091710200
:10058000309172020E3F1F4F2F4F3F4F09F068C04E
:100590004FEF5FEFBA0140936F0250937002609388
:1005A00071027093720240916F02509170026091DB
:1005B000710270917202DC011296ED91FC918081C2
:1005C0009181A281B3818093F7039093F803A09364
:1005D000F903B093FA0384819581A681B781809352
:1005E000F3039093F403A093F503B093F60380858F
:1005F0009185A285B3858093EF039093F003A09338
:10060000F103B093F20384859585A685B785809321
:10061000EB039093EC03A093ED03B093EE031092E1
:10062000E7031092E8031092E9031092EA030E9494
:1006300049128EE692E190937A0380937903909326
:100640007C0380937B030E943811009731F421E0F2
:1006500030E03093FC032093FB031F910F9108952A
:1006600000916F021091700220917102309172021C
:10067000DB010D931D932D933C93139794CF8FEF34
:100680009FEFEBCF8F929F92AF92BF92CF92DF926C
:10069000EF92FF921F93CF93DF934B015C01109178
:1006A000FE0382E090E09093FC038093FB038114AF
:1006B0009104A104B10441F48091FE03811104C0AE
:1006C0008091FD03C1E08111C0E0C12CD12C7601E5
:1006D0008091FE03811106C08091FD03811102C04B
:1006E000CC23D9F083E090E09093FC038093FB034C
:1006F000CC2381F1CCE9DFEF111102C00E94D215A9
:10070000CE01DF91CF911F91FF90EF90DF90CF90BE
:10071000BF90AF909F908F9008956AE070E080E066
:1007200090E00E94253880E1C80E87E2D81EE11CC7
:10073000F11C8FEF88169806A806B80631F0C1E0C4
:100740008C149D04AE04BF0408F0C0E080E00E9459
:100750006C11BECFD0E0C0E0CFCFCF92DF92EF924E
:10076000FF920F931F93CF93DF938F3F910511F06B
:1007700008F051C02091FB033091FC032330310578
:1007800039F02091FB033091FC032130310531F425
:1007900024E030E03093FC032093FB036A017B01EB
:1007A000EC0182309105A8F011E0AE01C701B6015D
:1007B0000E943711AB01BC01CE011123F9F0DF918A
:1007C000CF911F910F91FF90EF90DF90CF900C94FD
:1007D000FB178C01000F111F07581C4FD8018D917A
:1007E0009C91892B09F30E9405180297E9F6D8011C
:1007F000ED91FC91CE010995182FD7CF0E941D18BD
:1008000090E080E0DF91CF911F910F91FF90EF90EA
:10081000DF90CF9008958FEF9FEFF4CF80E00C949E
:100820006C11CF93DF9386E090E09093FC0380936C
:10083000FB030E94C511EC01E9E7F3E084E0DF016E
:100840001D928A95E9F70E946A151092FC03109296
:10085000FB03CE01DF91CF9108958091FD030895B0
:100860008091E603089560936F0270937002809305
:1008700071029093720290E080E00895CF92DF922F
:10088000EF92FF926B017C019F7720E030E040E81F
:1008900059E50E94623087FF2BC020E030E040E045
:1008A0005FE3C701B6010E94523287FD0EC020E00F
:1008B00030E040E05FE3C701B6010E94EB2FFF90FC
:1008C000EF90DF90CF900C943C3120E030E040E09E
:1008D0005FEBC701B6010E945232181684F420E083
:1008E00030E0A901C701B6010E9456326B017C01BC
:1008F000C701B601FF90EF90DF90CF90089520E000
:1009000030E040E05FE3C701B6010E94EA2FFF90AC
:10091000EF90DF90CF900C944F302F923F924F92F8
:100920005F926F927F928F929F92AF92BF92CF927F
:10093000DF92EF92FF920F931F93CF93DF93CDB788
:10094000DEB7A1970FB6F894DEBF0FBECDBF809182
:100950003D088150823008F053C383E080933D0806
:1009600080913C088150823008F04CC383E0809332
:100970003C0880913B088150823008F045C383E0F9
:1009800080933B08809144088150823008F03EC338
:1009900083E080934408C0902001D0902101E09032
:1009A0002201F0902301A70196016091DF07709169
:1009B000E0078091E1079091E2070E94623088236E
:1009C00041F0C092DF07D092E007E092E107F09299
:1009D000E2078CE08987C12CEE24E39401E010E06B
:1009E00020E030E0AE01475F5F4F66E370E080914A
:1009F000D5079091D6072EDC8987811109C3CC24B5
:100A0000C394E12C04E010E020E030E0AE014F5F41
:100A10005F4F66E370E08091D5079091D607B0DB19
:100A200084E0FE013196DE01159601900D928A95C3
:100A3000E1F78D819E819D838E838F8198859F8331
:100A4000888720910308309104084091050850914F
:100A500006086091F8017091F9018091FA01909176
:100A6000FB010E9456326E877F87888B998B20917D
:100A7000640230916502AF81B8850E94873B6B01AB
:100A80007C01C092CB07D092CC07E092CD07F092C8
:100A9000CE0781E090E040911C0150911D016091D2
:100AA0001E0170911F01C416D506E606F70610F068
:100AB00090E080E020916602289FB001299F700D90
:100AC0001124072E000C880B990B0E9401319B0109
:100AD000AC010E94EB2F4B015C01C701B6010E94E3
:100AE000FF3020E030E040E056E30E9456329B01A8
:100AF000AC01C501B4010E94EB2F2091FC013091A3
:100B0000FD014091FE015091FF010E94EA2F2091CA
:100B100000023091010240910202509103020E94B2
:100B200056326093B3077093B4078093B5079093E0
:100B3000B6072091040230910502409106025091BF
:100B400007020E9456326A8B7B8B8C8B9D8BC090E8
:100B50000708D0900808E0900908F0900A08409033
:100B60000B0850900C0860900D0870900E082091B2
:100B700028023091290240912A0250912B02C7018C
:100B8000B6010E9456324B015C0120912C0230913B
:100B90002D0240912E0250912F02C301B2010E94FA
:100BA00056329B01AC01C501B4010E94EB2F4B01F1
:100BB0005C01209138023091390240913A02509103
:100BC0003B026E857F85888999890E9456326A87A3
:100BD0007B878C879D8720913C0230913D0240911C
:100BE0003E0250913F026A897B898C899D890E94CF
:100BF00056329B01AC016A857B858C859D850E9460
:100C0000EB2F9B01AC01C501B4010E94EB2F609357
:100C1000AB077093AC078093AD079093AE0720911C
:100C20003002309131024091320250913302C701BB
:100C3000B6010E9456326B017C0120913402309142
:100C400035024091360250913702C301B2010E9431
:100C500056329B01AC01C701B6010E94EB2F6B011C
:100C60007C0120914002309141024091420250911A
:100C700043026E857F85888999890E9456324B018F
:100C80005C0120914402309145024091460250910E
:100C900047026A897B898C899D890E9456329B0113
:100CA000AC01C501B4010E94EB2F9B01AC01C7014F
:100CB000B6010E94EB2F6093AF077093B00780934B
:100CC000B1079093B2076093B7077093B80780930A
:100CD000B9079093BA078091500290915102A09168
:100CE0005202B09153028093BB079093BC07A0932C
:100CF000BD07B093BE07C0904C02D0904D02E0906B
:100D00004E02F0904F0220E030E0A901C701B60189
:100D10000E94623087FF7FC1C701B6010E944F3039
:100D20006093C3077093C4078093C5079093C60769
:100D30006091C3077091C4078091C5079091C60761
:100D40000E943510882309F46BC11092C3071092DA
:100D5000C4071092C5071092C607C090C307D09071
:100D6000C407E090C507F090C60720E030E0A90175
:100D7000C701B6010E94623087FF74C1C701B60186
:100D800090580E94D33090958095709561957F4FD3
:100D90008F4F9F4F623071058105910509F481C322
:100DA000633071058105910509F46BC461307105EB
:100DB0008105910509F05FC12091B3073091B40717
:100DC0004091B5075091B6076091BB077091BC0781
:100DD0008091BD079091BE070E94EA2F20912401C7
:100DE0003091250140912601509127010E945632F1
:100DF0006B017C01C092C307D092C407E092C50783
:100E0000F092C6072091040130910501409106013E
:100E1000509107010E9456322091280130912901FA
:100E200040912A0150912B010E9456322B013C0126
:100E30004092C7075092C8076092C9077092CA07CC
:100E400020912B0830912C0840912D0850912E08AC
:100E50002A873B874C875D8780912F0890913008C7
:100E6000A0913108B09132088E8B9F8BA88FB98FDB
:100E700020911401309115014091160150911701F4
:100E8000C701B6010E9456322A853B854C855D8597
:100E90000E94EB2F4B015C0120912708309128081C
:100EA0004091290850912A08C301B2010E94EA2FFB
:100EB0009B01AC01C501B4010E94EB2F4B015C0109
:100EC00020913C0130913D0140913E0150913F0104
:100ED0006E897F89888D998D0E9456329B01AC0165
:100EE000C501B4010E94EA2F2091380130913901E7
:100EF00040913A0150913B010E9466304B015C01E8
:100F000020913001309131014091320150913301F3
:100F10000E9456326A8F7B8F8C8F9D8F2091340177
:100F20003091350140913601509137016E897F89AA
:100F3000888D998D0E9456329B01AC016A8D7B8D04
:100F40008C8D9D8D0E94EB2F2091440130914501A5
:100F500040914601509147010E945632209118015C
:100F60003091190140911A0150911B010E94EB2F01
:100F70006093BF077093C0078093C1079093C20727
:100F800040922708509228086092290870922A08F7
:100F900020910C0130910D0140910E0150910F01F3
:100FA000C701B6010E94563220912C0130912D01CB
:100FB00040912E0150912F010E9456322A853B8587
:100FC0004C855D850E94EB2F60932B0870932C0855
:100FD00080932D0890932E0880922F0890923008CD
:100FE000A0923108B092320880913D08882309F41C
:100FF0003EC0833009F452C2082E000C990B39C050
:1010000080E0ACCC80E0B3CC80E0BACC80E0C1CC56
:1010100018861F8216CDC701B6010E943C3180CED2
:101020006091C3077091C4078091C5079091C6076E
:10103000D7D781118ACE6091C3077091C407809180
:10104000C5079091C60720E030E040E85FE40E94C9
:1010500056316093C3077093C4078093C50790937C
:10106000C6077BCEC701B6010E94D33093CE82E083
:1010700090E080933D0869E070E080E090E070D9F6
:101080008C0190930208809301082091BF07309152
:10109000C0074091C1075091C207609158027091FA
:1010A000590280915A0290915B020E9456326B0164
:1010B0007C0120E030E04FE753E40E9462301816D4
:1010C0000CF416C5C092C307D092C407E092C507BE
:1010D000F092C60720E030E0A9016091C30770914B
:1010E000C4078091C5079091C6070E94523287FFBE
:1010F00008C01092C3071092C4071092C50710923F
:10110000C6074091C3075091C4076091C50770910D
:10111000C607C801EED860915C0270915D028091B3
:101120005E0290915F02AADB6B017C01C092C30753
:10113000D092C407E092C507F092C60720E030E0E5
:1011400040E853E40E94623087FFE1C420E030E0D1
:10115000A901C701B6010E94523287FDD6C4C7015A
:10116000B6010E94D330698769858BE0BBD8C090F7
:10117000C307D090C407E090C507F090C60720E0F1
:1011800030E040E853E4C701B6010E94623087FFB7
:10119000C3C420E030E0A901C701B6010E94523269
:1011A00087FDB8C4C701B6010E94D330698769853D
:1011B0008CE098D860916002709161028091620227
:1011C000909163025BDB6B017C01C092C307D092FC
:1011D000C407E092C507F092C60720E030E040E87F
:1011E00053E40E94623087FF9CC420E030E0A901F4
:1011F000C701B6010E94523287FD91C4C701B601F2
:101200000E94D3306987698588E06CD88091BF07D8
:101210009091C007A091C107B091C20780930308C5
:1012200090930408A0930508B0930608C09007089F
:10123000D0900808E0900908F0900A0840900B0848
:1012400050900C0860900D0870900E0820911002CC
:10125000309111024091120250911302C701B60160
:101260000E9456324B015C0120911402309115020C
:101270004091160250911702C301B2010E945632EA
:101280009B01AC01C501B4010E94EB2F4B015C0135
:10129000209120023091210240912202509123029C
:1012A0006E857F85888999890E9456326A877B87F7
:1012B0008C879D872091240230912502409126023F
:1012C000509127026A897B898C899D890E945632B8
:1012D0009B01AC016A857B858C859D850E94EB2FE7
:1012E0009B01AC01C501B4010E94EB2F4B015C01D5
:1012F000209108023091090240910A0250910B029C
:10130000C701B6010E9456326B017C0120910C028C
:1013100030910D0240910E0250910F02C301B201B3
:101320000E9456329B01AC01C701B6010E94EB2F0F
:101330006B017C01209118023091190240911A0230
:1013400050911B026E857F85888999890E9456324B
:101350002B013C0120911C0230911D0240911E0284
:1013600050911F026A897B898C899D890E9456321F
:101370009B01AC01C301B2010E94EB2F9B01AC01A8
:10138000C701B6010E94EB2F60930708709308080D
:101390008093090890930A0880920B0890920C0899
:1013A000A0920D08B0920E08C090B903D090BA0375
:1013B000E090BB03F090BC033FEFC31AD30AE30AEB
:1013C000F30AC092B903D092BA03E092BB03F09241
:1013D000BC03C114D104E104F10499F48091BD036C
:1013E0009091BE03A091BF03B091C0030196A11DCF
:1013F000B11D8093BD039093BE03A093BF03B09330
:10140000C0038090C1039090C203A090C303B0902A
:10141000C4036091BD037091BE038091BF0390919E
:10142000C0030E94FF30A50194010E94563220E0C3
:1014300030E040E85FE40E9456322B013C01C701D6
:10144000B6010E94FF30A50194010E9456329B0113
:10145000AC01C301B2010E94EB2F6093B5037093FE
:10146000B6038093B7039093B803A1960FB6F89490
:10147000DEBF0FBECDBFDF91CF911F910F91FF90C7
:10148000EF90DF90CF90BF90AF909F908F907F9024
:101490006F905F904F903F902F90089581E090E083
:1014A000E8CDC0902308D0902408E0902508F09063
:1014B000260880904C0190904D01A0904E01B09074
:1014C0004F01A5019401C701B6010E9452321816BE
:1014D0000CF08EC08092BF079092C007A092C10707
:1014E000B092C2072091B3073091B4074091B5077D
:1014F0005091B6076091BB077091BC078091BD0702
:101500009091BE070E94EA2F20915401309155011D
:1015100040915601509157010E9456322091580136
:101520003091590140915A0150915B010E9456320D
:101530002091B7073091B8074091B9075091BA0789
:101540000E94EB2F20915C0130915D0140915E0182
:1015500050915F010E9456326093C3077093C40795
:101560008093C5079093C60780D5882309F459C096
:101570008091510890915208A0915308B09154085D
:101580008093C3079093C407A093C507B093C60781
:101590002091C3073091C4074091C5075091C607F9
:1015A000609160017091610180916201909163018D
:1015B0000E9456322091640130916501409166018C
:1015C000509167010E94EB2F6093230870932408C9
:1015D000809325089093260880913C08882309F47D
:1015E00048C0833009F44AC0082E000C990B43C050
:1015F0008090500190905101A0905201B090530101
:10160000A5019401C701B6010E94623087FD62CF37
:10161000C092BF07D092C007E092C107F092C20704
:1016200061CFC090C307D090C407E090C507F09089
:10163000C60720E030E0A901C701B6010E94623070
:1016400087FF05C080E090E0A0E8BFEB99CF20E0E5
:1016500030E0A901C701B6010E945232181624F0E9
:1016600080E090E0DC018CCF80E090E0A0E8BFE378
:1016700087CF82E090E080933C08FDCC81E090E051
:10168000FACF2091B3073091B4074091B50750913C
:10169000B6076091BB077091BC078091BD07909120
:1016A000BE070E94EA2F20916801309169014091A4
:1016B0006A0150916B010E9456326B017C0180904F
:1016C0000F0890901008A0901108B0901208209177
:1016D000D4013091D5014091D6015091D701C50177
:1016E000B4010E9456322B013C0158ED252E51E0E9
:1016F000352E03EC12E0EBECF2E0E017F10709F015
:101700004EC12091E8013091E9014091EA015091E8
:10171000EB01C701B6010E945632A30192010E945B
:10172000EB2F2091F0013091F1014091F2015091A5
:10173000F3010E9456322091180130911901409115
:101740001A0150911B010E94EB2F6093BF07709309
:10175000C0078093C1079093C20720916C0130911C
:101760006D0140916E0150916F01C501B4010E945D
:1017700056322B013C0130E7232E31E0332E09EBAA
:1017800012E0E1ECF2E0E017F10709F027C1209147
:10179000C0013091C1014091C2015091C301C70104
:1017A000B6010E945632A30192010E94EB2F6E8B6C
:1017B0007F8B888F998F2091130830911408409166
:1017C00015085091160860918001709181018091F7
:1017D0008201909183010E9456322B013C0120919D
:1017E000C4013091C5014091C6015091C701C701A4
:1017F000B6010E9456329B01AC01C301B2010E94A6
:10180000EB2F6A8F7B8F8C8F9D8F2091840130917D
:1018100085014091860150918701C501B4010E9464
:1018200056322B013C0128E831E03B872A87BFEA8A
:101830002B2EB2E03B2E07EB12E00215130509F048
:10184000ECC02091C8013091C9014091CA0150916A
:10185000CB01C701B6010E945632A30192010E943A
:10186000EB2F6E8F7F8F88A399A3209198013091E1
:10187000990140919A0150919B01C501B4010E94C8
:1018800056322B013C01ECE9F1E0FB87EA8755EA8F
:10189000252E52E0352E0DEA12E00215130509F04F
:1018A000DDC02091CC013091CD014091CE0150910D
:1018B000CF01C701B6010E945632A30192010E94D6
:1018C000EB2F2B013C012091AC013091AD014091F7
:1018D000AE015091AF01C501B4010E9456324B01D7
:1018E0005C01E0EBF1E0FB87EA873BE9232E32E085
:1018F000332E03EA12E00215130509F0D0C020913F
:10190000D0013091D1014091D2015091D301C70152
:10191000B6010E945632A50194010E94EB2F2E8938
:101920003F89488D598D20930F08309310084093BC
:101930001108509312082A8D3B8D4C8D5D8D20939C
:1019400013083093140840931508509316082E8DF1
:101950003F8D48A159A12093170830931808409350
:10196000190850931A0840921B0850921C08609264
:101970001D0870921E0860931F08709320088093C2
:1019800021089093220880913B08882309F4A8C07D
:10199000833009F4AAC0082E000C990BA3C0D10112
:1019A0006D917D918D919D911D01D801ED91FD91DC
:1019B0008D01EE0FFF1FEE0FFF1FE15FF74F20813C
:1019C0003181428153810E9456329B01AC01C30197
:1019D000B2010E94EB2F2B013C018DCED1016D9104
:1019E0007D918D919D911D01D801ED91FD918D010C
:1019F000EE0FFF1FEE0FFF1FE15FF74F20813181D8
:101A0000428153810E9456329B01AC01C301B20155
:101A10000E94EB2F2B013C01B4CEAA85BB856D91B2
:101A20007D918D919D91BB87AA87D101ED91FD910B
:101A30001D01EE0FFF1FEE0FFF1FE15FF74F20812B
:101A40003181428153810E9456329B01AC01C30116
:101A5000B2010E94EB2F2B013C01EFCEAA85BB8582
:101A60006D917D918D919D91BB87AA87D101ED915B
:101A7000FD911D01EE0FFF1FEE0FFF1FE15FF74FFE
:101A800020813181428153810E9456329B01AC01F9
:101A9000C301B2010E94EB2F2B013C01FECEAA85AF
:101AA000BB856D917D918D919D91BB87AA87D10159
:101AB000ED91FD911D01EE0FFF1FEE0FFF1FE15F86
:101AC000F74F20813181428153810E9456329B0120
:101AD000AC01C501B4010E94EB2F4B015C010BCF9F
:101AE00082E090E080933B08C6CA81E090E0FACFA4
:101AF00080E090E0AFE7B3E48093C3079093C4071E
:101B0000A093C507B093C607E5CA19862DCB8FEF02
:101B100089872ACB19864BCB8FEF898748CB1986CB
:101B200072CB8FEF89876FCB4F925F926F927F92CC
:101B30008F929F92AF92BF92DF92EF92FF920F939C
:101B40001F93CF93DF9384E090E013D2EFE9F3E0AB
:101B50008BE2DF011D928A95E9F780E090E0A0E832
:101B6000BFEB86A397A3A0A7B1A78AE097EDA3E256
:101B7000BBE382A393A3A4A3B5A386E096E3AAE85C
:101B8000B6EB84839583A683B78389EF90E0A5E4C1
:101B9000B0EB80879187A287B38785EB9AE3A2E4B5
:101BA000BDEB84879587A687B7878DE593EAA8EA7A
:101BB000BDE0808B918BA28BB38BA3E9B3E0B383A1
:101BC000A283EDE7F3E01196FC93EE9388E992E0AF
:101BD0009183808393838283958384839783868391
:101BE00091878087938782878DE398E095878487A4
:101BF0008BE398E09787868784E498E0918B808BCD
:101C000083E498E0938B828B8CE398E0958B848BB4
:101C100083EB93E015969C938E93149783EA93E05D
:101C200013969C938E93129785EB93E017969C9353
:101C30008E9316978BEAA82E87E0B82E84E2F501E2
:101C400011928A95E9F7CFECD7E086E7DE011D9285
:101C50008A95E9F780E090E5A3ECB8E48C879D874E
:101C6000AE87BF87DD24D394D092420894E0892EBA
:101C700091E0992EF401848D958DA68DB78D888B7A
:101C8000998BAA8BBB8B412C512C320143944982F6
:101C90005A826B827C8250E040E060E070E0CB01D1
:101CA0000E9487009F838E8340EA56E861E070E0DF
:101CB000488759876A877B870E94AB00DD821CA614
:101CC000D0923E084DA65EA66FA678AAE12CF12C14
:101CD0008701A801970169E070E080E090E00E9430
:101CE000F4019BAB8AABD9AA1CA2D09241084DA2A9
:101CF0005EA26FA278A661E08BE00E946A01D9A67D
:101D00001C8ED09240084D8E5E8E6F8E78A261E060
:101D10008CE00E946A01D9A21C8AD0923F084D8AA9
:101D20005E8A6F8A788E61E088E00E946A01D98EAF
:101D30008091F4019091F501A091F601B091F70125
:101D40008CAB9DABAEABBFAB80914802909149028A
:101D5000A0914A02B0914B0288AF99AFAAAFBBAF36
:101D60008CAF9DAFAEAFBFAFF40184819581A681EA
:101D7000B7818093270890932808A0932908B093EF
:101D80002A0884859585A685B78580932B0890932E
:101D90002C08A0932D08B0932E0884AD95ADA6AD68
:101DA000B7AD80932F0890933008A0933108B0937B
:101DB00032088091480190914901A0914A01B09167
:101DC0004B018093230890932408A0932508B09397
:101DD00026088091EC019091ED01A091EE01B09167
:101DE000EF0180930F0890931008A0931108B0930F
:101DF00012088093130890931408A0931508B093C9
:101E000016088093170890931808A0931908B093A8
:101E10001A0880931B0890931C08A0931D08B09388
:101E20001E0880931F0890932008A0932108B09368
:101E300022088091540290915502A0915602B091CF
:101E40005702F501848B958BA68BB78BDF91CF91D1
:101E50001F910F91FF90EF90DF90BF90AF909F90F8
:101E60008F907F906F905F904F9008958091CF07F3
:101E7000811119C081E08093CF078091D0079091A4
:101E8000D107A091D207B091D3070197A105B10561
:101E900051F48091D407882331F08091D507909137
:101EA000D6070E9469018091FB0781112EC081E055
:101EB0008093FB078091FC079091FD07A091FE079E
:101EC000B091FF070197A105B105F9F480910008D1
:101ED0008823D9F069E070E080E090E00E94B001D2
:101EE000909302088093010840E050E0BA010E94FC
:101EF000790169E070E080E090E00E94B001909389
:101F00000208809301080E9445028091F307811125
:101F100003C081E08093F3078091EB07811103C038
:101F200081E08093EB078091E307811103C081E09A
:101F30008093E307089560E070E080E89FE70895EC
:101F400060E070E080E89FE7089560E070E080E87E
:101F50009FEF089560E070E080E89FEF089560E0F3
:101F600070E080EC9FEF089560E070E080EC9FEF00
:101F70000895F5DF609351087093520880935308D9
:101F800090935408F1DF609345087093460880935E
:101F9000470890934808CFDF60934D0870934E0830
:101FA00080934F0890935008CBDF6093490870935B
:101FB0004A0880934B0890934C08C7DF60935508FC
:101FC000709356088093570890935808C3DF609326
:101FD000590870935A0880935B0890935C080895A1
:101FE000CF92DF92EF92FF92CF936B017C01AC0115
:101FF0009B0160914D0870914E0880914F0890911F
:1020000050080E946230C1E0882371F0A701960158
:102010006091550870915608809157089091580822
:102020000E9462308111C0E08C2FCF91FF90EF9021
:10203000DF90CF9008950F931F938B019C01002791
:10204000112720783F770115110520483F4749F4B3
:10205000AB01BC016F77772781E0452B462B472BDF
:1020600009F480E01F910F910895E5CF4F925F92A0
:102070006F927F928F929F92AF92BF92CF92DF9298
:10208000EF92FF920F931F93F8944090D6035090D5
:10209000D7036090D8037090D903C090CA03D09042
:1020A000CB03E090CC03F090CD03452B09F0A4C006
:1020B0009B01AC01241935094609570929013A0148
:1020C0000091D2031091D3032091D4033091D50312
:1020D00048015901840C951CA61CB71C801691065A
:1020E000A206B306A0F40091CE031091CF03209175
:1020F000D0033091D1030F5F1F4F2F4F3F4F0093FD
:10210000CE031093CF032093D0033093D10380925A
:10211000D2039092D303A092D403B092D50300913E
:10212000CE031091CF032091D0033091D103809240
:10213000DA039092DB03A092DC03B092DD030093FC
:10214000DE031093DF032093E0033093E1036093F9
:10215000D6037093D7038093D8039093D903A4EC4C
:10216000B9E0A30192010E94963B6C0D7D1D8E1D6E
:102170009F1D6093CA037093CB038093CC0390930D
:10218000CD0300916F021091700220917102309185
:1021900072020F3F1F4F2F4F3F4FF1F000916F0220
:1021A0001091700220917102309172020E3F1F4F08
:1021B0002F4F3F4F89F0C0906F02D0907002E09097
:1021C0007102F090720221E08C149D04AE04BF04F1
:1021D00008F420E02093E60378941F910F91FF907C
:1021E000EF90DF90CF90BF90AF909F908F907F90B7
:1021F0006F905F904F9008954B015C018418950893
:10220000A608B708A3019201261B370B480B590BF0
:102210006415750586059705D0F082169306A40609
:10222000B50640F420E030E0A90181149104A10436
:10223000B10491F4A4ECB9E00E94963BA701960189
:10224000261B370B480B590BCA01B901C5CF8216A3
:102250009306A406B50670F7A4ECB9E0A5019401B5
:102260000E94963B6C0D7D1D8E1D9F1DB5CFFECE31
:10227000CF93DF9300D000D0CDB7DEB71C821B8296
:102280001A8219821092E2031092E3031092E4037F
:102290001092E503BE016F5F7F4FCE0103960E944F
:1022A000242E69817A818B819C810E94142700975A
:1022B00061F4BE016F5F7F4FCE0103960E94302E06
:1022C00069817A818B819C812CD50F900F900F9022
:1022D0000F90DF91CF910895FF920F931F93CF93AB
:1022E000DF93082F60E070E0CB010E942538FF24C7
:1022F000F3940E94FF25EC01892B89F010E0CE3F7A
:102300008FEFD80769F0002361F160E070E0CB0146
:102310000E94253881E090E0892B59F322C011E01A
:1023200023D5EC01892B21F0CE3F8FEFD80759F749
:1023300011111EC011E0229609F410E00E94B02590
:10234000EC01892B21F0CE3F8FEFD807E1F6111178
:1023500011C011E0CE3F8FEFD80709F410E0011152
:102360000BC0CE01DF91CF911F910F91FF90089587
:1023700011E0E4CF11E0F3CF60E070E0CB010E9408
:1023800025381F25812F90E0C7CFCF93DF93809111
:10239000E603882321F060E070E0CB014CD635D60F
:1023A000D0E0C0E0892B71F06AE070E080E090E05E
:1023B0000E94253881E090DF28D62196C03D27E095
:1023C000D20781F727D60E9468271092FE03109249
:1023D000FD031092F7031092F8031092F903109284
:1023E000FA031092F3031092F4031092F503109283
:1023F000F6031092EF031092F0031092F103109283
:10240000F2031092EB031092EC031092ED03109282
:10241000EE031092E7031092E8031092E903109282
:10242000EA034EEF5FEF6FEF7FEF40936F02509341
:10243000700260937102709372021092E603EAEDEB
:10244000F3E028E0DF011D922A95E9F71092D60308
:102450001092D7031092D8031092D9031092D2038E
:102460001092D3031092D4031092D5031092CE038E
:102470001092CF031092D0031092D1031092CA038E
:102480001092CB031092CC031092CD03DF91CF9129
:10249000089510920A0410920B0410920C041092EA
:1024A0000D041092090480911204909113049093EA
:1024B00008048093070410920604109205041092F9
:1024C000010410920204109203041092040410926A
:1024D0000F0410920E0490E080E00895CF92DF92F6
:1024E000EF92FF920F931F93CF938C01892B09F0EA
:1024F00055C02091120430911304809107049091EB
:10250000080440911204509113045093080440931E
:1025100007042817390781F0109206041092050469
:102520001092010410920204109203041092040409
:1025300010920F0410920E048091120490911304D3
:10254000019761F580910E0490910F04892B21F47D
:1025500080917302811112C080910E0490910F043A
:102560000197E1F48091010490910204A091030489
:10257000B09104040197A105B10581F41092010402
:102580001092020410920304109204041092730239
:1025900082E090E090930F0480930E0480911204E7
:1025A00090911304019709F01CC180912804909127
:1025B00029048017910709F014C180912404909197
:1025C0002504A0912604B0912704009709F409C1BD
:1025D0002091230421110DC0409124045091250421
:1025E0006091260470912704452B462B472B09F454
:1025F000F8C020910E0430910F042230310509F00B
:10260000F0C0209105042111ECC0FC01C080D180F4
:10261000E280F38080910904882309F4D3C080917B
:10262000150490911604892B09F4FDC0209115041E
:102630003091160481E02230310509F080E02091CC
:10264000150430911604C1E02130310549F0209184
:10265000150430911604C1E02230310509F0C0E0C4
:10266000882309F456C020911F0430912004409122
:10267000210450912204C701B6010E94523287FD05
:1026800014C020911F0430912004409121045091E6
:10269000220460910A0470910B0480910C049091C3
:1026A0000D040E94623087FD22C020911F043091EA
:1026B00020044091210450912204C701B6010E94D8
:1026C0005232181634F520911F04309120044091A5
:1026D00021045091220460910A0470910B048091AE
:1026E0000C0490910D040E946230811112C08091FF
:1026F000170490911804A0911904B0911A04892B21
:102700008A2B8B2B19F481E08093060481E080935F
:102710000504CC2309F456C020911F0430912004F5
:102720004091210450912204C701B6010E946230F9
:1027300087FF14C020911F04309120044091210490
:102740005091220460910A0470910B0480910C0452
:1027500090910D040E94523287FF22C020911F04E5
:10276000309120044091210450912204C701B60108
:102770000E946230811126C020911F0430912004F4
:10278000409121045091220460910A0470910B043D
:1027900080910C0490910D040E945232181694F40A
:1027A0008091170490911804A0911904B0911A0413
:1027B000892B8A2B8B2B19F481E08093060481E00E
:1027C0008093050481E090910504911180E080934D
:1027D0000904C0920A04D0920B04E0920C04F09217
:1027E0000D04012B09F067C180910E0490910F0434
:1027F000892BD9F41092140410920504809173026D
:10280000882379F082E090E090930F0480930E0487
:1028100010927302209112043091130481E0232B53
:10282000E9F080E01BC081E00ACF10927302809132
:102830001404882349F01092060410920F04109299
:102840000E0410921404EDCF8091120490911304A1
:10285000892BE1F0809105041092050420910E046B
:1028600030910F042230310509F45EC088F421153F
:10287000310509F448C02130310509F4F3C0109244
:102880000604109205041092140438C081E0E6CFCB
:102890002330310509F4B1C02430310581F740916E
:1028A00001045091020460910304709104044115E5
:1028B00051056105710561F04150510961097109C6
:1028C0004093010450930204609303047093040442
:1028D000409101045091020460910304709104043A
:1028E000452B462B472BD9F420911004309111042D
:1028F0002130310509F046C01092060410920F04F1
:1029000010920E040CC080917302882341F082E083
:1029100090E090930F0480930E0410927302109233
:10292000FF0380910604CEC08823C9F38091170469
:1029300090911804A0911904B0911A041816190660
:102940001A061B060CF07DC08091120490911304AE
:10295000019709F076C08091170490911804A09116
:102960001904B0911A048093010490930204A09377
:102970000304B093040483E090E090930F048093E9
:102980000E04CDCF40911B0450911C0460911D0496
:1029900070911E04452B462B472BA9F0109206047C
:1029A00080911B0490911C04A0911D04B0911E0401
:1029B0008093010490930204A0930304B093040451
:1029C00081E090E0DACF882399F0809174029091B1
:1029D0007502A0917602B0917702809301049093E2
:1029E0000204A0930304B093040484E090E0C5CFF4
:1029F0001092060482E090E0C0CF80910104909193
:102A00000204A0910304B09104040097A105B1054C
:102A100059F00197A109B109809301049093020430
:102A2000A0930304B09304048091010490910204E4
:102A3000A0910304B0910404892B8A2B8B2B09F0FD
:102A40006ECF8091740290917502A0917602B09140
:102A50007702892B8A2B8B2B09F44ECF81E0809350
:102A60000604B3CF40910104509102046091030425
:102A700070910404411551056105710561F04150E3
:102A80005109610971094093010450930204609354
:102A90000304709304044091010450910204609176
:102AA000030470910404452B462B472B09F037CFC4
:102AB0008111C7CF9FCF8091FF03882309F431CFC5
:102AC00080910004CF911F910F91FF90EF90DF90C4
:102AD000CF90089510920A0410920B0410920C04E7
:102AE00010920D041092090410920F0410920E041B
:102AF00010920804109207041092290410922804DE
:102B0000109206041092050410920104109202041F
:102B10001092030410920404109200041092FF0318
:102B20001092240410922504109226041092270477
:102B30001092230410921F0410922004109221047A
:102B40001092220488EE93E0A0E0B0E0809374023B
:102B500090937502A0937602B093770210921B04B3
:102B600010921C0410921D0410921E04109217045F
:102B7000109218041092190410921A04109216045C
:102B80001092150481E08093730210921404109245
:102B9000130410921204109211041092100490E089
:102BA00080E008958091120490911304892B19F507
:102BB00080917302882351F080911404811106C022
:102BC00081E0809300048093FF0308952091140412
:102BD0003091730281E090E0332311F090E080E0C7
:102BE00030E082239323892B21F01092000481E0AE
:102BF000EACF1092FF03089582E090E0FA019183FA
:102C000080838FEF9FEF0895CF93DF93EA010097C2
:102C100011F00E9488281982188290E080E0DF91EC
:102C2000CF910895DB01009719F48FEF8C930895ED
:102C30002EEF2C930F968F30910508F033C0FC01D6
:102C4000EC5DF94E0C94813B50164E164C164A160C
:102C5000481644164616421640163E163B163716C0
:102C600033163916521680E311968C93089589E233
:102C7000FBCF82E2F9CF11961C92089583E2F4CF44
:102C800081E2F2CF81E1F0CF87E2EECF8AE2ECCFB2
:102C900080E1EACF84E2E8CF88E2E6CF86E2E4CFC3
:102CA00081E3E2CF80E2E0CF809136049091370457
:102CB00008959093370480933604089580913504E5
:102CC000089590913504892B809335040895982FA9
:102CD00090958091350489238093350408958091DF
:102CE000340408958091320490913304089561155D
:102CF000710559F0FB0130E020E070E060E024173E
:102D0000350719F06115710511F0CB010895A08107
:102D1000B181A817B90709F4BF012F5F3F4F36965D
:102D2000EECF8091380481111CC062D268D290939A
:102D30002B0480932A040E9498200E94AA2090933A
:102D40002F0480932E040E941A250E94212590931F
:102D50002D0480932C0481E08093380490E080E07F
:102D6000089584EF9FEF08958F929F92AF92BF9244
:102D7000CF92DF92EF92FF920F931F93CF93DF9347
:102D8000CDB7DEB72A970FB6F894DEBF0FBECDBF22
:102D90001A86198618861F821E821D821C821B823B
:102DA0001A8219828091380407EF1FEF882309F4F3
:102DB0009CC08E010D5F1F4F9E012B5F3F4FAE01E8
:102DC000495F5F4FBE01675F7F4F90E080E00E94E8
:102DD0009A268C01009721F00596029708F0DBC037
:102DE00029853A852115310509F402C1ED80FE805F
:102DF0004B815C81B701640F751F8F8198858617A1
:102E0000970708F4F5C0E20EF31ED7019C91903CA1
:102E100009F07FC04230510508F47BC011968C91B7
:102E20004091360450913704452B09F49CC0913FE2
:102E300008F071C02CE1290F2D3008F48BC02DE271
:102E4000290F203108F489C0903C21F48150823050
:102E500008F483C088E3890F8B3008F481C092E1C5
:102E6000C92E96E1D92EECEFF5E16D817E81AE01A0
:102E70004F5F5F4F89859A8509955C01C114D10424
:102E8000A1F189809A808114910479F18B819C81D0
:102E90008815990508F487C010E000E04B815C813B
:102EA00070E060E0C7010E94A93B01151105E9F43B
:102EB00049815A8169857A858D819E81680F791F44
:102EC000C501F6010995E980FA800D811E812F81E7
:102ED000388549855A856FEF7FEF81E090E00E9449
:102EE00036268C01892B09F056C0C8012A960FB6E8
:102EF000F894DEBF0FBECDBFDF91CF911F910F9130
:102F0000FF90EF90DF90CF90BF90AF909F908F9009
:102F1000089580E085CF30E020E0220F331FF901D3
:102F2000E65DFB4F0190F081E02D309709F497CFDB
:102F3000892F90E00995009709F491CFDC01129652
:102F4000ED91FC9113971496CD90DC90309709F099
:102F50008CCF1FC021E030E0E0CF22E030E0DDCFB9
:102F600023E030E0DACFD12CC12CE4E0F6E19F3F42
:102F700009F07BCFE0912A04F0912B04309721F4E3
:102F8000C90104EF1FEF0CC08FEF90E00995009787
:102F9000A9F604EF1FEF89859A85009709F4A5CF5C
:102FA0000E948828A2CF0E9463278C0189859A8578
:102FB0000E94882870E060E0C4010E94FC26988787
:102FC0008F830E9433269E838D836F817885611560
:102FD000710559F0C8010E94142A9A87898706EF63
:102FE0001FEF892B09F058CF59CF08EF1FEF56CFAD
:102FF00008EF1FEFD0CF20913804222319F020E0F2
:103000000C94AF2087EF9FEF089580913604909144
:10301000370408950E9426250E948024F5D0EAE214
:10302000F4E088E0DF011D928A95E9F710923804F8
:1030300090E080E008950C94DD2221E040E050E033
:10304000BA010C94AF2086E090E0FA01918380836E
:1030500090E080E0089547E050E06DEC72E047CEEC
:10306000DF92EF92FF920F931F93CF93DF938A012A
:10307000EC01C60FD71FE0903C04F0903D04D980CE
:103080000E944B27D816190678F082E090E0F801EC
:10309000918380838EEF9FEFDF91CF911F910F91EE
:1030A000FF90EF90DF900895EF2841F482E090E0E8
:1030B000F8019183808384EF9FEFEECF8981809325
:1030C0003B0490E00196F8019183808390E080E0DA
:1030D000E3CFCF93DF93EA010E948E23882321F070
:1030E0000E9458270E948F2382E090E09983888372
:1030F0008BEF9FEFDF91CF910895CF93DF93EB019B
:1031000086E0FB0111928A95E9F78FEF8883D6DD7F
:103110008983E5DD8A83E6DD9D838C83DF91CF9112
:103120000895CF93DF93EA010E949123811109C092
:1031300082E090E09983888385EF9FEFDF91CF91C4
:10314000089590E080E0B5DD81E090E09983888388
:1031500090E080E0F3CF0F931F93CF93DF93EA01CA
:103160008C01060F171F0E94912381110BC082E072
:1031700090E09983888385EF9FEFDF91CF911F9136
:103180000F910895F8018181823038F082E090E05B
:10319000998388838EEF9FEFF0CF81E090E089DD07
:1031A00088E090E09983888390E080E0E6CFCF9339
:1031B000DF930097D1F4EB01FB01329686E0DF014B
:1031C0001D928A95E9F78FEF888385E089831A82BB
:1031D0000E944B278B830E944A279D838C8381E02A
:1031E0008E838F83DF91CF910895DF91CF911ACD98
:1031F0008BE298E190933A0480933904089580918A
:10320000390490913A04089510923A0410923904C6
:10321000089580913C0490913D040895411105C0AA
:10322000611571058105910561F060933C0470930F
:103230003D0480933E0490933F044093400481E01A
:10324000089580E00895FF920F931F93CF93DF932B
:103250008A01EC01C60FD71FF9800E944B27F81690
:10326000190668F082E090E0F801918380838EEF88
:103270009FEFDF91CF911F910F91FF9008956C8187
:103280007D818E819F814B81C9DF811108C082E0E1
:1032900090E0F8019183808384EF9FEFEACF8981EA
:1032A00080933B0490E00196F8019183808390E045
:1032B00080E0DFCFCF93DF93EA01FC01E60FF71F39
:1032C00064817581868197814381A8DF811109C05E
:1032D00082E090E09983888384EF9FEFDF91CF9124
:1032E000089581E090E09983888390E080E0F6CFB4
:1032F000ECE3F4E04081518162817381480F511DFC
:10330000611D711D40835183628373830895CF9340
:10331000C0913B044C2F50E060913C0470913D04FF
:1033200001960E94A03B8C2FE3DF10923B04CF91CB
:103330000895009799F480913C0490913D042FEFFB
:10334000FB012083892B59F020913B0430E02F5F53
:103350003F4F2417350719F4CB01D9CF63CC08951B
:10336000009799F480913C0490913D042FEFFB016C
:103370002083892B59F020913B0430E02F5F3F4F91
:103380002417350719F4CB01C2CF4CCC089523E1A3
:10339000AC01249FC001259F900D1124E0914504AC
:1033A000F0914604E80FF91F23813481225031093E
:1033B00081E02230310508F080E008950F931F93DB
:1033C000CF93DF930091470410914804D0E0C0E010
:1033D00080E00C171D0749F491E0811190E0892FDE
:1033E000DF91CF911F910F9108958111F5CFCE01FB
:1033F000CEDF2196EECFA0914504B0914604109700
:1034000029F1209147043091480482179307F0F482
:1034100053E1589F9001599F300D1124A20FB31F03
:10342000ED91FC911197309789F012968C91681765
:1034300068F48BE0689FE00DF11D1124808191817B
:10344000892B21F081E09281491708F080E00895EE
:103450009C0143E1429FC001439F900D1124E091E4
:103460004504F0914604E80FF91F8385823091F4FA
:1034700081E090E0658176814091780250917902F7
:103480006417750711F490E080E0892B19F081E052
:10349000232B09F080E00895EF92FF920F931F9382
:1034A000CF93DF93EA01FC01E60FF71F028113813E
:1034B000E480F5804F2D6E2DC8019DDF81110DC078
:1034C00082E090E0998388838EEF9FEFDF91CF9128
:1034D0001F910F91FF90EF900895C80158DF882346
:1034E00039F082E090E09983888388EF9FEFEECFF8
:1034F00010937F0200937E02E0928002F09281029C
:1035000081E090E09983888390E080E0DFCFCF92E4
:10351000DF92EF92FF920F931F93CF93DF937A0185
:10352000EC01C60FD71FC0907E02D0907F020091A1
:10353000800210918102412F602FC6015CDF811152
:1035400010C082E090E0F701918380838AEF9FEFC3
:10355000DF91CF911F910F91FF90EF90DF90CF906F
:103560000895C60114DF882341F082E090E0F7015E
:103570009183808388EF9FEFEBCF4C815D816E81DB
:103580007F819A8189818F3F41F082E090E0F7014D
:10359000918380838EEF9FEFDBCFE3E1EC9D900181
:1035A000ED9D300D1124E0914504F0914604E20FA9
:1035B000F31F0190F081E02D2BE0029FE00DF11D43
:1035C00011240190F081E02D27E0129FE00DF11D04
:1035D0001124808391838B81828343835483658309
:1035E00076831F5F1093810281E090E0F701918361
:1035F000808390E080E0ACCFEF92FF920F931F9317
:10360000CF93DF937A018C01060F171FC0914504F9
:10361000D0914604209781F021E030E0F8018281CA
:10362000938140914704509148048417950710F006
:1036300030E020E0232B71F482E090E0F7019183E9
:1036400080838EEF9FEFDF91CF911F910F91FF90BD
:10365000EF90089543E1489F9001499F300D112458
:10366000C20FD31F94DE882341F082E090E0F7017F
:103670009183808388EF9FEFE6CFF8012481358125
:1036800020383105C8F687818111D6CF4181842F3A
:1036900090E08F7E009741F082E090E0F701918307
:1036A000808386EF9FEFCFCF4F833E832D8326818C
:1036B00028871986223010F421E0288721E030E0A5
:1036C000F70131832083BFCF88E090E0FA01918336
:1036D000808390E080E00895FB018FEF808381E19B
:1036E00081838FEF9FEF9383828380E890E09583BF
:1036F0008483168217820895FB018FEF808391E007
:10370000918382839383848384E3858381E090E043
:10371000978386830895DF92EF92FF920F931F9312
:10372000CF93DF93EA01FC01E60FF71F818181301F
:1037300071F082E090E0998388838FEF9FEFDF91B3
:10374000CF911F910F91FF90EF90DF9008958281AC
:103750009381D4802581E680F78000914504109103
:1037600046040115110539F482E090E099838883BD
:103770008CEF9FEFE4CF40914704509148048417A9
:10378000950738F082E090E0998388838EEF9FEF71
:10379000D6CF892B39F082E090E09983888386EF39
:1037A0009FEFCDCF8D2D8D7FB1F72130A1F781E037
:1037B000D11006C091E0E916F10431F080E004C0B8
:1037C000E2E0EE16F104D0F3882329F390E080E0E4
:1037D000DEDD882339F082E090E09983888388EFEA
:1037E0009FEFADCFF801D38681E08487F686E5862A
:1037F000108A178681E090E09983888390E080E0CA
:103800009ECF4CE050E067EF72E071CA8F929F92BA
:10381000BF92CF92DF92EF92FF920F931F93CF93BD
:10382000DF93EA01FC01E60FF71F82819381048197
:10383000B580E0914504F0914604309791F482E020
:1038400090E0998388838CEF9FEFDF91CF911F9158
:103850000F91FF90EF90DF90CF90BF909F908F904F
:10386000089520914704309148048217930738F057
:1038700082E090E0998388838EEF9FEFE6CF23E18B
:10388000289F6001299FD00C1124EC0DFD1DE080C4
:10389000F180E114F10499F28281081748F78BE076
:1038A000089F80011124E00EF11EF70180819181B3
:1038B000892B29F6BB20E1F2F7E0BF9E40011124DD
:1038C000C4010E944F28F70191838083E091450451
:1038D000F0914604EC0DFD1D0190F081E02DE00F0C
:1038E000F11F80819181009739F482E090E0998303
:1038F00088838DEF9FEFA9CFA40170E060E00E9464
:10390000A93B8091450490914604C80ED91EF6014A
:1039100080819181080F191FF801B28281E090E047
:103920009983888390E080E090CFAF92BF92CF924E
:10393000DF92FF920F931F93CF93DF93EA01FC0175
:10394000E60FF71F82819381F48000914504109166
:1039500046040115110581F482E090E09983888383
:103960008CEF9FEFDF91CF911F910F91FF90DF9030
:10397000CF90BF90AF9008952091470430914804B4
:103980008217930738F082E090E0998388838EEF66
:103990009FEFE8CF2FEF2F0D2C3FA8F723E1289FB3
:1039A0006001299FD00C11240C0D1D1DF801808190
:1039B0009181892B89F6FBE0FF9E50011124C501FE
:1039C0000E944F28F80191838083E0914504F09193
:1039D0004604EC0DFD1D80819181009739F482E051
:1039E00090E0998388838DEF9FEFBCCFA50170E0B5
:1039F00060E00E94A93BE0914504F0914604EC0D83
:103A0000FD1DF28281E090E09983888390E080E060
:103A1000A9CFCF92DF92EF92FF920F931F93CF9394
:103A2000DF93860F971FFC0102811381809145046B
:103A300090914604892B81F082E090E0FA01918315
:103A400080838CEF9FEFDF91CF911F910F91FF90BB
:103A5000EF90DF90CF900895C801B0E0A0E001970B
:103A6000A109B1098F3F9F4FA105B10540F082E048
:103A700090E0FA01918380838EEF9FEFE4CF7A018B
:103A800083E1809F6001819FD00C1124C6010E94B8
:103A90004F28EC01009741F482E090E0F701918318
:103AA00080838DEF9FEFCFCFA60170E060E00E9492
:103AB000A93BD0934604C093450410934804009357
:103AC000470490E080E02FEF3FEF41E061E070E0DD
:103AD0008017910741F481E090E0F70191838083A2
:103AE00090E080E0B0CF3A8B298B1B864C877E8795
:103AF0006D87188A1F8601966396EACFCF92DF9270
:103B0000EF92FF920F931F93CF93DF93EC01D12C91
:103B1000C12C10E000E0F12CE12C6A8170E0061766
:103B20001707BCF0660F771FAE014F5E5F4FC701EE
:103B30000E94B428009721F02FEF3FEF3A8B298B9A
:103B4000DF91CF911F910F91FF90EF90DF90CF9079
:103B50000895E881F981EC0DFD1D438154818D8527
:103B60009E85489F9001499F300D589F300D11242C
:103B7000C90101960115110519F44F8144FD049600
:103B800061E070E00E94FC26E816F90608F47C016A
:103B90000F5F1F4F8BE0C80ED11CBFCFF894209150
:103BA00043043091440481E02115310509F080E09F
:103BB000232B09F0789408952F923F924F925F92B1
:103BC0006F927F928F929F92AF92BF92CF92DF922D
:103BD000EF92FF920F931F93CF93DF933C01660EFA
:103BE000771EF301828193814C01B12CA12CC091ED
:103BF0004504D0914604209769F021E030E06091BF
:103C00004704709148048617970710F030E020E0D1
:103C1000232BD1F482E090E0FA01918380838EEF30
:103C20009FEFDF91CF911F910F91FF90EF90DF9069
:103C3000CF90BF90AF909F908F907F906F905F904C
:103C40004F903F902F90089580928202909283022D
:103C5000A0928402B092850263E1689F9001699FFF
:103C6000300D1124C20FD31FF3018181833040F046
:103C700082E090E0FA019183808386EF9FEFD1CFBD
:103C80002A012B813C81232BF1F4288139819F81EA
:103C900091FF2EC0232B09F46FC020914A049A8112
:103CA000422F490F5527551FBA0141E050E06138B6
:103CB000710514F050E040E0452B09F45DC02A87FF
:103CC000920F90934A048150823008F481C066DFDD
:103CD000882309F4D8C0F3018181813009F48DC0B3
:103CE00008F47BC0823009F4C6C090E080E0ADC02B
:103CF000232B09F441C0209149049A81E22FE90F56
:103D0000FF27FF1F41E050E0ED3FF10514F050E0C8
:103D100040E0452B89F12A87920F90934904D3CF35
:103D2000A081B181A20FB31F11966C91060F111DD6
:103D30000196295F3F4F8417950794F38D859E85E3
:103D4000089F1001099F300C189F300C1124C114DA
:103D5000D104D1F48F8184FF17C00E944A27F5E077
:103D60002F0E311C21E08215930508F420E0A701F5
:103D7000455F5F4F21110EC082E090E0F201918318
:103D8000808387EF9FEF4DCF0E944A272FEF221AA3
:103D9000320AE8CF88819981E80EF91EF701148371
:103DA0000383FFEFCF1ADF0A7A018A818C151D0485
:103DB00009F00CF48CCFE881F981EE0DFF1D4281F2
:103DC00050E030E020E010E000E090E080E0B3CF91
:103DD000F12CE12CD12CC12CE8CF81E090E09C8328
:103DE0008B83ECDA882309F480CF81E090E00E9495
:103DF000591680E40E94671678CF89899A890196BE
:103E000061F083E090E09C838B8382E090E00E94ED
:103E1000591680E40E94611668CF8D819E812091A1
:103E200078023091790282179307D1F460917C0275
:103E300070917D02AE014F5E5F4F80917A0290914A
:103E40007B020E94D3290097E1F2789422E030E0CF
:103E5000F20131832083892B99F08DEF9FEFE1CE22
:103E600089288A288B2869F6892B59F6CE0146DEE7
:103E7000188A1F86E8CF82E090E09C838B8335CF41
:103E800090E080E0CECE82E090E0F20191838083EA
:103E900085EF9FEFC6CE8F929F92AF92BF92CF9247
:103EA000DF92EF92FF920F931F93CF93DF93EA017C
:103EB0008C01060F171FF8018181833098F082E092
:103EC00090E09983888386EF9FEFDF91CF911F91D8
:103ED0000F91FF90EF90DF90CF90BF90AF909F90A9
:103EE0008F9008958091450490914604892B61F04C
:103EF00081E090E02091470430914804232B11F495
:103F000090E080E0892B39F482E090E09983888307
:103F10008EEF9FEFDACF42DE882309F4DFC0F8018D
:103F20008181813009F495C0E8F0823099F42091C4
:103F3000470430914804E0914504F091460490E034
:103F400080E041E050E02817390709F0BDC036DABB
:103F5000811117C0789481E090E09983888390E084
:103F600080E0B3CF2091470430914804E0914504AC
:103F7000F091460490E080E041E050E028173907D6
:103F800041F481E090E00E94591680E40E94671697
:103F9000E1CF63817481672B11F0548343830196D1
:103FA0007396ECCFE0914504F0914604E00FF11FC9
:103FB0002381348122303105D9F4218932892F3F80
:103FC0003F4FB1F4258136814091780250917902BA
:103FD0002417350761F5AF014F5E5F4F60917C029A
:103FE00070917D0280917A0290917B020E94D32988
:103FF000EFEFCE1ADE0AEE0AFE0A0D5E1F4F409169
:1040000047045091480470E060E0C416D506E60607
:10401000F7063CF5009731F27894892B09F49BCF91
:1040200082E090E0998388838DEF9FEF4ECFC1149B
:10403000D104E104F104E1F6232BD1F6CF015EDDDA
:10404000E0914504F0914604E00FF11F108A1786B5
:10405000CFCF10E000E090E080E0C12CD12C7601C1
:10406000CECF0097C9F610E000E0812C912C5401CE
:1040700083E0E82EF12C1AC0E0914504F09146044B
:10408000E00FF11F83819481029749F4F482E38267
:1040900082E090E00E94591680E40E946116FFEFD2
:1040A0008F1A9F0AAF0ABF0A0D5E1F4F8091470407
:1040B00090914804B0E0A0E088169906AA06BB06D5
:1040C000DCF290E080E0A8CF6381748162307105FA
:1040D00011F4548343830196739635CF82E090E0C8
:1040E0009983888385EF9FEFF0CE0097B9F48FEF27
:1040F000FB018083209182023091830243E1429F41
:10410000C001439F900D1124E0914504F0914604B5
:10411000E80FF91F8285FB01818308950C94121624
:1041200088E090E0FA019183808390E080E0089538
:104130001092440410924304E5E4F4E086E0DF01C9
:104140001D928A95E9F781E09CE190934204809367
:1041500041040895809141049091420408952F9262
:104160003F924F925F926F927F928F929F92AF9207
:10417000BF92CF92DF92EF92FF920F931F93CF9354
:10418000DF93CDB7DEB760970FB6F894DEBF0FBEF2
:10419000CDBFF894E0914304F09144043196F0933C
:1041A0004404E09343047894A0914504B0914604FC
:1041B000BA83A983109709F4FAC1E0914704F091FA
:1041C0004804EF2B09F4F3C128874B875C876D8780
:1041D0007E879A878987B88BAF87312C212CF12C69
:1041E000512C412C8091470490914804281639069F
:1041F00010F4FF2029F1F894809143049091440435
:10420000019790934404809343047894C20160968C
:104210000FB6F894DEBF0FBECDBFDF91CF911F91D7
:104220000F91FF90EF90DF90CF90BF90AF909F9055
:104230008F907F906F905F904F903F902F90089558
:10424000B10190E080E087D4682EEF85F8898781FE
:1042500081FD3DC0838194810397C9F52581368115
:104260003C832B8389859A852817390781F5C101FD
:10427000EFD8782E8823A9F1AF85B8891F968D9144
:104280009C915097019621E01D964D915C91841769
:10429000950709F020E02F83B12CA12CEF85F88938
:1042A00082818A151B0419F014F0FF20E9F0F885CB
:1042B000FF2309F46CC1AF85B88950961C921E92F9
:1042C0001F97662021F0B10190E080E046D4FFEF17
:1042D0002F1A3F0A2F8538892D5E3F4F388B2F8745
:1042E00081CFB1E0BF83D8CFBED49E838D83E885D4
:1042F000EE23E9F0772009F43CC1AF85B8891F9619
:104300008D919C91892B79F0BBE0BA9DC001BB9D3A
:10431000900D1124AF85B889ED91FC91E80FF91F3C
:1043200085819681F5D6BFEFAB1ABB0AB7CF81E086
:10433000772039F0EF85F88927853089232B09F01C
:1043400080E0F82EE12CA114B10439F4AF85B889CE
:104350001796EC90E4FAEE24E0F8BBE0BA9D600119
:10436000BB9DD00C1124882309F424C1AF85B889E2
:10437000ED91FC911197EC0DFD1D438154811D962B
:104380002D913C91429FC001439F900D529F900DF3
:104390001124E1105DC001969087878361E070E091
:1043A0008781908529D5EF85F88921893289008117
:1043B00011810C0D1D1D2F3F320709F44BC0BC01AC
:1043C000C9010E94142AD80116969C938E931597C2
:1043D000AF85B889ED91FC911197EC0DFD1D05811C
:1043E00016810115110509F4CDC0ED81FE810E0F76
:1043F0001F1F1A968C918A0DD8018C93E1102FC043
:104400000F5F1F4FAF85B889ED91FC91EC0DFD1D3D
:1044100012870187AF85B889ED91FC91EC0DFD1DE8
:1044200085819681892B09F4A4C0809178029091AE
:1044300079022B813C812817390709F465C0772060
:1044400011F001851285912C812C1A8219824AC0A3
:104450000596A2CF24D6F80196838583B9CF8B85A4
:104460009C85AD85BE85F80181839283A383B48347
:104470000B5F1F4FC7CFE080F180E80CF91CD7011C
:1044800013966D917C9114978C918F3F09F473C0B2
:10449000E1E0F0E002C0EE0FFF1F8A95E2F7CF01E6
:1044A000092E000CAA0BBB0BFB01408151816281DC
:1044B000738184239523A623B72321E0892B8A2B9C
:1044C0008B2B09F420E0D8012C93D70111968C9105
:1044D000080F111DE981FA813196FA83E983F7E02B
:1044E0008F0E911CAF85B889ED91FC91EC0DFD1DEF
:1044F000828129813A818217130611F00CF0BBCF1B
:10450000772011F0128701873F81332391F1AF8526
:10451000B889ED91FC91EC0DFD1D61E070E08781A3
:1045200090856AD4AF85B889ED91FC91EC0DFD1DA5
:10453000E780F08445815681E1E0F0E0662011F0EB
:10454000F0E0E0E00D811E819C01B10188279927F0
:104550008E1B9F0B8BD32C01892B59F0EF85F8898B
:1045600080819181C80ED91ED60115968D919C919E
:10457000CFD5F12CD8CEF701418150E0C8010E947F
:10458000A03BA3CF86EF482E55245A94CCCEEF857E
:10459000F889878590890196908B87872585368550
:1045A0008217930709F08DCE108A17868ACE512C78
:1045B000412C21CE10E000E02DCF2F923F924F9260
:1045C0005F926F927F928F929F92AF92BF92CF92A3
:1045D000DF92EF92FF920F931F93CF93DF9380911F
:1045E00045049091460410E000E0892BA9F0D6DA4A
:1045F0000AEF1FEF882381F0209047043090480491
:10460000C0914504D0914604D12CC12C10E000E0AB
:104610002C143D04A9F47894C801DF91CF911F9127
:104620000F91FF90EF90DF90CF90BF90AF909F9051
:104630008F907F906F905F904F903F902F90089554
:10464000C6010E94281A882309F18B819C81039757
:10465000E9F48F859889892BC9F0B60190E080E054
:104660007AD221E030E0882311F030E020E04424C9
:104670005524421A530AB12CA12C912C812C8A81E9
:104680008815190409F038F4188A1F864FEFC41AE8
:10469000D40A6396BDCFE881F981EA0DFB1D8581BF
:1046A0009681892BA1F161E070E087819085A4D388
:1046B0003C01D9D28C01E881F981EA0DFB1D81858D
:1046C000928525813681200F311FAC01421B530B8F
:1046D0009A0147815085421B530B70E060E00E94B5
:1046E000A93BE881F981EA0DFB1DE780F084458153
:1046F00056819301B601C201B9D28C01892B39F0E0
:10470000E881F981EA0DFB1D8581968101D55FEF76
:10471000851A950A8BE0A80EB11CB1CF3FCA7894D8
:1047200008952F923F924F925F926F927F929F9245
:10473000AF92BF92CF92DF92EF92FF920F931F93AF
:10474000CF93DF9300D000D000D0CDB7DEB700917B
:10475000450410914604992493940115110509F418
:104760003EC0A0904704B090480418DA982E8823E1
:10477000B1F1109246041092450410924804109230
:1047800047041092490410924A048FEF9FEFDC0116
:104790008093820290938302A0938402B093850257
:1047A00078947AD31E830D83C12CD12C7601C50158
:1047B000B0E0A0E089839A83AB83BC8322242A944F
:1047C000322C89819A81AB81BC81C816D906EA0650
:1047D000FB06F4F0C8019CD480E40E946716892D82
:1047E00026960FB6F894DEBF0FBECDBFDF91CF91F6
:1047F0001F910F91FF90EF90DF90CF90BF90AF90FF
:104800009F907F906F905F904F903F902F90089572
:10481000AD81BE8115968D919C911697209178025D
:104820003091790282179307D1F451968D919C9122
:10483000E9D5ED81FE8180819181B12CA12C412CA3
:10484000512C3201892B89F5BFEFCB1ADB0AEB0A19
:10485000FB0AED81FE817396FE83ED83B2CFC11416
:10486000D104E104F10429F7892B19F7ED81FE81C8
:10487000818992898F3F980709F024D5AD81BE8147
:1048800052963C922E925197D4CF8A0D9B1DDC01FB
:104890008D919C91009709F03BD4BFEF4B1A5B0AB6
:1048A0006B0A7B0AEBE0AE0EB11CAD81BE818D912F
:1048B0009C91119712964C9150E070E060E0441684
:1048C0005506660677060CF323D4BECFCF93DF934D
:1048D000EA0127DF811109C082E090E09983888393
:1048E00085EF9FEFDF91CF91089581E090E00E94E6
:1048F000591681E090E09983888390E080E0F2CFC0
:1049000010DF1092420410924104089542E050E0FA
:104910006FE373E00C947716FF920F931F93CF937E
:10492000DF938A01EC01C60FD71FF980B4D2089734
:10493000F816190671F068F082E090E0F8019183B2
:1049400080838EEF9FEFDF91CF911F910F91FF90AA
:1049500008956C817D818E819F814B810E940E190B
:10496000811108C082E090E0F8019183808384EF98
:104970009FEFE9CFF9800E9409194F2D50E0BE0149
:10498000685F7F4F0E94A03B89810E94781981E077
:1049900090E0F8019183808390E080E0D4CFDF92B3
:1049A000EF92FF920F931F93CF93DF938A01EC0155
:1049B000C60FD71F0E9409197C01D9806CD2DD2057
:1049C00059F0029721E030E0D816190619F010F0DE
:1049D00030E020E0232B79F482E090E0F80191832D
:1049E00080838EEF9FEFDF91CF911F910F91FF900A
:1049F000EF90DF900895EF2841F482E090E0F80115
:104A00009183808384EF9FEFEECFF9800E94091994
:104A10004F2D50E0BE016E5F7F4F0E94A03B898109
:104A20000E94781981E090E0F8019183808390E002
:104A300080E0D9CF86E894E290934C0480934B04B5
:104A4000089580914B0490914C0408950895FC01C1
:104A500011821082938382830895DB011D921C9240
:104A6000DC011296ED91FC9113977183608313968C
:104A70007C936E9312970895FC0180819181DB01F4
:104A80008D939C93A081B181109741F08D919C9161
:104A900091838083892B11F4F383E2830895FC01D1
:104AA00080819181DB018D939C93892B11F4738319
:104AB0006283718360830895FC0111821082938365
:104AC00082830895CF93DF9300D0CDB7DEB71A82EB
:104AD0001982F894BE016F5F7F4F82E594E0CCDFCE
:104AE00089819A81009709F013D389819A81892B52
:104AF00089F7BE016F5F7F4F86E594E0BDDF898156
:104B00009A81009709F004D389819A81892B89F7CA
:104B100078940F900F90DF91CF910895CF93DF930A
:104B200000D0CDB7DEB71A821982F894BE016F5F4C
:104B30007F4F8EE494E0A0DF89819A81009709F08D
:104B4000E7D289819A81892B89F778940F900F9009
:104B5000DF91CF91089581E0089590E080E008957D
:104B6000EF92FF920F931F93CF93DF9300D0CDB7B7
:104B7000DEB71A82198280914D0407EF1FEF882358
:104B8000A1F1F894BE016F5F7F4F86E594E074DF7A
:104B9000789489819A81EE24E394F12C892B51F445
:104BA000F894BE016F5F7F4F82E594E065DF7894F3
:104BB000F12CE12C89819A810EEF1FEF0097A9F06B
:104BC000FC014281538164E070E072D68C01892B34
:104BD00061F0F89469817A81C701880F991F880F65
:104BE000991F8E5A9B4F5BDF7894C8010F900F90EE
:104BF000DF91CF911F910F91FF90EF9008950F9348
:104C00001F93CF93DF9300D000D0CDB7DEB71C82C7
:104C10001B821A82198280914D0407EF1FEF8823AF
:104C2000C1F0AE014D5F5F4F64E070E0CE010196D0
:104C3000B2D68C01892B69F4E981FA818B819C8140
:104C400093838283F89469817A818EE494E005DF0E
:104C50007894C8010F900F900F900F90DF91CF9133
:104C60001F910F910895B7D7049608958F929F9240
:104C7000AF92BF92CF92DF92EF92FF920F931F936A
:104C8000CF93DF9300D0CDB7DEB71A821982BC0173
:104C90006F5F7F4F6330710598F0AA24AA94BA2CF5
:104CA000C5010F900F90DF91CF911F910F91FF9051
:104CB000EF90DF90CF90BF90AF909F908F9008952E
:104CC0004115510551F3480159018A016C01CBDFAF
:104CD0008815990511F7E114F104F9F28E0D9F1D65
:104CE000A816B906D0F280914D048823F1F0F8940B
:104CF000B501645071099701AE014F5F5F4FC80164
:104D00000496DED65C01892B71F489819A81F801C1
:104D100093838283C601880F991F880F991FB8015A
:104D20008E5A9B4F9ADE7894BBCF87EFA82EBB2478
:104D3000BA94B6CFAF92BF92CF92DF92EF92FF922A
:104D40000F931F93CF93DF9300D0CDB7DEB71A82B6
:104D50001982892B09F047C06115710509F443C018
:104D60004115510509F43FC02115310509F43BC037
:104D700001151105C1F180914D048823B9F1790124
:104D80006A015B01F894BE016F5F7F4F8EE494E08F
:104D900073DE789489819A81009759F1DC0112962B
:104DA0006D917C91A8010496A4D68C01E981FA81C9
:104DB000D501ED93FC93828193810496F601918352
:104DC000808351DFD7018D939C93C8010F900F9082
:104DD000DF91CF911F910F91FF90EF90DF90CF90D7
:104DE000BF90AF9008950FEF1FEFEFCF07EF1FEFCA
:104DF000ECCF0EEF1FEFE9CFCF93DF93EC01672BE2
:104E000071F4F2D68C179D0760F0E5D62496C80F92
:104E1000D91FE4D68C0F9D1FDF91CF910895E1D665
:104E2000F1CF90E080E0F8CF0F931F93CF93DF9303
:104E300020914D0421112BC08B01EC0182E594E0FF
:104E400006DE86E594E003DE8EE494E000DE97D093
:104E50000097C1F4C9D670E060E0CEDF46E852E0CA
:104E600062E070E081D1009769F4809186029091B0
:104E70008702CCD6B801CE0101D5009719F421E004
:104E800020934D04DF91CF911F910F91089584EFEE
:104E90009FEFF8CFA6C6A8C6CF93DF93A8D6EC01A4
:104EA000892B11F40FDE3ADECE01DF91CF91089508
:104EB000CF93DF939CD6EC01892B09F403DECE015E
:104EC000DF91CF9108958091860290918702089595
:104ED000CF93DF9380914D04D0E0C0E08823D1F0E0
:104EE0009AD6EC01892BB1F4EDDD18DE80918602B3
:104EF00090918702E7D1E8D2EC01892B59F482E541
:104F000094E0DADD86E594E0D7DD8EE494E0D4DD4C
:104F100010924D04CE01DF91CF910895EF92FF9250
:104F20000F931F93CF93DF93EC017A018B010F5FF7
:104F30001F4F0E9DA0010F9D500D1E9D500D112461
:104F400070E060E00E94A93B90E080E0F0E0E0E0EB
:104F50002FEFE816F90639F4DF91CF911F910F91E9
:104F6000FF90EF9008951A8219822883309711F0EC
:104F7000D283C1830196FE01C00FD11FEACFCF9229
:104F8000DF92EF92FF920F931F93CF93DF9306E789
:104F900015E00C7F43E050E068E872E08EE892E0B4
:104FA0001AD488E8E82E82E0F82E9EE8C92E92E016
:104FB000D92EC5EFD5E0D7014D915D917D01F60168
:104FC000619171916F01198308835D834C835B83C9
:104FD0004A837F836E839B012F5F3F4F249FC001D5
:104FE000259F900D349F900D112499878887011576
:104FF000110511F0C80192DF88859985080F191FE6
:105000002A96FEE8EF16F2E0FF06A9F6ECE5F4E0DA
:1050100087E191E0DF019C011D9221503040E1F7D2
:1050200010925B0410925A04109214061092130608
:105030001092180610921706109216061092150676
:1050400010921A061092190610921C0610921B0656
:1050500010921E0610921D06109222061092210632
:105060001092200610921F0610922406109223061A
:1050700010922606109225061092F2051092F10564
:105080001092F4051092F30590E080E0DF91CF914B
:105090001F910F91FF90EF90DF90CF9008950097B0
:1050A000F1F0F894AEE8B2E0E5EFF5E030E020E0B2
:1050B0004D915D9148175907A8F0428153814115E0
:1050C000510581F08AE0829FF001839FF00D112449
:1050D000EB50FA4F80819181009759F4789490E0D9
:1050E00080E008952F5F3F4F3A962330310501F756
:1050F000F5CFDC0111966D917C91718360834150F5
:10510000510953834283FC012193CF017894089580
:10511000009749F1DC018E91853041F4E091F3056F
:10512000F091F4053097F9F0CD0109948530D8F469
:10513000282F30E0F8948FEF8C938AE0829FF00163
:10514000839FF00D1124EB50FA4F808191811296CC
:105150009C938E931197B183A08382819381019652
:105160009383828378940895CF92DF92EF92FF9297
:105170000F931F93CF93DF939C018FE594E08C7F77
:105180004115510509F49BC02115310509F497C05B
:105190006115710509F493C07A01AB01B9016D5F26
:1051A0007F4F6C7F9B012F5F3F4F249F8001259F86
:1051B000100D349F100D1124F89420911306309196
:1051C0001406232B59F420911B0630911C0621153F
:1051D000310569F12017310708F058C020911D06EC
:1051E00030911E06232B91F420911B0630911C0652
:1051F000820F931F20912506309126062115310537
:1052000009F441C02017310708F056C07894CFEF59
:10521000DFEF86EF9FEFF701D183C083DF91CF915E
:105220001F910F91FF90EF90DF90CF900895C3E012
:10523000D0E0C0905A04D0905B0424E131E02C19F6
:105240003D092017310710F32AE02C9FF0012D9F14
:10525000F00D1124EB50FA4F9183808355834483E2
:10526000538342837783668311870087009709F011
:1052700055DE0C0D1D1D10935B0400935A047894A9
:1052800090E080E0C8CFC4E0D0E0D3CFC3E0D0E06E
:105290002AE02C9FF0012D9FF00D1124EB50FA4FC6
:1052A00091838083558344835383428377836683CA
:1052B000009729F333DEE3CFC4E0D0E0E9CF8FEFEE
:1052C0009FEFACCF9C010397029708F069C0F89458
:1052D00084E09AE0482F50E0241735070CF44DC0C5
:1052E00091E08AE0829FF001839FF00D1124EB5042
:1052F000FA4F118210821582148213821282178251
:1053000016829923B1F18091130690911406892B8E
:10531000A9F420911B0630911C062115310571F06E
:1053200080915A0490915B04821B930B90935B04D1
:1053300080935A0410921C0610921B0680911D0641
:1053400090911E06892BA9F42091250630912606FE
:105350002115310571F080915A0490915B04821BF4
:10536000930B90935B0480935A041092260610923C
:105370002506789490E080E00895949FF001959F31
:10538000F00D1124EB50FA4F40815181452B31F43F
:1053900040855185452B11F481509CCF90E0A1CFE1
:1053A0008FEF9FEF08954115510549F1009739F1AD
:1053B0006115710521F1F8942091F1053091F20504
:1053C000232BB9F42091F3053091F405232B89F4B4
:1053D0009093F2058093F1057093F4056093F305C3
:1053E000789425E030E090E080E0FA01318320837A
:1053F000089578942FEF3FEF86EF9FEFF6CF8FEF72
:105400009FEF0895059769F4F8941092F2051092B1
:10541000F1051092F4051092F305789490E080E085
:1054200008958FEF9FEF08956115710519F4F0E06D
:10543000E0E011C08530910581F4E091F105F09133
:10544000F2053097A1F3CB0101960995009779F306
:10545000FC0185E08193CF0108959C01235031091F
:105460002230310520F72AE0289FD001299FB00D76
:105470001124AB50BA4F2D913C911197232BB9F2C7
:1054800016962D913C9117972617370780F2F894BE
:1054900012962D913C9113972115310529F0ED912C
:1054A000FC911197309711F47894C1CF41815281CA
:1054B00011965C934E932150310913963C932E9391
:1054C000129781937894C7CFE3E7F5E08EE7DF0189
:1054D0001D928A95E9F7ECE5F4E087E191E0DF01C0
:1054E0009C011D9221503040E1F710925B04109214
:1054F0005A04E5EFF5E082E3DF011D928A95E9F7B2
:10550000E1EFF5E084E0DF011D928A95E9F790E094
:1055100080E00895CF93DF93C0919402D0919502DB
:10552000CF3FDC0759F410D49093950280939402F6
:1055300097FF09C0D0939502C093940284EF9FEF28
:10554000DF91CF91089590E080E0FACF823091050D
:1055500028F48093270690E080E008958FEF9FEF76
:1055600008954F925F926F927F92AF92BF92CF92C7
:10557000DF92EF92FF920F931F93CF93DF9300D0B0
:10558000CDB7DEB71A821982009709F479C0611588
:10559000710509F475C0209194023091950207EFCE
:1055A0001FEF2F3F3F4F09F445C06B015C01412CB9
:1055B000512C3201F12CE12C10E000E09E012F5F14
:1055C0003F4FA6014E195F09B5016E0D7F1D8091F9
:1055D0009402909195021CD4892B09F04BC08981CB
:1055E0009A81009741F4E114F10429F420912706EF
:1055F000222309F442C0E80EF91EEC14FD04D0F495
:1056000080E8481684E858068EE16806710420F5A3
:1056100060E070E0CB010E9425382AE0420E511C68
:10562000611C711C0A3F4FEF140721F0043F8FEFFC
:105630001807A1F4C8010F900F90DF91CF911F912F
:105640000F91FF90EF90DF90CF90BF90AF907F9041
:105650006F905F904F90089501EF1FEF81E090E011
:10566000013F2FEF120711F090E080E0892B09F441
:10567000A5CFE0CF04EF1FEFDDCF0AEF1FEFDACFAA
:105680000FEF1FEFD7CF4F925F926F927F92AF9243
:10569000BF92CF92DF92EF92FF920F931F93CF931F
:1056A000DF9300D0CDB7DEB71A821982009709F4D4
:1056B00079C06115710509F475C02091940230918B
:1056C000950207EF1FEF2F3F3F4F09F445C06B01D5
:1056D0005C01412C512C3201F12CE12C10E000E056
:1056E0009E012F5F3F4FA6014E195F09B5016E0D58
:1056F0007F1D80919402909195023DD3892B09F0F2
:105700004BC089819A81009741F4E114F10429F496
:1057100020912706222309F442C0E80EF91EEC145A
:10572000FD04D0F480E8481686E9580688E9680642
:10573000710420F560E070E0CB010E9425382AE07A
:10574000420E511C611C711C0E3F4FEF140721F0DB
:10575000043F8FEF1807A1F4C8010F900F90DF915D
:10576000CF911F910F91FF90EF90DF90CF90BF905E
:10577000AF907F906F905F904F90089502EF1FEF72
:1057800081E090E0023F2FEF120711F090E080E0FF
:10579000892B09F4A5CFE0CF04EF1FEFDDCF0EEF8B
:1057A0001FEFDACF0FEF1FEFD7CF809194029091C8
:1057B00095028F3F980749F0BED2892B49F48FEFAD
:1057C0009FEF909395028093940290E080E008957B
:1057D00084EF9FEF0895CF92DF92EF92FF920F93A5
:1057E0001F93CF93DF9321E04115510509F020E08D
:1057F0004150510921112CC0DC01FB01D12CC12CDD
:1058000021E022C03FEFC31AD30A7D010D911D9103
:10581000E701EA80FB80E016F106A8F420813181DF
:10582000E280F380F182E08233832283ED90FC906A
:1058300011979D0122503109E901F982E882119600
:105840001C930E9320E03296C416D506D8F2D2CF20
:10585000DF91CF911F910F91FF90EF90DF90CF904C
:105860000895FC01680F791F90E080E0E617F707C4
:1058700009F408952191820F911DF8CF20912806F7
:10588000211113C047DE009791F410922E0610925A
:105890002D0610922C0610922B0610922A061092BA
:1058A000290621E020932806089584EF9FEF0895AC
:1058B000AF92BF92CF92DF92EF92FF920F931F931E
:1058C000CF93DF93009709F460C04630510508F488
:1058D0005CC020912806C7EFDFEF222309F449C0FE
:1058E0008C01060F171FF801C080D180C114D104AC
:1058F00009F44EC096012A5F3F4F4217530708F440
:1059000047C07C0180912D0690912E06938382835F
:10591000B6016C5F7F4F5801A60EB71EC801A1DF0C
:10592000F5019183808364E070E0C8011ADEEC0128
:10593000892BF9F481E090E009DEB601C8010496F4
:1059400010DEEC01892B91F462E070E0C50109DE04
:10595000EC01892B59F4C701DBDB80912D06909176
:105960002E06019690932E0680932D0690E080E0FF
:10597000EDDDCE01DF91CF911F910F91FF90EF9060
:10598000DF90CF90BF90AF900895CFEFDFEFF1CFD2
:10599000C9EFDFEFEECF6F927F928F929F92AF921F
:1059A000BF92CF92DF92EF92FF920F931F93CF930C
:1059B000DF9300D000D0CDB7DEB7009709F47AC0EE
:1059C0004115510509F476C02091280607EF1FEF15
:1059D000222309F44DC03A017B015C0164E070E0D0
:1059E000CE01019650DE8C01892B09F041C009815E
:1059F0001A810115110509F45AC0480186E0880E84
:105A0000911CB701680D791D8091960290919702C3
:105A10000BDD6C01009709F450C0A70170E060E055
:105A20000E94A93B89819A81AB81BC81EC0CFD1C51
:105A3000F70181939193A193B1937F0181E090E06D
:105A400085DDB801C7011FDE892B31F562E070E00A
:105A5000C701800F911F17DE8C01892BE9F490E0BC
:105A600080E074DDF501D182C082F30191828082F1
:105A7000C8010F900F900F900F90DF91CF911F9161
:105A80000F91FF90EF90DF90CF90BF90AF909F90DD
:105A90008F907F906F90089590E080E057DDF50142
:105AA00011821082F30111821082C60131DB09EFED
:105AB0001FEFDECF0FEF1FEFDBCF06EF1FEFD8CFCB
:105AC0000097A1F04115510589F02115310571F0BC
:105AD000F90136966E177F0748F0DC012D933C9351
