:1000000024C1000053C1000051C100004FC10000D5
:100010004DC100004BC1000049C1000047C10000B4
:1000200045C1000043C1000041C100003FC10000C4
:100030003DC100003BC1000039C1000037C10000D4
:1000400035C1000033C1000031C100002FC10000E4
:100050002DC100002BC1000029C100000C942243D7
:1000600025C100000C94F6460C942C471FC10000DB
:100070001DC100001BC1000019C1000017C1000014
:1000800015C1000013C1000011C100000FC1000024
:100090000C9482470C94B84709C100000C940142AB
:1000A00005C1000003C1000001C10000FFC0000045
:1000B000FDC00000FBC00000F9C00000F7C0000058
:1000C000F5C00000F3C000000C948C380C940E486E
:1000D0000C944448EBC000000C949A480C94D0480F
:1000E000E5C0000005A84CCDB2D44EB93836A902FF
:1000F0000C50B9918688083CA6AAAA2ABE00000026
:10010000803F028988083EABAAAAAABE00000080F0
:100110003F07634236B79BD8A71A39685618AEBA5C
:10012000AB558C1D3CB7CC5763BD6DEDFD753EF6F0
:10013000177231BF000000803F0000000A0B020967
:100140000C0D0E0807030401000000000000000071
:10015000000000000000000000000000000000009F
:10016000000000000000121110000000000000005C
:10017000000000000000000000000000000000007F
:1001800001021020200808102040102040800201A9
:10019000020108040201010204081020408080408E
:1001A000201008040201800402018040201008048D
:1001B000020108040201010204081020408001022B
:1001C00004081020408005050505070508080808F3
:1001D000020202020A0A08080404040401010101DF
:1001E00001010101030303030303030304070707DA
:1001F0000C0C0C0C0C0C0C0C02020202060606067F
:10020000060606060B0B0B0B0B0B0B0B000022005C
:10021000250028002B002E003100340002010000D0
:10022000050108010B0100002100240027002A001D
:100230002D003000330001010000040107010A0114
:100240006C3F5547E1476D48F94811241FBECFEF79
:10025000D1E2DEBFCDBF00E00CBF15E0A0E0B2E010
:10026000E2E5F3E900E00BBF02C007900D92A43372
:10027000B107D9F72EE0A4E3B5E001C01D92A53186
:10028000B207E1F711E0C5E2D1E000E006C0219736
:100290000109802FFE010E947649C032D10780E01B
:1002A0000807A9F70E947F390C94A749A9CECF92DD
:1002B000DF92EF92FF926B017C01C114D104E10443
:1002C000F10469F480910002811109C08091020259
:1002D000909103020E94DD3E81E080930002C601FE
:1002E000880F991F880F991F80509E4FFF90EF90A5
:1002F000DF90CF900895009781F0FC0121812111BA
:1003000004C040EA56E861E070E0FC01828193811C
:100310000E94EC3E90E080E0089588E090E008952F
:100320004F925F926F927F928F929F92AF92BF9205
:10033000CF92DF92EF92FF920F931F93CF93DF93B1
:100340000097C9F1280139017A01EC01402F8A8117
:100350009B810E946A3F8A819B81DC01ED91FC9127
:100360000084F185E02D1995892B01F16701812C1D
:10037000912C54018A819B81DC01ED91FC910084D8
:10038000F185E02D1995892B91F184149504A6042B
:10039000B70469F18A819B81DC01ED91FC910284B3
:1003A000F385E02D19958F3F9807C1F484E0F7019C
:1003B00011928A95E9F788E090E0DF91CF911F9143
:1003C0000F91FF90EF90DF90CF90BF90AF909F90F4
:1003D0008F907F906F905F904F900895FFEF8F1AEE
:1003E0009F0AAF0ABF0AD6018D936D01C3CF90E07B
:1003F00080E0E3CF8F929F92AF92BF92CF92DF9235
:10040000EF920F931F93CF93DF930097F1F06A0160
:10041000EC018A819B810E94EF3E8A819B81DC01F5
:10042000ED91FC910280F381E02DA801B6011995B0
:100430008A819B8160E0E11001C061E00E94F93E89
:10044000882389F08250823088F088E090E0DF9144
:10045000CF911F910F91EF90DF90CF90BF90AF9011
:100460009F908F90089590E080E0F1CF84E090E03D
:10047000EECF0895611102C00C9463456130E1F341
:1004800062E0FACF662319F061E00C949F4560E0CA
:10049000FCCFCF92DF92EF92FF92CF93882351F15E
:1004A0006A017B01CFEFC80F20E030E0A901CB014A
:1004B000B6010E94883A87FF11C0C701B601905863
:1004C0000E94FC3A9B01AC016C2F70E090E080E050
:1004D000CF91FF90EF90DF90CF90B2C0C701B601EF
:1004E0000E94F73A8C2FCF91FF90EF90DF90CF9042
:1004F0000C942944CF91FF90EF90DF90CF90089516
:100500000F931F938B019C0183E0369527951795D8
:1005100007958A95D1F70C5C1A4F462F477021E05A
:1005200030E0F90102C0EE0FFF1F4A95E2F7AF017C
:10053000F80120812423CB010196211102C090E013
:1005400080E01F910F9108950F931F938B019C01E1
:1005500083E036952795179507958A95D1F76770AB
:1005600081E090E001C0880F6A95EAF7F801EC5C41
:10057000FA4F2081452B31F48095822380831F918F
:100580000F910895822BFACF2F923F924F925F9254
:100590006F927F928F929F92AF92BF92CF92DF9293
:1005A000EF92FF920F931F93CF93DF93D62EC72E18
:1005B000782E692E49015A01280161E08D2D0E9493
:1005C0006345CD2DDC2D8E010F5F1F4FA8016D2DD2
:1005D0007C2D872D962DB8DF20E030E0A901C201E7
:1005E000B7010E94B43C181664F4C201B7010E941E
:1005F000FC3A2B01C501B4010E94FC3AA201CE01D4
:1006000023D0C801DF91CF911F910F91FF90EF9000
:10061000DF90CF90BF90AF909F908F907F906F9022
:100620005F904F903F902F900895882341F0815024
:10063000682F70E090E080E050E040E085CF0895C2
:10064000862FB9010C9429449C01FC01E65CFE4F05
:10065000E491E150E231E0F4F0E08827ED5CFC4FFA
:100660008F4F0C94764945034C034F0366037B037D
:10067000480390039C03A003B703CC03E103F803F2
:100680000D044803220439044E0484B5806884BDF7
:1006900060E0822F0C949F4584B58062F8CF8091F2
:1006A00080008C7F82608093800080918100807EBA
:1006B0008061682B6093810050938700409386008F
:1006C00080918000806880938000E2CF80918000DC
:1006D0008C7F82608093800080918100807E806129
:1006E000682B60938100509387004093860080912F
:1006F00080008062E8CF809180008C7F8260809350
:10070000800080918100807E8061682B60938100F1
:100710005093870040938600809180008860D3CFFB
:100720008091B00080688093B0008091B100887F94
:10073000682B6093B100ACCF8091B0008062F3CFA2
:10074000809190008C7F82608093900080919100D6
:10075000807E8061682B6093910050939700409356
:1007600096008091900080688093900091CF809156
:1007700090008C7F82608093900080919100807EB9
:100780008061682B6093910050939700409396008E
:10079000809190008062E8CF809190008C7F826091
:1007A0008093900080919100807E8061682B60939F
:1007B000910050939700409396008091900088603C
:1007C000D3CF8091A0008C7F82608093A000809125
:1007D000A100807E8061682B6093A1005093A700E8
:1007E0004093A6008091A00080688093A00050CF25
:1007F0008091A0008C7F82608093A0008091A100F6
:10080000807E8061682B6093A1005093A700409385
:10081000A6008091A0008062E8CF8091A0008C7F2C
:1008200082608093A0008091A100807E8061682B0F
:100830006093A1005093A7004093A6008091A00070
:100840008860D3CF809120018C7F826080932001CB
:1008500080912101807E8061682B609321015093FB
:100860002701409326018091200180688093200118
:100870000FCF809120018C7F826080932001809136
:100880002101807E8061682B6093210150932701B4
:1008900040932601809120018062E8CF8091200161
:1008A0008C7F82608093200180912101807E806115
:1008B000682B60932101509327014093260180917A
:1008C00020018860D3CF90E080E008950F931F93BC
:1008D000009709F489C06115710509F485C000917C
:1008E00053041091540420915504309156040E3F46
:1008F0001F4F2F4F3F4F09F068C04FEF5FEFBA0116
:1009000040935304509354046093550470935604D9
:1009100040915304509154046091550470915604D1
:10092000DC011296ED91FC9180819181A281B381CD
:100930008093570690935806A0935906B0935A0691
:1009400084819581A681B781809353069093540644
:10095000A0935506B093560680859185A285B385F0
:1009600080934F0690935006A0935106B093520681
:1009700084859585A685B78580934B0690934C0614
:10098000A0934D06B0934E0610924706109248066B
:100990001092490610924A060E94771C8CE99CE14D
:1009A00090933E0580933D059093400580933F05CD
:1009B0000E94661B009731F421E030E030935C0622
:1009C00020935B061F910F9108950091530410919D
:1009D00054042091550430915604DB010D931D936E
:1009E0002D933C93139794CF8FEF9FEFEBCF8F9284
:1009F0009F92AF92BF92CF92DF92EF92FF921F939E
:100A0000CF93DF934B015C0110915E0682E090E092
:100A100090935C0680935B0681149104A104B10459
:100A200041F480915E06811104C080915D06C1E0B1
:100A30008111C0E0C12CD12C760180915E0681111C
:100A400006C080915D06811102C0CC23D9F083E0FD
:100A500090E090935C0680935B06CC2381F1CCE917
:100A6000DFEF111102C00E940120CE01DF91CF9172
:100A70001F91FF90EF90DF90CF90BF90AF909F902D
:100A80008F9008956AE070E080E090E00E949143CA
:100A900080E1C80E87E2D81EE11CF11C8FEF88169A
:100AA0009806A806B80631F0C1E08C149D04AE0487
:100AB000BF0408F0C0E080E00E949A1BBECFD0E0E7
:100AC000C0E0CFCFCF92DF92EF92FF920F931F93B0
:100AD000CF93DF938F3F910511F008F051C0209123
:100AE0005B0630915C062330310539F020915B06BE
:100AF00030915C062130310531F424E030E0309350
:100B00005C0620935B066A017B01EC018230910553
:100B1000A8F011E0AE01C701B6010E94651BAB0150
:100B2000BC01CE011123F9F0DF91CF911F910F91FC
:100B3000FF90EF90DF90CF900C942A228C01000F51
:100B4000111F035C1A4FD8018D919C91892B09F3D9
:100B50000E9434220297E9F6D801ED91FC91CE0172
:100B60001995182FD7CF0E944C2290E080E0DF919A
:100B7000CF911F910F91FF90EF90DF90CF9008954C
:100B80008FEF9FEFF4CF80E00C949A1BCF93DF930D
:100B900086E090E090935C0680935B060E94F31BD6
:100BA000EC01EDE3F5E084E0DF011D928A95E9F7C1
:100BB0000E94991F10925C0610925B06CE01DF9195
:100BC000CF91089580915D0608958091460608951D
:100BD0006093530470935404809355049093560487
:100BE00090E080E00895CF92DF92EF92FF926B0148
:100BF0007C019F7720E030E040E859E50E94883A88
:100C000087FF2BC020E030E040E05FE3C701B60182
:100C10000E94B43C87FD0EC020E030E040E05FE37E
:100C2000C701B6010E94113AFF90EF90DF90CF907C
:100C30000C94653B20E030E040E05FEBC701B6017B
:100C40000E94B43C181684F420E030E0A901C701EA
:100C5000B6010E94B83C6B017C01C701B601FF9050
:100C6000EF90DF90CF90089520E030E040E05FE328
:100C7000C701B6010E94103AFF90EF90DF90CF902D
:100C80000C94753A4F925F926F927F928F929F92DF
:100C9000AF92BF92CF92DF92EF92FF920F931F938A
:100CA000CF93DF93CDB7DEB7A5970FB6F894DEBF2D
:100CB0000FBECDBF8091F50D8150823008F404C67F
:100CC00080E08093F50D8091F40D8150823008F41E
:100CD000FDC580E08093F40D8091F30D815082304A
:100CE00008F4F6C580E08093F30D8091F20D8150F9
:100CF000823008F4EFC580E08093F20D8091F10D11
:100D00008150823008F4E8C580E08093F10D809135
:100D1000F00D8150823008F4E1C580E08093F00D41
:100D2000C0903802D0903902E0903A02F0903B0235
:100D3000A701960160917B0D70917C0D80917D0DD6
:100D400090917E0D0E94883A882341F0C0927B0DDD
:100D5000D0927C0DE0927D0DF0927E0D8CE0898723
:100D6000C12CEE24E39401E010E020E030E0AE017D
:100D7000475F5F4F66E370E08091710D9091720D57
:100D800039DB89878111ACC5CC24C394E12C04E004
:100D900010E020E030E0AE014F5F5F4F66E370E0AF
:100DA0008091710D9091720DBBDA84E0FE01319655
:100DB000DE01159601900D928A95E1F78D819E8155
:100DC0009D838E838F8198859F83888720919F0D37
:100DD0003091A00D4091A10D5091A20D6091A403FE
:100DE0007091A5038091A6039091A7030E94B83C3F
:100DF0006A8F7B8F8C8F9D8F20914C0430914D0496
:100E0000AF81B8850E947E496B017C01C092670D5D
:100E1000D092680DE092690DF0926A0D81E090E049
:100E20004091340250913502609136027091370240
:100E3000C416D506E606F70610F090E080E0209193
:100E40005204289FB001299F700D1124072E000C19
:100E5000880B990B0E942A3B9B01AC010E94113A1E
:100E60004B015C01C701B6010E94283B20E030E045
:100E700040E056E30E94B83C9B01AC01C501B401BF
:100E80000E94113A2091A8033091A9034091AA032E
:100E90005091AB030E94103A2091AC033091AD0306
:100EA0004091AE035091AF030E94B83C6A877B87A4
:100EB0008C879D8760932B0D70932C0D80932D0D47
:100EC00090932E0D2091B0033091B1034091B20365
:100ED0005091B3030E94B83C6B017C01C0922F0D6E
:100EE000D092300DE092310DF092320D8091A30D31
:100EF0009091A40DA091A50DB091A60D8E879F870E
:100F0000A88BB98B4090A70D5090A80D6090A90DAB
:100F10007090AA0D2091D4033091D5034091D6034F
:100F20005091D703BC01CD010E94B83C4B015C013C
:100F30002091D8033091D9034091DA035091DB031B
:100F4000C301B2010E94B83C9B01AC01C501B401D0
:100F50000E94113A4B015C012091E4033091E503BA
:100F60004091E6035091E7036A8D7B8D8C8D9D8DBA
:100F70000E94B83C6A8B7B8B8C8B9D8B2091E80305
:100F80003091E9034091EA035091EB03C701B601A8
:100F90000E94B83C9B01AC016A897B898C899D8940
:100FA0000E94113A9B01AC01C501B4010E94113AA3
:100FB0006093230D7093240D8093250D9093260D3F
:100FC0002091DC033091DD034091DE035091DF037B
:100FD0006E857F85888999890E94B83C4B015C01A8
:100FE0002091E0033091E1034091E2035091E3034B
:100FF000C301B2010E94B83C9B01AC01C501B40120
:101000000E94113A4B015C012091EC033091ED03F9
:101010004091EE035091EF036A8D7B8D8C8D9D8DF9
:101020000E94B83C2B013C012091F0033091F10368
:101030004091F2035091F303C701B6010E94B83CFE
:101040009B01AC01C301B2010E94113A9B01AC01AA
:10105000C501B4010E94113A6093270D7093280DC9
:101060008093290D90932A0D6093330D7093340D66
:101070008093350D9093360DE0912006F091210676
:10108000C080D180E280F3802091FC033091FD0389
:101090004091FE035091FF03C701B6010E94883AB8
:1010A00087FF21C48091000490910104A091020463
:1010B000B091030480935F0D9093600DA093610D38
:1010C000B093620D209108043091090440910A0404
:1010D00050910B04C701B6010E94883A87FF0CC4E7
:1010E00080910C0490910D04A0910E04B0910F0416
:1010F0008093630D9093640DA093650DB093660D7E
:101100002091140430911504409116045091170455
:10111000C701B6010E94883A87FFF7C3809118047F
:1011200090911904A0911A04B0911B048093570D5B
:101130009093580DA093590DB0935A0D209120040F
:10114000309121044091220450912304C701B6013B
:101150000E94883A87FFE2C380912404909125047D
:10116000A0912604B091270480935B0D90935C0DB1
:10117000A0935D0DB0935E0D2091570D3091580DE9
:101180004091590D50915A0D6091630D7091640D0D
:101190008091650D9091660D0E94113A20915B0D32
:1011A00030915C0D40915D0D50915E0D0E94113AA1
:1011B00020915F0D3091600D4091610D5091620D55
:1011C0000E94B83C6B017C01C092370DD092380D63
:1011D000E092390DF0923A0D20E030E0A9016091E3
:1011E0002C0470912D0480912E0490912F040E9464
:1011F000883A882309F49BC3C0923B0DD0923C0DE2
:10120000E0923D0DF0923E0D2A853B854C855D8533
:1012100060913B0D70913C0D80913D0D90913E0D84
:101220000E94103A60933F0D7093400D8093410DE2
:101230009093420D8FEF8093EF0DC090F803D09004
:10124000F903E090FA03F090FB0320E030E0A901FD
:10125000C701B6010E94883A87FF7AC3C701B60169
:101260000E94753A60935B0D70935C0D80935D0DE9
:1012700090935E0D60915B0D70915C0D80915D0DA2
:1012800090915E0D0E94621A882309F466C3109241
:101290005B0D10925C0D10925D0D10925E0DC09072
:1012A0005B0DD0905C0DE0905D0DF0905E0D20E048
:1012B00030E0A901C701B6010E94883A87FF70C3D8
:1012C000C701B60190580E94FC3A909580957095A0
:1012D00061957F4F8F4F9F4F633071058105910559
:1012E00009F478C30CF061C3613071058105910583
:1012F00009F469C3623071058105910509F466C37B
:101300008091EF0D823011F40C9479120CF068C3C7
:10131000882309F4A8C5813009F4FBC7C090430DA8
:10132000D090440DE090450DF090460D809038042B
:1013300090903904A0903A04B0903B04A501940128
:10134000C701B6010E94B43C181614F00C94EE16B6
:101350008092470D9092480DA092490DB0924A0D8F
:1013600067E070E080E090E0CBD88C0190939E0D18
:1013700080939D0D2091470D3091480D4091490D6E
:1013800050914A0D60914004709141048091420453
:10139000909143040E94B83C6B017C0120E030E056
:1013A0004FE753E40E94883A181614F40C940A1775
:1013B000C0925B0DD0925C0DE0925D0DF0925E0DDF
:1013C00020E030E0A90160915B0D70915C0D80918F
:1013D0005D0D90915E0D0E94B43C87FF08C0109295
:1013E0005B0D10925C0D10925D0D10925E0D4091A0
:1013F0005B0D50915C0D60915D0D70915E0DC801AB
:1014000048D86091440470914504809146049091BD
:101410004704E9DB6B017C01C0925B0DD0925C0D4F
:10142000E0925D0DF0925E0D20E030E040E853E484
:101430000E94883A87FD02C00C941B1720E030E020
:10144000A901C701B6010E94B43C87FF02C00C94F9
:101450001817C701B6010E94FC3A698769858BE0BD
:1014600011D8C0905B0DD0905C0DE0905D0DF090B8
:101470005E0D20E030E040E853E4C701B6010E9471
:10148000883A87FD02C00C94221720E030E0A901C1
:10149000C701B6010E94B43C87FF02C00C941F171D
:1014A000C701B6010E94FC3A698769858CE00E94F9
:1014B0004202609148047091490480914A049091DD
:1014C0004B0491DB6B017C01C0925B0DD0925C0DF3
:1014D000E0925D0DF0925E0D20E030E040E853E4D4
:1014E0000E94883A87FD02C00C94291720E030E062
:1014F000A901C701B6010E94B43C87FF02C00C9449
:101500002617C701B6010E94FC3A6987698586E003
:101510000E9442028091470D9091480DA091490D83
:10152000B0914A0D80939F0D9093A00DA093A10DB3
:10153000B093A20DC090A30DD090A40DE090A50D86
:10154000F090A60D4090A70D5090A80D6090A90DA9
:101550007090AA0D80912F0D9091300DA091310DBA
:10156000B091320D8A879B87AC87BD872091BC03E1
:101570003091BD034091BE035091BF03C701B60136
:101580000E94B83C4B015C012091C0033091C10323
:101590004091C2035091C303C301B2010E94B83C01
:1015A0009B01AC01C501B4010E94113A4B015C01E1
:1015B0002091CC033091CD034091CE035091CF03C5
:1015C0006A8D7B8D8C8D9D8D0E94B83C6E877F8748
:1015D000888B998B2091D0033091D1034091D20315
:1015E0005091D3036A857B858C859D850E94B83C8C
:1015F0009B01AC016E857F85888999890E94113A8B
:101600009B01AC01C501B4010E94113A4B015C0180
:101610002091B4033091B5034091B6035091B703C4
:10162000C701B6010E94B83C6B017C012091B80350
:101630003091B9034091BA035091BB03C301B20189
:101640000E94B83C9B01AC01C701B6010E94113A4F
:101650006B017C012091C4033091C5034091C60306
:101660005091C7036A8D7B8D8C8D9D8D0E94B83CF7
:101670002B013C012091C8033091C9034091CA035A
:101680005091CB036A857B858C859D850E94B83CF3
:101690009B01AC01C301B2010E94113A9B01AC0154
:1016A000C701B6010E94113A6093A30D7093A40D77
:1016B0008093A50D9093A60D8092A70D9092A80DF2
:1016C000A092A90DB092AA0D6091090670910A0628
:1016D00080910B0690910C060E94283B20E030E0A0
:1016E00040E85FE40E94B83C6B017C016091050614
:1016F0007091060680910706909108060E94283B8B
:101700009B01AC01C701B6010E94113A20E030E014
:10171000A9010E94113A0E94FC3AAB01BC0190E081
:1017200080E0D0D960911506709116068091170659
:10173000909118060E94283B20E030E040E85FE4EA
:101740000E94B83C6B017C016091110670911206F9
:1017500080911306909114060E94283B9B01AC01D6
:10176000C701B6010E94113A20E030E0A9010E94B1
:10177000113A0E94FC3AAB01BC0181E090E0A2D991
:10178000C0900506D0900606E0900706F090080687
:101790009FEFC91AD90AE90AF90AC0920506D09240
:1017A0000606E0920706F0920806C114D104E1048F
:1017B000F10499F48091090690910A06A0910B0614
:1017C000B0910C060196A11DB11D8093090690935E
:1017D0000A06A0930B06B0930C0680900D0690901D
:1017E0000E06A0900F06B0901006009120061091F2
:1017F00021066091090670910A0680910B0690916E
:101800000C060E94283BA50194010E94B83C20E0F0
:1018100030E040E85FE40E94B83C2B013C01C70186
:10182000B6010E94283BA50194010E94B83C9B018F
:10183000AC01C301B2010E94113AD8016D937D93AE
:101840008D939C9313978091110690911206A0910D
:101850001306B09114060196A11DB11D80931106C7
:1018600090931206A0931306B0931406892B8A2B2B
:101870008B2B99F48091150690911606A09117066E
:10188000B09118060196A11DB11D80931506909385
:101890001606A0931706B0931806A5960FB6F894EF
:1018A000DEBF0FBECDBFDF91CF911F910F91FF9093
:1018B000EF90DF90CF90BF90AF909F908F907F90F0
:1018C0006F905F904F90089583E0FBC983E002CA58
:1018D00083E009CA83E010CA83E017CA83E01ECA06
:1018E00018861F8273CA8091040490910504A09108
:1018F0000604B0910704DECB80911004909111048E
:10190000A0911204B0911304F3CB80911C04909128
:101910001D04A0911E04B0911F0408CC80912804DE
:1019200090912904A0912A04B0912B041DCC8091A0
:10193000300490913104A0913204B091330480932B
:101940003B0D90933C0DA0933D0DB0933E0D5CCCB0
:10195000C701B6010E94653B85CC60915B0D70911B
:101960005C0D80915D0D90915E0D0E941D1A81119C
:101970008ECC60915B0D70915C0D80915D0D9091AE
:101980005E0D20E030E040E85FE40E947F3B609322
:101990005B0D70935C0D80935D0D90935E0D7FCC1D
:1019A000C701B6010E94FC3A97CC653071058105EC
:1019B0009105A1F08CF0663071058105910509F063
:1019C0009FCC85E004C01092EF0D9ACC81E080930B
:1019D000EF0D96CC82E0FBCF83E0F9CF84E0F7CF28
:1019E000843011F40C94A21514F40C94071585306E
:1019F00009F094CC20912B0D30912C0D40912D0DA0
:101A000050912E0D609148037091490380914A03D3
:101A100090914B030E94B83C4B015C018092630D96
:101A20009092640DA092650DB092660D20913F0DCD
:101A30003091400D4091410D5091420D60914C0309
:101A400070914D0380914E0390914F030E94B83CDA
:101A5000A50194010E94113A6B017C018091AB0DAC
:101A60009091AC0DA091AD0DB091AE0D8A879B8782
:101A7000AC87BD878091AF0D9091B00DA091B10D55
:101A8000B091B20D8E879F87A88BB98B2091680388
:101A90003091690340916A0350916B036A857B859D
:101AA0008C859D850E94B83C2B013C0120916C03E4
:101AB00030916D0340916E0350916F036E857F8569
:101AC000888999890E94B83C9B01AC01C301B2018D
:101AD0000E94113A2B013C01209170033091710357
:101AE0004091720350917303C701B6010E94B83C44
:101AF000A30192010E94113AA50194010E94103A9B
:101B00002B013C0120913002309131024091320290
:101B100050913302C501B4010E94B83CA301920167
:101B20000E94B83C6E8F7F8F88A399A360935B0D52
:101B300070935C0D80935D0D90935E0D2091780302
:101B40003091790340917A0350917B03C701B6012C
:101B50000E94B83C20912C0230912D0240912E021F
:101B600050912F020E94B83CA30192010E94B83C00
:101B70006AA37BA38CA39DA360935F0D7093600DFC
:101B80008093610D9093620D8091B30D9091B40D8F
:101B9000A091B50DB091B60D8A8B9B8BAC8BBD8B94
:101BA00080934B0D90934C0DA0934D0DB0934E0D23
:101BB0008091B70D9091B80DA091B90DB091BA0D6B
:101BC0008E8B9F8BA88FB98F80934F0D9093500D64
:101BD000A093510DB093520D6091150670911606A9
:101BE00080911706909118060E94283B20E030E073
:101BF00040E85FE40E94B83C2B013C016091110673
:101C00007091120680911306909114060E94283B51
:101C10009B01AC01C301B2010E94113A2AE037EDE9
:101C200043E25BE30E94B83C20918C0330918D032A
:101C300040918E0350918F030E94883A87FD02C025
:101C40000C94C116409090035090910360909203C1
:101C5000709093032E893F89488D598DC501B40139
:101C60000E94B83C4B015C01A70196016A897B89FF
:101C70008C899D890E94B83C9B01AC01C501B401CF
:101C80000E94113AA30192010E94B83C20912802BF
:101C90003091290240912A0250912B020E94113A60
:101CA0004B015C01409098035090990360909A0317
:101CB00070909B03AC019B01C301B2010E94883A62
:101CC00087FD02C00C94CB164092430D5092440DF8
:101CD0006092450D7092460D209158033091590342
:101CE00040915A0350915B036A857B858C859D8565
:101CF0000E94B83C4B015C0120915C0330915D0374
:101D000040915E0350915F036E857F858889998934
:101D10000E94B83C9B01AC01C501B4010E94113A7C
:101D20004B015C012091640330916503409166038F
:101D300050916703C701B6010E94B83C9B01AC01FA
:101D4000C501B4010E94113A4B015C01209150037E
:101D50003091510340915203509153036A857B8522
:101D60008C859D850E94B83C2B013C012091540339
:101D70003091550340915603509157036E857F85EE
:101D8000888999890E94B83C9B01AC01C301B201CA
:101D90000E94113A2B013C012091600330916103B4
:101DA0004091620350916303C701B6010E94B83CA1
:101DB0009B01AC01C301B2010E94113A6093AB0DCB
:101DC0007093AC0D8093AD0D9093AE0D8092AF0DDE
:101DD0009092B00DA092B10DB092B20D20917C0303
:101DE00030917D0340917E0350917F036AA17BA1D6
:101DF0008CA19DA10E94B83C2A893B894C895D89B0
:101E00000E94113A6093B30D7093B40D8093B50D99
:101E10009093B60D20918403309185034091860301
:101E2000509187036E8D7F8D88A199A10E94B83C47
:101E30002E893F89488D598D0E94113A6093B70DC4
:101E40007093B80D8093B90D9093BA0D8091F00DF9
:101E5000882309F4C0C7833009F0B9C781E090E056
:101E60008093F00D5BCA6091150670911606809103
:101E70001706909118060E94283B20E030E040E8C9
:101E80005FE40E94B83C6B017C0160911106709187
:101E9000120680911306909114060E94283B9B0124
:101EA000AC01C701B6010E94113A2AE037ED43E2C6
:101EB0005BE30E94B83C209144023091450240917E
:101EC0004602509147020E94883A87FFC9C080911C
:101ED000480290914902A0914A02B0914B0280932E
:101EE0005B0D90935C0DA0935D0DB0935E0D209102
:101EF0003F0D3091400D4091410D5091420D609148
:101F00005B0D70915C0D80915D0D90915E0D0E9456
:101F1000B83C2091500230915102409152025091B0
:101F200053020E94B83C6B017C0120910C0230915D
:101F30000D0240910E0250910F020E94B83C6E8734
:101F40007F87888B998B60935B0D70935C0D80937A
:101F50005D0D90935E0D2091040230910502409139
:101F6000060250910702C701B6010E94B83C2091B9
:101F700058023091590240915A0250915B020E94DE
:101F8000B83C6A877B878C879D8760935F0D7093D1
:101F9000600D8093610D9093620D8091D70D9091AB
:101FA000D80DA091D90DB091DA0D8A8B9B8BAC8B9B
:101FB000BD8B20911C0230911D0240911E02509158
:101FC0001F02C701B6010E94B83C2A893B894C898F
:101FD0005D890E94113A6B017C012091DB0D3091EB
:101FE000DC0D4091DD0D5091DE0D6A857B858C8581
:101FF0009D850E94103A9B01AC01C701B6010E9469
:10200000113A6B017C01C092570DD092580DE092AD
:10201000590DF0925A0D8090240290902502A090C4
:102020002602B0902702A50194010E94B43C181624
:1020300004F5A5019401C701B6010E94103A60930E
:10204000630D7093640D8093650D9093660D80927F
:10205000570D9092580DA092590DB0925A0D29C06B
:1020600080914C0290914D02A0914E02B0914F028E
:1020700036CF8090180290901902A0901A02B0906A
:102080001B02A5019401C701B6010E94B43C87FD63
:10209000FBC01092630D1092640D1092650D1092AA
:1020A000660DA5019401C701B6010E94883A87FD1B
:1020B000CECF8090DF0D9090E00DA090E10DB0901C
:1020C000E20D209168023091690240916A025091BC
:1020D0006B02C501B4010E94B83C9B01AC01609148
:1020E000570D7091580D8091590D90915A0D0E9485
:1020F000103A20916402309165024091660250913D
:1021000067020E948F3A6B017C01C092570DD092FA
:10211000580DE092590DF0925A0D20915C023091C9
:102120005D0240915E0250915F020E94B83C2B011B
:102130003C01209160023091610240916202509115
:102140006302C501B4010E94B83C9B01AC01C3010C
:10215000B2010E94113A20917002309171024091B7
:102160007202509173020E94B83C20912802309173
:10217000290240912A0250912B020E94113A609349
:10218000430D7093440D8093450D9093460D409000
:10219000630D5090640D6090650D7090660D809099
:1021A000400290904102A0904202B0904302A501EB
:1021B0009401C301B2010E94B43C00914E04181670
:1021C00014F000914F04A50194016E857F858889E4
:1021D00099890E94B43C10915004181614F0109183
:1021E0005104A5019401C301B2010E94883A8823D9
:1021F00091F0011310C080913C0290913D02A0919A
:102200003E02B0913F0280935B0D90935C0DA093D2
:102210005D0DB0935E0D20915B0D30915C0D409192
:102220005D0D50915E0D6091540270915502809148
:102230005602909157020E94B83C2A893B894C89EA
:102240005D890E94113A4B015C018092D70D9092FA
:10225000D80DA092D90DB092DA0D40902002509086
:1022600021026090220270902302A30192010E9439
:10227000B43C87FD18C04092D70D5092D80D6092A3
:10228000D90D7092DA0D1FC0A5019401C701B601E6
:102290000E94103A6093630D7093640D8093650DF6
:1022A0009093660DFECE40901402509015026090FF
:1022B000160270901702A3019201C501B4010E9499
:1022C000883A1816C4F68A859B85AC85BD858093AF
:1022D000DB0D9093DC0DA093DD0DB093DE0DC0926D
:1022E000DF0DD092E00DE092E10DF092E20D8091D1
:1022F000F50D882359F0833029F481E090E0809334
:10230000F50D0CC8082E000C990BF9CF82E090E077
:10231000F6CFC090D30DD090D40DE090D50DF090B5
:10232000D60D8090780290907902A0907A02B090B9
:102330007B02A5019401C701B6010E94B43C1816A6
:102340000CF08FC08092430D9092440DA092450DE9
:10235000B092460D20913F0D3091400D4091410DBE
:102360005091420D609180027091810280918202B1
:10237000909183020E94B83C6093530D7093540D6A
:102380008093550D9093560D2091840230918502D3
:1023900040918602509187020E94B83C2091330DF3
:1023A0003091340D4091350D5091360D0E94113A07
:1023B000209188023091890240918A0250918B02CB
:1023C0000E94B83C60935B0D70935C0D80935D0D33
:1023D00090935E0D0E94621A882309F45BC080917D
:1023E000070E9091080EA091090EB0910A0E8093ED
:1023F0005B0D90935C0DA0935D0DB0935E0D2091ED
:102400005B0D30915C0D40915D0D50915E0D6091C2
:102410008C0270918D0280918E0290918F020E94A9
:10242000B83C2091900230919102409192025091DB
:1024300093020E94113A6093D30D7093D40D809350
:10244000D50D9093D60D8091F40D882309F44EC0DC
:10245000833009F047C081E090E08093F40D0C9444
:102460008E0980907C0290907D02A0907E02B090B8
:102470007F02A5019401C701B6010E94883A87FD39
:1024800061CFC092430DD092440DE092450DF09281
:10249000460D60CFC0905B0DD0905C0DE0905D0D5F
:1024A000F0905E0D20E030E0A901C701B6010E9466
:1024B000883A87FF05C080E090E0A0E8BFEB97CFA7
:1024C00020E030E0A901C701B6010E94B43C181613
:1024D0002CF480E090E0A0E8BFE389CF80E090E0BA
:1024E000DC0185CF082E000C990BB7CF82E090E07D
:1024F000B4CF6091150670911606809117069091E1
:1025000018060E94283B20E030E040E85FE40E948B
:10251000B83C6B017C0160911106709112068091AC
:102520001306909114060E94283B9B01AC01C70141
:10253000B6010E94113A2AE037ED43E25BE30E94C4
:10254000B83C2091940230919502409196025091AE
:1025500097020E94883A87FF4AC260919802709160
:10256000990280919A0290919B0220913F0D3091A7
:10257000400D4091410D5091420D0E94B83C209178
:10258000A0023091A1024091A2025091A3020E94A8
:10259000B83C4B015C014090C30D5090C40D60905D
:1025A000C50D7090C60D8091C70D9091C80DA0917A
:1025B000C90DB091CA0D8A879B87AC87BD87809172
:1025C000CB0D9091CC0DA091CD0DB091CE0D8E87FD
:1025D0009F87A88BB98B8091CF0D9091D00DA09142
:1025E000D10DB091D20D8A8B9B8BAC8BBD8B209182
:1025F000E8023091E9024091EA025091EB02C301F6
:10260000B2010E94B83C6B017C012091EC02309138
:10261000ED024091EE025091EF026A857B858C8538
:102620009D850E94B83C9B01AC01C701B6010E9488
:10263000113A6B017C012091F0023091F10240913E
:10264000F2025091F3026E857F85888999890E94F4
:10265000B83C9B01AC01C701B6010E94113A6B0165
:102660007C012091F4023091F5024091F6025091E4
:10267000F7026A897B898C899D890E94B83C9B01FD
:10268000AC01C701B6010E94113A6B017C01209197
:10269000F8023091F9024091FA025091FB02C50113
:1026A000B4010E94B83CA70196010E94113A209102
:1026B00000033091010340910203509103030E94F3
:1026C000B83C209128023091290240912A02509171
:1026D0002B020E94113A6093430D7093440D809336
:1026E000450D9093460D2091A8023091A90240918A
:1026F000AA025091AB02C301B2010E94B83C6B0127
:102700007C012091AC023091AD024091AE0250911B
:10271000AF026A857B858C859D850E94B83C9B01B4
:10272000AC01C701B6010E94113A6B017C012091F6
:10273000B0023091B1024091B2025091B3026E8565
:102740007F85888999890E94B83C9B01AC01C701AB
:10275000B6010E94113A6B017C012091B4023091C4
:10276000B5024091B6025091B7026A897B898C8983
:102770009D890E94B83C9B01AC01C701B6010E9433
:10278000113A6B017C012091DC023091DD02409115
:10279000DE025091DF02C501B4010E94B83C9B01EA
:1027A000AC01C701B6010E94113A6E8B7F8B888FF6
:1027B000998F2091B8023091B9024091BA0250919C
:1027C000BB02C301B2010E94B83C6B017C012091A5
:1027D000BC023091BD024091BE025091BF026A8599
:1027E0007B858C859D850E94B83C9B01AC01C7010F
:1027F000B6010E94113A6B017C012091C002309118
:10280000C1024091C2025091C3026E857F858889C2
:1028100099890E94B83C9B01AC01C701B6010E9496
:10282000113A6B017C012091C4023091C5024091A4
:10283000C6025091C7026A897B898C899D890E9452
:10284000B83C9B01AC01C701B6010E94113A6B0173
:102850007C012091E0023091E1024091E20250912E
:10286000E302C501B4010E94B83C9B01AC01C70161
:10287000B6010E94113A6E8F7F8F88A399A3209191
:10288000C8023091C9024091CA025091CB02C301E3
:10289000B2010E94B83C6B017C012091CC023091C6
:1028A000CD024091CE025091CF026A857B858C8506
:1028B0009D850E94B83C9B01AC01C701B6010E94F6
:1028C000113A6B017C012091D0023091D1024091EC
:1028D000D2025091D3026E857F85888999890E94A2
:1028E000B83C9B01AC01C701B6010E94113A6B01D3
:1028F0007C012091D4023091D5024091D6025091B2
:10290000D7026A897B898C899D890E94B83C9B018A
:10291000AC01C701B6010E94113A6B017C01209104
:10292000E4023091E5024091E6025091E702C501D0
:10293000B4010E94B83C9B01AC01C701B6010E94E2
:10294000113A6B017C012091A4023091A5024091C3
:10295000A6025091A702C301B2010E94B83C2B010C
:102960003C012091D8023091D9024091DA02509175
:10297000DB02C501B4010E94B83C9B01AC01C3015C
:10298000B2010E94113A6093C30D7093C40D8093FD
:10299000C50D9093C60D8E899F89A88DB98D8093A2
:1029A000C70D9093C80DA093C90DB093CA0D8E8D1D
:1029B0009F8DA8A1B9A18093CB0D9093CC0DA0932E
:1029C000CD0DB093CE0DC092CF0DD092D00DE09230
:1029D000D10DF092D20D8091F30D8823A9F08330B0
:1029E00079F481E090E08093F30D0C948E0960916E
:1029F0009C0270919D0280919E0290919F02B5CDA4
:102A0000082E000C990BEFCF82E090E0ECCFC09045
:102A1000BF0DD090C00DE090C10DF090C20D809020
:102A2000080390900903A0900A03B0900B03A5013E
:102A30009401C701B6010E94B43C18160CF062C0A4
:102A40008092430D9092440DA092450DB092460D98
:102A500020913F0D3091400D4091410D5091420D1C
:102A600060911003709111038091120390911303F0
:102A70000E94B83C20911403309115034091160335
:102A8000509117030E94B83C2091330D3091340DC2
:102A90004091350D5091360D0E94113A2091180346
:102AA0003091190340911A0350911B030E94B83CC6
:102AB0000E941B3D20911C0330911D0340911E0379
:102AC00050911F030E94B83C2091200330912103B4
:102AD00040912203509123030E94113A6093BF0D4D
:102AE0007093C00D8093C10D9093C20D8091F20D33
:102AF000882329F18330F9F481E090E08093F20D8E
:102B00000C948E0980900C0390900D03A0900E03FE
:102B1000B0900F03A5019401C701B6010E94883A45
:102B200087FD8ECFC092430DD092440DE092450DAB
:102B3000F092460D8DCF082E000C990BDFCF82E06E
:102B400090E0DCCFC090BB0DD090BC0DE090BD0DEF
:102B5000F090BE0D8090280390902903A0902A0346
:102B6000B0902B03A5019401C701B6010E94B43CAB
:102B700018160CF0BEC08092430D9092440DA092A6
:102B8000450DB092460D20913F0D3091400D409182
:102B9000410D5091420D609130037091310380914D
:102BA0003203909133030E94B83C60935F0D7093A1
:102BB000600D8093610D9093620D209138033091E8
:102BC000390340913A0350913B030E94B83C209155
:102BD000330D3091340D4091350D5091360D0E94DA
:102BE000113A20913C0330913D0340913E035091B6
:102BF0003F030E94B83C60935B0D70935C0D809323
:102C00005D0D90935E0D5ED4882309F48BC0809196
:102C1000070E9091080EA091090EB0910A0E8093B4
:102C20005B0D90935C0DA0935D0DB0935E0D609174
:102C30005F0D7091600D8091610D9091620D0E9409
:102C40008C3A4B015C0120915B0D30915C0D409101
:102C50005D0D50915E0D6091400370914103809134
:102C60004203909143030E94B83C6B017C01209188
:102C7000330D3091340D4091350D5091360D6091EA
:102C800044037091450380914603909147030E944D
:102C9000B83C9B01AC01C701B6010E94113A6B011F
:102CA0007C012091340330913503409136035091DB
:102CB0003703C501B4010E94B83C9B01AC01C701B8
:102CC000B6010E94113A6093BB0D7093BC0D8093C6
:102CD000BD0D9093BE0D8091F10D882309F44EC077
:102CE000833009F047C081E090E08093F10D0C94AF
:102CF0008E0980902C0390902D03A0902E03B0900D
:102D00002F03A5019401C701B6010E94883A87FDEF
:102D100032CFC092430DD092440DE092450DF09217
:102D2000460D31CFC0905B0DD0905C0DE0905D0DF5
:102D3000F0905E0D20E030E0A901C701B6010E94CD
:102D4000883A87FF05C080E090E0A0E8BFEB67CF3E
:102D500020E030E0A901C701B6010E94B43C18167A
:102D60002CF480E090E0A0E8BFE359CF80E090E051
:102D7000DC0155CF082E000C990BB7CF82E090E014
:102D8000B4CF409094035090950360909603709058
:102D900097030C942A0E40909C0350909D036090E2
:102DA0009E0370909F03A5019401C301B2010E948C
:102DB000B43C181614F40C94640E8092430D909257
:102DC000440DA092450DB092460D0C946C0E082E49
:102DD000000C990B45C882E090E042C880903C040A
:102DE00090903D04A0903E04B0903F04A501940152
:102DF000C701B6010E94883A87FF02C00C94A80957
:102E0000C092470DD092480DE092490DF0924A0DC4
:102E10000C94B00980E090E0AFE7B3E480935B0DE1
:102E200090935C0DA0935D0DB0935E0D0C94E00942
:102E300019860C942E0A8FEF89870C942E0A198616
:102E40000C94550A8FEF89870C94550A19860C94B7
:102E5000860A8FEF89870C94860A4F925F926F9251
:102E60007F928F929F92AF92BF92DF92EF92FF92EA
:102E70000F931F93CF93DF9384E090E0A7D2EDE60A
:102E8000F5E08DEBDF011D928A95E9F78DE196E083
:102E900097838683C0E2D6E0D093AE05C093AD059C
:102EA0000DE016E0158B048BF093D805E093D70561
:102EB000F583E48321E030E0DC012D933C938CE743
:102EC00094E09387828722E236E03983288340E0CA
:102ED00050E060E87FEB4093190650931A06609328
:102EE0001B0670931C064AE057ED63E27BE3D801B2
:102EF0004D935D936D937C931397C3EFD5E089ED6C
:102F000096E9A1E1B8E488839983AA83BB838DE81D
:102F10009DE4A3E0BDEE8093F7059093F805A093A0
:102F2000F905B093FA0587E39BE7A9EDB1E5809336
:102F3000FB059093FC05A093FD05B093FE0584ED81
:102F40009EEDA3E6BFE48093FF0590930006A09357
:102F50000106B0930206A1E6B5E0B383A283E1E4E3
:102F6000F5E01196FC93EE938EE894E091838083D4
:102F700093838283958384839783868391878087D5
:102F80009387828780EF9DE09587848785EF9DE01A
:102F900097878687918B808B938B828B958B848B85
:102FA000978B868B83EF9DE0918F808F82EF9DE0E2
:102FB000938F828F81EF9DE0958F848F84EF9DE0CA
:102FC000978F868F83E096E015969C938E93149747
:102FD0001396DC93CE93129717963C932E931697E5
:102FE00083E2882E8DE0982E88E4F40111928A9570
:102FF000E9F7CBE6DDE080E9DE011D928A95E9F78D
:1030000080E090E5A3ECB8E48C879D87AE87BF870E
:10301000DD24D394D092FA0D94E0A92E92E0B92E3B
:10302000F50184A995A9A6A9B7A9888B998BAA8B24
:10303000BB8B412C512C3201439449825A826B82C2
:103040007C8250E040E060E070E0CB010E945701DC
:103050009F838E8340EA56E861E070E04887598795
:103060006A877B870E947B01DD828FEF8093EF0D63
:103070001CA6D092F60D4DA65EA66FA678AAE12CEE
:10308000F12C8701A801970167E070E080E090E0F3
:103090000E94C4029BAB8AABD9AA1CA2D092F90DA4
:1030A0004DA25EA26FA278A661E08BE00E943A0278
:1030B000D9A61C8ED092F80D4D8E5E8E6F8E78A2A2
:1030C00061E08CE00E943A02D9A21C8AD092F70DEE
:1030D0004D8A5E8A6F8A788E61E086E00E943A02AD
:1030E000D98E8091A0039091A103A091A203B091E9
:1030F000A3038CAB9DABAEABBFAB8091F4039091BF
:10310000F503A091F603B091F70388AF99AFAAAF8A
:10311000BBAF8CAF9DAFAEAFBFAFF50184859585DA
:10312000A685B7858093D70D9093D80DA093D90D20
:10313000B093DA0D84819581A681B7818093DB0DF0
:103140009093DC0DA093DD0DB093DE0D80916C02A9
:1031500090916D02A0916E02B0916F028093DF0D8D
:103160009093E00DA093E10DB093E20D8091740275
:1031700090917502A0917602B09177028093D30D61
:103180009093D40DA093D50DB093D60D8091FC02F1
:103190009091FD02A091FE02B091FF028093C30DB9
:1031A0009093C40DA093C50DB093C60D8093C70D29
:1031B0009093C80DA093C90DB093CA0D8093CB0D09
:1031C0009093CC0DA093CD0DB093CE0D8093CF0DE9
:1031D0009093D00DA093D10DB093D20D80910403A4
:1031E00090910503A0910603B09107038093BF0D52
:1031F0009093C00DA093C10DB093C20D8091240394
:1032000090912503A0912603B09127038093BB0DD5
:103210009093BC0DA093BD0DB093BE0D809174032F
:1032200090917503A0917603B09177038093AB0DD5
:103230009093AC0DA093AD0DB093AE0D8093AF0DF8
:103240009093B00DA093B10DB093B20D8091800317
:1032500090918103A0918203B09183038093B30D79
:103260009093B40DA093B50DB093B60D80918803E3
:1032700090918903A0918A03B0918B038093B70D3D
:103280009093B80DA093B90DB093BA0D809134040A
:1032900090913504A0913604B0913704F40180A3D5
:1032A00091A3A2A3B3A3DF91CF911F910F91FF90A0
:1032B000EF90DF90BF90AF909F908F907F906F9036
:1032C0005F904F90089580916B0D811119C081E03E
:1032D00080936B0D80916C0D90916D0DA0916E0D92
:1032E000B0916F0D0197A105B10551F48091700D5A
:1032F000882331F08091710D9091720D0E943902F6
:103300008091970D81112EC081E08093970D80915F
:10331000980D9091990DA0919A0DB0919B0D0197E8
:10332000A105B105F9F480919C0D8823D9F067E0DF
:1033300070E080E090E00E94800290939E0D809368
:103340009D0D40E050E0BA010E94490267E070E044
:1033500080E090E00E94800290939E0D80939D0DEE
:103360000E94150380918F0D811103C081E080932D
:103370008F0D8091870D811103C081E08093870DAF
:1033800080917F0D811103C081E080937F0D0895AE
:1033900060E070E080E89FE7089560E070E080E81A
:1033A0009FE7089560E070E080E89FEF089560E097
:1033B00070E080E89FEF089560E070E080EC9FEFA0
:1033C000089560E070E080EC9FEF0895F5DF609372
:1033D000070E7093080E8093090E90930A0EF1DF8A
:1033E0006093FB0D7093FC0D8093FD0D9093FE0D8B
:1033F000CFDF6093030E7093040E8093050E9093BD
:10340000060ECBDF6093FF0D7093000E8093010ECC
:103410009093020EC7DF60930B0E70930C0E809397
:103420000D0E90930E0EC3DF60930F0E7093100E6F
:103430008093110E9093120E0895CF92DF92EF9227
:10344000FF92CF936B017C01AC019B016091030E55
:103450007091040E8091050E9091060E0E94883A9C
:10346000C1E0882371F0A701960160910B0E709165
:103470000C0E80910D0E90910E0E0E94883A8111D3
:10348000C0E08C2FCF91FF90EF90DF90CF90089508
:103490000F931F938B019C010027112720783F7702
:1034A0000115110520483F4749F4AB01BC016F7776
:1034B000772781E0452B462B472B09F480E01F91AD
:1034C0000F910895E5CF4F925F926F927F928F9206
:1034D0009F92AF92BF92CF92DF92EF92FF920F93A3
:1034E0001F93F89440903606509037066090380647
:1034F00070903906C0902A06D0902B06E0902C06DA
:10350000F0902D064130510509F0A4C09B01AC019B
:10351000241935094609570929013A010091320653
:103520001091330620913406309135064801590137
:10353000840C951CA61CB71C80169106A206B30627
:10354000A0F400912E0610912F06209130063091A4
:1035500031060F5F1F4F2F4F3F4F00932E061093E2
:103560002F062093300630933106809232069092D7
:103570003306A0923406B092350600912E061091C3
:103580002F06209130063091310680923A069092B3
:103590003B06A0923C06B0923D0600933E06109377
:1035A0003F062093400630934106609336067093A1
:1035B00037068093380690933906A4ECB9E0A3014E
:1035C00092010E948D496C0D7D1D8E1D9F1D609383
:1035D0002A0670932B0680932C0690932D0600915B
:1035E00053041091540420915504309156040F3F18
:1035F0001F4F2F4F3F4FF1F000915304109154048F
:1036000020915504309156040E3F1F4F2F4F3F4FCE
:1036100089F0C0905304D0905404E0905504F09089
:10362000560421E08C149D04AE04BF0408F420E08D
:103630002093460678941F910F91FF90EF90DF90B2
:10364000CF90BF90AF909F908F907F906F905F9042
:103650004F9008954B015C0184189508A608B7089F
:10366000A3019201261B370B480B590B64157505F6
:1036700086059705D0F082169306A406B50640F499
:1036800020E030E0A90181149104A104B10491F477
:10369000A4ECB9E00E948D49A7019601261B370BC7
:1036A000480B590BCA01B901C5CF82169306A4066F
:1036B000B50670F7A4ECB9E0A50194010E948D490C
:1036C0006C0D7D1D8E1D9F1DB5CFFDCECF93DF935D
:1036D00000D01F92CDB7DEB71C821B821A821982DE
:1036E000109242061092430610924406109245062C
:1036F000BE016F5F7F4FCE0103960E945C386981E7
:103700007A818B819C810E944A31009761F4BE01CD
:103710006F5F7F4FCE0103960E94683869817A817E
:103720008B819C812FD50F900F900F900F90DF9180
:10373000CF910895FF920F931F93CF93DF93082F9C
:1037400060E070E0CB010E949143FF24F3940E945B
:103750003330EC01892B89F010E0CE3F8FEFD80792
:1037600069F0002361F160E070E0CB010E949143B9
:1037700081E090E0892B59F322C011E026D5EC01BD
:10378000892B21F0CE3F8FEFD80759F711111EC0BA
:1037900011E0229609F410E00E94E32FEC01892B3E
:1037A00021F0CE3F8FEFD807E1F6111111C011E0E3
:1037B000CE3F8FEFD80709F410E001110BC0CE0106
:1037C000DF91CF911F910F91FF90089511E0E4CF09
:1037D00011E0F3CF60E070E0CB010E9491431F2520
:1037E000812F90E0C7CFCF93DF9380914606882347
:1037F00021F060E070E0CB014DD636D6D0E0C0E0DD
:10380000892B71F06AE070E080E090E00E949143C3
:1038100081E090DF29D62196C03D27E0D20781F7CD
:1038200028D60E949E3110925E0610925D0610927C
:103830005706109258061092590610925A06109286
:103840005306109254061092550610925606109286
:103850004F06109250061092510610925206109286
:103860004B0610924C0610924D0610924E06109286
:103870004706109248061092490610924A064EEFEB
:103880005FEF6FEF7FEF40935304509354046093C6
:1038900055047093560410924606EAE3F6E028E0D9
:1038A000DF011D922A95E9F710923606109237062D
:1038B0001092380610923906109232061092330692
:1038C000109234061092350610922E0610922F0692
:1038D000109230061092310610922A0610922B0692
:1038E00010922C0610922D06DF91CF910895109220
:1038F0006A0610926B0610926C0610926D0610927A
:103900006906809172069091730690936806809381
:103910006706109266061092650610926106109274
:103920006206109263061092640610926F0610925F
:103930006E0690E080E00895CF92DF92EF92FF92C2
:103940000F931F93CF938C01019709F055C02091DD
:1039500072063091730680916706909168064091D7
:1039600072065091730650936806409367062817B5
:10397000390781F010926606109265061092610672
:1039800010926206109263061092640610926F06FF
:1039900010926E068091720690917306019761F500
:1039A00080916E0690916F06892B21F480915704C7
:1039B000811112C080916E0690916F060197E1F41B
:1039C0008091610690916206A0916306B0916406B1
:1039D0000197A105B10581F410926106109262066B
:1039E00010926306109264061092570482E090E0F1
:1039F00090936F0680936E06809172069091730685
:103A0000019709F01CC18091880690918906801762
:103A1000910709F014C18091840690918506A091C8
:103A20008606B0918706009709F409C120918306A4
:103A300021110DC040918406509185066091860643
:103A400070918706452B462B472B09F4F8C020912F
:103A50006E0630916F062230310509F0F0C02091DA
:103A600065062111ECC0FC01C080D180E280F380AA
:103A700080916906882309F4D3C0809175069091DE
:103A80007606892B09F4FEC02091750630917606E2
:103A900081E02230310509F080E0209175063091F7
:103AA0007606C1E02130310549F02091750630914C
:103AB0007606C1E02230310509F0C0E0882309F420
:103AC00056C020917F06309180064091810650912A
:103AD0008206C701B6010E94B43C87FD14C0209144
:103AE0007F06309180064091810650918206609158
:103AF0006A0670916B0680916C0690916D060E942B
:103B0000883A87FD22C020917F063091800640913F
:103B1000810650918206C701B6010E94B43C181676
:103B200034F520917F0630918006409181065091B6
:103B3000820660916A0670916B0680916C06909186
:103B40006D060E94883A811112C08091770690918B
:103B50007806A0917906B0917A06892B8A2B8B2B57
:103B600019F481E08093660681E080936506CC239A
:103B700009F456C020917F0630918006409181065D
:103B800050918206C701B6010E94883A87FF14C08F
:103B900020917F06309180064091810650918206E7
:103BA00060916A0670916B0680916C0690916D062B
:103BB0000E94B43C87FF22C020917F06309180068E
:103BC0004091810650918206C701B6010E94883A51
:103BD000811126C020917F06309180064091810698
:103BE0005091820660916A0670916B0680916C0616
:103BF00090916D060E94B43C181694F4809177065B
:103C000090917806A0917906B0917A06892B8A2B3B
:103C10008B2B19F481E08093660681E08093650622
:103C200081E090916506911180E080936906C092D1
:103C30006A06D0926B06E0926C06F0926D06013037
:103C4000110509F067C180916E0690916F06892B6E
:103C5000D9F4109274061092650680915704882357
:103C600079F082E090E090936F0680936E06109258
:103C70005704209172063091730681E0232BE9F0FE
:103C800080E01BC081E009CF109257048091740638
:103C9000882349F01092660610926F0610926E0605
:103CA00010927406EDCF8091720690917306892B65
:103CB000E1F0809165061092650620916E063091C4
:103CC0006F062230310509F45EC088F421153105F4
:103CD00009F448C02130310509F4F3C0109266069A
:103CE000109265061092740638C081E0E6CF23304A
:103CF000310509F4B1C02430310581F740916106E6
:103D000050916206609163067091640641155105F9
:103D10006105710561F041505109610971094093D4
:103D20006106509362066093630670936406409147
:103D30006106509162066091630670916406452B9E
:103D4000462B472BD9F42091700630917106213013
:103D5000310509F046C01092660610926F06109267
:103D60006E060CC080915704882341F082E090E0F9
:103D700090936F0680936E061092570410925F0620
:103D800080916606CEC08823C9F380917706909112
:103D90007806A0917906B0917A06181619061A06C7
:103DA0001B060CF07DC080917206909173060197FE
:103DB00009F076C08091770690917806A0917906F7
:103DC000B0917A068093610690936206A093630691
:103DD000B093640683E090E090936F0680936E0644
:103DE000CDCF40917B0650917C0660917D0670910D
:103DF0007E06452B462B472BA9F010926606809134
:103E00007B0690917C06A0917D06B0917E06809302
:103E1000610690936206A0936306B093640681E006
:103E200090E0DACF882399F080915804909159045A
:103E3000A0915A04B0915B0480936106909362064E
:103E4000A0936306B093640684E090E0C5CF10921F
:103E5000660682E090E0C0CF809161069091620694
:103E6000A0916306B09164060097A105B10559F0D1
:103E70000197A109B1098093610690936206A0930E
:103E80006306B09364068091610690916206A091EA
:103E90006306B0916406892B8A2B8B2B09F06ECFB9
:103EA0008091580490915904A0915A04B0915B04F8
:103EB000892B8A2B8B2B09F44ECF81E080936606E9
:103EC000B3CF409161065091620660916306709194
:103ED0006406411551056105710561F041505109B4
:103EE000610971094093610650936206609363060D
:103EF000709364064091610650916206609163067A
:103F000070916406452B462B472B09F037CF811162
:103F1000C7CF9FCF80915F06882309F431CF80916E
:103F20006006CF911F910F91FF90EF90DF90CF909F
:103F3000089510926A0610926B0610926C06109209
:103F40006D061092690610926F0610926E0610921E
:103F500068061092670610928906109288061092E1
:103F60006606109265061092610610926206109223
:103F70006306109264061092600610925F0610921B
:103F8000840610928506109286061092870610927B
:103F9000830610927F06109280061092810610927E
:103FA000820688EE93E0A0E0B0E0809358049093FE
:103FB0005904A0935A04B0935B0410927B061092AC
:103FC0007C0610927D0610927E0610927706109263
:103FD00078061092790610927A0610927606109260
:103FE000750681E080935704109274061092730650
:103FF00010927206109271061092700690E080E0A6
:1040000008958091720690917306892B19F580911D
:104010005704882351F080917406811106C081E015
:104020008093600680935F06089520917406309116
:10403000570481E090E0332311F090E080E030E01D
:1040400082239323892B21F01092600681E0EACF2E
:1040500010925F06089582E090E0FA0191838083D8
:104060008FEF9FEF0895CF93DF93EA01009711F050
:104070000E94BE321982188290E080E0DF91CF91D9
:104080000895DB01009719F48FEF8C9308952EEFBC
:104090002C93FC013F96EF30F10508F034C08827DF
:1040A000EB5AFF4D8F4F0C94764981207F207D2065
:1040B0007B20792075207720732071206F206C2061
:1040C000682064206A20832080E311968C930895F1
:1040D00089E2FBCF82E2F9CF11961C92089583E228
:1040E000F4CF81E2F2CF81E1F0CF87E2EECF8AE236
:1040F000ECCF80E1EACF84E2E8CF88E2E6CF86E247
:10410000E4CF81E3E2CF80E2E0CF80919606909108
:104110009706089590939706809396060895809148
:104120009506089590919506892B8093950608959C
:10413000982F9095809195068923809395060895F0
:104140008091940608958091920690919306089527
:104150006115710559F0FB0130E020E070E060E08E
:104160002417350719F06115710511F0CB01089579
:10417000A081B181A817B90709F4BF012F5F3F4F94
:104180003696EECF8091980681111CC060D266D21F
:1041900090938B0680938A060E94CA2A0E94DC2A8A
:1041A00090938F0680938E060E944B2F0E94522F71
:1041B00090938D0680938C0681E08093980690E022
:1041C00080E0089584EF9FEF08958F929F92AF92C1
:1041D000BF92CF92DF92EF92FF920F931F93CF93F4
:1041E000DF9300D000D000D01F92CDB7DEB71A8683
:1041F000198618861F821E821D821C821B821A82CB
:1042000019828091980607EF1FEF882309F49CC05C
:104210008E010D5F1F4F9E012B5F3F4FAE01495F27
:104220005F4FBE01675F7F4F90E080E00E94CF301C
:104230008C01009721F00596029708F0DBC02985D4
:104240003A852115310509F402C1ED80FE804B81CC
:104250005C81B701640F751F8F819885861797075A
:1042600008F4F5C0E20EF31ED7019C91903C09F0D2
:104270007FC04230510508F47BC011968C9140916B
:10428000960650919706452B09F49CC0913F08F083
:1042900071C02CE1290F2D3008F48BC02DE2290FBD
:1042A000203108F489C0903C21F48150823008F418
:1042B00083C088E3890F8B3008F481C091E4C92E54
:1042C00090E2D92EEBE2F0E26D817E81AE014F5F8C
:1042D0005F4F89859A8519955C01C114D104A1F1BC
:1042E00089809A808114910479F18B819C81881551
:1042F000990508F487C010E000E04B815C8170E014
:1043000060E0C7010E94A04901151105E9F4498147
:104310005A8169857A858D819E81680F791FC501D3
:10432000F6011995E980FA800D811E812F8138856B
:1043300049855A856FEF7FEF81E090E00E946A30F7
:104340008C01892B09F056C0C8012A960FB6F89443
:10435000DEBF0FBECDBFDF91CF911F910F91FF90B8
:10436000EF90DF90CF90BF90AF909F908F90089587
:1043700080E085CF30E020E0220F331FF901E657BF
:10438000F94F0190F081E02D309709F497CF892FF4
:1043900090E01995009709F491CFDC011296ED9108
:1043A000FC9113971496CD90DC90309709F08CCF48
:1043B0001FC021E030E0E0CF22E030E0DDCF23E09D
:1043C00030E0DACFD12CC12CE3E3F0E29F3F09F0DB
:1043D0007BCFE0918A06F0918B06309721F4C901DA
:1043E00004EF1FEF0CC08FEF90E019950097A9F62E
:1043F00004EF1FEF89859A85009709F4A5CF0E94E5
:10440000BE32A2CF0E9499318C0189859A850E9483
:10441000BE3270E060E0C4010E94323198878F8321
:104420000E9467309E838D836F8178856115710549
:1044300059F0C8010E944A349A87898706EF1FEF16
:10444000892B09F058CF59CF08EF1FEF56CF08EF4F
:104450001FEFD0CF20919806222319F020E00C9472
:10446000E12A87EF9FEF0895809196069091970635
:1044700008950E94572F0E94B12EF5D0EAE8F6E089
:1044800088E0DF011D928A95E9F71092980690E086
:1044900080E008950C940F2D21E040E050E0BA0137
:1044A0000C94E12A86E090E0FA019183808390E009
:1044B00080E0089547E050E061E974E049CEDF9282
:1044C000EF92FF920F931F93CF93DF938A01EC013A
:1044D000C60FD71FE0909C06F0909D06D9800E94E1
:1044E0008131D816190678F082E090E0F8019183C6
:1044F00080838EEF9FEFDF91CF911F910F91FF90FF
:10450000EF90DF900895EF2841F482E090E0F80109
:104510009183808384EF9FEFEECF898180939B0608
:1045200090E00196F8019183808390E080E0E3CFF2
:10453000CF93DF93EA010E94C02D882321F00E94CF
:104540008E310E94C12D82E090E0998388838BEFA9
:104550009FEFDF91CF910895CF93DF93EB0186E03A
:10456000FB0111928A95E9F78FEF8883D8DD898363
:10457000E7DD8A83E8DD9D838C83DF91CF91089509
:10458000CF93DF93EA010E94C32D811109C082E01D
:1045900090E09983888385EF9FEFDF91CF91089515
:1045A00090E080E0B7DD81E090E09983888390E03F
:1045B00080E0F3CF0F931F93CF93DF93EA018C0139
:1045C000060F171F0E94C32D81110BC082E090E0DF
:1045D0009983888385EF9FEFDF91CF911F910F9192
:1045E0000895F8018181823038F082E090E099836B
:1045F00088838EEF9FEFF0CF81E090E08BDD88E045
:1046000090E09983888390E080E0E6CFCF93DF93BA
:104610000097D1F4EB01FB01329686E0DF011D9299
:104620008A95E9F78FEF888385E089831A820E9453
:1046300081318B830E9480319D838C8381E08E83C6
:104640008F83DF91CF910895DF91CF911ACD8AE5C5
:1046500092E290939A068093990608958091990624
:1046600090919A06089510929A06109299060895CC
:1046700080919C0690919D060895411105C0611599
:1046800071058105910561F060939C0670939D060C
:1046900080939E0690939F064093A00681E0089524
:1046A00080E00895FF920F931F93CF93DF938A01C9
:1046B000EC01C60FD71FF9800E948131F816190648
:1046C00068F082E090E0F801918380838EEF9FEFA5
:1046D000DF91CF911F910F91FF9008956C817D81A3
:1046E0008E819F814B81C9DF811108C082E090E0FB
:1046F000F8019183808384EF9FEFEACF89818093D3
:104700009B0690E00196F8019183808390E080E021
:10471000DFCFCF93DF93EA01FC01E60FF71F64813F
:104720007581868197814381A8DF811109C082E06C
:1047300090E09983888384EF9FEFDF91CF91089574
:1047400081E090E09983888390E080E0F6CFECE907
:10475000F6E04081518162817381480F511D611DD6
:10476000711D40835183628373830895CF93C091F9
:104770009B064C2F50E060919C0670919D0601961F
:104780000E9497498C2FE3DF10929B06CF910895EA
:10479000009799F480919C0690919D062FEFFB0164
:1047A0002083892B59F020919B0630E02F5F3F4FEB
:1047B0002417350719F4CB01D9CF63CC089500979E
:1047C00099F480919C0690919D062FEFFB01208328
:1047D000892B59F020919B0630E02F5F3F4F241723
:1047E000350719F4CB01C2CF4CCC089523E1AC01BD
:1047F000249FC001259F900D1124E091A506F09102
:10480000A606E80FF91F238134812250310981E087
:104810002230310508F080E008950F931F93CF9365
:10482000DF930091A7061091A806D0E0C0E080E0D9
:104830000C171D0749F491E0811190E0892FDF9159
:10484000CF911F910F9108958111F5CFCE01CEDF49
:104850002196EECFA091A506B091A606109729F15A
:104860002091A7063091A80682179307F0F453E130
:10487000589F9001599F300D1124A20FB31FED9145
:10488000FC911197309789F012968C91681768F413
:104890008BE0689FE00DF11D112480819181892BAF
:1048A00021F081E09281491708F080E008959C0191
:1048B00043E1429FC001439F900D1124E091A50662
:1048C000F091A606E80FF91F8385823091F481E00C
:1048D00090E06581768140915C0450915D0464179D
:1048E000750711F490E080E0892B19F081E0232B0B
:1048F00009F080E00895EF92FF920F931F93CF93FA
:10490000DF93EA01FC01E60FF71F02811381E480C7
:10491000F5804F2D6E2DC8019DDF81110DC082E005
:1049200090E0998388838EEF9FEFDF91CF911F9165
:104930000F91FF90EF900895C80158DF882339F058
:1049400082E090E09983888388EF9FEFEECF109309
:10495000630400936204E0926404F092650481E0D1
:1049600090E09983888390E080E0DFCFCF92DF9260
:10497000EF92FF920F931F93CF93DF937A01EC0195
:10498000C60FD71FC0906204D090630400916404E6
:1049900010916504412F602FC6015CDF811110C0AA
:1049A00082E090E0F701918380838AEF9FEFDF91AF
:1049B000CF911F910F91FF90EF90DF90CF900895CE
:1049C000C60114DF882341F082E090E0F701918373
:1049D000808388EF9FEFEBCF4C815D816E817F817B
:1049E0009A8189818F3F41F082E090E0F7019183C5
:1049F00080838EEF9FEFDBCFE3E1EC9D9001ED9D97
:104A0000300D1124E091A506F091A606E20FF31FE8
:104A10000190F081E02D2BE0029FE00DF11D1124AB
:104A20000190F081E02D27E0129FE00DF11D11248F
:104A3000808391838B8182834383548365837683D0
:104A40001F5F1093650481E090E0F70191838083FC
:104A500090E080E0ACCFEF92FF920F931F93CF9343
:104A6000DF937A018C01060F171FC091A506D09124
:104A7000A606209781F021E030E0F8018281938141
:104A80004091A7065091A8068417950710F030E0D2
:104A900020E0232B71F482E090E0F7019183808382
:104AA0008EEF9FEFDF91CF911F910F91FF90EF90CD
:104AB000089543E1489F9001499F300D1124C20F92
:104AC000D31F94DE882341F082E090E0F7019183C8
:104AD000808388EF9FEFE6CFF8012481358120386D
:104AE0003105C8F687818111D6CF4181842F90E0AE
:104AF0008F7E009741F082E090E0F7019183808300
:104B000086EF9FEFCFCF4F833E832D83268128876B
:104B10001986223010F421E0288721E030E0F701E7
:104B200031832083BFCF88E090E0FA0191838083B6
:104B300090E080E00895FB018FEF808381E1818325
:104B40008FEF9FEF9383828380E890E09583848347
:104B5000168217820895FB018FEF808391E0918385
:104B600082839383848384E3858381E090E09783C9
:104B700086830895DF92EF92FF920F931F93CF9356
:104B8000DF93EA01FC01E60FF71F8181813071F0AC
:104B900082E090E0998388838FEF9FEFDF91CF9140
:104BA0001F910F91FF90EF90DF9008958281938184
:104BB000D4802581E680F7800091A5061091A60695
:104BC0000115110539F482E090E0998388838CEF18
:104BD0009FEFE4CF4091A7065091A8068417950750
:104BE00038F082E090E0998388838EEF9FEFD6CFF4
:104BF000892B39F082E090E09983888386EF9FEFDC
:104C0000CDCF8D2D8D7FB1F72130A1F781E0D1106F
:104C100006C091E0E916F10431F080E004C0E2E062
:104C2000EE16F104D0F3882329F390E080E0DEDD76
:104C3000882339F082E090E09983888388EF9FEFA2
:104C4000ADCFF801D38681E08487F686E586108AA9
:104C5000178681E090E09983888390E080E09ECF82
:104C60004CE050E06BEB74E073CA8F929F92BF925E
:104C7000CF92DF92EF92FF920F931F93CF93DF9328
:104C8000EA01FC01E60FF71F828193810481B58060
:104C9000E091A506F091A606309791F482E090E0AD
:104CA000998388838CEF9FEFDF91CF911F910F91B4
:104CB000FF90EF90DF90CF90BF909F908F900895DE
:104CC0002091A7063091A8068217930738F082E05A
:104CD00090E0998388838EEF9FEFE6CF23E1289FB2
:104CE0006001299FD00C1124EC0DFD1DE080F180A6
:104CF000E114F10499F28281081748F78BE0089FCC
:104D000080011124E00EF11EF70180819181892B31
:104D100029F6BB20E1F2F7E0BF9E40011124C40157
:104D20000E948532F70191838083E091A506F0917E
:104D3000A606EC0DFD1D0190F081E02DE00FF11FA6
:104D400080819181009739F482E090E09983888393
:104D50008DEF9FEFA9CFA40170E060E00E94A04911
:104D60008091A5069091A606C80ED91EF6018081F5
:104D70009181080F191FF801B28281E090E09983B8
:104D8000888390E080E090CFAF92BF92CF92DF9285
:104D9000FF920F931F93CF93DF93EA01FC01E60F7D
:104DA000F71F82819381F4800091A5061091A606D9
:104DB0000115110581F482E090E0998388838CEFDE
:104DC0009FEFDF91CF911F910F91FF90DF90CF90D8
:104DD000BF90AF9008952091A7063091A806821742
:104DE000930738F082E090E0998388838EEF9FEFFD
:104DF000E8CF2FEF2F0D2C3FA8F723E1289F60016C
:104E0000299FD00C11240C0D1D1DF801808191816A
:104E1000892B89F6FBE0FF9E50011124C5010E94F9
:104E20008532F80191838083E091A506F091A60672
:104E3000EC0DFD1D80819181009739F482E090E0B6
:104E4000998388838DEF9FEFBCCFA50170E060E070
:104E50000E94A049E091A506F091A606EC0DFD1D6B
:104E6000F28281E090E09983888390E080E0A9CF8E
:104E7000CF92DF92EF92FF920F931F93CF93DF9326
:104E8000860F971FFC01028113818091A5069091E6
:104E9000A606892B81F082E090E0FA01918380835D
:104EA0008CEF9FEFDF91CF911F910F91FF90EF90CB
:104EB000DF90CF900895C801B0E0A0E00197A1096C
:104EC000B1098F3F9F4FA105B10540F082E090E00E
:104ED000FA01918380838EEF9FEFE4CF7A0183E123
:104EE000809F6001819FD00C1124C6010E948532F1
:104EF000EC01009741F482E090E0F7019183808318
:104F00008DEF9FEFCFCFA60170E060E00E94A04937
:104F1000D093A606C093A5061093A8060093A706F3
:104F200090E080E02FEF3FEF41E061E070E080171C
:104F3000910741F481E090E0F7019183808390E054
:104F400080E0B0CF3A8B298B1B864C877E876D879C
:104F5000188A1F8601966396EACFCF92DF92EF926E
:104F6000FF920F931F93CF93DF93EC01D12CC12CB1
:104F700010E000E0F12CE12C6A816017110609F0C5
:104F8000CCF483E0689FB0011124AE014F5E5F4F07
:104F9000C7010E94EA32009721F02FEF3FEF3A8BD2
:104FA000298BDF91CF911F910F91FF90EF90DF90B0
:104FB000CF900895E881F981EC0DFD1D4381548166
:104FC0008D859E85489F9001499F300D589F300DDB
:104FD0001124C90101960115110519F44F8144FDF1
:104FE000049661E070E00E943231E816F90608F498
:104FF0007C010F5F1F4F8BE0C80ED11CBDCFF89412
:105000002091A3063091A40681E02115310509F015
:1050100080E0232B09F0789408952F923F924F92CD
:105020005F926F927F928F929F92AF92BF92CF9238
:10503000DF92EF92FF920F931F93CF93DF933C0188
:10504000660E771EF301828193814C01B12CA12C55
:10505000C091A506D091A606209769F021E030E026
:105060006091A7067091A8068617970710F030E0A8
:1050700020E0232BD1F482E090E0FA019183808339
:105080008EEF9FEFDF91CF911F910F91FF90EF90E7
:10509000DF90CF90BF90AF909F908F907F906F9058
:1050A0005F904F903F902F90089580926604909269
:1050B0006704A0926804B092690463E1689F90015C
:1050C000699F300D1124C20FD31FF30181818330FA
:1050D00040F082E090E0FA019183808386EF9FEFB9
:1050E000D1CF2A012B813C81232BF1F428813981F6
:1050F0009F8191FF2EC0232B09F46FC02091AA0637
:105100009A81422F490F5527551FBA0141E050E0BF
:105110006138710514F050E040E0452B09F45DC0A2
:105120002A87920F9093AA068150823008F481C09A
:1051300066DF882309F4D8C0F3018181813009F446
:105140008DC008F47BC0823009F4C6C090E080E0D6
:10515000ADC0232B09F441C02091A9069A81E22F0A
:10516000E90FFF27FF1F41E050E0ED3FF10514F08C
:1051700050E040E0452B89F12A87920F9093A906D1
:10518000D3CFA081B181A20FB31F11966C91060FEE
:10519000111D0196295F3F4F8417950794F38D8564
:1051A0009E85089F1001099F300C189F300C112418
:1051B000C114D104D1F48F8184FF17C00E948031C3
:1051C000F5E02F0E311C21E08215930508F420E054
:1051D000A701455F5F4F21110EC082E090E0F20110
:1051E0009183808387EF9FEF4DCF0E9480312FEF17
:1051F000221A320AE8CF88819981E80EF91EF70158
:1052000014830383FFEFCF1ADF0A7A018A818C159A
:105210001D0409F00CF48CCFE881F981EE0DFF1D1F
:10522000428150E030E020E010E000E090E080E0DB
:10523000B3CFF12CE12CD12CC12CE8CF81E090E050
:105240009C838B83EADA882309F480CF81E090E0A5
:105250000E948A2080E40E94982078CF89899A89C8
:10526000019661F083E090E09C838B8382E090E084
:105270000E948A2080E40E94922068CF8D819E81C6
:1052800020915C0430915D0482179307D1F4609102
:10529000600470916104AE014F5E5F4F80915E04C7
:1052A00090915F040E9409340097E1F2789422E023
:1052B00030E0F20131832083892B99F08DEF9FEF4D
:1052C000E1CE89288A288B2869F6029758F6CE0104
:1052D00044DE188A1F86E8CF82E090E09C838B83AF
:1052E00035CF90E080E0CECE82E090E0F201918375
:1052F000808385EF9FEFC6CE8F929F92AF92BF9231
:10530000CF92DF92EF92FF920F931F93CF93DF9391
:10531000EA018C01060F171FF8018181833098F094
:1053200082E090E09983888386EF9FEFDF91CF91B1
:105330001F910F91FF90EF90DF90CF90BF90AF90B3
:105340009F908F9008958091A5069091A606892B35
:1053500061F081E090E02091A7063091A806232B10
:1053600011F490E080E0892B39F482E090E0998399
:1053700088838EEF9FEFDACF42DE882309F4E0C006
:10538000F8018181813009F496C0E8F0823099F407
:105390002091A7063091A806E091A506F091A606F7
:1053A00090E080E041E050E02817390709F0BEC0E6
:1053B00034DA811117C0789481E090E09983888372
:1053C00090E080E0B3CF2091A7063091A806E0914D
:1053D000A506F091A60690E080E041E050E0281795
:1053E000390741F481E090E00E948A2080E40E9425
:1053F0009820E1CF63817481672B11F0548343833C
:1054000001967396ECCFE091A506F091A606E00F09
:10541000F11F2381348122303105D9F42189328969
:105420002F3F3F4FB1F42581368140915C0450916C
:105430005D042417350761F5AF014F5E5F4F609142
:1054400060047091610480915E0490915F040E94F9
:105450000934EFEFCE1ADE0AEE0AFE0A0D5E1F4F88
:105460004091A7065091A80670E060E0C416D506EA
:10547000E606F70644F5009731F27894892B09F493
:105480009BCF82E090E0998388838DEF9FEF4ECF92
:10549000C114D104E104F104E1F622303105C8F66B
:1054A000CF015BDDE091A506F091A606E00FF11FAC
:1054B000108A1786CECF10E000E090E080E0C12C8B
:1054C000D12C7601CDCF0097C1F610E000E0812C01
:1054D000912C540183E0E82EF12C1AC0E091A5062E
:1054E000F091A606E00FF11F83819481029749F4A1
:1054F000F482E38282E090E00E948A2080E40E94AD
:105500009220FFEF8F1A9F0AAF0ABF0A0D5E1F4F4E
:105510008091A7069091A806B0E0A0E088169906B1
:10552000AA06BB06DCF290E080E0A7CF638174811D
:105530006230710511F4548343830196739634CF1E
:1055400082E090E09983888385EF9FEFEFCE00970C
:10555000B9F48FEFFB0180832091660430916704DA
:1055600043E1429FC001439F900D1124E091A506A5
:10557000F091A606E80FF91F8285FB01818308954B
:105580000C94412088E090E0FA019183808390E0C0
:1055900080E008951092A4061092A306E5EAF6E0D2
:1055A00086E0DF011D928A95E9F780E396E2909309
:1055B000A2068093A10608958091A1069091A2066B
:1055C00008952F923F924F925F926F927F928F92A7
:1055D0009F92AF92BF92CF92DF92EF92FF920F9382
:1055E0001F93CF93DF93CDB7DEB760970FB6F894D4
:1055F000DEBF0FBECDBFF894E091A306F091A406E4
:105600003196F093A406E093A3067894A091A506A2
:10561000B091A606BA83A983109709F4FAC1E09164
:10562000A706F091A806EF2B09F4F3C128874B8752
:105630005C876D877E879A878987B88BAF87312C87
:10564000212CF12C512C412C8091A7069091A80679
:105650002816390610F4FF2029F1F8948091A3064A
:105660009091A40601979093A4068093A306789442
:10567000C20160960FB6F894DEBF0FBECDBFDF91BA
:10568000CF911F910F91FF90EF90DF90CF90BF903F
:10569000AF909F908F907F906F905F904F903F90D2
:1056A0002F900895B10190E080E088D4682EEF85B6
:1056B000F889878181FD3DC0838194810397C9F575
:1056C000258136813C832B8389859A852817390764
:1056D00081F5C101ECD8782E8823A9F1AF85B8896E
:1056E0001F968D919C915097019621E01D964D91AA
:1056F0005C918417950709F020E02F83B12CA12C31
:10570000EF85F88982818A151B0419F014F0FF20B7
:10571000E9F0F885FF2309F46CC1AF85B88950968C
:105720001C921E921F97662021F0B10190E080E04C
:1057300047D4FFEF2F1A3F0A2F8538892D5E3F4F40
:10574000388B2F8781CFB1E0BF83D8CFC0D49E8361
:105750008D83E885EE23E9F0772009F43CC1AF851D
:10576000B8891F968D919C91892B79F0BBE0BA9DE9
:10577000C001BB9D900D1124AF85B889ED91FC91BE
:10578000E80FF91F85819681F9D6BFEFAB1ABB0AE6
:10579000B7CF81E0772039F0EF85F8892785308908
:1057A000232B09F080E0F82EE12CA114B10439F488
:1057B000AF85B8891796EC90E4FAEE24E0F8BBE0E8
:1057C000BA9D6001BB9DD00C1124882309F424C12B
:1057D000AF85B889ED91FC911197EC0DFD1D4381CA
:1057E00054811D962D913C91429FC001439F900D85
:1057F000529F900D1124E1105DC001969087878320
:1058000061E070E0878190852DD5EF85F889218949
:105810003289008111810C0D1D1D2F3F320709F4C3
:105820004BC0BC01C9010E944A34D80116969C9312
:105830008E931597AF85B889ED91FC911197EC0D7A
:10584000FD1D058116810115110509F4CDC0ED81FD
:10585000FE810E0F1F1F1A968C918A0DD8018C9312
:10586000E1102FC00F5F1F4FAF85B889ED91FC91FC
:10587000EC0DFD1D12870187AF85B889ED91FC9174
:10588000EC0DFD1D85819681892B09F4A4C08091C2
:105890005C0490915D042B813C812817390709F441
:1058A00065C0772011F001851285912C812C1A8218
:1058B00019824AC00596A2CF28D6F801968385831F
:1058C000B9CF8B859C85AD85BE85F8018183928398
:1058D000A383B4830B5F1F4FC7CFE080F180E80C38
:1058E000F91CD70113966D917C9114978C918F3F81
:1058F00009F473C0E1E0F0E002C0EE0FFF1F8A95EB
:10590000E2F7CF01092E000CAA0BBB0BFB01408173
:1059100051816281738184239523A623B72321E0DB
:10592000892B8A2B8B2B09F420E0D8012C93D701EB
:1059300011968C91080F111DE981FA813196FA8335
:10594000E983F7E08F0E911CAF85B889ED91FC914A
:10595000EC0DFD1D828129813A818217130611F019
:105960000CF0BBCF772011F0128701873F813323E2
:1059700091F1AF85B889ED91FC91EC0DFD1D61E0D1
:1059800070E0878190856ED4AF85B889ED91FC91E8
:10599000EC0DFD1DE780F08445815681E1E0F0E0EB
:1059A000662011F0F0E0E0E00D811E819C01B10164
:1059B000882799278E1B9F0B8DD32C01892B59F09B
:1059C000EF85F88980819181C80ED91ED601159680
:1059D0008D919C91D3D5F12CD8CEF701418150E027
:1059E000C8010E949749A3CF86EF482E55245A94A8
:1059F000CCCEEF85F889878590890196908B878733
:105A0000258536858217930709F08DCE108A178673
:105A10008ACE512C412C21CE10E000E02DCF2F92C8
:105A20003F924F925F926F927F928F929F92AF922E
:105A3000BF92CF92DF92EF92FF920F931F93CF937B
:105A4000DF938091A5069091A60610E000E0892BD7
:105A5000A9F0D5DA0AEF1FEF882381F02090A7067E
:105A60003090A806C091A506D091A606D12CC12CD5
:105A700010E000E02C143D04A9F47894C801DF91F3
:105A8000CF911F910F91FF90EF90DF90CF90BF903B
:105A9000AF909F908F907F906F905F904F903F90CE
:105AA0002F900895C6010E945724882309F18B8105
:105AB0009C810397E9F48F859889892BC9F0B601F9
:105AC00090E080E07BD221E030E0882311F030E0EC
:105AD00020E044245524421A530AB12CA12C912CC5
