:1000000024C1000053C1000051C100004FC10000D5
:100010004DC100004BC1000049C1000047C10000B4
:1000200045C1000043C1000041C100003FC10000C4
:100030003DC100003BC1000039C1000037C10000D4
:1000400035C1000033C1000031C100002FC10000E4
:100050002DC100002BC1000029C100000C94B14249
:1000600025C100000C9485460C94BB461FC10000BE
:100070001DC100001BC1000019C1000017C1000014
:1000800015C1000013C1000011C100000FC1000024
:100090000C9411470C94474709C100000C949041FF
:1000A00005C1000003C1000001C10000FFC0000045
:1000B000FDC00000FBC00000F9C00000F7C0000058
:1000C000F5C00000F3C000000C941B380C949D4751
:1000D0000C94D347EBC000000C9429480C945F4863
:1000E000E5C0000005A84CCDB2D44EB93836A902FF
:1000F0000C50B9918688083CA6AAAA2ABE00000026
:10010000803F028988083EABAAAAAABE00000080F0
:100110003F07634236B79BD8A71A39685618AEBA5C
:10012000AB558C1D3CB7CC5763BD6DEDFD753EF6F0
:10013000177231BF000000803F0000000A0B020967
:100140000C0D0E0807030401000000000000000071
:10015000000000000000000000000000000000009F
:10016000000000000000121110000000000000005C
:10017000000000000000000000000000000000007F
:1001800001021020200808102040102040800201A9
:10019000020108040201010204081020408080408E
:1001A000201008040201800402018040201008048D
:1001B000020108040201010204081020408001022B
:1001C00004081020408005050505070508080808F3
:1001D000020202020A0A08080404040401010101DF
:1001E00001010101030303030303030304070707DA
:1001F0000C0C0C0C0C0C0C0C02020202060606067F
:10020000060606060B0B0B0B0B0B0B0B000022005C
:10021000250028002B002E003100340002010000D0
:10022000050108010B0100002100240027002A001D
:100230002D003000330001010000040107010A0114
:10024000FB3EE4467047FC47884811241FBECFEFB1
:10025000D1E2DEBFCDBF00E00CBF15E0A0E0B2E010
:10026000E0E7F2E900E00BBF02C007900D92A03278
:10027000B107D9F72DE0A0E2B5E001C01D92AD3B7A
:10028000B207E1F711E0C5E2D1E000E006C0219736
:100290000109802FFE010E940549C032D10780E08C
:1002A0000807A9F70E940E390C943649A9CECF92BF
:1002B000DF92EF92FF926B017C01C114D104E10443
:1002C000F10469F480910002811109C08091020259
:1002D000909103020E946C3E81E080930002C6016F
:1002E000880F991F880F991F80509E4FFF90EF90A5
:1002F000DF90CF900895009781F0FC0121812111BA
:1003000004C040EA56E861E070E0FC01828193811C
:100310000E947B3E90E080E0089588E090E00895A0
:100320004F925F926F927F928F929F92AF92BF9205
:10033000CF92DF92EF92FF920F931F93CF93DF93B1
:100340000097C9F1280139017A01EC01402F8A8117
:100350009B810E94F93E8A819B81DC01ED91FC9199
:100360000084F185E02D1995892B01F16701812C1D
:10037000912C54018A819B81DC01ED91FC910084D8
:10038000F185E02D1995892B91F184149504A6042B
:10039000B70469F18A819B81DC01ED91FC910284B3
:1003A000F385E02D19958F3F9807C1F484E0F7019C
:1003B00011928A95E9F788E090E0DF91CF911F9143
:1003C0000F91FF90EF90DF90CF90BF90AF909F90F4
:1003D0008F907F906F905F904F900895FFEF8F1AEE
:1003E0009F0AAF0ABF0AD6018D936D01C3CF90E07B
:1003F00080E0E3CF8F929F92AF92BF92CF92DF9235
:10040000EF920F931F93CF93DF930097F1F06A0160
:10041000EC018A819B810E947E3E8A819B81DC0166
:10042000ED91FC910280F381E02DA801B6011995B0
:100430008A819B8160E0E11001C061E00E94883EFA
:10044000882389F08250823088F088E090E0DF9144
:10045000CF911F910F91EF90DF90CF90BF90AF9011
:100460009F908F90089590E080E0F1CF84E090E03D
:10047000EECF0895611102C00C94F2446130E1F3B3
:1004800062E0FACF662319F061E00C942E4560E03B
:10049000FCCFCF92DF92EF92FF92CF93882351F15E
:1004A0006A017B01CFEFC80F20E030E0A901CB014A
:1004B000B6010E94173A87FF11C0C701B6019058D4
:1004C0000E948B3A9B01AC016C2F70E090E080E0C1
:1004D000CF91FF90EF90DF90CF90B2C0C701B601EF
:1004E0000E94863A8C2FCF91FF90EF90DF90CF90B3
:1004F0000C94B843CF91FF90EF90DF90CF90089588
:100500000F931F938B019C0183E0369527951795D8
:1005100007958A95D1F7005E1A4F462F477021E064
:1005200030E0F90102C0EE0FFF1F4A95E2F7AF017C
:10053000F80120812423CB010196211102C090E013
:1005400080E01F910F9108950F931F938B019C01E1
:1005500083E036952795179507958A95D1F76770AB
:1005600081E090E001C0880F6A95EAF7F801E05E4B
:10057000FA4F2081452B31F48095822380831F918F
:100580000F910895822BFACF2F923F924F925F9254
:100590006F927F928F929F92AF92BF92CF92DF9293
:1005A000EF92FF920F931F93CF93DF93D62EC72E18
:1005B000782E692E49015A01280161E08D2D0E9493
:1005C000F244CD2DDC2D8E010F5F1F4FA8016D2D44
:1005D0007C2D872D962DB8DF20E030E0A901C201E7
:1005E000B7010E94433C181664F4C201B7010E948F
:1005F0008B3A2B01C501B4010E948B3AA201CE01B6
:1006000023D0C801DF91CF911F910F91FF90EF9000
:10061000DF90CF90BF90AF909F908F907F906F9022
:100620005F904F903F902F900895882341F0815024
:10063000682F70E090E080E050E040E085CF0895C2
:10064000862FB9010C94B8439C01FC01E65CFE4F77
:10065000E491E150E231E0F4F0E08827ED5CFC4FFA
:100660008F4F0C94054945034C034F0366037B03EE
:10067000480390039C03A003B703CC03E103F803F2
:100680000D044803220439044E0484B5806884BDF7
:1006900060E0822F0C942E4584B58062F8CF809163
:1006A00080008C7F82608093800080918100807EBA
:1006B0008061682B6093810050938700409386008F
:1006C00080918000806880938000E2CF80918000DC
:1006D0008C7F82608093800080918100807E806129
:1006E000682B60938100509387004093860080912F
:1006F00080008062E8CF809180008C7F8260809350
:10070000800080918100807E8061682B60938100F1
:100710005093870040938600809180008860D3CFFB
:100720008091B00080688093B0008091B100887F94
:10073000682B6093B100ACCF8091B0008062F3CFA2
:10074000809190008C7F82608093900080919100D6
:10075000807E8061682B6093910050939700409356
:1007600096008091900080688093900091CF809156
:1007700090008C7F82608093900080919100807EB9
:100780008061682B6093910050939700409396008E
:10079000809190008062E8CF809190008C7F826091
:1007A0008093900080919100807E8061682B60939F
:1007B000910050939700409396008091900088603C
:1007C000D3CF8091A0008C7F82608093A000809125
:1007D000A100807E8061682B6093A1005093A700E8
:1007E0004093A6008091A00080688093A00050CF25
:1007F0008091A0008C7F82608093A0008091A100F6
:10080000807E8061682B6093A1005093A700409385
:10081000A6008091A0008062E8CF8091A0008C7F2C
:1008200082608093A0008091A100807E8061682B0F
:100830006093A1005093A7004093A6008091A00070
:100840008860D3CF809120018C7F826080932001CB
:1008500080912101807E8061682B609321015093FB
:100860002701409326018091200180688093200118
:100870000FCF809120018C7F826080932001809136
:100880002101807E8061682B6093210150932701B4
:1008900040932601809120018062E8CF8091200161
:1008A0008C7F82608093200180912101807E806115
:1008B000682B60932101509327014093260180917A
:1008C00020018860D3CF90E080E008950F931F93BC
:1008D000009709F489C06115710509F485C000917C
:1008E0003F041091400420914104309142040E3F96
:1008F0001F4F2F4F3F4F09F068C04FEF5FEFBA0116
:1009000040933F0450934004609341047093420429
:1009100040913F0450914004609141047091420421
:10092000DC011296ED91FC9180819181A281B381CD
:100930008093430690934406A0934506B0934606E1
:1009400084819581A681B78180933F06909340066C
:10095000A0934106B093420680859185A285B38518
:1009600080933B0690933C06A0933D06B0933E06D1
:1009700084859585A685B78580933706909338063C
:10098000A0933906B0933A061092330610923406BB
:1009900010923506109236060E94061C8BE29CE1EE
:1009A00090932A058093290590932C0580932B051D
:1009B0000E94F51A009731F421E030E030934806A8
:1009C000209347061F910F91089500913F041091C5
:1009D00040042091410430914204DB010D931D93AA
:1009E0002D933C93139794CF8FEF9FEFEBCF8F9284
:1009F0009F92AF92BF92CF92DF92EF92FF921F939E
:100A0000CF93DF934B015C0110914A0682E090E0A6
:100A1000909348068093470681149104A104B10481
:100A200041F480914A06811104C080914906C1E0D9
:100A30008111C0E0C12CD12C760180914A06811130
:100A400006C080914906811102C0CC23D9F083E011
:100A500090E09093480680934706CC2381F1CCE93F
:100A6000DFEF111102C00E94901FCE01DF91CF91E4
:100A70001F91FF90EF90DF90CF90BF90AF909F902D
:100A80008F9008956AE070E080E090E00E9420433B
:100A900080E1C80E87E2D81EE11CF11C8FEF88169A
:100AA0009806A806B80631F0C1E08C149D04AE0487
:100AB000BF0408F0C0E080E00E94291BBECFD0E058
:100AC000C0E0CFCFCF92DF92EF92FF920F931F93B0
:100AD000CF93DF938F3F910511F008F051C0209123
:100AE0004706309148062330310539F020914706FA
:100AF000309148062130310531F424E030E0309364
:100B00004806209347066A017B01EC01823091057B
:100B1000A8F011E0AE01C701B6010E94F41AAB01C2
:100B2000BC01CE011123F9F0DF91CF911F910F91FC
:100B3000FF90EF90DF90CF900C94B9218C01000FC3
:100B4000111F075D1A4FD8018D919C91892B09F3D4
:100B50000E94C3210297E9F6D801ED91FC91CE01E4
:100B60001995182FD7CF0E94DB2190E080E0DF910C
:100B7000CF911F910F91FF90EF90DF90CF9008954C
:100B80008FEF9FEFF4CF80E00C94291BCF93DF937E
:100B900086E090E090934806809347060E94821B6F
:100BA000EC01E9E2F5E084E0DF011D928A95E9F7C6
:100BB0000E94281F1092480610924706CE01DF912E
:100BC000CF91089580914906089580913206089545
:100BD00060933F04709340048093410490934204D7
:100BE00090E080E00895CF92DF92EF92FF926B0148
:100BF0007C019F7720E030E040E859E50E94173AF9
:100C000087FF2BC020E030E040E05FE3C701B60182
:100C10000E94433C87FD0EC020E030E040E05FE3EF
:100C2000C701B6010E94A039FF90EF90DF90CF90EE
:100C30000C94F43A20E030E040E05FEBC701B601ED
:100C40000E94433C181684F420E030E0A901C7015B
:100C5000B6010E94473C6B017C01C701B601FF90C1
:100C6000EF90DF90CF90089520E030E040E05FE328
:100C7000C701B6010E949F39FF90EF90DF90CF909F
:100C80000C94043A4F925F926F927F928F929F9250
:100C9000AF92BF92CF92DF92EF92FF920F931F938A
:100CA000CF93DF93CDB7DEB7A5970FB6F894DEBF2D
:100CB0000FBECDBF80919D0D8150823008F4B8C524
:100CC00080E080939D0D80919C0D8150823008F4CE
:100CD000B1C580E080939C0D80919B0D8150823046
:100CE00008F4AAC580E080939B0D80919A0D8150F5
:100CF000823008F4A3C580E080939A0D8091990D0D
:100D00008150823008F49CC580E08093990D8091D9
:100D1000980D8150823008F495C580E08093980D3D
:100D2000C0903802D0903902E0903A02F0903B0235
:100D3000A70196016091230D7091240D8091250DDE
:100D40009091260D0E94173A882341F0C092230DFE
:100D5000D092240DE092250DF092260D8CE089872B
:100D6000C12CEE24E39401E010E020E030E0AE017D
:100D7000475F5F4F66E370E08091190D90911A0D07
:100D800039DB8987811160C5CC24C394E12C04E050
:100D900010E020E030E0AE014F5F5F4F66E370E0AF
:100DA0008091190D90911A0DBBDA84E0FE01319605
:100DB000DE01159601900D928A95E1F78D819E8155
:100DC0009D838E838F8198859F8388872091470D8F
:100DD0003091480D4091490D50914A0D6091A40306
:100DE0007091A5038091A6039091A7030E94473CB0
:100DF0006A8F7B8F8C8F9D8F2091380430913904BE
:100E0000AF81B8850E940D496B017C01C0920F0D26
:100E1000D092100DE092110DF092120D81E090E051
:100E20004091340250913502609136027091370240
:100E3000C416D506E606F70610F090E080E0209193
:100E40003E04289FB001299F700D1124072E000C2D
:100E5000880B990B0E94B93A9B01AC010E94A03902
:100E60004B015C01C701B6010E94B73A20E030E0B7
:100E700040E056E30E94473C9B01AC01C501B40130
:100E80000E94A0392091A8033091A9034091AA03A0
:100E90005091AB030E949F392091AC033091AD0378
:100EA0004091AE035091AF030E94473C6A877B8715
:100EB0008C879D876093D70C7093D80C8093D90C46
:100EC0009093DA0C2091B0033091B1034091B203BA
:100ED0005091B3030E94473C6B017C01C092DB0C34
:100EE000D092DC0CE092DD0CF092DE0C80914B0D88
:100EF00090914C0DA0914D0DB0914E0D8E879F8716
:100F0000A88BB98B40904F0D5090500D6090510DB3
:100F10007090520D2091D4033091D5034091D603A7
:100F20005091D703BC01CD010E94473C4B015C01AD
:100F30002091D8033091D9034091DA035091DB031B
:100F4000C301B2010E94473C9B01AC01C501B40141
:100F50000E94A0394B015C012091E4033091E5032C
:100F60004091E6035091E7036A8D7B8D8C8D9D8DBA
:100F70000E94473C6A8B7B8B8C8B9D8B2091E80376
:100F80003091E9034091EA035091EB03C701B601A8
:100F90000E94473C9B01AC016A897B898C899D89B1
:100FA0000E94A0399B01AC01C501B4010E94A03987
:100FB0006093CF0C7093D00C8093D10C9093D20C93
:100FC0002091DC033091DD034091DE035091DF037B
:100FD0006E857F85888999890E94473C4B015C0119
:100FE0002091E0033091E1034091E2035091E3034B
:100FF000C301B2010E94473C9B01AC01C501B40191
:101000000E94A0394B015C012091EC033091ED036B
:101010004091EE035091EF036A8D7B8D8C8D9D8DF9
:101020000E94473C2B013C012091F0033091F103D9
:101030004091F2035091F303C701B6010E94473C6F
:101040009B01AC01C301B2010E94A0399B01AC011C
:10105000C501B4010E94A0396093D30C7093D40CE5
:101060008093D50C9093D60C6093DF0C7093E00CBA
:101070008093E10C9093E20CE0910C06F0910D0648
:10108000C080D180E280F3802091FC033091FD0389
:101090004091FE035091FF03C701B6010E94173A29
:1010A00087FFD5C38091000490910104A0910204B0
:1010B000B09103048093070D9093080DA093090D40
:1010C000B0930A0D209108043091090440910A045C
:1010D00050910B04C701B6010E94173A87FFC0C3A5
:1010E00080910C0490910D04A0910E04B0910F0416
:1010F00080930B0D90930C0DA0930D0DB0930E0DDE
:101100002091140430911504409116045091170455
:10111000C701B6010E94173A87FFABC3809118043C
:1011200090911904A0911A04B0911B048093030DAF
:101130009093040DA093050DB093060D20910B0D17
:1011400030910C0D40910D0D50910E0D6091070DD9
:101150007091080D8091090D90910A0D0E94A0399F
:101160002091030D3091040D4091050D5091060D15
:101170000E94A0396B017C01C092E30CD092E40C78
:10118000E092E50CF092E60C20E030E0A9016091DD
:1011900020047091210480912204909123040E94E4
:1011A000173A882309F46EC3C092E70CD092E80C7A
:1011B000E092E90CF092EA0C2A853B854C855D852E
:1011C0006091E70C7091E80C8091E90C9091EA0C29
:1011D0000E949F396093EB0C7093EC0C8093ED0CA4
:1011E0009093EE0C8FEF8093970DC090F803D09002
:1011F000F903E090FA03F090FB0320E030E0A9014E
:10120000C701B6010E94173A87FF4DC3C701B60157
:101210000E94043A6093030D7093040D8093050DB2
:101220009093060D6091030D7091040D8091050D52
:101230009091060D0E94F119882309F439C3109288
:10124000030D1092040D1092050D1092060DC09022
:10125000030DD090040DE090050DF090060D20E0F8
:1012600030E0A901C701B6010E94173A87FF43C3C6
:10127000C701B60190580E948B3A90958095709561
:1012800061957F4F8F4F9F4F6330710581059105A9
:1012900009F44BC30CF034C361307105810591052D
:1012A00009F43CC3623071058105910509F439C325
:1012B0008091970D823011F40C9424120CF03BC3F2
:1012C000882309F47BC5813009F4CEC767E070E05C
:1012D00080E090E015D98C019093460D8093450DE8
:1012E0002091EF0C3091F00C4091F10C5091F20CE8
:1012F00060912C0470912D0480912E0490912F0404
:101300000E94473C6B017C0120E030E04FE753E452
:101310000E94173A181614F40C949916C092030DF3
:10132000D092040DE092050DF092060D20E030E021
:10133000A9016091030D7091040D8091050D9091AC
:10134000060D0E94433C87FF08C01092030D1092C7
:10135000040D1092050D1092060D4091030D509151
:10136000040D6091050D7091060DC80192D8609131
:10137000300470913104809132049091330433DC55
:101380006B017C01C092030DD092040DE092050D1B
:10139000F092060D20E030E040E853E40E94173A56
:1013A00087FD02C00C94AA1620E030E0A901C70115
:1013B000B6010E94433C87FF02C00C94A716C701E8
:1013C000B6010E948B3A698769858BE05BD8C09033
:1013D000030DD090040DE090050DF090060D20E077
:1013E00030E040E853E4C701B6010E94173A87FD98
:1013F00002C00C94B11620E030E0A901C701B6018B
:101400000E94433C87FF02C00C94AE16C701B60190
:101410000E948B3A698769858CE034D860913404E6
:10142000709135048091360490913704DCDB6B01B8
:101430007C01C092030DD092040DE092050DF09254
:10144000060D20E030E040E853E40E94173A87FDA3
:1014500002C00C94B81620E030E0A901C701B60123
:101460000E94433C87FF02C00C94B516C701B60129
:101470000E948B3A6987698586E004D88091EF0CD9
:101480009091F00CA091F10CB091F20C8093470D6B
:101490009093480DA093490DB0934A0DC0904B0D09
:1014A000D0904C0DE0904D0DF0904E0D40904F0DB2
:1014B0005090500D6090510D7090520D8091DB0C4A
:1014C0009091DC0CA091DD0CB091DE0C8A879B879B
:1014D000AC87BD872091BC033091BD034091BE0312
:1014E0005091BF03C701B6010E94473C4B015C010C
:1014F0002091C0033091C1034091C2035091C303B6
:10150000C301B2010E94473C9B01AC01C501B4017B
:101510000E94A0394B015C012091CC033091CD0396
:101520004091CE035091CF036A8D7B8D8C8D9D8D24
:101530000E94473C6E877F87888B998B2091D003D0
:101540003091D1034091D2035091D3036A857B85BA
:101550008C859D850E94473C9B01AC016E857F85F3
:10156000888999890E94A0399B01AC01C501B40109
:101570000E94A0394B015C012091B4033091B50366
:101580004091B6035091B703C701B6010E94473C92
:101590006B017C012091B8033091B9034091BA03EB
:1015A0005091BB03C301B2010E94473C9B01AC01B7
:1015B000C701B6010E94A0396B017C012091C403D0
:1015C0003091C5034091C6035091C7036A8D7B8D4E
:1015D0008C8D9D8D0E94473C2B013C012091C803BE
:1015E0003091C9034091CA035091CB036A857B8532
:1015F0008C859D850E94473C9B01AC01C301B201D3
:101600000E94A0399B01AC01C701B6010E94A0391C
:1016100060934B0D70934C0D80934D0D90934E0D38
:1016200080924F0D9092500DA092510DB092520D9C
:101630006091F5057091F6058091F7059091F80598
:101640000E94B73A20E030E040E85FE40E94473C67
:101650006B017C016091F1057091F2058091F305B9
:101660009091F4050E94B73A9B01AC01C701B60105
:101670000E94A03920E030E0A9010E94A0390E9418
:101680008B3AAB01BC0190E080E01CDA609101066E
:101690007091020680910306909104060E94B73A69
:1016A00020E030E040E85FE40E94473C6B017C01B1
:1016B0006091FD057091FE058091FF0590910006F7
:1016C0000E94B73A9B01AC01C701B6010E94A03944
:1016D00020E030E0A9010E94A0390E948B3AAB01C2
:1016E000BC0181E090E0EED9C090F105D090F20508
:1016F000E090F305F090F4059FEFC91AD90AE90AC2
:10170000F90AC092F105D092F205E092F305F09249
:10171000F405C114D104E104F10499F48091F505B4
:101720009091F605A091F705B091F8050196A11DDD
:10173000B11D8093F5059093F605A093F705B0933E
:10174000F8058090F9059090FA05A090FB05B090FF
:10175000FC0500910C0610910D066091F505709145
:10176000F6058091F7059091F8050E94B73AA5011A
:1017700094010E94473C20E030E040E85FE40E9492
:10178000473C2B013C01C701B6010E94B73AA501B5
:1017900094010E94473C9B01AC01C301B2010E942D
:1017A000A039D8016D937D938D939C93139780916D
:1017B000FD059091FE05A091FF05B09100060196F0
:1017C000A11DB11D8093FD059093FE05A093FF051B
:1017D000B0930006892B8A2B8B2B99F480910106FC
:1017E00090910206A0910306B09104060196A11DF6
:1017F000B11D8093010690930206A0930306B09357
:101800000406A5960FB6F894DEBF0FBECDBFDF91DC
:10181000CF911F910F91FF90EF90DF90CF90BF90ED
:10182000AF909F908F907F906F905F904F900895B2
:1018300083E047CA83E04ECA83E055CA83E05CCAAE
:1018400083E063CA83E06ACA18861F82BFCA809198
:10185000040490910504A0910604B09107042ACCD9
:101860008091100490911104A0911204B09113047E
:101870003FCC80911C0490911D04A0911E04B09156
:101880001F0454CC8091240490912504A091260437
:10189000B09127048093E70C9093E80CA093E90C97
:1018A000B093EA0C89CCC701B6010E94F43AB2CCDD
:1018B0006091030D7091040D8091050D9091060DBE
:1018C0000E94AC198111BBCC6091030D7091040D85
:1018D0008091050D9091060D20E030E040E85FE436
:1018E0000E940E3B6093030D7093040D8093050DD1
:1018F0009093060DACCCC701B6010E948B3AC4CCC4
:101900006530710581059105A1F08CF06630710597
:101910008105910509F0CCCC85E004C01092970DAB
:10192000C7CC81E08093970DC3CC82E0FBCF83E0EE
:10193000F9CF84E0F7CF843011F40C944D1514F4F2
:101940000C94B214853009F0C1CC2091D70C3091A1
:10195000D80C4091D90C5091DA0C609148037091E9
:10196000490380914A0390914B030E94473C4B01ED
:101970005C0180920B0D90920C0DA0920D0DB09217
:101980000E0D2091EB0C3091EC0C4091ED0C509130
:10199000EE0C60914C0370914D0380914E03909139
:1019A0004F030E94473CA50194010E94A0396B019E
:1019B0007C018091530D9091540DA091550DB091E3
:1019C000560D8A879B87AC87BD878091570D909174
:1019D000580DA091590DB0915A0D8E879F87A88BF5
:1019E000B98B209168033091690340916A0350914B
:1019F0006B036A857B858C859D850E94473C2B0106
:101A00003C0120916C0330916D0340916E03509125
:101A10006F036E857F85888999890E94473C9B0169
:101A2000AC01C301B2010E94A0392B013C012091FD
:101A30007003309171034091720350917303C70199
:101A4000B6010E94473CA30192010E94A039A50162
:101A500094010E949F392B013C012091300230916A
:101A600031024091320250913302C501B4010E940B
:101A7000473CA30192010E94473C6E8F7F8F88A351
:101A800099A36093030D7093040D8093050D9093BB
:101A9000060D209178033091790340917A0350919B
:101AA0007B03C701B6010E94473C20912C02309174
:101AB0002D0240912E0250912F020E94473CA3011B
:101AC00092010E94473C6AA37BA38CA39DA36093D1
:101AD000070D7093080D8093090D90930A0D809166
:101AE0005B0D90915C0DA0915D0DB0915E0D8A8BA8
:101AF0009B8BAC8BBD8B8093F30C9093F40CA093D9
:101B0000F50CB093F60C80915F0D9091600DA09153
:101B1000610DB091620D8E8B9F8BA88FB98F8093D2
:101B2000F70C9093F80CA093F90CB093FA0C609119
:101B300001067091020680910306909104060E94AE
:101B4000B73A20E030E040E85FE40E94473C2B01D8
:101B50003C016091FD057091FE058091FF0590911B
:101B600000060E94B73A9B01AC01C301B2010E947A
:101B7000A0392AE037ED43E25BE30E94473C209125
:101B80008C0330918D0340918E0350918F030E94FE
:101B9000173A87FD02C00C946C1640909003509049
:101BA000910360909203709093032E893F89488D32
:101BB000598DC501B4010E94473C4B015C01A7014E
:101BC00096016A897B898C899D890E94473C9B018B
:101BD000AC01C501B4010E94A039A30192010E9489
:101BE000473C209128023091290240912A025091CD
:101BF0002B020E94A0394B015C0140909803509049
:101C0000990360909A0370909B03AC019B01C30100
:101C1000B2010E94173A87FD02C00C9476164092DA
:101C2000EF0C5092F00C6092F10C7092F20C20913B
:101C300058033091590340915A0350915B036A85D0
:101C40007B858C859D850E94473C4B015C012091E2
:101C50005C0330915D0340915E0350915F036E859C
:101C60007F85888999890E94473C9B01AC01C50109
:101C7000B4010E94A0394B015C01209164033091B2
:101C800065034091660350916703C701B6010E9446
:101C9000473C9B01AC01C501B4010E94A0394B0136
:101CA0005C012091500330915103409152035091B7
:101CB00053036A857B858C859D850E94473C2B015B
:101CC0003C012091540330915503409156035091AB
:101CD00057036E857F85888999890E94473C9B01BF
:101CE000AC01C301B2010E94A0392B013C0120913B
:101CF0006003309161034091620350916303C70117
:101D0000B6010E94473C9B01AC01C301B2010E9495
:101D1000A0396093530D7093540D8093550D90939B
:101D2000560D8092570D9092580DA092590DB09279
:101D30005A0D20917C0330917D0340917E03509198
:101D40007F036AA17BA18CA19DA10E94473C2A89A7
:101D50003B894C895D890E94A03960935B0D70932B
:101D60005C0D80935D0D90935E0D20918403309106
:101D7000850340918603509187036E8D7F8D88A1E6
:101D800099A10E94473C2E893F89488D598D0E9418
:101D9000A03960935F0D7093600D8093610D9093F7
:101DA000620D8091980D882309F4C0C7833009F033
:101DB000B9C781E090E08093980D88CA60910106D0
:101DC0007091020680910306909104060E94B73A32
:101DD00020E030E040E85FE40E94473C6B017C017A
:101DE0006091FD057091FE058091FF0590910006C0
:101DF0000E94B73A9B01AC01C701B6010E94A0390D
:101E00002AE037ED43E25BE30E94473C2091440225
:101E10003091450240914602509147020E94173A84
:101E200087FFC9C08091480290914902A0914A025F
:101E3000B0914B028093030D9093040DA093050D78
:101E4000B093060D2091EB0C3091EC0C4091ED0C11
:101E50005091EE0C6091030D7091040D8091050D71
:101E60009091060D0E94473C209150023091510202
:101E700040915202509153020E94473C6B017C01F9
:101E800020910C0230910D0240910E0250910F02F0
:101E90000E94473C6E877F87888B998B6093030DE8
:101EA0007093040D8093050D9093060D209104020C
:101EB000309105024091060250910702C701B60118
:101EC0000E94473C209158023091590240915A0299
:101ED00050915B020E94473C6A877B878C879D8775
:101EE0006093070D7093080D8093090D90930A0D70
:101EF00080917F0D9091800DA091810DB091820D08
:101F00008A8B9B8BAC8BBD8B20911C0230911D0268
:101F100040911E0250911F02C701B6010E94473C2A
:101F20002A893B894C895D890E94A0396B017C011B
:101F30002091830D3091840D4091850D5091860D37
:101F40006A857B858C859D850E949F399B01AC01AC
:101F5000C701B6010E94A0396B017C01C092FF0C41
:101F6000D092000DE092010DF092020D80902402BB
:101F700090902502A0902602B0902702A50194011E
:101F80000E94433C181604F5A5019401C701B6014F
:101F90000E949F3960930B0D70930C0D80930D0D73
:101FA00090930E0D8092FF0C9092000DA092010D67
:101FB000B092020D29C080914C0290914D02A091E7
:101FC0004E02B0914F0236CF8090180290901902C5
:101FD000A0901A02B0901B02A5019401C701B6019E
:101FE0000E94433C87FDFBC010920B0D10920C0D1C
:101FF00010920D0D10920E0DA5019401C701B601AE
:102000000E94173A87FDCECF8090870D9090880D63
:10201000A090890DB0908A0D2091680230916902DC
:1020200040916A0250916B02C501B4010E94473C85
:102030009B01AC016091FF0C7091000D8091010D2E
:102040009091020D0E949F392091640230916502A7
:1020500040916602509167020E941E3A6B017C011A
:10206000C092FF0CD092000DE092010DF092020D93
:1020700020915C0230915D0240915E0250915F02BE
:102080000E94473C2B013C0120916002309161028B
:102090004091620250916302C501B4010E94473C25
:1020A0009B01AC01C301B2010E94A03920917002D2
:1020B0003091710240917202509173020E94473C2C
:1020C000209128023091290240912A0250912B023E
:1020D0000E94A0396093EF0C7093F00C8093F10C88
:1020E0009093F20C40900B0D50900C0D60900D0DE4
:1020F00070900E0D8090400290904102A09042029C
:10210000B0904302A5019401C301B2010E94433C77
:1021100000913A04181614F000913B04A5019401B3
:102120006E857F85888999890E94433C10913C0483
:10213000181614F010913D04A5019401C301B201D9
:102140000E94173A882391F0011310C080913C023D
:1021500090913D02A0913E02B0913F028093030D09
:102160009093040DA093050DB093060D2091030DDF
:102170003091040D4091050D5091060D609154026F
:102180007091550280915602909157020E94473CEF
:102190002A893B894C895D890E94A0394B015C01E9
:1021A00080927F0D9092800DA092810DB092820D51
:1021B00040902002509021026090220270902302F1
:1021C000A30192010E94433C87FD18C040927F0DFD
:1021D0005092800D6092810D7092820D1FC0A501FA
:1021E0009401C701B6010E949F3960930B0D709353
:1021F0000C0D80930D0D90930E0DFECE40901402A9
:10220000509015026090160270901702A30192017F
:10221000C501B4010E94173A1816C4F68A859B8539
:10222000AC85BD858093830D9093840DA093850D1F
:10223000B093860DC092870DD092880DE092890DE3
:10224000F0928A0D80919D0D882359F0833029F4F6
:1022500081E090E080939D0D39C8082E000C990B09
:10226000F9CF82E090E0F6CFC0907B0DD0907C0D4E
:10227000E0907D0DF0907E0D809078029090790234
:10228000A0907A02B0907B02A5019401C701B6012B
:102290000E94433C18160CF08FC08092EF0C909275
:1022A000F00CA092F10CB092F20C2091EB0C30915A
:1022B000EC0C4091ED0C5091EE0C6091800270910D
:1022C000810280918202909183020E94473C609338
:1022D000FB0C7093FC0C8093FD0C9093FE0C2091F2
:1022E00084023091850240918602509187020E94BB
:1022F000473C2091DF0C3091E00C4091E10C509173
:10230000E20C0E94A039209188023091890240910C
:102310008A0250918B020E94473C6093030D709398
:10232000040D8093050D9093060D0E94F1198823EA
:1023300009F45BC08091AF0D9091B00DA091B10DEB
:10234000B091B20D8093030D9093040DA093050DF1
:10235000B093060D2091030D3091040D4091050DB1
:102360005091060D60918C0270918D0280918E02C9
:1023700090918F020E94473C2091900230919102EF
:1023800040919202509193020E94A03960937B0D7C
:1023900070937C0D80937D0D90937E0D80919C0DAC
:1023A000882309F44EC0833009F047C081E090E0F3
:1023B00080939C0D0C94660980907C0290907D0225
:1023C000A0907E02B0907F02A5019401C701B601E2
:1023D0000E94173A87FD61CFC092EF0CD092F00CAB
:1023E000E092F10CF092F20C60CFC090030DD0900F
:1023F000040DE090050DF090060D20E030E0A901FD
:10240000C701B6010E94173A87FF05C080E090E03F
:10241000A0E8BFEB97CF20E030E0A901C701B601EB
:102420000E94433C18162CF480E090E0A0E8BFE343
:1024300089CF80E090E0DC0185CF082E000C990B5D
:10244000B7CF82E090E0B4CF6091010670910206B0
:1024500080910306909104060E94B73A20E030E094
:1024600040E85FE40E94473C6B017C016091FD0500
:102470007091FE058091FF05909100060E94B73A89
:102480009B01AC01C701B6010E94A0392AE037EDDB
:1024900043E25BE30E94473C209194023091950215
:1024A00040919602509197020E94173A87FF4AC2C4
:1024B000609198027091990280919A0290919B028A
:1024C0002091EB0C3091EC0C4091ED0C5091EE0C06
:1024D0000E94473C2091A0023091A1024091A202AB
:1024E0005091A3020E94473C4B015C0140906B0D50
:1024F00050906C0D60906D0D70906E0D80916F0D11
:102500009091700DA091710DB091720D8A879B878B
:10251000AC87BD878091730D9091740DA091750D5E
:10252000B091760D8E879F87A88BB98B8091770DA0
:102530009091780DA091790DB0917A0D8A8B9B8B3B
:10254000AC8BBD8B2091E8023091E9024091EA0208
:102550005091EB02C301B2010E94473C6B017C0128
:102560002091EC023091ED024091EE025091EF0289
:102570006A857B858C859D850E94473C9B01AC01CB
:10258000C701B6010E94A0396B017C012091F002C5
:102590003091F1024091F2025091F3026E857F85F5
:1025A000888999890E94473C9B01AC01C701B6010B
:1025B0000E94A0396B017C012091F4023091F50258
:1025C0004091F6025091F7026A897B898C899D8936
:1025D0000E94473C9B01AC01C701B6010E94A03993
:1025E0006B017C012091F8023091F9024091FA02CE
:1025F0005091FB02C501B4010E94473CA70196011E
:102600000E94A03920910003309101034091020300
:10261000509103030E94473C2091280230912902E7
:1026200040912A0250912B020E94A0396093EF0C36
:102630007093F00C8093F10C9093F20C2091A8020F
:102640003091A9024091AA025091AB02C301B2019C
:102650000E94473C6B017C012091AC023091AD029D
:102660004091AE025091AF026A857B858C859D8535
:102670000E94473C9B01AC01C701B6010E94A039F2
:102680006B017C012091B0023091B1024091B20205
:102690005091B3026E857F85888999890E94473C55
:1026A0009B01AC01C701B6010E94A0396B017C01FE
:1026B0002091B4023091B5024091B6025091B70218
:1026C0006A897B898C899D890E94473C9B01AC016A
:1026D000C701B6010E94A0396B017C012091DC0288
:1026E0003091DD024091DE025091DF02C501B4015C
:1026F0000E94473C9B01AC01C701B6010E94A03972
:102700006E8B7F8B888F998F2091B8023091B902A0
:102710004091BA025091BB02C301B2010E94473CF2
:102720006B017C012091BC023091BD024091BE0240
:102730005091BF026A857B858C859D850E94473CB0
:102740009B01AC01C701B6010E94A0396B017C015D
:102750002091C0023091C1024091C2025091C30247
:102760006E857F85888999890E94473C9B01AC01D1
:10277000C701B6010E94A0396B017C012091C402FF
:102780003091C5024091C6025091C7026A897B8987
:102790008C899D890E94473C9B01AC01C701B60111
:1027A0000E94A0396B017C012091E0023091E1028E
:1027B0004091E2025091E302C501B4010E94473CFE
:1027C0009B01AC01C701B6010E94A0396E8F7F8FBB
:1027D00088A399A32091C8023091C9024091CA02EE
:1027E0005091CB02C301B2010E94473C6B017C01B6
:1027F0002091CC023091CD024091CE025091CF0277
:102800006A857B858C859D850E94473C9B01AC0138
:10281000C701B6010E94A0396B017C012091D00252
:102820003091D1024091D2025091D3026E857F85C2
:10283000888999890E94473C9B01AC01C701B60178
:102840000E94A0396B017C012091D4023091D50205
:102850004091D6025091D7026A897B898C899D89E3
:102860000E94473C9B01AC01C701B6010E94A03900
:102870006B017C012091E4023091E5024091E60277
:102880005091E702C501B4010E94473C9B01AC0195
:10289000C701B6010E94A0396B017C012091A402FE
:1028A0003091A5024091A6025091A702C301B20146
:1028B0000E94473C2B013C012091D8023091D90263
:1028C0004091DA025091DB02C501B4010E94473CFD
:1028D0009B01AC01C301B2010E94A03960936B0D52
:1028E00070936C0D80936D0D90936E0D8E899F8902
:1028F000A88DB98D80936F0D9093700DA093710D7D
:10290000B093720D8E8D9F8DA8A1B9A18093730D88
:102910009093740DA093750DB093760DC092770DC2
:10292000D092780DE092790DF0927A0D80919B0D06
:102930008823A9F0833079F481E090E080939B0DA7
:102940000C94660960919C0270919D0280919E0298
:1029500090919F02B5CD082E000C990BEFCF82E02D
:1029600090E0ECCFC090670DD090680DE090690DBD
:10297000F0906A0D8090080390900903A0900A03DC
:10298000B0900B03A5019401C701B6010E94433C1E
:1029900018160CF062C08092EF0C9092F00CA0928E
:1029A000F10CB092F20C2091EB0C3091EC0C4091B8
:1029B000ED0C5091EE0C6091100370911103809119
:1029C0001203909113030E94473C2091140330910D
:1029D000150340911603509117030E94473C209124
:1029E000DF0C3091E00C4091E10C5091E20C0E9420
:1029F000A039209118033091190340911A03509186
:102A00001B030E94473C0E94AA3C20911C0330916A
:102A10001D0340911E0350911F030E94473C2091CB
:102A200020033091210340912203509123030E94FF
:102A3000A0396093670D7093680D8093690D909332
:102A40006A0D80919A0D882329F18330F9F481E091
:102A500090E080939A0D0C94660980900C039090FE
:102A60000D03A0900E03B0900F03A5019401C701C0
:102A7000B6010E94173A87FD8ECFC092EF0CD0921C
:102A8000F00CE092F10CF092F20C8DCF082E000CBD
:102A9000990BDFCF82E090E0DCCFC090630DD09047
:102AA000640DE090650DF090660D80902803909085
:102AB0002903A0902A03B0902B03A5019401C7011C
:102AC000B6010E94433C18160CF0BEC08092EF0C79
:102AD0009092F00CA092F10CB092F20C2091EB0CC1
:102AE0003091EC0C4091ED0C5091EE0C6091300364
:102AF0007091310380913203909133030E94473CDF
:102B00006093070D7093080D8093090D90930A0D43
:102B1000209138033091390340913A0350913B039F
:102B20000E94473C2091DF0C3091E00C4091E10C79
:102B30005091E20C0E94A03920913C0330913D035A
:102B400040913E0350913F030E94473C6093030D28
:102B50007093040D8093050D9093060D42D4882345
:102B600009F48BC08091AF0D9091B00DA091B10D83
:102B7000B091B20D8093030D9093040DA093050DB9
:102B8000B093060D6091070D7091080D8091090DAD
:102B900090910A0D0E941B3A4B015C012091030D9C
:102BA0003091040D4091050D5091060D6091400348
:102BB0007091410380914203909143030E94473CEE
:102BC0006B017C012091DF0C3091E00C4091E10C15
:102BD0005091E20C6091440370914503809146034B
:102BE000909147030E94473C9B01AC01C701B6018D
:102BF0000E94A0396B017C01209134033091350390
:102C00004091360350913703C501B4010E94473CFF
:102C10009B01AC01C701B6010E94A0396093630D0E
:102C20007093640D8093650D9093660D8091990D5E
:102C3000882309F44EC0833009F047C081E090E05A
:102C40008093990D0C94660980902C0390902D032D
:102C5000A0902E03B0902F03A5019401C701B601E7
:102C60000E94173A87FD32CFC092EF0CD092F00C41
:102C7000E092F10CF092F20C31CFC090030DD090A5
:102C8000040DE090050DF090060D20E030E0A90164
:102C9000C701B6010E94173A87FF05C080E090E0A7
:102CA000A0E8BFEB67CF20E030E0A901C701B60183
:102CB0000E94433C18162CF480E090E0A0E8BFE3AB
:102CC00059CF80E090E0DC0155CF082E000C990B25
:102CD000B7CF82E090E0B4CF40909403509095033A
:102CE00060909603709097030C94D50D40909C03D0
:102CF00050909D0360909E0370909F03A5019401E6
:102D0000C301B2010E94433C181614F40C940F0E38
:102D10008092EF0C9092F00CA092F10CB092F20C19
:102D20000C94170E082E000C990B45C882E090E019
:102D300042C880E090E0AFE7B3E48093030D909346
:102D4000040DA093050DB093060D0C9496091986F9
:102D50000C94E4098FEF89870C94E40919860C948C
:102D60000B0A8FEF89870C940B0A19860C943B0A87
:102D70008FEF89870C943B0A4F925F926F927F92FC
:102D80008F929F92AF92BF92DF92EF92FF920F933A
:102D90001F93CF93DF9384E090E0A7D2E9E5F5E0BD
:102DA0008DEBDF011D928A95E9F789E096E0978324
:102DB0008683CCE0D6E0D0939A05C093990509EFBD
:102DC00015E0158B048BF093C405E093C305F583E0
:102DD000E48321E030E0DC012D933C9388E694E02D
:102DE000938782872EE036E03983288340E050E0E5
:102DF00060E87FEB40930506509306066093070654
:102E0000709308064AE057ED63E27BE3D8014D93E7
:102E10005D936D937C931397CFEDD5E080EE9DE8A5
:102E2000ADEDB4E288839983AA83BB838CE391E7F9
:102E3000A8E1BAEC8093E3059093E405A093E5053F
:102E4000B093E6058DE194E1ABECB4EA8093E7053D
:102E50009093E805A093E905B093EA058DE595E523
:102E6000A6EFBFEB8093EB059093EC05A093ED05E7
:102E7000B093EE05ADE4B5E0B383A283EDE2F5E0F7
:102E80001196FC93EE938AE794E091838083938379
:102E900082839583848397838683918780879387B2
:102EA000828788E99DE0958784878DE99DE09787F3
:102EB0008687918B808B938B828B958B848B978B62
:102EC000868B8BE99DE0918F808F8AE99DE0938FBF
:102ED000828F89E99DE0958F848F8CE99DE0978FA3
:102EE000868F8FEE95E015969C938E93149713968C
:102EF000DC93CE93129717963C932E9316978FECF4
:102F0000882E8CE0982E84E4F40111928A95E9F7DA
:102F1000C3E1DDE080E9DE011D928A95E9F780E0FA
:102F200090E5A3ECB8E48C879D87AE87BF87DD244E
:102F3000D394D092A20D94E0A92E92E0B92EF5017F
:102F400084A995A9A6A9B7A9888B998BAA8BBB8BB5
:102F5000412C512C3201439449825A826B827C82EB
:102F600050E040E060E070E0CB010E9457019F8399
:102F70008E8340EA56E861E070E0488759876A87A7
:102F80007B870E947B01DD828FEF8093970D1CA6CB
:102F9000D0929E0D4DA65EA66FA678AAE12CF12CCC
:102FA0008701A801970167E070E080E090E00E944F
:102FB000C4029BAB8AABD9AA1CA2D092A10D4DA290
:102FC0005EA26FA278A661E08BE00E943A02D9A6C9
:102FD0001C8ED092A00D4D8E5E8E6F8E78A261E019
:102FE0008CE00E943A02D9A21C8AD0929F0D4D8A91
:102FF0005E8A6F8A788E61E086E00E943A02D98EFE
:103000008091A0039091A103A091A203B091A3038A
:103010008CAB9DABAEABBFAB8091F4039091F5034D
:10302000A091F603B091F70388AF99AFAAAFBBAFF9
:103030008CAF9DAFAEAFBFAFF50184859585A685FA
:10304000B78580937F0D9093800DA093810DB093F1
:10305000820D84819581A681B7818093830D9093A1
:10306000840DA093850DB093860D80916C02909194
:103070006D02A0916E02B0916F028093870D9093C4
:10308000880DA093890DB0938A0D80917402909160
:103090007502A0917602B091770280937B0D909398
:1030A0007C0DA0937D0DB0937E0D8091FC029091DC
:1030B000FD02A091FE02B091FF0280936B0D9093F0
:1030C0006C0DA0936D0DB0936E0D80936F0D90936A
:1030D000700DA093710DB093720D8093730D90934A
:1030E000740DA093750DB093760D8093770D90932A
:1030F000780DA093790DB0937A0D8091040390918F
:103100000503A0910603B09107038093670D909388
:10311000680DA093690DB0936A0D8091240390917E
:103120002503A0912603B09127038093630D90930C
:10313000640DA093650DB093660D8091740390911A
:103140007503A0917603B09177038093530D90930C
:10315000540DA093550DB093560D8093570D909339
:10316000580DA093590DB0935A0D80918003909102
:103170008103A0918203B091830380935B0D9093B0
:103180005C0DA0935D0DB0935E0D809188039091CE
:103190008903A0918A03B0918B0380935F0D909374
:1031A000600DA093610DB093620D80912804909101
:1031B0002904A0912A04B0912B04F40180A391A3C7
:1031C000A2A3B3A3DF91CF911F910F91FF90EF9036
:1031D000DF90BF90AF909F908F907F906F905F90A7
:1031E0004F9008958091130D811119C081E0809353
:1031F000130D8091140D9091150DA091160DB091A5
:10320000170D0197A105B10551F48091180D882380
:1032100031F08091190D90911A0D0E943902809120
:103220003F0D81112EC081E080933F0D8091400DB4
:103230009091410DA091420DB091430D0197A105D0
:10324000B105F9F48091440D8823D9F067E070E06E
:1032500080E090E00E9480029093460D8093450D9F
:1032600040E050E0BA010E94490267E070E080E06F
:1032700090E00E9480029093460D8093450D0E943D
:1032800015038091370D811103C081E08093370DC4
:1032900080912F0D811103C081E080932F0D8091CB
:1032A000270D811103C081E08093270D089560E010
:1032B00070E080E89FE7089560E070E080E89FE7B5
:1032C000089560E070E080E89FEF089560E070E0AE
:1032D00080E89FEF089560E070E080EC9FEF089534
:1032E00060E070E080EC9FEF0895F5DF6093AF0D34
:1032F0007093B00D8093B10D9093B20DF1DF609398
:10330000A30D7093A40D8093A50D9093A60DCFDF10
:103310006093AB0D7093AC0D8093AD0D9093AE0D9B
:10332000CBDF6093A70D7093A80D8093A90D9093A8
:10333000AA0DC7DF6093B30D7093B40D8093B50DE4
:103340009093B60DC3DF6093B70D7093B80D809363
:10335000B90D9093BA0D0895CF92DF92EF92FF923C
:10336000CF936B017C01AC019B016091AB0D70911F
:10337000AC0D8091AD0D9091AE0D0E94173AC1E059
:10338000882371F0A70196016091B30D7091B40D7F
:103390008091B50D9091B60D0E94173A8111C0E051
:1033A0008C2FCF91FF90EF90DF90CF9008950F93E7
:1033B0001F938B019C010027112720783F7701156F
:1033C000110520483F4749F4AB01BC016F777727CF
:1033D00081E0452B462B472B09F480E01F910F918C
:1033E0000895E5CF4F925F926F927F928F929F9256
:1033F000AF92BF92CF92DF92EF92FF920F931F9303
:10340000F894409022065090230660902406709015
:103410002506C0901606D0901706E0901806F0908A
:1034200019064130510509F0A4C09B01AC012419D3
:1034300035094609570929013A0100911E061091E4
:103440001F06209120063091210648015901840C65
:10345000951CA61CB71C80169106A206B306A0F404
:1034600000911A0610911B0620911C0630911D0632
:103470000F5F1F4F2F4F3F4F00931A0610931B06ED
:1034800020931C0630931D0680921E0690921F0604
:10349000A0922006B092210600911A0610911B06F8
:1034A00020911C0630911D068092260690922706D8
:1034B000A0922806B092290600932A0610932B06A4
:1034C00020932C0630932D066093220670932306DA
:1034D0008093240690932506A4ECB9E0A301920101
:1034E0000E941C496C0D7D1D8E1D9F1D609316064C
:1034F00070931706809318069093190600913F0465
:103500001091400420914104309142040F3F1F4F1D
:103510002F4F3F4FF1F000913F0410914004209154
:103520004104309142040E3F1F4F2F4F3F4F89F00F
:10353000C0903F04D0904004E0904104F0904204D9
:1035400021E08C149D04AE04BF0408F420E0209315
:10355000320678941F910F91FF90EF90DF90CF90FB
:10356000BF90AF909F908F907F906F905F904F90A3
:1035700008954B015C0184189508A608B708A301BB
:103580009201261B370B480B590B641575058605F0
:103590009705D0F082169306A406B50640F420E005
:1035A00030E0A90181149104A104B10491F4A4ECC8
:1035B000B9E00E941C49A7019601261B370B480B56
:1035C000590BCA01B901C5CF82169306A406B506E8
:1035D00070F7A4ECB9E0A50194010E941C496C0DA0
:1035E0007D1D8E1D9F1DB5CFFDCECF93DF9300D0E7
:1035F0001F92CDB7DEB71C821B821A8219821092ED
:103600002E0610922F061092300610923106BE013F
:103610006F5F7F4FCE0103960E94EB3769817A81FD
:103620008B819C810E94D930009761F4BE016F5F4D
:103630007F4FCE0103960E94F73769817A818B8193
:103640009C812FD50F900F900F900F90DF91CF910D
:103650000895FF920F931F93CF93DF93082F60E09D
:1036600070E0CB010E942043FF24F3940E94C22FFC
:10367000EC01892B89F010E0CE3F8FEFD80769F07D
:10368000002361F160E070E0CB010E94204381E003
:1036900090E0892B59F322C011E026D5EC01892B4B
:1036A00021F0CE3F8FEFD80759F711111EC011E05E
:1036B000229609F410E00E94722FEC01892B21F070
:1036C000CE3F8FEFD807E1F6111111C011E0CE3FC8
:1036D0008FEFD80709F410E001110BC0CE01DF9184
:1036E000CF911F910F91FF90089511E0E4CF11E069
:1036F000F3CF60E070E0CB010E9420431F25812FB3
:1037000090E0C7CFCF93DF9380913206882321F0DA
:1037100060E070E0CB014DD636D6D0E0C0E0892B1A
:1037200071F06AE070E080E090E00E94204381E068
:1037300090DF29D62196C03D27E0D20781F728D611
:103740000E942D3110924A061092490610924306AB
:1037500010924406109245061092460610923F06BB
:1037600010924006109241061092420610923B06BB
:1037700010923C0610923D0610923E0610923706BB
:10378000109238061092390610923A0610923306BB
:103790001092340610923506109236064EEF5FEF07
:1037A0006FEF7FEF40933F045093400460934104D8
:1037B0007093420410923206E6E2F6E028E0DF0160
:1037C0001D922A95E9F71092220610922306109274
:1037D00024061092250610921E0610921F061092C3
:1037E00020061092210610921A0610921B061092C3
:1037F0001C0610921D0610921606109217061092C3
:10380000180610921906DF91CF910895109256066E
:1038100010925706109258061092590610925506AB
:1038200080915E0690915F069093540680935306B4
:10383000109252061092510610924D0610924E06AA
:1038400010924F061092500610925B0610925A0684
:1038500090E080E00895CF92DF92EF92FF920F9375
:103860001F93CF938C01019709F055C020915E06FC
:1038700030915F06809153069091540640915E0608
:1038800050915F065093540640935306281739070A
:1038900081F0109252061092510610924D0610922D
:1038A0004E0610924F061092500610925B06109230
:1038B0005A0680915E0690915F06019761F58091AE
:1038C0005A0690915B06892B21F480914304811163
:1038D00012C080915A0690915B060197E1F48091A5
:1038E0004D0690914E06A0914F06B091500601975B
:1038F000A105B10581F410924D0610924E0610926A
:103900004F06109250061092430482E090E090938C
:103910005B0680935A0680915E0690915F06019740
:1039200009F01CC18091740690917506801791076B
:1039300009F014C18091700690917106A0917206F1
:10394000B0917306009709F409C120916F06211107
:103950000DC0409170065091710660917206709191
:103960007306452B462B472B09F4F8C020915A06C5
:1039700030915B062230310509F0F0C020915106EC
:103980002111ECC0FC01C080D180E280F3808091E5
:103990005506882309F4D3C0809161069091620690
:1039A000892B09F4FEC0209161063091620681E006
:1039B0002230310509F080E02091610630916206E5
:1039C000C1E02130310549F0209161063091620655
:1039D000C1E02230310509F0C0E0882309F456C067
:1039E00020916B0630916C0640916D0650916E06E9
:1039F000C701B6010E94433C87FD14C020916B06AD
:103A000030916C0640916D0650916E06609156069D
:103A10007091570680915806909159060E94173A66
:103A200087FD22C020916B0630916C0640916D0697
:103A300050916E06C701B6010E94433C181634F53A
:103A400020916B0630916C0640916D0650916E0688
:103A500060915606709157068091580690915906CC
:103A60000E94173A811112C08091630690916406FA
:103A7000A0916506B0916606892B8A2B8B2B19F4D1
:103A800081E08093520681E080935106CC2309F4B3
:103A900056C020916B0630916C0640916D06509196
:103AA0006E06C701B6010E94173A87FF14C0209125
:103AB0006B0630916C0640916D0650916E066091D8
:103AC00056067091570680915806909159060E94AB
:103AD000433C87FF22C020916B0630916C064091D9
:103AE0006D0650916E06C701B6010E94173A81110A
:103AF00026C020916B0630916C0640916D06509166
:103B00006E06609156067091570680915806909106
:103B100059060E94433C181694F4809163069091D4
:103B20006406A0916506B0916606892B8A2B8B2BC3
:103B300019F481E08093520681E08093510681E080
:103B400090915106911180E080935506C0925606DF
:103B5000D0925706E0925806F092590601301105AE
:103B600009F067C180915A0690915B06892BD9F4C0
:103B7000109260061092510680914304882379F0D8
:103B800082E090E090935B0680935A061092430483
:103B900020915E0630915F0681E0232BE9F080E002
:103BA0001BC081E009CF10924304809160068823F6
:103BB00049F01092520610925B0610925A0610922B
:103BC0006006EDCF80915E0690915F06892BE1F053
:103BD000809151061092510620915A0630915B0651
:103BE0002230310509F45EC088F42115310509F44D
:103BF00048C02130310509F4F3C0109252061092EA
:103C000051061092600638C081E0E6CF23303105BE
:103C100009F4B1C02430310581F740914D0650912F
:103C20004E0660914F067091500641155105610591
:103C3000710561F0415051096109710940934D06C8
:103C400050934E0660934F067093500640914D0678
:103C500050914E0660914F0670915006452B462BB1
:103C6000472BD9F420915C0630915D062130310557
:103C700009F046C01092520610925B0610925A0646
:103C80000CC080914304882341F082E090E090933F
:103C90005B0680935A061092430410924B06809163
:103CA0005206CEC08823C9F38091630690916406C2
:103CB000A0916506B0916606181619061A061B062D
:103CC0000CF07DC080915E0690915F06019709F02F
:103CD00076C08091630690916406A0916506B091CC
:103CE000660680934D0690934E06A0934F06B093C0
:103CF000500683E090E090935B0680935A06CDCF08
:103D000040916706509168066091690670916A0655
:103D1000452B462B472BA9F010925206809167063F
:103D200090916806A0916906B0916A0680934D064D
:103D300090934E06A0934F06B093500681E090E01A
:103D4000DACF882399F08091440490914504A091A2
:103D50004604B091470480934D0690934E06A0937D
:103D60004F06B093500684E090E0C5CF1092520603
:103D700082E090E0C0CF80914D0690914E06A091D8
:103D80004F06B09150060097A105B10559F0019773
:103D9000A109B10980934D0690934E06A0934F065A
:103DA000B093500680914D0690914E06A0914F061B
:103DB000B0915006892B8A2B8B2B09F06ECF809106
:103DC000440490914504A0914604B0914704892B86
:103DD0008A2B8B2B09F44ECF81E080935206B3CF10
:103DE00040914D0650914E0660914F0670915006DD
:103DF000411551056105710561F041505109610995
:103E0000710940934D0650934E0660934F06709390
:103E1000500640914D0650914E0660914F067091AC
:103E20005006452B462B472B09F037CF8111C7CFC2
:103E30009FCF80914B06882309F431CF80914C06A7
:103E4000CF911F910F91FF90EF90DF90CF90089549
:103E50001092560610925706109258061092590664
:103E60001092550610925B0610925A061092540654
:103E70001092530610927506109274061092520614
:103E80001092510610924D0610924E0610924F0657
:103E90001092500610924C0610924B06109270062B
:103EA00010927106109272061092730610926F06AD
:103EB00010926B0610926C0610926D0610926E06B0
:103EC00088EE93E0A0E0B0E0809344049093450432
:103ED000A0934604B09347041092670610926806B8
:103EE0001092690610926A06109263061092640698
:103EF0001092650610926606109262061092610694
:103F000081E0809343041092600610925F06109245
:103F10005E0610925D0610925C0690E080E00895C7
:103F200080915E0690915F06892B19F5809143047C
:103F3000882351F080916006811106C081E0809352
:103F40004C0680934B0608952091600630914304FF
:103F500081E090E0332311F090E080E030E08223B4
:103F60009323892B21F010924C0681E0EACF109226
:103F70004B06089582E090E0FA01918380838FEFF1
:103F80009FEF0895CF93DF93EA01009711F00E940D
:103F90004D321982188290E080E0DF91CF91089530
:103FA000DB01009719F48FEF8C9308952EEF2C937B
:103FB000FC013F96EF30F10508F034C08827EC5142
:103FC000F04E8F4F0C94054910200E200C200A2033
:103FD00008200420062002200020FE1FFB1FF71FE0
:103FE000F31FF91F122080E311968C93089589E244
:103FF000FBCF82E2F9CF11961C92089583E2F4CFB1
:1040000081E2F2CF81E1F0CF87E2EECF8AE2ECCF1E
:1040100080E1EACF84E2E8CF88E2E6CF86E2E4CF2F
:1040200081E3E2CF80E2E0CF809182069091830627
:104030000895909383068093820608958091810667
:10404000089590918106892B809381060895982F79
:1040500090958091810689238093810608958091AF
:104060008006089580917E0690917F0608956115DF
:10407000710559F0FB0130E020E070E060E02417AA
:10408000350719F06115710511F0CB010895A08174
:10409000B181A817B90709F4BF012F5F3F4F3696CA
:1040A000EECF8091840681111CC060D266D29093BD
:1040B0007706809376060E94592A0E946B2A909375
:1040C0007B0680937A060E94DA2E0E94E12E90935E
:1040D00079068093780681E08093840690E080E002
:1040E000089584EF9FEF08958F929F92AF92BF92B1
:1040F000CF92DF92EF92FF920F931F93CF93DF93B4
:1041000000D000D000D01F92CDB7DEB71A86198636
:1041100018861F821E821D821C821B821A821982AF
:104120008091840607EF1FEF882309F49CC08E015D
:104130000D5F1F4F9E012B5F3F4FAE01495F5F4FE9
:10414000BE01675F7F4F90E080E00E945E308C018F
:10415000009721F00596029708F0DBC029853A8583
:104160002115310509F402C1ED80FE804B815C818F
:10417000B701640F751F8F8198858617970708F41C
:10418000F5C0E20EF31ED7019C91903C09F07FC070
:104190004230510508F47BC011968C914091820603
:1041A00050918306452B09F49CC0913F08F071C0E3
:1041B0002CE1290F2D3008F48BC02DE2290F20317E
:1041C00008F489C0903C21F48150823008F483C007
:1041D00088E3890F8B3008F481C090EDC92E9FE1F0
:1041E000D92EEAEBFFE16D817E81AE014F5F5F4F1B
:1041F00089859A8519955C01C114D104A1F1898042
:104200009A808114910479F18B819C81881599059C
:1042100008F487C010E000E04B815C8170E060E052
:10422000C7010E942F4901151105E9F449815A81FE
:1042300069857A858D819E81680F791FC501F60198
:104240001995E980FA800D811E812F813885498575
:104250005A856FEF7FEF81E090E00E94F92F8C018B
:10426000892B09F056C0C8012A960FB6F894DEBF14
:104270000FBECDBFDF91CF911F910F91FF90EF90B7
:10428000DF90CF90BF90AF909F908F90089580E087
:1042900085CF30E020E0220F331FF901EA58F94FB3
:1042A0000190F081E02D309709F497CF892F90E0AD
:1042B0001995009709F491CFDC011296ED91FC91CC
:1042C00013971496CD90DC90309709F08CCF1FC0D7
:1042D00021E030E0E0CF22E030E0DDCF23E030E04D
:1042E000DACFD12CC12CE2ECFFE19F3F09F07BCF6C
:1042F000E0917606F0917706309721F4C90104EF3A
:104300001FEF0CC08FEF90E019950097A9F604EF0E
:104310001FEF89859A85009709F4A5CF0E944D3239
:10432000A2CF0E9428318C0189859A850E944D3246
:1043300070E060E0C4010E94C13098878F830E94C2
:10434000F62F9E838D836F8178856115710559F0F5
:10435000C8010E94D9339A87898706EF1FEF892BFE
:1043600009F058CF59CF08EF1FEF56CF08EF1FEFD6
:10437000D0CF20918406222319F020E00C94702ADB
:1043800087EF9FEF089580918206909183060895AC
:104390000E94E62E0E94402EF5D0E6E7F6E088E087
:1043A000DF011D928A95E9F71092840690E080E083
:1043B00008950C949E2C21E040E050E0BA010C944A
:1043C000702A86E090E0FA019183808390E080E09B
:1043D000089547E050E06DE774E049CEDF92EF9238
:1043E000FF920F931F93CF93DF938A01EC01C60FC7
:1043F000D71FE0908806F0908906D9800E9410317E
:10440000D816190678F082E090E0F8019183808355
:104410008EEF9FEFDF91CF911F910F91FF90EF9063
:10442000DF900895EF2841F482E090E0F801918355
:10443000808384EF9FEFEECF89818093870690E0A1
:104440000196F8019183808390E080E0E3CFCF93E1
:10445000DF93EA010E944F2D882321F00E941D3135
:104460000E94502D82E090E0998388838BEF9FEF2C
:10447000DF91CF910895CF93DF93EB0186E0FB01AD
:1044800011928A95E9F78FEF8883D8DD8983E7DD7C
:104490008A83E8DD9D838C83DF91CF910895CF934C
:1044A000DF93EA010E94522D811109C082E090E061
:1044B0009983888385EF9FEFDF91CF91089590E0F6
:1044C00080E0B7DD81E090E09983888390E080E030
:1044D000F3CF0F931F93CF93DF93EA018C01060F65
:1044E000171F0E94522D81110BC082E090E099832A
:1044F000888385EF9FEFDF91CF911F910F910895F2
:10450000F8018181823038F082E090E099838883DD
:104510008EEF9FEFF0CF81E090E08BDD88E090E0C0
:104520009983888390E080E0E6CFCF93DF93009774
:10453000D1F4EB01FB01329686E0DF011D928A95F2
:10454000E9F78FEF888385E089831A820E94103112
:104550008B830E940F319D838C8381E08E838F83B8
:10456000DF91CF910895DF91CF911ACD89EE91E23D
:104570009093860680938506089580918506909194
:1045800086060895109286061092850608958091F9
:104590008806909189060895411105C0611571053D
:1045A0008105910561F06093880670938906809378
:1045B0008A0690938B0640938C0681E0089580E0F4
:1045C0000895FF920F931F93CF93DF938A01EC011D
:1045D000C60FD71FF9800E941031F816190668F02F
:1045E00082E090E0F801918380838EEF9FEFDF916E
:1045F000CF911F910F91FF9008956C817D818E81E5
:104600009F814B81C9DF811108C082E090E0F801F1
:104610009183808384EF9FEFEACF8981809387061F
:1046200090E00196F8019183808390E080E0DFCFF5
:10463000CF93DF93EA01FC01E60FF71F64817581D8
:10464000868197814381A8DF811109C082E090E0D3
:104650009983888384EF9FEFDF91CF91089581E064
:1046600090E09983888390E080E0F6CFE8E8F6E078
:104670004081518162817381480F511D611D711DFF
:1046800040835183628373830895CF93C0918706DB
:104690004C2F50E0609188067091890601960E9427
:1046A00026498C2FE3DF10928706CF91089500975B
:1046B00099F480918806909189062FEFFB01208361
:1046C000892B59F02091870630E02F5F3F4F241748
:1046D000350719F4CB01D9CF63CC0895009799F42D
:1046E00080918806909189062FEFFB012083892B0A
:1046F00059F02091870630E02F5F3F4F2417350790
:1047000019F4CB01C2CF4CCC089523E1AC01249F16
:10471000C001259F900D1124E0919106F091920621
:10472000E80FF91F238134812250310981E02230C2
:10473000310508F080E008950F931F93CF93DF9326
:104740000091930610919406D0E0C0E080E00C1731
:104750001D0749F491E0811190E0892FDF91CF91FD
:104760001F910F9108958111F5CFCE01CEDF2196D3
:10477000EECFA0919106B0919206109729F1209169
:1047800093063091940682179307F0F453E1589FF3
:104790009001599F300D1124A20FB31FED91FC9190
:1047A0001197309789F012968C91681768F48BE016
:1047B000689FE00DF11D112480819181892B21F0EA
:1047C00081E09281491708F080E008959C0143E15F
:1047D000429FC001439F900D1124E0919106F091FA
:1047E0009206E80FF91F8385823091F481E090E012
:1047F000658176814091480450914904641775079A
:1048000011F490E080E0892B19F081E0232B09F06E
:1048100080E00895EF92FF920F931F93CF93DF9361
:10482000EA01FC01E60FF71F02811381E480F580A5
:104830004F2D6E2DC8019DDF81110DC082E090E0EB
:10484000998388838EEF9FEFDF91CF911F910F9116
:10485000FF90EF900895C80158DF882339F082E077
:1048600090E09983888388EF9FEFEECF10934F04F9
:1048700000934E04E0925004F092510481E090E0E5
:104880009983888390E080E0DFCFCF92DF92EF9230
:10489000FF920F931F93CF93DF937A01EC01C60F22
:1048A000D71FC0904E04D0904F0400915004109137
:1048B0005104412F602FC6015CDF811110C082E0DE
:1048C00090E0F701918380838AEF9FEFDF91CF9192
:1048D0001F910F91FF90EF90DF90CF900895C60148
:1048E00014DF882341F082E090E0F7019183808318
:1048F00088EF9FEFEBCF4C815D816E817F819A8144
:1049000089818F3F41F082E090E0F70191838083BD
:104910008EEF9FEFDBCFE3E1EC9D9001ED9D300D3D
:104920001124E0919106F0919206E20FF31F01909D
:10493000F081E02D2BE0029FE00DF11D112401908C
:10494000F081E02D27E0129FE00DF11D11248083FE
:1049500091838B81828343835483658376831F5F36
:104960001093510481E090E0F7019183808390E0FF
:1049700080E0ACCFEF92FF920F931F93CF93DF9322
:104980007A018C01060F171FC0919106D0919206F3
:10499000209781F021E030E0F801828193814091FD
:1049A0009306509194068417950710F030E020E0AC
:1049B000232B71F482E090E0F701918380838EEFE6
:1049C0009FEFDF91CF911F910F91FF90EF9008958E
:1049D00043E1489F9001499F300D1124C20FD31F1E
:1049E00094DE882341F082E090E0F7019183808398
:1049F00088EF9FEFE6CFF80124813581203831051B
:104A0000C8F687818111D6CF4181842F90E08F7EB7
:104A1000009741F082E090E0F7019183808386EF78
:104A20009FEFCFCF4F833E832D8326812887198622
:104A3000223010F421E0288721E030E0F7013183B3
:104A40002083BFCF88E090E0FA019183808390E0DB
:104A500080E00895FB018FEF808381E181838FEFF8
:104A60009FEF9383828380E890E09583848316820E
:104A700017820895FB018FEF808391E091838283F9
:104A80009383848384E3858381E090E097838683A6
:104A90000895DF92EF92FF920F931F93CF93DF93CE
:104AA000EA01FC01E60FF71F8181813071F082E09D
:104AB00090E0998388838FEF9FEFDF91CF911F91D3
:104AC0000F91FF90EF90DF90089582819381D480C1
:104AD0002581E680F78000919106109192060115DC
:104AE000110539F482E090E0998388838CEF9FEF81
:104AF000E4CF40919306509194068417950738F0BF
:104B000082E090E0998388838EEF9FEFD6CF892B48
:104B100039F082E090E09983888386EF9FEFCDCFD4
:104B20008D2D8D7FB1F72130A1F781E0D11006C026
:104B300091E0E916F10431F080E004C0E2E0EE1605
:104B4000F104D0F3882329F390E080E0DEDD8823B0
:104B500039F082E090E09983888388EF9FEFADCFB2
:104B6000F801D38681E08487F686E586108A178669
:104B700081E090E09983888390E080E09ECF4CE0D4
:104B800050E067EA74E073CA8F929F92BF92CF920F
:104B9000DF92EF92FF920F931F93CF93DF93EA017F
:104BA000FC01E60FF71F828193810481B580E091BB
:104BB0009106F0919206309791F482E090E099830B
:104BC00088838CEF9FEFDF91CF911F910F91FF9022
:104BD000EF90DF90CF90BF909F908F90089520919D
:104BE0009306309194068217930738F082E090E0A4
:104BF000998388838EEF9FEFE6CF23E1289F6001A2
:104C0000299FD00C1124EC0DFD1DE080F180E114F2
:104C1000F10499F28281081748F78BE0089F800120
:104C20001124E00EF11EF70180819181892B29F674
:104C3000BB20E1F2F7E0BF9E40011124C4010E94B5
:104C40001432F70191838083E0919106F0919206EE
:104C5000EC0DFD1D0190F081E02DE00FF11F808132
:104C60009181009739F482E090E0998388838DEFF9
:104C70009FEFA9CFA40170E060E00E942F498091CE
:104C8000910690919206C80ED91EF60180819181FD
:104C9000080F191FF801B28281E090E099838883A0
:104CA00090E080E090CFAF92BF92CF92DF92FF92E0
:104CB0000F931F93CF93DF93EA01FC01E60FF71FD9
:104CC00082819381F48000919106109192060115E2
:104CD000110581F482E090E0998388838CEF9FEF47
:104CE000DF91CF911F910F91FF90DF90CF90BF90F8
:104CF000AF90089520919306309194068217930700
:104D000038F082E090E0998388838EEF9FEFE8CFC0
:104D10002FEF2F0D2C3FA8F723E1289F6001299F3B
:104D2000D00C11240C0D1D1DF80180819181892B5F
:104D300089F6FBE0FF9E50011124C5010E94143248
:104D4000F80191838083E0919106F0919206EC0D39
:104D5000FD1D80819181009739F482E090E0998374
:104D600088838DEF9FEFBCCFA50170E060E00E94CB
:104D70002F49E0919106F0919206EC0DFD1DF28213
:104D800081E090E09983888390E080E0A9CFCF9282
:104D9000DF92EF92FF920F931F93CF93DF93860FD3
:104DA000971FFC01028113818091910690919206D8
:104DB000892B81F082E090E0FA01918380838CEF6F
:104DC0009FEFDF91CF911F910F91FF90EF90DF90B8
:104DD000CF900895C801B0E0A0E00197A109B10902
:104DE0008F3F9F4FA105B10540F082E090E0FA01AE
:104DF000918380838EEF9FEFE4CF7A0183E1809FE0
:104E00006001819FD00C1124C6010E941432EC0174
:104E1000009741F482E090E0F701918380838DEF69
:104E20009FEFCFCFA60170E060E00E942F49D093A2
:104E30009206C0939106109394060093930690E017
:104E400080E02FEF3FEF41E061E070E080179107D5
:104E500041F481E090E0F7019183808390E080E06D
:104E6000B0CF3A8B298B1B864C877E876D87188A3B
:104E70001F8601966396EACFCF92DF92EF92FF9260
:104E80000F931F93CF93DF93EC01D12CC12C10E033
:104E900000E0F12CE12C6A816017110609F0CCF4D6
:104EA00083E0689FB0011124AE014F5E5F4FC701E0
:104EB0000E947932009721F02FEF3FEF3A8B298B38
:104EC000DF91CF911F910F91FF90EF90DF90CF90E6
:104ED0000895E881F981EC0DFD1D438154818D8594
:104EE0009E85489F9001499F300D589F300D112499
:104EF000C90101960115110519F44F8144FD04966D
:104F000061E070E00E94C130E816F90608F47C0107
:104F10000F5F1F4F8BE0C80ED11CBDCFF8942091BE
:104F20008F063091900681E02115310509F080E06F
:104F3000232B09F0789408952F923F924F925F921D
:104F40006F927F928F929F92AF92BF92CF92DF9299
:104F5000EF92FF920F931F93CF93DF933C01660E66
:104F6000771EF301828193814C01B12CA12CC09159
:104F70009106D0919206209769F021E030E060918F
:104F80009306709194068617970710F030E020E0A2
:104F9000232BD1F482E090E0FA01918380838EEF9D
:104FA0009FEFDF91CF911F910F91FF90EF90DF90D6
:104FB000CF90BF90AF909F908F907F906F905F90B9
:104FC0004F903F902F9008958092520490925304F6
:104FD000A0925404B092550463E1689F9001699FC8
:104FE000300D1124C20FD31FF3018181833040F0B3
:104FF00082E090E0FA019183808386EF9FEFD1CF2A
:105000002A012B813C81232BF1F4288139819F8156
:1050100091FF2EC0232B09F46FC0209196069A8130
:10502000422F490F5527551FBA0141E050E0613822
:10503000710514F050E040E0452B09F45DC02A876B
:10504000920F909396068150823008F481C066DFFB
:10505000882309F4D8C0F3018181813009F48DC01F
:1050600008F47BC0823009F4C6C090E080E0ADC097
:10507000232B09F441C0209195069A81E22FE90F74
:10508000FF27FF1F41E050E0ED3FF10514F050E035
:1050900040E0452B89F12A87920F90939506D3CF54
:1050A000A081B181A20FB31F11966C91060F111D43
:1050B0000196295F3F4F8417950794F38D859E8550
:1050C000089F1001099F300C189F300C1124C11447
:1050D000D104D1F48F8184FF17C00E940F31F5E015
:1050E0002F0E311C21E08215930508F420E0A70162
:1050F000455F5F4F21110EC082E090E0F201918385
:10510000808387EF9FEF4DCF0E940F312FEF221A40
:10511000320AE8CF88819981E80EF91EF7011483DD
:105120000383FFEFCF1ADF0A7A018A818C151D04F1
:1051300009F00CF48CCFE881F981EE0DFF1D42815E
:1051400050E030E020E010E000E090E080E0B3CFFD
:10515000F12CE12CD12CC12CE8CF81E090E09C8394
:105160008B83EADA882309F480CF81E090E00E9403
:10517000192080E40E94272078CF89899A89019696
:1051800061F083E090E09C838B8382E090E00E945A
:10519000192080E40E94212068CF8D819E8120917A
:1051A00048043091490482179307D1F460914C046C
:1051B00070914D04AE014F5E5F4F80914A04909113
:1051C0004B040E9498330097E1F2789422E030E09B
:1051D000F20131832083892B99F08DEF9FEFE1CE8F
:1051E00089288A288B2869F6029758F6CE0144DE72
:1051F000188A1F86E8CF82E090E09C838B8335CFAE
:1052000090E080E0CECE82E090E0F2019183808356
:1052100085EF9FEFC6CE8F929F92AF92BF92CF92B3
:10522000DF92EF92FF920F931F93CF93DF93EA01E8
:105230008C01060F171FF8018181833098F082E0FE
:1052400090E09983888386EF9FEFDF91CF911F9144
:105250000F91FF90EF90DF90CF90BF90AF909F9015
:105260008F9008958091910690919206892B61F01C
:1052700081E090E02091930630919406232B11F465
:1052800090E080E0892B39F482E090E09983888374
:105290008EEF9FEFDACF42DE882309F4E0C0F801F9
:1052A0008181813009F496C0E8F0823099F4209130
:1052B000930630919406E0919106F091920690E069
:1052C00080E041E050E02817390709F0BEC034DA29
:1052D000811117C0789481E090E09983888390E0F1
:1052E00080E0B3CF2091930630919406E09191062F
:1052F000F091920690E080E041E050E028173907F5
:1053000041F481E090E00E94192080E40E9427206F
:10531000E1CF63817481672B11F05483438301963D
:105320007396ECCFE0919106F0919206E00FF11F99
:105330002381348122303105D9F4218932892F3FEC
:105340003F4FB1F425813681409148045091490482
:105350002417350761F5AF014F5E5F4F60914C0434
:1053600070914D0480914A0490914B040E949833AF
:10537000EFEFCE1ADE0AEE0AFE0A0D5E1F4F4091D5
:1053800093065091940670E060E0C416D506E606D8
:10539000F70644F5009731F27894892B09F49BCFF6
:1053A00082E090E0998388838DEF9FEF4ECFC11408
:1053B000D104E104F104E1F622303105C8F6CF0151
:1053C0005BDDE0919106F0919206E00FF11F108AEB
:1053D0001786CECF10E000E090E080E0C12CD12C09
:1053E0007601CDCF0097C1F610E000E0812C912C22
:1053F000540183E0E82EF12C1AC0E0919106F0915F
:105400009206E00FF11F83819481029749F4F482A0
:10541000E38282E090E00E94192080E40E94212033
:10542000FFEF8F1A9F0AAF0ABF0A0D5E1F4F8091D0
:10543000930690919406B0E0A0E088169906AA061B
:10544000BB06DCF290E080E0A7CF6381748162301C
:10545000710511F4548343830196739634CF82E02F
:1054600090E09983888385EF9FEFEFCE0097B9F4A2
:105470008FEFFB018083209152043091530443E16C
:10548000429FC001439F900D1124E0919106F0913D
:105490009206E80FF91F8285FB01818308950C9421
:1054A000D01F88E090E0FA019183808390E080E053
:1054B00008951092900610928F06E1E9F6E086E0DA
:1054C000DF011D928A95E9F78FEB95E290938E06A6
:1054D00080938D06089580918D0690918E06089593
:1054E0002F923F924F925F926F927F928F929F92F4
:1054F000AF92BF92CF92DF92EF92FF920F931F93E2
:10550000CF93DF93CDB7DEB760970FB6F894DEBFC9
:105510000FBECDBFF894E0918F06F09190063196C2
:10552000F0939006E0938F067894A0919106B09145
:105530009206BA83A983109709F4FAC1E091930601
:10554000F0919406EF2B09F4F3C128874B875C8711
:105550006D877E879A878987B88BAF87312C212CFE
:10556000F12C512C412C8091930690919406281691
:10557000390610F4FF2029F1F89480918F0690915C
:10558000900601979093900680938F067894C201BD
:1055900060960FB6F894DEBF0FBECDBFDF91CF91FE
:1055A0001F910F91FF90EF90DF90CF90BF90AF9041
:1055B0009F908F907F906F905F904F903F902F9033
:1055C0000895B10190E080E088D4682EEF85F889D5
:1055D000878181FD3DC0838194810397C9F5258131
:1055E00036813C832B8389859A852817390781F575
:1055F000C101ECD8782E8823A9F1AF85B8891F9610
:105600008D919C915097019621E01D964D915C9152
:105610008417950709F020E02F83B12CA12CEF858A
:10562000F88982818A151B0419F014F0FF20E9F033
:10563000F885FF2309F46CC1AF85B88950961C9298
:105640001E921F97662021F0B10190E080E047D4C0
:10565000FFEF2F1A3F0A2F8538892D5E3F4F388B79
:105660002F8781CFB1E0BF83D8CFC0D49E838D83F5
:10567000E885EE23E9F0772009F43CC1AF85B889CD
:105680001F968D919C91892B79F0BBE0BA9DC0014A
:10569000BB9D900D1124AF85B889ED91FC91E80F69
:1056A000F91F85819681F9D6BFEFAB1ABB0AB7CF38
:1056B00081E0772039F0EF85F88927853089232B21
:1056C00009F080E0F82EE12CA114B10439F4AF8583
:1056D000B8891796EC90E4FAEE24E0F8BBE0BA9DA6
:1056E0006001BB9DD00C1124882309F424C1AF852F
:1056F000B889ED91FC911197EC0DFD1D438154810A
:105700001D962D913C91429FC001439F900D529F49
:10571000900D1124E1105DC001969087878361E0B0
:1057200070E0878190852DD5EF85F88921893289B0
:10573000008111810C0D1D1D2F3F320709F44BC054
:10574000BC01C9010E94D933D80116969C938E934F
:105750001597AF85B889ED91FC911197EC0DFD1D62
:10576000058116810115110509F4CDC0ED81FE8179
:105770000E0F1F1F1A968C918A0DD8018C93E11081
:105780002FC00F5F1F4FAF85B889ED91FC91EC0DD5
:10579000FD1D12870187AF85B889ED91FC91EC0D55
:1057A000FD1D85819681892B09F4A4C08091480450
:1057B000909149042B813C812817390709F465C071
:1057C000772011F001851285912C812C1A82198283
:1057D0004AC00596A2CF28D6F80196838583B9CF13
:1057E0008B859C85AD85BE85F80181839283A383DB
:1057F000B4830B5F1F4FC7CFE080F180E80CF91C2A
:10580000D70113966D917C9114978C918F3F09F479
:1058100073C0E1E0F0E002C0EE0FFF1F8A95E2F7EF
:10582000CF01092E000CAA0BBB0BFB01408151815B
:105830006281738184239523A623B72321E0892BDA
:105840008A2B8B2B09F420E0D8012C93D7011196D9
:105850008C91080F111DE981FA813196FA83E98351
:10586000F7E08F0E911CAF85B889ED91FC91EC0D9E
:10587000FD1D828129813A818217130611F00CF0F7
:10588000BBCF772011F0128701873F81332391F13D
:10589000AF85B889ED91FC91EC0DFD1D61E070E0E4
:1058A000878190856ED4AF85B889ED91FC91EC0D20
:1058B000FD1DE780F08445815681E1E0F0E066203F
:1058C00011F0F0E0E0E00D811E819C01B10188271C
:1058D00099278E1B9F0B8DD32C01892B59F0EF85B7
:1058E000F88980819181C80ED91ED60115968D91B7
:1058F0009C91D3D5F12CD8CEF701418150E0C8015D
:105900000E942649A3CF86EF482E55245A94CCCE28
:10591000EF85F889878590890196908B8787258503
:1059200036858217930709F08DCE108A17868ACEA6
:10593000512C412C21CE10E000E02DCF2F923F9230
:105940004F925F926F927F928F929F92AF92BF928F
:10595000CF92DF92EF92FF920F931F93CF93DF933B
:10596000809191069091920610E000E0892BA9F0B9
:10597000D5DA0AEF1FEF882381F02090930630904C
:105980009406C0919106D0919206D12CC12C10E0C2
:1059900000E02C143D04A9F47894C801DF91CF9164
:1059A0001F910F91FF90EF90DF90CF90BF90AF903D
:1059B0009F908F907F906F905F904F903F902F902F
:1059C0000895C6010E94E623882309F18B819C81FA
:1059D0000397E9F48F859889892BC9F0B60190E087
:1059E00080E07BD221E030E0882311F030E020E03D
:1059F00044245524421A530AB12CA12C912C812CF9
:105A00008A818815190409F038F4188A1F864FEF27
:105A1000C41AD40A6396BDCFE881F981EA0DFB1D53
:105A200085819681892BA1F161E070E08781908565
:105A3000A8D33C01DBD28C01E881F981EA0DFB1D82
:105A40008185928525813681200F311FAC01421B53
:105A5000530B9A0147815085421B530B70E060E065
:105A60000E942F49E881F981EA0DFB1DE780F0844F
:105A7000458156819301B601C201BBD28C01892BAD
:105A800039F0E881F981EA0DFB1D8581968105D504
:105A90005FEF851A950A8BE0A80EB11CB1CF3ECA04
:105AA000789408952F923F924F925F926F927F92D7
:105AB0009F92AF92BF92CF92DF92EF92FF920F939D
:105AC0001F93CF93DF9300D000D0CDB7DEB7009106
:105AD000910610919206992493940115110509F4E9
