:1000000079C000009FC000009DC000009BC00000A0
:1000100099C0000097C0000095C0000093C0000088
:1000200091C000008FC000008DC000008BC0000098
:1000300089C0000087C0000085C0000083C00000A8
:100040000C94A7387FC000000C949E3B0C94D03BCE
:1000500079C0000077C0000075C0000073C00000C8
:100060000C948A376FC00000028988083EABAAAAA8
:10007000AABE000000803F07634236B79BD8A71A8C
:1000800039685618AEBAAB558C1D3CB7CC5763BD1A
:100090006DEDFD753EF6177231BF000000803F0028
:1000A0000000000800020100000304070000000037
:1000B0000000000001020408102040800102040832
:1000C00010200102040810200404040404040404A1
:1000D0000202020202020303030303030000000002
:1000E000250028002B0000000000240027002A0023
:1000F000F634F53B11241FBECFEFD8E0DEBFCDBFF5
:1001000013E0A0E0B1E0E6E4F9E702C005900D924B
:10011000AC36B107D9F728E0ACE6B3E001C01D92D8
:10012000A938B207E1F710E0CAE7D0E004C0219790
:10013000FE010E94723CC837D107C9F70E944E2FBA
:100140000C94A13C5DCFCF92DF92EF92FF926B01B6
:100150007C01C114D104E104F10469F4809100012F
:10016000811109C080910201909103010E946734BE
:1001700081E080930001C601880F991F880F991FA5
:1001800080509F4FFF90EF90DF90CF9008950097A1
:1001900081F0FC012181211104C040EA56E861E0B0
:1001A00070E0FC01828193810E94763490E080E0CF
:1001B000089588E090E008954F925F926F927F9249
:1001C0008F929F92AF92BF92CF92DF92EF92FF9267
:1001D0000F931F93CF93DF930097C9F12801390143
:1001E0007A01EC01402F8A819B810E94F4348A813C
:1001F0009B81DC01ED91FC910084F185E02D099556
:10020000892B01F16701812C912C54018A819B81FA
:10021000DC01ED91FC910084F185E02D0995892B9D
:1002200091F184149504A604B70469F18A819B8135
:10023000DC01ED91FC910284F385E02D09958F3F5F
:100240009807C1F484E0F70111928A95E9F788E0F4
:1002500090E0DF91CF911F910F91FF90EF90DF9091
:10026000CF90BF90AF909F908F907F906F905F9056
:100270004F900895FFEF8F1A9F0AAF0ABF0AD60169
:100280008D936D01C3CF90E080E0E3CF8F929F927A
:10029000AF92BF92CF92DF92EF920F931F93CF93C3
:1002A000DF930097F1F06A01EC018A819B810E9443
:1002B00079348A819B81DC01ED91FC910280F3818C
:1002C000E02DA801B60109958A819B8160E0E110CB
:1002D00001C061E00E948334882389F0825082301B
:1002E00088F088E090E0DF91CF911F910F91EF901F
:1002F000DF90CF90BF90AF909F908F90089590E047
:1003000080E0F1CF84E090E0EECF0895611102C06B
:100310000C940B3A6130E1F362E0FACF662319F0F6
:1003200061E00C94473A60E0FCCFCF92DF92EF920D
:10033000FF92CF93882351F16A017B01CFEFC80F61
:1003400020E030E0A901CB01B6010E944E3087FFCA
:1003500011C0C701B60190580E94BF309B01AC018B
:100360006C2F70E090E080E0CF91FF90EF90DF90F5
:10037000CF90B2C0C701B6010E94BA308C2FCF9186
:10038000FF90EF90DF90CF900C948739CF91FF9042
:10039000EF90DF90CF9008950F931F938B019C01F6
:1003A00083E036952795179507958A95D1F70459D7
:1003B0001C4F462F477021E030E0F90102C0EE0FDC
:1003C000FF1F4A95E2F7AF01F80120812423CB01FA
:1003D0000196211102C090E080E01F910F910895D5
:1003E0000F931F938B019C0183E0369527951795FA
:1003F00007958A95D1F7677081E090E001C0880F7A
:100400006A95EAF7F801E459FC4F2081452B31F455
:100410008095822380831F910F910895822BFACFBC
:100420002F923F924F925F926F927F928F929F9204
:10043000AF92BF92CF92DF92EF92FF920F931F93F2
:10044000CF93DF93D62EC72E782E692E49015A01FD
:10045000280161E08D2D0E940B3ACD2DDC2D8E01FF
:100460000F5F1F4FA8016D2D7C2D872D962DB8DFB6
:1004700020E030E0A901C201B7010E943E32181607
:1004800064F4C201B7010E94BF302B01C501B40161
:100490000E94BF30A201CE0123D0C801DF91CF91CD
:1004A0001F910F91FF90EF90DF90CF90BF90AF9092
:1004B0009F908F907F906F905F904F903F902F9084
:1004C0000895882341F08150682F70E090E080E02B
:1004D00050E040E085CF0895862FB9010C9487390C
:1004E0009C01FC01E056FF4FE491E33061F140F4E0
:1004F000E13011F1E23021F160E0822F0C94473AB3
:10050000E730C1F1E83009F441C0E430A9F7809147
:1005100080008C7F82608093800090918100907E2B
:100520009061692B6093810050938700409386000F
:100530008091800080621BC084B5806884BDDCCF60
:1005400084B58062FBCF809180008C7F8260809335
:10055000800090918100907E9061692B6093810072
:10056000509387004093860080918000806880933C
:100570008000C2CF8091B00080688093B0008091ED
:10058000B100887F682B6093B100B6CF8091B00036
:100590008062F3CF90E080E008950F931F9300975F
:1005A00009F489C06115710509F485C000916B02D9
:1005B00010916C0220916D0230916E020E3F1F4F20
:1005C0002F4F3F4F09F068C04FEF5FEFBA014093E4
:1005D0006B0250936C0260936D0270936E024091B7
:1005E0006B0250916C0260916D0270916E02DC01A1
:1005F0001296ED91FC9180819181A281B3818093CB
:10060000EF039093F003A093F103B093F20384817E
:100610009581A681B7818093EB039093EC03A0931F
:10062000ED03B093EE0380859185A285B385809319
:10063000E7039093E803A093E903B093EA0384856A
:100640009585A685B7858093E3039093E403A093F3
:10065000E503B093E6031092DF031092E0031092DB
:10066000E1031092E2030E9435128AE592E1909331
:1006700076038093750390937803809377030E94A9
:100680002411009731F421E030E03093F4032093FB
:10069000F3031F910F91089500916B0210916C026A
:1006A00020916D0230916E02DB010D931D932D930D
:1006B0003C93139794CF8FEF9FEFEBCF8F929F9246
:1006C000AF92BF92CF92DF92EF92FF921F93CF93A0
:1006D000DF934B015C011091F60382E090E0909370
:1006E000F4038093F30381149104A104B10441F451
:1006F0008091F603811104C08091F503C1E081115E
:10070000C0E0C12CD12C76018091F603811106C086
:100710008091F503811102C0CC23D9F083E090E0F1
:100720009093F4038093F303CC2381F1CCE9DFEFC2
:10073000111102C00E94BE15CE01DF91CF911F9111
:10074000FF90EF90DF90CF90BF90AF909F908F90F1
:1007500008956AE070E080E090E00E94163980E140
:10076000C80E87E2D81EE11CF11C8FEF8816980690
:10077000A806B80631F0C1E08C149D04AE04BF0495
:1007800008F0C0E080E00E945811BECFD0E0C0E089
:10079000CFCFCF92DF92EF92FF920F931F93CF9321
:1007A000DF938F3F910511F008F051C02091F303C2
:1007B0003091F4032330310539F02091F303309167
:1007C000F4032130310531F424E030E03093F403B8
:1007D0002093F3036A017B01EC0182309105A8F0BC
:1007E00011E0AE01C701B6010E942311AB01BC01AB
:1007F000CE011123F9F0DF91CF911F910F91FF905E
:10080000EF90DF90CF900C94E7178C01000F111F31
:100810000B581C4FD8018D919C91892B09F30E9494
:10082000F1170297E9F6D801ED91FC91CE010995F7
:10083000182FD7CF0E94091890E080E0DF91CF9168
:100840001F910F91FF90EF90DF90CF9008958FEF61
:100850009FEFF4CF80E00C945811CF93DF9386E0A4
:1008600090E09093F4038093F3030E94B111EC01A4
:10087000E5E7F3E084E0DF011D928A95E9F70E9445
:1008800056151092F4031092F303CE01DF91CF912D
:1008900008958091F50308958091DE030895609393
:1008A0006B0270936C0280936D0290936E0290E0E5
:1008B00080E00895CF92DF92EF92FF926B017C016E
:1008C0009F7720E030E040E859E50E944E3087FFF6
:1008D0002BC020E030E040E05FE3C701B6010E949A
:1008E0003E3287FD0EC020E030E040E05FE3C7010C
:1008F000B6010E94D72FFF90EF90DF90CF900C941D
:10090000283120E030E040E05FEBC701B6010E94F3
:100910003E32181684F420E030E0A901C701B60188
:100920000E9442326B017C01C701B601FF90EF903B
:10093000DF90CF90089520E030E040E05FE3C70112
:10094000B6010E94D62FFF90EF90DF90CF900C94CD
:100950003B302F923F924F925F926F927F928F9295
:100960009F92AF92BF92CF92DF92EF92FF920F933E
:100970001F93CF93DF93CDB7DEB7A1970FB6F8944F
:10098000DEBF0FBECDBF809169088150823008F074
:1009900069C383E080936908809168088150823040
:1009A00008F062C383E080936808809167088150F3
:1009B000823008F05BC383E080936708C090200119
:1009C000D0902101E0902201F0902301A70196012F
:1009D00060910B0870910C0880910D0890910E08A1
:1009E0000E944E30882341F0C0920B08D0920C0830
:1009F000E0920D08F0920E088CE08987C12CEE245D
:100A0000E39401E010E020E030E0AE01475F5F4F8B
:100A100066E370E0809101089091020837DC8987D5
:100A2000811126C3CC24C394E12C04E010E020E023
:100A300030E0AE014F5F5F4F66E370E080910108E8
:100A400090910208B9DB84E0FE013196DE01159633
:100A500001900D928A95E1F78D819E819D838E8311
:100A60008F8198859F8388872091680230916902E1
:100A7000AF81B8850E94783C6B017C01C092EF0782
:100A8000D092F007E092F107F092F20781E090E057
:100A900040911C0150911D0160911E0170911F0138
:100AA000C416D506E606F70610F090E080E0209127
:100AB0006A02289FB001299F700D1124072E000C97
:100AC000880B990B0E94ED309B01AC010E94D72F3F
:100AD0004B015C01C701B6010E94EB3020E030E021
:100AE00040E056E30E9442329B01AC01C501B401D3
:100AF0000E94D72F2091EC013091ED014091EE0141
:100B00005091EF010E94D62F2091F0013091F10118
:100B10004091F2015091F3010E9442326B017C013D
:100B2000C092D307D092D407E092D507F092D607AF
:100B30008091F4019091F501A091F601B091F70137
:100B40008093D7079093D807A093D907B093DA077B
:100B5000C092F307D092F407E092F507F092F607FF
:100B60008093F7079093F807A093F907B093FA07DB
:100B700020912F083091300840913108509132086F
:100B80006091FC017091FD018091FE019091FF0147
:100B90000E9442326E877F87888B998B209100025A
:100BA000309101024091020250910302C701B60147
:100BB0000E9442326A8B7B8B8C8B9D8BC09033085A
:100BC000D0903408E0903508F0903608409037080F
:100BD000509038086090390870903A0820912402AB
:100BE000309125024091260250912702C701B6019B
:100BF0000E9442324B015C0120912802309129026F
:100C000040912A0250912B02C301B2010E9442324C
:100C10009B01AC01C501B4010E94D72F4B015C01BF
:100C200020913402309135024091360250913702C2
:100C30006E857F85888999890E9442326A877B8781
:100C40008C879D87209138023091390240913A0279
:100C500050913B026A897B898C899D890E9442322E
:100C60009B01AC016A857B858C859D850E94D72F71
:100C70009B01AC01C501B4010E94D72F6093CB0743
:100C80007093CC078093CD079093CE0720912C02D0
:100C900030912D0240912E0250912F02C701B601D2
:100CA0000E9442326B017C0120913002309131026E
:100CB0004091320250913302C301B2010E9442328C
:100CC0009B01AC01C701B6010E94D72F6B017C01CB
:100CD00020913C0230913D0240913E0250913F02F2
:100CE0006E857F85888999890E9442324B015C011B
:100CF00020914002309141024091420250914302C2
:100D00006A897B898C899D890E9442329B01AC0152
:100D1000C501B4010E94D72F9B01AC01C701B601E8
:100D20000E94D72F9B01AC012093CF073093D007AF
:100D30004093D1075093D2076091480270914902C5
:100D400080914A0290914B020E9442326093DB07ED
:100D50007093DC078093DD079093DE07C0904C0210
:100D6000D0904D02E0904E02F0904F0220E030E033
:100D7000A901C701B6010E944E3087FF7CC1C7019F
:100D8000B6010E943B306093E7077093E8078093B9
:100D9000E9079093EA076091E7077091E80780916F
:100DA000E9079091EA070E942110882309F468C19D
:100DB0001092E7071092E8071092E9071092EA07ED
:100DC000C090E707D090E807E090E907F090EA07C5
:100DD00020E030E0A901C701B6010E944E3087FF34
:100DE00071C1C701B60190580E94BF30909580959F
:100DF000709561957F4F8F4F9F4F623071058105D0
:100E0000910509F49FC3633071058105910509F4CB
:100E100013C4613071058105910509F05CC1209111
:100E2000D3073091D4074091D5075091D6076091F0
:100E3000D7077091D8078091D9079091DA070E945F
:100E4000D62F209124013091250140912601509107
:100E500027010E9442326B017C01C092E707D092C9
:100E6000E807E092E907F092EA0720910401309147
:100E7000050140910601509107010E9442322091E4
:100E800028013091290140912A0150912B010E94A3
:100E900042322B013C014092EB075092EC076092EA
:100EA000ED077092EE072091570830915808409155
:100EB000590850915A082A873B874C875D87809153
:100EC0005B0890915C08A0915D08B0915E088E8BE4
:100ED0009F8BA88FB98F20911401309115014091FB
:100EE000160150911701C701B6010E9442322A85AE
:100EF0003B854C855D850E94D72F4B015C0120917D
:100F00005308309154084091550850915608C30138
:100F1000B2010E94D62F9B01AC01C501B4010E9411
:100F2000D72F4B015C0120913C0130913D01409154
:100F30003E0150913F016E897F89888D998D0E9475
:100F400042329B01AC01C501B4010E94D62F209111
:100F500038013091390140913A0150913B010E9492
:100F600052304B015C0120913001309131014091B0
:100F70003201509133010E9442326A8F7B8F8C8FF5
:100F80009D8F20913401309135014091360150916F
:100F900037016E897F89888D998D0E9442329B012D
:100FA000AC016A8D7B8D8C8D9D8D0E94D72F2091F9
:100FB00044013091450140914601509147010E9402
:100FC0004232209118013091190140911A0150913B
:100FD0001B010E94D72F6093DF077093E007809377
:100FE000E1079093E20740925308509254086092B0
:100FF00055087092560820910C0130910D014091D6
:101000000E0150910F01C701B6010E94423220919A
:101010002C0130912D0140912E0150912F010E9401
:1010200042322A853B854C855D850E94D72F60938F
:101030005708709358088093590890935A088092E3
:101040005B0890925C08A0925D08B0925E08809167
:1010500069088823E1F1833009F471C2082E000C7D
:10106000990B37C080E096CC80E09DCC80E0A4CC8A
:1010700018861F82F9CCC701B6010E94283183CEA1
:101080006091E7077091E8078091E9079091EA077E
:1010900093D781118DCE6091E7077091E807809119
:1010A000E9079091EA0720E030E040E85FE40E9421
:1010B00042316093E7077093E8078093E9079093C4
:1010C000EA077ECEC701B6010E94BF3096CE82E00D
:1010D00090E080936908C090DF07D090E007E0902F
:1010E000E107F090E2078090540290905502A090A2
:1010F0005602B0905702A5019401C701B6010E94A3
:101100003E3218160CF0CFC48092E3079092E407A9
:10111000A092E507B092E60769E070E080E090E019
:101120003BD98C0190932E0880932D082091E307E2
:101130003091E4074091E5075091E60760915C0229
:1011400070915D0280915E0290915F020E94423236
:101150006B017C0120E030E04FE753E40E944E3009
:1011600018160CF4B9C4C092E707D092E807E092D1
:10117000E907F092EA0720E030E0A9016091E70773
:101180007091E8078091E9079091EA070E943E324A
:1011900087FF08C01092E7071092E8071092E9074E
:1011A0001092EA074091E7075091E8076091E9073C
:1011B0007091EA07C801B9D860916002709161022C
:1011C000809162029091630275DB6B017C01C09299
:1011D000E707D092E807E092E907F092EA0720E0FB
:1011E00030E040E853E40E944E3087FF84C420E0A2
:1011F00030E0A901C701B6010E943E3287FD79C4E3
:10120000C701B6010E94BF30698769858BE086D827
:10121000C090E707D090E807E090E907F090EA0770
:1012200020E030E040E853E4C701B6010E944E30B0
:1012300087FF66C420E030E0A901C701B6010E9423
:101240003E3287FD5BC4C701B6010E94BF3069878B
:1012500069858CE063D86091640270916502809129
:1012600066029091670226DB6B017C01C092E70762
:10127000D092E807E092E907F092EA0720E030E038
:1012800040E853E40E944E3087FF3FC420E030E046
:10129000A901C701B6010E943E3287FD34C4C701CF
:1012A000B6010E94BF306987698588E037D8809190
:1012B000E3079091E407A091E507B091E6078093DA
:1012C0002F0890933008A0933108B0933208C09053
:1012D0003308D0903408E0903508F09036084090FC
:1012E0003708509038086090390870903A0820917B
:1012F0000C0230910D0240910E0250910F02C70175
:10130000B6010E9442324B015C01209110023091E3
:1013100011024091120250911302C301B2010E94C6
:1013200042329B01AC01C501B4010E94D72F4B0191
:101330005C0120911C0230911D0240911E025091CF
:101340001F026E857F85888999890E9442326A874B
:101350007B878C879D8720912002309121024091CC
:101360002202509123026A897B898C899D890E947F
:1013700042329B01AC016A857B858C859D850E94EC
:10138000D72F9B01AC01C501B4010E94D72F4B019F
:101390005C012091040230910502409106025091B7
:1013A0000702C701B6010E9442326B017C01209105
:1013B00008023091090240910A0250910B02C301C8
:1013C000B2010E9442329B01AC01C701B6010E94EA
:1013D000D72F6B017C0120911402309115024091AE
:1013E0001602509117026E857F85888999890E941F
:1013F00042322B013C012091180230911902409198
:101400001A0250911B026A897B898C899D890E94EE
:1014100042329B01AC01C301B2010E94D72F9B0154
:10142000AC01C701B6010E94D72F609333087093B7
:10143000340880933508909336088092370890924C
:101440003808A0923908B0923A08C090B103D09001
:10145000B203E090B303F090B4033FEFC31AD30A92
:10146000E30AF30AC092B103D092B203E092B3034D
:10147000F092B403C114D104E104F10499F4809111
:10148000B5039091B603A091B703B091B80301964C
:10149000A11DB11D8093B5039093B603A093B7032C
:1014A000B093B8038090B9039090BA03A090BB03A7
:1014B000B090BC036091B5037091B6038091B703FF
:1014C0009091B8030E94EB30A50194010E94423232
:1014D00020E030E040E85FE40E9442322B013C0112
:1014E000C701B6010E94EB30A50194010E9442326F
:1014F0009B01AC01C301B2010E94D72F6093AD03E1
:101500007093AE038093AF039093B003A1960FB690
:10151000F894DEBF0FBECDBFDF91CF911F910F9129
:10152000FF90EF90DF90CF90BF90AF909F908F9003
:101530007F906F905F904F903F902F90089581E043
:1015400090E0C7CD80914F0890915008A09151082C
:10155000B09152088093DF079093E007A093E107D2
:10156000B093E2072091D3073091D4074091D5077B
:101570005091D6076091D7077091D8078091D9070D
:101580009091DA070E94D62F20914C0130914D01A5
:1015900040914E0150914F010E94423220915001E2
:1015A0003091510140915201509153010E944232B9
:1015B0002091DB073091DC074091DD075091DE0779
:1015C0000E94D72F2091540130915501409156012E
:1015D000509157010E9442320E94A5322091580139
:1015E0003091590140915A0150915B010E94423261
:1015F00020915C0130915D0140915E0150915F014D
:101600000E94D72F60934F08709350088093510821
:101610009093520880916808882331F0833049F014
:10162000082E000C990B02C082E090E080936808BD
:1016300052CD81E090E0FACF2091D3073091D407CA
:101640004091D5075091D6076091D7077091D80780
:101650008091D9079091DA070E94D62F20916001DE
:101660003091610140916201509163010E944232C8
:101670006B017C0180903B0890903C08A0903D0855
:10168000B0903E082091CC013091CD014091CE0127
:101690005091CF01C501B4010E9442322B013C019F
:1016A00050ED252E51E0352E0FEB12E0E7ECF2E085
:1016B000E017F10709F04EC12091E0013091E101FE
:1016C0004091E2015091E301C701B6010E9442320C
:1016D000A30192010E94D72F2091E8013091E901E6
:1016E0004091EA015091EB010E9442322091180191
:1016F0003091190140911A0150911B010E94D72F7E
:101700006093DF077093E0078093E1079093E2070F
:10171000209164013091650140916601509167010B
:10172000C501B4010E9442322B013C0138E6232E50
:1017300031E0332E05EB12E0EDEBF2E0E017F107BC
:1017400009F027C12091B8013091B9014091BA0147
:101750005091BB01C701B6010E944232A301920120
:101760000E94D72F6E8B7F8B888F998F20913F0897
:1017700030914008409141085091420860917801B1
:101780007091790180917A0190917B010E9442329F
:101790002B013C012091BC013091BD014091BE0163
:1017A0005091BF01C701B6010E9442329B01AC01BA
:1017B000C301B2010E94D72F6A8F7B8F8C8F9D8FC0
:1017C00020917C0130917D0140917E0150917F01FB
:1017D000C501B4010E9442322B013C0120E831E0F6
:1017E0003B872A87BBEA2B2EB2E03B2E03EB12E0AD
:1017F0000215130509F0ECC02091C0013091C10120
:101800004091C2015091C301C701B6010E9442320A
:10181000A30192010E94D72F6E8F7F8F88A399A377
:10182000209190013091910140919201509193014A
:10183000C501B4010E9442322B013C01E4E9F1E010
:10184000FB87EA8751EA252E52E0352E09EA12E09D
:101850000215130509F0DDC02091C4013091C501C6
:101860004091C6015091C701C701B6010E944232A2
:10187000A30192010E94D72F2B013C012091A401CA
:101880003091A5014091A6015091A701C501B40175
:101890000E9442324B015C01E8EAF1E0FB87EA87F3
:1018A00037E9232E32E0332E0FE912E0021513053B
:1018B00009F0D0C02091C8013091C9014091CA01FE
:1018C0005091CB01C701B6010E944232A50194019B
:1018D0000E94D72F2E893F89488D598D20933B0830
:1018E00030933C0840933D0850933E082A8D3B8D31
:1018F0004C8D5D8D20933F08309340084093410804
:10190000509342082E8D3F8D48A159A12093430842
:101910003093440840934508509346084092470846
:10192000509248086092490870924A0860934B08A8
:1019300070934C0880934D0890934E0880916708EF
:10194000882309F4A8C0833009F4AAC0082E000C2B
:10195000990BA3C0D1016D917D918D919D911D0138
:10196000D801ED91FD918D01EE0FFF1FEE0FFF1FCE
:10197000E55CF74F20813181428153810E944232E0
:101980009B01AC01C301B2010E94D72F2B013C0186
:101990008DCED1016D917D918D919D911D01D801CB
:1019A000ED91FD918D01EE0FFF1FEE0FFF1FE55C26
:1019B000F74F20813181428153810E9442329B0145
:1019C000AC01C301B2010E94D72F2B013C01B4CE60
:1019D000AA85BB856D917D918D919D91BB87AA87CD
:1019E000D101ED91FD911D01EE0FFF1FEE0FFF1FC5
:1019F000E55CF74F20813181428153810E94423260
:101A00009B01AC01C301B2010E94D72F2B013C0105
:101A1000EFCEAA85BB856D917D918D919D91BB8700
:101A2000AA87D101ED91FD911D01EE0FFF1FEE0F71
:101A3000FF1FE55CF74F20813181428153810E9475
:101A400042329B01AC01C301B2010E94D72F2B018E
:101A50003C01FECEAA85BB856D917D918D919D91B6
:101A6000BB87AA87D101ED91FD911D01EE0FFF1FEC
:101A7000EE0FFF1FE55CF74F2081318142815381DA
:101A80000E9442329B01AC01C501B4010E94D72FD4
:101A90004B015C010BCF82E090E0809367081BCB89
:101AA00081E090E0FACF8090580290905902A09087
:101AB0005A02B0905B02A5019401C701B6010E94D1
:101AC0004E3087FD21CBC092E307D092E407E0922D
:101AD000E507F092E60720CB80E090E0AFE7B3E4C3
:101AE0008093E7079093E807A093E907B093EA078C
:101AF00042CB19868ACB8FEF898787CB1986A8CBF3
:101B00008FEF8987A5CB1986CFCB8FEF8987CCCB79
:101B10004F925F926F927F928F929F92AF92BF92FD
:101B2000DF92EF92FF920F931F93CF93DF9384E0A6
:101B300090E00BD2E7E9F3E08BE2DF011D928A959A
:101B4000E9F780E090E0A0E8BFEB86A397A3A0A709
:101B5000B1A78AE097EDA3E2BBE382A393A3A4A37A
:101B6000B5A38AEA9EEEACE3B3E484839583A683AF
:101B7000B78382EB9DE5A9EFB5E480879187A287C3
:101B8000B3878BE793E1AEEDB9E184879587A687AC
:101B9000B78789EF97E5AFEEBAE1808B918BA28B87
:101BA000B38BABE8B3E0B383A283E9E7F3E011962C
:101BB000FC93EE9384E992E0918380839383828304
:101BC0009583848397838683918780879387828791
:101BD00089E698E09587848787E698E097878687E7
:101BE00088E698E0918B808B8BEA93E015969C9326
:101BF0008E9314978BE993E013969C938E93129790
:101C00008DEA93E017969C938E9316978BECA82EF3
:101C100087E0B82E80E3F50111928A95E9F7CBEFC2
:101C2000D7E084E7DE011D928A95E9F780E090E530
:101C3000A3ECB8E48C879D87AE87BF87DD24D3945F
:101C4000D0926E0894E0892E91E0992EF401848D53
:101C5000958DA68DB78D888B998BAA8BBB8B412CCC
:101C6000512C3201439449825A826B827C8250E02B
:101C700040E060E070E0CB010E94A3009F838E8370
:101C800040EA56E861E070E0488759876A877B87B9
:101C90000E94C700DD821CA6D0926A084DA65EA6EF
:101CA0006FA678AAE12CF12C8701A801970169E0C1
:101CB00070E080E090E00E9410029BAB8AABD9AA52
:101CC0001CA2D0926D084DA25EA26FA278A661E020
:101CD0008BE00E948601D9A61C8ED0926C084D8E96
:101CE0005E8E6F8E78A261E08CE00E948601D9A2A0
:101CF0001C8AD0926B084D8A5E8A6F8A788E61E06A
:101D000088E00E948601D98E8091F8019091F901B6
:101D1000A091FA01B091FB018CAB9DABAEABBFAB18
:101D20008091440290914502A0914602B0914702F1
:101D300088AF99AFAAAFBBAF8CAF9DAFAEAFBFAF0F
:101D4000F40184819581A681B78180935308909393
:101D50005408A0935508B093560884859585A685A8
:101D6000B7858093570890935808A0935908B0936B
:101D70005A0884AD95ADA6ADB7AD80935B0890933E
:101D80005C08A0935D08B0935E0880914801909133
:101D90004901A0914A01B0914B0180934F08909363
:101DA0005008A0935108B09352088091E40190919B
:101DB000E501A091E601B091E70180933B08909383
:101DC0003C08A0933D08B0933E0880933F08909351
:101DD0004008A0934108B093420880934308909331
:101DE0004408A0934508B093460880934708909311
:101DF0004808A0934908B0934A0880934B089093F1
:101E00004C08A0934D08B0934E08809150029091D9
:101E10005102A0915202B0915302F501848B958B2F
:101E2000A68BB78BDF91CF911F910F91FF90EF9011
:101E3000DF90BF90AF909F908F907F906F905F905A
:101E40004F9008958091FB07811119C081E0809324
:101E5000FB078091FC079091FD07A091FE07B091D0
:101E6000FF070197A105B10551F48091000888236F
:101E700031F080910108909102080E9485018091C3
:101E8000270881112EC081E08093270880912808BF
:101E900090912908A0912A08B0912B080197A105DB
:101EA000B105F9F480912C088823D9F069E070E03D
:101EB00080E090E00E94CC0190932E0880932D0842
:101EC00040E050E0BA010E94950169E070E080E0D6
:101ED00090E00E94CC0190932E0880932D080E94E0
:101EE000610280911F08811103C081E080931F0867
:101EF00080911708811103C081E0809317088091B9
:101F00000F08811103C081E080930F08089560E0FD
:101F100070E080E89FE7089560E070E080E89FE768
:101F2000089560E070E080E89FEF089560E070E061
:101F300080E89FEF089560E070E080EC9FEF0895E7
:101F400060E070E080EC9FEF0895F5DF60937B0820
:101F500070937C0880937D0890937E08F1DF6093F6
:101F60006F08709370088093710890937208CFDFA8
:101F700060937708709378088093790890937A0833
:101F8000CBDF609373087093740880937508909307
:101F90007608C7DF60937F0870938008809381087C
:101FA00090938208C3DF60938308709384088093C2
:101FB0008508909386080895CF92DF92EF92FF9262
:101FC000CF936B017C01AC019B016091770870910C
:101FD00078088091790890917A080E944E30C1E08B
:101FE000882371F0A701960160917F0870918008A5
:101FF00080918108909182080E944E308111C0E04A
:102000008C2FCF91FF90EF90DF90CF9008950F939A
:102010001F938B019C010027112720783F77011522
:10202000110520483F4749F4AB01BC016F77772782
:1020300081E0452B462B472B09F480E01F910F913F
:102040000895E5CF4F925F926F927F928F929F9209
:10205000AF92BF92CF92DF92EF92FF920F931F93B6
:10206000F8944090CE035090CF036090D0037090CE
:10207000D103C090C203D090C303E090C403F0909A
:10208000C503452B09F0A4C09B01AC0124193509F7
:102090004609570929013A010091CA031091CB035F
:1020A0002091CC033091CD0348015901840C951C3B
:1020B000A61CB71C80169106A206B306A0F40091D8
:1020C000C6031091C7032091C8033091C9030F5F65
:1020D0001F4F2F4F3F4F0093C6031093C70320930A
:1020E000C8033093C9038092CA039092CB03A09295
:1020F000CC03B092CD030091C6031091C703209189
:10210000C8033091C9038092D2039092D303A09266
:10211000D403B092D5030093D6031093D703209332
:10212000D8033093D9036093CE037093CF03809389
:10213000D0039093D103A4ECB9E0A30192010E94D3
:10214000873C6C0D7D1D8E1D9F1D6093C203709397
:10215000C3038093C4039093C50300916B02109155
:102160006C0220916D0230916E020F3F1F4F2F4F76
:102170003F4FF1F000916B0210916C0220916D02C3
:1021800030916E020E3F1F4F2F4F3F4F89F0C0908E
:102190006B02D0906C02E0906D02F0906E0221E034
:1021A0008C149D04AE04BF0408F420E02093DE03E9
:1021B00078941F910F91FF90EF90DF90CF90BF9098
:1021C000AF909F908F907F906F905F904F90089509
:1021D0004B015C0184189508A608B708A301920179
:1021E000261B370B480B590B64157505860597059B
:1021F000D0F082169306A406B50640F420E030E045
:10220000A90181149104A104B10491F4A4ECB9E0F2
:102210000E94873CA7019601261B370B480B590BE0
:10222000CA01B901C5CF82169306A406B50670F798
:10223000A4ECB9E0A50194010E94873C6C0D7D1DC2
:102240008E1D9F1DB5CFFECECF93DF9300D000D063
:10225000CDB7DEB71C821B821A8219821092DA0374
:102260001092DB031092DC031092DD03BE016F5F5E
:102270007F4FCE0103960E94102E69817A818B8157
:102280009C810E940027009761F4BE016F5F7F4F21
:10229000CE0103960E941C2E69817A818B819C81DC
:1022A0002CD50F900F900F900F90DF91CF91089544
:1022B000FF920F931F93CF93DF93082F60E070E09E
:1022C000CB010E941639FF24F3940E94EB25EC0108
:1022D000892B89F010E0CE3F8FEFD80769F00023FB
:1022E00061F160E070E0CB010E94163981E090E07E
:1022F000892B59F322C011E023D5EC01892B21F061
:10230000CE3F8FEFD80759F711111EC011E022966A
:1023100009F410E00E949C25EC01892B21F0CE3FAE
:102320008FEFD807E1F6111111C011E0CE3F8FEF0A
:10233000D80709F410E001110BC0CE01DF91CF9155
:102340001F910F91FF90089511E0E4CF11E0F3CFBA
:1023500060E070E0CB010E9416391F25812F90E0CC
:10236000C7CFCF93DF938091DE03882321F060E015
:1023700070E0CB014CD635D6D0E0C0E0892B71F0AF
:102380006AE070E080E090E00E94163981E090DF22
:1023900028D62196C03D27E0D20781F727D60E9494
:1023A00054271092F6031092F5031092EF03109247
:1023B000F0031092F1031092F2031092EB031092CB
:1023C000EC031092ED031092EE031092E7031092CB
:1023D000E8031092E9031092EA031092E3031092CB
:1023E000E4031092E5031092E6031092DF031092CB
:1023F000E0031092E1031092E2034EEF5FEF6FEF04
:102400007FEF40936B0250936C0260936D02709368
:102410006E021092DE03E2EDF3E028E0DF011D9290
:102420002A95E9F71092CE031092CF031092D003B1
:102430001092D1031092CA031092CB031092CC03D6
:102440001092CD031092C6031092C7031092C803D6
:102450001092C9031092C2031092C3031092C403D6
:102460001092C503DF91CF9108951092020410924B
:102470000304109204041092050410920104809148
:102480000A0490910B04909300048093FF03109230
:10249000FE031092FD031092F9031092FA031092BA
:1024A000FB031092FC03109207041092060490E0C4
:1024B00080E00895CF92DF92EF92FF920F931F93E7
:1024C000CF938C01892B09F055C020910A043091DB
:1024D0000B048091FF039091000440910A045091F5
:1024E0000B04509300044093FF032817390781F031
:1024F0001092FE031092FD031092F9031092FA035A
:102500001092FB031092FC03109207041092060431
:1025100080910A0490910B04019761F58091060463
:1025200090910704892B21F480916F02811112C0D0
:1025300080910604909107040197E1F48091F903DA
:102540009091FA03A091FB03B091FC030197A105C0
:10255000B10581F41092F9031092FA031092FB0373
:102560001092FC0310926F0282E090E090930704B7
:102570008093060480910A0490910B04019709F05E
:102580001CC180912004909121048017910709F0CB
:1025900014C180911C0490911D04A0911E04B0915F
:1025A0001F04009709F409C120911B0421110DC0DB
:1025B00040911C0450911D0460911E0470911F04F1
:1025C000452B462B472B09F4F8C020910604309187
:1025D00007042230310509F0F0C02091FD032111DC
:1025E000ECC0FC01C080D180E280F38080910104C6
:1025F000882309F4D3C080910D0490910E04892B97
:1026000009F4FDC020910D0430910E0481E02230C8
:10261000310509F080E020910D0430910E04C1E0F5
:102620002130310549F020910D0430910E04C1E0B4
:102630002230310509F0C0E0882309F456C020910A
:102640001704309118044091190450911A04C701DD
:10265000B6010E943E3287FD14C0209117043091CC
:1026600018044091190450911A0460910204709169
:10267000030480910404909105040E944E3087FD6C
:1026800022C02091170430911804409119045091F0
:102690001A04C701B6010E943E32181634F5209183
:1026A0001704309118044091190450911A04609154
:1026B00002047091030480910404909105040E9427
:1026C0004E30811112C080910F0490911004A0919E
:1026D0001104B0911204892B8A2B8B2B19F481E001
:1026E0008093FE0381E08093FD03CC2309F456C060
:1026F00020911704309118044091190450911A0444
:10270000C701B6010E944E3087FF14C02091170404
:10271000309118044091190450911A0460910204F8
:102720007091030480910404909105040E943E324C
:1027300087FF22C02091170430911804409119049A
:1027400050911A04C701B6010E944E30811126C073
:1027500020911704309118044091190450911A04E3
:102760006091020470910304809104049091050427
:102770000E943E32181694F480910F049091100438
:10278000A0911104B0911204892B8A2B8B2B19F480
:1027900081E08093FE0381E08093FD0381E09091CE
:1027A000FD03911180E080930104C0920204D09255
:1027B0000304E0920404F0920504012B09F067C1C0
:1027C0008091060490910704892BD9F410920C048F
:1027D0001092FD0380916F02882379F082E090E0EF
:1027E000909307048093060410926F0220910A04CC
:1027F00030910B0481E0232BE9F080E01BC081E0E5
:102800000ACF10926F0280910C04882349F0109235
:10281000FE03109207041092060410920C04EDCFF0
:1028200080910A0490910B04892BE1F08091FD03C3
:102830001092FD03209106043091070422303105E7
:1028400009F45EC088F42115310509F448C021302F
:10285000310509F4F3C01092FE031092FD031092AB
:102860000C0438C081E0E6CF2330310509F4B1C053
:102870002430310581F74091F9035091FA036091BA
:10288000FB037091FC03411551056105710561F071
:1028900041505109610971094093F9035093FA03BA
:1028A0006093FB037093FC034091F9035091FA038A
:1028B0006091FB037091FC03452B462B472BD9F409
:1028C00020910804309109042130310509F046C0F7
:1028D0001092FE0310920704109206040CC080911F
:1028E0006F02882341F082E090E090930704809388
:1028F000060410926F021092F7038091FE03CEC07F
:102900008823C9F380910F0490911004A0911104C1
:10291000B0911204181619061A061B060CF07DC099
:1029200080910A0490910B04019709F076C0809180
:102930000F0490911004A0911104B091120480939F
:10294000F9039093FA03A093FB03B093FC0383E095
:1029500090E09093070480930604CDCF4091130438
:10296000509114046091150470911604452B462B68
:10297000472BA9F01092FE03809113049091140448
:10298000A0911504B09116048093F9039093FA0373
:10299000A093FB03B093FC0381E090E0DACF88239F
:1029A00099F08091700290917102A0917202B091A1
:1029B00073028093F9039093FA03A093FB03B093FF
:1029C000FC0384E090E0C5CF1092FE0382E090E02B
:1029D000C0CF8091F9039091FA03A091FB03B091CD
:1029E000FC030097A105B10559F00197A109B109B0
:1029F0008093F9039093FA03A093FB03B093FC0335
:102A00008091F9039091FA03A091FB03B091FC032C
:102A1000892B8A2B8B2B09F06ECF809170029091BD
:102A20007102A0917202B0917302892B8A2B8B2BB9
:102A300009F44ECF81E08093FE03B3CF4091F903B8
:102A40005091FA036091FB037091FC03411551050D
:102A50006105710561F041505109610971094093A7
:102A6000F9035093FA036093FB037093FC034091C6
:102A7000F9035091FA036091FB037091FC03452B1D
:102A8000462B472B09F037CF8111C7CF9FCF8091BD
:102A9000F703882309F431CF8091F803CF911F9178
:102AA0000F91FF90EF90DF90CF9008951092020465
:102AB0001092030410920404109205041092010471
:102AC0001092070410920604109200041092FF0363
:102AD00010922104109220041092FE031092FD0324
:102AE0001092F9031092FA031092FB031092FC0368
:102AF0001092F8031092F70310921C0410921D0418
:102B000010921E0410921F0410921B0410921704BE
:102B1000109218041092190410921A0488EE93E08F
:102B2000A0E0B0E08093700290937102A0937202D3
:102B3000B0937302109213041092140410921504AF
:102B40001092160410920F041092100410921104A7
:102B50001092120410920E0410920D0481E08093E2
:102B60006F0210920C0410920B0410920A0410923F
:102B700009041092080490E080E0089580910A040E
:102B800090910B04892B19F580916F02882351F0E5
:102B900080910C04811106C081E08093F80380933A
:102BA000F703089520910C0430916F0281E090E0CA
:102BB000332311F090E080E030E082239323892BCF
:102BC00021F01092F80381E0EACF1092F703089504
:102BD00082E090E0FA01918380838FEF9FEF089568
:102BE000CF93DF93EA01009711F00E9474281982B5
:102BF000188290E080E0DF91CF910895DB0100978B
:102C000019F48FEF8C9308952EEF2C930F968F303D
:102C1000910508F033C0FC01E05FF94E0C94723C62
:102C20003C163A16381636163416301632162E164C
:102C30002C162A16271623161F1625163E1680E375
:102C400011968C93089589E2FBCF82E2F9CF119619
:102C50001C92089583E2F4CF81E2F2CF81E1F0CFBC
:102C600087E2EECF8AE2ECCF80E1EACF84E2E8CFE0
:102C700088E2E6CF86E2E4CF81E3E2CF80E2E0CFF4
:102C800080912E0490912F04089590932F048093A7
:102C90002E04089580912D04089590912D04892B80
:102CA00080932D040895982F909580912D04892369
:102CB00080932D04089580912C04089580912A0416
:102CC00090912B0408956115710559F0FB0130E0D6
:102CD00020E070E060E02417350719F061157105F8
:102CE00011F0CB010895A081B181A817B90709F4AB
:102CF000BF012F5F3F4F3696EECF80913004811198
:102D00001CC062D268D290932304809322040E9454
:102D100084200E94962090932704809326040E948A
:102D200006250E940D25909325048093240481E0BC
:102D30008093300490E080E0089584EF9FEF089541
:102D40008F929F92AF92BF92CF92DF92EF92FF92BB
:102D50000F931F93CF93DF93CDB7DEB72A970FB6AC
:102D6000F894DEBF0FBECDBF1A86198618861F8263
:102D70001E821D821C821B821A821982809130045D
:102D800007EF1FEF882309F49CC08E010D5F1F4FD2
:102D90009E012B5F3F4FAE01495F5F4FBE01675FF2
:102DA0007F4F90E080E00E9486268C01009721F002
:102DB0000596029708F0DBC029853A852115310573
:102DC00009F402C1ED80FE804B815C81B701640F84
:102DD000751F8F8198858617970708F4F5C0E20E56
:102DE000F31ED7019C91903C09F07FC04230510501
:102DF00008F47BC011968C9140912E0450912F04C1
:102E0000452B09F49CC0913F08F071C02CE1290FBB
:102E10002D3008F48BC02DE2290F203108F489C031
:102E2000903C21F48150823008F483C088E3890FFC
:102E30008B3008F481C09EEFC92E95E1D92EE8EEC3
:102E4000F5E16D817E81AE014F5F5F4F89859A8587
:102E500009955C01C114D104A1F189809A80811483
:102E6000910479F18B819C818815990508F487C0BC
:102E700010E000E04B815C8170E060E0C7010E94DF
:102E80009A3C01151105E9F449815A8169857A85D1
:102E90008D819E81680F791FC501F6010995E98032
:102EA000FA800D811E812F81388549855A856FEF03
:102EB0007FEF81E090E00E9422268C01892B09F0AF
:102EC00056C0C8012A960FB6F894DEBF0FBECDBF1C
:102ED000DF91CF911F910F91FF90EF90DF90CF90F6
:102EE000BF90AF909F908F90089580E085CF30E0A5
:102EF00020E0220F331FF901EE5DFB4F0190F081BE
:102F0000E02D309709F497CF892F90E0099500972D
:102F100009F491CFDC011296ED91FC911397149670
:102F2000CD90DC90309709F08CCF1FC021E030E0CD
:102F3000E0CF22E030E0DDCF23E030E0DACFD12C6B
:102F4000C12CE0EFF5E19F3F09F07BCFE091220437
:102F5000F0912304309721F4C90104EF1FEF0CC056
:102F60008FEF90E009950097A9F604EF1FEF898590
:102F70009A85009709F4A5CF0E947428A2CF0E94D9
:102F80004F278C0189859A850E94742870E060E043
:102F9000C4010E94E82698878F830E941F269E8383
:102FA0008D836F8178856115710559F0C8010E9484
:102FB000002A9A87898706EF1FEF892B09F058CFDF
:102FC00059CF08EF1FEF56CF08EF1FEFD0CF20915A
:102FD0003004222319F020E00C949B2087EF9FEF10
:102FE000089580912E0490912F0408950E94122537
:102FF0000E946C24F5D0E2E2F4E088E0DF011D924B
:103000008A95E9F71092300490E080E008950C94DE
:10301000C92221E040E050E0BA010C949B2086E0F8
:1030200090E0FA019183808390E080E0089547E08A
:1030300050E069EC72E047CEDF92EF92FF920F937F
:103040001F93CF93DF938A01EC01C60FD71FE09047
:103050003404F0903504D9800E943727D816190619
:1030600078F082E090E0F801918380838EEF9FEF0B
:10307000DF91CF911F910F91FF90EF90DF90089516
:10308000EF2841F482E090E0F8019183808384EF9F
:103090009FEFEECF89818093330490E00196F80191
:1030A0009183808390E080E0E3CFCF93DF93EA01C8
:1030B0000E947A23882321F00E9444270E947B23C8
:1030C00082E090E0998388838BEF9FEFDF91CF912F
:1030D0000895CF93DF93EB0186E0FB0111928A956F
:1030E000E9F78FEF8883D6DD8983E5DD8A83E6DD26
:1030F0009D838C83DF91CF910895CF93DF93EA0175
:103100000E947D23811109C082E090E09983888329
:1031100085EF9FEFDF91CF91089590E080E0B5DDDE
:1031200081E090E09983888390E080E0F3CF0F9373
:103130001F93CF93DF93EA018C01060F171F0E94A4
:103140007D2381110BC082E090E09983888385EF15
:103150009FEFDF91CF911F910F910895F801818129
:10316000823038F082E090E0998388838EEF9FEF81
:10317000F0CF81E090E089DD88E090E0998388835A
:1031800090E080E0E6CFCF93DF930097D1F4EB019E
:10319000FB01329686E0DF011D928A95E9F78FEFF9
:1031A000888385E089831A820E9437278B830E9457
:1031B00036279D838C8381E08E838F83DF91CF912F
:1031C0000895DF91CF911ACD87E198E19093320471
:1031D00080933104089580913104909132040895D0
:1031E0001092320410923104089580913404909129
:1031F00035040895411105C06115710581059105DA
:1032000061F0609334047093350480933604909396
:1032100037044093380481E0089580E00895FF92D8
:103220000F931F93CF93DF938A01EC01C60FD71F33
:10323000F9800E943727F816190668F082E090E0BE
:10324000F801918380838EEF9FEFDF91CF911F91E3
:103250000F91FF9008956C817D818E819F814B81BC
:10326000C9DF811108C082E090E0F801918380837A
:1032700084EF9FEFEACF89818093330490E0019639
:10328000F8019183808390E080E0DFCFCF93DF93DC
:10329000EA01FC01E60FF71F648175818681978141
:1032A0004381A8DF811109C082E090E0998388837F
:1032B00084EF9FEFDF91CF91089581E090E09983B3
:1032C000888390E080E0F6CFE4E3F4E04081518130
:1032D00062817381480F511D611D711D40835183AF
:1032E000628373830895CF93C09133044C2F50E0D1
:1032F000609134047091350401960E94913C8C2FAA
:10330000E3DF10923304CF910895009799F48091F0
:103310003404909135042FEFFB012083892B59F061
:103320002091330430E02F5F3F4F2417350719F405
:10333000CB01D9CF63CC0895009799F480913404E0
:10334000909135042FEFFB012083892B59F02091B8
:10335000330430E02F5F3F4F2417350719F4CB01BA
:10336000C2CF4CCC089523E1AC01249FC001259F1E
:10337000900D1124E0913D04F0913E04E80FF91FF7
:10338000238134812250310981E02230310508F057
:1033900080E008950F931F93CF93DF9300913F0434
:1033A00010914004D0E0C0E080E00C171D0749F404
:1033B00091E0811190E0892FDF91CF911F910F91C2
:1033C00008958111F5CFCE01CEDF2196EECFA091E9
:1033D0003D04B0913E04109729F120913F043091B3
:1033E000400482179307F0F453E1589F9001599FCE
:1033F000300D1124A20FB31FED91FC91119730975E
:1034000089F012968C91681768F48BE0689FE00D44
:10341000F11D112480819181892B21F081E092811D
:10342000491708F080E008959C0143E1429FC001E4
:10343000439F900D1124E0913D04F0913E04E80F6C
:10344000F91F8385823091F481E090E06581768177
:1034500040917402509175026417750711F490E061
:1034600080E0892B19F081E0232B09F080E008959A
:10347000EF92FF920F931F93CF93DF93EA01FC012A
:10348000E60FF71F02811381E480F5804F2D6E2D2A
:10349000C8019DDF81110DC082E090E0998388838F
:1034A0008EEF9FEFDF91CF911F910F91FF90EF90E3
:1034B0000895C80158DF882339F082E090E09983AD
:1034C000888388EF9FEFEECF10937B0200937A0200
:1034D000E0927C02F0927D0281E090E09983888303
:1034E00090E080E0DFCFCF92DF92EF92FF920F93D8
:1034F0001F93CF93DF937A01EC01C60FD71FC090C3
:103500007A02D0907B0200917C0210917D02412FC3
:10351000602FC6015CDF811110C082E090E0F701EE
:10352000918380838AEF9FEFDF91CF911F910F915D
:10353000FF90EF90DF90CF900895C60114DF8823AD
:1035400041F082E090E0F7019183808388EF9FEF64
:10355000EBCF4C815D816E817F819A8189818F3F24
:1035600041F082E090E0F701918380838EEF9FEF3E
:10357000DBCFE3E1EC9D9001ED9D300D1124E09156
:103580003D04F0913E04E20FF31F0190F081E02D25
:103590002BE0029FE00DF11D11240190F081E02D40
:1035A00027E0129FE00DF11D1124808391838B8110
:1035B000828343835483658376831F5F10937D02E8
:1035C00081E090E0F7019183808390E080E0ACCFD0
:1035D000EF92FF920F931F93CF93DF937A018C01A9
:1035E000060F171FC0913D04D0913E04209781F033
:1035F00021E030E0F8018281938140913F045091B5
:1036000040048417950710F030E020E0232B71F47C
:1036100082E090E0F701918380838EEF9FEFDF914E
:10362000CF911F910F91FF90EF90089543E1489F34
:103630009001499F300D1124C20FD31F94DE8823BF
:1036400041F082E090E0F7019183808388EF9FEF63
:10365000E6CFF8012481358120383105C8F687810D
:103660008111D6CF4181842F90E08F7E009741F069
:1036700082E090E0F7019183808386EF9FEFCFCFC8
:103680004F833E832D83268128871986223010F4AC
:1036900021E0288721E030E0F70131832083BFCF8C
:1036A00088E090E0FA019183808390E080E00895C3
:1036B000FB018FEF808381E181838FEF9FEF938305
:1036C000828380E890E09583848316821782089530
:1036D000FB018FEF808391E09183828393838483C6
:1036E00084E3858381E090E0978386830895DF9269
:1036F000EF92FF920F931F93CF93DF93EA01FC01A8
:10370000E60FF71F8181813071F082E090E09983AC
:1037100088838FEF9FEFDF91CF911F910F91FF90E3
:10372000EF90DF90089582819381D4802581E68097
:10373000F78000913D0410913E040115110539F404
:1037400082E090E0998388838CEF9FEFE4CF4091F3
:103750003F04509140048417950738F082E090E0D0
:10376000998388838EEF9FEFD6CF892B39F082E043
:1037700090E09983888386EF9FEFCDCF8D2D8D7F4D
:10378000B1F72130A1F781E0D11006C091E0E91630
:10379000F10431F080E004C0E2E0EE16F104D0F371
:1037A000882329F390E080E0DEDD882339F082E091
:1037B00090E09983888388EF9FEFADCFF801D3869F
:1037C00081E08487F686E586108A178681E090E09E
:1037D0009983888390E080E09ECF4CE050E063EFD7
:1037E00072E071CA8F929F92BF92CF92DF92EF9256
:1037F000FF920F931F93CF93DF93EA01FC01E60F33
:10380000F71F828193810481B580E0913D04F0919E
:103810003E04309791F482E090E0998388838CEFA6
:103820009FEFDF91CF911F910F91FF90EF90DF906D
:10383000CF90BF909F908F90089520913F0430913A
:1038400040048217930738F082E090E099838883E0
:103850008EEF9FEFE6CF23E1289F6001299FD00CD8
:103860001124EC0DFD1DE080F180E114F10499F2CA
:103870008281081748F78BE0089F80011124E00E31
:10388000F11EF70180819181892B29F6BB20E1F29D
:10389000F7E0BF9E40011124C4010E943B28F701BC
:1038A00091838083E0913D04F0913E04EC0DFD1D79
:1038B0000190F081E02DE00FF11F80819181009750
:1038C00039F482E090E0998388838DEF9FEFA9CF50
:1038D000A40170E060E00E949A3C80913D049091C8
:1038E0003E04C80ED91EF60180819181080F191F70
:1038F000F801B28281E090E09983888390E080E0D3
:1039000090CFAF92BF92CF92DF92FF920F931F930F
:10391000CF93DF93EA01FC01E60FF71F82819381C9
:10392000F48000913D0410913E040115110581F4CD
:1039300082E090E0998388838CEF9FEFDF91CF91B5
:103940001F910F91FF90DF90CF90BF90AF9008959F
:1039500020913F04309140048217930738F082E0B1
:1039600090E0998388838EEF9FEFE8CF2FEF2F0DA4
:103970002C3FA8F723E1289F6001299FD00C112438
:103980000C0D1D1DF80180819181892B89F6FBE0CA
:10399000FF9E50011124C5010E943B28F80191832C
:1039A0008083E0913D04F0913E04EC0DFD1D80818B
:1039B0009181009739F482E090E0998388838DEFBC
:1039C0009FEFBCCFA50170E060E00E949A3CE091BF
:1039D0003D04F0913E04EC0DFD1DF28281E090E08B
:1039E0009983888390E080E0A9CFCF92DF92EF9215
:1039F000FF920F931F93CF93DF93860F971FFC01C6
:103A00000281138180913D0490913E04892B81F0C5
:103A100082E090E0FA01918380838CEF9FEFDF9149
:103A2000CF911F910F91FF90EF90DF90CF9008956D
:103A3000C801B0E0A0E00197A109B1098F3F9F4FF5
:103A4000A105B10540F082E090E0FA019183808306
:103A50008EEF9FEFE4CF7A0183E1809F6001819F29
:103A6000D00C1124C6010E943B28EC01009741F4C0
:103A700082E090E0F701918380838DEF9FEFCFCFBD
:103A8000A60170E060E00E949A3CD0933E04C0938F
:103A90003D041093400400933F0490E080E02FEF3A
:103AA0003FEF41E061E070E08017910741F481E071
:103AB00090E0F7019183808390E080E0B0CF3A8B73
:103AC000298B1B864C877E876D87188A1F860196F7
:103AD0006396EACFCF92DF92EF92FF920F931F93FC
:103AE000CF93DF93EC01D12CC12C10E000E0F12C3E
:103AF000E12C6A8170E006171707BCF0660F771F8C
:103B0000AE014F5E5F4FC7010E94A028009721F0D1
:103B10002FEF3FEF3A8B298BDF91CF911F910F91C0
:103B2000FF90EF90DF90CF900895E881F981EC0D40
:103B3000FD1D438154818D859E85489F9001499F3D
:103B4000300D589F300D1124C90101960115110542
:103B500019F44F8144FD049661E070E00E94E8266C
:103B6000E816F90608F47C010F5F1F4F8BE0C80EC2
:103B7000D11CBFCFF89420913B0430913C0481E0EC
:103B80002115310509F080E0232B09F07894089580
:103B90002F923F924F925F926F927F928F929F925D
:103BA000AF92BF92CF92DF92EF92FF920F931F934B
:103BB000CF93DF933C01660E771EF30182819381E0
:103BC0004C01B12CA12CC0913D04D0913E04209712
:103BD00069F021E030E060913F0470914004861765
:103BE000970710F030E020E0232BD1F482E090E042
:103BF000FA01918380838EEF9FEFDF91CF911F9128
:103C00000F91FF90EF90DF90CF90BF90AF909F907B
:103C10008F907F906F905F904F903F902F9008957E
:103C200080927E0290927F02A0928002B0928102E6
:103C300063E1689F9001699F300D1124C20FD31F6B
:103C4000F3018181833040F082E090E0FA019183BA
:103C5000808386EF9FEFD1CF2A012B813C81232BDC
:103C6000F1F4288139819F8191FF2EC0232B09F423
:103C70006FC0209142049A81422F490F5527551F4A
:103C8000BA0141E050E06138710514F050E040E0C5
:103C9000452B09F45DC02A87920F9093420481500E
:103CA000823008F481C066DF882309F4D8C0F301AC
:103CB0008181813009F48DC008F47BC0823009F421
:103CC000C6C090E080E0ADC0232B09F441C0209134
:103CD00041049A81E22FE90FFF27FF1F41E050E0E6
:103CE000ED3FF10514F050E040E0452B89F12A87C3
:103CF000920F90934104D3CFA081B181A20FB31F43
:103D000011966C91060F111D0196295F3F4F841784
:103D1000950794F38D859E85089F1001099F300CAF
:103D2000189F300C1124C114D104D1F48F8184FF69
:103D300017C00E943627F5E02F0E311C21E08215B6
:103D4000930508F420E0A701455F5F4F21110EC0E5
:103D500082E090E0F2019183808387EF9FEF4DCF67
:103D60000E9436272FEF221A320AE8CF88819981E4
:103D7000E80EF91EF70114830383FFEFCF1ADF0A61
:103D80007A018A818C151D0409F00CF48CCFE8812E
:103D9000F981EE0DFF1D428150E030E020E010E09F
:103DA00000E090E080E0B3CFF12CE12CD12CC12CCD
:103DB000E8CF81E090E09C838B83ECDA882309F4E0
:103DC00080CF81E090E00E94451680E40E94531667
:103DD00078CF89899A89019661F083E090E09C838D
:103DE0008B8382E090E00E94451680E40E944D168D
:103DF00068CF8D819E812091740230917502821767
:103E00009307D1F46091780270917902AE014F5E10
:103E10005F4F80917602909177020E94BF290097B0
:103E2000E1F2789422E030E0F20131832083892BA3
:103E300099F08DEF9FEFE1CE89288A288B2869F6CB
:103E4000892B59F6CE0146DE188A1F86E8CF82E01C
:103E500090E09C838B8335CF90E080E0CECE82E0F3
:103E600090E0F2019183808385EF9FEFC6CE8F9221
:103E70009F92AF92BF92CF92DF92EF92FF920F93F9
:103E80001F93CF93DF93EA018C01060F171FF801F0
:103E90008181833098F082E090E09983888386EF77
:103EA0009FEFDF91CF911F910F91FF90EF90DF90E7
:103EB000CF90BF90AF909F908F90089580913D04D8
:103EC00090913E04892B61F081E090E020913F04C5
:103ED00030914004232B11F490E080E0892B39F4D9
:103EE00082E090E0998388838EEF9FEFDACF42DE05
:103EF000882309F4DFC0F8018181813009F495C07D
:103F0000E8F0823099F420913F0430914004E09130
:103F10003D04F0913E0490E080E041E050E028173D
:103F2000390709F0BDC036DA811117C0789481E0F5
:103F300090E09983888390E080E0B3CF20913F04A4
:103F400030914004E0913D04F0913E0490E080E027
:103F500041E050E02817390741F481E090E00E94E9
:103F6000451680E40E945316E1CF63817481672B6C
:103F700011F05483438301967396ECCFE0913D0496
:103F8000F0913E04E00FF11F23813481223031058E
:103F9000D9F4218932892F3F3F4FB1F425813681F1
:103FA00040917402509175022417350761F5AF01F5
:103FB0004F5E5F4F60917802709179028091760236
:103FC000909177020E94BF29EFEFCE1ADE0AEE0A27
:103FD000FE0A0D5E1F4F40913F045091400470E077
:103FE00060E0C416D506E606F7063CF5009731F208
:103FF0007894892B09F49BCF82E090E099838883A1
:104000008DEF9FEF4ECFC114D104E104F104E1F62E
:10401000232BD1F6CF015EDDE0913D04F0913E040B
:10402000E00FF11F108A1786CFCF10E000E090E07C
:1040300080E0C12CD12C7601CECF0097C9F610E0DC
:1040400000E0812C912C540183E0E82EF12C1AC061
:10405000E0913D04F0913E04E00FF11F83819481D3
:10406000029749F4F482E38282E090E00E944516D0
:1040700080E40E944D16FFEF8F1A9F0AAF0ABF0A15
:104080000D5E1F4F80913F0490914004B0E0A0E08E
:1040900088169906AA06BB06DCF290E080E0A8CF5D
:1040A000638174816230710511F4548343830196F6
:1040B000739635CF82E090E09983888385EF9FEFF8
:1040C000F0CE0097B9F48FEFFB01808320917E0240
:1040D00030917F0243E1429FC001439F900D112424
:1040E000E0913D04F0913E04E80FF91F8285FB0149
:1040F000818308950C94FE1588E090E0FA01918385
:10410000808390E080E0089510923C0410923B047C
:10411000EDE3F4E086E0DF011D928A95E9F78DEE8C
:104120009BE190933A048093390408958091390477
:1041300090913A0408952F923F924F925F926F921E
:104140007F928F929F92AF92BF92CF92DF92EF9227
:10415000FF920F931F93CF93DF93CDB7DEB7609796
:104160000FB6F894DEBF0FBECDBFF894E0913B04CC
:10417000F0913C043196F0933C04E0933B04789436
:10418000A0913D04B0913E04BA83A983109709F42D
:10419000FAC1E0913F04F0914004EF2B09F4F3C120
:1041A00028874B875C876D877E879A878987B88B3E
:1041B000AF87312C212CF12C512C412C80913F04C4
:1041C000909140042816390610F4FF2029F1F89444
:1041D00080913B0490913C04019790933C04809320
:1041E0003B047894C20160960FB6F894DEBF0FBE10
:1041F000CDBFDF91CF911F910F91FF90EF90DF9096
:10420000CF90BF90AF909F908F907F906F905F9076
:104210004F903F902F900895B10190E080E087D4B7
:10422000682EEF85F889878181FD3DC08381948167
:104230000397C9F5258136813C832B8389859A852F
:104240002817390781F5C101EFD8782E8823A9F105
:10425000AF85B8891F968D919C915097019621E06A
:104260001D964D915C918417950709F020E02F83EE
:10427000B12CA12CEF85F88982818A151B0419F0D5
:1042800014F0FF20E9F0F885FF2309F46CC1AF8535
:10429000B88950961C921E921F97662021F0B1019A
:1042A00090E080E046D4FFEF2F1A3F0A2F8538892F
:1042B0002D5E3F4F388B2F8781CFB1E0BF83D8CFA2
:1042C000BED49E838D83E885EE23E9F0772009F440
:1042D0003CC1AF85B8891F968D919C91892B79F04F
:1042E000BBE0BA9DC001BB9D900D1124AF85B8897C
:1042F000ED91FC91E80FF91F85819681F5D6BFEF0E
:10430000AB1ABB0AB7CF81E0772039F0EF85F88987
:1043100027853089232B09F080E0F82EE12CA114A9
:10432000B10439F4AF85B8891796EC90E4FAEE241D
:10433000E0F8BBE0BA9D6001BB9DD00C112488233E
:1043400009F424C1AF85B889ED91FC911197EC0D6A
:10435000FD1D438154811D962D913C91429FC001CA
:10436000439F900D529F900D1124E1105DC0019666
:104370009087878361E070E08781908529D5EF85FC
:10438000F88921893289008111810C0D1D1D2F3F73
:10439000320709F44BC0BC01C9010E94002AD801B0
:1043A00016969C938E931597AF85B889ED91FC91E5
:1043B0001197EC0DFD1D058116810115110509F4FC
:1043C000CDC0ED81FE810E0F1F1F1A968C918A0DB4
:1043D000D8018C93E1102FC00F5F1F4FAF85B889B4
:1043E000ED91FC91EC0DFD1D12870187AF85B88919
:1043F000ED91FC91EC0DFD1D85819681892B09F4D1
:10440000A4C080917402909175022B813C81281781
:10441000390709F465C0772011F001851285912CC8
:10442000812C1A8219824AC00596A2CF24D6F8019F
:1044300096838583B9CF8B859C85AD85BE85F80134
:1044400081839283A383B4830B5F1F4FC7CFE08028
:10445000F180E80CF91CD70113966D917C911497AB
:104460008C918F3F09F473C0E1E0F0E002C0EE0FE1
:10447000FF1F8A95E2F7CF01092E000CAA0BBB0B98
:10448000FB01408151816281738184239523A6239E
:10449000B72321E0892B8A2B8B2B09F420E0D8014C
:1044A0002C93D70111968C91080F111DE981FA8187
:1044B0003196FA83E983F7E08F0E911CAF85B889B6
:1044C000ED91FC91EC0DFD1D828129813A818217CD
:1044D000130611F00CF0BBCF772011F01287018783
:1044E0003F81332391F1AF85B889ED91FC91EC0DBB
:1044F000FD1D61E070E0878190856AD4AF85B88941
:10450000ED91FC91EC0DFD1DE780F0844581568115
:10451000E1E0F0E0662011F0F0E0E0E00D811E81C6
:104520009C01B101882799278E1B9F0B8BD32C01EF
:10453000892B59F0EF85F88980819181C80ED91EA9
:10454000D60115968D919C91CFD5F12CD8CEF7013F
:10455000418150E0C8010E94913CA3CF86EF482ED4
:1045600055245A94CCCEEF85F88987859089019699
:10457000908B8787258536858217930709F08DCE26
:10458000108A17868ACE512C412C21CE10E000E0F3
:104590002DCF2F923F924F925F926F927F928F9288
:1045A0009F92AF92BF92CF92DF92EF92FF920F93C2
:1045B0001F93CF93DF9380913D0490913E0410E0D0
:1045C00000E0892BA9F0D6DA0AEF1FEF882381F0EB
:1045D00020903F0430904004C0913D04D0913E04AF
:1045E000D12CC12C10E000E02C143D04A9F47894E7
:1045F000C801DF91CF911F910F91FF90EF90DF9055
:10460000CF90BF90AF909F908F907F906F905F9072
:104610004F903F902F900895C6010E94141A88234E
:1046200009F18B819C810397E9F48F859889892B07
:10463000C9F0B60190E080E07AD221E030E0882332
:1046400011F030E020E044245524421A530AB12CE2
:10465000A12C912C812C8A818815190409F038F439
:10466000188A1F864FEFC41AD40A6396BDCFE8811B
:10467000F981EA0DFB1D85819681892BA1F161E00D
:1046800070E087819085A4D33C01D9D28C01E88168
:10469000F981EA0DFB1D8185928525813681200FE8
:1046A000311FAC01421B530B9A0147815085421BBD
:1046B000530B70E060E00E949A3CE881F981EA0DBA
:1046C000FB1DE780F084458156819301B601C2014C
:1046D000B9D28C01892B39F0E881F981EA0DFB1DF3
:1046E0008581968101D55FEF851A950A8BE0A80E2A
:1046F000B11CB1CF3FCA789408952F923F924F9248
:104700005F926F927F929F92AF92BF92CF92DF9211
:10471000EF92FF920F931F93CF93DF9300D000D0BF
:1047200000D0CDB7DEB700913D0410913E0499242E
:1047300093940115110509F43EC0A0903F04B09078
:10474000400418DA982E8823B1F110923E0410929A
:104750003D041092400410923F04109241041092C4
:1047600042048FEF9FEFDC0180937E0290937F02E3
:10477000A0938002B093810278947AD31E830D8334
:10478000C12CD12C7601C501B0E0A0E089839A83C9
:10479000AB83BC8322242A94322C89819A81AB81F9
:1047A000BC81C816D906EA06FB06F4F0C8019CD401
:1047B00080E40E945316892D26960FB6F894DEBF2A
:1047C0000FBECDBFDF91CF911F910F91FF90EF9062
:1047D000DF90CF90BF90AF909F907F906F905F9051
:1047E0004F903F902F900895AD81BE8115968D9189
:1047F0009C9116972091740230917502821793074D
:10480000D1F451968D919C91E9D5ED81FE81808105
:104810009181B12CA12C412C512C3201892B89F58D
:10482000BFEFCB1ADB0AEB0AFB0AED81FE81739620
:10483000FE83ED83B2CFC114D104E104F10429F762
:10484000892B19F7ED81FE81818992898F3F980725
:1048500009F024D5AD81BE8152963C922E9251979B
:10486000D4CF8A0D9B1DDC018D919C91009709F09E
:104870003BD4BFEF4B1A5B0A6B0A7B0AEBE0AE0E30
:10488000B11CAD81BE818D919C91119712964C9176
:1048900050E070E060E044165506660677060CF3BB
:1048A00023D4BECFCF93DF93EA0127DF811109C064
:1048B00082E090E09983888385EF9FEFDF91CF912D
:1048C000089581E090E00E94451681E090E0998390
:1048D000888390E080E0F2CF10DF10923A041092CB
:1048E0003904089542E050E06BE373E00C946316E2
:1048F000FF920F931F93CF93DF938A01EC01C60FB2
:10490000D71FF980B4D20897F816190671F068F02D
:1049100082E090E0F801918380838EEF9FEFDF913A
:10492000CF911F910F91FF9008956C817D818E81B1
:104930009F814B810E94FA18811108C082E090E0AB
:10494000F8019183808384EF9FEFE9CFF9800E9483
:10495000F5184F2D50E0BE01685F7F4F0E94913CDB
:1049600089810E94641981E090E0F801918380833D
:1049700090E080E0D4CFDF92EF92FF920F931F93ED
:10498000CF93DF938A01EC01C60FD71F0E94F51861
:104990007C01D9806CD2DD2059F0029721E030E013
:1049A000D816190619F010F030E020E0232B79F426
:1049B00082E090E0F801918380838EEF9FEFDF919A
:1049C000CF911F910F91FF90EF90DF900895EF2806
:1049D00041F482E090E0F8019183808384EF9FEFBF
:1049E000EECFF9800E94F5184F2D50E0BE016E5FAA
:1049F0007F4F0E94913C89810E94641981E090E080
:104A0000F8019183808390E080E0D9CF82E794E23F
:104A100090934404809343040895809143049091BB
:104A2000440408950895FC011182108293838283C7
:104A30000895DB011D921C92DC011296ED91FC9110
:104A400013977183608313967C936E9312970895E6
:104A5000FC0180819181DB018D939C93A081B181C8
:104A6000109741F08D919C9191838083892B11F453
:104A7000F383E2830895FC0180819181DB018D93B2
:104A80009C93892B11F473836283718360830895EF
:104A9000FC0111821082938382830895CF93DF9368
:104AA00000D0CDB7DEB71A821982F894BE016F5FCD
:104AB0007F4F8AE494E0CCDF89819A81009709F0E6
:104AC00013D389819A81892B89F7BE016F5F7F4F4C
:104AD0008EE494E0BDDF89819A81009709F004D3C8
:104AE00089819A81892B89F778940F900F90DF91B3
:104AF000CF910895CF93DF9300D0CDB7DEB71A8260
:104B00001982F894BE016F5F7F4F86E494E0A0DFC6
:104B100089819A81009709F0E7D289819A81892B4E
:104B200089F778940F900F90DF91CF91089581E0ED
:104B3000089590E080E00895EF92FF920F931F9305
:104B4000CF93DF9300D0CDB7DEB71A821982809160
:104B5000450407EF1FEF8823A1F1F894BE016F5FB2
:104B60007F4F8EE494E074DF789489819A81EE24FB
:104B7000E394F12C892B51F4F894BE016F5F7F4FC1
:104B80008AE494E065DF7894F12CE12C89819A81A4
:104B90000EEF1FEF0097A9F0FC014281538164E002
:104BA00070E072D68C01892B61F0F89469817A816A
:104BB000C701880F991F880F991F865B9B4F5BDF8A
:104BC0007894C8010F900F90DF91CF911F910F91B2
:104BD000FF90EF9008950F931F93CF93DF9300D032
:104BE00000D0CDB7DEB71C821B821A821982809159
:104BF000450407EF1FEF8823C1F0AE014D5F5F4F03
:104C000064E070E0CE010196B2D68C01892B69F484
:104C1000E981FA818B819C8193838283F8946981F5
:104C20007A8186E494E005DF7894C8010F900F90B4
:104C30000F900F90DF91CF911F910F910895B7D7EB
:104C4000049608958F929F92AF92BF92CF92DF9277
:104C5000EF92FF920F931F93CF93DF9300D0CDB7C6
:104C6000DEB71A821982BC016F5F7F4F6330710516
:104C700098F0AA24AA94BA2CC5010F900F90DF9146
:104C8000CF911F910F91FF90EF90DF90CF90BF9049
:104C9000AF909F908F9008954115510551F34801B1
:104CA00059018A016C01CBDF8815990511F7E114D0
:104CB000F104F9F28E0D9F1DA816B906D0F280916D
:104CC00045048823F1F0F894B50164507109970107
:104CD000AE014F5F5F4FC8010496DED65C01892BA1
:104CE00071F489819A81F80193838283C601880FC8
:104CF000991F880F991FB801865B9B4F9ADE7894A5
:104D0000BBCF87EFA82EBB24BA94B6CFAF92BF9289
:104D1000CF92DF92EF92FF920F931F93CF93DF9387
:104D200000D0CDB7DEB71A821982892B09F047C0AF
:104D30006115710509F443C04115510509F43FC0DF
:104D40002115310509F43BC001151105C1F1809110
:104D500045048823B9F179016A015B01F894BE0129
:104D60006F5F7F4F86E494E073DE789489819A8147
:104D7000009759F1DC0112966D917C91A80104967F
:104D8000A4D68C01E981FA81D501ED93FC9382814F
:104D900093810496F6019183808351DFD7018D932F
:104DA0009C93C8010F900F90DF91CF911F910F91AD
:104DB000FF90EF90DF90CF90BF90AF9008950FEFEE
:104DC0001FEFEFCF07EF1FEFECCF0EEF1FEFE9CF95
:104DD000CF93DF93EC01672B71F4F2D68C179D070C
:104DE00060F0E5D62496C80FD91FE4D68C0F9D1F1E
:104DF000DF91CF910895E1D6F1CF90E080E0F8CF38
:104E00000F931F93CF93DF932091450421112BC063
:104E10008B01EC018AE494E006DE8EE494E003DE8C
:104E200086E494E000DE97D00097C1F4C9D670E024
:104E300060E0CEDF42E852E062E070E081D10097AE
:104E400069F48091820290918302CCD6B801CE01A0
:104E500001D5009719F421E020934504DF91CF910B
:104E60001F910F91089584EF9FEFF8CFA6C6A8C6B3
:104E7000CF93DF93A8D6EC01892B11F40FDE3ADE35
:104E8000CE01DF91CF910895CF93DF939CD6EC01B3
:104E9000892B09F403DECE01DF91CF910895809133
:104EA0008202909183020895CF93DF93809145040D
:104EB000D0E0C0E08823D1F09AD6EC01892BB1F480
:104EC000EDDD18DE8091820290918302E7D1E8D275
:104ED000EC01892B59F48AE494E0DADD8EE494E065
:104EE000D7DD86E494E0D4DD10924504CE01DF9155
:104EF000CF910895EF92FF920F931F93CF93DF937B
:104F0000EC017A018B010F5F1F4F0E9DA0010F9DD9
:104F1000500D1E9D500D112470E060E00E949A3CDF
:104F200090E080E0F0E0E0E02FEFE816F90639F4D9
:104F3000DF91CF911F910F91FF90EF9008951A820A
:104F400019822883309711F0D283C1830196FE0124
:104F5000C00FD11FEACFCF92DF92EF92FF920F9353
:104F60001F93CF93DF930EE815E00C7F43E050E0F2
:104F700064E872E08AE892E01AD484E8E82E82E0DD
:104F8000F82E9AE8C92E92E0D92EC5E1D6E0D701D5
:104F90004D915D917D01F601619171916F011983D0
:104FA00008835D834C835B834A837F836E839B018D
:104FB0002F5F3F4F249FC001259F900D349F900D80
:104FC0001124998788870115110511F0C80192DF16
:104FD00088859985080F191F2A96FAE8EF16F2E0DE
:104FE000FF06A9F6E4E5F4E087E391E0DF019C0128
:104FF0001D9221503040E1F7109253041092520458
:10500000109234061092330610923806109237062A
:10501000109236061092350610923A061092390612
:1050200010923C0610923B0610923E0610923D06EE
:1050300010924206109241061092400610923F06CE
:1050400010924406109243061092460610924506AE
:105050001092120610921106109214061092130666
:1050600090E080E0DF91CF911F910F91FF90EF9042
:10507000DF90CF9008950097F1F0F894AAE8B2E09D
:10508000E5E1F6E030E020E04D915D9148175907E9
:10509000A8F0428153814115510581F08AE0829F39
:1050A000F001839FF00D1124EB5EF94F8081918117
:1050B000009759F4789490E080E008952F5F3F4F77
:1050C0003A962330310501F7F5CFDC0111966D9149
:1050D0007C91718360834150510953834283FC0169
:1050E0002193CF0178940895009749F1DC018E91C6
:1050F000853041F4E0911306F09114063097F9F0F1
:10510000CD0109948530D8F4282F30E0F8948FEF42
:105110008C938AE0829FF001839FF00D1124EB5E57
:10512000F94F8081918112969C938E931197B18350
:10513000A0838281938101969383828378940895DA
:10514000CF92DF92EF92FF920F931F93CF93DF9353
:105150009C0187E594E08C7F4115510509F49BC0C3
:105160002115310509F497C06115710509F493C043
:105170007A01AB01B9016D5F7F4F6C7F9B012F5F9F
:105180003F4F249F8001259F100D349F100D112447
:10519000F8942091330630913406232B59F4209152
:1051A0003B0630913C062115310569F12017310786
:1051B00008F058C020913D0630913E06232B91F413
:1051C00020913B0630913C06820F931F20914506AB
:1051D000309146062115310509F441C020173107E9
:1051E00008F056C07894CFEFDFEF86EF9FEFF7011E
:1051F000D183C083DF91CF911F910F91FF90EF90EA
:10520000DF90CF900895C3E0D0E0C0905204D090DA
:10521000530424E331E02C193D092017310710F322
:105220002AE02C9FF0012D9FF00D1124EB5EF94F29
:10523000918380835583448353834283778366833A
:1052400011870087009709F055DE0C0D1D1D109386
:10525000530400935204789490E080E0C8CFC4E0F7
:10526000D0E0D3CFC3E0D0E02AE02C9FF0012D9F07
:10527000F00D1124EB5EF94F9183808355834483B5
:105280005383428377836683009729F333DEE3CF2A
:10529000C4E0D0E0E9CF8FEF9FEFACCF9C01039744
:1052A000029708F069C0F89484E09AE0482F50E033
:1052B000241735070CF44DC091E08AE0829FF0017D
:1052C000839FF00D1124EB5EF94F1182108215823D
:1052D000148213821282178216829923B1F180916F
:1052E000330690913406892BA9F420913B06309126
:1052F0003C062115310571F08091520490915304C0
:10530000821B930B909353048093520410923C069B
:1053100010923B0680913D0690913E06892BA9F4A0
:1053200020914506309146062115310571F0809196
:10533000520490915304821B930B909353048093D7
:1053400052041092460610924506789490E080E050
:105350000895949FF001959FF00D1124EB5EF94F95
:1053600040815181452B31F440855185452B11F405
:1053700081509CCF90E0A1CF8FEF9FEF0895411512
:10538000510549F1009739F16115710521F1F89442
:105390002091110630911206232BB9F420911306A7
:1053A00030911406232B89F49093120680931106F2
:1053B0007093140660931306789425E030E090E033
:1053C00080E0FA0131832083089578942FEF3FEF36
:1053D00086EF9FEFF6CF8FEF9FEF0895059769F463
:1053E000F894109212061092110610921406109260
:1053F0001306789490E080E008958FEF9FEF089572
:105400006115710519F4F0E0E0E011C085309105F7
:1054100081F4E0911106F09112063097A1F3CB01CF
:1054200001960995009779F3FC0185E08193CF01FE
:1054300008959C01235031092230310520F72AE0DC
:10544000289FD001299FB00D1124AB5EB94F2D913B
:105450003C911197232BB9F216962D913C911797F9
:105460002617370780F2F89412962D913C911397E6
:105470002115310529F0ED91FC911197309711F428
:105480007894C1CF4181528111965C934E93215003
:10549000310913963C932E93129781937894C7CF3A
:1054A000EBE8F5E086E8DF011D928A95E9F7E4E58F
:1054B000F4E087E391E0DF019C011D922150304030
:1054C000E1F71092530410925204E5E1F6E082E312
:1054D000DF011D928A95E9F7E1E1F6E084E0DF0162
:1054E0001D928A95E9F790E080E00895CF93DF93CD
:1054F000C0919002D0919102CF3FDC0759F410D4B3
:10550000909391028093900297FF09C0D0939102EB
:10551000C093900284EF9FEFDF91CF91089590E0C8
:1055200080E0FACF8230910528F48093470690E01E
:1055300080E008958FEF9FEF08954F925F926F92F2
:105540007F92AF92BF92CF92DF92EF92FF920F9332
:105550001F93CF93DF9300D0CDB7DEB71A821982A5
:10556000009709F479C06115710509F475C020919F
:1055700090023091910207EF1FEF2F3F3F4F09F448
:1055800045C06B015C01412C512C3201F12CE12C06
:1055900010E000E09E012F5F3F4FA6014E195F090A
:1055A000B5016E0D7F1D80919002909191021CD4E7
:1055B000892B09F04BC089819A81009741F4E1144D
:1055C000F10429F420914706222309F442C0E80E91
:1055D000F91EEC14FD04D0F480E8481684E858065F
:1055E0008EE16806710420F560E070E0CB010E9456
:1055F00016392AE0420E511C611C711C0A3F4FEF04
:10560000140721F0043F8FEF1807A1F4C8010F9091
:105610000F90DF91CF911F910F91FF90EF90DF904E
:10562000CF90BF90AF907F906F905F904F90089514
:1056300001EF1FEF81E090E0013F2FEF120711F023
:1056400090E080E0892B09F4A5CFE0CF04EF1FEFB5
:10565000DDCF0AEF1FEFDACF0FEF1FEFD7CF4F925B
:105660005F926F927F92AF92BF92CF92DF92EF9252
:10567000FF920F931F93CF93DF9300D0CDB7DEB788
:105680001A821982009709F479C06115710509F42D
:1056900075C0209190023091910207EF1FEF2F3FCC
:1056A0003F4F09F445C06B015C01412C512C320184
:1056B000F12CE12C10E000E09E012F5F3F4FA6018E
:1056C0004E195F09B5016E0D7F1D8091900290917A
:1056D00091023DD3892B09F04BC089819A810097B3
:1056E00041F4E114F10429F420914706222309F43E
:1056F00042C0E80EF91EEC14FD04D0F480E8481610
:1057000086E9580688E96806710420F560E070E0D3
:10571000CB010E9416392AE0420E511C611C711CFB
:105720000E3F4FEF140721F0043F8FEF1807A1F44D
:10573000C8010F900F90DF91CF911F910F91FF90B3
:10574000EF90DF90CF90BF90AF907F906F905F9081
:105750004F90089502EF1FEF81E090E0023F2FEF9E
:10576000120711F090E080E0892B09F4A5CFE0CF7B
:1057700004EF1FEFDDCF0EEF1FEFDACF0FEF1FEFBC
:10578000D7CF80919002909191028F3F980749F076
:10579000BED2892B49F48FEF9FEF909391028093B3
:1057A000900290E080E0089584EF9FEF0895CF92FB
:1057B000DF92EF92FF920F931F93CF93DF9321E03D
:1057C0004115510509F020E04150510921112CC02B
:1057D000DC01FB01D12CC12C21E022C03FEFC31A18
:1057E000D30A7D010D911D91E701EA80FB80E0164F
:1057F000F106A8F420813181E280F380F182E08219
:1058000033832283ED90FC9011979D012250310942
:10581000E901F982E88211961C930E9320E03296FA
:10582000C416D506D8F2D2CFDF91CF911F910F9138
:10583000FF90EF90DF90CF900895FC01680F791FE3
:1058400090E080E0E617F70709F408952191820FB0
:10585000911DF8CF20914806211113C047DE009713
:1058600091F410924E0610924D0610924C06109232
:105870004B0610924A061092490621E020934806F2
:10588000089584EF9FEF0895AF92BF92CF92DF9279
:10589000EF92FF920F931F93CF93DF93009709F43A
:1058A00060C04630510508F45CC020914806C7EF3F
:1058B000DFEF222309F449C08C01060F171FF801FE
:1058C000C080D180C114D10409F44EC096012A5F72
:1058D0003F4F4217530708F447C07C0180914D06A3
:1058E00090914E0693838283B6016C5F7F4F58017F
:1058F000A60EB71EC801A1DFF5019183808364E085
:1059000070E0C8011ADEEC01892BF9F481E090E027
:1059100009DEB601C801049610DEEC01892B91F472
:1059200062E070E0C50109DEEC01892B59F4C70182
:10593000DBDB80914D0690914E06019690934E06CA
:1059400080934D0690E080E0EDDDCE01DF91CF91B8
:105950001F910F91FF90EF90DF90CF90BF90AF908D
:105960000895CFEFDFEFF1CFC9EFDFEFEECF6F920A
:105970007F928F929F92AF92BF92CF92DF92EF92DF
:10598000FF920F931F93CF93DF9300D000D0CDB73A
:10599000DEB7009709F47AC04115510509F476C0C5
:1059A0002091480607EF1FEF222309F44DC03A016A
:1059B0007B015C0164E070E0CE01019650DE8C0159
:1059C000892B09F041C009811A810115110509F4DB
:1059D0005AC0480186E0880E911CB701680D791DF8
:1059E00080919202909193020BDD6C01009709F473
:1059F00050C0A70170E060E00E949A3C89819A81C2
:105A0000AB81BC81EC0CFD1CF70181939193A193B8
:105A1000B1937F0181E090E085DDB801C7011FDE11
:105A2000892B31F562E070E0C701800F911F17DE0E
:105A30008C01892BE9F490E080E074DDF501D182DE
:105A4000C082F30191828082C8010F900F900F9065
:105A50000F90DF91CF911F910F91FF90EF90DF900A
:105A6000CF90BF90AF909F908F907F906F90089550
:105A700090E080E057DDF50111821082F301118280
:105A80001082C60131DB09EF1FEFDECF0FEF1FEFF2
:105A9000DBCF06EF1FEFD8CF0097A1F041155105DE
:105AA00089F02115310571F0F90136966E177F07DF
:105AB00048F0DC012D933C93DA01ED93FC9390E0E8
:105AC00080E008958FEF9FEF0895AF92BF92CF923D
:105AD000DF92EF92FF920F931F93CF93DF93009784
