:1000000079C000009FC000009DC000009BC00000A0
:1000100099C0000097C0000095C0000093C0000088
:1000200091C000008FC000008DC000008BC0000098
:1000300089C0000087C0000085C0000083C00000A8
:100040000C94D3397FC000000C94CA3C0C94FC3C47
:1000500079C0000077C0000075C0000073C00000C8
:100060000C94B6386FC00000028988083EABAAAA7B
:10007000AABE000000803F07634236B79BD8A71A8C
:1000800039685618AEBAAB558C1D3CB7CC5763BD1A
:100090006DEDFD753EF6177231BF000000803F0028
:1000A0000000000800020100000304070000000037
:1000B0000000000001020408102040800102040832
:1000C00010200102040810200404040404040404A1
:1000D0000202020202020303030303030000000002
:1000E000250028002B0000000000240027002A0023
:1000F0002236213D11241FBECFEFD8E0DEBFCDBF99
:1001000013E0A0E0B1E0EEE9FBE702C005900D923C
:10011000A83AB107D9F728E0A8EAB3E001C01D92D8
:10012000A33AB207E1F710E0CAE7D0E004C0219794
:10013000FE010E949E3DC837D107C9F70E947A3060
:100140000C94CD3D5DCFCF92DF92EF92FF926B0189
:100150007C01C114D104E104F10469F4809100012F
:10016000811109C080910201909103010E94933591
:1001700081E080930001C601880F991F880F991FA5
:1001800080509F4FFF90EF90DF90CF9008950097A1
:1001900081F0FC012181211104C040EA56E861E0B0
:1001A00070E0FC01828193810E94A23590E080E0A2
:1001B000089588E090E008954F925F926F927F9249
:1001C0008F929F92AF92BF92CF92DF92EF92FF9267
:1001D0000F931F93CF93DF930097C9F12801390143
:1001E0007A01EC01402F8A819B810E9420368A810E
:1001F0009B81DC01ED91FC910084F185E02D099556
:10020000892B01F16701812C912C54018A819B81FA
:10021000DC01ED91FC910084F185E02D0995892B9D
:1002200091F184149504A604B70469F18A819B8135
:10023000DC01ED91FC910284F385E02D09958F3F5F
:100240009807C1F484E0F70111928A95E9F788E0F4
:1002500090E0DF91CF911F910F91FF90EF90DF9091
:10026000CF90BF90AF909F908F907F906F905F9056
:100270004F900895FFEF8F1A9F0AAF0ABF0AD60169
:100280008D936D01C3CF90E080E0E3CF8F929F927A
:10029000AF92BF92CF92DF92EF920F931F93CF93C3
:1002A000DF930097F1F06A01EC018A819B810E9443
:1002B000A5358A819B81DC01ED91FC910280F3815F
:1002C000E02DA801B60109958A819B8160E0E110CB
:1002D00001C061E00E94AF35882389F082508230EE
:1002E00088F088E090E0DF91CF911F910F91EF901F
:1002F000DF90CF90BF90AF909F908F90089590E047
:1003000080E0F1CF84E090E0EECF0895611102C06B
:100310000C94373B6130E1F362E0FACF662319F0C9
:1003200061E00C94733B60E0FCCFCF92DF92EF92E0
:10033000FF92CF93882351F16A017B01CFEFC80F61
:1003400020E030E0A901CB01B6010E947A3187FF9D
:1003500011C0C701B60190580E94EB319B01AC015E
:100360006C2F70E090E080E0CF91FF90EF90DF90F5
:10037000CF90B2C0C701B6010E94E6318C2FCF9159
:10038000FF90EF90DF90CF900C94B33ACF91FF9015
:10039000EF90DF90CF9008950F931F938B019C01F6
:1003A00083E036952795179507958A95D1F70855D7
:1003B0001C4F462F477021E030E0F90102C0EE0FDC
:1003C000FF1F4A95E2F7AF01F80120812423CB01FA
:1003D0000196211102C090E080E01F910F910895D5
:1003E0000F931F938B019C0183E0369527951795FA
:1003F00007958A95D1F7677081E090E001C0880F7A
:100400006A95EAF7F801E855FC4F2081452B31F455
:100410008095822380831F910F910895822BFACFBC
:100420002F923F924F925F926F927F928F929F9204
:10043000AF92BF92CF92DF92EF92FF920F931F93F2
:10044000CF93DF93D62EC72E782E692E49015A01FD
:10045000280161E08D2D0E94373BCD2DDC2D8E01D2
:100460000F5F1F4FA8016D2D7C2D872D962DB8DFB6
:1004700020E030E0A901C201B7010E946A331816DA
:1004800064F4C201B7010E94EB312B01C501B40134
:100490000E94EB31A201CE0123D0C801DF91CF91A0
:1004A0001F910F91FF90EF90DF90CF90BF90AF9092
:1004B0009F908F907F906F905F904F903F902F9084
:1004C0000895882341F08150682F70E090E080E02B
:1004D00050E040E085CF0895862FB9010C94B33ADF
:1004E0009C01FC01E056FF4FE491E33061F140F4E0
:1004F000E13011F1E23021F160E0822F0C94733B86
:10050000E730C1F1E83009F441C0E430A9F7809147
:1005100080008C7F82608093800090918100907E2B
:100520009061692B6093810050938700409386000F
:100530008091800080621BC084B5806884BDDCCF60
:1005400084B58062FBCF809180008C7F8260809335
:10055000800090918100907E9061692B6093810072
:10056000509387004093860080918000806880933C
:100570008000C2CF8091B00080688093B0008091ED
:10058000B100887F682B6093B100B6CF8091B00036
:100590008062F3CF90E080E008950F931F9300975F
:1005A00009F489C06115710509F485C00091A7029D
:1005B0001091A8022091A9023091AA020E3F1F4F6C
:1005C0002F4F3F4F09F068C04FEF5FEFBA014093E4
:1005D000A7025093A8026093A9027093AA024091C7
:1005E000A7025091A8026091A9027091AA02DC01B1
:1005F0001296ED91FC9180819181A281B3818093CB
:100600002F0490933004A0933104B093320484817A
:100610009581A681B78180932B0490932C04A0939D
:100620002D04B0932E0480859185A285B385809397
:10063000270490932804A0932904B0932A04848566
:100640009585A685B7858093230490932404A09371
:100650002504B093260410921F04109220041092D7
:100660002104109222040E94611386E893E1909382
:10067000B2038093B1039093B4038093B3030E94B9
:100680005012009731F421E030E03093340420938D
:1006900033041F910F9108950091A7021091A802B1
:1006A0002091A9023091AA02DB010D931D932D9395
:1006B0003C93139794CF8FEF9FEFEBCF8F929F9246
:1006C000AF92BF92CF92DF92EF92FF921F93CF93A0
:1006D000DF934B015C011091360482E090E090932F
:1006E00034048093330481149104A104B10441F4CF
:1006F00080913604811104C080913504C1E08111DC
:10070000C0E0C12CD12C760180913604811106C045
:1007100080913504811102C0CC23D9F083E090E0B0
:100720009093340480933304CC2381F1CCE9DFEF40
:10073000111102C00E94EA16CE01DF91CF911F91E4
:10074000FF90EF90DF90CF90BF90AF909F908F90F1
:1007500008956AE070E080E090E00E94423A80E113
:10076000C80E87E2D81EE11CF11C8FEF8816980690
:10077000A806B80631F0C1E08C149D04AE04BF0495
:1007800008F0C0E080E00E948412BECFD0E0C0E05C
:10079000CFCFCF92DF92EF92FF920F931F93CF9321
:1007A000DF938F3F910511F008F051C02091330481
:1007B000309134042330310539F0209133043091E5
:1007C00034042130310531F424E030E03093340436
:1007D000209333046A017B01EC0182309105A8F07B
:1007E00011E0AE01C701B6010E944F12AB01BC017E
:1007F000CE011123F9F0DF91CF911F910F91FF905E
:10080000EF90DF90CF900C9413198C01000F111F03
:100810000F541C4FD8018D919C91892B09F30E9494
:100820001D190297E9F6D801ED91FC91CE010995C9
:10083000182FD7CF0E94351990E080E0DF91CF913B
:100840001F910F91FF90EF90DF90CF9008958FEF61
:100850009FEFF4CF80E00C948412CF93DF9386E077
:1008600090E090933404809333040E94DD12EC01F5
:10087000E1EBF3E084E0DF011D928A95E9F70E9445
:1008800082161092340410923304CE01DF91CF917E
:10089000089580913504089580911E040895609311
:1008A000A7027093A8028093A9029093AA0290E0F5
:1008B00080E008952F923F924F925F926F927F92C5
:1008C0008F929F92AF92BF92CF92DF92EF92FF9260
:1008D0000F931F93CF93DF9300D000D000D0CDB7FC
:1008E000DEB72B013C0129833A834B835C831701DC
:1008F000DE82CD82F701C080D180E280F380ED817D
:10090000FE8184809580A680B780A5019401C701EF
:10091000B6010E946A33F80118167CF0ED81FE8161
:1009200080849184A284B384A5019401C701B60197
:100930000E947A31F80187FF60C080829182A28292
:10094000B382ED81FE812485358546855785C301B7
:10095000B2010E946E33ED81FE8120893189428986
:1009600053890E946E3329813A814B815C810E94B8
:100970000331ED81FE8124893589468957890E949A
:100980006E336B017C010E944D118823D9F1609177
:100990009508709196088091970890919808ED813C
:1009A000FE81208D318D428D538D0E946E33ED81FD
:1009B000FE81248D358D468D578D0E940331F101C6
:1009C000608371838283938326960FB6F894DEBF8B
:1009D0000FBECDBFDF91CF911F910F91FF90EF9090
:1009E000DF90CF90BF90AF909F908F907F906F904F
:1009F0005F904F903F902F900895C082D182E28205
:100A0000F3829FCF20E030E0A901C701B6010E9428
:100A10007A3187FD0DC020E030E0A901C701B601A1
:100A20000E946A3318164CF060E070E0CB01B7CF3B
:100A300060E070E080E89FEBB2CF60E070E080E8BB
:100A40009FE3ADCFCF92DF92EF92FF926B017C01DB
:100A50009F7720E030E040E859E50E947A3187FF37
:100A60002BC020E030E040E05FE3C701B6010E9408
:100A70006A3387FD0EC020E030E040E05FE3C7014D
:100A8000B6010E940331FF90EF90DF90CF900C945D
:100A9000543220E030E040E05FEBC701B6010E9435
:100AA0006A33181684F420E030E0A901C701B601CA
:100AB0000E946E336B017C01C701B601FF90EF907D
:100AC000DF90CF90089520E030E040E05FE3C70181
:100AD000B6010E940231FF90EF90DF90CF900C940E
:100AE00067312F923F924F925F926F927F928F92D7
:100AF0009F92AF92BF92CF92DF92EF92FF920F93AD
:100B00001F93CF93DF93CDB7DEB7A1970FB6F894BD
:100B1000DEBF0FBECDBF809179088150823008F0D2
:100B200044C483E0809379088091880881508230A2
:100B300008F03DC483E08093880880917808815054
:100B4000823008F036C483E080937808809177087B
:100B50008150823008F02FC483E080937708C090E2
:100B60002001D0902101E0902201F0902301A70103
:100B7000960160911B0870911C0880911D0890914E
:100B80001E080E947A31882341F0C0921B08D0923F
:100B90001C08E0921D08F0921E088CE08987C12C89
:100BA000EE24E39401E010E020E030E0AE01475F86
:100BB0005F4F66E370E0809111089091120866DB48
:100BC00089878111FAC3CC24C394E12C04E010E09E
:100BD00020E030E0AE014F5F5F4F66E370E0809150
:100BE000110890911208E8DA84E0FE013196DE01E6
:100BF000159601900D928A95E1F78D819E819D83D6
:100C00008E838F8198859F83888720913F083091BC
:100C1000400840914108509142086091F80170915C
:100C2000F9018091FA019091FB010E946E336E8769
:100C30007F87888B998B2091640230916502AF8108
:100C4000B8850E94A43D6B017C01C0920708D09238
:100C50000808E0920908F0920A0881E090E04091CB
:100C60001C0150911D0160911E0170911F01C4165D
:100C7000D506E606F70610F090E080E020916602C7
:100C8000289FB001299F700D1124072E000C880B9E
:100C9000990B0E9419329B01AC010E9403314B0158
:100CA0005C01C701B6010E94173220E030E040E04D
:100CB00056E30E946E339B01AC01C501B4010E9452
:100CC00003312091FC013091FD014091FE015091D2
:100CD000FF010E94023120910002309101024091F7
:100CE0000202509103020E946E336093EB077093EF
:100CF000EC078093ED079093EE072091040230916A
:100D0000050240910602509107020E946E336A8BE1
:100D10007B8B8C8B9D8BC0904308D0904408E090D7
:100D20004508F09046084090470850904808609069
:100D3000490870904A082091280230912902409178
:100D40002A0250912B02C701B6010E946E334B015B
:100D50005C0120912C0230912D0240912E02509185
:100D60002F02C301B2010E946E339B01AC01C50189
:100D7000B4010E9403314B015C0120913802309193
:100D8000390240913A0250913B026E857F858889F5
:100D900099890E946E336A877B878C879D87209113
:100DA0003C0230913D0240913E0250913F026A89DF
:100DB0007B898C899D890E946E339B01AC016A8579
:100DC0007B858C859D850E9403319B01AC01C5010B
:100DD000B4010E9403316093E3077093E4078093AA
:100DE000E5079093E607209130023091310240915F
:100DF000320250913302C701B6010E946E336B017B
:100E00007C0120913402309135024091360250919C
:100E10003702C301B2010E946E339B01AC01C701CE
:100E2000B6010E9403316B017C0120914002309198
:100E3000410240914202509143026E857F8588892C
:100E400099890E946E334B015C01209144023091DC
:100E5000450240914602509147026A897B898C89FC
:100E60009D890E946E339B01AC01C501B4010E94B3
:100E700003319B01AC01C701B6010E9403316093AD
:100E8000E7077093E8078093E9079093EA07609378
:100E9000EF077093F0078093F1079093F20780912A
:100EA000500290915102A0915202B091530280934E
:100EB000F3079093F407A093F507B093F607C0905B
:100EC0004C02D0904D02E0904E02F0904F0220E094
:100ED00030E0A901C701B6010E947A3187FF70C2D4
:100EE000C701B6010E9467316093FB077093FC074E
:100EF0008093FD079093FE076091FB077091FC07BC
:100F00008091FD079091FE070E944D11882309F4FE
:100F10005CC21092FB071092FC071092FD07109222
:100F2000FE07C090FB07D090FC07E090FD07F09013
:100F3000FE0720E030E0A901C701B6010E947A3126
:100F400087FF65C2C701B60190580E94EB319095AA
:100F50008095709561957F4F8F4F9F4F63307105DE
:100F60008105910509F4E1C30CF056C261307105A9
:100F70008105910509F47FC26230710581059105F3
:100F800009F4ABC369E070E080E090E005DA8C0121
:100F900090933E0880933D082091F7073091F80721
:100FA0004091F9075091FA076091580270915902E7
:100FB00080915A0290915B020E946E336B017C011A
:100FC00020E030E04FE753E40E947A3118160CF429
:100FD00087C6C092FB07D092FC07E092FD07F09213
:100FE000FE0720E030E0A9016091FB077091FC074B
:100FF0008091FD079091FE070E946A3387FF08C029
:101000001092FB071092FC071092FD071092FE074A
:101010004091FB075091FC076091FD077091FE071E
:10102000C80183D960915C0270915D0280915E027B
:1010300090915F0207DD6B017C01C092FB07D092AB
:10104000FC07E092FD07F092FE0720E030E040E868
:1010500053E40E947A3187FF52C620E030E0A901B4
:10106000C701B6010E946A3387FD47C6C701B601B2
:101070000E94EB31698769858BE050D9C090FB07EE
:10108000D090FC07E090FD07F090FE0720E030E0F4
:1010900040E853E4C701B6010E947A3187FF34C6A5
:1010A00020E030E0A901C701B6010E946A3387FD44
:1010B00029C6C701B6010E94EB31698769858CE0BA
:1010C0002DD96091600270916102809162029091CD
:1010D0006302B8DC6B017C01C092FB07D092FC0775
:1010E000E092FD07F092FE0720E030E040E853E494
:1010F0000E947A3187FF0DC620E030E0A901C701C8
:10110000B6010E946A3387FD02C6C701B6010E947C
:10111000EB316987698588E001D98091F707909163
:10112000F807A091F907B091FA0780933F089093D0
:101130004008A0934108B0934208C0904308D09063
:101140004408E0904508F0904608409047085090C9
:1011500048086090490870904A0820911002309128
:1011600011024091120250911302C701B6010E9470
:101170006E334B015C0120911402309115024091B5
:10118000160250911702C301B2010E946E339B01F7
:10119000AC01C501B4010E9403314B015C012091F7
:1011A00020023091210240912202509123026E854B
:1011B0007F85888999890E946E336A877B878C87AF
:1011C0009D87209124023091250240912602509162
:1011D00027026A897B898C899D890E946E339B01D5
:1011E000AC016A857B858C859D850E9403319B01BE
:1011F000AC01C501B4010E9403314B015C01209197
:1012000008023091090240910A0250910B02C70175
:10121000B6010E946E336B017C0120910C0230916B
:101220000D0240910E0250910F02C301B2010E94C3
:101230006E339B01AC01C701B6010E9403316B0103
:101240007C01209118023091190240911A025091AC
:101250001B026E857F85888999890E946E332B01D8
:101260003C0120911C0230911D0240911E025091C0
:101270001F026A897B898C899D890E946E339B013C
:10128000AC01C301B2010E9403319B01AC01C70153
:10129000B6010E9403316093430870934408809321
:1012A0004508909346088092470890924808A0927B
:1012B0004908B0924A08C090F103D090F203E09040
:1012C000F303F090F4033FEFC31AD30AE30AF30ADF
:1012D000C092F103D092F203E092F303F092F40390
:1012E000C114D104E104F10499F48091F5039091C3
:1012F000F603A091F703B091F8030196A11DB11D6B
:101300008093F5039093F603A093F703B093F8034B
:101310008090F9039090FA03A090FB03B090FC0337
:101320006091F5037091F6038091F7039091F803B3
:101330000E941732A50194010E946E3320E030E034
:1013400040E85FE40E946E332B013C01C701B60107
:101350000E941732A50194010E946E339B01AC01DB
:10136000C301B2010E9403316093ED037093EE0359
:101370008093EF039093F003A1960FB6F894DEBF2D
:101380000FBECDBFDF91CF911F910F91FF90EF90D6
:10139000DF90CF90BF90AF909F908F907F906F9095
:1013A0005F904F903F902F90089580E0BBCB80E0FE
:1013B000C2CB80E0C9CB80E0D0CB18861F8225CC81
:1013C000C701B6010E9454328FCD6091FB07709126
:1013D000FC078091FD079091FE071AD7811199CDE6
:1013E0006091FB077091FC078091FD079091FE07CB
:1013F00020E030E040E85FE40E946E326093FB073B
:101400007093FC078093FD079093FE078ACDC70178
:10141000B6010E94EB31A2CD6430710581059105C2
:1014200009F4BAC3653071058105910509F0AACDAB
:101430008090EF079090F007A090F107B090F2072E
:101440002091EB073091EC074091ED075091EE07AA
:101450006091F3077091F4078091F5079091F6077A
:101460000E94023127E6C22E22E0D22E3FE7E32E71
:1014700038E0F32E54C12091EB073091EC074091F6
:10148000ED075091EE076091F3077091F40780919A
:10149000F5079091F6070E940231209124013091C6
:1014A000250140912601509127010E946E336B0166
:1014B0007C01C092FB07D092FC07E092FD07F092FE
:1014C000FE072091040130910501409106015091E1
:1014D00007010E946E33209128013091290140912B
:1014E0002A0150912B010E946E332B013C01409246
:1014F000FF07509200086092010870920208209144
:101500006708309168084091690850916A082A87F5
:101510003B874C875D8780916B0890916C08A09108
:101520006D08B0916E088E8B9F8BA88FB98F20911C
:101530001401309115014091160150911701C70116
:10154000B6010E946E332A853B854C855D850E94DD
:1015500003314B015C012091630830916408409194
:10156000650850916608C301B2010E9402319B01D7
:10157000AC01C501B4010E9403314B015C01209113
:101580003C0130913D0140913E0150913F016E89F7
:101590007F89888D998D0E946E339B01AC01C501B6
:1015A000B4010E94023120913801309139014091FB
:1015B0003A0150913B010E947E314B015C018092C7
:1015C000030890920408A0920508B09206082091A2
:1015D00030013091310140913201509133010E942C
:1015E0006E336A8F7B8F8C8F9D8F20913401309169
:1015F000350140913601509137016E897F89888D80
:10160000998D0E946E339B01AC016A8D7B8D8C8D10
:101610009D8D0E94033120914401309145014091FC
:101620004601509147010E946E332091180130917C
:10163000190140911A0150911B010E9403316093DE
:10164000F7077093F8078093F9079093FA07409291
:101650006308509264086092650870926608209151
:101660000C0130910D0140910E0150910F01C70105
:10167000B6010E946E3320912C0130912D014091D2
:101680002E0150912F010E946E332A853B854C8597
:101690005D850E94033160936708709368088093AA
:1016A000690890936A0880926B0890926C08A092E7
:1016B0006D08B0926E0880917908882331F08330EC
:1016C00049F0082E000C990B02C082E090E0809354
:1016D000790858CC81E090E0FACF8090EF079090A5
:1016E000F007A090F107B090F2072091EB0730913E
:1016F000EC074091ED075091EE076091F307709170
:10170000F4078091F5079091F6070E94023117E8DF
:10171000C12E12E0D12E04E8E02E08E0F02E07EFF3
:1017200017E0A5019401C6D82DCC2091EB0730918C
:10173000EC074091ED075091EE076091F30770912F
:10174000F4078091F5079091F6070E9402312091ED
:1017500048013091490140914A0150914B010E944A
:101760006E336B017C0180904F0890905008A090E0
:101770005108B09052082091B4013091B5014091C8
:10178000B6015091B701C501B4010E946E332B011F
:101790003C01B8EB2B2EB1E03B2E0BEF12E0E3E067
:1017A000F3E0E017F10709F04EC12091C801309134
:1017B000C9014091CA015091CB01C701B6010E94F5
:1017C0006E33A30192010E9403312091D001309128
:1017D000D1014091D2015091D3010E946E332091EA
:1017E00018013091190140911A0150911B010E947A
:1017F00003316093F7077093F8078093F90790938C
:10180000FA0720914C0130914D0140914E015091C9
:101810004F01C501B4010E946E332B013C0150E51C
:10182000252E51E0352E01EF12E0E9EFF2E0E0174E
:10183000F10709F027C12091A0013091A101409149
:10184000A2015091A301C701B6010E946E33A3010A
:1018500092010E9403316E8B7F8B888F998F20912C
:1018600053083091540840915508509156086091A2
:1018700060017091610180916201909163010E9409
:101880006E332B013C012091A4013091A5014091C0
:10189000A6015091A701C701B6010E946E339B01BA
:1018A000AC01C301B2010E9403316A8F7B8F8C8F20
:1018B0009D8F2091640130916501409166015091A6
:1018C0006701C501B4010E946E332B013C0128E67B
:1018D00031E03B872A8737EE232E32E0332E0FEE9E
:1018E00012E00215130509F0ECC02091A801309117
:1018F000A9014091AA015091AB01C701B6010E9414
:101900006E33A30192010E9403316E8F7F8F88A3F3
:1019100099A3209178013091790140917A015091F9
:101920007B01C501B4010E946E332B013C01ECE741
:10193000F1E0FB87EA87BDED2B2EB2E03B2E05EEF2
:1019400012E00215130509F0DDC02091AC013091C1
:10195000AD014091AE015091AF01C701B6010E94A7
:101960006E33A30192010E9403312B013C012091AF
:101970008C0130918D0140918E0150918F01C501F4
:10198000B4010E946E334B015C01E0E9F1E0FB879A
:10199000EA8753ED252E52E0352E0BED12E00215AD
:1019A000130509F0D0C02091B0013091B1014091F0
:1019B000B2015091B301C701B6010E946E33A50177
:1019C00094010E9403312E893F89488D598D2093BF
:1019D0004F083093500840935108509352082A8D75
:1019E0003B8D4C8D5D8D209353083093540840936C
:1019F0005508509356082E8D3F8D48A159A120932C
:101A00005708309358084093590850935A08409209
:101A10005B0850925C0860925D0870925E0860936B
:101A20005F087093600880936108909362088091CA
:101A30007808882309F4A8C0833009F4AAC0082EC6
:101A4000000C990BA3C0D1016D917D918D919D9159
:101A50001D01D801ED91FD918D01EE0FFF1FEE0FDD
:101A6000FF1FE15BF74F20813181428153810E944A
:101A70006E339B01AC01C301B2010E9403312B0103
:101A80003C018DCED1016D917D918D919D911D0176
:101A9000D801ED91FD918D01EE0FFF1FEE0FFF1F9D
:101AA000E15BF74F20813181428153810E946E3387
:101AB0009B01AC01C301B2010E9403312B013C0127
:101AC000B4CEAA85BB856D917D918D919D91BB878B
:101AD000AA87D101ED91FD911D01EE0FFF1FEE0FC1
:101AE000FF1FE15BF74F20813181428153810E94CA
:101AF0006E339B01AC01C301B2010E9403312B0183
:101B00003C01EFCEAA85BB856D917D918D919D9114
:101B1000BB87AA87D101ED91FD911D01EE0FFF1F3B
:101B2000EE0FFF1FE15BF74F20813181428153812E
:101B30000E946E339B01AC01C301B2010E940331CC
:101B40002B013C01FECEAA85BB856D917D918D91C7
:101B50009D91BB87AA87D101ED91FD911D01EE0FEB
:101B6000FF1FEE0FFF1FE15BF74F208131814281A4
:101B700053810E946E339B01AC01C501B4010E94E8
:101B800003314B015C010BCF82E090E08093780839
:101B9000F9C981E090E0FACFC0904B08D0904C0892
:101BA000E0904D08F0904E088090D8019090D901B7
:101BB000A090DA01B090DB01A5019401C701B60144
:101BC0000E946A3318160CF06AC08092F707909250
:101BD000F807A092F907B092FA072091EB0730912D
:101BE000EC074091ED075091EE076091F30770917B
:101BF000F4078091F5079091F6070E940231209139
:101C0000E0013091E1014091E2015091E3010E9435
:101C10006E332091E4013091E5014091E60150914D
:101C2000E7010E946E332091EF073091F007409159
:101C3000F1075091F2070E9403312091E8013091A1
:101C4000E9014091EA015091EB010E946E330E943C
:101C5000D1332091EC013091ED014091EE01509192
:101C6000EF010E946E332091F0013091F10140911B
:101C7000F2015091F3010E94033160934B0870937D
:101C80004C0880934D0890934E08809177088823E4
:101C9000F9F0833011F1082E000C990B1BC08090D5
:101CA000DC019090DD01A090DE01B090DF01A50184
:101CB0009401C701B6010E947A3187FD86CFC09298
:101CC000F707D092F807E092F907F092FA0785CF6C
:101CD00082E090E08093770855C981E090E0FACFE8
:101CE00080E090E0AFE7B3E48093FB079093FC07BC
:101CF000A093FD07B093FE0774C91986BCC98FEF86
:101D00008987B9C91986DAC98FEF8987D7C9198632
:101D100001CA8FEF8987FEC94F925F926F927F92BF
:101D20008F929F92AF92BF92DF92EF92FF920F93AA
:101D30001F93CF93DF9384E090E033D2E7EDF3E09D
:101D40008BE2DF011D928A95E9F780E090E0A0E840
:101D5000BFEB86A397A3A0A7B1A78AE097EDA3E264
:101D6000BBE382A393A3A4A3B5A385EF9AE0A7E165
:101D7000BAEA84839583A683B78380E295EDABEAC4
:101D8000BCE080879187A287B38786E099E8A0EAC4
:101D9000B1EF84879587A687B7878AE699E9A6E396
:101DA000BDE4808B918BA28BB38BABECB3E0B383A0
:101DB000A283E5EBF3E01196FC93EE9380ED92E0C5
:101DC000918380839383828395838483978386839F
:101DD000918780879387828789E798E095878487B2
:101DE00088E798E09787868787E798E0918B808BD4
:101DF00083E898E0938B828B88E898E0958B848BBE
:101E00008BEE93E015969C938E9314978BED93E055
:101E100013969C938E9312978DEE93E017969C9356
:101E20008E93169783EEA82E87E0B82E88E2F501F0
:101E300011928A95E9F7CBE0D8E08EE7DE011D929A
:101E40008A95E9F780E090E5A3ECB8E48C879D875C
:101E5000AE87BF87DD24D394D0927E0894E0892E8C
:101E600091E0992EF401848D958DA68DB78D888B88
:101E7000998BAA8BBB8B412C512C32014394498204
:101E80005A826B827C8250E040E060E070E0CB01DF
:101E90000E94A3009F838E8340EA56E861E070E0D1
:101EA000488759876A877B870E94C700DD821CA606
:101EB000D0927A084DA65EA66FA678AAE12CF12CE6
:101EC0008701A801970169E070E080E090E00E943E
:101ED00010029BAB8AABD9AA1CA2D0927D084DA25E
:101EE0005EA26FA278A661E08BE00E948601D9A66F
:101EF0001C8ED0927C084D8E5E8E6F8E78A261E033
:101F00008CE00E948601D9A21C8AD0927B084D8A5F
:101F10005E8A6F8A788E61E088E00E948601D98EA1
:101F20008091F4019091F501A091F601B091F70133
:101F30008CAB9DABAEABBFAB809148029091490298
:101F4000A0914A02B0914B0288AF99AFAAAFBBAF44
:101F50008CAF9DAFAEAFBFAFF40184819581A681F8
:101F6000B7818093630890936408A0936508B09349
:101F7000660884859585A685B785809367089093C4
:101F80006808A0936908B0936A0884AD95ADA6ADC2
:101F9000B7AD80936B0890936C08A0936D08B093D5
:101FA0006E088091870290918802A0918902B09179
:101FB0008A028093840890938508A0938608B09342
:101FC00087088091CC019091CD01A091CE01B09174
:101FD000CF0180934F0890935008A0935108B0937D
:101FE00052088093530890935408A0935508B093D7
:101FF00056088093570890935808A0935908B093B7
:102000005A0880935B0890935C08A0935D08B09396
:102010005E0880935F0890936008A0936108B09376
:1020200062088091D4019091D501A091D601B09120
:10203000D70180934B0890934C08A0934D08B09320
:102040004E088091670290916802A0916902B09158
:102050006A0280937F0890938008A0938108B093D0
:1020600082088091540290915502A0915602B0913D
:102070005702F501848B958BA68BB78BDF91CF919F
:102080001F910F91FF90EF90DF90BF90AF909F90C6
:102090008F907F906F905F904F90089580910B0884
:1020A000811119C081E080930B0880910C089091F8
:1020B0000D08A0910E08B0910F080197A105B10578
:1020C00051F480911008882331F08091110890918B
:1020D00012080E9485018091370881112EC081E08D
:1020E000809337088091380890913908A0913A0878
:1020F000B0913B080197A105B105F9F480913C0826
:102100008823D9F069E070E080E090E00E94CC0183
:1021100090933E0880933D0840E050E0BA010E9451
:10212000950169E070E080E090E00E94CC0190931E
:102130003E0880933D080E94610280912F08811122
:1021400003C081E080932F0880912708811103C08C
:1021500081E08093270880911F08811103C081E0EE
:1021600080931F08089560E070E080E89FE708957D
:1021700060E070E080E89FE7089560E070E080E84C
:102180009FEF089560E070E080E89FEF089560E0C1
:1021900070E080EC9FEF089560E070E080EC9FEFCE
:1021A0000895F5DF609395087093960880939708DB
:1021B00090939808F1DF6093890870938A08809360
:1021C0008B0890938C08CFDF6093910870939208EE
:1021D0008093930890939408CBDF60938D0870935D
:1021E0008E0880938F0890939008C7DF60939908BA
:1021F00070939A0880939B0890939C08C3DF609328
:102200009D0870939E0880939F089093A00808955E
:10221000CF92DF92EF92FF92CF936B017C01AC01E2
:102220009B01609191087091920880919308909120
:1022300094080E947A31C1E0882371F0A7019601C9
:102240006091990870919A0880919B0890919C08E0
:102250000E947A318111C0E08C2FCF91FF90EF90D6
:10226000DF90CF9008950F931F938B019C0100275F
:10227000112720783F770115110520483F4749F481
:10228000AB01BC016F77772781E0452B462B472BAD
:1022900009F480E01F910F910895E5CF4F925F926E
:1022A0006F927F928F929F92AF92BF92CF92DF9266
:1022B000EF92FF920F931F93F89440900E0450906A
:1022C0000F046090100470901104C0900204D0902C
:1022D0000304E0900404F0900504452B09F0A4C029
:1022E0009B01AC01241935094609570929013A0116
:1022F00000910A0410910B0420910C0430910D04FC
:1023000048015901840C951CA61CB71C8016910627
:10231000A206B306A0F400910604109107042091D0
:102320000804309109040F5F1F4F2F4F3F4F009358
:102330000604109307042093080430930904809244
:102340000A0490920B04A0920C04B0920D04009128
:10235000060410910704209108043091090480922A
:10236000120490921304A0921404B09215040093E6
:1023700016041093170420931804309319046093E3
:102380000E0470930F048093100490931104A4EC36
:10239000B9E0A30192010E94B33D6C0D7D1D8E1D1D
:1023A0009F1D609302047093030480930404909330
:1023B00005040091A7021091A8022091A902309172
:1023C000AA020F3F1F4F2F4F3F4FF1F00091A7027E
:1023D0001091A8022091A9023091AA020E3F1F4F2E
:1023E0002F4F3F4F89F0C090A702D090A802E090F5
:1023F000A902F090AA0221E08C149D04AE04BF044F
:1024000008F420E020931E0478941F910F91FF9010
:10241000EF90DF90CF90BF90AF909F908F907F9084
:102420006F905F904F9008954B015C018418950860
:10243000A608B708A3019201261B370B480B590BBE
:102440006415750586059705D0F082169306A406D7
:10245000B50640F420E030E0A90181149104A10404
:10246000B10491F4A4ECB9E00E94B33DA701960138
:10247000261B370B480B590BCA01B901C5CF821671
:102480009306A406B50670F7A4ECB9E0A501940183
:102490000E94B33D6C0D7D1D8E1D9F1DB5CFFECEE0
:1024A000CF93DF9300D000D0CDB7DEB71C821B8264
:1024B0001A82198210921A0410921B0410921C04A2
:1024C00010921D04BE016F5F7F4FCE0103960E94E4
:1024D0003C2F69817A818B819C810E942C280097F6
:1024E00061F4BE016F5F7F4FCE0103960E94482FBB
:1024F00069817A818B819C812CD50F900F900F90F0
:102500000F90DF91CF910895FF920F931F93CF9378
:10251000DF93082F60E070E0CB010E94423AFF2475
:10252000F3940E941727EC01892B89F010E0CE3F2D
:102530008FEFD80769F0002361F160E070E0CB0114
:102540000E94423A81E090E0892B59F322C011E0C9
:1025500023D5EC01892B21F0CE3F8FEFD80759F717
:1025600011111EC011E0229609F410E00E94C82645
:10257000EC01892B21F0CE3F8FEFD807E1F6111146
:1025800011C011E0CE3F8FEFD80709F410E0011120
:102590000BC0CE01DF91CF911F910F91FF90089555
:1025A00011E0E4CF11E0F3CF60E070E0CB010E94D6
:1025B000423A1F25812F90E0C7CFCF93DF938091C0
:1025C0001E04882321F060E070E0CB014CD635D6A4
:1025D000D0E0C0E0892B71F06AE070E080E090E02C
:1025E0000E94423A81E090DF28D62196C03D27E044
:1025F000D20781F727D60E948028109236041092C5
:10260000350410922F04109230041092310410926D
:10261000320410922B0410922C0410922D0410926C
:102620002E0410922704109228041092290410926C
:102630002A0410922304109224041092250410926C
:10264000260410921F04109220041092210410926C
:1026500022044EEF5FEF6FEF7FEF4093A70250939E
:10266000A8026093A9027093AA0210921E04E2E1EC
:10267000F4E028E0DF011D922A95E9F710920E049C
:1026800010920F04109210041092110410920A0478
:1026900010920B0410920C0410920D041092060478
:1026A0001092070410920804109209041092020478
:1026B000109203041092040410920504DF91CF914C
:1026C0000895109242041092430410924404109210
:1026D00045041092410480914A0490914B049093D8
:1026E000400480933F0410923E0410923D041092E7
:1026F000390410923A0410923B0410923C04109258
:1027000047041092460490E080E00895CF92DF9253
:10271000EF92FF920F931F93CF938C01892B09F0B7
:1027200055C020914A0430914B0480913F04909110
:10273000400440914A0450914B045093400440930C
:102740003F042817390781F010923E0410923D048F
:102750001092390410923A0410923B0410923C04F7
:10276000109247041092460480914A0490914B04C1
:10277000019761F58091460490914704892B21F4DB
:102780008091AB02811112C0809146049091470460
:102790000197E1F48091390490913A04A0913B04AF
:1027A000B0913C040197A105B10581F41092390460
:1027B00010923A0410923B0410923C041092AB0227
:1027C00082E090E0909347048093460480914A040D
:1027D00090914B04019709F01CC180916004909185
:1027E00061048017910709F014C180915C049091F5
:1027F0005D04A0915E04B0915F04009709F409C1E3
:1028000020915B0421110DC040915C0450915D0446
:1028100060915E0470915F04452B462B472B09F4B1
:10282000F8C020914604309147042230310509F068
:10283000F0C020913D042111ECC0FC01C080D1808A
:10284000E280F38080914104882309F4D3C0809111
:102850004D0490914E04892B09F4FDC020914D0444
:1028600030914E0481E02230310509F080E0209162
:102870004D0430914E04C1E02130310549F02091E2
:102880004D0430914E04C1E02230310509F0C0E022
:10289000882309F456C02091570430915804409180
:1028A000590450915A04C701B6010E946A3387FD4A
:1028B00014C020915704309158044091590450910C
:1028C0005A046091420470914304809144049091B1
:1028D00045040E947A3187FD22C02091570430912F
:1028E00058044091590450915A04C701B6010E94FE
:1028F0006A33181634F520915704309158044091EA
:10290000590450915A04609142047091430480919B
:102910004404909145040E947A31811112C0809143
:102920004F0490915004A0915104B0915204892B0E
:102930008A2B8B2B19F481E080933E0481E08093F5
:102940003D04CC2309F456C020915704309158041B
:102950004091590450915A04C701B6010E947A313E
:1029600087FF14C0209157043091580440915904B6
:1029700050915A0460914204709143048091440440
:10298000909145040E946A3387FF22C0209157042A
:10299000309158044091590450915A04C701B6012E
:1029A0000E947A31811126C0209157043091580439
:1029B0004091590450915A0460914204709143042B
:1029C00080914404909145040E946A33181694F44F
:1029D00080914F0490915004A0915104B091520401
:1029E000892B8A2B8B2B19F481E080933E0481E0A4
:1029F00080933D0481E090913D04911180E08093AB
:102A00004104C0924204D0924304E0924404F09204
:102A10004504012B09F067C1809146049091470459
:102A2000892BD9F410924C0410923D048091AB0292
:102A3000882379F082E090E09093470480934604E5
:102A40001092AB0220914A0430914B0481E0232B79
:102A5000E9F080E01BC081E00ACF1092AB028091C8
:102A60004C04882349F010923E04109247041092BF
:102A7000460410924C04EDCF80914A0490914B048F
:102A8000892BE1F080913D0410923D042091460491
:102A9000309147042230310509F45EC088F42115D5
:102AA000310509F448C02130310509F4F3C0109212
:102AB0003E0410923D0410924C0438C081E0E6CFF1
:102AC0002330310509F4B1C02430310581F740913C
:102AD000390450913A0460913B0470913C044115D3
:102AE00051056105710561F0415051096109710994
:102AF0004093390450933A0460933B0470933C0430
:102B00004091390450913A0460913B0470913C0427
:102B1000452B462B472BD9F420914804309149048A
:102B20002130310509F046C010923E04109247044E
:102B3000109246040CC08091AB02882341F082E0E1
:102B400090E090934704809346041092AB02109259
:102B5000370480913E04CEC08823C9F380914F048E
:102B600090915004A0915104B09152041816190686
:102B70001A061B060CF07DC080914A0490914B040C
:102B8000019709F076C080914F0490915004A09174
:102B90005104B09152048093390490933A04A09365
:102BA0003B04B0933C0483E090E09093470480930F
:102BB0004604CDCF40915304509154046091550484
:102BC00070915604452B462B472BA9F010923E04DA
:102BD0008091530490915404A0915504B0915604EF
:102BE0008093390490933A04A0933B04B0933C043F
:102BF00081E090E0DACF882399F08091AC02909147
:102C0000AD02A091AE02B091AF02809339049093CF
:102C10003A04A0933B04B0933C0484E090E0C5CF19
:102C200010923E0482E090E0C0CF809139049091F0
:102C30003A04A0913B04B0913C040097A105B10572
:102C400059F00197A109B1098093390490933A048E
:102C5000A0933B04B0933C048091390490913A04D2
:102C6000A0913B04B0913C04892B8A2B8B2B09F05B
:102C70006ECF8091AC029091AD02A091AE02B09166
:102C8000AF02892B8A2B8B2B09F44ECF81E08093E6
:102C90003E04B3CF4091390450913A0460913B0413
:102CA00070913C04411551056105710561F0415079
:102CB0005109610971094093390450933A046093B2
:102CC0003B0470933C044091390450913A04609164
:102CD0003B0470913C04452B462B472B09F037CF22
:102CE0008111C7CF9FCF80913704882309F431CF5A
:102CF00080913804CF911F910F91FF90EF90DF905A
:102D0000CF9008951092420410924304109244040C
:102D10001092450410924104109247041092460408
:102D20001092400410923F041092610410926004CB
:102D300010923E0410923D041092390410923A040D
:102D400010923B0410923C04109238041092370405
:102D500010925C0410925D0410925E0410925F0465
:102D600010925B0410925704109258041092590468
:102D700010925A0488EE93E0A0E0B0E08093AC0299
:102D80009093AD02A093AE02B093AF0210925304A1
:102D900010925404109255041092560410924F044D
:102DA00010925004109251041092520410924E044A
:102DB00010924D0481E08093AB0210924C0410926B
:102DC0004B0410924A04109249041092480490E077
:102DD00080E0089580914A0490914B04892B19F565
:102DE0008091AB02882351F080914C04811106C080
:102DF00081E08093380480933704089520914C0437
:102E00003091AB0281E090E0332311F090E080E05C
:102E100030E082239323892B21F01092380481E043
:102E2000EACF10923704089582E090E0FA0191838E
:102E300080838FEF9FEF0895CF93DF93EA01009790
:102E400011F00E94A0291982188290E080E0DF91A1
:102E5000CF910895DB01009719F48FEF8C930895BB
:102E60002EEF2C930F968F30910508F033C0FC01A4
:102E7000E45CF84E0C949E3D681766176417621761
:102E800060175C175E175A175817561753174F17C6
:102E90004B1751176A1780E311968C93089589E2B6
:102EA000FBCF82E2F9CF11961C92089583E2F4CF12
:102EB00081E2F2CF81E1F0CF87E2EECF8AE2ECCF80
:102EC00080E1EACF84E2E8CF88E2E6CF86E2E4CF91
:102ED00081E3E2CF80E2E0CF80916E0490916F04B5
:102EE000089590936F0480936E04089580916D040B
:102EF000089590916D04892B80936D040895982F07
:102F0000909580916D04892380936D04089580913C
:102F10006C04089580916A0490916B040895611582
:102F2000710559F0FB0130E020E070E060E024170B
:102F3000350719F06115710511F0CB010895A081D5
:102F4000B181A817B90709F4BF012F5F3F4F36962B
:102F5000EECF8091700481111CC062D268D2909330
:102F60006304809362040E94B0210E94C221909366
:102F70006704809366040E9432260E94392690934B
:102F800065048093640481E08093700490E080E0A5
:102F9000089584EF9FEF08958F929F92AF92BF9212
:102FA000CF92DF92EF92FF920F931F93CF93DF9315
:102FB000CDB7DEB72A970FB6F894DEBF0FBECDBFF0
:102FC0001A86198618861F821E821D821C821B8209
:102FD0001A8219828091700407EF1FEF882309F489
:102FE0009CC08E010D5F1F4F9E012B5F3F4FAE01B6
:102FF000495F5F4FBE01675F7F4F90E080E00E94B6
:10300000B2278C01009721F00596029708F0DBC0EB
:1030100029853A852115310509F402C1ED80FE802C
:103020004B815C81B701640F751F8F81988586176E
:10303000970708F4F5C0E20EF31ED7019C91903C6F
:1030400009F07FC04230510508F47BC011968C9185
:1030500040916E0450916F04452B09F49CC0913F40
:1030600008F071C02CE1290F2D3008F48BC02DE23F
:10307000290F203108F489C0903C21F4815082301E
:1030800008F483C088E3890F8B3008F481C09AE28A
:10309000C92E97E1D92EE4E1F7E16D817E81AE0181
:1030A0004F5F5F4F89859A8509955C01C114D104F2
:1030B000A1F189809A808114910479F18B819C819E
:1030C0008815990508F487C010E000E04B815C8109
:1030D00070E060E0C7010E94C63D01151105E9F4EA
:1030E00049815A8169857A858D819E81680F791F12
:1030F000C501F6010995E980FA800D811E812F81B5
:10310000388549855A856FEF7FEF81E090E00E9416
:103110004E278C01892B09F056C0C8012A960FB69C
:10312000F894DEBF0FBECDBFDF91CF911F910F91FD
:10313000FF90EF90DF90CF90BF90AF909F908F90D7
:10314000089580E085CF30E020E0220F331FF901A1
:10315000EE59FB4F0190F081E02D309709F497CFA5
:10316000892F90E00995009709F491CFDC01129620
:10317000ED91FC9113971496CD90DC90309709F067
:103180008CCF1FC021E030E0E0CF22E030E0DDCF87
:1031900023E030E0DACFD12CC12CECE1F7E19F3F06
:1031A00009F07BCFE0916204F0916304309721F441
:1031B000C90104EF1FEF0CC08FEF90E00995009755
:1031C000A9F604EF1FEF89859A85009709F4A5CF2A
:1031D0000E94A029A2CF0E947B288C0189859A8514
:1031E0000E94A02970E060E0C4010E941428988722
:1031F0008F830E944B279E838D836F817885611515
:10320000710559F0C8010E942C2B9A87898706EF17
:103210001FEF892B09F058CF59CF08EF1FEF56CF7A
:1032200008EF1FEFD0CF20917004222319F020E087
:103230000C94C72187EF9FEF089580916E049091C1
:103240006F0408950E943E260E949825F5D0E2E67C
:10325000F4E088E0DF011D928A95E9F7109270048E
:1032600090E080E008950C94F52321E040E050E0E8
:10327000BA010C94C72186E090E0FA019183808323
:1032800090E080E0089547E050E065E073E047CECD
:10329000DF92EF92FF920F931F93CF93DF938A01F8
:1032A000EC01C60FD71FE0907404F0907504D9802C
:1032B0000E946328D816190678F082E090E0F801A1
:1032C000918380838EEF9FEFDF91CF911F910F91BC
:1032D000FF90EF90DF900895EF2841F482E090E0B6
:1032E000F8019183808384EF9FEFEECF89818093F3
:1032F000730490E00196F8019183808390E080E070
:10330000E3CFCF93DF93EA010E94A624882321F024
:103310000E9470280E94A72482E090E0998388830D
:103320008BEF9FEFDF91CF910895CF93DF93EB0168
:1033300086E0FB0111928A95E9F78FEF8883D6DD4D
:103340008983E5DD8A83E6DD9D838C83DF91CF91E0
:103350000895CF93DF93EA010E94A924811109C047
:1033600082E090E09983888385EF9FEFDF91CF9192
:10337000089590E080E0B5DD81E090E09983888356
:1033800090E080E0F3CF0F931F93CF93DF93EA0198
:103390008C01060F171F0E94A92481110BC082E027
:1033A00090E09983888385EF9FEFDF91CF911F9104
:1033B0000F910895F8018181823038F082E090E029
:1033C000998388838EEF9FEFF0CF81E090E089DDD5
:1033D00088E090E09983888390E080E0E6CFCF9307
:1033E000DF930097D1F4EB01FB01329686E0DF0119
:1033F0001D928A95E9F78FEF888385E089831A8289
:103400000E9463288B830E9462289D838C8381E0C5
:103410008E838F83DF91CF910895DF91CF911ACD65
:1034200083E499E1909372048093710408958091EC
:1034300071049091720408951092720410927104B4
:10344000089580917404909175040895411105C008
:10345000611571058105910561F0609374047093A5
:10346000750480937604909377044093780481E008
:10347000089580E00895FF920F931F93CF93DF93F9
:103480008A01EC01C60FD71FF9800E946328F81645
:10349000190668F082E090E0F801918380838EEF56
:1034A0009FEFDF91CF911F910F91FF9008956C8155
:1034B0007D818E819F814B81C9DF811108C082E0AF
:1034C00090E0F8019183808384EF9FEFEACF8981B8
:1034D0008093730490E00196F8019183808390E0DB
:1034E00080E0DFCFCF93DF93EA01FC01E60FF71F07
:1034F00064817581868197814381A8DF811109C02C
:1035000082E090E09983888384EF9FEFDF91CF91F1
:10351000089581E090E09983888390E080E0F6CF81
:10352000E4E7F4E04081518162817381480F511DCD
:10353000611D711D40835183628373830895CF930E
:10354000C09173044C2F50E0609174047091750425
:1035500001960E94BD3D8C2FE3DF10927304CF9142
:103560000895009799F480917404909175042FEF59
:10357000FB012083892B59F02091730430E02F5FE9
:103580003F4F2417350719F4CB01D9CF63CC0895E9
:10359000009799F480917404909175042FEFFB01CA
:1035A0002083892B59F02091730430E02F5F3F4F27
:1035B0002417350719F4CB01C2CF4CCC089523E171
:1035C000AC01249FC001259F900D1124E0917D0442
:1035D000F0917E04E80FF91F2381348122503109D4
:1035E00081E02230310508F080E008950F931F93A9
:1035F000CF93DF9300917F0410918004D0E0C0E06E
:1036000080E00C171D0749F491E0811190E0892FAB
:10361000DF91CF911F910F9108958111F5CFCE01C8
:10362000CEDF2196EECFA0917D04B0917E0410975D
:1036300029F120917F043091800482179307F0F4E0
:1036400053E1589F9001599F300D1124A20FB31FD1
:10365000ED91FC911197309789F012968C91681733
:1036600068F48BE0689FE00DF11D11248081918149
:10367000892B21F081E09281491708F080E00895BC
:103680009C0143E1429FC001439F900D1124E091B2
:103690007D04F0917E04E80FF91F8385823091F458
:1036A00081E090E0658176814091B0025091B10255
:1036B0006417750711F490E080E0892B19F081E020
:1036C000232B09F080E00895EF92FF920F931F9350
:1036D000CF93DF93EA01FC01E60FF71F028113810C
:1036E000E480F5804F2D6E2DC8019DDF81110DC046
:1036F00082E090E0998388838EEF9FEFDF91CF91F6
:103700001F910F91FF90EF900895C80158DF882313
:1037100039F082E090E09983888388EF9FEFEECFC5
:103720001093B7020093B602E092B802F092B90289
:1037300081E090E09983888390E080E0DFCFCF92B2
:10374000DF92EF92FF920F931F93CF93DF937A0153
:10375000EC01C60FD71FC090B602D090B7020091FF
:10376000B8021091B902412F602FC6015CDF8111B0
:1037700010C082E090E0F701918380838AEF9FEF91
:10378000DF91CF911F910F91FF90EF90DF90CF903D
:103790000895C60114DF882341F082E090E0F7012C
:1037A0009183808388EF9FEFEBCF4C815D816E81A9
:1037B0007F819A8189818F3F41F082E090E0F7011B
:1037C000918380838EEF9FEFDBCFE3E1EC9D90014F
:1037D000ED9D300D1124E0917D04F0917E04E20F07
:1037E000F31F0190F081E02D2BE0029FE00DF11D11
:1037F00011240190F081E02D27E0129FE00DF11DD2
:103800001124808391838B818283438354836583D6
:1038100076831F5F1093B90281E090E0F7019183F6
:10382000808390E080E0ACCFEF92FF920F931F93E4
:10383000CF93DF937A018C01060F171FC0917D048F
:10384000D0917E04209781F021E030E0F801828160
:10385000938140917F04509180048417950710F064
:1038600030E020E0232B71F482E090E0F7019183B7
:1038700080838EEF9FEFDF91CF911F910F91FF908B
:10388000EF90089543E1489F9001499F300D112426
:10389000C20FD31F94DE882341F082E090E0F7014D
:1038A0009183808388EF9FEFE6CFF80124813581F3
:1038B00020383105C8F687818111D6CF4181842F08
:1038C00090E08F7E009741F082E090E0F7019183D5
:1038D000808386EF9FEFCFCF4F833E832D8326815A
:1038E00028871986223010F421E0288721E030E073
:1038F000F70131832083BFCF88E090E0FA01918304
:10390000808390E080E00895FB018FEF808381E168
:1039100081838FEF9FEF9383828380E890E095838C
:103920008483168217820895FB018FEF808391E0D4
:10393000918382839383848384E3858381E090E011
:10394000978386830895DF92EF92FF920F931F93E0
:10395000CF93DF93EA01FC01E60FF71F81818130ED
:1039600071F082E090E0998388838FEF9FEFDF9181
:10397000CF911F910F91FF90EF90DF90089582817A
:103980009381D4802581E680F78000917D04109199
:103990007E040115110539F482E090E09983888353
:1039A0008CEF9FEFE4CF40917F0450918004841707
:1039B000950738F082E090E0998388838EEF9FEF3F
:1039C000D6CF892B39F082E090E09983888386EF07
:1039D0009FEFCDCF8D2D8D7FB1F72130A1F781E005
:1039E000D11006C091E0E916F10431F080E004C086
:1039F000E2E0EE16F104D0F3882329F390E080E0B2
:103A0000DEDD882339F082E090E09983888388EFB7
:103A10009FEFADCFF801D38681E08487F686E586F7
:103A2000108A178681E090E09983888390E080E097
:103A30009ECF4CE050E06FE273E071CA8F929F928C
:103A4000BF92CF92DF92EF92FF920F931F93CF938B
:103A5000DF93EA01FC01E60FF71F82819381048165
:103A6000B580E0917D04F0917E04309791F482E07E
:103A700090E0998388838CEF9FEFDF91CF911F9126
:103A80000F91FF90EF90DF90CF90BF909F908F901D
:103A9000089520917F04309180048217930738F0B5
:103AA00082E090E0998388838EEF9FEFE6CF23E159
:103AB000289F6001299FD00C1124EC0DFD1DE08092
:103AC000F180E114F10499F28281081748F78BE044
:103AD000089F80011124E00EF11EF7018081918181
:103AE000892B29F6BB20E1F2F7E0BF9E40011124AB
:103AF000C4010E946729F70191838083E0917D04CE
:103B0000F0917E04EC0DFD1D0190F081E02DE00FA1
:103B1000F11F80819181009739F482E090E09983D0
:103B200088838DEF9FEFA9CFA40170E060E00E9431
:103B3000C63D80917D0490917E04C80ED91EF60189
:103B400080819181080F191FF801B28281E090E015
:103B50009983888390E080E090CFAF92BF92CF921C
:103B6000DF92FF920F931F93CF93DF93EA01FC0143
:103B7000E60FF71F82819381F48000917D041091FC
:103B80007E040115110581F482E090E09983888319
:103B90008CEF9FEFDF91CF911F910F91FF90DF90FE
:103BA000CF90BF90AF90089520917F043091800412
:103BB0008217930738F082E090E0998388838EEF34
:103BC0009FEFE8CF2FEF2F0D2C3FA8F723E1289F81
:103BD0006001299FD00C11240C0D1D1DF80180815E
:103BE0009181892B89F6FBE0FF9E50011124C501CC
:103BF0000E946729F80191838083E0917D04F09110
:103C00007E04EC0DFD1D80819181009739F482E0E6
:103C100090E0998388838DEF9FEFBCCFA50170E082
:103C200060E00E94C63DE0917D04F0917E04EC0DC1
:103C3000FD1DF28281E090E09983888390E080E02E
:103C4000A9CFCF92DF92EF92FF920F931F93CF9362
:103C5000DF93860F971FFC010281138180917D0401
:103C600090917E04892B81F082E090E0FA019183AB
:103C700080838CEF9FEFDF91CF911F910F91FF9089
:103C8000EF90DF90CF900895C801B0E0A0E00197D9
:103C9000A109B1098F3F9F4FA105B10540F082E016
:103CA00090E0FA01918380838EEF9FEFE4CF7A0159
:103CB00083E1809F6001819FD00C1124C6010E9486
:103CC0006729EC01009741F482E090E0F7019183CD
:103CD00080838DEF9FEFCFCFA60170E060E00E9460
:103CE000C63DD0937E04C0937D041093800400935E
:103CF0007F0490E080E02FEF3FEF41E061E070E073
:103D00008017910741F481E090E0F701918380836F
:103D100090E080E0B0CF3A8B298B1B864C877E8762
:103D20006D87188A1F8601966396EACFCF92DF923D
:103D3000EF92FF920F931F93CF93DF93EC01D12C5F
:103D4000C12C10E000E0F12CE12C6A8170E0061734
:103D50001707BCF0660F771FAE014F5E5F4FC701BC
:103D60000E94CC29009721F02FEF3FEF3A8B298B4F
:103D7000DF91CF911F910F91FF90EF90DF90CF9047
:103D80000895E881F981EC0DFD1D438154818D85F5
:103D90009E85489F9001499F300D589F300D1124FA
:103DA000C90101960115110519F44F8144FD0496CE
:103DB00061E070E00E941428E816F90608F47C011E
:103DC0000F5F1F4F8BE0C80ED11CBFCFF89420911E
:103DD0007B0430917C0481E02115310509F080E0FD
:103DE000232B09F0789408952F923F924F925F927F
:103DF0006F927F928F929F92AF92BF92CF92DF92FB
:103E0000EF92FF920F931F93CF93DF933C01660EC7
:103E1000771EF301828193814C01B12CA12CC091BA
:103E20007D04D0917E04209769F021E030E060911C
:103E30007F04709180048617970710F030E020E02F
:103E4000232BD1F482E090E0FA01918380838EEFFE
:103E50009FEFDF91CF911F910F91FF90EF90DF9037
:103E6000CF90BF90AF909F908F907F906F905F901A
:103E70004F903F902F9008958092BA029092BB028B
:103E8000A092BC02B092BD0263E1689F9001699F5D
:103E9000300D1124C20FD31FF3018181833040F014
:103EA00082E090E0FA019183808386EF9FEFD1CF8B
:103EB0002A012B813C81232BF1F4288139819F81B8
:103EC00091FF2EC0232B09F46FC0209182049A81A8
:103ED000422F490F5527551FBA0141E050E0613884
:103EE000710514F050E040E0452B09F45DC02A87CD
:103EF000920F909382048150823008F481C066DF73
:103F0000882309F4D8C0F3018181813009F48DC080
:103F100008F47BC0823009F4C6C090E080E0ADC0F8
:103F2000232B09F441C0209181049A81E22FE90FEB
:103F3000FF27FF1F41E050E0ED3FF10514F050E096
:103F400040E0452B89F12A87920F90938104D3CFCB
:103F5000A081B181A20FB31F11966C91060F111DA4
:103F60000196295F3F4F8417950794F38D859E85B1
:103F7000089F1001099F300C189F300C1124C114A8
:103F8000D104D1F48F8184FF17C00E946228F5E02C
:103F90002F0E311C21E08215930508F420E0A701C3
:103FA000455F5F4F21110EC082E090E0F2019183E6
:103FB000808387EF9FEF4DCF0E9462282FEF221A58
:103FC000320AE8CF88819981E80EF91EF70114833F
:103FD0000383FFEFCF1ADF0A7A018A818C151D0453
:103FE00009F00CF48CCFE881F981EE0DFF1D4281C0
:103FF00050E030E020E010E000E090E080E0B3CF5F
:10400000F12CE12CD12CC12CE8CF81E090E09C83F5
:104010008B83ECDA882309F480CF81E090E00E9462
:10402000711780E40E947F1778CF89899A89019659
:1040300061F083E090E09C838B8382E090E00E94BB
:10404000711780E40E94791768CF8D819E8120913D
:10405000B0023091B10282179307D1F46091B4029B
:104060007091B502AE014F5E5F4F8091B2029091A8
:10407000B3020E94EB2A0097E1F2789422E030E04C
:10408000F20131832083892B99F08DEF9FEFE1CEF0
:1040900089288A288B2869F6892B59F6CE0146DEB5
:1040A000188A1F86E8CF82E090E09C838B8335CF0F
:1040B00090E080E0CECE82E090E0F20191838083B8
:1040C00085EF9FEFC6CE8F929F92AF92BF92CF9215
:1040D000DF92EF92FF920F931F93CF93DF93EA014A
:1040E0008C01060F171FF8018181833098F082E060
:1040F00090E09983888386EF9FEFDF91CF911F91A6
:104100000F91FF90EF90DF90CF90BF90AF909F9076
:104110008F90089580917D0490917E04892B61F0A9
:1041200081E090E020917F0430918004232B11F4F2
:1041300090E080E0892B39F482E090E099838883D5
:104140008EEF9FEFDACF42DE882309F4DFC0F8015B
:104150008181813009F495C0E8F0823099F4209192
:104160007F0430918004E0917D04F0917E0490E022
:1041700080E041E050E02817390709F0BDC036DA89
:10418000811117C0789481E090E09983888390E052
:1041900080E0B3CF20917F0430918004E0917D04D2
:1041A000F0917E0490E080E041E050E0281739076C
:1041B00041F481E090E00E94711780E40E947F1733
:1041C000E1CF63817481672B11F05483438301969F
:1041D0007396ECCFE0917D04F0917E04E00FF11F27
:1041E0002381348122303105D9F4218932892F3F4E
:1041F0003F4FB1F4258136814091B0025091B10218
:104200002417350761F5AF014F5E5F4F6091B4022F
:104210007091B5028091B2029091B3020E94EB2A94
:10422000EFEFCE1ADE0AEE0AFE0A0D5E1F4F409136
:104230007F045091800470E060E0C416D506E60665
:10424000F7063CF5009731F27894892B09F49BCF5F
:1042500082E090E0998388838DEF9FEF4ECFC11469
:10426000D104E104F104E1F6232BD1F6CF015EDDA8
:10427000E0917D04F0917E04E00FF11F108A178613
:10428000CFCF10E000E090E080E0C12CD12C76018F
:10429000CECF0097C9F610E000E0812C912C54019C
:1042A00083E0E82EF12C1AC0E0917D04F0917E04A9
:1042B000E00FF11F83819481029749F4F482E38235
:1042C00082E090E00E94711780E40E947917FFEF6E
:1042D0008F1A9F0AAF0ABF0A0D5E1F4F80917F049D
:1042E00090918004B0E0A0E088169906AA06BB066B
:1042F000DCF290E080E0A8CF6381748162307105C8
:1043000011F4548343830196739635CF82E090E095
:104310009983888385EF9FEFF0CE0097B9F48FEFF4
:10432000FB0180832091BA023091BB0243E1429F9E
:10433000C001439F900D1124E0917D04F0917E0413
:10434000E80FF91F8285FB01818308950C942A17D9
:1043500088E090E0FA019183808390E080E0089506
:1043600010927C0410927B04EDE7F4E086E0DF011C
:104370001D928A95E9F789E19DE190937A048093F3
:10438000790408958091790490917A0408952F9288
:104390003F924F925F926F927F928F929F92AF92D5
:1043A000BF92CF92DF92EF92FF920F931F93CF9322
:1043B000DF93CDB7DEB760970FB6F894DEBF0FBEC0
:1043C000CDBFF894E0917B04F0917C043196F0939A
:1043D0007C04E0937B047894A0917D04B0917E04EA
:1043E000BA83A983109709F4FAC1E0917F04F09190
:1043F0008004EF2B09F4F3C128874B875C876D8716
:104400007E879A878987B88BAF87312C212CF12C36
:10441000512C412C80917F049091800428163906FC
:1044200010F4FF2029F1F89480917B0490917C0492
:10443000019790937C0480937B047894C2016096EA
:104440000FB6F894DEBF0FBECDBFDF91CF911F91A5
:104450000F91FF90EF90DF90CF90BF90AF909F9023
:104460008F907F906F905F904F903F902F90089526
:10447000B10190E080E087D4682EEF85F8898781CC
:1044800081FD3DC0838194810397C9F525813681E3
:104490003C832B8389859A852817390781F5C101CB
:1044A000EFD8782E8823A9F1AF85B8891F968D9112
:1044B0009C915097019621E01D964D915C91841737
:1044C000950709F020E02F83B12CA12CEF85F88906
:1044D00082818A151B0419F014F0FF20E9F0F88599
:1044E000FF2309F46CC1AF85B88950961C921E92C7
:1044F0001F97662021F0B10190E080E046D4FFEFE5
:104500002F1A3F0A2F8538892D5E3F4F388B2F8712
:1045100081CFB1E0BF83D8CFBED49E838D83E885A1
:10452000EE23E9F0772009F43CC1AF85B8891F96E6
:104530008D919C91892B79F0BBE0BA9DC001BB9D08
:10454000900D1124AF85B889ED91FC91E80FF91F0A
:1045500085819681F5D6BFEFAB1ABB0AB7CF81E054
:10456000772039F0EF85F88927853089232B09F0EA
:1045700080E0F82EE12CA114B10439F4AF85B8899C
:104580001796EC90E4FAEE24E0F8BBE0BA9D6001E7
:10459000BB9DD00C1124882309F424C1AF85B889B0
:1045A000ED91FC911197EC0DFD1D438154811D96F9
:1045B0002D913C91429FC001439F900D529F900DC1
:1045C0001124E1105DC001969087878361E070E05F
:1045D0008781908529D5EF85F889218932890081E5
:1045E00011810C0D1D1D2F3F320709F44BC0BC017A
:1045F000C9010E942C2BD80116969C938E93159777
:10460000AF85B889ED91FC911197EC0DFD1D0581E9
:1046100016810115110509F4CDC0ED81FE810E0F43
:104620001F1F1A968C918A0DD8018C93E1102FC010
:104630000F5F1F4FAF85B889ED91FC91EC0DFD1D0B
:1046400012870187AF85B889ED91FC91EC0DFD1DB6
:1046500085819681892B09F4A4C08091B002909144
:10466000B1022B813C812817390709F465C07720F6
:1046700011F001851285912C812C1A8219824AC071
:104680000596A2CF24D6F80196838583B9CF8B8572
:104690009C85AD85BE85F80181839283A383B48315
:1046A0000B5F1F4FC7CFE080F180E80CF91CD701EA
:1046B00013966D917C9114978C918F3F09F473C080
:1046C000E1E0F0E002C0EE0FFF1F8A95E2F7CF01B4
:1046D000092E000CAA0BBB0BFB01408151816281AA
:1046E000738184239523A623B72321E0892B8A2B6A
:1046F0008B2B09F420E0D8012C93D70111968C91D3
:10470000080F111DE981FA813196FA83E983F7E0F8
:104710008F0E911CAF85B889ED91FC91EC0DFD1DBC
:10472000828129813A818217130611F00CF0BBCFE8
:10473000772011F0128701873F81332391F1AF85F4
:10474000B889ED91FC91EC0DFD1D61E070E0878171
:1047500090856AD4AF85B889ED91FC91EC0DFD1D73
:10476000E780F08445815681E1E0F0E0662011F0B9
:10477000F0E0E0E00D811E819C01B10188279927BE
:104780008E1B9F0B8BD32C01892B59F0EF85F88959
:1047900080819181C80ED91ED60115968D919C916C
:1047A000CFD5F12CD8CEF701418150E0C8010E944D
:1047B000BD3DA3CF86EF482E55245A94CCCEEF852D
:1047C000F889878590890196908B8787258536851E
:1047D0008217930709F08DCE108A17868ACE512C46
:1047E000412C21CE10E000E02DCF2F923F924F922E
:1047F0005F926F927F928F929F92AF92BF92CF9271
:10480000DF92EF92FF920F931F93CF93DF938091EC
:104810007D0490917E0410E000E0892BA9F0D6DAA7
:104820000AEF1FEF882381F020907F0430908004EE
:10483000C0917D04D0917E04D12CC12C10E000E009
:104840002C143D04A9F47894C801DF91CF911F91F5
:104850000F91FF90EF90DF90CF90BF90AF909F901F
:104860008F907F906F905F904F903F902F90089522
:10487000C6010E94401B882309F18B819C8103970C
:10488000E9F48F859889892BC9F0B60190E080E022
:104890007AD221E030E0882311F030E020E0442497
:1048A0005524421A530AB12CA12C912C812C8A81B7
:1048B0008815190409F038F4188A1F864FEFC41AB6
:1048C000D40A6396BDCFE881F981EA0DFB1D85818D
:1048D0009681892BA1F161E070E087819085A4D356
:1048E0003C01D9D28C01E881F981EA0DFB1D81855B
:1048F000928525813681200F311FAC01421B530B5D
:104900009A0147815085421B530B70E060E00E9482
:10491000C63DE881F981EA0DFB1DE780F084458101
:1049200056819301B601C201B9D28C01892B39F0AD
:10493000E881F981EA0DFB1D8581968101D55FEF44
:10494000851A950A8BE0A80EB11CB1CF3FCA7894A6
:1049500008952F923F924F925F926F927F929F9213
:10496000AF92BF92CF92DF92EF92FF920F931F937D
:10497000CF93DF9300D000D000D0CDB7DEB7009149
:104980007D0410917E04992493940115110509F476
:104990003EC0A0907F04B090800418DA982E88233F
:1049A000B1F110927E0410927D0410928004109256
:1049B0007F0410928104109282048FEF9FEFDC013C
:1049C0008093BA029093BB02A093BC02B093BD0245
:1049D00078947AD31E830D83C12CD12C7601C50126
:1049E000B0E0A0E089839A83AB83BC8322242A941D
:1049F000322C89819A81AB81BC81C816D906EA061E
:104A0000FB06F4F0C8019CD480E40E947F17892D36
:104A100026960FB6F894DEBF0FBECDBFDF91CF91C3
:104A20001F910F91FF90EF90DF90CF90BF90AF90CC
:104A30009F907F906F905F904F903F902F90089540
:104A4000AD81BE8115968D919C9116972091B002F3
:104A50003091B10282179307D1F451968D919C91B8
:104A6000E9D5ED81FE8180819181B12CA12C412C71
:104A7000512C3201892B89F5BFEFCB1ADB0AEB0AE7
:104A8000FB0AED81FE817396FE83ED83B2CFC114E4
:104A9000D104E104F10429F7892B19F7ED81FE8196
:104AA000818992898F3F980709F024D5AD81BE8115
:104AB00052963C922E925197D4CF8A0D9B1DDC01C9
:104AC0008D919C91009709F03BD4BFEF4B1A5B0A84
:104AD0006B0A7B0AEBE0AE0EB11CAD81BE818D91FD
:104AE0009C91119712964C9150E070E060E0441652
:104AF0005506660677060CF323D4BECFCF93DF931B
:104B0000EA0127DF811109C082E090E09983888360
:104B100085EF9FEFDF91CF91089581E090E00E94B3
:104B2000711781E090E09983888390E080E0F2CF74
:104B300010DF10927A0410927904089542E050E058
:104B400067E773E00C948F17FF920F931F93CF9337
:104B5000DF938A01EC01C60FD71FF980B4D2089702
:104B6000F816190671F068F082E090E0F801918380
:104B700080838EEF9FEFDF91CF911F910F91FF9078
:104B800008956C817D818E819F814B810E94261AC0
:104B9000811108C082E090E0F8019183808384EF66
:104BA0009FEFE9CFF9800E94211A4F2D50E0BE01FE
:104BB000685F7F4F0E94BD3D89810E94901A81E00D
:104BC00090E0F8019183808390E080E0D4CFDF9281
:104BD000EF92FF920F931F93CF93DF938A01EC0123
:104BE000C60FD71F0E94211A7C01D9806CD2DD200C
:104BF00059F0029721E030E0D816190619F010F0AC
:104C000030E020E0232B79F482E090E0F8019183FA
:104C100080838EEF9FEFDF91CF911F910F91FF90D7
:104C2000EF90DF900895EF2841F482E090E0F801E2
:104C30009183808384EF9FEFEECFF9800E94211A49
:104C40004F2D50E0BE016E5F7F4F0E94BD3D8981B8
:104C50000E94901A81E090E0F8019183808390E0B7
:104C600080E0D9CF8EE995E2909384048093830409
:104C70000895809183049091840408950895FC011F
:104C800011821082938382830895DB011D921C920E
:104C9000DC011296ED91FC9113977183608313965A
:104CA0007C936E9312970895FC0180819181DB01C2
:104CB0008D939C93A081B181109741F08D919C912F
:104CC00091838083892B11F4F383E2830895FC019F
:104CD00080819181DB018D939C93892B11F47383E7
:104CE0006283718360830895FC0111821082938333
:104CF00082830895CF93DF9300D0CDB7DEB71A82B9
:104D00001982F894BE016F5F7F4F8AE894E0CCDF90
:104D100089819A81009709F013D389819A81892B1F
:104D200089F7BE016F5F7F4F8EE894E0BDDF898118
:104D30009A81009709F004D389819A81892B89F798
:104D400078940F900F90DF91CF910895CF93DF93D8
:104D500000D0CDB7DEB71A821982F894BE016F5F1A
:104D60007F4F86E894E0A0DF89819A81009709F05F
:104D7000E7D289819A81892B89F778940F900F90D7
:104D8000DF91CF91089581E0089590E080E008954B
:104D9000EF92FF920F931F93CF93DF9300D0CDB785
:104DA000DEB71A8219828091850407EF1FEF8823EE
:104DB000A1F1F894BE016F5F7F4F8EE894E074DF3D
:104DC000789489819A81EE24E394F12C892B51F413
:104DD000F894BE016F5F7F4F8AE894E065DF7894B6
:104DE000F12CE12C89819A810EEF1FEF0097A9F039
:104DF000FC014281538164E070E072D68C01892B02
:104E000061F0F89469817A81C701880F991F880F32
:104E1000991F86579B4F5BDF7894C8010F900F90C6
:104E2000DF91CF911F910F91FF90EF9008950F9315
:104E30001F93CF93DF9300D000D0CDB7DEB71C8295
:104E40001B821A8219828091850407EF1FEF882345
:104E5000C1F0AE014D5F5F4F64E070E0CE0101969E
:104E6000B2D68C01892B69F4E981FA818B819C810E
:104E700093838283F89469817A8186E894E005DFE0
:104E80007894C8010F900F900F900F90DF91CF9101
:104E90001F910F910895B7D7049608958F929F920E
:104EA000AF92BF92CF92DF92EF92FF920F931F9338
:104EB000CF93DF9300D0CDB7DEB71A821982BC0141
:104EC0006F5F7F4F6330710598F0AA24AA94BA2CC3
:104ED000C5010F900F90DF91CF911F910F91FF901F
:104EE000EF90DF90CF90BF90AF909F908F900895FC
:104EF0004115510551F3480159018A016C01CBDF7D
:104F00008815990511F7E114F104F9F28E0D9F1D32
:104F1000A816B906D0F2809185048823F1F0F894A0
:104F2000B501645071099701AE014F5F5F4FC80131
:104F30000496DED65C01892B71F489819A81F8018F
:104F400093838283C601880F991F880F991FB80128
:104F500086579B4F9ADE7894BBCF87EFA82EBB2451
:104F6000BA94B6CFAF92BF92CF92DF92EF92FF92F8
:104F70000F931F93CF93DF9300D0CDB7DEB71A8284
:104F80001982892B09F047C06115710509F443C0E6
:104F90004115510509F43FC02115310509F43BC005
:104FA00001151105C1F1809185048823B9F17901BA
:104FB0006A015B01F894BE016F5F7F4F86E894E061
:104FC00073DE789489819A81009759F1DC011296F9
:104FD0006D917C91A8010496A4D68C01E981FA8197
:104FE000D501ED93FC93828193810496F601918320
:104FF000808351DFD7018D939C93C8010F900F9050
:10500000DF91CF911F910F91FF90EF90DF90CF90A4
:10501000BF90AF9008950FEF1FEFEFCF07EF1FEF97
:10502000ECCF0EEF1FEFE9CFCF93DF93EC01672BAF
:1050300071F4F2D68C179D0760F0E5D62496C80F60
:10504000D91FE4D68C0F9D1FDF91CF910895E1D633
:10505000F1CF90E080E0F8CF0F931F93CF93DF93D1
:105060002091850421112BC08B01EC018AE894E08A
:1050700006DE8EE894E003DE86E894E000DE97D05A
:105080000097C1F4C9D670E060E0CEDF4EEB52E08D
:1050900062E070E081D1009769F48091BE02909146
:1050A000BF02CCD6B801CE0101D5009719F421E09A
:1050B00020938504DF91CF911F910F91089584EF84
:1050C0009FEFF8CFA6C6A8C6CF93DF93A8D6EC0172
:1050D000892B11F40FDE3ADECE01DF91CF910895D6
:1050E000CF93DF939CD6EC01892B09F403DECE012C
:1050F000DF91CF9108958091BE029091BF020895F3
:10510000CF93DF9380918504D0E0C0E08823D1F075
:105110009AD6EC01892BB1F4EDDD18DE8091BE0248
:105120009091BF02E7D1E8D2EC01892B59F48AE8CB
:1051300094E0DADD8EE894E0D7DD86E894E0D4DD13
:1051400010928504CE01DF91CF910895EF92FF92E6
:105150000F931F93CF93DF93EC017A018B010F5FC5
:105160001F4F0E9DA0010F9D500D1E9D500D11242F
:1051700070E060E00E94C63D90E080E0F0E0E0E09A
:105180002FEFE816F90639F4DF91CF911F910F91B7
:10519000FF90EF9008951A8219822883309711F0BA
:1051A000D283C1830196FE01C00FD11FEACFCF92F7
:1051B000DF92EF92FF920F931F93CF93DF930EEA4C
:1051C00015E00C7F43E050E060EC72E086EC92E08A
:1051D0001AD480ECE82E82E0F82E96ECC92E92E0EC
:1051E000D92ECDE2D6E0D7014D915D917D01F6013A
:1051F000619171916F01198308835D834C835B8397
:105200004A837F836E839B012F5F3F4F249FC001A2
:10521000259F900D349F900D112499878887011543
:10522000110511F0C80192DF88859985080F191FB3
:105230002A96F6ECEF16F2E0FF06A9F6E4E9F4E0B0
:1052400087E191E0DF019C011D9221503040E1F7A0
:10525000109293041092920410924C0610924B06F6
:105260001092500610924F0610924E0610924D0664
:105270001092520610925106109254061092530644
:10528000109256061092550610925A061092590620
:10529000109258061092570610925C0610925B0608
:1052A00010925E0610925D0610922A061092290650
:1052B00010922C0610922B0690E080E0DF91CF91A7
:1052C0001F910F91FF90EF90DF90CF90089500977E
:1052D000F1F0F894A6ECB2E0EDE2F6E030E020E088
:1052E0004D915D9148175907A8F0428153814115AE
:1052F000510581F08AE0829FF001839FF00D112417
:10530000E35DF94F80819181009759F4789490E0A2
:1053100080E008952F5F3F4F3A962330310501F723
:10532000F5CFDC0111966D917C91718360834150C2
:10533000510953834283FC012193CF01789408954E
:10534000009749F1DC018E91853041F4E0912B0604
:10535000F0912C063097F9F0CD0109948530D8F4FE
:10536000282F30E0F8948FEF8C938AE0829FF00131
:10537000839FF00D1124E35DF94F80819181129696
:105380009C938E931197B183A08382819381019620
:105390009383828378940895CF92DF92EF92FF9265
:1053A0000F931F93CF93DF939C0187E994E08C7F49
:1053B0004115510509F49BC02115310509F497C029
:1053C0006115710509F493C07A01AB01B9016D5FF4
:1053D0007F4F6C7F9B012F5F3F4F249F8001259F54
:1053E000100D349F100D1124F89420914B0630912C
:1053F0004C06232B59F42091530630915406211565
:10540000310569F12017310708F058C02091550681
:1054100030915606232B91F4209153063091540677
:10542000820F931F20915D0630915E062115310594
:1054300009F441C02017310708F056C07894CFEF27
:10544000DFEF86EF9FEFF701D183C083DF91CF912C
:105450001F910F91FF90EF90DF90CF900895C3E0E0
:10546000D0E0C0909204D090930424E131E02C1954
:105470003D092017310710F32AE02C9FF0012D9FE2
:10548000F00D1124E35DF94F9183808355834483AC
:10549000538342837783668311870087009709F0DF
:1054A00055DE0C0D1D1D1093930400939204789407
:1054B00090E080E0C8CFC4E0D0E0D3CFC3E0D0E03C
:1054C0002AE02C9FF0012D9FF00D1124E35DF94F90
:1054D0009183808355834483538342837783668398
:1054E000009729F333DEE3CFC4E0D0E0E9CF8FEFBC
:1054F0009FEFACCF9C010397029708F069C0F89426
:1055000084E09AE0482F50E0241735070CF44DC092
:1055100091E08AE0829FF001839FF00D1124E35D0A
:10552000F94F11821082158214821382128217821F
:1055300016829923B1F180914B0690914C06892BEC
:10554000A9F420915306309154062115310571F0CC
:105550008091920490919304821B930B90939304F7
:10556000809392041092540610925306809155062F
:1055700090915606892BA9F420915D0630915E0624
:105580002115310571F08091920490919304821B52
:10559000930B909393048093920410925E06109262
:1055A0005D06789490E080E00895949FF001959FC7
:1055B000F00D1124E35DF94F40815181452B31F409
:1055C00040855185452B11F481509CCF90E0A1CFAF
:1055D0008FEF9FEF08954115510549F1009739F17B
:1055E0006115710521F1F8942091290630912A0660
:1055F000232BB9F420912B0630912C06232B89F410
:1056000090932A068093290670932C0660932B06AC
:10561000789425E030E090E080E0FA013183208347
:10562000089578942FEF3FEF86EF9FEFF6CF8FEF3F
:105630009FEF0895059769F4F89410922A06109246
:10564000290610922C0610922B06789490E080E0A8
:1056500008958FEF9FEF08956115710519F4F0E03B
:10566000E0E011C08530910581F4E0912906F091C8
:105670002A063097A1F3CB0101960995009779F39B
:10568000FC0185E08193CF0108959C0123503109ED
:105690002230310520F72AE0289FD001299FB00D44
:1056A0001124A35DB94F2D913C911197232BB9F291
:1056B00016962D913C9117972617370780F2F8948C
:1056C00012962D913C9113972115310529F0ED91FA
:1056D000FC911197309711F47894C1CF4181528198
:1056E00011965C934E932150310913963C932E935F
:1056F000129781937894C7CFEBEAF5E08EE7DF014C
:105700001D928A95E9F7E4E9F4E087E191E0DF0191
:105710009C011D9221503040E1F7109293041092A9
:105720009204EDE2F6E082E3DF011D928A95E9F74B
:10573000E9E2F6E084E0DF011D928A95E9F790E066
:1057400080E00895CF93DF93C091CC02D091CD0239
:10575000CF3FDC0759F410D49093CD028093CC0254
:1057600097FF09C0D093CD02C093CC0284EF9FEF86
:10577000DF91CF91089590E080E0FACF82309105DB
:1057800028F480935F0690E080E008958FEF9FEF0C
:1057900008954F925F926F927F92AF92BF92CF9295
:1057A000DF92EF92FF920F931F93CF93DF9300D07E
:1057B000CDB7DEB71A821982009709F479C0611556
:1057C000710509F475C02091CC023091CD0207EF2C
:1057D0001FEF2F3F3F4F09F445C06B015C01412C87
:1057E000512C3201F12CE12C10E000E09E012F5FE2
:1057F0003F4FA6014E195F09B5016E0D7F1D8091C7
:10580000CC029091CD021CD4892B09F04BC0898128
:105810009A81009741F4E114F10429F420915F0684
:10582000222309F442C0E80EF91EEC14FD04D0F462
:1058300080E8481684E858068EE16806710420F571
:1058400060E070E0CB010E94423A2AE0420E511C17
:10585000611C711C0A3F4FEF140721F0043F8FEFCA
:105860001807A1F4C8010F900F90DF91CF911F91FD
:105870000F91FF90EF90DF90CF90BF90AF907F900F
:105880006F905F904F90089501EF1FEF81E090E0DF
:10589000013F2FEF120711F090E080E0892B09F40F
:1058A000A5CFE0CF04EF1FEFDDCF0AEF1FEFDACF78
:1058B0000FEF1FEFD7CF4F925F926F927F92AF9211
:1058C000BF92CF92DF92EF92FF920F931F93CF93ED
:1058D000DF9300D0CDB7DEB71A821982009709F4A2
:1058E00079C06115710509F475C02091CC02309121
:1058F000CD0207EF1FEF2F3F3F4F09F445C06B016B
:105900005C01412C512C3201F12CE12C10E000E023
:105910009E012F5F3F4FA6014E195F09B5016E0D25
:105920007F1D8091CC029091CD023DD3892B09F04F
:105930004BC089819A81009741F4E114F10429F464
:1059400020915F06222309F442C0E80EF91EEC14F0
:10595000FD04D0F480E8481686E9580688E9680610
:10596000710420F560E070E0CB010E94423A2AE029
:10597000420E511C611C711C0E3F4FEF140721F0A9
:10598000043F8FEF1807A1F4C8010F900F90DF912B
:10599000CF911F910F91FF90EF90DF90CF90BF902C
:1059A000AF907F906F905F904F90089502EF1FEF40
:1059B00081E090E0023F2FEF120711F090E080E0CD
:1059C000892B09F4A5CFE0CF04EF1FEFDDCF0EEF59
:1059D0001FEFDACF0FEF1FEFD7CF8091CC0290915E
:1059E000CD028F3F980749F0BED2892B49F48FEF43
:1059F0009FEF9093CD028093CC0290E080E00895D9
:105A000084EF9FEF0895CF92DF92EF92FF920F9372
:105A10001F93CF93DF9321E04115510509F020E05A
:105A20004150510921112CC0DC01FB01D12CC12CAA
:105A300021E022C03FEFC31AD30A7D010D911D91D1
:105A4000E701EA80FB80E016F106A8F420813181AD
:105A5000E280F380F182E08233832283ED90FC9038
:105A600011979D0122503109E901F982E8821196CE
:105A70001C930E9320E03296C416D506D8F2D2CFEE
:105A8000DF91CF911F910F91FF90EF90DF90CF901A
:105A90000895FC01680F791F90E080E0E617F70792
:105AA00009F408952191820F911DF8CF209160068D
:105AB000211113C047DE009791F4109266061092F0
:105AC00065061092640610926306109262061092A8
:105AD000610621E020936006089584EF9FEF08950A
