:100000005DC0000083C0000081C000007FC0000010
:100010007DC000007BC0000079C0000077C00000F8
:1000200075C0000073C0000071C000006FC0000008
:100030006DC000006BC0000069C0000067C0000018
:100040000C94A23763C000000C94993A0C94CB3AFC
:100050005DC000005BC0000059C0000057C0000038
:100060000C94853653C00000000000080002010017
:100070000003040700000000000000000102040863
:100080001020408001020408102001020408102002
:10009000040404040404040402020202020203032E
:1000A0000303030300000000250028002B000000CC
:1000B0000000240027002A00F133F03A11241FBE6B
:1000C000CFEFD8E0DEBFCDBF13E0A0E0B1E0ECE3BE
:1000D000F7E702C005900D92A836B107D9F728E0DE
:1000E000A8E6B3E001C01D92A135B207E1F710E028
:1000F000CEE5D0E004C02197FE010E946D3BCC35D7
:10010000D107C9F70E944E2F0C949C3B79CFCF9218
:10011000DF92EF92FF926B017C01C114D104E104E4
:10012000F10469F480910001811109C080910201FC
:10013000909103010E94623381E080930001C60127
:10014000880F991F880F991F80509F4FFF90EF9045
:10015000DF90CF900895009781F0FC01218121115B
:1001600004C040EA56E861E070E0FC0182819381BE
:100170000E94713390E080E0089588E090E0089557
:100180004F925F926F927F928F929F92AF92BF92A7
:10019000CF92DF92EF92FF920F931F93CF93DF9353
:1001A0000097C9F1280139017A01EC01402F8A81B9
:1001B0009B810E94EF338A819B81DC01ED91FC9150
:1001C0000084F185E02D0995892B01F16701812CCF
:1001D000912C54018A819B81DC01ED91FC9100847A
:1001E000F185E02D0995892B91F184149504A604DD
:1001F000B70469F18A819B81DC01ED91FC91028455
:10020000F385E02D09958F3F9807C1F484E0F7014D
:1002100011928A95E9F788E090E0DF91CF911F91E4
:100220000F91FF90EF90DF90CF90BF90AF909F9095
:100230008F907F906F905F904F900895FFEF8F1A8F
:100240009F0AAF0ABF0AD6018D936D01C3CF90E01C
:1002500080E0E3CF8F929F92AF92BF92CF92DF92D6
:10026000EF920F931F93CF93DF930097F1F06A0102
:10027000EC018A819B810E9474338A819B81DC011D
:10028000ED91FC910280F381E02DA801B601099562
:100290008A819B8160E0E11001C061E00E947E33B1
:1002A000882389F08250823088F088E090E0DF91E6
:1002B000CF911F910F91EF90DF90CF90BF90AF90B3
:1002C0009F908F90089590E080E0F1CF84E090E0DF
:1002D000EECF0895611102C00C9406396130E1F34C
:1002E00062E0FACF662319F061E00C94423960E0D5
:1002F000FCCFCF92DF92EF92FF92CF93882351F100
:100300006A017B01CFEFC80F20E030E0A901CB01EB
:10031000B6010E944E3087FF11C0C701B601905848
:100320000E94BF309B01AC016C2F70E090E080E038
:10033000CF91FF90EF90DF90CF90B2C0C701B60190
:100340000E94BA308C2FCF91FF90EF90DF90CF902A
:100350000C948238CF91FF90EF90DF90CF9008956A
:100360000F931F938B019C0183E03695279517957A
:1003700007958A95D1F708591C4F462F477021E001
:1003800030E0F90102C0EE0FFF1F4A95E2F7AF011E
:10039000F80120812423CB010196211102C090E0B5
:1003A00080E01F910F9108950F931F938B019C0183
:1003B00083E036952795179507958A95D1F767704D
:1003C00081E090E001C0880F6A95EAF7F801E859EA
:1003D000FC4F2081452B31F48095822380831F912F
:1003E0000F910895822BFACF2F923F924F925F92F6
:1003F0006F927F928F929F92AF92BF92CF92DF9235
:10040000EF92FF920F931F93CF93DF93D62EC72EB9
:10041000782E692E49015A01280161E08D2D0E9434
:100420000639CD2DDC2D8E010F5F1F4FA8016D2DDC
:100430007C2D872D962DB8DF20E030E0A901C20188
:10044000B7010E943E32181664F4C201B7010E943F
:10045000BF302B01C501B4010E94BF30A201CE0103
:1004600023D0C801DF91CF911F910F91FF90EF90A2
:10047000DF90CF90BF90AF909F908F907F906F90C4
:100480005F904F903F902F900895882341F08150C6
:10049000682F70E090E080E050E040E085CF089564
:1004A000862FB9010C9482389C01FC01E859FF4F5A
:1004B000E491E33061F140F4E13011F1E23021F1F7
:1004C00060E0822F0C944239E730C1F1E83009F442
:1004D00041C0E430A9F7809180008C7F82608093D6
:1004E000800090918100907E9061692B60938100E3
:1004F00050938700409386008091800080621BC0EB
:1005000084B5806884BDDCCF84B58062FBCF8091E8
:1005100080008C7F82608093800090918100907E2B
:100520009061692B6093810050938700409386000F
:1005300080918000806880938000C2CF8091B0005D
:1005400080688093B0008091B100887F682B6093B1
:10055000B100B6CF8091B0008062F3CF90E080E030
:1005600008950F931F93009709F489C061157105D1
:1005700009F485C000916702109168022091690218
:1005800030916A020E3F1F4F2F4F3F4F09F068C056
:100590004FEF5FEFBA014093670250936802609398
:1005A000690270936A0240916702509168026091FB
:1005B000690270916A02DC011296ED91FC918081D2
:1005C0009181A281B3818093EB039093EC03A0937C
:1005D000ED03B093EE0384819581A681B78180936A
:1005E000E7039093E803A093E903B093EA038085BF
:1005F0009185A285B3858093E3039093E403A09350
:10060000E503B093E60384859585A685B785809339
:10061000DF039093E003A093E103B093E203109211
:10062000DB031092DC031092DD031092DE030E94C4
:1006300035128AE592E1909372038093710390934F
:100640007403809373030E942411009731F421E016
:1006500030E03093F0032093EF031F910F91089542
:1006600000916702109168022091690230916A023C
:10067000DB010D931D932D933C93139794CF8FEF34
:100680009FEFEBCF8F929F92AF92BF92CF92DF926C
:10069000EF92FF921F93CF93DF934B015C01109178
:1006A000F20382E090E09093F0038093EF038114D3
:1006B0009104A104B10441F48091F203811104C0BA
:1006C0008091F103C1E08111C0E0C12CD12C7601F1
:1006D0008091F203811106C08091F103811102C063
:1006E000CC23D9F083E090E09093F0038093EF0364
:1006F000CC2381F1CCE9DFEF111102C00E94BE15BD
:10070000CE01DF91CF911F91FF90EF90DF90CF90BE
:10071000BF90AF909F908F9008956AE070E080E066
:1007200090E00E94113880E1C80E87E2D81EE11CDB
:10073000F11C8FEF88169806A806B80631F0C1E0C4
:100740008C149D04AE04BF0408F0C0E080E00E9459
:100750005811BECFD0E0C0E0CFCFCF92DF92EF9262
:10076000FF920F931F93CF93DF938F3F910511F06B
:1007700008F051C02091EF033091F0032330310590
:1007800039F02091EF033091F0032130310531F43D
:1007900024E030E03093F0032093EF036A017B0103
:1007A000EC0182309105A8F011E0AE01C701B6015D
:1007B0000E942311AB01BC01CE011123F9F0DF919E
:1007C000CF911F910F91FF90EF90DF90CF900C94FD
:1007D000E7178C01000F111F0F581C4FD8018D9186
:1007E0009C91892B09F30E94F1170297E9F6D80131
:1007F000ED91FC91CE010995182FD7CF0E940918D1
:1008000090E080E0DF91CF911F910F91FF90EF90EA
:10081000DF90CF9008958FEF9FEFF4CF80E00C949E
:100820005811CF93DF9386E090E09093F00380938C
:10083000EF030E94B111EC01E1E7F3E084E0DF0196
:100840001D928A95E9F70E9456151092F0031092B6
:10085000EF03CE01DF91CF9108958091F1030895C8
:100860008091DA0308956093670270936802809321
:10087000690290936A0290E080E00895CF92DF923F
:10088000EF92FF926B017C019F7720E030E040E81F
:1008900059E50E944E3087FF2BC020E030E040E059
:1008A0005FE3C701B6010E943E3287FD0EC020E023
:1008B00030E040E05FE3C701B6010E94D72FFF9010
:1008C000EF90DF90CF900C94283120E030E040E0B2
:1008D0005FEBC701B6010E943E32181684F420E097
:1008E00030E0A901C701B6010E9442326B017C01D0
:1008F000C701B601FF90EF90DF90CF90089520E000
:1009000030E040E05FE3C701B6010E94D62FFF90C0
:10091000EF90DF90CF900C943B302F923F924F920C
:100920005F926F927F928F929F92AF92BF92CF927F
:10093000DF92EF92FF920F931F93CF93DF93CDB788
:10094000DEB7A1970FB6F894DEBF0FBECDBF809182
:1009500031088150823008F049C383E08093310828
:10096000809130088150823008F042C383E0809348
:10097000300880912F088150823008F03BC383E01B
:1009800080932F08C0902001D0902101E090220197
:10099000F0902301A70196016091D3077091D407CD
:1009A0008091D5079091D6070E944E30882341F060
:1009B000C092D307D092D407E092D507F092D60721
:1009C0008CE08987C12CEE24E39401E010E020E064
:1009D00030E0AE01475F5F4F66E370E08091C9078A
:1009E0009091CA0737DC8987811106C3CC24C39450
:1009F000E12C04E010E020E030E0AE014F5F5F4FFB
:100A000066E370E08091C9079091CA07B9DB84E082
:100A1000FE013196DE01159601900D928A95E1F75F
:100A20008D819E819D838E838F8198859F8388870A
:100A30002091F7073091F8074091F9075091FA0794
:100A40006091F8017091F9018091FA019091FB0198
:100A50000E9442326E877F87888B998B2091640237
:100A600030916502AF81B8850E94733B6B017C01B8
:100A7000C092BF07D092C007E092C107F092C207B0
:100A800081E090E040911C0150911D0160911E0198
:100A900070911F01C416D506E606F70610F090E027
:100AA00080E020916602289FB001299F700D1124DB
:100AB000072E000C880B990B0E94ED309B01AC01B6
:100AC0000E94D72F4B015C01C701B6010E94EB3099
:100AD00020E030E040E056E30E9442329B01AC014E
:100AE000C501B4010E94D72F2091FC013091FD0176
:100AF0004091FE015091FF010E94D62F20910002EB
:100B00003091010240910202509103020E94423250
:100B10006093A7077093A8078093A9079093AA07EB
:100B20002091040230910502409106025091070283
:100B30000E9442326A8B7B8B8C8B9D8BC090FB0713
:100B4000D090FC07E090FD07F090FE074090FF0773
:100B500050900008609001087090020820912802CF
:100B60003091290240912A0250912B02C701B6010F
:100B70000E9442324B015C0120912C0230912D02E7
:100B800040912E0250912F02C301B2010E944232C5
:100B90009B01AC01C501B4010E94D72F4B015C0140
:100BA000209138023091390240913A0250913B0233
:100BB0006E857F85888999890E9442326A877B8702
:100BC0008C879D8720913C0230913D0240913E02EE
:100BD00050913F026A897B898C899D890E944232AB
:100BE0009B01AC016A857B858C859D850E94D72FF2
:100BF0009B01AC01C501B4010E94D72F60939F07F0
:100C00007093A0078093A1079093A20720913002D0
:100C1000309131024091320250913302C701B60146
:100C20000E9442326B017C012091340230913502E6
:100C30004091360250913702C301B2010E94423204
:100C40009B01AC01C701B6010E94D72F6B017C014B
:100C50002091400230914102409142025091430262
:100C60006E857F85888999890E9442324B015C019B
:100C70002091440230914502409146025091470232
:100C80006A897B898C899D890E9442329B01AC01D3
:100C9000C501B4010E94D72F9B01AC01C701B60169
:100CA0000E94D72F6093A3077093A4078093A50792
:100CB0009093A6076093AB077093AC078093AD0742
:100CC0009093AE078091500290915102A0915202F0
:100CD000B09153028093AF079093B007A093B107F0
:100CE000B093B207C0904C02D0904D02E0904E02FB
:100CF000F0904F0220E030E0A901C701B6010E9448
:100D00004E3087FF7CC1C701B6010E943B30609323
:100D1000B7077093B8078093B9079093BA076091AB
:100D2000B7077091B8078091B9079091BA070E94F0
:100D30002110882309F468C11092B7071092B807F0
:100D40001092B9071092BA07C090B707D090B807B1
:100D5000E090B907F090BA0720E030E0A901C701A0
:100D6000B6010E944E3087FF71C1C701B60190588D
:100D70000E94BF3090958095709561957F4F8F4F01
:100D80009F4F623071058105910509F47EC3633080
:100D900071058105910509F468C46130710581050B
:100DA000910509F05CC12091A7073091A8074091F7
:100DB000A9075091AA076091AF077091B007809181
:100DC000B1079091B2070E94D62F20912401309153
:100DD000250140912601509127010E9442326B016A
:100DE0007C01C092B707D092B807E092B907F092A1
:100DF000BA072091040130910501409106015091FC
:100E000007010E944232209128013091290140912E
:100E10002A0150912B010E9442322B013C01409249
:100E2000BB075092BC076092BD077092BE0720912D
:100E30001F083091200840912108509122082A87EC
:100E40003B874C875D878091230890912408A0916F
:100E50002508B09126088E8B9F8BA88FB98F209183
:100E60001401309115014091160150911701C701ED
:100E7000B6010E9442322A853B854C855D850E94E1
:100E8000D72F4B015C0120911B0830911C08409129
:100E90001D0850911E08C301B2010E94D62F9B016C
:100EA000AC01C501B4010E94D72F4B015C01209118
:100EB0003C0130913D0140913E0150913F016E89CE
:100EC0007F89888D998D0E9442329B01AC01C501BA
:100ED000B4010E94D62F2091380130913901409100
:100EE0003A0150913B010E9452304B015C0120912C
:100EF00030013091310140913201509133010E9413
:100F000042326A8F7B8F8C8F9D8F2091340130917C
:100F1000350140913601509137016E897F89888D66
:100F2000998D0E9442329B01AC016A8D7B8D8C8D24
:100F30009D8D0E94D72F2091440130914501409111
:100F40004601509147010E94423220911801309190
:100F5000190140911A0150911B010E94D72F6093F3
:100F6000B3077093B4078093B5079093B607409288
:100F70001B0850921C0860921D0870921E08209158
:100F80000C0130910D0140910E0150910F01C701EC
:100F9000B6010E94423220912C0130912D014091E6
:100FA0002E0150912F010E9442322A853B854C85AB
:100FB0005D850E94D72F60931F087093200880934F
:100FC0002108909322088092230890922408A092EE
:100FD0002508B0922608809131088823E1F18330FA
:100FE00009F450C2082E000C990B37C080E0B6CC33
:100FF00080E0BDCC80E0C4CC18861F8219CDC7012B
:10100000B6010E94283183CE6091B7077091B8076E
:101010008091B9079091BA07CFD781118DCE609199
:10102000B7077091B8078091B9079091BA0720E08F
:1010300030E040E85FE40E9442316093B70770936C
:10104000B8078093B9079093BA077ECEC701B6015F
:101050000E94BF3096CE82E090E08093310869E034
:1010600070E080E090E07CD98C019093F60780934B
:10107000F5072091B3073091B4074091B50750911F
:10108000B607609158027091590280915A0290916E
:101090005B020E9442326B017C0120E030E04FE7AE
:1010A00053E40E944E3018160CF416C5C092B707D0
:1010B000D092B807E092B907F092BA0720E030E08A
:1010C000A9016091B7077091B8078091B907909115
:1010D000BA070E943E3287FF08C01092B7071092ED
:1010E000B8071092B9071092BA074091B70750910C
:1010F000B8076091B9077091BA07C801FAD8609132
:101100005C0270915D0280915E0290915F02B6DB9D
:101110006B017C01C092B707D092B807E092B90783
:10112000F092BA0720E030E040E853E40E944E30ED
:1011300087FFE1C420E030E0A901C701B6010E94A9
:101140003E3287FDD6C4C701B6010E94BF30698711
:1011500069858BE0C7D8C090B707D090B807E090FA
:10116000B907F090BA0720E030E040E853E4C70147
:10117000B6010E944E3087FFC3C420E030E0A901D1
:10118000C701B6010E943E3287FDB8C4C701B6014F
:101190000E94BF30698769858CE0A4D860916002A5
:1011A00070916102809162029091630267DB6B0132
:1011B0007C01C092B707D092B807E092B907F092CD
:1011C000BA0720E030E040E853E40E944E3087FF49
:1011D0009CC420E030E0A901C701B6010E943E3264
:1011E00087FD91C4C701B6010E94BF306987698538
:1011F00088E078D88091B3079091B407A091B507A3
:10120000B091B6078093F7079093F807A093F9077A
:10121000B093FA07C090FB07D090FC07E090FD0761
:10122000F090FE074090FF07509000086090010882
:101230007090020820911002309111024091120228
:1012400050911302C701B6010E9442324B015C016A
:10125000209114023091150240911602509117020C
:10126000C301B2010E9442329B01AC01C501B4012D
:101270000E94D72F4B015C01209120023091210266
:1012800040912202509123026E857F858889998939
:101290000E9442326A877B878C879D872091240237
:1012A0003091250240912602509127026A897B895C
:1012B0008C899D890E9442329B01AC016A857B85A5
:1012C0008C859D850E94D72F9B01AC01C501B4017F
:1012D0000E94D72F4B015C01209108023091090236
:1012E00040910A0250910B02C701B6010E9442329E
:1012F0006B017C0120910C0230910D0240910E0295
:1013000050910F02C301B2010E9442329B01AC0115
:10131000C701B6010E94D72F6B017C0120911802F2
:101320003091190240911A0250911B026E857F85FF
:10133000888999890E9442322B013C0120911C022C
:1013400030911D0240911E0250911F026A897B89D3
:101350008C899D890E9442329B01AC01C301B2017C
:101360000E94D72F9B01AC01C701B6010E94D72F65
:101370006093FB077093FC078093FD079093FE0733
:101380008092FF0790920008A0920108B092020894
:10139000C090AD03D090AE03E090AF03F090B003E7
:1013A0003FEFC31AD30AE30AF30AC092AD03D09207
:1013B000AE03E092AF03F092B003C114D104E10494
:1013C000F10499F48091B1039091B203A091B30319
:1013D000B091B4030196A11DB11D8093B103909308
:1013E000B203A093B303B093B4038090B50390907D
:1013F000B603A090B703B090B8036091B1037091A9
:10140000B2038091B3039091B4030E94EB30A50125
:1014100094010E94423220E030E040E85FE40E9404
:1014200042322B013C01C701B6010E94EB30A501FD
:1014300094010E9442329B01AC01C301B2010E949F
:10144000D72F6093A9037093AA038093AB03909363
:10145000AC03A1960FB6F894DEBF0FBECDBFDF91EF
:10146000CF911F910F91FF90EF90DF90CF90BF90A1
:10147000AF909F908F907F906F905F904F903F9034
:101480002F90089581E090E0E8CDC0901708D090AB
:101490001808E0901908F0901A0880904C0190907C
:1014A0004D01A0904E01B0904F01A5019401C701DC
:1014B000B6010E943E3218160CF08EC08092B3071F
:1014C0009092B407A092B507B092B6072091A707F3
:1014D0003091A8074091A9075091AA076091AF07E2
:1014E0007091B0078091B1079091B2070E94D62FFA
:1014F000209154013091550140915601509157016E
:101500000E944232209158013091590140915A0174
:1015100050915B010E9442322091AB073091AC07A1
:101520004091AD075091AE070E94D72F20915C01EA
:1015300030915D0140915E0150915F010E94423205
:101540006093B7077093B8078093B9079093BA0771
:1015500078D5882309F459C08091430890914408B4
:10156000A0914508B09146088093B7079093B807BB
:10157000A093B907B093BA072091B7073091B80785
:101580004091B9075091BA07609160017091610173
:1015900080916201909163010E9442322091640126
:1015A0003091650140916601509167010E94D72FEB
:1015B00060931708709318088093190890931A087D
:1015C00080913008882309F448C0833009F44AC068
:1015D000082E000C990B43C080905001909051014F
:1015E000A0905201B0905301A5019401C701B6012A
:1015F0000E944E3087FD62CFC092B307D092B407ED
:10160000E092B507F092B60761CFC090B707D090CF
:10161000B807E090B907F090BA0720E030E0A901E0
:10162000C701B6010E944E3087FF05C080E090E000
:10163000A0E8BFEB99CF20E030E0A901C701B601D7
:101640000E943E32181624F080E090E0DC018CCF3E
:1016500080E090E0A0E8BFE387CF82E090E0809355
:101660003008FDCC81E090E0FACF2091A7073091BF
:10167000A8074091A9075091AA076091AF07709100
:10168000B0078091B1079091B2070E94D62F2091A8
:1016900068013091690140916A0150916B010E948B
:1016A00042326B017C018090030890900408A09066
:1016B0000508B09006082091D4013091D5014091E1
:1016C000D6015091D701C501B4010E9442322B01CD
:1016D0003C0158ED252E51E0352E0BEB12E0E3ECEA
:1016E000F2E0E017F10709F04EC12091E8013091D6
:1016F000E9014091EA015091EB01C701B6010E9456
:101700004232A30192010E94D72F2091F001309123
:10171000F1014091F2015091F3010E944232209177
:1017200018013091190140911A0150911B010E943A
:10173000D72F6093B3077093B4078093B507909346
:10174000B60720916C0130916D0140916E0150916E
:101750006F01C501B4010E9442322B013C0130E708
:10176000232E31E0332E01EB12E0E9EBF2E0E0173B
:10177000F10709F027C12091C0013091C1014091CA
:10178000C2015091C301C701B6010E944232A301B8
:1017900092010E94D72F6E8B7F8B888F998F20911B
:1017A0000708309108084091090850910A08609193
:1017B00080017091810180918201909183010E944A
:1017C00042322B013C012091C4013091C50140916E
:1017D000C6015091C701C701B6010E9442329B0168
:1017E000AC01C301B2010E94D72F6A8F7B8F8C8F0F
:1017F0009D8F209184013091850140918601509107
:101800008701C501B4010E9442322B013C0128E846
:1018100031E03B872A87B7EA2B2EB2E03B2E0FEA56
:1018200012E00215130509F0ECC02091C8013091B7
:10183000C9014091CA015091CB01C701B6010E9474
:101840004232A30192010E94D72F6E8F7F8F88A30F
:1018500099A3209198013091990140919A0150915A
:101860009B01C501B4010E9442322B013C01ECE90D
:10187000F1E0FB87EA875DE9252E52E0352E05EA87
:1018800012E00215130509F0DDC02091CC01309162
:10189000CD014091CE015091CF01C701B6010E9408
:1018A0004232A30192010E94D72F2B013C012091CB
:1018B000AC013091AD014091AE015091AF01C50135
:1018C000B4010E9442324B015C01E0EBF1E0FB8786
:1018D000EA8733E9232E32E0332E0BE912E00215BA
:1018E000130509F0D0C02091D0013091D101409171
:1018F000D2015091D301C701B6010E944232A50125
:1019000094010E94D72F2E893F89488D598D2093AD
:1019100003083093040840930508509306082A8D65
:101920003B8D4C8D5D8D20930708309308084093C4
:10193000090850930A082E8D3F8D48A159A1209384
:101940000B0830930C0840930D0850930E084092FA
:101950000F0850921008609211087092120860935C
:1019600013087093140880931508909316088091BB
:101970002F08882309F4A8C0833009F4AAC0082ED0
:10198000000C990BA3C0D1016D917D918D919D911A
:101990001D01D801ED91FD918D01EE0FFF1FEE0F9E
:1019A000FF1FED5FF74F20813181428153810E94FB
:1019B00042329B01AC01C301B2010E94D72F2B011F
:1019C0003C018DCED1016D917D918D919D911D0137
:1019D000D801ED91FD918D01EE0FFF1FEE0FFF1F5E
:1019E000ED5FF74F20813181428153810E94423265
:1019F0009B01AC01C301B2010E94D72F2B013C0116
:101A0000B4CEAA85BB856D917D918D919D91BB874B
:101A1000AA87D101ED91FD911D01EE0FFF1FEE0F81
:101A2000FF1FED5FF74F20813181428153810E947A
:101A300042329B01AC01C301B2010E94D72F2B019E
:101A40003C01EFCEAA85BB856D917D918D919D91D5
:101A5000BB87AA87D101ED91FD911D01EE0FFF1FFC
:101A6000EE0FFF1FED5FF74F2081318142815381DF
:101A70000E9442329B01AC01C301B2010E94D72FE8
:101A80002B013C01FECEAA85BB856D917D918D9188
:101A90009D91BB87AA87D101ED91FD911D01EE0FAC
:101AA000FF1FEE0FFF1FED5FF74F20813181428155
:101AB00053810E9442329B01AC01C501B4010E94D6
:101AC000D72F4B015C010BCF82E090E080932F0871
:101AD000C6CA81E090E0FACF80E090E0AFE7B3E4DF
:101AE0008093B7079093B807A093B907B093BA074C
:101AF000E5CA19862DCB8FEF89872ACB19864BCB68
:101B00008FEF898748CB198672CB8FEF89876FCB90
:101B10004F925F926F927F928F929F92AF92BF92FD
:101B2000DF92EF92FF920F931F93CF93DF9384E0A6
:101B300090E00BD2E3E9F3E08BE2DF011D928A959E
:101B4000E9F780E090E0A0E8BFEB86A397A3A0A709
:101B5000B1A78AE097EDA3E2BBE382A393A3A4A37A
:101B6000B5A380E99EE6A7E4B0E484839583A683C9
:101B7000B78389ED95E2A9E1BBE480879187A287CD
:101B8000B38781E193E1A9E1B2EA84879587A687CB
:101B9000B7878BEB92E8A0EBB4E1808B918BA28BA3
:101BA000B38BA7E8B3E0B383A283E5E7F3E0119634
:101BB000FC93EE9380E992E0918380839383828308
:101BC0009583848397838683918780879387828791
:101BD00081E398E0958784878FE298E097878687EE
:101BE00080E398E0918B808B87EA93E015969C9335
:101BF0008E93149787E993E013969C938E93129794
:101C000089EA93E017969C938E9316978FE9A82EF6
:101C100087E0B82E84E2F50111928A95E9F7C3ECCA
:101C2000D7E084E7DE011D928A95E9F780E090E530
:101C3000A3ECB8E48C879D87AE87BF87DD24D3945F
:101C4000D092360894E0892E91E0992EF401848D8B
:101C5000958DA68DB78D888B998BAA8BBB8B412CCC
:101C6000512C3201439449825A826B827C8250E02B
:101C700040E060E070E0CB010E9487009F838E838C
:101C800040EA56E861E070E0488759876A877B87B9
:101C90000E94AB00DD821CA6D09232084DA65EA643
:101CA0006FA678AAE12CF12C8701A801970169E0C1
:101CB00070E080E090E00E94F4019BAB8AABD9AA6F
:101CC0001CA2D09235084DA25EA26FA278A661E058
:101CD0008BE00E946A01D9A61C8ED09234084D8EEA
:101CE0005E8E6F8E78A261E08CE00E946A01D9A2BC
:101CF0001C8AD09233084D8A5E8A6F8A788E61E0A2
:101D000088E00E946A01D98E8091F4019091F501DA
:101D1000A091F601B091F7018CAB9DABAEABBFAB20
:101D20008091480290914902A0914A02B0914B02E1
:101D300088AF99AFAAAFBBAF8CAF9DAFAEAFBFAF0F
:101D4000F40184819581A681B78180931B089093CB
:101D50001C08A0931D08B0931E0884859585A68550
:101D6000B78580931F0890932008A0932108B09313
:101D7000220884AD95ADA6ADB7AD809323089093AE
:101D80002408A0932508B0932608809148019091DB
:101D90004901A0914A01B0914B018093170890939B
:101DA0001808A0931908B0931A088091EC0190913B
:101DB000ED01A091EE01B091EF01809303089093A3
:101DC0000408A0930508B093060880930708909331
:101DD0000808A0930908B0930A0880930B08909311
:101DE0000C08A0930D08B0930E0880930F089093F1
:101DF0001008A0931108B0931208809313089093D1
:101E00001408A0931508B09316088091540290917D
:101E10005502A0915602B0915702F501848B958B23
:101E2000A68BB78BDF91CF911F910F91FF90EF9011
:101E3000DF90BF90AF909F908F907F906F905F905A
:101E40004F9008958091C307811119C081E080935C
:101E5000C3078091C4079091C507A091C607B091B0
:101E6000C7070197A105B10551F48091C8078823E0
:101E700031F08091C9079091CA070E946901809151
:101E8000EF0781112EC081E08093EF078091F0076A
:101E90009091F107A091F207B091F3070197A10586
:101EA000B105F9F48091F4078823D9F069E070E076
:101EB00080E090E00E94B0019093F6078093F507D0
:101EC00040E050E0BA010E94790169E070E080E0F2
:101ED00090E00E94B0019093F6078093F5070E946E
:101EE00045028091E707811103C081E08093E707F5
:101EF0008091DF07811103C081E08093DF0780912B
:101F0000D707811103C081E08093D707089560E06F
:101F100070E080E89FE7089560E070E080E89FE768
:101F2000089560E070E080E89FEF089560E070E061
:101F300080E89FEF089560E070E080EC9FEF0895E7
:101F400060E070E080EC9FEF0895F5DF6093430858
:101F5000709344088093450890934608F1DF60939E
:101F60003708709338088093390890933A08CFDF88
:101F700060933F0870934008809341089093420813
:101F8000CBDF60933B0870933C0880933D089093AF
:101F90003E08C7DF6093470870934808809349085C
:101FA00090934A08C3DF60934B0870934C0880936A
:101FB0004D0890934E080895CF92DF92EF92FF92D2
:101FC000CF936B017C01AC019B0160913F08709144
:101FD000400880914108909142080E944E30C1E033
:101FE000882371F0A7019601609147087091480815
:101FF0008091490890914A080E944E308111C0E0BA
:102000008C2FCF91FF90EF90DF90CF9008950F939A
:102010001F938B019C010027112720783F77011522
:10202000110520483F4749F4AB01BC016F77772782
:1020300081E0452B462B472B09F480E01F910F913F
:102040000895E5CF4F925F926F927F928F929F9209
:10205000AF92BF92CF92DF92EF92FF920F931F93B6
:10206000F8944090CA035090CB036090CC037090DA
:10207000CD03C090BE03D090BF03E090C003F090AA
:10208000C103452B09F0A4C09B01AC0124193509FB
:102090004609570929013A010091C6031091C70367
:1020A0002091C8033091C90348015901840C951C43
:1020B000A61CB71C80169106A206B306A0F40091D8
:1020C000C2031091C3032091C4033091C5030F5F75
:1020D0001F4F2F4F3F4F0093C2031093C303209312
:1020E000C4033093C5038092C6039092C703A092A5
:1020F000C803B092C9030091C2031091C303209199
:10210000C4033091C5038092CE039092CF03A09276
:10211000D003B092D1030093D2031093D303209342
:10212000D4033093D5036093CA037093CB03809399
:10213000CC039093CD03A4ECB9E0A30192010E94DB
:10214000823B6C0D7D1D8E1D9F1D6093BE037093A1
:10215000BF038093C0039093C10300916702109165
:1021600068022091690230916A020F3F1F4F2F4F82
:102170003F4FF1F0009167021091680220916902CF
:1021800030916A020E3F1F4F2F4F3F4F89F0C09092
:102190006702D0906802E0906902F0906A0221E044
:1021A0008C149D04AE04BF0408F420E02093DA03ED
:1021B00078941F910F91FF90EF90DF90CF90BF9098
:1021C000AF909F908F907F906F905F904F90089509
:1021D0004B015C0184189508A608B708A301920179
:1021E000261B370B480B590B64157505860597059B
:1021F000D0F082169306A406B50640F420E030E045
:10220000A90181149104A104B10491F4A4ECB9E0F2
:102210000E94823BA7019601261B370B480B590BE6
:10222000CA01B901C5CF82169306A406B50670F798
:10223000A4ECB9E0A50194010E94823B6C0D7D1DC8
:102240008E1D9F1DB5CFFECECF93DF9300D000D063
:10225000CDB7DEB71C821B821A8219821092D60378
:102260001092D7031092D8031092D903BE016F5F6A
:102270007F4FCE0103960E94102E69817A818B8157
:102280009C810E940027009761F4BE016F5F7F4F21
:10229000CE0103960E941C2E69817A818B819C81DC
:1022A0002CD50F900F900F900F90DF91CF91089544
:1022B000FF920F931F93CF93DF93082F60E070E09E
:1022C000CB010E941138FF24F3940E94EB25EC010E
:1022D000892B89F010E0CE3F8FEFD80769F00023FB
:1022E00061F160E070E0CB010E94113881E090E084
:1022F000892B59F322C011E023D5EC01892B21F061
:10230000CE3F8FEFD80759F711111EC011E022966A
:1023100009F410E00E949C25EC01892B21F0CE3FAE
:102320008FEFD807E1F6111111C011E0CE3F8FEF0A
:10233000D80709F410E001110BC0CE01DF91CF9155
:102340001F910F91FF90089511E0E4CF11E0F3CFBA
:1023500060E070E0CB010E9411381F25812F90E0D2
:10236000C7CFCF93DF938091DA03882321F060E019
:1023700070E0CB014CD635D6D0E0C0E0892B71F0AF
:102380006AE070E080E090E00E94113881E090DF28
:1023900028D62196C03D27E0D20781F727D60E9494
:1023A00054271092F2031092F1031092EB03109253
:1023B000EC031092ED031092EE031092E7031092DB
:1023C000E8031092E9031092EA031092E3031092DB
:1023D000E4031092E5031092E6031092DF031092DB
:1023E000E0031092E1031092E2031092DB031092DB
:1023F000DC031092DD031092DE034EEF5FEF6FEF10
:102400007FEF409367025093680260936902709374
:102410006A021092DA03EEECF3E028E0DF011D928D
:102420002A95E9F71092CA031092CB031092CC03BD
:102430001092CD031092C6031092C7031092C803E6
:102440001092C9031092C2031092C3031092C403E6
:102450001092C5031092BE031092BF031092C003E6
:102460001092C103DF91CF9108951092FE03109254
:10247000FF0310920004109201041092FD0380915A
:102480000604909107049093FC038093FB03109241
:10249000FA031092F9031092F5031092F6031092CA
:1024A000F7031092F803109203041092020490E0D4
:1024B00080E00895CF92DF92EF92FF920F931F93E7
:1024C000CF938C01892B09F055C0209106043091DF
:1024D00007048091FB039091FC0340910604509106
:1024E00007045093FC034093FB032817390781F03E
:1024F0001092FA031092F9031092F5031092F6036A
:102500001092F7031092F803109203041092020441
:102510008091060490910704019761F5809102046F
:1025200090910304892B21F480916B02811112C0D8
:1025300080910204909103040197E1F48091F503E6
:102540009091F603A091F703B091F8030197A105CC
:10255000B10581F41092F5031092F6031092F7037F
:102560001092F80310926B0282E090E090930304C3
:10257000809302048091060490910704019709F06A
:102580001CC180911C0490911D048017910709F0D3
:1025900014C18091180490911904A0911A04B0916B
:1025A0001B04009709F409C12091170421110DC0E3
:1025B000409118045091190460911A0470911B0401
:1025C000452B462B472B09F4F8C02091020430918B
:1025D00003042230310509F0F0C02091F9032111E4
:1025E000ECC0FC01C080D180E280F3808091FD03CB
:1025F000882309F4D3C08091090490910A04892B9F
:1026000009F4FDC02091090430910A0481E02230D0
:10261000310509F080E02091090430910A04C1E0FD
:102620002130310549F02091090430910A04C1E0BC
:102630002230310509F0C0E0882309F456C020910A
:102640001304309114044091150450911604C701ED
:10265000B6010E943E3287FD14C0209113043091D0
:10266000140440911504509116046091FE0370917A
:10267000FF0380910004909101040E944E3087FD79
:1026800022C02091130430911404409115045091FC
:102690001604C701B6010E943E32181634F5209187
:1026A0001304309114044091150450911604609164
:1026B000FE037091FF0380910004909101040E9439
:1026C0004E30811112C080910B0490910C04A091A6
:1026D0000D04B0910E04892B8A2B8B2B19F481E009
:1026E0008093FA0381E08093F903CC2309F456C068
:1026F0002091130430911404409115045091160454
:10270000C701B6010E944E3087FF14C02091130408
:102710003091140440911504509116046091FE0309
:102720007091FF0380910004909101040E943E3259
:1027300087FF22C0209113043091140440911504A6
:1027400050911604C701B6010E944E30811126C077
:1027500020911304309114044091150450911604F3
:102760006091FE037091FF03809100049091010439
:102770000E943E32181694F480910B0490910C0440
:10278000A0910D04B0910E04892B8A2B8B2B19F488
:1027900081E08093FA0381E08093F90381E09091D6
:1027A000F903911180E08093FD03C092FE03D09263
:1027B000FF03E0920004F0920104012B09F067C1CD
:1027C0008091020490910304892BD9F4109208049B
:1027D0001092F90380916B02882379F082E090E0F7
:1027E000909303048093020410926B0220910604DC
:1027F0003091070481E0232BE9F080E01BC081E0E9
:102800000ACF10926B0280910804882349F010923D
:10281000FA03109203041092020410920804EDCF00
:102820008091060490910704892BE1F08091F903CF
:102830001092F903209102043091030422303105F3
:1028400009F45EC088F42115310509F448C021302F
:10285000310509F4F3C01092FA031092F9031092B3
:10286000080438C081E0E6CF2330310509F4B1C057
:102870002430310581F74091F5035091F6036091C2
:10288000F7037091F803411551056105710561F079
:1028900041505109610971094093F5035093F603C2
:1028A0006093F7037093F8034091F5035091F6039A
:1028B0006091F7037091F803452B462B472BD9F411
:1028C00020910404309105042130310509F046C0FF
:1028D0001092FA0310920304109202040CC080912B
:1028E0006B02882341F082E090E090930304809390
:1028F000020410926B021092F3038091FA03CEC08F
:102900008823C9F380910B0490910C04A0910D04CD
:10291000B0910E04181619061A061B060CF07DC09D
:102920008091060490910704019709F076C0809188
:102930000B0490910C04A0910D04B0910E048093AF
:10294000F5039093F603A093F703B093F80383E0A5
:1029500090E09093030480930204CDCF40910F0444
:10296000509110046091110470911204452B462B74
:10297000472BA9F01092FA0380910F049091100454
:10298000A0911104B09112048093F5039093F60383
:10299000A093F703B093F80381E090E0DACF8823A7
:1029A00099F080916C0290916D02A0916E02B091AD
:1029B0006F028093F5039093F603A093F703B0930F
:1029C000F80384E090E0C5CF1092FA0382E090E033
:1029D000C0CF8091F5039091F603A091F703B091D9
:1029E000F8030097A105B10559F00197A109B109B4
:1029F0008093F5039093F603A093F703B093F80345
:102A00008091F5039091F603A091F703B091F8033C
:102A1000892B8A2B8B2B09F06ECF80916C029091C1
:102A20006D02A0916E02B0916F02892B8A2B8B2BC5
:102A300009F44ECF81E08093FA03B3CF4091F503C0
:102A40005091F6036091F7037091F8034115510519
:102A50006105710561F041505109610971094093A7
:102A6000F5035093F6036093F7037093F8034091D6
:102A7000F5035091F6036091F7037091F803452B2D
:102A8000462B472B09F037CF8111C7CF9FCF8091BD
:102A9000F303882309F431CF8091F403CF911F9180
:102AA0000F91FF90EF90DF90CF9008951092FE036A
:102AB0001092FF0310920004109201041092FD0383
:102AC00010920304109202041092FC031092FB0374
:102AD00010921D0410921C041092FA031092F90334
:102AE0001092F5031092F6031092F7031092F80378
:102AF0001092F4031092F303109218041092190428
:102B000010921A0410921B041092170410921304CE
:102B100010921404109215041092160488EE93E09B
:102B2000A0E0B0E080936C0290936D02A0936E02DF
:102B3000B0936F0210920F041092100410921104BF
:102B40001092120410920B0410920C0410920D04B7
:102B500010920E0410920A041092090481E08093EE
:102B60006B0210920804109207041092060410924F
:102B700005041092040490E080E00895809106041A
:102B800090910704892B19F580916B02882351F0ED
:102B900080910804811106C081E08093F403809342
:102BA000F30308952091080430916B0281E090E0D6
:102BB000332311F090E080E030E082239323892BCF
:102BC00021F01092F40381E0EACF1092F30308950C
:102BD00082E090E0FA01918380838FEF9FEF089568
:102BE000CF93DF93EA01009711F00E9474281982B5
:102BF000188290E080E0DF91CF910895DB0100978B
:102C000019F48FEF8C9308952EEF2C930F968F303D
:102C1000910508F033C0FC01E05FF94E0C946D3B68
:102C20003C163A16381636163416301632162E164C
:102C30002C162A16271623161F1625163E1680E375
:102C400011968C93089589E2FBCF82E2F9CF119619
:102C50001C92089583E2F4CF81E2F2CF81E1F0CFBC
:102C600087E2EECF8AE2ECCF80E1EACF84E2E8CFE0
:102C700088E2E6CF86E2E4CF81E3E2CF80E2E0CFF4
:102C800080912A0490912B04089590932B048093B3
:102C90002A04089580912904089590912904892B8C
:102CA000809329040895982F909580912904892371
:102CB0008093290408958091280408958091260422
:102CC0009091270408956115710559F0FB0130E0DA
:102CD00020E070E060E02417350719F061157105F8
:102CE00011F0CB010895A081B181A817B90709F4AB
:102CF000BF012F5F3F4F3696EECF80912C0481119C
:102D00001CC062D268D290931F0480931E040E945C
:102D100084200E94962090932304809322040E9492
:102D200006250E940D25909321048093200481E0C4
:102D300080932C0490E080E0089584EF9FEF089545
:102D40008F929F92AF92BF92CF92DF92EF92FF92BB
:102D50000F931F93CF93DF93CDB7DEB72A970FB6AC
:102D6000F894DEBF0FBECDBF1A86198618861F8263
:102D70001E821D821C821B821A82198280912C0461
:102D800007EF1FEF882309F49CC08E010D5F1F4FD2
:102D90009E012B5F3F4FAE01495F5F4FBE01675FF2
:102DA0007F4F90E080E00E9486268C01009721F002
:102DB0000596029708F0DBC029853A852115310573
:102DC00009F402C1ED80FE804B815C81B701640F84
:102DD000751F8F8198858617970708F4F5C0E20E56
:102DE000F31ED7019C91903C09F07FC04230510501
:102DF00008F47BC011968C9140912A0450912B04C9
:102E0000452B09F49CC0913F08F071C02CE1290FBB
:102E10002D3008F48BC02DE2290F203108F489C031
:102E2000903C21F48150823008F483C088E3890FFC
:102E30008B3008F481C09EEFC92E95E1D92EE8EEC3
:102E4000F5E16D817E81AE014F5F5F4F89859A8587
:102E500009955C01C114D104A1F189809A80811483
:102E6000910479F18B819C818815990508F487C0BC
:102E700010E000E04B815C8170E060E0C7010E94DF
:102E8000953B01151105E9F449815A8169857A85D7
:102E90008D819E81680F791FC501F6010995E98032
:102EA000FA800D811E812F81388549855A856FEF03
:102EB0007FEF81E090E00E9422268C01892B09F0AF
:102EC00056C0C8012A960FB6F894DEBF0FBECDBF1C
:102ED000DF91CF911F910F91FF90EF90DF90CF90F6
:102EE000BF90AF909F908F90089580E085CF30E0A5
:102EF00020E0220F331FF901E25EFB4F0190F081C9
:102F0000E02D309709F497CF892F90E0099500972D
:102F100009F491CFDC011296ED91FC911397149670
:102F2000CD90DC90309709F08CCF1FC021E030E0CD
:102F3000E0CF22E030E0DDCF23E030E0DACFD12C6B
:102F4000C12CE0EFF5E19F3F09F07BCFE0911E043B
:102F5000F0911F04309721F4C90104EF1FEF0CC05A
:102F60008FEF90E009950097A9F604EF1FEF898590
:102F70009A85009709F4A5CF0E947428A2CF0E94D9
:102F80004F278C0189859A850E94742870E060E043
:102F9000C4010E94E82698878F830E941F269E8383
:102FA0008D836F8178856115710559F0C8010E9484
:102FB000002A9A87898706EF1FEF892B09F058CFDF
:102FC00059CF08EF1FEF56CF08EF1FEFD0CF20915A
:102FD0002C04222319F020E00C949B2087EF9FEF14
:102FE000089580912A0490912B0408950E9412253F
:102FF0000E946C24F5D0EEE1F4E088E0DF011D9240
:103000008A95E9F710922C0490E080E008950C94E2
:10301000C92221E040E050E0BA010C949B2086E0F8
:1030200090E0FA019183808390E080E0089547E08A
:1030300050E065EC72E047CEDF92EF92FF920F9383
:103040001F93CF93DF938A01EC01C60FD71FE09047
:103050003004F0903104D9800E943727D816190621
:1030600078F082E090E0F801918380838EEF9FEF0B
:10307000DF91CF911F910F91FF90EF90DF90089516
:10308000EF2841F482E090E0F8019183808384EF9F
:103090009FEFEECF898180932F0490E00196F80195
:1030A0009183808390E080E0E3CFCF93DF93EA01C8
:1030B0000E947A23882321F00E9444270E947B23C8
:1030C00082E090E0998388838BEF9FEFDF91CF912F
:1030D0000895CF93DF93EB0186E0FB0111928A956F
:1030E000E9F78FEF8883D6DD8983E5DD8A83E6DD26
:1030F0009D838C83DF91CF910895CF93DF93EA0175
:103100000E947D23811109C082E090E09983888329
:1031100085EF9FEFDF91CF91089590E080E0B5DDDE
:1031200081E090E09983888390E080E0F3CF0F9373
:103130001F93CF93DF93EA018C01060F171F0E94A4
:103140007D2381110BC082E090E09983888385EF15
:103150009FEFDF91CF911F910F910895F801818129
:10316000823038F082E090E0998388838EEF9FEF81
:10317000F0CF81E090E089DD88E090E0998388835A
:1031800090E080E0E6CFCF93DF930097D1F4EB019E
:10319000FB01329686E0DF011D928A95E9F78FEFF9
:1031A000888385E089831A820E9437278B830E9457
:1031B00036279D838C8381E08E838F83DF91CF912F
:1031C0000895DF91CF911ACD87E198E190932E0475
:1031D00080932D04089580912D0490912E040895DC
:1031E00010922E0410922D04089580913004909135
:1031F00031040895411105C06115710581059105DE
:1032000061F06093300470933104809332049093A2
:1032100033044093340481E0089580E00895FF92E0
:103220000F931F93CF93DF938A01EC01C60FD71F33
:10323000F9800E943727F816190668F082E090E0BE
:10324000F801918380838EEF9FEFDF91CF911F91E3
:103250000F91FF9008956C817D818E819F814B81BC
:10326000C9DF811108C082E090E0F801918380837A
:1032700084EF9FEFEACF898180932F0490E001963D
:10328000F8019183808390E080E0DFCFCF93DF93DC
:10329000EA01FC01E60FF71F648175818681978141
:1032A0004381A8DF811109C082E090E0998388837F
:1032B00084EF9FEFDF91CF91089581E090E09983B3
:1032C000888390E080E0F6CFE0E3F4E04081518134
:1032D00062817381480F511D611D711D40835183AF
:1032E000628373830895CF93C0912F044C2F50E0D5
:1032F000609130047091310401960E948C3B8C2FB8
:10330000E3DF10922F04CF910895009799F48091F4
:103310003004909131042FEFFB012083892B59F069
:1033200020912F0430E02F5F3F4F2417350719F409
:10333000CB01D9CF63CC0895009799F480913004E4
:10334000909131042FEFFB012083892B59F02091BC
:103350002F0430E02F5F3F4F2417350719F4CB01BE
:10336000C2CF4CCC089523E1AC01249FC001259F1E
:10337000900D1124E0913904F0913A04E80FF91FFF
:10338000238134812250310981E02230310508F057
:1033900080E008950F931F93CF93DF9300913B0438
:1033A00010913C04D0E0C0E080E00C171D0749F408
:1033B00091E0811190E0892FDF91CF911F910F91C2
:1033C00008958111F5CFCE01CEDF2196EECFA091E9
:1033D0003904B0913A04109729F120913B043091BF
:1033E0003C0482179307F0F453E1589F9001599FD2
:1033F000300D1124A20FB31FED91FC91119730975E
:1034000089F012968C91681768F48BE0689FE00D44
:10341000F11D112480819181892B21F081E092811D
:10342000491708F080E008959C0143E1429FC001E4
:10343000439F900D1124E0913904F0913A04E80F74
:10344000F91F8385823091F481E090E06581768177
:1034500040917002509171026417750711F490E069
:1034600080E0892B19F081E0232B09F080E008959A
:10347000EF92FF920F931F93CF93DF93EA01FC012A
:10348000E60FF71F02811381E480F5804F2D6E2D2A
:10349000C8019DDF81110DC082E090E0998388838F
:1034A0008EEF9FEFDF91CF911F910F91FF90EF90E3
:1034B0000895C80158DF882339F082E090E09983AD
:1034C000888388EF9FEFEECF109377020093760208
:1034D000E0927802F092790281E090E0998388830B
:1034E00090E080E0DFCFCF92DF92EF92FF920F93D8
:1034F0001F93CF93DF937A01EC01C60FD71FC090C3
:103500007602D09077020091780210917902412FD3
:10351000602FC6015CDF811110C082E090E0F701EE
:10352000918380838AEF9FEFDF91CF911F910F915D
:10353000FF90EF90DF90CF900895C60114DF8823AD
:1035400041F082E090E0F7019183808388EF9FEF64
:10355000EBCF4C815D816E817F819A8189818F3F24
:1035600041F082E090E0F701918380838EEF9FEF3E
:10357000DBCFE3E1EC9D9001ED9D300D1124E09156
:103580003904F0913A04E20FF31F0190F081E02D2D
:103590002BE0029FE00DF11D11240190F081E02D40
:1035A00027E0129FE00DF11D1124808391838B8110
:1035B000828343835483658376831F5F10937902EC
:1035C00081E090E0F7019183808390E080E0ACCFD0
:1035D000EF92FF920F931F93CF93DF937A018C01A9
:1035E000060F171FC0913904D0913A04209781F03B
:1035F00021E030E0F8018281938140913B045091B9
:103600003C048417950710F030E020E0232B71F480
:1036100082E090E0F701918380838EEF9FEFDF914E
:10362000CF911F910F91FF90EF90089543E1489F34
:103630009001499F300D1124C20FD31F94DE8823BF
:1036400041F082E090E0F7019183808388EF9FEF63
:10365000E6CFF8012481358120383105C8F687810D
:103660008111D6CF4181842F90E08F7E009741F069
:1036700082E090E0F7019183808386EF9FEFCFCFC8
:103680004F833E832D83268128871986223010F4AC
:1036900021E0288721E030E0F70131832083BFCF8C
:1036A00088E090E0FA019183808390E080E00895C3
:1036B000FB018FEF808381E181838FEF9FEF938305
:1036C000828380E890E09583848316821782089530
:1036D000FB018FEF808391E09183828393838483C6
:1036E00084E3858381E090E0978386830895DF9269
:1036F000EF92FF920F931F93CF93DF93EA01FC01A8
:10370000E60FF71F8181813071F082E090E09983AC
:1037100088838FEF9FEFDF91CF911F910F91FF90E3
:10372000EF90DF90089582819381D4802581E68097
:10373000F7800091390410913A040115110539F40C
:1037400082E090E0998388838CEF9FEFE4CF4091F3
:103750003B0450913C048417950738F082E090E0D8
:10376000998388838EEF9FEFD6CF892B39F082E043
:1037700090E09983888386EF9FEFCDCF8D2D8D7F4D
:10378000B1F72130A1F781E0D11006C091E0E91630
:10379000F10431F080E004C0E2E0EE16F104D0F371
:1037A000882329F390E080E0DEDD882339F082E091
:1037B00090E09983888388EF9FEFADCFF801D3869F
:1037C00081E08487F686E586108A178681E090E09E
:1037D0009983888390E080E09ECF4CE050E06FEECC
:1037E00072E071CA8F929F92BF92CF92DF92EF9256
:1037F000FF920F931F93CF93DF93EA01FC01E60F33
:10380000F71F828193810481B580E0913904F091A2
:103810003A04309791F482E090E0998388838CEFAA
:103820009FEFDF91CF911F910F91FF90EF90DF906D
:10383000CF90BF909F908F90089520913B0430913E
:103840003C048217930738F082E090E099838883E4
:103850008EEF9FEFE6CF23E1289F6001299FD00CD8
:103860001124EC0DFD1DE080F180E114F10499F2CA
:103870008281081748F78BE0089F80011124E00E31
:10388000F11EF70180819181892B29F6BB20E1F29D
:10389000F7E0BF9E40011124C4010E943B28F701BC
:1038A00091838083E0913904F0913A04EC0DFD1D81
:1038B0000190F081E02DE00FF11F80819181009750
:1038C00039F482E090E0998388838DEF9FEFA9CF50
:1038D000A40170E060E00E94953B809139049091D2
:1038E0003A04C80ED91EF60180819181080F191F74
:1038F000F801B28281E090E09983888390E080E0D3
:1039000090CFAF92BF92CF92DF92FF920F931F930F
:10391000CF93DF93EA01FC01E60FF71F82819381C9
:10392000F4800091390410913A040115110581F4D5
:1039300082E090E0998388838CEF9FEFDF91CF91B5
:103940001F910F91FF90DF90CF90BF90AF9008959F
:1039500020913B0430913C048217930738F082E0B9
:1039600090E0998388838EEF9FEFE8CF2FEF2F0DA4
:103970002C3FA8F723E1289F6001299FD00C112438
:103980000C0D1D1DF80180819181892B89F6FBE0CA
:10399000FF9E50011124C5010E943B28F80191832C
:1039A0008083E0913904F0913A04EC0DFD1D808193
:1039B0009181009739F482E090E0998388838DEFBC
:1039C0009FEFBCCFA50170E060E00E94953BE091C5
:1039D0003904F0913A04EC0DFD1DF28281E090E093
:1039E0009983888390E080E0A9CFCF92DF92EF9215
:1039F000FF920F931F93CF93DF93860F971FFC01C6
:103A0000028113818091390490913A04892B81F0CD
:103A100082E090E0FA01918380838CEF9FEFDF9149
:103A2000CF911F910F91FF90EF90DF90CF9008956D
:103A3000C801B0E0A0E00197A109B1098F3F9F4FF5
:103A4000A105B10540F082E090E0FA019183808306
:103A50008EEF9FEFE4CF7A0183E1809F6001819F29
:103A6000D00C1124C6010E943B28EC01009741F4C0
:103A700082E090E0F701918380838DEF9FEFCFCFBD
:103A8000A60170E060E00E94953BD0933A04C09399
:103A9000390410933C0400933B0490E080E02FEF46
:103AA0003FEF41E061E070E08017910741F481E071
:103AB00090E0F7019183808390E080E0B0CF3A8B73
:103AC000298B1B864C877E876D87188A1F860196F7
:103AD0006396EACFCF92DF92EF92FF920F931F93FC
:103AE000CF93DF93EC01D12CC12C10E000E0F12C3E
:103AF000E12C6A8170E006171707BCF0660F771F8C
:103B0000AE014F5E5F4FC7010E94A028009721F0D1
:103B10002FEF3FEF3A8B298BDF91CF911F910F91C0
:103B2000FF90EF90DF90CF900895E881F981EC0D40
:103B3000FD1D438154818D859E85489F9001499F3D
:103B4000300D589F300D1124C90101960115110542
:103B500019F44F8144FD049661E070E00E94E8266C
:103B6000E816F90608F47C010F5F1F4F8BE0C80EC2
:103B7000D11CBFCFF894209137043091380481E0F4
:103B80002115310509F080E0232B09F07894089580
:103B90002F923F924F925F926F927F928F929F925D
:103BA000AF92BF92CF92DF92EF92FF920F931F934B
:103BB000CF93DF933C01660E771EF30182819381E0
:103BC0004C01B12CA12CC0913904D0913A0420971A
:103BD00069F021E030E060913B0470913C0486176D
:103BE000970710F030E020E0232BD1F482E090E042
:103BF000FA01918380838EEF9FEFDF91CF911F9128
:103C00000F91FF90EF90DF90CF90BF90AF909F907B
:103C10008F907F906F905F904F903F902F9008957E
:103C200080927A0290927B02A0927C02B0927D02F6
:103C300063E1689F9001699F300D1124C20FD31F6B
:103C4000F3018181833040F082E090E0FA019183BA
:103C5000808386EF9FEFD1CF2A012B813C81232BDC
:103C6000F1F4288139819F8191FF2EC0232B09F423
:103C70006FC020913E049A81422F490F5527551F4E
:103C8000BA0141E050E06138710514F050E040E0C5
:103C9000452B09F45DC02A87920F90933E04815012
:103CA000823008F481C066DF882309F4D8C0F301AC
:103CB0008181813009F48DC008F47BC0823009F421
:103CC000C6C090E080E0ADC0232B09F441C0209134
:103CD0003D049A81E22FE90FFF27FF1F41E050E0EA
:103CE000ED3FF10514F050E040E0452B89F12A87C3
:103CF000920F90933D04D3CFA081B181A20FB31F47
:103D000011966C91060F111D0196295F3F4F841784
:103D1000950794F38D859E85089F1001099F300CAF
:103D2000189F300C1124C114D104D1F48F8184FF69
:103D300017C00E943627F5E02F0E311C21E08215B6
:103D4000930508F420E0A701455F5F4F21110EC0E5
:103D500082E090E0F2019183808387EF9FEF4DCF67
:103D60000E9436272FEF221A320AE8CF88819981E4
:103D7000E80EF91EF70114830383FFEFCF1ADF0A61
:103D80007A018A818C151D0409F00CF48CCFE8812E
:103D9000F981EE0DFF1D428150E030E020E010E09F
:103DA00000E090E080E0B3CFF12CE12CD12CC12CCD
:103DB000E8CF81E090E09C838B83ECDA882309F4E0
:103DC00080CF81E090E00E94451680E40E94531667
:103DD00078CF89899A89019661F083E090E09C838D
:103DE0008B8382E090E00E94451680E40E944D168D
:103DF00068CF8D819E81209170023091710282176F
:103E00009307D1F46091740270917502AE014F5E18
:103E10005F4F80917202909173020E94BF290097B8
:103E2000E1F2789422E030E0F20131832083892BA3
:103E300099F08DEF9FEFE1CE89288A288B2869F6CB
:103E4000892B59F6CE0146DE188A1F86E8CF82E01C
:103E500090E09C838B8335CF90E080E0CECE82E0F3
:103E600090E0F2019183808385EF9FEFC6CE8F9221
:103E70009F92AF92BF92CF92DF92EF92FF920F93F9
:103E80001F93CF93DF93EA018C01060F171FF801F0
:103E90008181833098F082E090E09983888386EF77
:103EA0009FEFDF91CF911F910F91FF90EF90DF90E7
:103EB000CF90BF90AF909F908F90089580913904DC
:103EC00090913A04892B61F081E090E020913B04CD
:103ED00030913C04232B11F490E080E0892B39F4DD
:103EE00082E090E0998388838EEF9FEFDACF42DE05
:103EF000882309F4DFC0F8018181813009F495C07D
:103F0000E8F0823099F420913B0430913C04E09138
:103F10003904F0913A0490E080E041E050E0281745
:103F2000390709F0BDC036DA811117C0789481E0F5
:103F300090E09983888390E080E0B3CF20913B04A8
:103F400030913C04E0913904F0913A0490E080E033
:103F500041E050E02817390741F481E090E00E94E9
:103F6000451680E40E945316E1CF63817481672B6C
:103F700011F05483438301967396ECCFE09139049A
:103F8000F0913A04E00FF11F238134812230310592
:103F9000D9F4218932892F3F3F4FB1F425813681F1
:103FA00040917002509171022417350761F5AF01FD
:103FB0004F5E5F4F60917402709175028091720242
:103FC000909173020E94BF29EFEFCE1ADE0AEE0A2B
:103FD000FE0A0D5E1F4F40913B0450913C0470E07F
:103FE00060E0C416D506E606F7063CF5009731F208
:103FF0007894892B09F49BCF82E090E099838883A1
:104000008DEF9FEF4ECFC114D104E104F104E1F62E
:10401000232BD1F6CF015EDDE0913904F0913A0413
:10402000E00FF11F108A1786CFCF10E000E090E07C
:1040300080E0C12CD12C7601CECF0097C9F610E0DC
:1040400000E0812C912C540183E0E82EF12C1AC061
:10405000E0913904F0913A04E00FF11F83819481DB
:10406000029749F4F482E38282E090E00E944516D0
:1040700080E40E944D16FFEF8F1A9F0AAF0ABF0A15
:104080000D5E1F4F80913B0490913C04B0E0A0E096
:1040900088169906AA06BB06DCF290E080E0A8CF5D
:1040A000638174816230710511F4548343830196F6
:1040B000739635CF82E090E09983888385EF9FEFF8
:1040C000F0CE0097B9F48FEFFB01808320917A0244
:1040D00030917B0243E1429FC001439F900D112428
:1040E000E0913904F0913A04E80FF91F8285FB0151
:1040F000818308950C94FE1588E090E0FA01918385
:10410000808390E080E00895109238041092370484
:10411000E9E3F4E086E0DF011D928A95E9F78DEE90
:104120009BE1909336048093350408958091350483
:104130009091360408952F923F924F925F926F9222
:104140007F928F929F92AF92BF92CF92DF92EF9227
:10415000FF920F931F93CF93DF93CDB7DEB7609796
:104160000FB6F894DEBF0FBECDBFF894E0913704D0
:10417000F09138043196F0933804E0933704789442
:10418000A0913904B0913A04BA83A983109709F435
:10419000FAC1E0913B04F0913C04EF2B09F4F3C128
:1041A00028874B875C876D877E879A878987B88B3E
:1041B000AF87312C212CF12C512C412C80913B04C8
:1041C00090913C042816390610F4FF2029F1F89448
:1041D000809137049091380401979093380480932C
:1041E00037047894C20160960FB6F894DEBF0FBE14
:1041F000CDBFDF91CF911F910F91FF90EF90DF9096
:10420000CF90BF90AF909F908F907F906F905F9076
:104210004F903F902F900895B10190E080E087D4B7
:10422000682EEF85F889878181FD3DC08381948167
:104230000397C9F5258136813C832B8389859A852F
:104240002817390781F5C101EFD8782E8823A9F105
:10425000AF85B8891F968D919C915097019621E06A
:104260001D964D915C918417950709F020E02F83EE
:10427000B12CA12CEF85F88982818A151B0419F0D5
:1042800014F0FF20E9F0F885FF2309F46CC1AF8535
:10429000B88950961C921E921F97662021F0B1019A
:1042A00090E080E046D4FFEF2F1A3F0A2F8538892F
:1042B0002D5E3F4F388B2F8781CFB1E0BF83D8CFA2
:1042C000BED49E838D83E885EE23E9F0772009F440
:1042D0003CC1AF85B8891F968D919C91892B79F04F
:1042E000BBE0BA9DC001BB9D900D1124AF85B8897C
:1042F000ED91FC91E80FF91F85819681F5D6BFEF0E
:10430000AB1ABB0AB7CF81E0772039F0EF85F88987
:1043100027853089232B09F080E0F82EE12CA114A9
:10432000B10439F4AF85B8891796EC90E4FAEE241D
:10433000E0F8BBE0BA9D6001BB9DD00C112488233E
:1043400009F424C1AF85B889ED91FC911197EC0D6A
:10435000FD1D438154811D962D913C91429FC001CA
:10436000439F900D529F900D1124E1105DC0019666
:104370009087878361E070E08781908529D5EF85FC
:10438000F88921893289008111810C0D1D1D2F3F73
:10439000320709F44BC0BC01C9010E94002AD801B0
:1043A00016969C938E931597AF85B889ED91FC91E5
:1043B0001197EC0DFD1D058116810115110509F4FC
:1043C000CDC0ED81FE810E0F1F1F1A968C918A0DB4
:1043D000D8018C93E1102FC00F5F1F4FAF85B889B4
:1043E000ED91FC91EC0DFD1D12870187AF85B88919
:1043F000ED91FC91EC0DFD1D85819681892B09F4D1
:10440000A4C080917002909171022B813C81281789
:10441000390709F465C0772011F001851285912CC8
:10442000812C1A8219824AC00596A2CF24D6F8019F
:1044300096838583B9CF8B859C85AD85BE85F80134
:1044400081839283A383B4830B5F1F4FC7CFE08028
:10445000F180E80CF91CD70113966D917C911497AB
:104460008C918F3F09F473C0E1E0F0E002C0EE0FE1
:10447000FF1F8A95E2F7CF01092E000CAA0BBB0B98
:10448000FB01408151816281738184239523A6239E
:10449000B72321E0892B8A2B8B2B09F420E0D8014C
:1044A0002C93D70111968C91080F111DE981FA8187
:1044B0003196FA83E983F7E08F0E911CAF85B889B6
:1044C000ED91FC91EC0DFD1D828129813A818217CD
:1044D000130611F00CF0BBCF772011F01287018783
:1044E0003F81332391F1AF85B889ED91FC91EC0DBB
:1044F000FD1D61E070E0878190856AD4AF85B88941
:10450000ED91FC91EC0DFD1DE780F0844581568115
:10451000E1E0F0E0662011F0F0E0E0E00D811E81C6
:104520009C01B101882799278E1B9F0B8BD32C01EF
:10453000892B59F0EF85F88980819181C80ED91EA9
:10454000D60115968D919C91CFD5F12CD8CEF7013F
:10455000418150E0C8010E948C3BA3CF86EF482EDA
:1045600055245A94CCCEEF85F88987859089019699
:10457000908B8787258536858217930709F08DCE26
:10458000108A17868ACE512C412C21CE10E000E0F3
:104590002DCF2F923F924F925F926F927F928F9288
:1045A0009F92AF92BF92CF92DF92EF92FF920F93C2
:1045B0001F93CF93DF938091390490913A0410E0D8
:1045C00000E0892BA9F0D6DA0AEF1FEF882381F0EB
:1045D00020903B0430903C04C0913904D0913A04BF
:1045E000D12CC12C10E000E02C143D04A9F47894E7
:1045F000C801DF91CF911F910F91FF90EF90DF9055
:10460000CF90BF90AF909F908F907F906F905F9072
:104610004F903F902F900895C6010E94141A88234E
:1046200009F18B819C810397E9F48F859889892B07
:10463000C9F0B60190E080E07AD221E030E0882332
:1046400011F030E020E044245524421A530AB12CE2
:10465000A12C912C812C8A818815190409F038F439
:10466000188A1F864FEFC41AD40A6396BDCFE8811B
:10467000F981EA0DFB1D85819681892BA1F161E00D
:1046800070E087819085A4D33C01D9D28C01E88168
:10469000F981EA0DFB1D8185928525813681200FE8
:1046A000311FAC01421B530B9A0147815085421BBD
:1046B000530B70E060E00E94953BE881F981EA0DC0
:1046C000FB1DE780F084458156819301B601C2014C
:1046D000B9D28C01892B39F0E881F981EA0DFB1DF3
:1046E0008581968101D55FEF851A950A8BE0A80E2A
:1046F000B11CB1CF3FCA789408952F923F924F9248
:104700005F926F927F929F92AF92BF92CF92DF9211
:10471000EF92FF920F931F93CF93DF9300D000D0BF
:1047200000D0CDB7DEB70091390410913A04992436
:1047300093940115110509F43EC0A0903B04B0907C
:104740003C0418DA982E8823B1F110923A041092A2
:10475000390410923C0410923B0410923D041092D4
:104760003E048FEF9FEFDC0180937A0290937B02EF
:10477000A0937C02B0937D0278947AD31E830D833C
:10478000C12CD12C7601C501B0E0A0E089839A83C9
:10479000AB83BC8322242A94322C89819A81AB81F9
:1047A000BC81C816D906EA06FB06F4F0C8019CD401
:1047B00080E40E945316892D26960FB6F894DEBF2A
:1047C0000FBECDBFDF91CF911F910F91FF90EF9062
:1047D000DF90CF90BF90AF909F907F906F905F9051
:1047E0004F903F902F900895AD81BE8115968D9189
:1047F0009C91169720917002309171028217930755
:10480000D1F451968D919C91E9D5ED81FE81808105
:104810009181B12CA12C412C512C3201892B89F58D
:10482000BFEFCB1ADB0AEB0AFB0AED81FE81739620
:10483000FE83ED83B2CFC114D104E104F10429F762
:10484000892B19F7ED81FE81818992898F3F980725
:1048500009F024D5AD81BE8152963C922E9251979B
:10486000D4CF8A0D9B1DDC018D919C91009709F09E
:104870003BD4BFEF4B1A5B0A6B0A7B0AEBE0AE0E30
:10488000B11CAD81BE818D919C91119712964C9176
:1048900050E070E060E044165506660677060CF3BB
:1048A00023D4BECFCF93DF93EA0127DF811109C064
:1048B00082E090E09983888385EF9FEFDF91CF912D
:1048C000089581E090E00E94451681E090E0998390
:1048D000888390E080E0F2CF10DF109236041092CF
:1048E0003504089542E050E067E373E00C946316EA
:1048F000FF920F931F93CF93DF938A01EC01C60FB2
:10490000D71FF980B4D20897F816190671F068F02D
:1049100082E090E0F801918380838EEF9FEFDF913A
:10492000CF911F910F91FF9008956C817D818E81B1
:104930009F814B810E94FA18811108C082E090E0AB
:10494000F8019183808384EF9FEFE9CFF9800E9483
:10495000F5184F2D50E0BE01685F7F4F0E948C3BE1
:1049600089810E94641981E090E0F801918380833D
:1049700090E080E0D4CFDF92EF92FF920F931F93ED
:10498000CF93DF938A01EC01C60FD71F0E94F51861
:104990007C01D9806CD2DD2059F0029721E030E013
:1049A000D816190619F010F030E020E0232B79F426
:1049B00082E090E0F801918380838EEF9FEFDF919A
:1049C000CF911F910F91FF90EF90DF900895EF2806
:1049D00041F482E090E0F8019183808384EF9FEFBF
:1049E000EECFF9800E94F5184F2D50E0BE016E5FAA
:1049F0007F4F0E948C3B89810E94641981E090E086
:104A0000F8019183808390E080E0D9CF82E794E23F
:104A10009093400480933F04089580913F049091C7
:104A2000400408950895FC011182108293838283CB
:104A30000895DB011D921C92DC011296ED91FC9110
:104A400013977183608313967C936E9312970895E6
:104A5000FC0180819181DB018D939C93A081B181C8
:104A6000109741F08D919C9191838083892B11F453
:104A7000F383E2830895FC0180819181DB018D93B2
:104A80009C93892B11F473836283718360830895EF
:104A9000FC0111821082938382830895CF93DF9368
:104AA00000D0CDB7DEB71A821982F894BE016F5FCD
:104AB0007F4F86E494E0CCDF89819A81009709F0EA
:104AC00013D389819A81892B89F7BE016F5F7F4F4C
:104AD0008AE494E0BDDF89819A81009709F004D3CC
:104AE00089819A81892B89F778940F900F90DF91B3
:104AF000CF910895CF93DF9300D0CDB7DEB71A8260
:104B00001982F894BE016F5F7F4F82E494E0A0DFCA
:104B100089819A81009709F0E7D289819A81892B4E
:104B200089F778940F900F90DF91CF91089581E0ED
:104B3000089590E080E00895EF92FF920F931F9305
:104B4000CF93DF9300D0CDB7DEB71A821982809160
:104B5000410407EF1FEF8823A1F1F894BE016F5FB6
:104B60007F4F8AE494E074DF789489819A81EE24FF
:104B7000E394F12C892B51F4F894BE016F5F7F4FC1
:104B800086E494E065DF7894F12CE12C89819A81A8
:104B90000EEF1FEF0097A9F0FC014281538164E002
:104BA00070E072D68C01892B61F0F89469817A816A
:104BB000C701880F991F880F991F8A5B9B4F5BDF86
:104BC0007894C8010F900F90DF91CF911F910F91B2
:104BD000FF90EF9008950F931F93CF93DF9300D032
:104BE00000D0CDB7DEB71C821B821A821982809159
:104BF000410407EF1FEF8823C1F0AE014D5F5F4F07
:104C000064E070E0CE010196B2D68C01892B69F484
:104C1000E981FA818B819C8193838283F8946981F5
:104C20007A8182E494E005DF7894C8010F900F90B8
:104C30000F900F90DF91CF911F910F910895B7D7EB
:104C4000049608958F929F92AF92BF92CF92DF9277
:104C5000EF92FF920F931F93CF93DF9300D0CDB7C6
:104C6000DEB71A821982BC016F5F7F4F6330710516
:104C700098F0AA24AA94BA2CC5010F900F90DF9146
:104C8000CF911F910F91FF90EF90DF90CF90BF9049
:104C9000AF909F908F9008954115510551F34801B1
:104CA00059018A016C01CBDF8815990511F7E114D0
:104CB000F104F9F28E0D9F1DA816B906D0F280916D
:104CC00041048823F1F0F894B5016450710997010B
:104CD000AE014F5F5F4FC8010496DED65C01892BA1
:104CE00071F489819A81F80193838283C601880FC8
:104CF000991F880F991FB8018A5B9B4F9ADE7894A1
:104D0000BBCF87EFA82EBB24BA94B6CFAF92BF9289
:104D1000CF92DF92EF92FF920F931F93CF93DF9387
:104D200000D0CDB7DEB71A821982892B09F047C0AF
:104D30006115710509F443C04115510509F43FC0DF
:104D40002115310509F43BC001151105C1F1809110
:104D500041048823B9F179016A015B01F894BE012D
:104D60006F5F7F4F82E494E073DE789489819A814B
:104D7000009759F1DC0112966D917C91A80104967F
:104D8000A4D68C01E981FA81D501ED93FC9382814F
:104D900093810496F6019183808351DFD7018D932F
:104DA0009C93C8010F900F90DF91CF911F910F91AD
:104DB000FF90EF90DF90CF90BF90AF9008950FEFEE
:104DC0001FEFEFCF07EF1FEFECCF0EEF1FEFE9CF95
:104DD000CF93DF93EC01672B71F4F2D68C179D070C
:104DE00060F0E5D62496C80FD91FE4D68C0F9D1F1E
:104DF000DF91CF910895E1D6F1CF90E080E0F8CF38
:104E00000F931F93CF93DF932091410421112BC067
:104E10008B01EC0186E494E006DE8AE494E003DE94
:104E200082E494E000DE97D00097C1F4C9D670E028
:104E300060E0CEDF4EE752E062E070E081D10097A3
:104E400069F480917E0290917F02CCD6B801CE01A8
:104E500001D5009719F421E020934104DF91CF910F
:104E60001F910F91089584EF9FEFF8CFA6C6A8C6B3
:104E7000CF93DF93A8D6EC01892B11F40FDE3ADE35
:104E8000CE01DF91CF910895CF93DF939CD6EC01B3
:104E9000892B09F403DECE01DF91CF910895809133
:104EA0007E0290917F020895CF93DF938091410419
:104EB000D0E0C0E08823D1F09AD6EC01892BB1F480
:104EC000EDDD18DE80917E0290917F02E7D1E8D27D
:104ED000EC01892B59F486E494E0DADD8AE494E06D
:104EE000D7DD82E494E0D4DD10924104CE01DF915D
:104EF000CF910895EF92FF920F931F93CF93DF937B
:104F0000EC017A018B010F5F1F4F0E9DA0010F9DD9
:104F1000500D1E9D500D112470E060E00E94953BE5
:104F200090E080E0F0E0E0E02FEFE816F90639F4D9
:104F3000DF91CF911F910F91FF90EF9008951A820A
:104F400019822883309711F0D283C1830196FE0124
:104F5000C00FD11FEACFCF92DF92EF92FF920F9353
:104F60001F93CF93DF930AE615E00C7F43E050E0F8
:104F700060E872E086E892E01AD480E8E82E82E0E9
:104F8000F82E96E8C92E92E0D92EC9EED5E0D701C9
:104F90004D915D917D01F601619171916F011983D0
:104FA00008835D834C835B834A837F836E839B018D
:104FB0002F5F3F4F249FC001259F900D349F900D80
:104FC0001124998788870115110511F0C80192DF16
:104FD00088859985080F191F2A96F6E8EF16F2E0E2
:104FE000FF06A9F6E0E5F4E087E191E0DF019C012E
:104FF0001D9221503040E1F710924F0410924E0460
:10500000109208061092070610920C0610920B06DA
:1050100010920A061092090610920E0610920D06C2
:105020001092100610920F0610921206109211069E
:10503000109216061092150610921406109213067E
:10504000109218061092170610921A06109219065E
:105050001092E6051092E5051092E8051092E7051A
:1050600090E080E0DF91CF911F910F91FF90EF9042
:10507000DF90CF9008950097F1F0F894A6E8B2E0A1
:10508000E9EEF5E030E020E04D915D9148175907D9
:10509000A8F0428153814115510581F08AE0829F39
:1050A000F001839FF00D1124E751FA4F8081918127
:1050B000009759F4789490E080E008952F5F3F4F77
:1050C0003A962330310501F7F5CFDC0111966D9149
:1050D0007C91718360834150510953834283FC0169
:1050E0002193CF0178940895009749F1DC018E91C6
:1050F000853041F4E091E705F091E8053097F9F04B
:10510000CD0109948530D8F4282F30E0F8948FEF42
:105110008C938AE0829FF001839FF00D1124E75168
:10512000FA4F8081918112969C938E931197B1834F
:10513000A0838281938101969383828378940895DA
:10514000CF92DF92EF92FF920F931F93CF93DF9353
:105150009C0183E594E08C7F4115510509F49BC0C7
:105160002115310509F497C06115710509F493C043
:105170007A01AB01B9016D5F7F4F6C7F9B012F5F9F
:105180003F4F249F8001259F100D349F100D112447
:10519000F8942091070630910806232B59F42091AA
:1051A0000F06309110062115310569F120173107DE
:1051B00008F058C02091110630911206232B91F46B
:1051C00020910F0630911006820F931F209119062F
:1051D00030911A062115310509F441C02017310715
:1051E00008F056C07894CFEFDFEF86EF9FEFF7011E
:1051F000D183C083DF91CF911F910F91FF90EF90EA
:10520000DF90CF900895C3E0D0E0C0904E04D090DE
:105210004F0424E131E02C193D092017310710F328
:105220002AE02C9FF0012D9FF00D1124E751FA4F39
:10523000918380835583448353834283778366833A
:1052400011870087009709F055DE0C0D1D1D109386
:105250004F0400934E04789490E080E0C8CFC4E0FF
:10526000D0E0D3CFC3E0D0E02AE02C9FF0012D9F07
:10527000F00D1124E751FA4F9183808355834483C5
:105280005383428377836683009729F333DEE3CF2A
:10529000C4E0D0E0E9CF8FEF9FEFACCF9C01039744
:1052A000029708F069C0F89484E09AE0482F50E033
:1052B000241735070CF44DC091E08AE0829FF0017D
:1052C000839FF00D1124E751FA4F1182108215824D
:1052D000148213821282178216829923B1F180916F
:1052E000070690910806892BA9F420910F063091AA
:1052F00010062115310571F080914E0490914F04F4
:10530000821B930B90934F0480934E0410921006CF
:1053100010920F068091110690911206892BA9F424
:105320002091190630911A062115310571F08091EE
:105330004E0490914F04821B930B90934F048093E3
:105340004E0410921A0610921906789490E080E0AC
:105350000895949FF001959FF00D1124E751FA4FA5
:1053600040815181452B31F440855185452B11F405
:1053700081509CCF90E0A1CF8FEF9FEF0895411512
:10538000510549F1009739F16115710521F1F89442
:105390002091E5053091E605232BB9F42091E7052E
:1053A0003091E805232B89F49093E6058093E50579
:1053B0007093E8056093E705789425E030E090E08D
:1053C00080E0FA0131832083089578942FEF3FEF36
:1053D00086EF9FEFF6CF8FEF9FEF0895059769F463
:1053E000F8941092E6051092E5051092E8051092E7
:1053F000E705789490E080E008958FEF9FEF08959F
:105400006115710519F4F0E0E0E011C085309105F7
:1054100081F4E091E505F091E6053097A1F3CB0129
:1054200001960995009779F3FC0185E08193CF01FE
:1054300008959C01235031092230310520F72AE0DC
:10544000289FD001299FB00D1124A751BA4F2D914B
:105450003C911197232BB9F216962D913C911797F9
:105460002617370780F2F89412962D913C911397E6
:105470002115310529F0ED91FC911197309711F428
:105480007894C1CF4181528111965C934E93215003
:10549000310913963C932E93129781937894C7CF3A
:1054A000E7E6F5E08EE7DF011D928A95E9F7E0E592
:1054B000F4E087E191E0DF019C011D922150304032
:1054C000E1F710924F0410924E04E9EEF5E082E30A
:1054D000DF011D928A95E9F7E5EEF5E084E0DF0152
:1054E0001D928A95E9F790E080E00895CF93DF93CD
:1054F000C0918C02D0918D02CF3FDC0759F410D4BB
:1055000090938D0280938C0297FF09C0D0938D02F7
:10551000C0938C0284EF9FEFDF91CF91089590E0CC
:1055200080E0FACF8230910528F480931B0690E04A
:1055300080E008958FEF9FEF08954F925F926F92F2
:105540007F92AF92BF92CF92DF92EF92FF920F9332
:105550001F93CF93DF9300D0CDB7DEB71A821982A5
:10556000009709F479C06115710509F475C020919F
:105570008C0230918D0207EF1FEF2F3F3F4F09F450
:1055800045C06B015C01412C512C3201F12CE12C06
:1055900010E000E09E012F5F3F4FA6014E195F090A
:1055A000B5016E0D7F1D80918C0290918D021CD4EF
:1055B000892B09F04BC089819A81009741F4E1144D
:1055C000F10429F420911B06222309F442C0E80EBD
:1055D000F91EEC14FD04D0F480E8481684E858065F
:1055E0008EE16806710420F560E070E0CB010E9456
:1055F00011382AE0420E511C611C711C0A3F4FEF0A
:10560000140721F0043F8FEF1807A1F4C8010F9091
:105610000F90DF91CF911F910F91FF90EF90DF904E
:10562000CF90BF90AF907F906F905F904F90089514
:1056300001EF1FEF81E090E0013F2FEF120711F023
:1056400090E080E0892B09F4A5CFE0CF04EF1FEFB5
:10565000DDCF0AEF1FEFDACF0FEF1FEFD7CF4F925B
:105660005F926F927F92AF92BF92CF92DF92EF9252
:10567000FF920F931F93CF93DF9300D0CDB7DEB788
:105680001A821982009709F479C06115710509F42D
:1056900075C020918C0230918D0207EF1FEF2F3FD4
:1056A0003F4F09F445C06B015C01412C512C320184
:1056B000F12CE12C10E000E09E012F5F3F4FA6018E
:1056C0004E195F09B5016E0D7F1D80918C0290917E
:1056D0008D023DD3892B09F04BC089819A810097B7
:1056E00041F4E114F10429F420911B06222309F46A
:1056F00042C0E80EF91EEC14FD04D0F480E8481610
:1057000086E9580688E96806710420F560E070E0D3
:10571000CB010E9411382AE0420E511C611C711C01
:105720000E3F4FEF140721F0043F8FEF1807A1F44D
:10573000C8010F900F90DF91CF911F910F91FF90B3
:10574000EF90DF90CF90BF90AF907F906F905F9081
:105750004F90089502EF1FEF81E090E0023F2FEF9E
:10576000120711F090E080E0892B09F4A5CFE0CF7B
:1057700004EF1FEFDDCF0EEF1FEFDACF0FEF1FEFBC
:10578000D7CF80918C0290918D028F3F980749F07E
:10579000BED2892B49F48FEF9FEF90938D028093B7
:1057A0008C0290E080E0089584EF9FEF0895CF92FF
:1057B000DF92EF92FF920F931F93CF93DF9321E03D
:1057C0004115510509F020E04150510921112CC02B
:1057D000DC01FB01D12CC12C21E022C03FEFC31A18
:1057E000D30A7D010D911D91E701EA80FB80E0164F
:1057F000F106A8F420813181E280F380F182E08219
:1058000033832283ED90FC9011979D012250310942
:10581000E901F982E88211961C930E9320E03296FA
:10582000C416D506D8F2D2CFDF91CF911F910F9138
:10583000FF90EF90DF90CF900895FC01680F791FE3
:1058400090E080E0E617F70709F408952191820FB0
:10585000911DF8CF20911C06211113C047DE00973F
:1058600091F41092220610922106109220061092B6
:105870001F0610921E0610921D0621E020931C06A2
:10588000089584EF9FEF0895AF92BF92CF92DF9279
:10589000EF92FF920F931F93CF93DF93009709F43A
:1058A00060C04630510508F45CC020911C06C7EF6B
:1058B000DFEF222309F449C08C01060F171FF801FE
:1058C000C080D180C114D10409F44EC096012A5F72
:1058D0003F4F4217530708F447C07C0180912106CF
:1058E0009091220693838283B6016C5F7F4F5801AB
:1058F000A60EB71EC801A1DFF5019183808364E085
:1059000070E0C8011ADEEC01892BF9F481E090E027
:1059100009DEB601C801049610DEEC01892B91F472
:1059200062E070E0C50109DEEC01892B59F4C70182
:10593000DBDB80912106909122060196909322064E
:105940008093210690E080E0EDDDCE01DF91CF91E4
:105950001F910F91FF90EF90DF90CF90BF90AF908D
:105960000895CFEFDFEFF1CFC9EFDFEFEECF6F920A
:105970007F928F929F92AF92BF92CF92DF92EF92DF
:10598000FF920F931F93CF93DF9300D000D0CDB73A
:10599000DEB7009709F47AC04115510509F476C0C5
:1059A00020911C0607EF1FEF222309F44DC03A0196
:1059B0007B015C0164E070E0CE01019650DE8C0159
:1059C000892B09F041C009811A810115110509F4DB
:1059D0005AC0480186E0880E911CB701680D791DF8
:1059E00080918E0290918F020BDD6C01009709F47B
:1059F00050C0A70170E060E00E94953B89819A81C8
:105A0000AB81BC81EC0CFD1CF70181939193A193B8
:105A1000B1937F0181E090E085DDB801C7011FDE11
:105A2000892B31F562E070E0C701800F911F17DE0E
:105A30008C01892BE9F490E080E074DDF501D182DE
:105A4000C082F30191828082C8010F900F900F9065
:105A50000F90DF91CF911F910F91FF90EF90DF900A
:105A6000CF90BF90AF909F908F907F906F90089550
:105A700090E080E057DDF50111821082F301118280
:105A80001082C60131DB09EF1FEFDECF0FEF1FEFF2
:105A9000DBCF06EF1FEFD8CF0097A1F041155105DE
:105AA00089F02115310571F0F90136966E177F07DF
:105AB00048F0DC012D933C93DA01ED93FC9390E0E8
:105AC00080E008958FEF9FEF0895AF92BF92CF923D
:105AD000DF92EF92FF920F931F93CF93DF93009784
