:1000000015C1000044C1000042C1000040C1000011
:100010003EC100003CC100003AC1000038C10000F0
:1000200036C1000034C1000032C1000030C1000000
:100030002EC100002CC100002AC1000028C1000010
:1000400026C1000024C1000022C1000020C1000020
:100050001EC100001CC100001AC100000C943A3FF0
:1000600016C100000C940E430C94444310C10000D0
:100070000EC100000CC100000AC1000008C1000050
:1000800006C1000004C1000002C1000000C1000060
:100090000C949A430C94D043FAC000000C94193E7F
:1000A000F6C00000F4C00000F2C00000F0C0000084
:1000B000EEC00000ECC00000EAC00000E8C0000094
:1000C000E6C00000E4C000000C94B9340C9426444F
:1000D0000C945C44DCC000000C94B2440C94E844E2
:1000E000D6C00000028988083EABAAAAAABE0000BA
:1000F00000803F07634236B79BD8A71A3968561865
:10010000AEBAAB558C1D3CB7CC5763BD6DEDFD75DC
:100110003EF6177231BF000000803F0000000A0B5E
:1001200002090C0D0E080703040100000000000086
:1001300000000000000000000000000000000000BF
:10014000000000000000000012111000000000007C
:10015000000000000000000000000000000000009F
:1001600000000102102020080810204010204080CC
:10017000020102010804020101020408102040806B
:1001800080402010080402018004020180402010F9
:100190000804020108040201010204081020408042
:1001A0000102040810204080050505050705080820
:1001B0000808020202020A0A0808040404040101F1
:1001C0000101010101010303030303030303040706
:1001D00007070C0C0C0C0C0C0C0C0202020206069D
:1001E0000606060606060B0B0B0B0B0B0B0B000093
:1001F0002200250028002B002E00310034000201CF
:100200000000050108010B01000021002400270067
:100210002A002D0030003300010100000401070115
:100220000A01843B6D43F9438544114511241FBEE7
:10023000CFEFD1E2DEBFCDBF00E00CBF15E0A0E004
:10024000B2E0E2E8FBE800E00BBF02C007900D92CD
:10025000A234B107D9F72CE0A2E4B5E001C01D92A9
:10026000AF37B207E1F711E0C6E1D1E000E006C028
:1002700021970109802FFE010E948E45C131D107CF
:1002800080E00807A9F70E94DB350C94BF45B8CE83
:10029000CF92DF92EF92FF926B017C01C114D104E7
:1002A000E104F10469F480910002811109C0809198
:1002B0000202909103020E94F53A81E080930002CD
:1002C000C601880F991F880F991F80509E4FFF907D
:1002D000EF90DF90CF900895009781F0FC0121818D
:1002E000211104C040EA56E861E070E0FC0182811F
:1002F00093810E94043B90E080E0089588E090E0C4
:1003000008954F925F926F927F928F929F92AF92D9
:10031000BF92CF92DF92EF92FF920F931F93CF93F2
:10032000DF930097C9F1280139017A01EC01402FD0
:100330008A819B810E94823B8A819B81DC01ED91B5
:10034000FC910084F185E02D1995892B01F167015D
:10035000812C912C54018A819B81DC01ED91FC91CF
:100360000084F185E02D1995892B91F18414950471
:10037000A604B70469F18A819B81DC01ED91FC91AF
:100380000284F385E02D19958F3F9807C1F484E02E
:10039000F70111928A95E9F788E090E0DF91CF911B
:1003A0001F910F91FF90EF90DF90CF90BF90AF9093
:1003B0009F908F907F906F905F904F900895FFEF88
:1003C0008F1A9F0AAF0ABF0AD6018D936D01C3CF62
:1003D00090E080E0E3CF8F929F92AF92BF92CF9256
:1003E000DF92EF920F931F93CF93DF930097F1F07B
:1003F0006A01EC018A819B810E94073B8A819B8173
:10040000DC01ED91FC910280F381E02DA801B601A1
:1004100019958A819B8160E0E11001C061E00E9432
:10042000113B882389F08250823088F088E090E088
:10043000DF91CF911F910F91EF90DF90CF90BF9000
:10044000AF909F908F90089590E080E0F1CF84E08E
:1004500090E0EECF0895611102C00C947B416130B1
:10046000E1F362E0FACF662319F061E00C94B74142
:1004700060E0FCCFCF92DF92EF92FF92CF93882380
:1004800051F16A017B01CFEFC80F20E030E0A901F4
:10049000CB01B6010E94DC3687FF11C0C701B6014F
:1004A00090580E944D379B01AC016C2F70E090E09A
:1004B00080E0CF91FF90EF90DF90CF90B2C0C70166
:1004C000B6010E9448378C2FCF91FF90EF90DF90BC
:1004D000CF900C944140CF91FF90EF90DF90CF9060
:1004E00008950F931F938B019C0183E03695279508
:1004F000179507958A95D1F70E5B1A4F462F4770CF
:1005000021E030E0F90102C0EE0FFF1F4A95E2F74B
:10051000AF01F80120812423CB010196211102C0F3
:1005200090E080E01F910F9108950F931F938B012E
:100530009C0183E036952795179507958A95D1F705
:10054000677081E090E001C0880F6A95EAF7F801D2
:10055000EE5BFA4F2081452B31F480958223808316
:100560001F910F910895822BFACF2F923F924F92B5
:100570005F926F927F928F929F92AF92BF92CF9233
:10058000DF92EF92FF920F931F93CF93DF93D62EBC
:10059000C72E782E692E49015A01280161E08D2D60
:1005A0000E947B41CD2DDC2D8E010F5F1F4FA801D6
:1005B0006D2D7C2D872D962DB8DF20E030E0A90130
:1005C000C201B7010E94CC38181664F4C201B70109
:1005D0000E944D372B01C501B4010E944D37A20185
:1005E000CE0123D0C801DF91CF911F910F91FF90D1
:1005F000EF90DF90CF90BF90AF909F908F907F90C3
:100600006F905F904F903F902F900895882341F016
:100610008150682F70E090E080E050E040E085CFAE
:100620000895862FB9010C9441409C01FC01E45EC1
:10063000FE4FE491E150E231E0F4F0E08827EC5D18
:10064000FC4F8F4F0C948E4536033D0340035703F8
:100650006C03390381038D039103A803BD03D20307
:10066000E903FE03390313042A043F0484B58068B8
:1006700084BD60E0822F0C94B74184B58062F8CFCE
:10068000809180008C7F82608093800080918100C7
:10069000807E8061682B6093810050938700409337
:1006A000860080918000806880938000E2CF8091F6
:1006B00080008C7F82608093800080918100807EAA
:1006C0008061682B6093810050938700409386007F
:1006D000809180008062E8CF809180008C7F826072
:1006E0008093800080918100807E8061682B609380
:1006F000810050938700409386008091800088603D
:10070000D3CF8091B00080688093B0008091B10019
:10071000887F682B6093B100ACCF8091B00080627D
:10072000F3CF809190008C7F8260809390008091C5
:100730009100807E8061682B6093910050939700B8
:10074000409396008091900080688093900091CFB4
:10075000809190008C7F82608093900080919100C6
:10076000807E8061682B6093910050939700409346
:100770009600809190008062E8CF809190008C7FFD
:1007800082608093900080919100807E8061682BD0
:100790006093910050939700409396008091900051
:1007A0008860D3CF8091A0008C7F82608093A0006E
:1007B0008091A100807E8061682B6093A10050939E
:1007C000A7004093A6008091A00080688093A000BD
:1007D00050CF8091A0008C7F82608093A000809198
:1007E000A100807E8061682B6093A1005093A700D8
:1007F0004093A6008091A0008062E8CF8091A00085
:100800008C7F82608093A0008091A100807E8061B7
:10081000682B6093A1005093A7004093A60080919D
:10082000A0008860D3CF809120018C7F826080936C
:10083000200180912101807E8061682B60932101DD
:100840005093270140932601809120018068809376
:1008500020010FCF809120018C7F82608093200146
:1008600080912101807E8061682B609321015093EB
:10087000270140932601809120018062E8CF80917A
:1008800020018C7F82608093200180912101807EF5
:100890008061682B609321015093270140932601CA
:1008A000809120018860D3CF90E080E008950F937D
:1008B0001F93009709F489C06115710509F485C07B
:1008C00000913704109138042091390430913A0492
:1008D0000E3F1F4F2F4F3F4F09F068C04FEF5FEFA4
:1008E000BA014093370450933804609339047093ED
:1008F0003A04409137045091380460913904709162
:100900003A04DC011296ED91FC9180819181A281E3
:10091000B3818093D5059093D605A093D705B09366
:10092000D80584819581A681B7818093D105909364
:10093000D205A093D305B093D40580859185A28577
:10094000B3858093CD059093CE05A093CF05B0934A
:10095000D00584859585A685B7858093C905909334
:10096000CA05A093CB05B093CC051092C505109293
:10097000C6051092C7051092C8050E94A6188BECF8
:1009800098E190934C0580934B0590934E0580938E
:100990004D050E949517009731F421E030E0309327
:1009A000DA052093D9051F910F910895009137041E
:1009B000109138042091390430913A04DB010D93F1
:1009C0001D932D933C93139794CF8FEF9FEFEBCF15
:1009D0008F929F92AF92BF92CF92DF92EF92FF924F
:1009E0001F93CF93DF934B015C011091DC0582E0F4
:1009F00090E09093DA058093D90581149104A104C5
:100A0000B10441F48091DC05811104C08091DB05C3
:100A1000C1E08111C0E0C12CD12C76018091DC05B0
:100A2000811106C08091DB05811102C0CC23D9F071
:100A300083E090E09093DA058093D905CC2381F18F
:100A4000CCE9DFEF111102C00E942F1CCE01DF9113
:100A5000CF911F91FF90EF90DF90CF90BF90AF901C
:100A60009F908F9008956AE070E080E090E00E948F
:100A7000A93F80E1C80E87E2D81EE11CF11C8FEF70
:100A800088169806A806B80631F0C1E08C149D04BB
:100A9000AE04BF0408F0C0E080E00E94C917BECFDA
:100AA000D0E0C0E0CFCFCF92DF92EF92FF920F93D2
:100AB0001F93CF93DF938F3F910511F008F051C042
:100AC0002091D9053091DA052330310539F0209194
:100AD000D9053091DA052130310531F424E030E0D8
:100AE0003093DA052093D9056A017B01EC0182304D
:100AF0009105A8F011E0AE01C701B6010E9494175C
:100B0000AB01BC01CE011123F9F0DF91CF911F9110
:100B10000F91FF90EF90DF90CF900C94581E8C01B6
:100B2000000F111F055B1A4FD8018D919C91892BE5
:100B300009F30E94621E0297E9F6D801ED91FC913B
:100B4000CE011995182FD7CF0E947A1E90E080E031
:100B5000DF91CF911F910F91FF90EF90DF90CF9099
:100B600008958FEF9FEFF4CF80E00C94C917CF93D7
:100B7000DF9386E090E09093DA058093D9050E9498
:100B80002218EC01EBE4F5E084E0DF011D928A9588
:100B9000E9F70E94C71B1092DA051092D905CE0121
:100BA000DF91CF9108958091DB0508958091C40570
:100BB00008956093370470933804809339049093B8
:100BC0003A0490E080E008952F923F924F925F9216
:100BD0006F927F928F929F92AF92BF92CF92DF924D
:100BE000EF92FF920F931F93CF93DF9300D000D02B
:100BF000CDB7DEB72B013C0129833A834B835C835D
:100C00001701DE82CD82F701C080D180E280F380BF
:100C1000ED81FE8184809580A680B780A501940136
:100C2000C701B6010E94CC38F80118167CF0ED819E
:100C3000FE8180849184A284B384A5019401C701BC
:100C4000B6010E94DC36F80187FF60C08082918285
:100C5000A282B382ED81FE81248535854685578544
:100C6000C301B2010E94D038ED81FE812089318913
:100C7000428953890E94D03829813A814B815C8115
:100C80000E946536ED81FE81248935894689578920
:100C90000E94D0386B017C010E9492168823D9F102
:100CA0006091710C7091720C8091730C9091740C26
:100CB000ED81FE81208D318D428D538D0E94D03883
:100CC000ED81FE81248D358D468D578D0E946536D0
:100CD000F101608371838283938326960FB6F89423
:100CE000DEBF0FBECDBFDF91CF911F910F91FF905F
:100CF000EF90DF90CF90BF90AF909F908F907F90BC
:100D00006F905F904F903F902F900895C082D18256
:100D1000E282F3829FCF20E030E0A901C701B60153
:100D20000E94DC3687FD0DC020E030E0A901C7013C
:100D3000B6010E94CC3818164CF060E070E0CB0190
:100D4000B7CF60E070E080E89FEBB2CF60E070E08A
:100D500080E89FE3ADCFCF92DF92EF92FF926B01DD
:100D60007C019F7720E030E040E859E50E94DC36C6
:100D700087FF2BC020E030E040E05FE3C701B60111
:100D80000E94CC3887FD0EC020E030E040E05FE3F9
:100D9000C701B6010E946536FF90EF90DF90CF90BB
:100DA0000C94B63720E030E040E05FEBC701B601BD
:100DB0000E94CC38181684F420E030E0A901C70165
:100DC000B6010E94D0386B017C01C701B601FF90CB
:100DD000EF90DF90CF90089520E030E040E05FE3B7
:100DE000C701B6010E946436FF90EF90DF90CF906C
:100DF0000C94C9362F923F924F925F926F927F92DE
:100E00008F929F92AF92BF92CF92DF92EF92FF921A
:100E10000F931F93CF93DF93CDB7DEB7A9970FB68C
:100E2000F894DEBF0FBECDBF8091550C815082304B
:100E300008F45EC280E08093550C8091640C815070
:100E4000823008F457C280E08093640C8091540C87
:100E50008150823008F450C280E08093540C80911D
:100E6000530C8150823008F449C280E08093530CC7
:100E70008091520C8150823008F442C280E080930D
:100E8000520C8091510C8150823008F43BC280E0BA
:100E90008093510CC0904002D0904102E0904202F9
:100EA000F0904302A70196016091E50B7091E60B6B
:100EB0008091E70B9091E80B0E94DC36882341F08B
:100EC000C092E50BD092E60BE092E70BF092E80BB4
:100ED0008CE08987C12CEE24E39401E010E020E04F
:100EE00030E0AE01475F5F4F66E370E08091DB0B5F
:100EF0009091DC0B70DA8987811106C2CC24C394EF
:100F0000E12C04E010E020E030E0AE014F5F5F4FE5
:100F100066E370E08091DB0B9091DC0BF2D984E00A
:100F2000FE013196DE01159601900D928A95E1F74A
:100F30008D819E819D838E838F8198859F838887F5
:100F40002091090C30910A0C40910B0C50910C0C23
:100F5000609184037091850380918603909187034B
:100F60000E94D0386E8B7F8B888F998F2091F003F1
:100F70003091F103AF81B8850E9496456B017C01E9
:100F8000C092D10BD092D20BE092D30BF092D40B43
:100F900081E090E040913C0250913D0260913E0220
:100FA00070913F02C416D506E606F70610F090E0F1
:100FB00080E02091F603289FB001299F700D112435
:100FC000072E000C880B990B0E947B379B01AC010C
:100FD0000E9465364B015C01C701B6010E9479375A
:100FE00020E030E040E056E30E94D0389B01AC01A5
:100FF000C501B4010E9465362091880330918903B0
:1010000040918A0350918B030E94643620918C0397
:1010100030918D0340918E0350918F030E94D03800
:101020006B017C01C092A90BD092AA0BE092AB0B92
:10103000F092AC0B20919003309191034091920378
:10104000509193030E94D0386A8F7B8F8C8F9D8F35
:1010500020910D0C30910E0C40910F0C5091100C02
:101060002A873B874C875D874090110C5090120C6B
:101070006090130C7090140C2091B4033091B50360
:101080004091B6035091B7036A857B858C859D8519
:101090000E94D0384B015C012091B8033091B90314
:1010A0004091BA035091BB03C301B2010E94D038F2
:1010B0009B01AC01C501B4010E9465364B015C0186
:1010C0002091C4033091C5034091C6035091C703DA
:1010D0006E897F89888D998D0E94D0386E877F8731
:1010E000888B998B2091C8033091C9034091CA0322
:1010F0005091CB036A8D7B8D8C8D9D8D0E94D03855
:101100009B01AC016E857F85888999890E9465362F
:101110009B01AC01C501B4010E9465366093A10B2F
:101120007093A20B8093A30B9093A40B2091BC030C
:101130003091BD034091BE035091BF036A857B850A
:101140008C859D850E94D0384B015C012091C003A5
:101150003091C1034091C2035091C303C301B20156
:101160000E94D0389B01AC01C501B4010E946536D4
:101170004B015C012091CC033091CD034091CE0313
:101180005091CF036E897F89888D998D0E94D038C8
:101190002B013C012091D0033091D1034091D20327
:1011A0005091D3036A8D7B8D8C8D9D8D0E94D0389C
:1011B0009B01AC01C301B2010E9465369B01AC01E9
:1011C000C501B4010E9465366093A50B7093A60B10
:1011D0008093A70B9093A80B6093AD0B7093AE0B0D
:1011E0008093AF0B9093B00B6091DC037091DD03A3
:1011F0008091DE039091DF036093B10B7093B20B8B
:101200008093B30B9093B40BA70196010E946436B0
:101210006093B90B7093BA0B8093BB0B9093BC0B8C
:10122000C090D803D090D903E090DA03F090DB03AC
:1012300020E030E0A901C701B6010E94DC3687FF3B
:1012400066C0C701B6010E94C9366093C10B709396
:10125000C20B8093C30B9093C40B6091C10B709130
:10126000C20B8091C30B9091C40B0E9492168823ED
:1012700009F452C01092C10B1092C20B1092C30B12
:101280001092C40BC090C10BD090C20BE090C30B66
:10129000F090C40B20E030E0A901C701B6010E9424
:1012A000DC3687FF5CC0C701B60190580E944D37FD
:1012B00090958095709561957F4F8F4F9F4FDC0182
:1012C000CB010197A109B10987309105A105B105AD
:1012D00008F043C2FC018827EF58F64F8F4F0C945B
:1012E0008E45B409CC0DE90D3910D310EC10F9126C
:1012F00083E0A1CD83E0A8CD83E0AFCD83E0B6CD80
:1013000083E0BDCD83E0C4CD18861F8219CEC7010E
:10131000B6010E94B63799CF6091C10B7091C20B94
:101320008091C30B9091C40B0E944D168111A2CFE6
:101330006091C10B7091C20B8091C30B9091C40B53
:1013400020E030E040E85FE40E94D0376093C10BBA
:101350007093C20B8093C30B9093C40B93CFC701C0
:10136000B6010E944D37ABCF2091B90B3091BA0B2B
:101370004091BB0B5091BC0B60914C0270914D029F
:1013800080914E0290914F020E94D0386B017C01F7
:1013900020911402309115024091160250911702CB
:1013A0000E94D0386E877F87888B998B6093B90BAA
:1013B0007093BA0B8093BB0B9093BC0B20910C02E3
:1013C00030910D0240910E0250910F02C701B601FB
:1013D0000E94D0382091540230915502409156021B
:1013E000509157020E94D0386A877B878C879D87EF
:1013F0006093C10B7093C20B8093C30B9093C40B8B
:1014000080913D0C90913E0CA0913F0CB091400C0E
:101410008A8B9B8BAC8BBD8B209124023091250253
:101420004091260250912702C701B6010E94D03890
:101430002A893B894C895D890E9465366B017C0154
:101440002091410C3091420C4091430C5091440C3E
:101450006A857B858C859D850E9464369B01AC01E5
:10146000C701B6010E9465366B017C01C092BD0BBD
:10147000D092BE0BE092BF0BF092C00B80902C027A
:1014800090902D02A0902E02B0902F02A501940101
:101490000E94CC381816BCF4A5019401C701B6010E
:1014A0000E9464366093C50B7093C60B8093C70B84
:1014B0009093C80B8092BD0B9092BE0BA092BF0B75
:1014C000B092C00B20C08090200290902102A0908A
:1014D0002202B0902302A5019401C701B6010E9427
:1014E000CC3887FDFBC01092C50B1092C60B109232
:1014F000C70B1092C80BA5019401C701B6010E9449
:10150000DC3687FDD7CF8090450C9090460CA0909C
:10151000470CB090480C20916402309165024091D4
:10152000660250916702C501B4010E94D0389B0148
:10153000AC016091BD0B7091BE0B8091BF0B90917F
:10154000C00B0E946436209160023091610240918C
:101550006202509163020E94E0366B017C01C092EE
:10156000BD0BD092BE0BE092BF0BF092C00B20914E
:1015700058023091590240915A0250915B020E94E8
:10158000D0382B013C0120915C0230915D024091EA
:101590005E0250915F02C501B4010E94D0389B01E8
:1015A000AC01C301B2010E94653620916C023091FA
:1015B0006D0240916E0250916F020E94D0382091CE
:1015C00030023091310240913202509133020E9438
:1015D00065366093B50B7093B60B8093B70B909301
:1015E000B80B4090C50B5090C60B6090C70B709025
:1015F000C80B8090480290904902A0904A02B09097
:101600004B02A5019401C301B2010E94CC38109194
:10161000F203181614F01091F303A50194016E85DE
:101620007F85888999890E94CC380091F403181627
:1016300014F00091F503A5019401C301B2010E94C9
:10164000DC36882391F0101310C0809144029091F1
:101650004502A0914602B09147028093B90B909346
:10166000BA0BA093BB0BB093BC0B2091B90B30917C
:10167000BA0B4091BB0B5091BC0B60915002709122
:10168000510280915202909153020E94D0382A89CF
:101690003B894C895D890E9465364B015C018092D3
:1016A0003D0C90923E0CA0923F0CB092400C4090AA
:1016B00028025090290260902A0270902B02A30108
:1016C00092010E94CC3887FD18C040923D0C509288
:1016D0003E0C60923F0C7092400C1FC0A50194011B
:1016E000C701B6010E9464366093C50B7093C60BA8
:1016F0008093C70B9093C80BFECE40901C02509075
:101700001D0260901E0270901F02A3019201C5018C
:10171000B4010E94DC361816C4F62A853B854C8538
:101720005D852093410C3093420C4093430C5093C1
:10173000440CC092450CD092460CE092470CF092BB
:10174000480C8091550C882309F423C2833009F09A
:101750001CC281E090E08093550C67E070E080E06F
:1017600090E00E9471028C019093080C8093070C0A
:101770002091B50B3091B60B4091B70B5091B80B3F
:101780006091E4037091E5038091E6039091E70393
:101790000E94D0386B017C0120E030E04FE753E439
:1017A0000E94DC3618160CF494C7C092B90BD09284
:1017B000BA0BE092BB0BF092BC0B20E030E0A90129
:1017C0006091B90B7091BA0B8091BB0B9091BC0BDF
:1017D0000E94CC3887FF08C01092B90B1092BA0B48
:1017E0001092BB0B1092BC0B4091B90B5091BA0BED
:1017F0006091BB0B7091BC0BC8010E943A026091D2
:10180000E8037091E9038091EA039091EB03A3DA76
:101810006B017C01C092C10BD092C20BE092C30B52
:10182000F092C40B20E030E040E853E40E94DC3644
:1018300087FF5EC720E030E0A901C701B6010E9422
:10184000CC3887FD53C7C701B6010E944D37698761
:1018500069858BE00E943302C090C10BD090C20B0F
:10186000E090C30BF090C40B20E030E040E853E47C
:10187000C701B6010E94DC3687FF3FC720E030E099
:10188000A901C701B6010E94CC3887FD34C7C70142
:10189000B6010E944D37698769858CE00E9433024A
:1018A0006091EC037091ED038091EE039091EF0352
:1018B00052DA6B017C01C092C10BD092C20BE09254
:1018C000C30BF092C40B20E030E040E853E40E94E8
:1018D000DC3687FF17C720E030E0A901C701B60159
:1018E0000E94CC3887FD0CC7C701B6010E944D3756
:1018F0006987698586E00E9433028091B50B9091DB
:10190000B60BA091B70BB091B80B8093090C9093D4
:101910000A0CA0930B0CB0930C0CC0900D0CD09043
:101920000E0CE0900F0CF090100C4090110C5090A9
:10193000120C6090130C7090140C20919C03309149
:101940009D0340919E0350919F03C701B6010E94E1
:10195000D0384B015C012091A0033091A10340914C
:10196000A2035091A303C301B2010E94D0389B018E
:10197000AC01C501B4010E9465364B015C012091A8
:10198000AC033091AD034091AE035091AF036E892B
:101990007F89888D998D0E94D0386A877B878C8754
:1019A0009D872091B0033091B1034091B2035091D3
:1019B000B3036A8D7B8D8C8D9D8D0E94D0389B01E9
:1019C000AC016A857B858C859D850E9465369B016F
:1019D000AC01C501B4010E9465364B015C01209148
:1019E0009403309195034091960350919703C7015A
:1019F000B6010E94D0386B017C0120919803309190
:101A0000990340919A0350919B03C301B2010E9434
:101A1000D0389B01AC01C701B6010E9465366B014D
:101A20007C012091A4033091A5034091A60350911D
:101A3000A7036E897F89888D998D0E94D0382B01EC
:101A40003C012091A8033091A9034091AA03509131
:101A5000AB036A8D7B8D8C8D9D8D0E94D0389B0150
:101A6000AC01C301B2010E9465369B01AC01C70104
:101A7000B6010E94653660930D0C70930E0C809336
:101A80000F0C9093100C8092110C9092120CA0925B
:101A9000130CB092140CC0909705D0909805E0906C
:101AA0009905F0909A053FEFC31AD30AE30AF30AA7
:101AB000C0929705D0929805E0929905F0929A0508
:101AC000C114D104E104F10499F480919B05909133
:101AD0009C05A0919D05B0919E050196A11DB11D8B
:101AE00080939B0590939C05A0939D05B0939E05C4
:101AF00080909F059090A005A090A105B090A205B0
:101B000060919B0570919C0580919D0590919E052B
:101B10000E947937A50194010E94D03820E030E07E
:101B200040E85FE40E94D0382B013C01C701B601B8
:101B30000E947937A50194010E94D0389B01AC0125
:101B4000C301B2010E9465366093930570939405BA
:101B50008093950590939605A9960FB6F894DEBFED
:101B60000FBECDBFDF91CF911F910F91FF90EF90EE
:101B7000DF90CF90BF90AF909F908F907F906F90AD
:101B80005F904F903F902F900895082E000C990B76
:101B9000E2CD82E090E0DFCD2091AD0B3091AE0B35
:101BA0004091AF0B5091B00B6091B90B7091BA0B93
:101BB0008091BB0B9091BC0BE7E1CE2EE4E0DE2ED2
:101BC000F0E6EF2EFCE0FF2E05EB1BE00E94E405A3
:101BD000C4CD2091B90B3091BA0B4091BB0B509101
:101BE000BC0B6091700270917102809172029091B1
:101BF00073020E94D0386B017C018090290C909078
:101C00002A0CA0902B0CB0902C0C2091EC0230915F
:101C1000ED024091EE025091EF02C501B4010E9425
:101C2000D0382B013C0150EF252E52E0352E05E92E
:101C300014E0EDE9F4E0E017F10709F053C1209159
:101C40000003309101034091020350910303C70147
:101C5000B6010E94D038A30192010E9465362091FE
:101C600008033091090340910A0350910B030E942D
:101C7000D03820913002309131024091320250919F
:101C800033020E9465366093B50B7093B60B809358
:101C9000B70B9093B80B209174023091750240916C
:101CA000760250917702C501B4010E94D0382B0111
:101CB0003C0138E7232E32E0332E0BE814E0E3E951
:101CC000F4E0E017F10709F02CC12091D80230911F
:101CD000D9024091DA025091DB02C701B6010E949D
:101CE000D038A30192010E9465366E877F87888B6A
:101CF000998B209188023091890240918A025091FB
:101D00008B02C501B4010E94D0382B013C01BCE814
:101D10002B2EB2E03B2E01E814E0E9E8F4E0E017F6
:101D2000F10709F01DC12091DC023091DD024091E4
:101D3000DE025091DF02C701B6010E94D038A30134
:101D400092010E9465366A8B7B8B8C8B9D8B2091D8
:101D50009C0230919D0240919E0250919F02C501CC
:101D6000B4010E94D0382B013C0120EA32E03B87CD
:101D70002A8757E7252E54E0352E0FE714E0021589
:101D8000130509F00CC12091E0023091E10240916D
:101D9000E2025091E302C701B6010E94D038A301CC
:101DA00092010E9465366E8F7F8F88A399A3209140
:101DB000B0023091B1024091B2025091B302C5011C
:101DC000B4010E94D0382B013C01E4EBF2E0FB8728
:101DD000EA873DE6232E34E0332E05E714E00215B2
:101DE000130509F0FDC02091E4023091E502409115
:101DF000E6025091E702C701B6010E94D038A30164
:101E000092010E9465362B013C012091C402309161
:101E1000C5024091C6025091C702C501B4010E949B
:101E2000D0384B015C01E8ECF2E0FB87EA87B3E6CF
:101E30002B2EB4E03B2E0BE614E00215130509F03F
:101E4000F0C02091E8023091E9024091EA025091FD
:101E5000EB02C701B6010E94D038A50194010E948F
:101E600065362E853F85488959892093290C309302
:101E70002A0C40932B0C50932C0C2A893B894C89BB
:101E80005D8920932D0C30932E0C40932F0C509392
:101E9000300C2E8D3F8D48A159A12093310C3093E9
:101EA000320C4093330C5093340C4092350C5092CA
:101EB000360C6092370C7092380C6093390C70932A
:101EC0003A0C80933B0C90933C0C8091540C8823EB
:101ED00009F4CCC0833009F0C5C081E090E0809364
:101EE000540C3BCCD1016D917D918D919D911D0143
:101EF000D801ED91FD918D01EE0FFF1FEE0FFF1F39
:101F0000E75DF34F20813181428153810E94D038B7
:101F10009B01AC01C301B2010E9465362B013C015B
:101F200088CED1016D917D918D919D911D01D8013A
:101F3000ED91FD918D01EE0FFF1FEE0FFF1FE75D8D
:101F4000F34F20813181428153810E94D0389B011F
:101F5000AC01C301B2010E9465362B013C01AFCE3A
:101F6000D1016D917D918D919D911D01D801ED91D2
:101F7000FD918D01EE0FFF1FEE0FFF1FE75DF34F89
:101F800020813181428153810E94D0389B01AC0174
:101F9000C301B2010E9465362B013C01BECEAA8569
:101FA000BB856D917D918D919D91BB87AA87D10154
:101FB000ED91FD911D01EE0FFF1FEE0FFF1FE75D7D
:101FC000F34F20813181428153810E94D0389B019F
:101FD000AC01C301B2010E9465362B013C01CFCE9A
:101FE000AA85BB856D917D918D919D91BB87AA87B7
:101FF000D101ED91FD911D01EE0FFF1FEE0FFF1FAF
:10200000E75DF34F20813181428153810E94D038B6
:102010009B01AC01C301B2010E9465362B013C015A
:10202000DECEAA85BB856D917D918D919D91BB87FB
:10203000AA87D101ED91FD911D01EE0FFF1FEE0F5B
:10204000FF1FE75DF34F20813181428153810E9460
:10205000D0389B01AC01C501B4010E9465364B012B
:102060005C01EBCE082E000C990B39CF82E090E09A
:1020700036CFC090250CD090260CE090270CF09025
:10208000280C8090100390901103A0901203B09040
:102090001303A5019401C701B6010E94CC3818169C
:1020A0000CF061C08092B50B9092B60BA092B70B6A
:1020B000B092B80B2091B90B3091BA0B4091BB0B89
:1020C0005091BC0B609118037091190380911A0311
:1020D00090911B030E94D03820911C0330911D0366
:1020E00040911E0350911F030E94D0382091AD0BE8
:1020F0003091AE0B4091AF0B5091B00B0E94653602
:102100002091200330912103409122035091230319
:102110000E94D0380E943339209124033091250346
:1021200040912603509127030E94D0382091280324
:102130003091290340912A0350912B030E94653668
:102140006093250C7093260C8093270C9093280C99
:102150008091530C882321F18330F1F481E090E0E9
:102160008093530CFACA8090140390901503A090AA
:102170001603B0901703A5019401C701B6010E9490
:10218000DC3687FD8FCFC092B50BD092B60BE092B4
:10219000B70BF092B80B8ECF082E000C990BE0CF46
:1021A00082E090E0DDCF2091AD0B3091AE0B4091FD
:1021B000AF0B5091B00B6091B90B7091BA0B80913D
:1021C000BB0B9091BC0BE7EFCE2EE3E0DE2EFBE5E0
:1021D000EF2EFCE0FF2EF8CC2091A90B3091AA0B3A
:1021E0004091AB0B5091AC0B60912C0370912D037F
:1021F00080912E0390912F030E94D0384B015C01F7
:102200008092C10B9092C20BA092C30BB092C40BF0
:102210002091B90B3091BA0B4091BB0B5091BC0B84
:1022200060913003709131038091320390913303B8
:102230000E94D038A50194010E9465366B017C0193
:10224000C092CD0BD092CE0BE092CF0BF092D00B80
:102250008091150C9091160CA091170CB091180C50
:102260008A879B87AC87BD872091190C30911A0C07
:1022700040911B0C50911C0C2E873F87488B598B2B
:1022800020914C0330914D0340914E0350914F03E8
:10229000BC01CD010E94D0382B013C01209150039C
:1022A0003091510340915203509153036E857F85C5
:1022B000888999890E94D0389B01AC01C301B20181
:1022C0000E9465362B013C01209154033091550347
:1022D0004091560350915703C701B6010E94D03870
:1022E0009B01AC01C301B2010E946536A5019401B6
:1022F0000E9464362B013C01209138023091390252
:1023000040913A0250913B02C501B4010E94D0387D
:10231000A30192010E94D0386E8F7F8F88A399A36A
:102320006093B90B7093BA0B8093BB0B9093BC0B6B
:1023300020915C0330915D0340915E0350915F03F7
:10234000C701B6010E94D038209134023091350285
:1023500040913602509137020E94D038A301920179
:102360000E94D0386AA37BA38CA39DA36093C50B66
:102370007093C60B8093C70B9093C80B80911D0C74
:1023800090911E0CA0911F0CB091200C8A8B9B8BFE
:10239000AC8BBD8B8093C90B9093CA0BA093CB0BD6
:1023A000B093CC0B2091210C3091220C4091230C46
:1023B0005091240C2EA33FA348A759A7C501B401EF
:1023C0000E94D0384B015C012A893B894C895D8988
:1023D000C701B6010E94D0389B01AC01C501B40110
:1023E0000E946536209130023091310240913202D4
:1023F000509133020E9465364B015C018092B50B0F
:102400009092B60BA092B70BB092B80B40907003AD
:10241000509071036090720370907303A301920156
:102420000E94CC3818164CF44092B50B5092B60B63
:102430006092B70B7092B80B10C04090740350902C
:1024400075036090760370907703A3019201C50134
:10245000B4010E94DC3687FDE7CF20913C03309128
:102460003D0340913E0350913F036A857B858C85F7
:102470009D850E94D0384B015C0120914003309132
:10248000410340914203509143036E857F858889C3
:1024900099890E94D0389B01AC01C501B4010E940A
:1024A00065364B015C01209148033091490340910E
:1024B0004A0350914B03C701B6010E94D0389B01DB
:1024C000AC01C501B4010E9465364B015C0120914D
:1024D00034033091350340913603509137036A85B8
:1024E0007B858C859D850E94D0382B013C012091F5
:1024F00038033091390340913A0350913B036E8584
:102500007F85888999890E94D0389B01AC01C301DD
:10251000B2010E9465362B013C01209144033091A9
:1025200045034091460350914703C701B6010E94FD
:10253000D0389B01AC01C301B2010E9465366093A3
:10254000150C7093160C8093170C9093180C8092B6
:10255000190C90921A0CA0921B0CB0921C0C20919A
:1025600060033091610340916203509163036AA15B
:102570007BA18CA19DA10E94D0382A893B894C89DE
:102580005D890E94653660931D0C70931E0C8093CC
:102590001F0C9093200C20916803309169034091A7
:1025A0006A0350916B036E8D7F8D88A199A10E9463
:1025B000D0382EA13FA148A559A50E946536609349
:1025C000210C7093220C8093230C9093240C809107
:1025D000520C882359F0833029F481E090E08093F5
:1025E000520CBBC8082E000C990BF9CF82E090E08A
:1025F000F6CFC090A90BD090AA0BE090AB0BF09057
:10260000AC0B2091B90B3091BA0B4091BB0B5091A0
:10261000BC0BC701B6010E94653620917C03309146
:102620007D0340917E0350917F030E94D0384B017F
:102630005C01209178033091790340917A035091A5
:102640007B03C701B6010E94D0382091040230916B
:10265000050240910602509107020E94D0386B019A
:102660007C012091AD0B3091AE0B4091AF0B50919E
:10267000B00B609108027091090280910A0290915A
:102680000B020E94D0389B01AC01C701B6010E9429
:1026900065369B01AC01C501B4010E9464366093AC
:1026A000B50B7093B60B8093B70B9093B80B8091DA
:1026B000510C882359F0833029F481E090E0809315
:1026C000510C4BC8082E000C990BF9CF82E090E01A
:1026D000F6CF80E090E0AFE7B3E48093B90B90933E
:1026E000BA0BA093BB0BB093BC0B67C81986B0C8DC
:1026F0008FEF8987ADC81986CFC88FEF8987CCC87F
:102700001986F7C88FEF8987F4C84F925F926F924E
:102710007F928F929F92AF92BF92DF92EF92FF9241
:102720000F931F93CF93DF9384E090E07FD2EDE788
:10273000F5E08BE2DF011D928A95E9F780E090E0F9
:10274000A0E8BFEB86A397A3A0A7B1A78AE097ED67
:10275000A3E2BBE382A393A3A4A3B5A387ED96E171
:10276000ACEAB3E484839583A683B78383ED9DE2CB
:10277000A1E3B5EB80879187A287B38781E494ECCE
:10278000A2EDBBE984879587A687B78780E09AE9A1
:10279000AFE4B2E3808B918BA28BB38BA1E7B5E062
:1027A000B383A283EFE4F5E01196FC93EE9380E609
:1027B00094E091838083938382839583848397833A
:1027C0008683918780879387828782E59CE09587BF
:1027D000848785E59CE097878687918B808B938B98
:1027E000828B958B848B978B868B84E59CE0918F75
:1027F000808F83E59CE0938F828F8FE59CE0958F9F
:10280000848F84E69CE0978F868F81E59CE091A37E
:1028100080A381E995E015969C938E93149781E8A7
:1028200095E013969C938E93129783E995E0179603
:102830009C938E93169781EAA82E8BE0B82E84E3A2
:10284000F50111928A95E9F7C5EDDBE080E9DE013B
:102850001D928A95E9F780E090E5A3ECB8E48C87B7
:102860009D87AE87BF87DD24D394D0925A0C94E025
:10287000892E92E0992EF40184AD95ADA6ADB7AD49
:10288000888B998BAA8BBB8B412C512C32014394A2
:1028900049825A826B827C8250E040E060E070E0C6
:1028A000CB010E9448019F838E8340EA56E861E095
:1028B00070E0488759876A877B870E946C01DD82B8
:1028C0001CA6D092560C4DA65EA66FA678AAE12C47
:1028D000F12C8701A801970167E070E080E090E0AB
:1028E0000E94B5029BAB8AABD9AA1CA2D092590C0C
:1028F0004DA25EA26FA278A661E08BE00E942B023F
:10290000D9A61C8ED092580C4D8E5E8E6F8E78A2FA
:1029100061E08CE00E942B02D9A21C8AD092570C55
:102920004D8A5E8A6F8A788E61E086E00E942B0273
:10293000D98E8091800390918103A0918203B09100
:1029400083038CAB9DABAEABBFAB8091D4039091B6
:10295000D503A091D603B091D70388AF99AFAAAFA2
:10296000BBAF8CAF9DAFAEAFBFAFF401848995898B
:10297000A689B78980933D0C90933E0CA0933F0CA1
:10298000B093400C84859585A685B7858093410CCE
:102990009093420CA093430CB093440C8091680236
:1029A00090916902A0916A02B0916B028093450CEC
:1029B0009093460CA093470CB093480C8091170459
:1029C00090911804A0911904B0911A048093600C9E
:1029D0009093610CA093620CB093630C80910403FC
:1029E00090910503A0910603B09107038093290CF1
:1029F00090932A0CA0932B0CB0932C0C80932D0C4D
:102A000090932E0CA0932F0CB093300C8093310C2C
:102A10009093320CA093330CB093340C8093350C0C
:102A20009093360CA093370CB093380C8093390CEC
:102A300090933A0CA0933B0CB0933C0C80910C0308
:102A400090910D03A0910E03B0910F038093250C7C
:102A50009093260CA093270CB093280C8091F70339
:102A60009091F803A091F903B091FA0380935B0C65
:102A700090935C0CA0935D0CB0935E0C8091580316
:102A800090915903A0915A03B0915B038093150C68
:102A90009093160CA093170CB093180C8093190CFC
:102AA00090931A0CA0931B0CB0931C0C80916403A0
:102AB00090916503A0916603B091670380931D0C0C
:102AC00090931E0CA0931F0CB093200C80916C036C
:102AD00090916D03A0916E03B0916F038093210CD0
:102AE0009093220CA093230CB093240C8091E003CC
:102AF0009091E103A091E203B091E303F501848B8F
:102B0000958BA68BB78BDF91CF911F910F91FF9083
:102B1000EF90DF90BF90AF909F908F907F906F90DD
:102B20005F904F9008958091D50B811119C081E07D
:102B30008093D50B8091D60B9091D70BA091D80B99
:102B4000B091D90B0197A105B10551F48091DA0B31
:102B5000882331F08091DB0B9091DC0B0E942A02DC
:102B60008091010C81112EC081E08093010C809135
:102B7000020C9091030CA091040CB091050C0197EC
:102B8000A105B105F9F48091060C8823D9F067E01E
:102B900070E080E090E00E9471029093080C8093B6
:102BA000070C40E050E0BA010E943A0267E070E092
:102BB00080E090E00E9471029093080C8093070CD3
:102BC0000E9406038091F90B811103C081E080937C
:102BD000F90B8091F10B811103C081E08093F10B1F
:102BE0008091E90B811103C081E08093E90B089586
:102BF00060E070E080E89FE7089560E070E080E8C2
:102C00009FE7089560E070E080E89FEF089560E03E
:102C100070E080E89FEF089560E070E080EC9FEF47
:102C2000089560E070E080EC9FEF0895F5DF609319
:102C3000710C7093720C8093730C9093740CF1DF91
:102C40006093650C7093660C8093670C9093680C8E
:102C5000CFDF60936D0C70936E0C80936F0C90932C
:102C6000700CCBDF6093690C70936A0C80936B0CD3
:102C700090936C0CC7DF6093750C7093760C809307
:102C8000770C9093780CC3DF6093790C70937A0C77
:102C900080937B0C90937C0C0895CF92DF92EF92FF
:102CA000FF92CF936B017C01AC019B0160916D0C95
:102CB00070916E0C80916F0C9091700C0E94DC36BC
:102CC000C1E0882371F0A70196016091750C7091A5
:102CD000760C8091770C9091780C0E94DC368111F3
:102CE000C0E08C2FCF91FF90EF90DF90CF900895B0
:102CF0000F931F938B019C010027112720783F77AA
:102D00000115110520483F4749F4AB01BC016F771D
:102D1000772781E0452B462B472B09F480E01F9154
:102D20000F910895E5CF4F925F926F927F928F92AD
:102D30009F92AF92BF92CF92DF92EF92FF920F934A
:102D40001F93F8944090B4055090B5056090B60577
:102D50007090B705C090A805D090A905E090AA058D
:102D6000F090AB05452B09F0A4C09B01AC012419E0
:102D700035094609570929013A010091B00510911A
:102D8000B1052091B2053091B30548015901840C79
:102D9000951CA61CB71C80169106A206B306A0F4CB
:102DA0000091AC051091AD052091AE053091AF05B5
:102DB0000F5F1F4F2F4F3F4F0093AC051093AD0592
:102DC0002093AE053093AF058092B0059092B10587
:102DD000A092B205B092B3050091AC051091AD057B
:102DE0002091AE053091AF058092B8059092B9055B
:102DF000A092BA05B092BB050093BC051093BD0527
:102E00002093BE053093BF056093B4057093B5055C
:102E10008093B6059093B705A4ECB9E0A3019201A5
:102E20000E94A5456C0D7D1D8E1D9F1D6093A805FC
:102E30007093A9058093AA059093AB050091370480
:102E4000109138042091390430913A040F3F1F4FFC
:102E50002F4F3F4FF1F0009137041091380420912B
:102E6000390430913A040E3F1F4F2F4F3F4F89F0E6
:102E7000C0903704D0903804E0903904F0903A04C0
:102E800021E08C149D04AE04BF0408F420E02093DC
:102E9000C40578941F910F91FF90EF90DF90CF9031
:102EA000BF90AF909F908F907F906F905F904F906A
:102EB00008954B015C0184189508A608B708A30182
:102EC0009201261B370B480B590B641575058605B7
:102ED0009705D0F082169306A406B50640F420E0CC
:102EE00030E0A90181149104A104B10491F4A4EC8F
:102EF000B9E00E94A545A7019601261B370B480B98
:102F0000590BCA01B901C5CF82169306A406B506AE
:102F100070F7A4ECB9E0A50194010E94A5456C0DE1
:102F20007D1D8E1D9F1DB5CFFECECF93DF9300D0AC
:102F30001F92CDB7DEB71C821B821A8219821092B3
:102F4000C0051092C1051092C2051092C305BE01C2
:102F50006F5F7F4FCE0103960E94893469817A8129
:102F60008B819C810E94772D009761F4BE016F5F79
:102F70007F4FCE0103960E94953469817A818B81BF
:102F80009C812ED50F900F900F900F90DF91CF91D5
:102F90000895FF920F931F93CF93DF93082F60E064
:102FA00070E0CB010E94A93FFF24F3940E94602CA3
:102FB000EC01892B89F010E0CE3F8FEFD80769F044
:102FC000002361F160E070E0CB010E94A93F81E045
:102FD00090E0892B59F322C011E025D5EC01892B13
:102FE00021F0CE3F8FEFD80759F711111EC011E025
:102FF000229609F410E00E94102CEC01892B21F09C
:10300000CE3F8FEFD807E1F6111111C011E0CE3F8E
:103010008FEFD80709F410E001110BC0CE01DF914A
:10302000CF911F910F91FF90089511E0E4CF11E02F
:10303000F3CF60E070E0CB010E94A93F1F25812FF4
:1030400090E0C7CFCF93DF938091C405882321F010
:1030500060E070E0CB014CD635D6D0E0C0E0892BE3
:1030600071F06AE070E080E090E00E94A93F81E0AA
:1030700090DF28D62196C03D27E0D20781F727D6DA
:103080000E94CB2D1092DC051092DB051092D50525
:103090001092D6051092D7051092D8051092D1053E
:1030A0001092D2051092D3051092D4051092CD053E
:1030B0001092CE051092CF051092D0051092C9053E
:1030C0001092CA051092CB051092CC051092C5053E
:1030D0001092C6051092C7051092C8054EEF5FEF1B
:1030E0006FEF7FEF409337045093380460933904B7
:1030F00070933A041092C405E8EBF5E028E0DF0194
:103100001D922A95E9F71092B4051092B505109218
:10311000B6051092B7051092B0051092B105109245
:10312000B2051092B3051092AC051092AD05109245
:10313000AE051092AF051092A8051092A905109245
:10314000AA051092AB05DF91CF9108951092E80582
:103150001092E9051092EA051092EB051092E7052E
:103160008091F0059091F1059093E6058093E50537
:103170001092E4051092E3051092DF051092E0052D
:103180001092E1051092E2051092ED051092EC0507
:1031900090E080E00895CF92DF92EF92FF920F933C
:1031A0001F93CF938C01892B09F055C02091F00516
:1031B0003091F1058091E5059091E6054091F0058B
:1031C0005091F1055093E6054093E505281739071E
:1031D00081F01092E4051092E3051092DF05109241
:1031E000E0051092E1051092E2051092ED051092B3
:1031F000EC058091F0059091F105019761F58091C2
:10320000EC059091ED05892B21F480913B0481110F
:1032100012C08091EC059091ED050197E1F4809149
:10322000DF059091E005A091E105B091E2050197DD
:10323000A105B10581F41092DF051092E00510920E
:10324000E1051092E20510923B0482E090E0909339
:10325000ED058093EC058091F0059091F1050197C3
:1032600009F01CC18091060690910706801791070E
:1032700009F014C18091020690910306A091040602
:10328000B0910506009709F409C1209101062111AA
:103290000DC04091020650910306609104067091A2
:1032A0000506452B462B472B09F4F8C02091EC0569
:1032B0003091ED052230310509F0F0C02091E30591
:1032C0002111ECC0FC01C080D180E280F3808091AC
:1032D000E705882309F4D3C08091F3059091F405A4
:1032E000892B09F4FDC02091F3053091F40581E0AC
:1032F0002230310509F080E02091F3053091F4058A
:10330000C1E02130310549F02091F3053091F405F9
:10331000C1E02230310509F0C0E0882309F456C02D
:103320002091FD053091FE054091FF05509100066A
:10333000C701B6010E94CC3887FD14C02091FD055D
:103340003091FE054091FF05509100066091E8051F
:103350007091E9058091EA059091EB050E94DC36B9
:1033600087FD22C02091FD053091FE054091FF05AB
:1033700050910006C701B6010E94CC38181634F5EA
:103380002091FD053091FE054091FF05509100060A
:103390006091E8057091E9058091EA059091EB054F
:1033A0000E94DC36811112C08091F5059091F605DE
:1033B000A091F705B091F805892B8A2B8B2B19F476
:1033C00081E08093E40581E08093E305CC2309F458
:1033D00056C02091FD053091FE054091FF055091AA
:1033E0000006C701B6010E94DC3687FF14C0209199
:1033F000FD053091FE054091FF055091000660915A
:10340000E8057091E9058091EA059091EB050E942D
:10341000CC3887FF22C02091FD053091FE054091F8
:10342000FF0550910006C701B6010E94DC368111EC
:1034300026C02091FD053091FE054091FF05509179
:1034400000066091E8057091E9058091EA05909188
:10345000EB050E94CC38181694F48091F5059091F4
:10346000F605A091F705B091F805892B8A2B8B2BD7
:1034700019F481E08093E40581E08093E30581E025
:103480009091E305911180E08093E705C092E805F3
:10349000D092E905E092EA05F092EB05012B09F0E4
:1034A00067C18091EC059091ED05892BD9F41092BC
:1034B000F2051092E30580913B04882379F082E0C5
:1034C00090E09093ED058093EC0510923B042091E1
:1034D000F0053091F10581E0232BE9F080E01BC07D
:1034E00081E00ACF10923B048091F205882349F0D5
:1034F0001092E4051092ED051092EC051092F20581
:10350000EDCF8091F0059091F105892BE1F080914C
:10351000E3051092E3052091EC053091ED05223092
:10352000310509F45EC088F42115310509F448C05D
:103530002130310509F4F3C01092E4051092E3053F
:103540001092F20538C081E0E6CF2330310509F44E
:10355000B1C02430310581F74091DF055091E0057D
:103560006091E1057091E205411551056105710514
:1035700061F041505109610971094093DF05509391
:10358000E0056093E1057093E2054091DF055091FD
:10359000E0056091E1057091E205452B462B472B34
:1035A000D9F42091EE053091EF052130310509F075
:1035B00046C01092E4051092ED051092EC050CC087
:1035C00080913B04882341F082E090E09093ED05E8
:1035D0008093EC0510923B041092DD058091E40588
:1035E000CEC08823C9F38091F5059091F605A0918E
:1035F000F705B091F805181619061A061B060CF007
:103600007DC08091F0059091F105019709F076C099
:103610008091F5059091F605A091F705B091F80518
:103620008093DF059093E005A093E105B093E20558
:1036300083E090E09093ED058093EC05CDCF409131
:10364000F9055091FA056091FB057091FC05452B39
:10365000462B472BA9F01092E4058091F905909133
:10366000FA05A091FB05B091FC058093DF059093CE
:10367000E005A093E105B093E20581E090E0DACFA8
:10368000882399F080913C0490913D04A0913E04E0
:10369000B0913F048093DF059093E005A093E1058E
:1036A000B093E20584E090E0C5CF1092E40582E09B
:1036B00090E0C0CF8091DF059091E005A091E105F9
:1036C000B091E2050097A105B10559F00197A10954
:1036D000B1098093DF059093E005A093E105B093D5
:1036E000E2058091DF059091E005A091E105B091A0
:1036F000E205892B8A2B8B2B09F06ECF80913C043D
:1037000090913D04A0913E04B0913F04892B8A2BF7
:103710008B2B09F44ECF81E08093E405B3CF409129
:10372000DF055091E0056091E1057091E2054115DA
:1037300051056105710561F0415051096109710937
:103740004093DF055093E0056093E1057093E20537
:103750004091DF055091E0056091E1057091E2052F
:10376000452B462B472B09F037CF8111C7CF9FCF71
:103770008091DD05882309F431CF8091DE05CF915A
:103780001F910F91FF90EF90DF90CF9008951092CE
:10379000E8051092E9051092EA051092EB051092E7
:1037A000E7051092ED051092EC051092E6051092D7
:1037B000E50510920706109206061092E405109295
:1037C000E3051092DF051092E0051092E1051092DA
:1037D000E2051092DE051092DD05109202061092AD
:1037E000030610920406109205061092010610922C
:1037F000FD051092FE051092FF051092000688EE5E
:1038000093E0A0E0B0E080933C0490933D04A0934B
:103810003E04B0933F041092F9051092FA051092FD
:10382000FB051092FC051092F5051092F60510921A
:10383000F7051092F8051092F4051092F30581E057
:1038400080933B041092F2051092F1051092F0055E
:103850001092EF051092EE0590E080E008958091BF
:10386000F0059091F105892B19F580913B0488238F
:1038700051F08091F205811106C081E08093DE0550
:103880008093DD0508952091F20530913B0481E09D
:1038900090E0332311F090E080E030E08223932326
:1038A000892B21F01092DE0581E0EACF1092DD0530
:1038B000089582E090E0FA01918380838FEF9FEF7B
:1038C0000895CF93DF93EA01009711F00E94EB2E49
:1038D0001982188290E080E0DF91CF910895DB019A
:1038E000009719F48FEF8C9308952EEF2C93FC0121
:1038F0003F96EF30F10508F034C08827ED57F34EBE
:103900008F4F0C948E45AF1CAD1CAB1CA91CA71C83
:10391000A31CA51CA11C9F1C9D1C9A1C961C921CE0
:10392000981CB11C80E311968C93089589E2FBCF1B
:1039300082E2F9CF11961C92089583E2F4CF81E2DE
:10394000F2CF81E1F0CF87E2EECF8AE2ECCF80E1E7
:10395000EACF84E2E8CF88E2E6CF86E2E4CF81E3F3
:10396000E2CF80E2E0CF8091140690911506089591
:103970009093150680931406089580911306089578
:1039800090911306892B809313060895982F909594
:10399000809113068923809313060895809112065F
:1039A0000895809110069091110608956115710592
:1039B00059F0FB0130E020E070E060E024173507AB
:1039C00019F06115710511F0CB010895A081B18145
:1039D000A817B90709F4BF012F5F3F4F3696EECF06
:1039E0008091160681111CC060D266D290930906A0
:1039F000809308060E94F7260E94092790930D06DF
:103A000080930C060E94782B0E947F2B90930B06CC
:103A100080930A0681E08093160690E080E0089586
:103A200084EF9FEF08958F929F92AF92BF92CF92B3
:103A3000DF92EF92FF920F931F93CF93DF9300D00B
:103A400000D000D01F92CDB7DEB71A86198618862F
:103A50001F821E821D821C821B821A821982809103
:103A6000160607EF1FEF882309F49CC08E010D5F37
:103A70001F4F9E012B5F3F4FAE01495F5F4FBE015D
:103A8000675F7F4F90E080E00E94FC2C8C010097E4
:103A900021F00596029708F0DBC029853A852115AB
:103AA000310509F402C1ED80FE804B815C81B701D4
:103AB000640F751F8F8198858617970708F4F5C0E6
:103AC000E20EF31ED7019C91903C09F07FC042307A
:103AD000510508F47BC011968C91409114065091C9
:103AE0001506452B09F49CC0913F08F071C02CE1EC
:103AF000290F2D3008F48BC02DE2290F203108F456
:103B000089C0903C21F48150823008F483C088E35E
:103B1000890F8B3008F481C09FE6C92E9CE1D92E15
:103B2000E9E5FCE16D817E81AE014F5F5F4F8985E4
:103B30009A8519955C01C114D104A1F189809A80FC
:103B40008114910479F18B819C818815990508F481
:103B500087C010E000E04B815C8170E060E0C7014D
:103B60000E94B84501151105E9F449815A8169851A
:103B70007A858D819E81680F791FC501F60119959F
:103B8000E980FA800D811E812F81388549855A850B
:103B90006FEF7FEF81E090E00E94972C8C01892BE2
:103BA00009F056C0C8012A960FB6F894DEBF0FBEC2
:103BB000CDBFDF91CF911F910F91FF90EF90DF90DC
:103BC000CF90BF90AF909F908F90089580E085CF69
:103BD00030E020E0220F331FF901E85FF94F019038
:103BE000F081E02D309709F497CF892F90E0199557
:103BF000009709F491CFDC011296ED91FC91139797
:103C00001496CD90DC90309709F08CCF1FC021E046
:103C100030E0E0CF22E030E0DDCF23E030E0DACF6B
:103C2000D12CC12CE1E6FCE19F3F09F07BCFE09174
:103C30000806F0910906309721F4C90104EF1FEF3F
:103C40000CC08FEF90E019950097A9F604EF1FEFD5
:103C500089859A85009709F4A5CF0E94EB2EA2CF03
:103C60000E94C62D8C0189859A850E94EB2E70E0FA
:103C700060E0C4010E945F2D98878F830E94942C7E
:103C80009E838D836F8178856115710559F0C80118
:103C90000E9477309A87898706EF1FEF892B09F0FA
:103CA00058CF59CF08EF1FEF56CF08EF1FEFD0CFF7
:103CB00020911606222319F020E00C940E2787EF9E
:103CC0009FEF0895809114069091150608950E9423
:103CD000842B0E94DE2AF5D0E8E0F6E088E0DF01E0
:103CE0001D928A95E9F71092160690E080E00895FB
:103CF0000C943C2921E040E050E0BA010C940E27DE
:103D000086E090E0FA019183808390E080E008955E
:103D100047E050E06FE974E049CEDF92EF92FF9206
:103D20000F931F93CF93DF938A01EC01C60FD71F28
:103D3000E0901A06F0901B06D9800E94AE2DD8168E
:103D4000190678F082E090E0F801918380838EEF8D
:103D50009FEFDF91CF911F910F91FF90EF90DF9038
:103D60000895EF2841F482E090E0F8019183808388
:103D700084EF9FEFEECF89818093190690E0019642
:103D8000F8019183808390E080E0E3CFCF93DF93CD
:103D9000EA010E94ED29882321F00E94BB2D0E9498
:103DA000EE2982E090E0998388838BEF9FEFDF918B
:103DB000CF910895CF93DF93EB0186E0FB01119241
:103DC0008A95E9F78FEF8883D8DD8983E7DD8A83D9
:103DD000E8DD9D838C83DF91CF910895CF93DF93AE
:103DE000EA010E94F029811109C082E090E09983E4
:103DF000888385EF9FEFDF91CF91089590E080E079
:103E0000B7DD81E090E09983888390E080E0F3CF94
:103E10000F931F93CF93DF93EA018C01060F171FB7
:103E20000E94F02981110BC082E090E09983888381
:103E300085EF9FEFDF91CF911F910F910895F801CA
:103E40008181823038F082E090E0998388838EEF20
:103E50009FEFF0CF81E090E08BDD88E090E09983E8
:103E6000888390E080E0E6CFCF93DF930097D1F492
:103E7000EB01FB01329686E0DF011D928A95E9F79E
:103E80008FEF888385E089831A820E94AE2D8B8311
:103E90000E94AD2D9D838C8381E08E838F83DF9183
:103EA000CF910895DF91CF911ACD88E89EE190934C
:103EB00018068093170608958091170690911806AA
:103EC00008951092180610921706089580911A0608
:103ED00090911B060895411105C06115710581057A
:103EE000910561F060931A0670931B0680931C067F
:103EF00090931D0640931E0681E0089580E008958A
:103F0000FF920F931F93CF93DF938A01EC01C60FAB
:103F1000D71FF9800E94AE2DF816190668F082E0CE
:103F200090E0F801918380838EEF9FEFDF91CF9136
:103F30001F910F91FF9008956C817D818E819F81EB
:103F40004B81C9DF811108C082E090E0F8019183C4
:103F5000808384EF9FEFEACF89818093190690E0F8
:103F60000196F8019183808390E080E0DFCFCF93CA
:103F7000DF93EA01FC01E60FF71F648175818681FA
:103F800097814381A8DF811109C082E090E0998385
:103F9000888384EF9FEFDF91CF91089581E090E0D7
:103FA0009983888390E080E0F6CFEAE1F6E04081F3
:103FB000518162817381480F511D611D711D4083C4
:103FC0005183628373830895CF93C09119064C2F58
:103FD00050E060911A0670911B0601960E94AF4551
:103FE0008C2FE3DF10921906CF910895009799F472
:103FF00080911A0690911B062FEFFB012083892BDD
:1040000059F02091190630E02F5F3F4F24173507F4
:1040100019F4CB01D9CF63CC0895009799F480911E
:104020001A0690911B062FEFFB012083892B59F074
:104030002091190630E02F5F3F4F2417350719F400
:10404000CB01C2CF4CCC089523E1AC01249FC00129
:10405000259F900D1124E0912306F0912406E80F8E
:10406000F91F238134812250310981E0223031054A
:1040700008F080E008950F931F93CF93DF93009192
:10408000250610912606D0E0C0E080E00C171D0741
:1040900049F491E0811190E0892FDF91CF911F9138
:1040A0000F9108958111F5CFCE01CEDF2196EECF8D
:1040B000A0912306B0912406109729F1209125069E
:1040C0003091260682179307F0F453E1589F900130
:1040D000599F300D1124A20FB31FED91FC91119740
:1040E000309789F012968C91681768F48BE0689F7E
:1040F000E00DF11D112480819181892B21F081E057
:104100009281491708F080E008959C0143E1429FA5
:10411000C001439F900D1124E0912306F0912406E5
:10412000E80FF91F8385823091F481E090E065818A
:10413000768140914004509141046417750711F451
:1041400090E080E0892B19F081E0232B09F080E0DA
:104150000895EF92FF920F931F93CF93DF93EA019D
:10416000FC01E60FF71F02811381E480F5804F2DDB
:104170006E2DC8019DDF81110DC082E090E0998312
:1041800088838EEF9FEFDF91CF911F910F91FF906A
:10419000EF900895C80158DF882339F082E090E05D
:1041A0009983888388EF9FEFEECF109347040093A5
:1041B0004604E0924804F092490481E090E099833B
:1041C000888390E080E0DFCFCF92DF92EF92FF9282
:1041D0000F931F93CF93DF937A01EC01C60FD71F84
:1041E000C0904604D09047040091480410914904BF
:1041F000412F602FC6015CDF811110C082E090E08A
:10420000F701918380838AEF9FEFDF91CF911F9118
:104210000F91FF90EF90DF90CF900895C60114DFCB
:10422000882341F082E090E0F7019183808388EF5A
:104230009FEFEBCF4C815D816E817F819A81898177
:104240008F3F41F082E090E0F701918380838EEF11
:104250009FEFDBCFE3E1EC9D9001ED9D300D11244C
:10426000E0912306F0912406E20FF31F0190F08104
:10427000E02D2BE0029FE00DF11D11240190F08153
:10428000E02D27E0129FE00DF11D11248083918322
:104290008B81828343835483658376831F5F10936E
:1042A000490481E090E0F7019183808390E080E011
:1042B000ACCFEF92FF920F931F93CF93DF937A01CE
:1042C0008C01060F171FC0912306D091240620975A
:1042D00081F021E030E0F801828193814091250650
:1042E000509126068417950710F030E020E0232B2C
:1042F00071F482E090E0F701918380838EEF9FEF6D
:10430000DF91CF911F910F91FF90EF90089543E1BE
:10431000489F9001499F300D1124C20FD31F94DE96
:10432000882341F082E090E0F7019183808388EF59
:104330009FEFE6CFF8012481358120383105C8F69A
:1043400087818111D6CF4181842F90E08F7E0097A5
:1043500041F082E090E0F7019183808386EF9FEF48
:10436000CFCF4F833E832D83268128871986223025
:1043700010F421E0288721E030E0F7013183208329
:10438000BFCF88E090E0FA019183808390E080E0E5
:104390000895FB018FEF808381E181838FEF9FEF91
:1043A0009383828380E890E09583848316821782CA
:1043B0000895FB018FEF808391E091838283938343
:1043C000848384E3858381E090E0978386830895E6
:1043D000DF92EF92FF920F931F93CF93DF93EA0147
:1043E000FC01E60FF71F8181813071F082E090E0DF
:1043F000998388838FEF9FEFDF91CF911F910F916A
:10440000FF90EF90DF90089582819381D480258181
:10441000E680F7800091230610912406011511050E
:1044200039F482E090E0998388838CEF9FEFE4CFAA
:1044300040912506509126068417950738F082E0B2
:1044400090E0998388838EEF9FEFD6CF892B39F048
:1044500082E090E09983888386EF9FEFCDCF8D2D0A
:104460008D7FB1F72130A1F781E0D11006C091E036
:10447000E916F10431F080E004C0E2E0EE16F10448
:10448000D0F3882329F390E080E0DEDD882339F043
:1044900082E090E09983888388EF9FEFADCFF801A9
:1044A000D38681E08487F686E586108A178681E0C8
:1044B00090E09983888390E080E09ECF4CE050E0CC
:1044C00069EC74E073CA8F929F92BF92CF92DF9291
:1044D000EF92FF920F931F93CF93DF93EA01FC01BA
:1044E000E60FF71F828193810481B580E091230656
:1044F000F0912406309791F482E090E099838883CC
:104500008CEF9FEFDF91CF911F910F91FF90EF9074
:10451000DF90CF90BF909F908F90089520912506B7
:10452000309126068217930738F082E090E0998355
:1045300088838EEF9FEFE6CF23E1289F6001299FBC
:10454000D00C1124EC0DFD1DE080F180E114F1048C
:1045500099F28281081748F78BE0089F80011124A7
:10456000E00EF11EF70180819181892B29F6BB2095
:10457000E1F2F7E0BF9E40011124C4010E94B22E77
:10458000F70191838083E0912306F0912406EC0DDE
:10459000FD1D0190F081E02DE00FF11F80819181E0
:1045A000009739F482E090E0998388838DEF9FEF44
:1045B000A9CFA40170E060E00E94B8458091230675
:1045C00090912406C80ED91EF60180819181080FB2
:1045D000191FF801B28281E090E09983888390E00E
:1045E00080E090CFAF92BF92CF92DF92FF920F9375
:1045F0001F93CF93DF93EA01FC01E60FF71F82813F
:104600009381F48000912306109124060115110571
:1046100081F482E090E0998388838CEF9FEFDF91B3
:10462000CF911F910F91FF90DF90CF90BF90AF90EF
:10463000089520912506309126068217930738F0B9
:1046400082E090E0998388838EEF9FEFE8CF2FEF91
:104650002F0D2C3FA8F723E1289F6001299FD00C44
:1046600011240C0D1D1DF80180819181892B89F683
:10467000FBE0FF9E50011124C5010E94B22EF801FB
:1046800091838083E0912306F0912406EC0DFD1DBB
:1046900080819181009739F482E090E0998388834A
:1046A0008DEF9FEFBCCFA50170E060E00E94B845A0
:1046B000E0912306F0912406EC0DFD1DF28281E0CD
:1046C00090E09983888390E080E0A9CFCF92DF9239
:1046D000EF92FF920F931F93CF93DF93860F971F55
:1046E000FC01028113818091230690912406892B7D
:1046F00081F082E090E0FA01918380838CEF9FEF5C
:10470000DF91CF911F910F91FF90EF90DF90CF90AD
:104710000895C801B0E0A0E00197A109B1098F3F59
:104720009F4FA105B10540F082E090E0FA0191832E
:1047300080838EEF9FEFE4CF7A0183E1809F600159
:10474000819FD00C1124C6010E94B22EEC0100976B
:1047500041F482E090E0F701918380838DEF9FEF39
:10476000CFCFA60170E060E00E94B845D093240648
:10477000C0932306109326060093250690E080E060
:104780002FEF3FEF41E061E070E08017910741F4C7
:1047900081E090E0F7019183808390E080E0B0CFEA
:1047A0003A8B298B1B864C877E876D87188A1F86DC
:1047B00001966396EACFCF92DF92EF92FF920F932A
:1047C0001F93CF93DF93EC01D12CC12C10E000E0BC
:1047D000F12CE12C6A816017110609F0CCF483E01A
:1047E000689FB0011124AE014F5E5F4FC7010E9468
:1047F000172F009721F02FEF3FEF3A8B298BDF9196
:10480000CF911F910F91FF90EF90DF90CF9008957F
:10481000E881F981EC0DFD1D438154818D859E85D4
:10482000489F9001499F300D589F300D1124C901B8
:1048300001960115110519F44F8144FD049661E0BC
:1048400070E00E945F2DE816F90608F47C010F5F06
:104850001F4F8BE0C80ED11CBDCFF89420912106CC
:104860003091220681E02115310509F080E0232BEB
:1048700009F0789408952F923F924F925F926F9231
:104880007F928F929F92AF92BF92CF92DF92EF92E0
:10489000FF920F931F93CF93DF933C01660E771E19
:1048A000F301828193814C01B12CA12CC09123068C
:1048B000D0912406209769F021E030E06091250630
:1048C000709126068617970710F030E020E0232B22
:1048D000D1F482E090E0FA01918380838EEF9FEF24
:1048E000DF91CF911F910F91FF90EF90DF90CF90CC
:1048F000BF90AF909F908F907F906F905F904F9000
:104900003F902F90089580924A0490924B04A09279
:104910004C04B0924D0463E1689F9001699F300D93
:104920001124C20FD31FF3018181833040F082E054
:1049300090E0FA019183808386EF9FEFD1CF2A0127
:104940002B813C81232BF1F4288139819F8191FFB8
:104950002EC0232B09F46FC0209128069A81422F84
:10496000490F5527551FBA0141E050E061387105E4
:1049700014F050E040E0452B09F45DC02A87920F07
:10498000909328068150823008F481C066DF882326
:1049900009F4D8C0F3018181813009F48DC008F495
:1049A0007BC0823009F4C6C090E080E0ADC0232B0C
:1049B00009F441C0209127069A81E22FE90FFF27D1
:1049C000FF1F41E050E0ED3FF10514F050E040E002
:1049D000452B89F12A87920F90932706D3CFA08188
:1049E000B181A20FB31F11966C91060F111D019694
:1049F000295F3F4F8417950794F38D859E85089F07
:104A00001001099F300C189F300C1124C114D104DF
:104A1000D1F48F8184FF17C00E94AD2DF5E02F0ED9
:104A2000311C21E08215930508F420E0A701455FC1
:104A30005F4F21110EC082E090E0F20191838083EC
:104A400087EF9FEF4DCF0E94AD2D2FEF221A320A34
:104A5000E8CF88819981E80EF91EF701148303835A
:104A6000FFEFCF1ADF0A7A018A818C151D0409F045
:104A70000CF48CCFE881F981EE0DFF1D428150E0EE
:104A800030E020E010E000E090E080E0B3CFF12CD7
:104A9000E12CD12CC12CE8CF81E090E09C838B836A
:104AA000EADA882309F480CF81E090E00E94B81C04
:104AB00080E40E94C61C78CF89899A89019661F0AA
:104AC00083E090E09C838B8382E090E00E94B81C9E
:104AD00080E40E94C01C68CF8D819E81209140049B
:104AE0003091410482179307D1F46091440470918E
:104AF0004504AE014F5E5F4F8091420490914304A4
:104B00000E9436300097E1F2789422E030E0F20122
:104B100031832083892B99F08DEF9FEFE1CE892897
:104B20008A288B2869F6892B59F6CE0144DE188A2B
:104B30001F86E8CF82E090E09C838B8335CF90E0A6
:104B400080E0CECE82E090E0F2019183808385EF19
:104B50009FEFC6CE8F929F92AF92BF92CF92DF927D
:104B6000EF92FF920F931F93CF93DF93EA018C0193
:104B7000060F171FF8018181833098F082E090E0E2
:104B80009983888386EF9FEFDF91CF911F910F91DB
:104B9000FF90EF90DF90CF90BF90AF909F908F905D
:104BA00008958091230690912406892B61F081E07D
:104BB00090E02091250630912606232B11F490E0F9
:104BC00080E0892B39F482E090E0998388838EEF2E
:104BD0009FEFDACF42DE882309F4DFC0F80181813C
:104BE000813009F495C0E8F0823099F420912506CF
:104BF00030912606E0912306F091240690E080E0B3
:104C000041E050E02817390709F0BDC034DA8111BE
:104C100017C0789481E090E09983888390E080E0E9
:104C2000B3CF2091250630912606E0912306F0911E
:104C3000240690E080E041E050E02817390741F475
:104C400081E090E00E94B81C80E40E94C61CE1CF85
:104C500063817481672B11F05483438301967396AB
:104C6000ECCFE0912306F0912406E00FF11F2381A1
:104C7000348122303105D9F4218932892F3F3F4FC9
:104C8000B1F42581368140914004509141042417AC
:104C9000350761F5AF014F5E5F4F6091440470913D
:104CA000450480914204909143040E943630EFEF16
:104CB000CE1ADE0AEE0AFE0A0D5E1F4F409125064F
:104CC0005091260670E060E0C416D506E606F706A9
:104CD0003CF5009731F27894892B09F49BCF82E060
:104CE00090E0998388838DEF9FEF4ECFC114D1045C
:104CF000E104F104E1F6232BD1F6CF015CDDE09174
:104D00002306F0912406E00FF11F108A1786CFCFFB
:104D100010E000E090E080E0C12CD12C7601CECFF5
:104D20000097C9F610E000E0812C912C540183E03B
:104D3000E82EF12C1AC0E0912306F0912406E00F32
:104D4000F11F83819481029749F4F482E38282E027
:104D500090E00E94B81C80E40E94C01CFFEF8F1AF4
:104D60009F0AAF0ABF0A0D5E1F4F809125069091E2
:104D70002606B0E0A0E088169906AA06BB06DCF27B
:104D800090E080E0A8CF638174816230710511F4F6
:104D9000548343830196739635CF82E090E09983E4
:104DA000888385EF9FEFF0CE0097B9F48FEFFB017A
:104DB000808320914A0430914B0443E1429FC0011B
:104DC000439F900D1124E0912306F0912406E80FF3
:104DD000F91F8285FB01818308950C946F1C88E084
:104DE00090E0FA019183808390E080E00895109232
:104DF000220610922106E3E2F6E086E0DF011D9232
:104E00008A95E9F78EE592E29093200680931F063B
:104E1000089580911F069091200608952F923F9249
:104E20004F925F926F927F928F929F92AF92BF92BA
:104E3000CF92DF92EF92FF920F931F93CF93DF9366
:104E4000CDB7DEB760970FB6F894DEBF0FBECDBF0B
:104E5000F894E0912106F09122063196F093220613
:104E6000E09321067894A0912306B0912406BA839A
:104E7000A983109709F4FAC1E0912506F09126065E
:104E8000EF2B09F4F3C128874B875C876D877E87FA
:104E90009A878987B88BAF87312C212CF12C512C24
:104EA000412C80912506909126062816390610F48B
:104EB000FF2029F1F8948091210690912206019714
:104EC00090932206809321067894C20160960FB6D3
:104ED000F894DEBF0FBECDBFDF91CF911F910F9130
:104EE000FF90EF90DF90CF90BF90AF909F908F900A
:104EF0007F906F905F904F903F902F900895B101F9
:104F000090E080E088D4682EEF85F889878181FD64
:104F10003DC0838194810397C9F5258136813C8307
:104F20002B8389859A852817390781F5C101EDD82A
:104F3000782E8823A9F1AF85B8891F968D919C9111
:104F40005097019621E01D964D915C91841795072D
:104F500009F020E02F83B12CA12CEF85F889828104
:104F60008A151B0419F014F0FF20E9F0F885FF23DF
:104F700009F46CC1AF85B88950961C921E921F9798
:104F8000662021F0B10190E080E047D4FFEF2F1AB6
:104F90003F0A2F8538892D5E3F4F388B2F8781CF71
:104FA000B1E0BF83D8CFC0D49E838D83E885EE2344
:104FB000E9F0772009F43CC1AF85B8891F968D913F
:104FC0009C91892B79F0BBE0BA9DC001BB9D900DEF
:104FD0001124AF85B889ED91FC91E80FF91F858107
:104FE0009681F9D6BFEFAB1ABB0AB7CF81E0772025
:104FF00039F0EF85F88927853089232B09F080E087
:10500000F82EE12CA114B10439F4AF85B8891796B4
:10501000EC90E4FAEE24E0F8BBE0BA9D6001BB9DA1
:10502000D00C1124882309F424C1AF85B889ED91EF
:10503000FC911197EC0DFD1D438154811D962D911E
:105040003C91429FC001439F900D529F900D1124AF
:10505000E1105DC001969087878361E070E08781F1
:1050600090852DD5EF85F8892189328900811181BC
:105070000C0D1D1D2F3F320709F44BC0BC01C901A7
:105080000E947730D80116969C938E931597AF8522
:10509000B889ED91FC911197EC0DFD1D05811681EC
:1050A0000115110509F4CDC0ED81FE810E0F1F1F02
:1050B0001A968C918A0DD8018C93E1102FC00F5F46
:1050C0001F4FAF85B889ED91FC91EC0DFD1D128746
:1050D0000187AF85B889ED91FC91EC0DFD1D8581AF
:1050E0009681892B09F4A4C08091400490914104D9
:1050F0002B813C812817390709F465C0772011F00E
:1051000001851285912C812C1A8219824AC005963C
:10511000A2CF28D6F80196838583B9CF8B859C854D
:10512000AD85BE85F80181839283A383B4830B5F31
:105130001F4FC7CFE080F180E80CF91CD701139610
:105140006D917C9114978C918F3F09F473C0E1E0CD
:10515000F0E002C0EE0FFF1F8A95E2F7CF01092EA3
:10516000000CAA0BBB0BFB01408151816281738152
:1051700084239523A623B72321E0892B8A2B8B2B0D
:1051800009F420E0D8012C93D70111968C91080FD7
:10519000111DE981FA813196FA83E983F7E08F0ED8
:1051A000911CAF85B889ED91FC91EC0DFD1D8281BC
:1051B00029813A818217130611F00CF0BBCF7720BA
:1051C00011F0128701873F81332391F1AF85B889B0
:1051D000ED91FC91EC0DFD1D61E070E08781908503
:1051E0006ED4AF85B889ED91FC91EC0DFD1DE78083
:1051F000F08445815681E1E0F0E0662011F0F0E0B6
:10520000E0E00D811E819C01B101882799278E1B4A
:105210009F0B8DD32C01892B59F0EF85F889808164
:105220009181C80ED91ED60115968D919C91D3D52A
:10523000F12CD8CEF701418150E0C8010E94AF4562
:10524000A3CF86EF482E55245A94CCCEEF85F8890B
:10525000878590890196908B87872585368582176B
:10526000930709F08DCE108A17868ACE512C412CD7
:1052700021CE10E000E02DCF2F923F924F925F920F
:105280006F927F928F929F92AF92BF92CF92DF9256
:10529000EF92FF920F931F93CF93DF93809123069A
:1052A0009091240610E000E0892BA9F0D6DA0AEFED
:1052B0001FEF882381F02090250630902606C091AC
:1052C0002306D0912406D12CC12C10E000E02C1430
:1052D0003D04A9F47894C801DF91CF911F910F91FB
:1052E000FF90EF90DF90CF90BF90AF909F908F9006
:1052F0007F906F905F904F903F902F900895C601E0
:105300000E948520882309F18B819C810397E9F411
:105310008F859889892BC9F0B60190E080E07BD217
:1053200021E030E0882311F030E020E044245524CF
:10533000421A530AB12CA12C912C812C8A818815F8
:10534000190409F038F4188A1F864FEFC41AD40ADA
:105350006396BDCFE881F981EA0DFB1D85819681B9
:10536000892BA1F161E070E087819085A8D33C0191
:10537000DBD28C01E881F981EA0DFB1D81859285E4
:1053800025813681200F311FAC01421B530B9A013E
:1053900047815085421B530B70E060E00E94B84586
:1053A000E881F981EA0DFB1DE780F0844581568193
:1053B0009301B601C201BBD28C01892B39F0E8817F
:1053C000F981EA0DFB1D8581968105D55FEF851A70
:1053D000950A8BE0A80EB11CB1CF3FCA789408950E
:1053E0002F923F924F925F926F927F929F92AF92D5
:1053F000BF92CF92DF92EF92FF920F931F93CF93C2
:10540000DF9300D000D0CDB7DEB700912306109116
:105410002406992493940115110509F43EC0A09027
:105420002506B090260619DA982E8823B1F110923D
:10543000240610922306109226061092250610923A
:105440002706109228068FEF9FEFDC0180934A0415
:1054500090934B04A0934C04B0934D0478947FD365
:105460001E830D83C12CD12C7601C501B0E0A0E0D4
:1054700089839A83AB83BC8322242A94322C89812A
:105480009A81AB81BC81C816D906EA06FB06F4F006
:10549000C801A1D480E40E94C61C892D26960FB6AF
:1054A000F894DEBF0FBECDBFDF91CF911F910F915A
:1054B000FF90EF90DF90CF90BF90AF909F907F9044
:1054C0006F905F904F903F902F900895AD81BE8177
:1054D00015968D919C91169720914004309141042E
:1054E00082179307D1F451968D919C91EED5ED8161
:1054F000FE8180819181B12CA12C412C512C320153
:10550000892B89F5BFEFCB1ADB0AEB0AFB0AED8189
:10551000FE817396FE83ED83B2CFC114D104E10402
:10552000F10429F7892B19F7ED81FE818189928990
:105530008F3F980709F029D5AD81BE8152963C92E4
:105540002E925197D4CF8A0D9B1DDC018D919C9199
:10555000009709F040D4BFEF4B1A5B0A6B0A7B0A35
:10556000EBE0AE0EB11CAD81BE818D919C91119787
:1055700012964C9150E070E060E0441655066606C5
:1055800077060CF328D4BECFCF93DF93EA0128DF50
:10559000811109C082E090E09983888385EF9FEFB5
:1055A000DF91CF91089581E090E00E94B81C81E0E6
:1055B00090E09983888390E080E0F2CF11DF109231
:1055C000200610921F06089542E050E061E175E068
:1055D0000C94D61CFF920F931F93CF93DF938A01F5
:1055E000EC01C60FD71FF980B9D20897F816190633
:1055F00071F068F082E090E0F801918380838EEF93
:105600009FEFDF91CF911F910F91FF9008956C81D3
:105610007D818E819F814B810E946B1F811108C00B
:1056200082E090E0F8019183808384EF9FEFE9CFDF
:10563000F9800E94661F4F2D50E0BE01685F7F4FCA
:105640000E94AF4589810E94D51F81E090E0F8015A
:105650009183808390E080E0D4CFDF92EF92FF923D
:105660000F931F93CF93DF938A01EC01C60FD71FCF
:105670000E94661F7C01D98071D2DD2059F002970B
:1056800021E030E0D816190619F010F030E020E0E3
:10569000232B79F482E090E0F801918380838EEFF0
:1056A0009FEFDF91CF911F910F91FF90EF90DF90CF
:1056B0000895EF2841F482E090E0F801918380831F
:1056C00084EF9FEFEECFF9800E94661F4F2D50E0D0
:1056D000BE016E5F7F4F0E94AF4589810E94D51F3A
:1056E00081E090E0F8019183808390E080E0D9CF61
:1056F00084EE9AE290932A06809329060895809179
:10570000290690912A0608950895FC0111821082BD
:10571000938382830895DB011D921C92DC01129613
:10572000ED91FC9113977183608313967C936E9334
:1057300012970895FC0180819181DB018D939C93E8
:10574000A081B181109741F08D919C9191838083CC
:10575000892B11F4F383E2830895FC018081918108
:10576000DB018D939C93892B11F473836283718386
:1057700060830895FC0111821082938382830895CF
:10578000CF93DF931F921F92CDB7DEB71A82198293
:10579000F894BE016F5F7F4F80E396E0CBDF898195
:1057A0009A81009709F017D389819A81892B89F70B
:1057B000BE016F5F7F4F84E396E0BCDF89819A81F1
:1057C000009709F008D389819A81892B89F7789409
:1057D0000F900F90DF91CF910895CF93DF931F9299
:1057E0001F92CDB7DEB71A821982F894BE016F5F9F
:1057F0007F4F8CE296E09EDF89819A81009709F0C5
:10580000EAD289819A81892B89F778940F900F9039
:10581000DF91CF91089581E0089590E080E00895B0
:10582000EF92FF920F931F93CF93DF931F921F92DC
:10583000CDB7DEB71A82198280912B0607EF1FEFD2
:105840008823A1F1F894BE016F5F7F4F84E396E057
:1058500071DF789489819A81EE24E394F12C892B6D
:1058600051F4F894BE016F5F7F4F80E396E062DFF2
:105870007894F12CE12C89819A810EEF1FEF00972B
:10588000A9F0FC014281538164E070E076D68C017E
:10589000892B61F0F89469817A81C701880F991F7B
:1058A000880F991F805D994F58DF7894C8010F9039
:1058B0000F90DF91CF911F910F91FF90EF9008957E
:1058C0000F931F93CF93DF9300D01F92CDB7DEB716
:1058D0001C821B821A82198280912B0607EF1FEF10
:1058E0008823C1F0AE014D5F5F4F64E070E0CE01F0
:1058F0000196B6D68C01892B69F4E981FA818B81F6
:105900009C8193838283F89469817A818CE296E00A
:1059100002DF7894C8010F900F900F900F90DF91E5
:10592000CF911F910F910895BBD7049608958F9240
:105930009F92AF92BF92CF92DF92EF92FF920F931E
:105940001F93CF93DF931F921F92CDB7DEB71A82BA
:105950001982BC016F5F7F4F6330710598F0AA24F4
:10596000AA94BA2CC5010F900F90DF91CF911F918F
:105970000F91FF90EF90DF90CF90BF90AF909F90EE
:105980008F9008954115510551F3480159018A013D
:105990006C01CADF8815990511F7E114F104F9F2D9
:1059A0008E0D9F1DA816B906D0F280912B06882374
:1059B000F1F0F894B501645071099701AE014F5FA1
:1059C0005F4FC8010496E1D65C01892B71F489818F
:1059D0009A81F80193838283C601880F991F880FEB
:1059E000991FB801805D994F96DE7894BBCF87EF01
:1059F000A82EBB24BA94B6CFAF92BF92CF92DF92BB
:105A0000EF92FF920F931F93CF93DF931F921F92FA
:105A1000CDB7DEB71A821982892B09F047C061150C
:105A2000710509F443C04115510509F43FC0211522
:105A3000310509F43BC001151105C1F180912B0618
:105A40008823B9F179016A015B01F894BE016F5FA7
:105A50007F4F8CE296E06EDE789489819A81009780
:105A600059F1DC0112966D917C91A8010496A6D69D
:105A70008C01E981FA81D501ED93FC9382819381B8
:105A80000496F601918380834FDFD7018D939C9319
:105A9000C8010F900F90DF91CF911F910F91FF9050
:105AA000EF90DF90CF90BF90AF9008950FEF1FEF72
:105AB000EFCF07EF1FEFECCF0EEF1FEFE9CFCF9344
:105AC000DF93EC01672B71F4F4D68C179D0760F01F
:105AD000E7D62496C80FD91FE6D68C0F9D1FDF91FD
