:100000006CC0000092C0000090C000008EC00000D4
:100010008CC000008AC0000088C0000086C00000BC
:1000200084C0000082C0000080C000007EC00000CC
:100030007CC000007AC0000078C0000076C00000DC
:100040000C94FB3472C000000C94F2370C942438EA
:100050006CC000006AC0000068C0000066C00000FC
:100060000C94DE3362C0000005A84CCDB2D44EB96A
:100070003836A9020C50B9918688083CA6AAAA2A4B
:10008000BE000000803F00000008000201000003E5
:100090000407000000000000000001020408102016
:1000A000408001020408102001020408102004040A
:1000B0000404040404040202020202020303030310
:1000C000030300000000250028002B0000000000B2
:1000D000240027002A004A31493811241FBECFEFDF
:1000E000D8E0DEBFCDBF12E0A0E0B1E0EEEEF1E778
:1000F00002C005900D92AA39B107D9F727E0AAE905
:10010000B2E001C01D92AA34B207E1F710E0CDE6DB
:10011000D0E004C02197FE010E94C638CB36D1073B
:10012000C9F70E94352C0C94F5386ACFCF92DF9234
:10013000EF92FF926B017C01C114D104E104F10440
:1001400069F480910001811109C0809102019091B0
:1001500003010E94BB3081E080930001C601880F3B
:10016000991F880F991F80509F4FFF90EF90DF904D
:10017000CF900895009781F0FC012181211104C0E6
:1001800040EA56E861E070E0FC01828193810E94C0
:10019000CA3090E080E0089588E090E008954F92A2
:1001A0005F926F927F928F929F92AF92BF92CF9207
:1001B000DF92EF92FF920F931F93CF93DF930097FD
:1001C000C9F1280139017A01EC01402F8A819B8114
:1001D0000E9448318A819B81DC01ED91FC91008471
:1001E000F185E02D0995892B01F16701812C912C76
:1001F00054018A819B81DC01ED91FC910084F185A1
:10020000E02D0995892B91F184149504A604B70477
:1002100069F18A819B81DC01ED91FC910284F38577
:10022000E02D09958F3F9807C1F484E0F701119202
:100230008A95E9F788E090E0DF91CF911F910F91C7
:10024000FF90EF90DF90CF90BF90AF909F908F90F6
:100250007F906F905F904F900895FFEF8F1A9F0AE5
:10026000AF0ABF0AD6018D936D01C3CF90E080E045
:10027000E3CF8F929F92AF92BF92CF92DF92EF9295
:100280000F931F93CF93DF930097F1F06A01EC0176
:100290008A819B810E94CD308A819B81DC01ED9116
:1002A000FC910280F381E02DA801B60109958A81B5
:1002B0009B8160E0E11001C061E00E94D73088239B
:1002C00089F08250823088F088E090E0DF91CF9111
:1002D0001F910F91EF90DF90CF90BF90AF909F90C4
:1002E0008F90089590E080E0F1CF84E090E0EECF31
:1002F0000895611102C00C945F366130E1F362E051
:10030000FACF662319F061E00C949B3660E0FCCFD5
:10031000CF92DF92EF92FF92CF93882351F16A013F
:100320007B01CFEFC80F20E030E0A901CB01B6017F
:100330000E94352D87FF11C0C701B60190580E9459
:10034000A92D9B01AC016C2F70E090E080E0CF9173
:10035000FF90EF90DF90CF90B2C0C701B6010E942E
:10036000A42D8C2FCF91FF90EF90DF90CF900C9425
:10037000DB35CF91FF90EF90DF90CF9008950F93F2
:100380001F938B019C0183E0369527951795079560
:100390008A95D1F706561D4F462F477021E030E071
:1003A000F90102C0EE0FFF1F4A95E2F7AF01F80115
:1003B00020812423CB010196211102C090E080E02E
:1003C0001F910F9108950F931F938B019C0183E060
:1003D00036952795179507958A95D1F7677081E02F
:1003E00090E001C0880F6A95EAF7F801E656FD4FE4
:1003F0002081452B31F48095822380831F910F91BA
:100400000895822BFACF2F923F924F925F926F9274
:100410007F928F929F92AF92BF92CF92DF92EF9294
:10042000FF920F931F93CF93DF93D62EC72E782E74
:10043000692E49015A01280161E08D2D0E945F3625
:10044000CD2DDC2D8E010F5F1F4FA8016D2D7C2D52
:10045000872D962DB8DF20E030E0A901C201B70159
:100460000E94612F181664F4C201B7010E94A92DE1
:100470002B01C501B4010E94A92DA201CE0123D0F8
:10048000C801DF91CF911F910F91FF90EF90DF9006
:10049000CF90BF90AF909F908F907F906F905F9024
:1004A0004F903F902F900895882341F08150682FFE
:1004B00070E090E080E050E040E085CF0895862F26
:1004C000B9010C94DB359C01FC01EA57FF4FE49124
:1004D000E33061F140F4E13011F1E23021F160E00C
:1004E000822F0C949B36E730C1F1E83009F441C00B
:1004F000E430A9F7809180008C7F82608093800037
:1005000090918100907E9061692B6093810050935F
:100510008700409386008091800080621BC084B574
:10052000806884BDDCCF84B58062FBCF8091800081
:100530008C7F82608093800090918100907E90619A
:10054000692B6093810050938700409386008091CF
:100550008000806880938000C2CF8091B000806866
:100560008093B0008091B100887F682B6093B100C8
:10057000B6CF8091B0008062F3CF90E080E0089524
:100580000F931F93009709F489C06115710509F451
:1005900085C00091CB011091CC012091CD0130910B
:1005A000CE010E3F1F4F2F4F3F4F09F068C04FEF56
:1005B0005FEFBA014093CB015093CC016093CD0122
:1005C0007093CE014091CB015091CC016091CD014F
:1005D0007091CE01DC011296ED91FC9180819181A8
:1005E000A281B38180931B0390931C03A0931D03EE
:1005F000B0931E0384819581A681B78180931703F0
:1006000090931803A0931903B0931A0380859185E2
:10061000A285B3858093130390931403A0931503CD
:10062000B093160384859585A685B78580930F03BF
:1006300090931003A0931103B093120310920B0335
:1006400010920C0310920D0310920E030E941C0FC7
:1006500081E49FE09093A4028093A3029093A6026A
:100660008093A5020E940B0E009731F421E030E048
:100670003093200320931F031F910F910895009141
:10068000CB011091CC012091CD013091CE01DB0145
:100690000D931D932D933C93139794CF8FEF9FEF62
:1006A000EBCF8F929F92AF92BF92CF92DF92EF9259
:1006B000FF921F93CF93DF934B015C0110912203B4
:1006C00082E090E09093200380931F0381149104B3
:1006D000A104B10441F480912203811104C08091EE
:1006E0002103C1E08111C0E0C12CD12C76018091A1
:1006F0002203811106C080912103811102C0CC2305
:10070000D9F083E090E09093200380931F03CC23E3
:1007100081F1CCE9DFEF111102C00E94A512CE01D8
:10072000DF91CF911F91FF90EF90DF90CF90BF901E
:10073000AF909F908F9008956AE070E080E090E025
:100740000E946A3580E1C80E87E2D81EE11CF11CC8
:100750008FEF88169806A806B80631F0C1E08C1411
:100760009D04AE04BF0408F0C0E080E00E943F0E8C
:10077000BECFD0E0C0E0CFCFCF92DF92EF92FF921A
:100780000F931F93CF93DF938F3F910511F008F0E4
:1007900051C020911F03309120032330310539F0DF
:1007A00020911F03309120032130310531F424E0E2
:1007B00030E03093200320931F036A017B01EC019A
:1007C00082309105A8F011E0AE01C701B6010E9488
:1007D0000A0EAB01BC01CE011123F9F0DF91CF91DC
:1007E0001F910F91FF90EF90DF90CF900C94CE145B
:1007F0008C01000F111F0D551D4FD8018D919C913B
:10080000892B09F30E94D8140297E9F6D801ED91DB
:10081000FC91CE010995182FD7CF0E94F01490E0DB
:1008200080E0DF91CF911F910F91FF90EF90DF90CB
:10083000CF9008958FEF9FEFF4CF80E00C943F0EA0
:10084000CF93DF9386E090E09093200380931F0383
:100850000E94980EEC01E3EAF2E084E0DF011D92D1
:100860008A95E9F70E943D121092200310921F030F
:10087000CE01DF91CF910895809121030895809159
:100880000A0308956093CB017093CC018093CD014E
:100890009093CE0190E080E00895CF92DF92EF92A6
:1008A000FF926B017C019F7720E030E040E859E542
:1008B0000E94352D87FF2BC020E030E040E05FE351
:1008C000C701B6010E94612F87FD0EC020E030E015
:1008D00040E05FE3C701B6010E94BE2CFF90EF909D
:1008E000DF90CF900C94122E20E030E040E05FEBE0
:1008F000C701B6010E94612F181684F420E030E091
:10090000A901C701B6010E94652F6B017C01C701D7
:10091000B601FF90EF90DF90CF90089520E030E097
:1009200040E05FE3C701B6010E94BD2CFF90EF904D
:10093000DF90CF900C94222D4F925F926F927F9216
:100940008F929F92AF92BF92CF92DF92EF92FF92DF
:100950000F931F93CF93DF93CDB7DEB76D970FB68D
:10096000F894DEBF0FBECDBF80912A078150823040
:1009700008F0DAC383E080932A0780912907815029
:10098000823008F0D3C383E080932907C090200110
:10099000D0902101E0902201F0902301A70196015F
:1009A0006091E3067091E4068091E5069091E60679
:1009B0000E94352D882341F0C092E306D092E406D0
:1009C000E092E506F092E6068CE08987C12CEE24E1
:1009D000E39401E010E020E030E0AE01475F5F4FBC
:1009E00066E370E08091D9069091DA0642DC89874F
:1009F00081119EC3CC24C394E12C04E010E020E0DC
:100A000030E0AE014F5F5F4F66E370E08091D90642
:100A10009091DA06C4DB84E0FE013196DE01159682
:100A200001900D928A95E1F78D819E819D838E8341
:100A30008F8198859F8388872091070730910807C9
:100A40004091090750910A0760916001709161011E
:100A500080916201909163010E94652F6E877F876C
:100A6000888B998B2091C8013091C901AF81B885DD
:100A70000E94CC386B017C01C092CF06D092D00688
:100A8000E092D106F092D20681E090E040911C0104
:100A900050911D0160911E0170911F01C416D50671
:100AA000E606F70610F090E080E02091CA01289F4A
:100AB000B001299F700D1124072E000C880B990B93
:100AC0000E94D72D9B01AC010E94BE2C4B015C0102
:100AD000C701B6010E94D52D20E030E040E056E38A
:100AE0000E94652F9B01AC01C501B4010E94BE2C80
:100AF0002091640130916501409166015091670138
:100B00000E94BD2C6093BF067093C0068093C106FF
:100B10009093C206209168013091690140916A0169
:100B200050916B010E94652F6A8B7B8B8C8B9D8B08
:100B3000C0900B07D0900C07E0900D07F0900E07C7
:100B400040900F07509010076090110770901207A7
:100B500020918C0130918D0140918E0150918F0137
:100B6000C701B6010E94652F4B015C0120919001E5
:100B7000309191014091920150919301C301B201D2
:100B80000E94652F9B01AC01C501B4010E94BE2CDF
:100B90004B015C0120919C0130919D0140919E018F
:100BA00050919F016E857F85888999890E94652F64
:100BB0006A877B878C879D872091A0013091A10156
:100BC0004091A2015091A3016A897B898C899D89FA
:100BD0000E94652F9B01AC016A857B858C859D8574
:100BE0000E94BE2C9B01AC01C501B4010E94BE2C29
:100BF0006093B7067093B8068093B9069093BA06CF
:100C00002091940130919501409196015091970166
:100C1000C701B6010E94652F6B017C0120919801EC
:100C20003091990140919A0150919B01C301B20109
:100C30000E94652F9B01AC01C701B6010E94BE2C2A
:100C40006B017C012091A4013091A5014091A60186
:100C50005091A7016E857F85888999890E94652FAB
:100C60004B015C012091A8013091A9014091AA019A
:100C70005091AB016A897B898C899D890E94652F7F
:100C80009B01AC01C501B4010E94BE2C9B01AC01CB
:100C9000C701B6010E94BE2C6093BB067093BC06D0
:100CA0008093BD069093BE066093C3067093C406FE
:100CB0008093C5069093C6068091B4019091B501CA
:100CC000A091B601B091B7018093C7069093C80672
:100CD000A093C906B093CA06C090B001D090B101EC
:100CE000E090B201F090B30120E030E0A901C7012B
:100CF000B6010E94352D87FF1EC2C701B6010E94B2
:100D0000222D6B017C0184D681111AC2C701B60164
:100D10003AD6811115C220E030E040E85FE4C70117
:100D2000B6010E942C2E6B017C0120E030E0A9016D
:100D30000E94352D87FF07C2C701B60190580E9457
:100D4000A92D90958095709561957F4F8F4F9F4FFE
:100D5000613071058105910509F4FAC162307105B0
:100D60008105910509F404C369E070E080E090E03A
:100D700006DB7C0190930607809305072091CB0644
:100D80003091CC064091CD065091CE066091BC01C9
:100D90007091BD018091BE019091BF010E94652FAD
:100DA0004B015C0120E030E04FE753E40E94352D19
:100DB00018160CF4B2C320E030E0A901C501B4015B
:100DC0000E94612F87FF03C0812C912C5401B50133
:100DD000A401C7019DDA6091C0017091C1018091A9
:100DE000C2019091C30159DD6B017C0120E030E02C
:100DF00040E853E40E94352D87FF98C320E030E09F
:100E0000A901C701B6010E94612F87FD8DC3C701EB
:100E1000B6010E94A92D698769858BE072DA20E00E
:100E200030E040E853E4C701B6010E94352D87FF4A
:100E300082C320E030E0A901C701B6010E94612F02
:100E400087FD77C3C701B6010E94A92D698769850F
:100E50008CE057DA6091C4017091C5018091C601A0
:100E60009091C7011ADD6B017C0120E030E040E881
:100E700053E40E94352D87FF63C320E030E0A901D1
:100E8000C701B6010E94612F87FD58C3C701B60193
:100E90000E94A92D6987698588E033DA8091CB06A5
:100EA0009091CC06A091CD06B091CE068093070715
:100EB00090930807A0930907B0930A07C0900B0707
:100EC000D0900C07E0900D07F0900E0740900F07B0
:100ED00050901007609011077090120720917401D4
:100EE000309175014091760150917701C701B601AB
:100EF0000E94652F4B015C012091780130917901AE
:100F000040917A0150917B01C301B2010E94652F8B
:100F10009B01AC01C501B4010E94BE2C4B015C01D8
:100F20002091840130918501409186015091870183
:100F30006E857F85888999890E94652F6A877B875E
:100F40008C879D87209188013091890140918A0189
:100F500050918B016A897B898C899D890E94652FBC
:100F60009B01AC016A857B858C859D850E94BE2C8A
:100F70009B01AC01C501B4010E94BE2C4B015C0178
:100F800020916C0130916D0140916E0150916F0183
:100F9000C701B6010E94652F6B017C012091700191
:100FA000309171014091720150917301C301B201FE
:100FB0000E94652F9B01AC01C701B6010E94BE2CA7
:100FC0006B017C0120917C0130917D0140917E017B
:100FD00050917F016E857F85888999890E94652F50
:100FE0002B013C01209180013091810140918201CF
:100FF000509183016A897B898C899D890E94652F24
:101000009B01AC01C301B2010E94BE2C9B01AC014B
:10101000C701B6010E94BE2C60930B0770930C07AA
:1010200080930D0790930E0780920F079092100700
:10103000A0921107B0921207C090DD02D090DE029C
:10104000E090DF02F090E0029FEFC91AD90AE90AA6
:10105000F90AC092DD02D092DE02E092DF02F09245
:10106000E002C114D104E104F10499F48091E10299
:101070009091E202A091E302B091E4020196A11DD9
:10108000B11D8093E1029093E202A093E302B0933A
:10109000E4028090E5029090E602A090E702B09012
:1010A000E8026091E1027091E2028091E302909186
:1010B000E4020E94D52DA50194010E94652F20E035
:1010C00030E040E85FE40E94652F2B013C01C7013E
:1010D000B6010E94D52DA50194010E94652F9B01A8
:1010E000AC01C301B2010E94BE2C6093D90270937F
:1010F000DA028093DB029093DC026D960FB6F894CF
:10110000DEBF0FBECDBFDF91CF911F910F91FF903A
:10111000EF90DF90CF90BF90AF909F908F907F9097
:101120006F905F904F90089580E025CC80E02CCCAC
:1011300018861F8281CCC701B6010E94122EE1CD14
:10114000C12CD12C7601C701B6010E94A92D00CE79
:101150002091BF063091C0064091C1065091C20651
:101160006091C7067091C8068091C9069091CA0621
:101170000E94BD2C2091240130912501409126012F
:10118000509127010E94652F2B013C0120910801FD
:101190003091090140910A0150910B010E94652F85
:1011A000209128013091290140912A0150912B0171
:1011B0000E94652F6E8B7F8B888F998F80901B0785
:1011C00090901C07A0901D07B0901E0780911F07EC
:1011D00090912007A0912107B09122078A879B87D1
:1011E000AC87BD87209118013091190140911A01F7
:1011F00050911B01C301B2010E94652FA50194010A
:101200000E94BE2C6B017C012091170730911807BA
:101210004091190750911A076E897F89888D998DA1
:101220000E94BD2C9B01AC01C701B6010E94BE2CDF
:101230006B017C0120913C0130913D0140913E01C8
:1012400050913F016A857B858C859D850E94652F25
:101250009B01AC01C701B6010E94BD2C2091380151
:101260003091390140913A0150913B010E943C2D4F
:101270006B017C01209130013091310140913201AC
:10128000509133010E94652F6A8F7B8F8C8F9D8FC9
:101290002091340130913501409136015091370150
:1012A0006A857B858C859D850E94652F9B01AC019D
:1012B0006A8D7B8D8C8D9D8D0E94BE2C209144016A
:1012C0003091450140914601509147010E94652FA0
:1012D0006093CB067093CC068093CD069093CE0698
:1012E0008E899F89A88DB98D8093170790931807D1
:1012F000A0931907B0931A072091100130911101A2
:101300004091120150911301C301B2010E94652F57
:1013100020912C0130912D0140912E0150912F01EF
:101320000E94652FA50194010E94BE2C60931B07AB
:1013300070931C0780931D0790931E07C0921F0790
:10134000D0922007E0922107F092220780912A078D
:10135000882331F0833049F0082E000C990B02C02D
:1013600082E090E080932A07FFCC81E090E0FACF02
:101370008091130790911407A0911507B09116075B
:101380008093CB069093CC06A093CD06B093CE0667
:101390002091BF063091C0064091C1065091C2060F
:1013A0006091C7067091C8068091C9069091CA06DF
:1013B0000E94BD2C20914C0130914D0140914E0175
:1013C00050914F010E94652F2B013C012091540147
:1013D0003091550140915601509157010E94652F5F
:1013E0002091C3063091C4064091C5065091C606AF
:1013F0000E94BE2C6B017C010BD3882309F461C0D1
:10140000C0903C07D0903D07E0903E07F0903F072A
:101410008090040190900501A0900601B090070112
:10142000C301B2010E94392D2B013C01C501B40159
:101430009058A70196010E94652FA50194010E9472
:10144000BE2C6B017C0120915001309151014091E3
:10145000520150915301C301B2010E94652F9B01BB
:10146000AC01C701B6010E94BE2C6B017C0120912A
:10147000C3063091C4064091C5065091C6066091DE
:1014800058017091590180915A0190915B010E941D
:10149000652F9B01AC01C701B6010E94BE2C609371
:1014A0001307709314078093150790931607809184
:1014B0002907882351F1833069F1082E000C990B1C
:1014C00026C020E030E0A901C701B6010E94352DF9
:1014D00087FD14C020E030E0A901C701B6010E94D9
:1014E000612FC12CD12C760118160CF091CFC12C94
:1014F000D12C90E8E92E9FE3F92E8ACFC12CD12C74
:1015000020E8E22E2FEBF22E83CF82E090E0809352
:1015100029072ACC81E090E0FACF812C912C8FE72B
:10152000A82E83E4B82E53CC198676CC8FEF89870A
:1015300073CC19868CCC8FEF898789CC1986ABCC7C
:101540008FEF8987A8CC4F925F926F927F928F9294
:101550009F92AF92BF92DF92EF92FF920F931F93F1
:10156000CF93DF9384E090E0D7D1E3ECF2E08BE21D
:10157000DF011D928A95E9F780E090E0A0E8BFEBDB
:1015800086A397A3A0A7B1A78AE097EDA3E2BBE348
:1015900082A393A3A4A3B5A38DEE92E3A1EDBDE432
:1015A00084839583A683B78389EB94E3A9EDB3E3A2
:1015B00080879187A287B3878FE29CEEA7E8B0E48B
:1015C00084879587A687B78783E599E2ADE3B1EA7B
:1015D000808B918BA28BB38BA7EBB2E0B383A283FA
:1015E000E7EAF2E01196FC93EE9384EF91E09183A9
:1015F0008083938382839583848397838683918773
:101600008087938782878AE297E09587848789E23B
:1016100097E09787868787ED92E015969C938E9347
:10162000149787EC92E013969C938E93129789ED12
:1016300092E017969C938E93169787EB882E86E000
:10164000982E8CE1F40111928A95E9F7C3EDD6E06A
:101650008DE5DE011D928A95E9F780E090E5A3EC27
:10166000B8E48C879D87AE87BF87DD24D394D09262
:101670002F0794E0A92E91E0B92EF501848D958D68
:10168000A68DB78D888B998BAA8BBB8B412C512C47
:101690003201439449825A826B827C8250E040E05E
:1016A00060E070E0CB010E9496009F838E8340EA49
:1016B00056E861E070E0488759876A877B870E9417
:1016C000BA00DD821CA6D0922B074DA65EA66FA69F
:1016D00078AAE12CF12C8701A801970169E070E05C
:1016E00080E090E00E9403029BAB8AABD9AA1CA2C7
:1016F000D0922E074DA25EA26FA278A661E08BE089
:101700000E947901D9A61C8ED0922D074D8E5E8E37
:101710006F8E78A261E08CE00E947901D9A21C8AC8
:10172000D0922C074D8A5E8A6F8A788E61E088E0BD
:101730000E947901D98E80915C0190915D01A09108
:101740005E01B0915F018CAB9DABAEABBFAB809146
:10175000AC019091AD01A091AE01B091AF0188AF05
:1017600099AFAAAFBBAF8CAF9DAFAEAFBFAFF50126
:1017700080859185A285B38580931707909318077C
:10178000A0931907B0931A0780899189A289B38918
:1017900080931B0790931C07A0931D07B0931E070F
:1017A00084AD95ADA6ADB7AD80931F07909320078C
:1017B000A0932107B093220780914801909149019D
:1017C000A0914A01B0914B018093130790931407A5
:1017D000A0931507B09316078091B8019091B901B5
:1017E000A091BA01B091BB01F401848B958BA68BBB
:1017F000B78BDF91CF911F910F91FF90EF90DF900A
:10180000BF90AF909F908F907F906F905F904F9020
:1018100008958091D306811119C081E08093D30689
:101820008091D4069091D506A091D606B091D706A6
:101830000197A105B10551F48091D806882331F0B4
:101840008091D9069091DA060E9478018091FF0676
:1018500081112EC081E08093FF0680910007909156
:101860000107A0910207B09103070197A105B105F7
:10187000F9F4809104078823D9F069E070E080E0F2
:1018800090E00E94BF01909306078093050740E017
:1018900050E0BA010E94880169E070E080E090E0C9
:1018A0000E94BF0190930607809305070E9454028F
:1018B0008091F706811103C081E08093F706809143
:1018C000EF06811103C081E08093EF068091E70667
:1018D000811103C081E08093E706089560E070E025
:1018E00080E89FE7089560E070E080E89FE7089552
:1018F00060E070E080E89FEF089560E070E080E8CD
:101900009FEF089560E070E080EC9FEF089560E045
:1019100070E080EC9FEF0895F5DF60933C077093D3
:101920003D0780933E0790933F07F1DF60933007B8
:10193000709331078093320790933307CFDF609322
:1019400038077093390780933A0790933B07CBDFB2
:101950006093340770933507809336079093370769
:10196000C7DF6093400770934107809342079093CD
:101970004307C3DF6093440770934507809346078E
:10198000909347070895CF92DF92EF92FF92CF9303
:101990006B017C01AC019B016091380770913907A4
:1019A00080913A0790913B070E94352DC1E0882332
:1019B00071F0A701960160914007709141078091F5
:1019C0004207909143070E94352D8111C0E08C2F72
:1019D000CF91FF90EF90DF90CF9008950F931F93DA
:1019E0008B019C010027112720783F7701151105F5
:1019F00020483F4749F4AB01BC016F77772781E06E
:101A0000452B462B472B09F480E01F910F91089539
:101A1000E5CF4F925F926F927F928F929F92AF929B
:101A2000BF92CF92DF92EF92FF920F931F93F894A1
:101A30004090FA025090FB026090FC027090FD0210
:101A4000C090EE02D090EF02E090F002F090F10230
:101A5000452B09F0A4C09B01AC01241935094609A6
:101A6000570929013A010091F6021091F7022091DD
:101A7000F8023091F90248015901840C951CA61C0A
:101A8000B71C80169106A206B306A0F40091F202DC
:101A90001091F3022091F4023091F5020F5F1F4F75
:101AA0002F4F3F4F0093F2021093F3022093F40262
:101AB0003093F5028092F6029092F702A092F8021B
:101AC000B092F9020091F2021091F3022091F40217
:101AD0003091F5028092FE029092FF02A0920003E4
:101AE000B0920103009302031093030320930403B5
:101AF000309305036093FA027093FB028093FC021B
:101B00009093FD02A4ECB9E0A30192010E94DB389E
:101B10006C0D7D1D8E1D9F1D6093EE027093EF0274
:101B20008093F0029093F1020091CB011091CC01CF
:101B30002091CD013091CE010F3F1F4F2F4F3F4FCE
:101B4000F1F00091CB011091CC012091CD013091A9
:101B5000CE010E3F1F4F2F4F3F4F89F0C090CB015A
:101B6000D090CC01E090CD01F090CE0121E08C141A
:101B70009D04AE04BF0408F420E020930A03789487
:101B80001F910F91FF90EF90DF90CF90BF90AF909B
:101B90009F908F907F906F905F904F9008954B0132
:101BA0005C0184189508A608B708A3019201261BBA
:101BB000370B480B590B6415750586059705D0F052
:101BC00082169306A406B50640F420E030E0A90191
:101BD00081149104A104B10491F4A4ECB9E00E9431
:101BE000DB38A7019601261B370B480B590BCA019E
:101BF000B901C5CF82169306A406B50670F7A4EC0A
:101C0000B9E0A50194010E94DB386C0D7D1D8E1D8D
:101C10009F1DB5CFFECECF93DF9300D000D0CDB7C0
:101C2000DEB71C821B821A82198210920603109260
:101C300007031092080310920903BE016F5F7F4FE4
:101C4000CE0103960E94F72A69817A818B819C815B
:101C50000E94E723009761F4BE016F5F7F4FCE01C2
:101C600003960E94032B69817A818B819C812CD5FC
:101C70000F900F900F900F90DF91CF910895FF92EA
:101C80000F931F93CF93DF93082F60E070E0CB0199
:101C90000E946A35FF24F3940E94D222EC01892B22
:101CA00089F010E0CE3F8FEFD80769F0002361F193
:101CB00060E070E0CB010E946A3581E090E0892B02
:101CC00059F322C011E023D5EC01892B21F0CE3F3E
:101CD0008FEFD80759F711111EC011E0229609F4B1
:101CE00010E00E948322EC01892B21F0CE3F8FEF80
:101CF000D807E1F6111111C011E0CE3F8FEFD807E0
:101D000009F410E001110BC0CE01DF91CF911F91BA
:101D10000F91FF90089511E0E4CF11E0F3CF60E060
:101D200070E0CB010E946A351F25812F90E0C7CF5C
:101D3000CF93DF9380910A03882321F060E070E065
:101D4000CB014CD635D6D0E0C0E0892B71F06AE0EB
:101D500070E080E090E00E946A3581E090DF28D654
:101D60002196C03D27E0D20781F727D60E943B2469
:101D7000109222031092210310921B0310921C0355
:101D800010921D0310921E03109217031092180355
:101D90001092190310921A03109213031092140355
:101DA000109215031092160310920F031092100355
:101DB000109211031092120310920B0310920C0355
:101DC00010920D0310920E034EEF5FEF6FEF7FEF57
:101DD0004093CB015093CC016093CD017093CE0121
:101DE00010920A03EEEFF2E028E0DF011D922A953F
:101DF000E9F71092FA021092FB021092FC02109284
:101E0000FD021092F6021092F7021092F802109260
:101E1000F9021092F2021092F3021092F402109260
:101E2000F5021092EE021092EF021092F002109260
:101E3000F102DF91CF91089510922E0310922F039B
:101E4000109230031092310310922D0380913603CB
:101E50009091370390932C0380932B0310922A03C5
:101E60001092290310922503109226031092270343
:101E700010922803109233031092320390E080E016
:101E80000895CF92DF92EF92FF920F931F93CF931B
:101E90008C01892B09F055C020913603309137030E
:101EA00080912B0390912C0340913603509137037E
:101EB00050932C0340932B032817390781F010927D
:101EC0002A031092290310922503109226031092E0
:101ED000270310922803109233031092320380914B
:101EE000360390913703019761F580913203909109
:101EF0003303892B21F48091CF01811112C080918D
:101F00003203909133030197E1F48091250390917E
:101F10002603A0912703B09128030197A105B105DD
:101F200081F4109225031092260310922703109239
:101F300028031092CF0182E090E0909333038093C6
:101F400032038091360390913703019709F01CC149
:101F500080914C0390914D038017910709F014C1B3
:101F60008091480390914903A0914A03B0914B039B
:101F7000009709F409C12091470321110DC0409138
:101F800048035091490360914A0370914B03452BDC
:101F9000462B472B09F4F8C02091320330913303CC
:101FA0002230310509F0F0C0209129032111ECC045
:101FB000FC01C080D180E280F38080912D038823D2
:101FC00009F4D3C08091390390913A03892B09F425
:101FD000FDC02091390330913A0381E02230310570
:101FE00009F080E02091390330913A03C1E02130BB
:101FF000310549F02091390330913A03C1E0223094
:10200000310509F0C0E0882309F456C0209143034C
:10201000309144034091450350914603C701B601F6
:102020000E94612F87FD14C0209143033091440327
:10203000409145035091460360912E0370912F0308
:1020400080913003909131030E94352D87FD22C08D
:10205000209143033091440340914503509146033E
:10206000C701B6010E94612F181634F52091430371
:1020700030914403409145035091460360912E03F3
:1020800070912F0380913003909131030E94352D80
:10209000811112C080913B0390913C03A0913D03BC
:1020A000B0913E03892B8A2B8B2B19F481E080930E
:1020B0002A0381E080932903CC2309F456C02091A0
:1020C0004303309144034091450350914603C701B7
:1020D000B6010E94352D87FF14C020914303309133
:1020E0004403409145035091460360912E03709143
:1020F0002F0380913003909131030E94612F87FF5D
:1021000022C02091430330914403409145035091F4
:102110004603C701B6010E94352D811126C02091CA
:10212000430330914403409145035091460360912D
:102130002E0370912F0380913003909131030E9400
:10214000612F181694F480913B0390913C03A09169
:102150003D03B0913E03892B8A2B8B2B19F481E030
:1021600080932A0381E08093290381E090912903E1
:10217000911180E080932D03C0922E03D0922F0303
:10218000E0923003F0923103012B09F067C1809196
:10219000320390913303892BD9F4109238031092B3
:1021A00029038091CF01882379F082E090E0909319
:1021B0003303809332031092CF0120913603309184
:1021C000370381E0232BE9F080E01BC081E00ACFD8
:1021D0001092CF0180913803882349F010922A038E
:1021E000109233031092320310923803EDCF809196
:1021F000360390913703892BE1F0809129031092E7
:10220000290320913203309133032230310509F440
:102210005EC088F42115310509F448C0213031052C
:1022200009F4F3C010922A03109229031092380384
:1022300038C081E0E6CF2330310509F4B1C0243045
:10224000310581F7409125035091260360912703C2
:1022500070912803411551056105710561F04150E8
:102260005109610971094093250350932603609336
:102270002703709328034091250350912603609112
:10228000270370912803452B462B472BD9F4209127
:102290003403309135032130310509F046C01092E6
:1022A0002A0310923303109232030CC08091CF01A5
:1022B000882341F082E090E09093330380933203CF
:1022C0001092CF011092230380912A03CEC088235D
:1022D000C9F380913B0390913C03A0913D03B091E1
:1022E0003E03181619061A061B060CF07DC08091D5
:1022F000360390913703019709F076C080913B0334
:1023000090913C03A0913D03B0913E03809325033F
:1023100090932603A0932703B093280383E090E0D3
:102320009093330380933203CDCF40913F0350917C
:1023300040036091410370914203452B462B472B8C
:10234000A9F010922A0380913F0390914003A0913D
:102350004103B09142038093250390932603A093F9
:102360002703B093280381E090E0DACF882399F027
:102370008091D0019091D101A091D201B091D3016F
:102380008093250390932603A0932703B0932803FB
:1023900084E090E0C5CF10922A0382E090E0C0CFA5
:1023A0008091250390912603A0912703B0912803E3
:1023B0000097A105B10559F00197A109B1098093D2
:1023C000250390932603A0932703B09328038091BD
:1023D000250390912603A0912703B0912803892B10
:1023E0008A2B8B2B09F06ECF8091D0019091D10177
:1023F000A091D201B091D301892B8A2B8B2B09F4A8
:102400004ECF81E080932A03B3CF409125035091B2
:10241000260360912703709128034115510561053A
:10242000710561F04150510961097109409325031B
:10243000509326036093270370932803409125034C
:10244000509126036091270370912803452B462B5A
:10245000472B09F037CF8111C7CF9FCF809123033E
:10246000882309F431CF80912403CF911F910F91DC
:10247000FF90EF90DF90CF90089510922E0310926E
:102480002F03109230031092310310922D031092FB
:1024900033031092320310922C0310922B031092EC
:1024A0004D0310924C0310922A03109229031092AC
:1024B00025031092260310922703109228031092EE
:1024C00024031092230310924803109249031092A0
:1024D0004A0310924B031092470310924303109249
:1024E0004403109245031092460388EE93E0A0E067
:1024F000B0E08093D0019093D101A093D201B0932A
:10250000D30110923F0310924003109241031092A6
:10251000420310923B0310923C0310923D03109231
:102520003E0310923A031092390381E08093CF0169
:10253000109238031092370310923603109235032D
:102540001092340390E080E00895809136039091DA
:102550003703892B19F58091CF01882351F08091A1
:102560003803811106C081E0809324038093230304
:102570000895209138033091CF0181E090E033231A
:1025800011F090E080E030E082239323892B21F04A
:102590001092240381E0EACF10922303089582E091
:1025A00090E0FA01918380838FEF9FEF0895CF939E
:1025B000DF93EA01009711F00E945B2519821882CF
:1025C00090E080E0DF91CF910895DB01009719F44E
:1025D0008FEF8C9308952EEF2C930F968F309105EB
:1025E00008F033C0FC01E950FD4E0C94C6382313AB
:1025F00021131F131D131B13171319131513131373
:1026000011130E130A1306130C13251380E31196EE
:102610008C93089589E2FBCF82E2F9CF11961C9248
:10262000089583E2F4CF81E2F2CF81E1F0CF87E237
:10263000EECF8AE2ECCF80E1EACF84E2E8CF88E215
:10264000E6CF86E2E4CF81E3E2CF80E2E0CF809183
:102650005A0390915B03089590935B0380935A0310
:10266000089580915903089590915903892B80937F
:1026700059030895982F9095809159038923809349
:1026800059030895809158030895809156039091BD
:10269000570308956115710559F0FB0130E020E002
:1026A00070E060E02417350719F06115710511F02D
:1026B000CB010895A081B181A817B90709F4BF0122
:1026C0002F5F3F4F3696EECF80915C0381111CC087
:1026D00062D268D290934F0380934E030E946B1D89
:1026E0000E947D1D90935303809352030E94ED211D
:1026F0000E94F421909351038093500381E08093D2
:102700005C0390E080E0089584EF9FEF08958F923E
:102710009F92AF92BF92CF92DF92EF92FF920F9370
:102720001F93CF93DF93CDB7DEB72A970FB6F894F8
:10273000DEBF0FBECDBF1A86198618861F821E8285
:102740001D821C821B821A82198280915C0307EF12
:102750001FEF882309F49CC08E010D5F1F4F9E015F
:102760002B5F3F4FAE01495F5F4FBE01675F7F4FF9
:1027700090E080E00E946D238C01009721F0059687
:10278000029708F0DBC029853A852115310509F447
:1027900002C1ED80FE804B815C81B701640F751F23
:1027A0008F8198858617970708F4F5C0E20EF31E0F
:1027B000D7019C91903C09F07FC04230510508F44C
:1027C0007BC011968C9140915A0350915B03452B2D
:1027D00009F49CC0913F08F071C02CE1290F2D3005
:1027E00008F48BC02DE2290F203108F489C0903CF9
:1027F00021F48150823008F483C088E3890F8B3044
:1028000008F481C095EEC92E92E1D92EEFECF2E1E9
:102810006D817E81AE014F5F5F4F89859A850995F5
:102820005C01C114D104A1F189809A8081149104C2
:1028300079F18B819C818815990508F487C010E097
:1028400000E04B815C8170E060E0C7010E94EE38DF
:1028500001151105E9F449815A8169857A858D81CF
:102860009E81680F791FC501F6010995E980FA80FC
:102870000D811E812F81388549855A856FEF7FEF45
:1028800081E090E00E9409238C01892B09F056C059
:10289000C8012A960FB6F894DEBF0FBECDBFDF91F8
:1028A000CF911F910F91FF90EF90DF90CF90BF904D
:1028B000AF909F908F90089580E085CF30E020E02A
:1028C000220F331FF901E25BFC4F0190F081E02DF4
:1028D000309709F497CF892F90E00995009709F474
:1028E00091CFDC011296ED91FC9113971496CD9047
:1028F000DC90309709F08CCF1FC021E030E0E0CFB2
:1029000022E030E0DDCF23E030E0DACFD12CC12C63
:10291000E7EDF2E19F3F09F07BCFE0914E03F091AC
:102920004F03309721F4C90104EF1FEF0CC08FEF64
:1029300090E009950097A9F604EF1FEF89859A8525
:10294000009709F4A5CF0E945B25A2CF0E943624F0
:102950008C0189859A850E945B2570E060E0C40146
:102960000E94CF2398878F830E9406239E838D83A6
:102970006F8178856115710559F0C8010E94E726BD
:102980009A87898706EF1FEF892B09F058CF59CF17
:1029900008EF1FEF56CF08EF1FEFD0CF20915C0359
:1029A000222319F020E00C94821D87EF9FEF0895F9
:1029B00080915A0390915B0308950E94F9210E942F
:1029C0005321F5D0EEE4F3E088E0DF011D928A9513
:1029D000E9F710925C0390E080E008950C94B01F3A
:1029E00021E040E050E0BA010C94821D86E090E0C6
:1029F000FA019183808390E080E0089547E050E001
:102A000067EF71E047CEDF92EF92FF920F931F9333
:102A1000CF93DF938A01EC01C60FD71FE0906003CC
:102A2000F0906103D9800E941E24D816190678F010
:102A300082E090E0F801918380838EEF9FEFDF9139
:102A4000CF911F910F91FF90EF90DF900895EF28A5
:102A500041F482E090E0F8019183808384EF9FEF5E
:102A6000EECF898180935F0390E00196F801918316
:102A7000808390E080E0E3CFCF93DF93EA010E9470
:102A80006120882321F00E942B240E94622082E092
:102A900090E0998388838BEF9FEFDF91CF9108952A
:102AA000CF93DF93EB0186E0FB0111928A95E9F762
:102AB0008FEF8883D6DD8983E5DD8A83E6DD9D831C
:102AC0008C83DF91CF910895CF93DF93EA010E9429
:102AD0006420811109C082E090E09983888385EFAA
:102AE0009FEFDF91CF91089590E080E0B5DD81E028
:102AF00090E09983888390E080E0F3CF0F931F9359
:102B0000CF93DF93EA018C01060F171F0E94642008
:102B100081110BC082E090E09983888385EF9FEF5D
:102B2000DF91CF911F910F910895F801818182303B
:102B300038F082E090E0998388838EEF9FEFF0CFAA
:102B400081E090E089DD88E090E09983888390E0DF
:102B500080E0E6CFCF93DF930097D1F4EB01FB0148
:102B6000329686E0DF011D928A95E9F78FEF888320
:102B700085E089831A820E941E248B830E941D2473
:102B80009D838C8381E08E838F83DF91CF91089525
:102B9000DF91CF911ACD8EEF94E190935E038093F5
:102BA0005D03089580915D0390915E0308951092F6
:102BB0005E0310925D03089580916003909161031C
:102BC0000895411105C0611571058105910561F0F8
:102BD0006093600370936103809362039093630337
:102BE0004093640381E0089580E00895FF920F937D
:102BF0001F93CF93DF938A01EC01C60FD71FF98093
:102C00000E941E24F816190668F082E090E0F80190
:102C1000918380838EEF9FEFDF91CF911F910F9172
:102C2000FF9008956C817D818E819F814B81C9DFEA
:102C3000811108C082E090E0F8019183808384EFE5
:102C40009FEFEACF898180935F0390E00196F801BE
:102C50009183808390E080E0DFCFCF93DF93EA0120
:102C6000FC01E60FF71F648175818681978143819E
:102C7000A8DF811109C082E090E09983888384EF06
:102C80009FEFDF91CF91089581E090E09983888351
:102C900090E080E0F6CFE0E6F3E040815181628190
:102CA0007381480F511D611D711D408351836283E3
:102CB00073830895CF93C0915F034C2F50E06091D0
:102CC00060037091610301960E94E5388C2FE3DF69
:102CD00010925F03CF910895009799F4809160035B
:102CE000909161032FEFFB012083892B59F02091F4
:102CF0005F0330E02F5F3F4F2417350719F4CB01F6
:102D0000D9CF63CC0895009799F480916003909196
:102D100061032FEFFB012083892B59F020915F0382
:102D200030E02F5F3F4F2417350719F4CB01C2CF96
:102D30004CCC089523E1AC01249FC001259F900D48
:102D40001124E0916903F0916A03E80FF91F2381D0
:102D500034812250310981E02230310508F080E0D1
:102D600008950F931F93CF93DF9300916B031091FE
:102D70006C03D0E0C0E080E00C171D0749F491E03F
:102D8000811190E0892FDF91CF911F910F910895CC
:102D90008111F5CFCE01CEDF2196EECFA091690350
:102DA000B0916A03109729F120916B0330916C0365
:102DB00082179307F0F453E1589F9001599F300D0B
:102DC0001124A20FB31FED91FC911197309789F058
:102DD00012968C91681768F48BE0689FE00DF11DE6
:102DE000112480819181892B21F081E09281491702
:102DF00008F080E008959C0143E1429FC001439F99
:102E0000900D1124E0916903F0916A03E80FF91F16
:102E10008385823091F481E090E0658176814091F4
:102E2000D4015091D5016417750711F490E080E04A
:102E3000892B19F081E0232B09F080E00895EF92AF
:102E4000FF920F931F93CF93DF93EA01FC01E60FEC
:102E5000F71F02811381E480F5804F2D6E2DC8018C
:102E60009DDF81110DC082E090E0998388838EEF11
:102E70009FEFDF91CF911F910F91FF90EF900895F9
:102E8000C80158DF882339F082E090E09983888375
:102E900088EF9FEFEECF1093DB010093DA01E09211
:102EA000DC01F092DD0181E090E09983888390E07D
:102EB00080E0DFCFCF92DF92EF92FF920F931F93CC
:102EC000CF93DF937A01EC01C60FD71FC090DA01D0
:102ED000D090DB010091DC011091DD01412F602FCA
:102EE000C6015CDF811110C082E090E0F7019183A0
:102EF00080838AEF9FEFDF91CF911F910F91FF9019
:102F0000EF90DF90CF900895C60114DF882341F041
:102F100082E090E0F7019183808388EF9FEFEBCF11
:102F20004C815D816E817F819A8189818F3F41F0E3
:102F300082E090E0F701918380838EEF9FEFDBCFFB
:102F4000E3E1EC9D9001ED9D300D1124E0916903CA
:102F5000F0916A03E20FF31F0190F081E02D2BE066
:102F6000029FE00DF11D11240190F081E02D27E07A
:102F7000129FE00DF11D1124808391838B81828348
:102F800043835483658376831F5F1093DD0181E063
:102F900090E0F7019183808390E080E0ACCFEF92E6
:102FA000FF920F931F93CF93DF937A018C01060F4B
:102FB000171FC0916903D0916A03209781F021E027
:102FC00030E0F8018281938140916B0350916C0352
:102FD0008417950710F030E020E0232B71F482E095
:102FE00090E0F701918380838EEF9FEFDF91CF9187
:102FF0001F910F91FF90EF90089543E1489F90013A
:10300000499F300D1124C20FD31F94DE882341F055
:1030100082E090E0F7019183808388EF9FEFE6CF15
:10302000F8012481358120383105C8F68781811166
:10303000D6CF4181842F90E08F7E009741F082E0CF
:1030400090E0F7019183808386EF9FEFCFCF4F838E
:103050003E832D83268128871986223010F421E0B3
:10306000288721E030E0F70131832083BFCF88E05B
:1030700090E0FA019183808390E080E00895FB0165
:103080008FEF808381E181838FEF9FEF9383828332
:1030900080E890E095838483168217820895FB016F
:1030A0008FEF808391E0918382839383848384E391
:1030B000858381E090E0978386830895DF92EF9285
:1030C000FF920F931F93CF93DF93EA01FC01E60F6A
:1030D000F71F8181813071F082E090E099838883CD
:1030E0008FEF9FEFDF91CF911F910F91FF90EF90A6
:1030F000DF90089582819381D4802581E680F780D6
:103100000091690310916A030115110539F482E0F9
:1031100090E0998388838CEF9FEFE4CF40916B031D
:1031200050916C038417950738F082E090E0998302
:1031300088838EEF9FEFD6CF892B39F082E090E025
:103140009983888386EF9FEFCDCF8D2D8D7FB1F74B
:103150002130A1F781E0D11006C091E0E916F10419
:1031600031F080E004C0E2E0EE16F104D0F38823F1
:1031700029F390E080E0DEDD882339F082E090E002
:103180009983888388EF9FEFADCFF801D38681E0E4
:103190008487F686E586108A178681E090E0998319
:1031A000888390E080E09ECF4CE050E061E272E0E6
:1031B00071CA8F929F92BF92CF92DF92EF92FF924D
:1031C0000F931F93CF93DF93EA01FC01E60FF71FE4
:1031D000828193810481B580E0916903F0916A0353
:1031E000309791F482E090E0998388838CEF9FEF91
:1031F000DF91CF911F910F91FF90EF90DF90CF90D3
:10320000BF909F908F90089520916B0330916C0335
:103210008217930738F082E090E0998388838EEFDD
:103220009FEFE6CF23E1289F6001299FD00C112456
:10323000EC0DFD1DE080F180E114F10499F2828132
:10324000081748F78BE0089F80011124E00EF11E5B
:10325000F70180819181892B29F6BB20E1F2F7E00B
:10326000BF9E40011124C4010E942225F7019183D1
:103270008083E0916903F0916A03EC0DFD1D0190DC
:10328000F081E02DE00FF11F80819181009739F4EA
:1032900082E090E0998388838DEF9FEFA9CFA4010E
:1032A00070E060E00E94EE388091690390916A03BB
:1032B000C80ED91EF60180819181080F191FF801EF
:1032C000B28281E090E09983888390E080E090CFA3
:1032D000AF92BF92CF92DF92FF920F931F93CF9343
:1032E000DF93EA01FC01E60FF71F82819381F480EE
:1032F0000091690310916A030115110581F482E0C0
:1033000090E0998388838CEF9FEFDF91CF911F919D
:103310000F91FF90DF90CF90BF90AF9008952091D4
:103320006B0330916C038217930738F082E090E0D2
:10333000998388838EEF9FEFE8CF2FEF2F0D2C3FDF
:10334000A8F723E1289F6001299FD00C11240C0DC0
:103350001D1DF80180819181892B89F6FBE0FF9E7C
:1033600050011124C5010E942225F8019183808318
:10337000E0916903F0916A03EC0DFD1D808191815C
:10338000009739F482E090E0998388838DEF9FEF76
:10339000BCCFA50170E060E00E94EE38E0916903C7
:1033A000F0916A03EC0DFD1DF28281E090E09983BB
:1033B000888390E080E0A9CFCF92DF92EF92FF92D6
:1033C0000F931F93CF93DF93860F971FFC0102810A
:1033D00013818091690390916A03892B81F082E0C7
:1033E00090E0FA01918380838CEF9FEFDF91CF9182
:1033F0001F910F91FF90EF90DF90CF900895C8013B
:10340000B0E0A0E00197A109B1098F3F9F4FA1054E
:10341000B10540F082E090E0FA01918380838EEF65
:103420009FEFE4CF7A0183E1809F6001819FD00C00
:103430001124C6010E942225EC01009741F482E08C
:1034400090E0F701918380838DEF9FEFCFCFA601AE
:1034500070E060E00E94EE38D0936A03C093690385
:1034600010936C0300936B0390E080E02FEF3FEF2D
:1034700041E061E070E08017910741F481E090E065
:10348000F7019183808390E080E0B0CF3A8B298B65
:103490001B864C877E876D87188A1F8601966396E8
:1034A000EACFCF92DF92EF92FF920F931F93CF93C9
:1034B000DF93EC01D12CC12C10E000E0F12CE12CC9
:1034C0006A8170E006171707BCF0660F771FAE0120
:1034D0004F5E5F4FC7010E948725009721F02FEFB5
:1034E0003FEF3A8B298BDF91CF911F910F91FF9086
:1034F000EF90DF90CF900895E881F981EC0DFD1DEC
:10350000438154818D859E85489F9001499F300D50
:10351000589F300D1124C90101960115110519F4A8
:103520004F8144FD049661E070E00E94CF23E816CD
:10353000F90608F47C010F5F1F4F8BE0C80ED11C09
:10354000BFCFF894209167033091680381E0211583
:10355000310509F080E0232B09F0789408952F922B
:103560003F924F925F926F927F928F929F92AF9213
:10357000BF92CF92DF92EF92FF920F931F93CF9360
:10358000DF933C01660E771EF301828193814C012B
:10359000B12CA12CC0916903D0916A03209769F0E6
:1035A00021E030E060916B0370916C038617970700
:1035B00010F030E020E0232BD1F482E090E0FA011B
:1035C000918380838EEF9FEFDF91CF911F910F91B9
:1035D000FF90EF90DF90CF90BF90AF909F908F9033
:1035E0007F906F905F904F903F902F9008958092C2
:1035F000DE019092DF01A092E001B092E10163E16F
:10360000689F9001699F300D1124C20FD31FF301F1
:103610008181833040F082E090E0FA0191838083E1
:1036200086EF9FEFD1CF2A012B813C81232BF1F430
:10363000288139819F8191FF2EC0232B09F46FC00F
:1036400020916E039A81422F490F5527551FBA01C9
:1036500041E050E06138710514F050E040E0452B46
:1036600009F45DC02A87920F90936E0381508230D7
:1036700008F481C066DF882309F4D8C0F301818192
:10368000813009F48DC008F47BC0823009F4C6C0D3
:1036900090E080E0ADC0232B09F441C020916D0380
:1036A0009A81E22FE90FFF27FF1F41E050E0ED3F35
:1036B000F10514F050E040E0452B89F12A87920F84
:1036C00090936D03D3CFA081B181A20FB31F119648
:1036D0006C91060F111D0196295F3F4F84179507C6
:1036E00094F38D859E85089F1001099F300C189FCB
:1036F000300C1124C114D104D1F48F8184FF17C080
:103700000E941D24F5E02F0E311C21E08215930547
:1037100008F420E0A701455F5F4F21110EC082E051
:1037200090E0F2019183808387EF9FEF4DCF0E945D
:103730001D242FEF221A320AE8CF88819981E80EE2
:10374000F91EF70114830383FFEFCF1ADF0A7A0112
:103750008A818C151D0409F00CF48CCFE881F98165
:10376000EE0DFF1D428150E030E020E010E000E06F
:1037700090E080E0B3CFF12CE12CD12CC12CE8CF2C
:1037800081E090E09C838B83ECDA882309F480CF7E
:1037900081E090E00E942C1380E40E943A1378CFDD
:1037A00089899A89019661F083E090E09C838B83FC
:1037B00082E090E00E942C1380E40E94341368CFD2
:1037C0008D819E812091D4013091D501821793077C
:1037D000D1F46091D8017091D901AE014F5E5F4F75
:1037E0008091D6019091D7010E94A6260097E1F220
:1037F000789422E030E0F20131832083892B99F024
:103800008DEF9FEFE1CE89288A288B2869F6892BD6
:1038100059F6CE0146DE188A1F86E8CF82E090E096
:103820009C838B8335CF90E080E0CECE82E090E029
:10383000F2019183808385EF9FEFC6CE8F929F9296
:10384000AF92BF92CF92DF92EF92FF920F931F93AE
:10385000CF93DF93EA018C01060F171FF8018181D6
:10386000833098F082E090E09983888386EF9FEF21
:10387000DF91CF911F910F91FF90EF90DF90CF904C
:10388000BF90AF909F908F90089580916903909121
:103890006A03892B61F081E090E020916B03309105
:1038A0006C03232B11F490E080E0892B39F482E043
:1038B00090E0998388838EEF9FEFDACF42DE8823F2
:1038C00009F4DFC0F8018181813009F495C0E8F086
:1038D000823099F420916B0330916C03E09169037D
:1038E000F0916A0390E080E041E050E0281739074A
:1038F00009F0BDC036DA811117C0789481E090E0FC
:103900009983888390E080E0B3CF20916B0330915E
:103910006C03E0916903F0916A0390E080E041E07C
:1039200050E02817390741F481E090E00E942C1301
:1039300080E40E943A13E1CF63817481672B11F018
:103940005483438301967396ECCFE0916903F09121
:103950006A03E00FF11F2381348122303105D9F44D
:10396000218932892F3F3F4FB1F425813681409123
:10397000D4015091D5012417350761F5AF014F5E91
:103980005F4F6091D8017091D9018091D6019091DB
:10399000D7010E94A626EFEFCE1ADE0AEE0AFE0A33
:1039A0000D5E1F4F40916B0350916C0370E060E01F
:1039B000C416D506E606F7063CF5009731F2789472
:1039C000892B09F49BCF82E090E0998388838DEF67
:1039D0009FEF4ECFC114D104E104F104E1F6232B93
:1039E000D1F6CF015EDDE0916903F0916A03E00F4B
:1039F000F11F108A1786CFCF10E000E090E080E042
:103A0000C12CD12C7601CECF0097C9F610E000E092
:103A1000812C912C540183E0E82EF12C1AC0E09106
:103A20006903F0916A03E00FF11F8381948102978B
:103A300049F4F482E38282E090E00E942C1380E457
:103A40000E943413FFEF8F1A9F0AAF0ABF0A0D5E60
:103A50001F4F80916B0390916C03B0E0A0E088163B
:103A60009906AA06BB06DCF290E080E0A8CF63814D
:103A700074816230710511F4548343830196739607
:103A800035CF82E090E09983888385EF9FEFF0CE79
:103A90000097B9F48FEFFB0180832091DE01309114
:103AA000DF0143E1429FC001439F900D1124E0914B
:103AB0006903F0916A03E80FF91F8285FB01818396
:103AC00008950C94E51288E090E0FA0191838083D8
:103AD00090E080E008951092680310926703E9E691
:103AE000F3E086E0DF011D928A95E9F784ED98E125
:103AF0009093660380936503089580916503909188
:103B0000660308952F923F924F925F926F927F9239
:103B10008F929F92AF92BF92CF92DF92EF92FF92DD
:103B20000F931F93CF93DF93CDB7DEB760970FB698
:103B3000F894DEBF0FBECDBFF894E0916703F0911B
:103B400068033196F0936803E09367037894A0913B
:103B50006903B0916A03BA83A983109709F4FAC183
:103B6000E0916B03F0916C03EF2B09F4F3C128870C
:103B70004B875C876D877E879A878987B88BAF87ED
:103B8000312C212CF12C512C412C80916B039091E4
:103B90006C032816390610F4FF2029F1F89480915F
:103BA000670390916803019790936803809367037C
:103BB0007894C20160960FB6F894DEBF0FBECDBFF9
:103BC000DF91CF911F910F91FF90EF90DF90CF90F9
:103BD000BF90AF909F908F907F906F905F904F902D
:103BE0003F902F900895B10190E080E087D4682E37
:103BF000EF85F889878181FD3DC08381948103979A
:103C0000C9F5258136813C832B8389859A852817C0
:103C1000390781F5C101EFD8782E8823A9F1AF8546
:103C2000B8891F968D919C915097019621E01D9621
:103C30004D915C918417950709F020E02F83B12CFA
:103C4000A12CEF85F88982818A151B0419F014F0E4
:103C5000FF20E9F0F885FF2309F46CC1AF85B8892E
:103C600050961C921E921F97662021F0B10190E0A1
:103C700080E046D4FFEF2F1A3F0A2F8538892D5E4A
:103C80003F4F388B2F8781CFB1E0BF83D8CFBED4D1
:103C90009E838D83E885EE23E9F0772009F43CC10B
:103CA000AF85B8891F968D919C91892B79F0BBE0E7
:103CB000BA9DC001BB9D900D1124AF85B889ED91CF
:103CC000FC91E80FF91F85819681F5D6BFEFAB1AFD
:103CD000BB0AB7CF81E0772039F0EF85F8892785D7
:103CE0003089232B09F080E0F82EE12CA114B104D7
:103CF00039F4AF85B8891796EC90E4FAEE24E0F831
:103D0000BBE0BA9D6001BB9DD00C1124882309F44F
:103D100024C1AF85B889ED91FC911197EC0DFD1D83
:103D2000438154811D962D913C91429FC001439F38
:103D3000900D529F900D1124E1105DC00196908767
:103D4000878361E070E08781908529D5EF85F889C8
:103D500021893289008111810C0D1D1D2F3F3207F1
:103D600009F44BC0BC01C9010E94E726D801169690
:103D70009C938E931597AF85B889ED91FC9111971F
:103D8000EC0DFD1D058116810115110509F4CDC04D
:103D9000ED81FE810E0F1F1F1A968C918A0DD8019E
:103DA0008C93E1102FC00F5F1F4FAF85B889ED9145
:103DB000FC91EC0DFD1D12870187AF85B889ED914F
:103DC000FC91EC0DFD1D85819681892B09F4A4C021
:103DD0008091D4019091D5012B813C81281739071E
:103DE00009F465C0772011F001851285912C812C92
:103DF0001A8219824AC00596A2CF24D6F80196836A
:103E00008583B9CF8B859C85AD85BE85F80181837F
:103E10009283A383B4830B5F1F4FC7CFE080F180F1
:103E2000E80CF91CD70113966D917C9114978C9135
:103E30008F3F09F473C0E1E0F0E002C0EE0FFF1F16
:103E40008A95E2F7CF01092E000CAA0BBB0BFB01F0
:103E5000408151816281738184239523A623B723F6
:103E600021E0892B8A2B8B2B09F420E0D8012C939D
:103E7000D70111968C91080F111DE981FA813196B5
:103E8000FA83E983F7E08F0E911CAF85B889ED9135
:103E9000FC91EC0DFD1D828129813A818217130668
:103EA00011F00CF0BBCF772011F0128701873F8112
:103EB000332391F1AF85B889ED91FC91EC0DFD1D97
:103EC00061E070E0878190856AD4AF85B889ED9113
:103ED000FC91EC0DFD1DE780F08445815681E1E009
:103EE000F0E0662011F0F0E0E0E00D811E819C0121
:103EF000B101882799278E1B9F0B8BD32C01892B0F
:103F000059F0EF85F88980819181C80ED91ED601BC
:103F100015968D919C91CFD5F12CD8CEF70141818A
:103F200050E0C8010E94E538A3CF86EF482E552403
:103F30005A94CCCEEF85F889878590890196908B2D
:103F40008787258536858217930709F08DCE108ADD
:103F500017868ACE512C412C21CE10E000E02DCFC7
:103F60002F923F924F925F926F927F928F929F9289
:103F7000AF92BF92CF92DF92EF92FF920F931F9377
:103F8000CF93DF938091690390916A0310E000E082
:103F9000892BA9F0D6DA0AEF1FEF882381F0209051
:103FA0006B0330906C03C0916903D0916A03D12CEC
:103FB000C12C10E000E02C143D04A9F47894C80151
:103FC000DF91CF911F910F91FF90EF90DF90CF90F5
:103FD000BF90AF909F908F907F906F905F904F9029
:103FE0003F902F900895C6010E94FB16882309F187
:103FF0008B819C810397E9F48F859889892BC9F07F
:10400000B60190E080E07AD221E030E0882311F020
:1040100030E020E044245524421A530AB12CA12C4C
:10402000912C812C8A818815190409F038F4188A9A
:104030001F864FEFC41AD40A6396BDCFE881F98179
:10404000EA0DFB1D85819681892BA1F161E070E06D
:1040500087819085A4D33C01D9D28C01E881F98174
:10406000EA0DFB1D8185928525813681200F311F48
:10407000AC01421B530B9A0147815085421B530BE5
:1040800070E060E00E94EE38E881F981EA0DFB1DE6
:10409000E780F084458156819301B601C201B9D20F
:1040A0008C01892B39F0E881F981EA0DFB1D8581AE
:1040B000968101D55FEF851A950A8BE0A80EB11C99
:1040C000B1CF3FCA789408952F923F924F925F925A
:1040D0006F927F929F92AF92BF92CF92DF92EF92B8
:1040E000FF920F931F93CF93DF9300D000D000D0A7
:1040F000CDB7DEB70091690310916A0399249394B8
:104100000115110509F43EC0A0906B03B0906C033B
:1041100018DA982E8823B1F110926A03109269037D
:1041200010926C0310926B0310926D0310926E0349
:104130008FEF9FEFDC018093DE019093DF01A0936E
:10414000E001B093E10178947AD31E830D83C12CF2
:10415000D12C7601C501B0E0A0E089839A83AB83BE
:10416000BC8322242A94322C89819A81AB81BC8120
:10417000C816D906EA06FB06F4F0C8019CD480E410
:104180000E943A13892D26960FB6F894DEBF0FBE13
:10419000CDBFDF91CF911F910F91FF90EF90DF90F6
:1041A000CF90BF90AF909F907F906F905F904F9017
:1041B0003F902F900895AD81BE8115968D919C9171
:1041C00016972091D4013091D50182179307D1F42D
:1041D00051968D919C91E9D5ED81FE8180819181EF
:1041E000B12CA12C412C512C3201892B89F5BFEF28
:1041F000CB1ADB0AEB0AFB0AED81FE817396FE8384
:10420000ED83B2CFC114D104E104F10429F7892B65
:1042100019F7ED81FE81818992898F3F980709F016
:1042200024D5AD81BE8152963C922E925197D4CF27
:104230008A0D9B1DDC018D919C91009709F03BD468
:10424000BFEF4B1A5B0A6B0A7B0AEBE0AE0EB11CA8
:10425000AD81BE818D919C91119712964C9150E049
:1042600070E060E044165506660677060CF323D42A
:10427000BECFCF93DF93EA0127DF811109C082E02F
:1042800090E09983888385EF9FEFDF91CF91089528
:1042900081E090E00E942C1381E090E09983888374
:1042A00090E080E0F2CF10DF109266031092650379
:1042B000089542E050E069E672E00C944A13FF92E0
:1042C0000F931F93CF93DF938A01EC01C60FD71F83
:1042D000F980B4D20897F816190671F068F082E0F8
:1042E00090E0F801918380838EEF9FEFDF91CF9173
:1042F0001F910F91FF9008956C817D818E819F8128
:104300004B810E94E115811108C082E090E0F80124
:104310009183808384EF9FEFE9CFF9800E94DC15C1
:104320004F2D50E0BE01685F7F4F0E94E5388981C4
:104330000E944B1681E090E0F8019183808390E029
:1043400080E0D4CFDF92EF92FF920F931F93CF9331
:10435000DF938A01EC01C60FD71F0E94DC157C0198
:10436000D9806CD2DD2059F0029721E030E0D816D8
:10437000190619F010F030E020E0232B79F482E0E8
:1043800090E0F801918380838EEF9FEFDF91CF91D2
:104390001F910F91FF90EF90DF900895EF2841F467
:1043A00082E090E0F8019183808384EF9FEFEECF6D
:1043B000F9800E94DC154F2D50E0BE016E5F7F4FEB
:1043C0000E94E53889810E944B1681E090E0F80157
:1043D0009183808390E080E0D9CF89E591E290934A
:1043E000700380936F03089580916F039091700321
:1043F00008950895FC0111821082938382830895A9
:10440000DB011D921C92DC011296ED91FC91139739
:104410007183608313967C936E9312970895FC01C9
:1044200080819181DB018D939C93A081B181109754
:1044300041F08D919C9191838083892B11F4F383BA
:10444000E2830895FC0180819181DB018D939C932F
:10445000892B11F473836283718360830895FC0157
:1044600011821082938382830895CF93DF9300D0CB
:10447000CDB7DEB71A821982F894BE016F5F7F4F05
:1044800086E793E0CCDF89819A81009709F013D306
:1044900089819A81892B89F7BE016F5F7F4F8AE7F7
:1044A00093E0BDDF89819A81009709F004D3898167
:1044B0009A81892B89F778940F900F90DF91CF9193
:1044C0000895CF93DF9300D0CDB7DEB71A8219825B
:1044D000F894BE016F5F7F4F82E793E0A0DF898190
:1044E0009A81009709F0E7D289819A81892B89F70F
:1044F00078940F900F90DF91CF91089581E0089507
:1045000090E080E00895EF92FF920F931F93CF9376
:10451000DF9300D0CDB7DEB71A8219828091710384
:1045200007EF1FEF8823A1F1F894BE016F5F7F4F63
:104530008AE793E074DF789489819A81EE24E3948A
:10454000F12C892B51F4F894BE016F5F7F4F86E701
:1045500093E065DF7894F12CE12C89819A810EEF4C
:104560001FEF0097A9F0FC014281538164E070E0E5
:1045700072D68C01892B61F0F89469817A81C70128
:10458000880F991F880F991F8A589C4F5BDF78947A
:10459000C8010F900F90DF91CF911F910F91FF9065
:1045A000EF9008950F931F93CF93DF9300D000D027
:1045B000CDB7DEB71C821B821A82198280917103EB
:1045C00007EF1FEF8823C1F0AE014D5F5F4F64E03E
:1045D00070E0CE010196B2D68C01892B69F4E98195
:1045E000FA818B819C8193838283F89469817A819B
:1045F00082E793E005DF7894C8010F900F900F9049
:104600000F90DF91CF911F910F910895B7D7049626
:1046100008958F929F92AF92BF92CF92DF92EF92C6
:10462000FF920F931F93CF93DF9300D0CDB7DEB7E8
:104630001A821982BC016F5F7F4F6330710598F059
:10464000AA24AA94BA2CC5010F900F90DF91CF91A4
:104650001F910F91FF90EF90DF90CF90BF90AF90A0
:104660009F908F9008954115510551F348015901CC
:104670008A016C01CBDF8815990511F7E114F1046B
:10468000F9F28E0D9F1DA816B906D0F28091710324
:104690008823F1F0F894B501645071099701AE01D7
:1046A0004F5F5F4FC8010496DED65C01892B71F421
:1046B00089819A81F80193838283C601880F991FAB
:1046C000880F991FB8018A589C4F9ADE7894BBCF07
:1046D00087EFA82EBB24BA94B6CFAF92BF92CF92E9
:1046E000DF92EF92FF920F931F93CF93DF9300D04F
:1046F000CDB7DEB71A821982892B09F047C0611540
:10470000710509F443C04115510509F43FC0211555
:10471000310509F43BC001151105C1F18091710308
:104720008823B9F179016A015B01F894BE016F5FDA
:104730007F4F82E793E073DE789489819A810097B6
:1047400059F1DC0112966D917C91A8010496A4D6D2
:104750008C01E981FA81D501ED93FC9382819381EB
:104760000496F6019183808351DFD7018D939C934A
:10477000C8010F900F90DF91CF911F910F91FF9083
:10478000EF90DF90CF90BF90AF9008950FEF1FEFA5
:10479000EFCF07EF1FEFECCF0EEF1FEFE9CFCF9377
:1047A000DF93EC01672B71F4F2D68C179D0760F054
:1047B000E5D62496C80FD91FE4D68C0F9D1FDF9134
:1047C000CF910895E1D6F1CF90E080E0F8CF0F933C
:1047D0001F93CF93DF932091710321112BC08B0185
:1047E000EC0186E793E006DE8AE793E003DE82E7EA
:1047F00093E000DE97D00097C1F4C9D670E060E086
:10480000CEDF42EE51E062E070E081D1009769F4C2
:104810008091E2019091E301CCD6B801CE0101D59F
:10482000009719F421E020937103DF91CF911F913C
:104830000F91089584EF9FEFF8CFA6C6A8C6CF9337
:10484000DF93A8D6EC01892B11F40FDE3ADECE01FE
:10485000DF91CF910895CF93DF939CD6EC01892B04
:1048600009F403DECE01DF91CF9108958091E2013A
:104870009091E3010895CF93DF9380917103D0E08D
:10488000C0E08823D1F09AD6EC01892BB1F4EDDD9C
:1048900018DE8091E2019091E301E7D1E8D2EC01CA
:1048A000892B59F486E793E0DADD8AE793E0D7DDD8
:1048B00082E793E0D4DD10927103CE01DF91CF91B6
:1048C0000895EF92FF920F931F93CF93DF93EC0124
:1048D0007A018B010F5F1F4F0E9DA0010F9D500DA0
:1048E0001E9D500D112470E060E00E94EE3890E0B3
:1048F00080E0F0E0E0E02FEFE816F90639F4DF9110
:10490000CF911F910F91FF90EF9008951A82198215
:104910002883309711F0D283C1830196FE01C00F26
:10492000D11FEACFCF92DF92EF92FF920F931F93A6
:10493000CF93DF930AE814E00C7F43E050E064EE8D
:1049400071E08AEE91E01AD484EEE82E81E0F82E30
:104950009AEEC92E91E0D92EC1E0D5E0D7014D9154
:104960005D917D01F601619171916F011983088359
:104970005D834C835B834A837F836E839B012F5FC0
:104980003F4F249FC001259F900D349F900D11240F
:10499000998788870115110511F0C80192DF888574
:1049A0009985080F191F2A96FAEEEF16F1E0FF0617
:1049B000A9F6E0E8F3E087E091E0DF019C011D92B9
:1049C00021503040E1F710927F0310927E03109245
:1049D000200510921F0510922405109223051092B5
:1049E000220510922105109226051092250510929D
:1049F00028051092270510922A0510922905109279
:104A00002E0510922D0510922C0510922B05109258
:104A1000300510922F051092320510923105109238
:104A2000FE041092FD04109200051092FF0490E025
:104A300080E0DF91CF911F910F91FF90EF90DF9079
:104A4000CF9008950097F1F0F894AAEEB1E0E1E07C
:104A5000F5E030E020E04D915D9148175907A8F04E
:104A6000428153814115510581F08AE0829FF00116
:104A7000839FF00D1124EF5FFA4F808191810097A1
:104A800059F4789490E080E008952F5F3F4F3A9674
:104A90002330310501F7F5CFDC0111966D917C9142
:104AA000718360834150510953834283FC012193F8
:104AB000CF0178940895009749F1DC018E918530FB
:104AC00041F4E091FF04F09100053097F9F0CD0139
:104AD00009948530D8F4282F30E0F8948FEF8C9328
:104AE0008AE0829FF001839FF00D1124EF5FFA4F5F
:104AF0008081918112969C938E931197B183A083AC
:104B00008281938101969383828378940895CF92D2
:104B1000DF92EF92FF920F931F93CF93DF939C014D
:104B200083E893E08C7F4115510509F49BC0211562
:104B3000310509F497C06115710509F493C07A0134
:104B4000AB01B9016D5F7F4F6C7F9B012F5F3F4FC2
:104B5000249F8001259F100D349F100D1124F8947F
:104B600020911F0530912005232B59F42091270512
:104B7000309128052115310569F12017310708F01A
:104B800058C02091290530912A05232B91F42091BA
:104B9000270530912805820F931F20913105309110
:104BA00032052115310509F441C02017310708F0FD
:104BB00056C07894CFEFDFEF86EF9FEFF701D183F8
:104BC000C083DF91CF911F910F91FF90EF90DF9005
:104BD000CF900895C3E0D0E0C0907E03D0907F03D3
:104BE00024E031E02C193D092017310710F32AE0A9
:104BF0002C9FF0012D9FF00D1124EF5FFA4F918350
:104C000080835583448353834283778366831187EC
:104C10000087009709F055DE0C0D1D1D10937F03D2
:104C200000937E03789490E080E0C8CFC4E0D0E0A9
:104C3000D3CFC3E0D0E02AE02C9FF0012D9FF00DF0
:104C40001124EF5FFA4F918380835583448353830C
:104C5000428377836683009729F333DEE3CFC4E092
:104C6000D0E0E9CF8FEF9FEFACCF9C010397029785
:104C700008F069C0F89484E09AE0482F50E02417C7
:104C800035070CF44DC091E08AE0829FF001839FCC
:104C9000F00D1124EF5FFA4F1182108215821482F9
:104CA00013821282178216829923B1F180911F0517
:104CB00090912005892BA9F4209127053091280592
:104CC0002115310571F080917E0390917F03821B45
:104CD000930B90937F0380937E031092280510928C
:104CE00027058091290590912A05892BA9F4209107
:104CF0003105309132052115310571F080917E0327
:104D000090917F03821B930B90937F0380937E038C
:104D10001092320510923105789490E080E0089569
:104D2000949FF001959FF00D1124EF5FFA4F4081A1
:104D30005181452B31F440855185452B11F481502B
:104D40009CCF90E0A1CF8FEF9FEF089541155105C3
:104D500049F1009739F16115710521F1F89420911D
:104D6000FD043091FE04232BB9F42091FF0430910F
:104D70000005232B89F49093FE048093FD04709327
:104D800000056093FF04789425E030E090E080E037
:104D9000FA0131832083089578942FEF3FEF86EF57
:104DA0009FEFF6CF8FEF9FEF0895059769F4F89482
:104DB0001092FE041092FD04109200051092FF0460
:104DC000789490E080E008958FEF9FEF089561154B
:104DD000710519F4F0E0E0E011C08530910581F42F
:104DE000E091FD04F091FE043097A1F3CB01019610
:104DF0000995009779F3FC0185E08193CF0108952F
:104E00009C01235031092230310520F72AE0289FE8
:104E1000D001299FB00D1124AF5FBA4F2D913C9165
:104E20001197232BB9F216962D913C9117972617BF
:104E3000370780F2F89412962D913C911397211523
:104E4000310529F0ED91FC911197309711F4789488
:104E5000C1CF4181528111965C934E93215031090B
:104E600013963C932E93129781937894C7CFE7E8DB
:104E7000F4E086E7DF011D928A95E9F7E0E8F3E0C8
:104E800087E091E0DF019C011D9221503040E1F765
:104E900010927F0310927E03E1E0F5E082E3DF01F0
:104EA0001D928A95E9F7EDEFF4E084E0DF011D92B1
:104EB0008A95E9F790E080E00895CF93DF93C09161
:104EC000F001D091F101CF3FDC0759F410D4909359
:104ED000F1018093F00197FF09C0D093F101C093D5
:104EE000F00184EF9FEFDF91CF91089590E080E093
:104EF000FACF8230910528F48093330590E080E06A
:104F000008958FEF9FEF08954F925F926F927F9277
:104F1000AF92BF92CF92DF92EF92FF920F931F93C7
:104F2000CF93DF9300D0CDB7DEB71A8219820097F6
:104F300009F479C06115710509F475C02091F0017B
:104F40003091F10107EF1FEF2F3F3F4F09F445C0AC
:104F50006B015C01412C512C3201F12CE12C10E051
:104F600000E09E012F5F3F4FA6014E195F09B5017A
:104F70006E0D7F1D8091F0019091F1011CD4892B61
:104F800009F04BC089819A81009741F4E114F10442
:104F900029F420913305222309F442C0E80EF91EBA
:104FA000EC14FD04D0F480E8481684E858068EE13D
:104FB0006806710420F560E070E0CB010E946A355C
:104FC0002AE0420E511C611C711C0A3F4FEF14076E
:104FD00021F0043F8FEF1807A1F4C8010F900F9044
:104FE000DF91CF911F910F91FF90EF90DF90CF90C5
:104FF000BF90AF907F906F905F904F90089501EFBA
:105000001FEF81E090E0013F2FEF120711F090E0D9
:1050100080E0892B09F4A5CFE0CF04EF1FEFDDCFAF
:105020000AEF1FEFDACF0FEF1FEFD7CF4F925F924C
:105030006F927F92AF92BF92CF92DF92EF92FF92E8
:105040000F931F93CF93DF9300D0CDB7DEB71A82B3
:105050001982009709F479C06115710509F475C0CA
:105060002091F0013091F10107EF1FEF2F3F3F4FEB
:1050700009F445C06B015C01412C512C3201F12C2B
:10508000E12C10E000E09E012F5F3F4FA6014E197A
:105090005F09B5016E0D7F1D8091F0019091F101C6
:1050A0003DD3892B09F04BC089819A81009741F447
:1050B000E114F10429F420913305222309F442C0BC
:1050C000E80EF91EEC14FD04D0F480E8481686E9D9
:1050D000580688E96806710420F560E070E0CB01AD
:1050E0000E946A352AE0420E511C611C711C0E3F61
:1050F0004FEF140721F0043F8FEF1807A1F4C80108
:105100000F900F90DF91CF911F910F91FF90EF9033
:10511000DF90CF90BF90AF907F906F905F904F9057
:10512000089502EF1FEF81E090E0023F2FEF12079A
:1051300011F090E080E0892B09F4A5CFE0CF04EFD7
:105140001FEFDDCF0EEF1FEFDACF0FEF1FEFD7CF3F
:105150008091F0019091F1018F3F980749F0BED204
:10516000892B49F48FEF9FEF9093F1018093F00129
:1051700090E080E0089584EF9FEF0895CF92DF9252
:10518000EF92FF920F931F93CF93DF9321E041158E
:10519000510509F020E04150510921112CC0DC01DA
:1051A000FB01D12CC12C21E022C03FEFC31AD30A4E
:1051B0007D010D911D91E701EA80FB80E016F1066B
:1051C000A8F420813181E280F380F182E082338390
:1051D0002283ED90FC9011979D0122503109E90145
:1051E000F982E88211961C930E9320E03296C41641
:1051F000D506D8F2D2CFDF91CF911F910F91FF90BA
:10520000EF90DF90CF900895FC01680F791F90E038
:1052100080E0E617F70709F408952191820F911DA8
:10522000F8CF20913405211113C047DE009791F487
:1052300010923A05109239051092380510923705F0
:10524000109236051092350521E02093340508951B
:1052500084EF9FEF0895AF92BF92CF92DF92EF92CB
:10526000FF920F931F93CF93DF93009709F460C0D1
:105270004630510508F45CC020913405C7EFDFEFDC
:10528000222309F449C08C01060F171FF801C080C2
:10529000D180C114D10409F44EC096012A5F3F4F5A
:1052A0004217530708F447C07C018091390590915B
:1052B0003A0593838283B6016C5F7F4F5801A60E37
:1052C000B71EC801A1DFF5019183808364E070E01F
:1052D000C8011ADEEC01892BF9F481E090E009DEC7
:1052E000B601C801049610DEEC01892B91F462E04E
:1052F00070E0C50109DEEC01892B59F4C701DBDB45
:105300008091390590913A05019690933A058093E2
:10531000390590E080E0EDDDCE01DF91CF911F9166
:105320000F91FF90EF90DF90CF90BF90AF900895D6
:10533000CFEFDFEFF1CFC9EFDFEFEECF6F927F92CC
:105340008F929F92AF92BF92CF92DF92EF92FF9295
:105350000F931F93CF93DF9300D000D0CDB7DEB76C
:10536000009709F47AC04115510509F476C02091DF
:10537000340507EF1FEF222309F44DC03A017B01EA
:105380005C0164E070E0CE01019650DE8C01892B57
:1053900009F041C009811A810115110509F45AC0AB
:1053A000480186E0880E911CB701680D791D809137
:1053B000F2019091F3010BDD6C01009709F450C0EC
:1053C000A70170E060E00E94EE3889819A81AB818C
:1053D000BC81EC0CFD1CF70181939193A193B193D7
:1053E0007F0181E090E085DDB801C7011FDE892BD8
:1053F00031F562E070E0C701800F911F17DE8C016C
:10540000892BE9F490E080E074DDF501D182C0825F
:10541000F30191828082C8010F900F900F900F903E
:10542000DF91CF911F910F91FF90EF90DF90CF9080
:10543000BF90AF909F908F907F906F90089590E075
:1054400080E057DDF50111821082F3011182108294
:10545000C60131DB09EF1FEFDECF0FEF1FEFDBCF10
:1054600006EF1FEFD8CF0097A1F04115510589F045
:105470002115310571F0F90136966E177F0748F056
:10548000DC012D933C93DA01ED93FC9390E080E0F6
:1054900008958FEF9FEF0895AF92BF92CF92DF9262
:1054A000EF92FF920F931F93CF93DF93009709F42E
:1054B0005FC04115510509F45BC06530710508F402
:1054C00057C020913405C7EFDFEF222391F1DC01B3
:1054D000CD90DC9011971296ED91FC9196012A5F88
:1054E0003F4FC9EFDFEF2617370719F5C091350594
:1054F000D0913605209749F521E030E0309336050C
:10550000209335057A018C01F0933805E093370537
:105510005601B4E0AB0EB11CB50176DE0A0D1B1DC1
:10552000F801208131818217930729F5D701CD92A7
:10553000DC92CE01DF91CF911F910F91FF90EF9000
:10554000DF90CF90BF90AF900895209137053091B4
:1055500038052F5F3F4FCCEFDFEFE217F30790F2F4
:10556000CBEFDFEF2E173F0768F2D0E0C0E0CACFE5
:10557000CFEFDFEFDECFC3EFDFEFDBCF84E090E0F4
:10558000089582E090E008958CEF9FEF089580E207
:1055900090E0089510923A0510923905109238055E
:1055A00010923705109236051092350590E080E094
:1055B00008959093F3018093F2010895809134054A
:1055C000882391F0C5DD009789F410923A05109276
:1055D0003905109238051092370510923605109251
:1055E000350510923405089590E080E00895009705
:1055F00049F06115710531F0FC0111821082FB0147
:10560000118210820895F3CF26E030E040E855E2A1
:1056100060E070E090E080E000C0892B21F48AE136
:1056200096E00C9492370895089580E00895CF9203
:10563000DF92EF92FF920F931F930E944535609384
:105640003B0570933C0580933D0590933E0500918A
:105650003F051091400520914105309142056B01B5
:105660007C01C01AD10AE20AF30A97018601043CC0
:1056700019402105310510F160933F0570934005F5
:105680008093410590934205AAD00E944535009130
:105690003F05109140052091410530914205601B66
:1056A000710B820B930B643C79408105910570F07E
:1056B00081E090E0909346058093450581E01F913D
:1056C0000F91FF90EF90DF90CF90089510924605D4
:1056D00010924505F3CF10924305089568EE73E0EC
:1056E00080E090E00E946A3590E080E0089526E036
:1056F00030E040E052EC61E070E090E080E08DDF6F
:105700008AE196E00E94C836892B29F08AE196E06A
:105710000E94E236F5CF90E080E00895CF92DF92CC
:10572000EF92FF920F931F93CF93DF936B017A0158
:10573000E901198218828AE196E00E94C836892B15
:1057400079F18601CC24C39482E0D82E8091430560
:10575000811111C08AE196E00E94E2360297B1F70A
:10576000C0924305F801D1928F01888199810196F9
:1057700099838883EBCF888199818E159F0580F46A
:105780008AE196E00E94E2368F3F9807A1F3F80184
:1057900081938F0188819981019699838883EBCFCA
:1057A00090E080E0DF91CF911F910F91FF90EF90FB
:1057B000DF90CF9008950F931F93CF93DF93EA016B
:1057C00089018AE196E00E947638F801D183C0838E
:1057D00090E080E0DF91CF911F910F910895CF92DB
:1057E000DF92EF92FF92CF93DF938091440591E097
:1057F000980F90934405882379F021E030E03093AE
:1058000046052093450580934405DF91CF91FF9095
:10581000EF90DF90CF900895C091F501D091F601FF
:105820006E8D7F8D88A199A1C0D120E030E040E845
:105830005FE44BD36B017C016A8D7B8D8C8D9D8DDC
:10584000B4D19B01AC01C701B60198D082D16B01E4
:105850007C010E949C04B701A60190E080E00E94B8
:10586000BC03809144058150CECF0F931F93CF93FB
:10587000DF9310924907109248070E94A035C4DEBA
:10588000C091F501D091F601198218826FEF7FEF78
:10589000CB010E94420470E060E090E080E00E9452
:1058A000BD02009709F039C00E94A30AF8947894C9
:1058B000BE016A5D7F4F8A819B810E94C002892B55
:1058C00059F46FEF7FEFCB010E9451030E943C041B
:1058D000882311F081E08AA7F894A6DE0E943F0495
:1058E000882311F080E008C00E943C048111FACFA7
:1058F00081E09AA59111F6CF809348070E94271363
:105900008C0178948091480781110CC00E94090C89
:105910000E942004F89490E080E0DF91CF911F91E5
:105920000F9108950E941D040E943F048823D9F01E
:1059300081E0809349079091490781E0911180E0CF
:10594000809348078091490781116FDE013011056E
:1059500029F40E942713892B09F4BDDE0E94271326
:105960008C0165DECFCF0E943C048111E1CF81E044
:105970009AA59111DECF80E0DCCF5058BB27AA2733
:105980000ED03DC206D230F00BD220F031F49F3F52
:1059900011F41EF4FBC10EF4E095E7FBC8C1E92F3A
:1059A00050D280F3BA17620773078407950718F07F
:1059B00071F49EF57FC20EF4E0950B2EBA2FA02D48
:1059C0000B01B90190010C01CA01A0011124FF27AC
:1059D000591B99F0593F50F4503E68F11A16F040A7
:1059E000A22F232F342F4427585FF3CF46953795A6
:1059F0002795A795F0405395C9F77EF41F16BA0B6B
:105A0000620B730B840BBAF09150A1F0FF0FBB1F18
:105A1000661F771F881FC2F70EC0BA0F621F731F61
:105A2000841F48F4879577956795B795F7959E3FBE
:105A300008F0B3CF9395880F08F09927EE0F97954C
:105A40008795089520D280F09F3740F491110EF48D
:105A500032C260E070E080E89FE3089526F01B16F4
:105A6000611D711D811D69C183C13DD108F481E0B3
:105A700008959ED1E395D4C10CD0C1C191D140F01D
:105A800088D130F021F45F3F19F051C1511113C298
:105A90007DC1D7D198F39923C9F35523B1F3951B51
:105AA000550BBB27AA2762177307840738F09F5F3F
:105AB0005F4F220F331F441FAA1FA9F333D00E2EAE
:105AC0003AF0E0E830D091505040E695001CCAF71B
:105AD00029D0FE2F27D0660F771F881FBB1F2617E0
